S00C0000546573742E7372656378
S31508000000F84E002059BB0008EFB90008F1B90008FE
S31508000010F3B90008F5B90008F7B9000800000000B0
S31508000020000000000000000000000000F9B9000808
S31508000030FBB90008000000008B9F0008FDB9000806
S315080000401DBD000821BD000825BD000829BD000802
S315080000502DBD000831BD000835BD000839BD0008B2
S315080000603DBD000841BD000845BD000849BD000862
S315080000704DBD000851BD000855BD000859BD000812
S315080000805DBD000861BD000865BD000869BD0008C2
S315080000906DBD000871BD000875BD000879BD000872
S315080000A07DBD000881BD000885BD000889BD000822
S315080000B08DBD000891BD000895BD000899BD0008D2
S315080000C09DBD0008A1BD0008A5BD0008A9BD000882
S315080000D0ADBD000805BA00080DBA000815BA000833
S315080000E01DBA0008B1BD0008B5BD0008F0B585B059
S315080000F000260FE0DFF8640D007801280AD1DFF842
S31508000100DC090068DFF8D81908600020DFF84C1D04
S315080001100870002602A8019003A800900DF10A03B2
S315080001200022C821DFF8BC0904F0E6F80100BDF892
S31508000130080047F2D9229042DCD00F7802AADFF8ED
S31508000140A80904F0E8FADFF898090068002819D128
S3150800015002A9DFF8980904F0BBFADFF884190860E9
S31508000160BDF80800002828D1DFF874090068DFF810
S315080001706C1908604FF480720021DFF86009006886
S3150800018004F004FBDFF8D80C007800287AD0DFF8F2
S31508000190CC0C0078002812D1FFB2682FBAD1DFF84C
S315080001A040090068411CDFF83829116007700026ED
S315080001B00120DFF8A81C0870ACE700BFAAE7DFF843
S315080001C020090068411CDFF8182911600770DFF85C
S315080001D010090068DFF804190968401A0B2805D1C8
S315080001E0DFF8F8080068807A10F10D06F6B2002EDE
S315080001F090D0DFF8EC080068DFF8E0180968401AC4
S31508000200F6B2B04286DBDFF8D808006810F8010CB1
S3150800021016282BD1DFF8C8080768F6B2B11E89B2CE
S31508000220DFF8B808006800F011F917F8021CC0B228
S3150800023081427FF46FAF02A800900023F6B2320025
S3150800024092B2DFF898080168DFF8180C04F033F961
S315080002500020DFF8881808600020DFF88418086096
S315080002600020DFF8F81B0870002653E7DFF86C0853
S315080002700068DFF86C1808600020DFF8E01B0870DB
S31508000280002647E7DFF8D40B0078002813D1FFB221
S31508000290682F7FF43FAFDFF848080068411CDFF895
S315080002A04028116007700026012400250120DFF888
S315080002B0AC1B08702EE7DFF828080068411CDFF839
S315080002C0202811600770EDB2002D39D1641CE4B204
S315080002D0062C7FF41FAFDFF8040800684079682809
S315080002E020D1DFF8F8070068B0F80100DFF8EC174E
S315080002F00968B1F8031080B289B2884204D1012591
S3150800030080B28608083605E70020DFF8501B08701B
S31508000310002600240025DFF8C4070068DFF8C017A8
S315080003200860F7E60020DFF8341B08700026002472
S315080003300025DFF8A8070068DFF8A4170860E9E6D3
S31508000340F6B2002E3FF4E6AEDFF894070068DFF851
S315080003508C170968401AF6B2B042FFF6DBAEDFF832
S315080003608007006810F8010C162861D1DFF87007BD
S315080003700468F6B2B6F1080189B2DFF860070068CA
S31508000380801D00F063F814F8021CC0B2814241D106
S31508000390DFF848070068007B032806D0042817D032
S315080003A00A2802D00B2813D024E00020DFF83017E3
S315080003B00968087002A800900023F6B2320092B2CB
S315080003C0DFF818070168DFF8A00A04F074F811E0EE
S315080003D00020DFF80C170968087002A800900023AF
S315080003E0F6B2320092B2DFF8F4060168DFF87C0A4A
S315080003F004F061F80020DFF8E41608600020DFF852
S31508000400E01608600020DFF8541A08700026002459
S3150800041000257FE6DFF8C4060068DFF8C416086022
S315080004200020DFF8381A087000260024002571E637
S31508000430DFF8A8060068DFF8A81608600020DFF8CD
S315080004401C1A087000260024002563E610B4002252
S31508000450002303E09BB21C5CA2185B1C9BB289B20A
S315080004608B42F7D31000C0B210BC704730B583B0CA
S315080004700020002100220025002400E000BFDFF84C
S31508000480900C0078012840F0B280002D13D101A904
S31508000490DFF8580604F01CF90500BDF8040000282A
S315080004A0ECD12C004FF480720021200004F06EF984
S315080004B0200004F09CFBDFF85C0C0068DFF8581C91
S315080004C00968401A0128C0F28C8001AA002104207C
S315080004D004F0E4FBDFF83C0C05682900200004F072
S315080004E07AFCAEA1200005F0DFF8002810D0250020
S315080004F04FF480720021200004F048F9200004F02F
S3150800050076FB01AA0021DFF8140C05F02AFAB6E7F3
S31508000510DFF80C1C200005F0C7F800280ED001A84B
S31508000520009000232A1B92B22100DFF8F80B03F093
S31508000530C2FF0025002004F05AFBA0E7DFF8E81BFD
S31508000540200005F0B1F8002810D025004FF480727D
S315080005500021200004F01AF90020050000240020DC
S3150800056004F045FB002004F0B7FF88E7DFF8BC1B62
S31508000570200005F099F8002810D025004FF4807265
S315080005800021200004F002F90020050000240020C4
S3150800059004F02DFB002004F09FFF70E7DFF8901BA6
S315080005A0200005F081F8002810D025004FF480724D
S315080005B00021200004F0EAF80020050000240020AD
S315080005C004F015FB002004F087FF58E725004FF4D8
S315080005D080720021200004F0D9F8200004F007FBFF
S315080005E04DE701AA0021042004F058FB47E7002D37
S315080005F010D04FF480720021200004F0C7F801AA39
S315080006002100DFF8E80404F086F80025002400201D
S3150800061004F0EDFA002004F01FFF012004F01CFF8F
S3150800062004F0D8FE2BE72DE9FF4100260024002020
S31508000630ADF80A005FF000080025002705E002AAC9
S315080006402100DFF8A80404F066F802A8019003A8C0
S3150800065000900DF10A0300220021DFF8C80A03F012
S315080006604BFE0400B0A1200005F01EF810F10208A8
S31508000670404600F095F80700BFB2002FDFD098F883
S315080006800C0000280CD0022828D0032827D00428DC
S3150800069041D00A2823D00B283DD00C28CFD0CEE74E
S315080006A098F80D0010F00F05DFF8880A0078EDB20B
S315080006B0854206D102AA0021DFF87C0A05F051F925
S315080006C00BE0DFF8780A0078EDB2854205D102AA78
S315080006D00021DFF86C0A05F044F9B0E7AFE702A994
S315080006E0DFF8080403F0F4FF0600002E12D0BFB2AC
S315080006F03A004146300005F0D9F90120BFB2B85595
S3150800070002A8009000233A0092B23100DFF8580799
S3150800071003F0D1FE93E798F80D000F2101FB00F5D1
S3150800072098F80E00052808D1DFF8180A0570290080
S31508000730C9B2012002F09EFF2EE0DFF8080A007811
S31508000740EDB2A84223D002A9DFF8A00303F0C0FF48
S315080007500600002E08D0BFB23A004146300005F028
S31508000760A5F90120BFB2B855DFF8D80905702900E8
S31508000770C9B2012002F07EFF02A8009000233A00C9
S3150800078092B23100DFF8E40603F095FE04E0290092
S31508000790C9B2012002F06EFF51E700000A3E0000D0
S315080007A070B50400B4F80150B4F80300ADB280B2D5
S315080007B0854214D1ADB2AD08ADB2281986792900A3
S315080007C089B2A01DFFF742FE864208D1ADB22819AC
S315080007D0C079162803D115F10800C0B200E0002040
S315080007E070BD10B5002405F075FA0400DFF8580945
S315080007F00078401CDFF850190870DFF84C090078BB
S3150800080010F00F00DFF840190870200005F066FAAE
S3150800081010BD30B589B0002404E001AA0021642087
S3150800082004F03CFA03AD682028706D1C2720287058
S315080008306D1C002028706D1C272028706D1C002058
S3150800084028706D1C682028706D1CC92028706D1CC6
S31508000850DFF8F808007828706D1CDFF8F008407893
S3150800086028706D1CDFF8E408807828706D1CDFF8A6
S31508000870DC08C07828706D1CDFF8D008007928706D
S315080008806D1C022028706D1CDFF8BC08007850F03B
S31508000890700028706D1CDFF8B0080078DFF894182F
S315080008A00870FFF79EFF032028706D1C09210DF1C3
S315080008B01200FFF7CBFD28706D1C162028706D1CE2
S315080008C0DFF84C0800780028A7D0002500E06D1C4A
S315080008D0DFF83C080078002818D0EDB2032D15DAA9
S315080008E00024112103A804F039FD0028EFD001A83F
S315080008F0009002AB002241F28831DFF83C0804F090
S3150800090076FFBDF804000028E1D10124E4B2002CEA
S3150800091006D001AA0021DFF8FC0D04F0BFF981E733
S31508000920002004F0D9FD7DE70D0A680080B5C0B245
S3150800093000280CD0DFF8E00D0078AA2803D10120A2
S3150800094000F046F80FE0012000F058F80BE0DFF859
S31508000950C80D0078AA2803D1002000F039F802E073
S31508000960002000F04BF801BD1FB511E00120FFF78C
S31508000970DDFFBDF80800015D200000F0B9F8002091
S31508000980FFF7D4FF0DF10A022100584803F0C3FE11
S315080009900DF10A00019003A8009002AB0022002185
S315080009A0DFF8C80403F0A8FC0400207B042802D062
S315080009B00B28DBD0E6E70120FFF7B8FFBDF80800F3
S315080009C0015D200000F0AEFE0020FFF7AFFFD9E77B
S315080009D080B5C0B200280BD00121DFF8400D05F024
S315080009E0FEF900AA002140F2DC5004F057F904E0B1
S315080009F00121DFF8280D05F0F5F902BD80B5C0B272
S31508000A0000280BD00221DFF8180D05F0E8F900AA36
S31508000A1000214FF4167004F041F904E00221DFF8D2
S31508000A20000D05F0DFF902BD80B5C0B200280CD074
S31508000A304FF40041DFF8E40C05F0D1F900AA0021D3
S31508000A4040F6B83004F02AF905E04FF40041DFF823
S31508000A50CC0C05F0C7F902BD80B5C0B200280BD092
S31508000A600821DFF8BC0C05F0BAF900AA002140F607
S31508000A70B83004F013F904E00821DFF8A40C05F0F7
S31508000A80B1F902BD80B5C0B200280BD01021DFF83D
S31508000A90900C05F0A4F900AA002140F6B83004F03D
S31508000AA0FDF804E01021DFF8780C05F09BF902BD8B
S31508000AB080B5C0B200280BD02021DFF8640C05F001
S31508000AC08EF900AA002140F6B83004F0E7F804E0F1
S31508000AD02021DFF84C0C05F085F902BDC84C002032
S31508000AE0C44C0020504A00203C4C0020244C0020D6
S31508000AF02DE9F0418AB004000D0000200390002083
S31508000B0002900020ADF810000020ADF8060000267F
S31508000B10002700208DF804005FF000080222DFF8A5
S31508000B20101E04A805F010FB0322DFF8081E03A810
S31508000B3005F00AFBBDF81000002800F0D38001205C
S31508000B4004F064F80722DFF8F01D14F1100003F032
S31508000B504AFE012840F0C9800120DFF8E01D087030
S31508000B60002634E007220298811D07A805F0ECFA52
S31508000B700122029810F10D0101A805F0E5FA2B00F3
S31508000B80DBB29DF80420029907A800F071F9032248
S31508000B900298C11C02A805F0D7FA7F1CBDF806000A
S31508000BA0BFB28742DED3039905A800F0B4FFB6B2F8
S31508000BB0701CBDF8101090FBF1F0DFF8841D08706A
S31508000BC003220398C11C03A805F0BEFA761CBDF8DB
S31508000BD01000B6B2864278D206220398811D05A86F
S31508000BE005F0B2FA0322039810F10C0102A805F0E9
S31508000BF0ABFA0222039810F112010DF1060005F076
S31508000C00A3FA039905A800F0A1FE00285BD10DF10F
S31508000C101200009009AB00224FF47A71DFF8240D18
S31508000C2005F014FEBDF8120000285BD100273DE050
S31508000C304FF480520298000B4FF4805101FB00F1EB
S31508000C40DFF8040D05F080FA02984FF48051B0FBE6
S31508000C50F1F202FB1102DFF8F00C1018807D50F05B
S31508000C60800002994FF48052B1FBF2F303FB121392
S31508000C70DFF8D41C591888750298000B4FF4805178
S31508000C80484305F01FF94FF480520298000B4FF4C1
S31508000C90805101FB00F1DFF8B00C05F0ABF9032237
S31508000CA00298C11C02A805F04FFA7F1CBDF8060081
S31508000CB0BFB28742BCD30DF112020021DFF8840CC3
S31508000CC005F0D2FE73E7002768E70020DFF86C1C02
S31508000CD008702A00D2B20021012000F039FA00205B
S31508000CE003F094FF0AB0BDE8F08100261AE02B0055
S31508000CF0DBB29DF80420029907A800F0B9F82A008B
S31508000D00D2B20299002000F023FA039905A800F050
S31508000D1002FF5FF0010803220398C11C03A805F02F
S31508000D2013FA761C5FFA88F8B8F1000FD7D1BDF828
S31508000D301000B6B28642D2D206220398811D05A8B3
S31508000D4005F002FA0322039810F10C0102A805F037
S31508000D50FBF90222039810F112010DF1060005F0C5
S31508000D60F3F9002706E003220298C11C02A805F041
S31508000D70EBF97F1CBDF80600BFB28742CBD207222B
S31508000D800298811D07A805F0DFF90122029810F1E3
S31508000D900D0101A805F0D8F9072207A914F11000DA
S31508000DA003F021FD0128DED19DF80400E17B88428D
S31508000DB0D9D1039905A800F0C9FD002897D10DF1EE
S31508000DC01200009009AB00224FF47A71DFF8740B19
S31508000DD005F03CFDBDF81200002883D14FF480527F
S31508000DE00298000B4FF4805101FB00F1DFF8580B15
S31508000DF005F0AAF902984FF48051B0FBF1F202FB14
S31508000E001102DFF8440B1018807D50F0800002991B
S31508000E104FF48052B1FBF2F303FB1213DFF8281BE1
S31508000E20591888750298000B4FF48051484305F00D
S31508000E3049F84FF480520298000B4FF4805101FB99
S31508000E4000F1DFF8040B05F0D5F80DF112020021C8
S31508000E50DFF8F00A05F008FE5BE70000EF4C00201B
S31508000E60E14C0020984A0020BC4A0020744A002021
S31508000E702DE9F0438BB004000D0000260020002168
S31508000E80ADF80C1000275FF0000800218DF8091056
S31508000E9000218DF808105FF0000907A98946682126
S31508000EA089F8001019F1010989F8002019F10109DA
S31508000EB000210E0006E0F6B2305D89F8000019F14F
S31508000EC00109761CF6B2072EF5DB012089F8000029
S31508000ED019F10109032089F8000019F10109DFF861
S31508000EE0640D0078FF280AD11F2089F8000019F13F
S31508000EF00109902089F8000019F1010909E09020FC
S31508000F0089F8000019F101091F2089F8000019F174
S31508000F100109012089F8000019F101090E2107A825
S31508000F20FFF794FA89F8000019F10109162089F8E3
S31508000F30000019F10109002608E00020F6B205A90B
S31508000F4070540020F6B204A97054761CF6B2042E2A
S31508000F50F3DB002617E0C0B2C119897BC0B205AA27
S31508000F608154C0B2C119C97CC0B204AA8154401CBC
S31508000F70C0B20428EFDB0DF10A023900DFF8C80C0D
S31508000F8003F0C9FB761C5FFA88F8B8F1000F35D173
S31508000F90F6B2032E32DA0421DFF8B00C03F026FD90
S31508000FA0102107A803F022FD0DF10A00019006A8FA
S31508000FB0009003AB00224FF49661DFF8940C03F01F
S31508000FC09BF90700BDF80A00002805D0F6B2022EE4
S31508000FD001D15FF00008D5E70722B91C200003F00D
S31508000FE002FC0128C7D15FF00108F87F8DF80900D7
S31508000FF097F820008DF808000020B9E70DF10A00DF
S31508001000009006AB00224FF47A71DFF8380905F034
S315080010101DFCBDF80A00002877D14FF48052280B32
S315080010204FF4805101FB00F1DFF81C0905F08CF83C
S315080010305FFA88F8B8F1000F16D14FF48050B5FB67
S31508001040F0F101FB1051DFF800090818807D50F017
S3150800105040004FF48051B5FBF1F202FB1152DFF864
S31508001060E8185118887538E001220DF109014FF486
S315080010708050B5FBF0F303FB1053DFF8CC081818C3
S31508001080163004F013FD012202A94FF48050B5FB77
S31508001090F0F303FB1053DFF8B0081818173004F004
S315080010A005FD042205A94FF48050B5FBF0F303FBB8
S315080010B01053DFF8940818180E3004F0F7FC0422D1
S315080010C004A94FF48050B5FBF0F303FB1053DFF887
S315080010D078081818183004F0E9FC280B4FF48051EA
S315080010E0484304F0EFFE4FF48052280B4FF480512A
S315080010F001FB00F1DFF8500804F07CFF0DF10A024D
S315080011000021DFF8400805F0AFFC0BB0BDE8F0831E
S31508001110E04C0020CC4C0020D04C0020D04B0020C6
S3150800112094BC0008E04A00209CBC0008A4BC000847
S31508001130ACBC0008EB4C0020984B0020EC4C00207F
S31508001140B44B0020EE4C0020ED4C00207C00002023
S315080011502DE9F54F8DB00025002006905FF00009B7
S315080011600020ADF81C000020ADF814000020ADF8F2
S3150800117016000020ADF8000000208DF809000020B8
S31508001180ADF80A00002700200890002003900020F0
S315080011908DF8080000208DF8070000208DF806005D
S315080011A000240020ADF812005FF0000A5FF0000886
S315080011B00020ADF8040000265FF0000B00208DF833
S315080011C00000039104A9DFF8800A03F081FA0500FC
S315080011D0002D00F0CE8006959DF83400002840F0DA
S315080011E0D08007220398811D0BA804F0ADFF0122C9
S315080011F0039810F10D0102A804F0A6FF0422039833
S3150800120010F10E0109A804F09FFF0122039810F1BE
S3150800121016010DF1070004F097FF0122039810F15B
S3150800122017010DF1060004F08FFF682028706D1C69
S31508001230A9467320A9F8000019F102097320A9F834
S31508001240000019F102094D46682028706D1C882097
S3150800125028706D1CDFF8600C007828706D1CDFF8AC
S31508001260580C407828706D1CDFF84C0C8078287074
S315080012706D1CDFF8440CC07828706D1CDFF8380C3C
S31508001280007928706D1C0B2028706D1CDFF82C0C5B
S31508001290007850F0600028706D1C042028706D1CC2
S315080012A0DFF8180C0078DFF8181C0870FFF799FAB1
S315080012B0002028706D1C002028706D1C00202870E6
S315080012C06D1C002028706D1C9DF8080028706D1C88
S315080012D0002405E0A4B20BA8205C28706D1C641CD1
S315080012E0A4B2072CF6DB012028706D1C002405E04B
S315080012F0A4B209A8205C28706D1C641CA4B2042C36
S31508001300F6DB9DF8070028706D1C9DF8060028700E
S315080013106D1C1C210698801DFFF798F828706D1C17
S31508001320162028706D1C9DF83800002824D05FF020
S31508001330000A01E01AF1010A5FFA8AFABAF1030F04
S3150800134011DA2421069804F009F804A800900AABDB
S31508001350002241F28831DFF8D40D04F048FABDF8CE
S3150800136010000028E6D104AA0699DFF8DC0803F085
S31508001370D2F90FB0BDE8F08F2421069803F0A0FB40
S31508001380F1E70222DFF8A8150DF1160004F0DCFEDD
S315080013900222DFF89C1D05A804F0D6FE0322DFF81A
S315080013A0941508A804F0D0FEBDF814000A2190FB95
S315080013B0F1F0ADF80000BDF814000A2190FBF1F237
S315080013C001FB12008DF809000027BDF80000ADF8F2
S315080013D00A009DF80900002804D0BDF80A00401C40
S315080013E0ADF80A00002406E003220898C11C08A8E4
S315080013F004F0AAFE641CBDF81600A4B28442B2D258
S315080014000322089810F10C0103A804F09DFE02229D
S31508001410089810F1120107A804F096FE0020ADF80E
S3150800142012001AE0BDF804000E21484310F1160117
S3150800143089B2069803F044FB04AA0021642003F04D
S315080014402DFC069D03220398C11C03A804F07CFE0C
S31508001450BDF81200401CADF81200BDF81200BDF828
S315080014601C108842C0D207220398811D0BA804F0DD
S315080014706BFE0122039810F10D0102A804F064FE28
S315080014800422039810F10E0109A804F05DFE01225A
S31508001490039810F116010DF1070004F055FE01221C
S315080014A0039810F117010DF1060004F04DFEF6B28F
S315080014B0002E40F0BF8001267F1CBDF80A000128D7
S315080014C00CD1BDF81480ADF80480BDF804000E21D7
S315080014D048430E30800050F0030B36E0BFB2012FB0
S315080014E00CD15FF00A08ADF80480BDF804000E219F
S315080014F048430E30800050F0030B26E0BDF80A0082
S31508001500BFB2874215D19DF80900002804D15FF0C3
S315080015100A08ADF8048003E09DF80980ADF8048058
S31508001520BDF804000E2148430E30800050F0030B2E
S315080015300BE05FF00A08ADF80480BDF804000E2140
S3150800154048430E30800050F0030B682028706D1C4D
S31508001550A946A9F800B019F10209A9F800B019F1CD
S3150800156002094D46682028706D1C882028706D1C5D
S31508001570DFF84409007828706D1CDFF83C094078CC
S3150800158028706D1CDFF83009807828706D1CDFF82C
S315080015902809C07828706D1CDFF81C0900792870A6
S315080015A06D1C0B2028706D1CBDF80A00012807D198
S315080015B0DFF80809007850F0700028706D1C1EE0EE
S315080015C0BFB2012F07D1DFF8F408007850F05000B9
S315080015D028706D1C13E0BDF80A00BFB2874207D118
S315080015E0DFF8D808007850F0300028706D1C06E047
S315080015F0DFF8C808007850F0100028706D1CDFF876
S31508001600BC080078DFF8B8180870FFF7EAF8042075
S3150800161028706D1CA946BDF80A00A9F8000019F142
S315080016200209A9F8007019F102094D469DF808004B
S3150800163028706D1C5FF0000A08E05FFA8AFA0BA8AA
S315080016401AF8000028706D1C1AF1010A5FFA8AFA66
S31508001650BAF1070FF1DB012028706D1C5FF0000A54
S3150800166008E05FFA8AFA09A81AF8000028706D1CC3
S315080016701AF1010A5FFA8AFABAF1040FF1DB9DF84A
S31508001680070028706D1C9DF8060028706D1CB8F1BF
S3150800169001081FFA88F8B8F1000F7FF4D3AE0026C8
S315080016A0BDF804000E21484310F10E0189B20698D0
S315080016B0801DFEF7CBFE28706D1C162028706D1C49
S315080016C09DF8380000283FF4ADAE5FF0000A01E04F
S315080016D01AF1010A5FFA8AFABAF1030FBFF6ACAE3D
S315080016E0BDF804000E21484310F1160189B2069888
S315080016F003F034FE04A800900AAB002241F28831B8
S31508001700DFF8280A04F073F8BDF810000028DFD1C6
S3150800171092E60000C0D401009200002000080140B3
S31508001720000C01402DE9F0438BB004000D000020A9
S315080017300390002002900020ADF806000020ADF8C6
S3150800174010000026002700208DF804005FF000082E
S315080017505FF00009022276490DF1060004F0F4FC58
S315080017600322744903A804F0EFFCBDF8060000281C
S3150800177000F0DB80012003F049FA002614E0494610
S31508001780C9B22800C0B201F075FF00F0D3FC039976
S3150800179007A800F0C0F95FF0010803220398C11CEE
S315080017A003A804F0D1FC761C5FFA88F8B8F1000F9C
S315080017B040F0B880BDF80600B6B2864280F0B28026
S315080017C006220398811D07A804F0BEFC032203988D
S315080017D010F10C0102A804F0B7FC0222039810F1DC
S315080017E0120104A804F0B0FC002706E003220298C0
S315080017F0C11C02A804F0A8FC7F1CBDF81000BFB2EB
S315080018008742CAD207220298811D05A804F09CFCCB
S315080018100122029810F10D0101A804F095FC072297
S3150800182005A914F1100002F0DEFF0128DED19DF8AB
S315080018300400E17B8842D9D1039907A800F086F80D
S31508001840002847D10DF11200009009AB00224FF491
S315080018507A713C4804F0FAFFBDF81200002864D1FA
S315080018604FF480520298000B4FF4805101FB00F1AF
S31508001870354804F069FC02984FF48051B0FBF1F248
S3150800188002FB110230481018807D50F08000029942
S315080018904FF48052B1FBF2F303FB12132A4959188D
S315080018A088750298000B4FF48051484304F00AFBF0
S315080018B04FF480520298000B4FF4805101FB00F15F
S315080018C0214804F097FB0DF1120200211D4805F08E
S315080018D0CBF860E7607B0F2101FB00F9A07B0228AB
S315080018E013D0FFF454AF04283FF449AFBFF44FAF09
S315080018F05FFA89F9CDF800902B00DBB29DF8042039
S31508001900029905A800F0A6F941E75FFA89F9CDF82A
S3150800191000902B00DBB29DF80420029905A800F080
S31508001920D1FA34E7002003F071F90BB0BDE8F08373
S31508001930A3F01F00A0F01F00B4BC0008F04C002064
S31508001940F14C0020044B0020980000202DE9F041BE
S315080019508AB004000D0000270026DFF8A8090078E1
S31508001960AA281AD12078012806D014D303280BD028
S3150800197006D304280CD00EE00120FFF755F80AE03C
S315080019800120FFF769F806E00120FFF77BF802E07F
S315080019900120FFF78DF80120BAE0DFF86809007822
S315080019A0BB2840F0B58004AF682038707F1CA020A3
S315080019B038707F1C5FF0000807E05FFA88F818F8AF
S315080019C0040038707F1C18F101085FFA88F8B8F12E
S315080019D0060FF2DB002038707F1C042038707F1C4D
S315080019E0042038707F1C172038707F1CA0203870A0
S315080019F07F1C012038707F1C552038707F1C0F21F2
S31508001A0004A8FEF723FD38707F1C162038707F1C4B
S31508001A105FF0000807E0002602AA39008A4802F0AB
S31508001A207AFE18F10108F6B2002E2DD15FFA88F871
S31508001A30B8F1020F28DA112104A802F0D7FF02A88C
S31508001A40019003A800900DF10A03002241F28831A3
S31508001A507F4802F051FC0700BDF80800002806D0B0
S31508001A605FFA88F8B8F1010F00D10026D9E70622F7
S31508001A70B91C200002F0B7FE0128CDD1B87B03219E
S31508001A800842C8D10126C7E7F6B2002E3DD102A802
S31508001A90009003AB00224FF47A71DFF8B40D04F01E
S31508001AA0D5FEBDF80800002802D03000C0B22FE0ED
S31508001AB04FF48052280B4FF4805101FB00F1DFF8F8
S31508001AC0480804F041FB01204FF48051B5FBF1F2C0
S31508001AD002FB1152DFF830185118C875280B4FF45D
S31508001AE08051484304F0EEF94FF48052280B4FF426
S31508001AF0805101FB00F1DFF8100804F07BFA02AA16
S31508001B000021DFF84C0D04F0AFFF3000C0B2FFE74C
S31508001B100AB0BDE8F081F0B589B0040000260025BA
S31508001B20DFF8E0070078AA281AD12078012806D01D
S31508001B3014D303280BD006D304280CD00EE00020BB
S31508001B40FEF772FF0AE00020FEF786FF06E0002097
S31508001B50FEF798FF02E00020FEF7AAFF01206FE0DB
S31508001B60DFF8A0070078BB286AD104AE6820307079
S31508001B70761CA0203070761C002704E0FFB2385D82
S31508001B803070761C7F1CFFB2062FF7DB0020307002
S31508001B90761C04203070761C04203070761C1720C2
S31508001BA03070761CA0203070761C01203070761CB0
S31508001BB099203070761C0F2104A8FEF747FC307078
S31508001BC0761C16203070761C002706E0002502AA2F
S31508001BD031001D4802F09FFD7F1CEDB2002D2CD16F
S31508001BE0FFB2022F29DA112104A802F0FFFE02A88B
S31508001BF0019003A800900DF10A0300224FF47A61C0
S31508001C00DFF8500C02F078FB0600BDF80800002843
S31508001C1004D0FFB2012F00D10025DDE70622B11C52
S31508001C20200002F0E0FD0128D1D1B07BC0B210F04F
S31508001C3003000228CAD10125C9E72800C0B2FFE778
S31508001C4009B0F0BDE24C0020244C0020880000209A
S31508001C50984A00202DE9F84F8AB004000D000026A6
S31508001C600020ADF80A0000275FF000085FF00009C1
S31508001C705FF0000A5FF0000B04A8834668208BF823
S31508001C8000001BF1010B8BF800201BF1010B002053
S31508001C90060006E0F6B2305D8BF800001BF1010B7A
S31508001CA0761CF6B2072EF5DB04208BF800001BF134
S31508001CB0010B04208BF800001BF1010BDFF8980BD1
S31508001CC00078FF280AD117208BF800001BF1010BBA
S31508001CD0A0208BF800001BF1010B09E0A0208BF86F
S31508001CE000001BF1010B17208BF800001BF1010BFC
S31508001CF001208BF800001BF1010B55208BF8000022
S31508001D001BF1010B0F2104A8FEF7A0FB8BF80000BE
S31508001D101BF1010B16208BF800001BF1010B0026A6
S31508001D2008E05FF0000802AA3900DFF8300B02F07D
S31508001D30F2FC761C5FFA88F8B8F1000F35D1F6B2D6
S31508001D40022E32DA0421DFF8180B02F04FFE1121B9
S31508001D5004A802F04BFE02A8019003A800900DF11A
S31508001D600A03002243F69821DFF8E80A02F0C4FACB
S31508001D700700BDF80800002805D0F6B2012E01D1EB
S31508001D805FF00008D5E70722B91C200002F02BFDFA
S31508001D900128C8D197F80E9097F80FA0032019EAE2
S31508001DA0000FBED15FF00108BDE702A8009003ABA3
S31508001DB000224FF47A71DFF8980A04F047FDBDF85F
S31508001DC00800002875D14FF48052280B4FF4805133
S31508001DD001FB00F1DFF8300504F0B6F95FFA88F880
S31508001DE0B8F1000F33D15FFA89F919F00300032817
S31508001DF016D14FF48050B5FBF0F101FB1051DFF816
S31508001E000805081880F816904FF48050B5FBF0F1D5
S31508001E1001FB1051DFF8F004081880F817A031E02C
S31508001E204FF48050B5FBF0F101FB1051DFF8D804F0
S31508001E300818807D50F040004FF48051B5FBF1F250
S31508001E4002FB1152DFF8C014511888751AE04FF4D6
S31508001E508050B5FBF0F101FB1051DFF8AC0408180F
S31508001E6080F816904FF48050B5FBF0F101FB105145
S31508001E70DFF89404081880F817A014999DF828002C
S31508001E8001F0F8FB280B4FF48051484304F01AF888
S31508001E904FF48052280B4FF4805101FB00F1DFF814
S31508001EA0680404F0A7F802AA0021DFF8A40904F0E0
S31508001EB0DBFD0BB0BDE8F08F7C000020ED4C002068
S31508001EC0EC4C00202DE9F84F8AB004000D000026DE
S31508001ED00020ADF80A0000275FF000085FF000094F
S31508001EE05FF0000A5FF0000B04A8834668208BF8B1
S31508001EF000001BF1010B8BF800201BF1010B0020E1
S31508001F00060006E0F6B2305D8BF800001BF1010B07
S31508001F10761CF6B2072EF5DB04208BF800001BF1C1
S31508001F20010B04208BF800001BF1010BDFF82809D0
S31508001F300078FF280AD117208BF800001BF1010B47
S31508001F40A0208BF800001BF1010B09E0A0208BF8FC
S31508001F5000001BF1010B17208BF800001BF1010B89
S31508001F6001208BF800001BF1010B99208BF800006B
S31508001F701BF1010B0F2104A8FEF768FA8BF8000085
S31508001F801BF1010B16208BF800001BF1010B002634
S31508001F9008E05FF0000802AA3900DFF8C00802F07E
S31508001FA0BAFB761C5FFA88F8B8F1000F3ED1F6B294
S31508001FB0022E3BDA0421DFF8A80802F017FD1121EA
S31508001FC004A802F013FD02A8019003A800900DF1E1
S31508001FD00A03002243F69821DFF8780802F08CF904
S31508001FE00700BDF80800002805D0F6B2012E01D179
S31508001FF05FF00008D5E70722B91C200002F0F3FBC2
S315080020000128C8D197F80E9097F80FA05FFA89F9BA
S3150800201019F00300032802D15FF00008BBE703208C
S3150800202019EA000FB5D05FF00108B4E702A80090DE
S3150800203003AB00224FF47A71DFF8140804F006FCAB
S31508002040BDF8080000286DD14FF48052280B4FF4D4
S31508002050805101FB00F1AC4804F076F85FFA88F885
S31508002060B8F1000F2FD15FFA89F919F00300032898
S3150800207014D14FF48050B5FBF0F101FB1051A24882
S31508002080081880F816904FF48050B5FBF0F101FB64
S3150800209010519D48081880F817A02DE04FF480507D
S315080020A0B5FBF0F101FB105197480818807D50F0F8
S315080020B040004FF48051B5FBF1F202FB11529249F0
S315080020C05118887518E04FF48050B5FBF0F101FB04
S315080020D010518D48081880F816904FF48050B5FBBB
S315080020E0F0F101FB10518848081880F817A01499D8
S315080020F09DF8280001F0BEFA280B4FF4805148439A
S3150800210003F0E0FE4FF48052280B4FF4805101FB98
S3150800211000F17D4803F06EFF02AA0021DFF83007C0
S3150800212004F0A2FC0BB0BDE8F08F0000B44B002011
S31508002130B3F01F00F0B58DB000200090002002908B
S315080021400020ADF804000020ADF80C00002400259E
S3150800215000208DF80600002700260222DFF89C19C9
S3150800216001A803F0F1FF0322DFF8941900A803F091
S31508002170EBFFBDF80400002800F09980012002F06A
S3150800218045FD00240AE0009904A8FFF7C4FC0322D1
S315080021900098C11C00A803F0D7FF641CBDF8040012
S315080021A0A4B2844280F0808006220098811D04A88B
S315080021B003F0CAFF0322009810F10C0102A803F0ED
S315080021C0C3FF0222009810F1120103A803F0BCFF16
S315080021D0009904A8FFF7BAFB0028D8D000252BE001
S315080021E0A0203070761C17203070761C01203070C5
S315080021F0761C72203070761C0F2108A8FEF726F987
S315080022003070761C16203070761C0421DFF85006D4
S3150800221002F0ECFB112108A802F0E8FB0322029861
S31508002220C11C02A803F090FF0DF10E02002142F630
S31508002230E06002F033FD6D1CBDF80C00ADB28542BE
S31508002240A1D207220298811D06A803F07DFF01226C
S31508002250029810F10D010DF1060003F075FF08AEA6
S3150800226068203070761C9DF806003070761C0027B2
S3150800227005E0FFB206A8385C3070761C7F1CFFB2FA
S31508002280072FF6DB04203070761C04203070761C8D
S31508002290DFF8C4050078FF28A2D117203070761C15
S315080022A0A0203070761CA1E7002002F0AFFC0DB02C
S315080022B0F0BD1FB50CE0BDF80800015D200001F077
S315080022C003F90DF10A022100DFF8900502F023FA5E
S315080022D00DF10A00019003A8009002AB002200212C
S315080022E0DFF8500E02F008F80400207B032802D01D
S315080022F00A28E0D0E5E7BDF80800015D200000F0F7
S3150800230005F8DEE792000020980000202DE9F0414C
S3150800231088B004000D0000260020ADF80600002055
S315080023200290002006905FF00008607B0F2101FBF9
S3150800233000F7A07B022812D0032800F0EB800628BD
S3150800234000F03281072800F06D810C2800F0B38177
S315080023500D2800F0FB810E2800F03C8274E2A07C78
S31508002360DFF8A41C0870607CDFF8A01C0870207CCD
S31508002370DFF89C1C0870E07BDFF8981C0870B4F83E
S315080023801300DFF8B41D08801121DFF88C0C02F069
S31508002390F7F9062103A802F0F3F9A27CDEA103A847
S315080023A004F008FC03A9DFF8700C03F0D4F8DBA1ED
S315080023B0DFF8640C03F0CFF8062103A802F0E0F971
S315080023C0627CD5A103A804F0F5FB03A9DFF8480C45
S315080023D003F0C1F8D1A1DFF8400C03F0BCF80621E0
S315080023E003A802F0CDF9227CCBA103A804F0E2FBF6
S315080023F003A9DFF8240C03F0AEF8C8A1DFF8180C1F
S3150800240003F0A9F8062103A802F0BAF9E27BC2A1F3
S3150800241003A804F0CFFB03A9DFF8FC0B03F09BF835
S315080024200821DFF8180D02F0ABF9062103A802F01F
S31508002430A7F9B4F81320B8A103A804F0BBFBD8A1E8
S31508002440DFF8F80C03F087F803A9DFF8F00C03F0BF
S3150800245082F8D4A1DFF8E40C03F07DF801A8009017
S3150800246005AB00224FF47A71DFF8E40304F0EEF9C5
S31508002470BDF80400002840F0E7814FF48072DFF8C9
S31508002480C01CDFF8C00C03F05FFE1122DFF8881BC2
S31508002490DFF8B40C03F00AFB0822DFF8A01CDFF80B
S315080024A0AC0C03F003FB0122DFF85C1BDFF8A00C81
S315080024B003F0FCFA0122DFF8541BDFF8980C03F04E
S315080024C0F5FA0122DFF8481BDFF88C0C03F0EEFA68
S315080024D00122DFF8401BDFF8840C03F0E7FA02223A
S315080024E0DFF8541CDFF8780C03F0E0FA4FF480723A
S315080024F0DFF84C1CDFF84C0C03F04BFD01AA002159
S31508002500D34804F0B1FA3900C9B22800C0B201F0C4
S31508002510B1F899E10521DFF84C0C02F031F9E07BBE
S31508002520DFF8401C0870207CDFF8381C4870607C97
S31508002530DFF8301C8870A07CDFF8281CC870E07CA7
S31508002540DFF8201C087101A8009005AB00224FF4A3
S315080025507A71BF4804F07AF9BDF80400002840F003
S3150800256073814FF48072DFF8D81BDFF8D80B03F0BD
S31508002570EBFD0522DFF8EC1BDFF8EC0B03F096FA0F
S315080025804FF48072DFF8B81BDFF8B80B03F001FDD3
S3150800259001AA0021AE4804F067FA3900C9B228003A
S315080025A0C0B201F067F84FE114F1190000F0FAFC27
S315080025B0029014F11201029800F054F9804602982C
S315080025C07FF07F4188422CD0E07F002812D17FF02F
S315080025D07F40804508D04146029800F093FA7FF084
S315080025E07F41884200F030813900C9B22800C0B264
S315080025F001F040F8E07F012813D17FF07F40804545
S3150800260009D114F11201029800F062F97FF07F41B6
S31508002610884200F019813900C9B22800C0B201F019
S3150800262029F811E1E07BAA282AD10222DFF8CC1486
S315080026300DF1060003F088FD0322DFF8C41402A892
S3150800264003F082FD002602E006980290761CBDF88B
S315080026500600B6B286420DD203220298C11C06A80D
S3150800266003F072FD029800F083FD7FF07F418842F7
S31508002670EAD1E9E03900C9B22800C0B200F0FAFF91
S31508002680E07B552816D114F1100000F08BFC7FF082
S315080026907F41884208D114F1100000F0BFFC7FF09A
S315080026A07F41884200F0D0803900C9B22800C0B204
S315080026B000F0E0FFC8E0E07BAA2803D1AA20DFF8F3
S315080026C0AC1A0870E07BBB2803D1BB20DFF89C1A44
S315080026D00870E07BFF2803D1FF20DFF8901A087006
S315080026E001A8009005AB00224FF47A71584804F00F
S315080026F0ADF8BDF80400002840F0A6804FF48072BB
S31508002700DFF83C1ADFF83C0A03F01EFD0122DFF869
S315080027105C1ADFF8A40D03E0256400002E00000013
S3150800272003F0C4F94FF48072DFF8141ADFF8140ABC
S3150800273003F02FFC01AA0021454804F095F9390059
S31508002740C9B22800C0B200F095FF7DE0E07B002802
S3150800275003D10020DFF8641D0870E07BFF2803D151
S31508002760FF20DFF8581D087001A8009005AB00226D
S315080027704FF47A71364804F069F8BDF80400002869
S3150800278062D14FF48072DFF8B819DFF8B80903F0A0
S31508002790DBFC0122DFF8241DDFF8240D04E000BF6E
S315080027A02C0000000D00000003F080F94FF4807241
S315080027B0DFF88C19DFF88C0903F0EBFB01AA00217E
S315080027C0234804F051F93900C9B22800C0B200F014
S315080027D051FF39E0E07BAA2802D1AA201E490870D9
S315080027E0E07BFF2802D1FF201B49087001A8009052
S315080027F005AB00224FF47A71154804F027F8BDF8A6
S315080028000400002820D14FF48072DFF83419DFF86D
S31508002810340903F099FC01220F49DFF8A80C03F0EC
S3150800282045F94FF48072DFF81819DFF8180903F034
S31508002830B0FB01AA0021064804F016F93900C9B20E
S315080028402800C0B200F016FF08B0BDE8F08100000D
S31508002850044B0020984A0020E24C0020244C00201B
S315080028608800002030B585B005000C0000200090D7
S315080028700020ADF80400022215F1120101A803F0A8
S3150800288063FC032215F10C0100A803F05DFC00258A
S3150800289006E003220098C11C00A803F055FC6D1C35
S315080028A0BDF80400ADB285420ED207220098811DFC
S315080028B002A803F049FC072202A9200001F093FFB1
S315080028C00128E6D1009801E07FF07F4005B030BDD1
S315080028D030B587B004000D00002004900020029057
S315080028E00020ADF804000020ADF806000020059091
S315080028F0022214F1120101A803F026FC0222DFF8D5
S31508002900701D0DF1060003F01FFC032214F10F01E0
S3150800291004A803F019FCBDF80400401CADF8040037
S31508002920BDF80600401CADF8060003F078FD0290DD
S3150800293002987FF07F41884202D17FF07F40DAE03B
S3150800294007220298811D280003F0F5FA0122029851
S3150800295010F10D01E81E03F0EEFA0422029810F1B8
S315080029600E0105A803F0E7FA0222029810F11601F3
S3150800297005A803F0E0FA03A8009006AB00224FF47E
S315080029807A71DFF89C0D03F061FFBDF80C00002892
S3150800299002D07FF07F40AEE004987FF07F41884206
S315080029A046D14FF48052200B4FF4805101FB00F1C1
S315080029B0DFF8900703F0C8FB032202A94FF4805002
S315080029C0B4FBF0F303FB1043DFF8780718180C3054
S315080029D003F06CF8032202A94FF48050B4FBF0F31D
S315080029E003FB1043DFF85C0718180F3003F05EF896
S315080029F0022201A94FF48050B4FBF0F303FB104305
S31508002A00DFF840071818123003F050F8200B4FF47F
S31508002A108051484303F056FA4FF48052200B4FF486
S31508002A20805101FB00F1DFF81C0703F0E3FA44E0EC
S31508002A304FF48052200B4FF4805101FB00F1DFF870
S31508002A40040703F081FB032202A94FF48050B4FB6C
S31508002A50F0F303FB1043DFF8EC0618180F3003F009
S31508002A6025F8022201A94FF48050B4FBF0F303FBCA
S31508002A701043DFF8D0061818123003F017F8200BA9
S31508002A804FF48051484303F01DFA4FF48052200B4F
S31508002A904FF4805101FB00F1DFF8A80603F0AAFA0B
S31508002AA003220498C11C02A803F045FA03220298DF
S31508002AB010F1120104A803F03EFA4FF48072DFF811
S31508002AC08016DFF8800603F03FFB02220DF10601AF
S31508002AD0DFF8500C02F0EAFF4FF48072DFF8601658
S31508002AE0DFF8600603F055FA03AA0021DFF8300C78
S31508002AF003F0BAFF029807B030BD0000A3F01F002C
S31508002B00A0F01F0070B586B004000D0000200390E9
S31508002B10002002900020ADF804000020ADF8060061
S31508002B20022214F1120101A803F00EFB0222DFF8BB
S31508002B30401B0DF1060003F007FB0322E91C03A85E
S31508002B4003F002FB032215F1120102A803F0FCFAB6
S31508002B50BDF80400401EADF80400BDF80600401E8E
S31508002B60ADF80600280003F0F1FC04A8009005ABB8
S31508002B7000224FF47A71DFF8A80B03F067FEBDF860
S31508002B801000002802D07FF07F4009E2BDF804005B
S31508002B9000285DD14FF48052200B4FF4805101FB81
S31508002BA000F1DFF8A00503F0CFFA032203A94FF4DA
S31508002BB08050B4FBF0F303FB1043DFF888051818C0
S31508002BC00C3002F073FF022201A94FF48050B4FBC7
S31508002BD0F0F303FB1043DFF86C051818123002F007
S31508002BE065FF032202A94FF48050B4FBF0F303FB00
S31508002BF01043DFF8500518180F3002F057FF200B66
S31508002C004FF48051484303F05DF94FF48052200B8E
S31508002C104FF4805101FB00F1DFF8280503F0EAF9CB
S31508002C204FF48072DFF81815DFF8180503F08CFAF0
S31508002C3002220DF10601DFF8EC0A02F037FF4FF425
S31508002C408072DFF8FC14DFF8FC0403F0A2F9A0E1B7
S31508002C5002987FF07F41884205D003987FF07F4134
S31508002C60884240F0FB8002987FF07F4188427CD101
S31508002C704FF480520398000B4FF4805101FB00F18A
S31508002C80DFF8C00403F060FA032202A903984FF4A0
S31508002C908053B0FBF3F606FB1306DFF8A8043018DA
S31508002CA0123002F003FF0398000B4FF4805148439B
S31508002CB003F008F94FF480520398000B4FF4805143
S31508002CC001FB00F1DFF87C0403F094F94FF480521D
S31508002CD0200B4FF4805101FB00F1DFF8680403F084
S31508002CE033FA032203A94FF48050B4FBF0F303FB35
S31508002CF01043DFF8500418180C3002F0D7FE0222F1
S31508002D0001A94FF48050B4FBF0F303FB1043DFF83E
S31508002D1034041818123002F0C9FE200B4FF4805103
S31508002D20484303F0CFF84FF48052200B4FF48051FC
S31508002D3001FB00F1DFF80C0403F05CF94FF4807234
S31508002D40DFF8FC13DFF8FC0303F0FEF902220DF1AD
S31508002D500601DFF8D00902F0A9FE4FF48072DFF809
S31508002D60E013DFF8E00303F014F903987FF07F41DE
S31508002D70884240F00E814FF480520298000B4FF4BF
S31508002D80805101FB00F1EF4803F0DEF9032203A9A5
S31508002D9002984FF48053B0FBF3F606FB1306E94896
S31508002DA03018C01C02F082FE0298000B4FF48051C6
S31508002DB0484303F087F84FF480520298000B4FF40B
S31508002DC0805101FB00F1DF4803F014F94FF48052FB
S31508002DD0200B4FF4805101FB00F1DA4803F0B4F9F7
S31508002DE0032202A94FF48050B4FBF0F303FB10430F
S31508002DF0D44818180F3002F059FE022201A94FF4E0
S31508002E008050B4FBF0F303FB1043CE481818123079
S31508002E1002F04CFE200B4FF48051484303F052F861
S31508002E204FF48052200B4FF4805101FB00F1C54846
S31508002E3003F0E0F84FF48072C149C24803F084F900
S31508002E4002220DF10601DFF8DC0802F02FFE4FF42E
S31508002E508072BB49BB4803F09CF89AE04FF4805255
S31508002E600298000B4FF4805101FB00F1DFF8AC0823
S31508002E7003F06AF9032203A902984FF48053B0FBC2
S31508002E80F3F606FB1306DFF894083018C01C02F0A8
S31508002E900DFE0298000B4FF48051484303F012F8D8
S31508002EA04FF480520298000B4FF4805101FB00F159
S31508002EB0DFF8680803F09EF84FF480520398000B79
S31508002EC04FF4805101FB00F1DFF8500803F03CF99C
S31508002ED0032202A903984FF48053B0FBF3F606FBCE
S31508002EE01306DFF838083018123002F0DFFD0398B1
S31508002EF0000B4FF48051484302F0E4FF4FF4805230
S31508002F000398000B4FF4805101FB00F1DFF80C0821
S31508002F1003F070F84FF48052200B4FF4805101FBF8
S31508002F2000F1DFF8F80703F00FF9022201A94FF4C0
S31508002F308050B4FBF0F303FB1043DFF8E0071818E2
S31508002F40123002F0B3FD200B4FF48051484302F0D3
S31508002F50B9FF4FF48052200B4FF4805101FB00F16A
S31508002F60DFF8B80703F046F84FF480727449DFF8C3
S31508002F70AC0703F0E9F802220DF10601DFF8A40711
S31508002F8002F094FD4FF480726D49DFF8900703F064
S31508002F9000F804AA0021DFF8880703F065FD280079
S31508002FA006B070BD30B585B004000020009002223E
S31508002FB0DFF8C81801A803F0C7F80322DFF8C0181D
S31508002FC000A803F0C1F8002506E003220098C11CFA
S31508002FD000A803F0B9F86D1CBDF80400ADB285422F
S31508002FE00ED206220098811D02A803F0ADF806222B
S31508002FF002A9200001F0F7FB0128E6D1009801E0BC
S315080030007FF07F4005B030BD940000209500002079
S3150800301096000020970000205000002010B586B0CA
S31508003020040000200490002002900020ADF804005F
S315080030300020ADF80C000222DFF8401801A803F0C2
S3150800304083F80322DFF83C1804A803F07DF8BDF8DE
S315080030500400401CADF8040003F0E1F902900622D2
S315080030600298811D200002F066FF0222029810F1E4
S31508003070120103A802F05FFF0DF10600009005ABF0
S3150800308000224FF47A71DFF8980603F0DFFBBDF8EB
S315080030900600002802D07FF07F4048E04FF4807297
S315080030A0DFF88416DFF8740603F04EF804987FF00C
S315080030B07F41884212D1032202A9DFF8E40C02F00C
S315080030C0F5FC022201A9DFF8DC0C02F0EFFC032272
S315080030D002A9DFF8D40C02F0E9FC18E0022201A9E3
S315080030E0DFF8C00C02F0E2FC032202A9DFF8B80CF4
S315080030F002F0DCFC03220498C11C02A802F01BFFA4
S315080031000322029810F1140104A802F014FF4FF4E8
S315080031108072DFF81416DFF8040602F03AFF0DF1A4
S3150800312006020021DFF8F80503F09EFC029806B0B7
S3150800313010BD0000BC4A002090000020740000204A
S3150800314000F01F0098000020E80000200801002079
S3150800315007010020060100200501002004010020C7
S31508003160160100207C000020180100209200002093
S3150800317030B589B004000020ADF810000020059095
S315080031800020069000200390002002900020ADF851
S3150800319004000025022214F1120104A802F0D4FF4B
S315080031A0032214F10C0105A802F0CEFF0322E11C4C
S315080031B003A802F0C9FF032214F1140102A802F0C1
S315080031C0C3FF0222DFF8B41601A802F0BDFFBDF85E
S315080031D00400401EADF804000020050002E0069831
S315080031E005906D1CBDF81000ADB285420ED20322C3
S315080031F00598C11C06A802F0A7FF05992000FFF74D
S3150800320081FC7FF07F418842E9D1EAE7200003F09C
S315080032109DF90DF10600009007AB00224FF47A7174
S31508003220DFF8FC0403F012FBBDF80600002802D004
S315080032307FF07F403DE1BDF80400002822D14FF41D
S315080032408072DFF8E414DFF8D40402F07DFF03226D
S3150800325003A9DFF84C0B02F029FC022201A9DFF8CA
S31508003260440B02F023FC032202A9DFF83C0B02F010
S315080032701DFC4FF48072DFF8B014DFF8A00402F0EA
S3150800328088FE0FE102987FF07F41884205D00398B7
S315080032907FF07F41884240F09D8002987FF07F4111
S315080032A0884249D14FF480520398000B4FF480515D
S315080032B001FB00F1DFF8640402F046FF032202A9CD
S315080032C003984FF48053B0FBF3F505FB1305DFF8BD
S315080032D04C042818143002F0E9FB0398000B4FF44D
S315080032E08051484302F0EEFD4FF480520398000BDC
S315080032F04FF4805101FB00F1DFF8200402F07AFE5A
S315080033004FF48072DFF82014DFF8100402F01CFF77
S31508003310032203A9DFF8880A02F0C8FB022201A9E2
S31508003320DFF8800A02F0C2FB4FF48072DFF8F81368
S31508003330DFF8E80302F02DFE03987FF07F4188420C
S3150800334040F0B0804FF480520298000B4FF4805141
S3150800335001FB00F1DFF8C40302F0F6FE032203A91D
S3150800336002984FF48053B0FBF3F505FB1305DFF81D
S31508003370AC032818C01C02F099FB0298000B4FF406
S315080033808051484302F09EFD4FF480520298000B8C
S315080033904FF4805101FB00F1E04802F02BFE4FF498
S315080033A08072DFF88413DD4802F0CEFE022201A9FE
S315080033B0DFF8F00902F07AFB032202A9DFF8E80930
S315080033C002F074FB4FF48072DFF85C13D34802F006
S315080033D0E0FD67E04FF480520298000B4FF48051ED
S315080033E001FB00F1CD4802F0AFFE032203A90298C3
S315080033F04FF48053B0FBF3F505FB1305C7482818AF
S31508003400C01C02F053FB0298000B4FF4805148434E
S3150800341002F058FD4FF480520298000B4FF4805189
S3150800342001FB00F1BD4802F0E5FD4FF48052039818
S31508003430000B4FF4805101FB00F1B84802F084FEFE
S31508003440032202A903984FF48053B0FBF3F505FB5A
S315080034501305B2482818143002F028FB0398000B0D
S315080034604FF48051484302F02DFD4FF480520398E3
S31508003470000B4FF4805101FB00F1A84802F0BAFD99
S315080034804FF48072A849A54802F05EFE022201A9FF
S31508003490DFF8100902F00AFB4FF48072A2499F4830
S315080034A002F077FD0DF1060200219D4803F0DCFAD3
S315080034B0200009B030BD000058010020930000200C
S315080034C0C80000205901002080B50A00417B0F235F
S315080034D05943837B022B0CD0032B10D0062B14D018
S315080034E0072B1BD00C2B1FD00D2B23D00E2B27D030
S315080034F02BE0C9B21000C0B200F0B8FC25E0C9B292
S315080035001000C0B200F052FC1FE00B00DBB2D2B2D2
S3150800351010F11001C07B00F0B7F916E0C9B210002F
S31508003520C0B200F003F910E0C9B21000C0B200F052
S3150800353016FD0AE0C9B21000C0B200F074FD04E03E
S31508003540C9B21000C0B200F0D2FD01BD30B587B0D7
S315080035500024002518E04FF48071DFF8C80C02F04B
S315080035603EFC00AA00214FF47A7001F097FB4FF455
S315080035708071DFF8B00C02F035FC00AA00214FF488
S315080035807A7001F08BFB0024DFF89C0C0078002889
S31508003590E1D04FF48071DFF88C0C02F020FC00AA11
S315080035A000214FF4967001F079FB4FF48071DFF833
S315080035B0740C02F017FC00AA00214FF4967001F073
S315080035C06DFBDFF8680C00780028DDD0641CE4B2D7
S315080035D00F2CD9DB002401AD682028706D1C27202C
S315080035E028706D1C002028706D1C272028706D1C03
S315080035F0002028706D1C682028706D1CCA20287051
S315080036006D1CDFF82C0C007828706D1CDFF8200C78
S31508003610407828706D1CDFF8180C807828706D1CAF
S31508003620DFF80C0CC07828706D1CDFF8040C0079E4
S3150800363028706D1C0F2028706D1CDFF8F80B0078B9
S3150800364050F0600028706D1CDFF8EC0B00782870CD
S315080036506D1C09210DF10A00FCF7F8FE28706D1C97
S31508003660162028706D1C112101A801F077FE8BE742
S31508003670B3F01F0030B585B0040000AD682028708F
S315080036806D1C272028706D1C002028706D1C2720B3
S3150800369028706D1C002028706D1C682028706D1C11
S315080036A0802028706D1CDFF8880B007828706D1C48
S315080036B0DFF87C0B407828706D1CDFF8740B807877
S315080036C028706D1CDFF8680BC07828706D1CDFF851
S315080036D0600B007928706D1C002028706D1C51F055
S315080036E0600028706D1C012028706D1C09210DF1E1
S315080036F00600FCF7ABFE28706D1C162028706D1CA2
S31508003700E4B2002C04D0112100A801F027FE03E042
S31508003710112100A801F0D4F905B030BD98000020A9
S31508003720044B00204B01002000F01F00F0B585B0C7
S3150800373004000F000DF10201DFF8000B00F0C8FFCE
S315080037400600002E00F09880350003224C4901A897
S3150800375002F0FAFC0222494900A802F0F5FC6820AA
S315080037603070761CBDF800000621484309308000F9
S3150800377050F003003080B61CBDF80000062148430F
S315080037800930800050F003003080B61C6820307085
S31508003790761C88203070761CDFF8940A0078307022
S315080037A0761CDFF88C0A40783070761CDFF8800AC1
S315080037B080783070761CDFF8780AC0783070761C0E
S315080037C0DFF86C0A00793070761C0A203070761C97
S315080037D057F060003070761C07203070761C002782
S315080037E00FE0C0B202A9415C3170761C401CC0B221
S315080037F00628F6DB03220198C11C01A802F0A4FCE6
S315080038007F1CBDF80000BFB2874207D20622019886
S31508003810811D02A802F098FC0020E8E7BDF8000028
S315080038200621484310F1090189B2A81DFCF70EFECE
S315080038303070761C16203070761CE4B2002C0AD044
S31508003840BDF800000621484310F1110189B228008D
S3150800385001F084FD09E0BDF800000621484310F197
S31508003860110189B2280001F02BF90DF10202290095
S31508003870DFF8C80900F04FFF05B0F0BDA3F01F0040
S31508003880A0F01F00A5F01F002DE9FF4F8BB05FF0D9
S31508003890000A5FF00008002500265FF0000B5FF0C5
S315080038A000090020ADF8000000270222DFF8901971
S315080038B00DF10A0002F048FC0222DFF8881904A874
S315080038C002F042FC0322DFF8801903A802F03CFC50
S315080038D0BDF80A00002800F0608206A9DFF85C0936
S315080038E000F0F6FE0400002C00F05782059407222B
S315080038F0DFF858190C9800F076FF012840F0768119
S31508003900BDF810000A2190FBF1F0BDF810100A224C
S3150800391091FBF2F302FB13118DF802105FF0000819
S31508003920ADF808009DF80200002804D0BDF808008C
S31508003930401CADF80800002506E003220398C11CC8
S3150800394003A802F001FC6D1CBDF80A00ADB2854261
S3150800395080F01D8206220398811D09A802F0F4FB57
S315080039600322039810F10C0101A802F0EDFB0222D4
S31508003970039810F112010DF1120002F0E5FB002682
S3150800398016E0BDF800001121484310F1120189B272
S31508003990059801F095F806AA0021642001F07EF941
S315080039A0059C03220198C11C01A802F0CDFB761CD8
S315080039B0BDF81200B6B28642BFD207220198811D11
S315080039C007A802F0C1FB0122019810F10D010DF1C3
S315080039D0030002F0B9FB0122019810F115010DF15F
S315080039E01A0002F0B1FBFFB2002F40F0A8800127B1
S315080039F018F1010868202070641CBDF80800012829
S31508003A000CD1BDF81090ADF80090BDF8000011215A
S31508003A1048430A30800050F0030A39E01FFA88F854
S31508003A20B8F1010F0CD15FF00A09ADF80090BDF8A6
S31508003A300000112148430A30800050F0030A27E0AD
S31508003A40BDF808001FFA88F8804515D19DF80200D0
S31508003A50002804D15FF00A09ADF8009003E09DF84C
S31508003A600290ADF80090BDF80000112148430A30D5
S31508003A70800050F0030A0BE05FF00A09ADF80090E9
S31508003A80BDF80000112148430A30800050F0030AAF
S31508003A90A4F800A0A41CA4F800A0A41C6820207008
S31508003AA0641C88202070641CDFF884070078207066
S31508003AB0641CDFF87C0740782070641CDFF8700708
S31508003AC080782070641CDFF86807C0782070641C52
S31508003AD0DFF85C0700792070641C0A202070641CDB
S31508003AE0BDF80800012806D19DF8380050F060009E
S31508003AF02070641C1CE01FFA88F8B8F1010F06D183
S31508003B009DF8380050F040002070641C10E0BDF8A5
S31508003B1008001FFA88F8804506D19DF8380050F04D
S31508003B2020002070641C03E09DF838002070641C97
S31508003B3006202070641C9DF82C002070641C002050
S31508003B402070641C00202070641C5FF0000B08E0E5
S31508003B505FFA8BFB07A81BF800002070641C1BF19A
S31508003B60010B5FFA8BFBBBF1070FF1DB5FF0000B74
S31508003B7008E05FFA8BFB09A81BF800002070641C9C
S31508003B801BF1010B5FFA8BFBBBF1060FF1DB002083
S31508003B902070641C01202070641CB9F101091FFA09
S31508003BA089F9B9F1000F7FF4FCAE0027BDF80000D3
S31508003BB01121484310F10A0189B20598801DFCF7C6
S31508003BC045FC2070641C16202070641C9DF8340087
S31508003BD000283FF4D6AEBDF800001121484310F185
S31508003BE0120189B2059801F0B9FBD4E6002531E047
S31508003BF003220198C11C01A802F0A6FA761CBDF89A
S31508003C001200B6B2864224D207220198811D07A85F
S31508003C1002F09AFA0122019810F10D010DF1030044
S31508003C2002F092FA072207A90C9800F0DCFD012899
S31508003C30DED19DF803009DF82C108842D8D10122C8
S31508003C40019810F115010DF11A0002F07DFA5FF0E6
S31508003C5001086D1C5FFA88F8B8F1000F1BD1BDF892
S31508003C600A00ADB2854216D206220398811D09A81C
S31508003C7002F06AFA0322039810F10C0101A802F077
S31508003C8063FA0222039810F112010DF1120002F0F4
S31508003C905BFA0026B3E75FFA88F8B8F1000F76D02A
S31508003CA068202070641C6F202070641C002020701F
S31508003CB0641C6F202070641C00202070641C68201F
S31508003CC02070641C88202070641CDFF86405007866
S31508003CD02070641CDFF8580540782070641CDFF8F3
S31508003CE0500580782070641CDFF84405C078207081
S31508003CF0641CDFF83C0500792070641C0A202070DB
S31508003D00641C9DF8380050F060002070641C062082
S31508003D102070641C9DF82C002070641C0020207004
S31508003D20641C00202070641C002505E0ADB207A8BD
S31508003D30285C2070641C6D1CADB2072DF6DB0025CF
S31508003D4005E0ADB209A8285C2070641C6D1CADB2F4
S31508003D50062DF6DB00202070641C01202070641CF0
S31508003D601B210598801DFCF771FB2070641C16202A
S31508003D702070641C9DF83400002804D0232105987F
S31508003D8001F0ECFA03E02321059800F099FE06AA53
S31508003D900599DFF8A80400F0BEFC0FB0BDE8F08F67
S31508003DA0380100203B0100203D010020F8B5040041
S31508003DB00D0000A9DFF8840400F08AFC0700002F34
S31508003DC053D03E00682038707F1C272038707F1C2F
S31508003DD0002038707F1C272038707F1C0020387020
S31508003DE07F1C682038707F1C882038707F1CDFF89D
S31508003DF04004007838707F1CDFF834044078387047
S31508003E007F1CDFF82C04807838707F1CDFF82004CC
S31508003E10C07838707F1CDFF81804007938707F1C6A
S31508003E200A2038707F1C55F0600038707F1C03200C
S31508003E3038707F1C0921B01DFCF708FB38707F1C01
S31508003E40162038707F1CE4B2002C04D011213000F3
S31508003E5001F084FA03E01121300000F031FE00AAD7
S31508003E603100DFF8D80300F056FCF1BD2DE9F0412A
S31508003E7082B004000D00002700265FF0000800A9A4
S31508003E80DFF8B80300F024FC0700002F65D03E00D9
S31508003E90682038707F1C3F2038707F1C00203870DF
S31508003EA07F1C3F2038707F1C002038707F1C6820DC
S31508003EB038707F1C882038707F1CDD480078387081
S31508003EC07F1CDB48407838707F1CD948807838706A
S31508003ED07F1CD748C07838707F1CD5480079387061
S31508003EE07F1C0A2038707F1C55F0600038707F1CD4
S31508003EF0022038707F1CD648007838707F1CD54859
S31508003F00007838707F1CD448007838707F1CD348F6
S31508003F10007838707F1CB846D1480088A8F8000099
S31508003F2018F1020847460F21B01DFCF78FFA3870C2
S31508003F307F1C162038707F1CE4B2002C04D0172191
S31508003F40300001F00BFA03E01721300000F0B8FD4D
S31508003F5000AA3100B94800F0DEFBBDE8F3812DE97F
S31508003F60F04182B004000D00002700265FF000082B
S31508003F7000A9B24800F0ACFB0700002F51D03E0064
S31508003F80682038707F1C2B2038707F1C0020387002
S31508003F907F1C2B2038707F1C002038707F1C6820FF
S31508003FA038707F1C882038707F1CA14800783870CC
S31508003FB07F1C9F48407838707F1C9D4880783870F1
S31508003FC07F1C9B48C07838707F1C994800793870E8
S31508003FD07F1C0A2038707F1C55F0600038707F1CE3
S31508003FE00C2038707F1C9F48007838707F1C0A2187
S31508003FF0B01DFCF72BFA38707F1C162038707F1C12
S31508004000E4B2002C04D01221300001F0A7F903E035
S315080040101221300000F054FD00AA3100874800F054
S315080040207AFBBDE8F3812DE9F04182B004000D006A
S31508004030002700265FF0000800A9804800F048FB2A
S315080040400700002F51D03E00682038707F1C2B20B7
S3150800405038707F1C002038707F1C2B2038707F1C1E
S31508004060002038707F1C682038707F1C88203870C4
S315080040707F1C6F48007838707F1C6D484078387010
S315080040807F1C6B48807838707F1C6948C078387008
S315080040907F1C6748007938707F1C0A2038707F1C9F
S315080040A055F0600038707F1C0D2038707F1C6E48F4
S315080040B0007838707F1C0A21B01DFCF7C7F93870E4
S315080040C07F1C162038707F1CE4B2002C04D0122105
S315080040D0300001F043F903E01221300000F0F0FC53
S315080040E000AA3100554800F016FBBDE8F3812DE91A
S315080040F0F04182B004000D00002700265FF000089A
S3150800410000A94E4800F0E4FA0700002F51D03E00FF
S31508004110682038707F1C2B2038707F1C0020387070
S315080041207F1C2B2038707F1C002038707F1C68206D
S3150800413038707F1C882038707F1C3D48007838709E
S315080041407F1C3B48407838707F1C39488078387027
S315080041507F1C3748C07838707F1C3548007938701E
S315080041607F1C0A2038707F1C55F0600038707F1C51
S315080041700E2038707F1C3D48007838707F1C0A2155
S31508004180B01DFCF763F938707F1C162038707F1C49
S31508004190E4B2002C04D01221300001F0DFF803E06D
S315080041A01221300000F08CFC00AA3100234800F0F0
S315080041B0B2FABDE8F38100B585B002A8019003A85C
S315080041C000904FF4847300220121294802F03FFD34
S315080041D002AA00214FF4FA7000F060FD4FF4005176
S315080041E0244801F0F1FD0028E7D14FF48041214829
S315080041F001F0F5FD0121204801F0F4FD8021094870
S3150800420001F0EDFD02AA0021642000F047FD80219F
S31508004210044801F0E7FD02AA0021642000F03EFDF3
S31508004220ECE70000000C0140E14C0020F04C0020B7
S315080042307C000020ED4C0020F14C0020244C00208E
S31508004240A3F01F00B3F01F00A0F01F00B4BC0008C5
S31508004250970000209600002095000020940000207A
S31508004260900000209200002093000020E24C0020DD
S31508004270084C002000100140000801402DE9F041DB
S3150800428006000F0090461C000025DFF8BC020078E7
S31508004290002803D042F6E16020802BE0002E03D1EF
S315080042A045F6C350208025E01FFA88F8B8F1000FBC
S315080042B003D146F2945020801CE001F00BFD050066
S315080042C0DFF8880230607760414689B216F114003B
S315080042D003F049F816F1080003F066FBDFF87002F0
S315080042E00088401CDFF868120880280001F0F6FCF8
S315080042F000202080BDE8F0812DE9F04F89B0040048
S315080043000D0016001F005FF00008DDF84C908E487F
S315080043100078002805D046F2AE10A9F80000002063
S31508004320C6E0002C05D145F6C350A9F800000020C8
S31508004330BEE0002F05D146F2D520A9F800000020DE
S31508004340B6E0B6B23000002802D0B0F5004F1FD153
S3150800435020687E49884221D1DDF848A0BAF1000FCD
S3150800436002D00020CAF8000001F0B4FC80464B4693
S315080043705246390014F1140002F0FFFF8346B9F8DB
S315080043800000002810D1404601F0A8FC58468FE0EE
S3150800439045F62560A9F80000002089E045F6C450D6
S315080043A0A9F80000002083E0300408D5404601F053
S315080043B095FC46F2B010A9F80000002078E06548A0
S315080043C00078002808D0404601F088FC46F663507D
S315080043D0A9F8000000206BE02B000522210000A8A8
S315080043E003F07EFA404601F079FC03F061F901F02A
S315080043F071FC80465848006890F83500002805D0BA
S31508004400022838D017D3032826D045E0524800683A
S31508004410D0F85CB050480068B0F860003880BAF14F
S31508004420000F04D04C480068006CCAF80000002051
S31508004430A9F8000038E05FF0000B00203880BAF1D8
S31508004440000F04D044480068006CCAF8000046F221
S31508004450A910A9F8000027E05FF0000B00203880BB
S31508004460BAF1000F02D00020CAF8000047F2D9209E
S31508004470A9F8000018E05FF0000B00203880BAF1B8
S31508004480000F04D034480068006CCAF8000045F6EE
S31508004490C250A9F8000007E05FF0000B0020388042
S315080044A046F62E60A9F80000404601F017FC58466B
S315080044B009B0BDE8F08F2DE9FC4105000E00170094
S315080044C09846089C002D03D145F6C35020802AE063
S315080044D01FFA88F84046002815D0102813D0B0F5E2
S315080044E0007F10D0B0F5047F0DD0B0F5004F0AD08C
S315080044F048F21001884206D0B0F5024F03D048F2C0
S315080045001021884211D128681049884211D103F038
S315080045109CFC0194009043469BB23A0092B231004B
S31508004520280000F01BF8BDE8F38145F625602080D9
S31508004530F9E745F6C4502080F5E70021044A1180C2
S315080045400021018070470000E34C00205155455575
S31508004550DA4C0020E84C0020BC4C00202DE9F04F36
S3150800456083B004000D0016001F005FF0000A01F07A
S31508004570B1FB824614F10800DDF83080DDF834908E
S315080045800189002914D1F80601D4002300E010237C
S31508004590CDF80490CDF800809BB2320092B2290083
S315080045A014F1140002F021FF504601F097FB25E0B4
S315080045B0B90502D5B0F808B001E05FF0010B006854
S315080045C00DE0816840680190CDF8008033009BB209
S315080045D02A00200003F05EFA0198BBF1010B1FFACE
S315080045E08BFBBBF1000FECD1504601F077FB38048A
S315080045F001D403F05DF80020A9F80000BDE8F78FA4
S315080046002DE9F84305000E00170098460020DDF84E
S31508004610249058490978002904D045F2B960A9F8C8
S31508004620000053E0002F04D145F2BB60A9F8000052
S315080046304CE01FFA88F8B8F1020F04DA45F2BC60BC
S31508004640A9F8000042E0089CA4B2042C04D245F262
S31508004650C160A9F8000039E0032000280FD00742FE
S3150800466004D045F2BB60A9F800002FE0210089B20A
S31508004670014204D045F2C160A9F8000026E03B00DB
S315080046803A00B8F10101002004E0A4B2A2181A60A9
S315080046901300401C80B289B28842F6D30020186005
S315080046A001F018FB34492960AE606F60EF60A5F829
S315080046B01480A5F812802C8230490988491C2F4A93
S315080046C0118001F00BFB0020A9F80000BDE8F1837A
S315080046D070B505000C000020002D04D145F2BF601E
S315080046E02080002016E001F0F5FAA98A002906D1F3
S315080046F001F0F4FA45F2C260208000200AE0EE6874
S315080047003168E960A98A491EA98201F0E7FA002002
S315080047102080300070BD70B505000E001400002022
S31508004720002D03D145F2BF6020801BE0002E03D187
S3150800473045F2BE60208015E001F0CCFAA98A6A8AA3
S31508004740914205D301F0CAFA45F2BA60208009E021
S31508004750E9683160EE60A98A491CA98201F0BEFAAF
S315080047600020208070BD0021044A118000210180AC
S3150800477070470000E34C00204D454D20D64C0020E4
S3150800478080B50A00002100F001F801BD30B4002A06
S3150800479027D0002825D00023002403E01B02C9B235
S315080047A00B43641C042CF9D30425B0FBF5F404FB75
S315080047B01504E4B2002C08D003E00170401C521E18
S315080047C0641C002A01D0042CF7D302E00360001D04
S315080047D0121F042AFAD202E00170401C521E002A57
S315080047E0FAD130BC704770B41300002B01D10120F8
S315080047F052E0002801D100204EE0002901D1002016
S315080048004AE00122181859180425B0FBF5F404FBF0
S315080048101504E4B20426B1FBF6F505FB1615EDB250
S31508004820AC4201D1012500E00025EDB2012D2CD1C5
S31508004830002C10D008E0401E491E05780E78B542B7
S3150800484000D000225B1E641ED2B2012A03D1002BBF
S3150800485001D0002CEFD1D2B2012A16D107E0001FF1
S31508004860091F04680D68AC4200D000221B1FD2B293
S31508004870012A01D1042BF2D207E0401E491E047812
S315080048800D78AC4200D000225B1ED2B2012A01D1BB
S31508004890002BF2D11000C0B270BC704780B5202141
S315080048A0DFF8C00303F07BFB00281CD0DFF8B40355
S315080048B003F071FBDFF8B0130968002913D0DFF89D
S315080048C0AC130968DFF8A0231268891AFF290ADAE7
S315080048D0DFF8981309680870DFF890030068401C31
S315080048E0DFF8881308604021DFF8780303F057FBE8
S315080048F0002810D040F22661DFF8680303F05CFB5D
S3150800490000AA0021DFF8680301F02BF8BDF80000C3
S31508004910002800D000BF01BD1CB52021DFF85403D4
S3150800492003F03DFB002816D0D24803F034FB040000
S3150800493001A9D148FFF7CCFE0100BDF80400002804
S3150800494008D10C7001A8009000230122CB48FFF77C
S31508004950B2FD00E000BF4021C64803F020FB002856
S315080049600ED040F22661C34803F026FB01AA0021B7
S31508004970C34800F0F6FFBDF80400002800D000BFC9
S3150800498013BD00001CB52021BE4803F008FB002813
S3150800499016D0BC4803F0FFFA040001A9B648FFF791
S315080049A097FE0100BDF80400002808D10C7001A884
S315080049B0009000230122B148FFF77DFD00E000BF0B
S315080049C04021B04803F0EBFA00280ED040F22661E9
S315080049D0AC4803F0F1FA01AA0021AB4800F0C1FF88
S315080049E0BDF80400002800D000BF13BD70B584B020
S315080049F004000D00A5480078AA282BD1012240F210
S31508004A002661A04803F09AFA002612E00020ADF8C5
S31508004A10040001A8009002AB00224FF4FA719A48EC
S31508004A2000F0E5FEB6B2315D89B2964803F0AFFAFA
S31508004A30761CB6B2ADB2AE42E8D3002240F2266189
S31508004A40904803F07BFA40218E4803F0A8FA002824
S31508004A5033D1F8E704218E4801F0C1F9012240F26A
S31508004A602661844803F06AFA002612E00020ADF8B1
S31508004A70040001A8009002AB00224FF4FA718048A6
S31508004A8000F0B5FEB6B2315D89B27A4803F07FFA16
S31508004A90761CB6B2ADB2AE42E8D3002240F2266129
S31508004AA0744803F04BFA4021724803F078FA00285C
S31508004AB0F9D00421764801F095F9012004B070BDBB
S31508004AC070B584B004000D000421714801F087F91F
S31508004AD0012240F22661674803F030FA002612E008
S31508004AE00020ADF8040001A8009002AB00224FF4A4
S31508004AF0FA71634800F07BFEB6B2315D89B25D4853
S31508004B0003F045FA761CB6B2ADB2AE42E8D300223F
S31508004B1040F22661574803F011FA4021554803F040
S31508004B203EFA0028F9D00421594801F05BF9012022
S31508004B3004B070BD70B584B004000D00012240F2C7
S31508004B402661484803F0FAF9002606E0B6B2315D58
S31508004B5089B2444803F01BFA761CB6B2ADB2AE422F
S31508004B600DD201A8009002AB00223221404800F085
S31508004B703EFEBDF804000028E8D0002006E000222A
S31508004B8040F22661374803F0D9F9012004B070BD18
S31508004B9010B584B00400012240F22661314803F0C2
S31508004BA0CDF940F226612F4803F006FA05E0217890
S31508004BB089B22C4803F0EBF9641C207800280DD044
S31508004BC001A8009002AB00223221294800F00FFE0E
S31508004BD0BDF804000028EAD0002006E0002240F2D2
S31508004BE02661204803F0AAF9012004B010BD38B5A3
S31508004BF00400002501F06EF805001C4804601A48F8
S31508004C000460280001F06AF8012032BD80B5002151
S31508004C10C0B2002809D001F05DF8010001201D4A44
S31508004C201070080001F05AF808E001F053F8010086
S31508004C300020184A1070080001F050F8012002BD43
S31508004C4080B54FF4005003F00DFA002809D000ABE8
S31508004C5000220121104802F000FA4FF4005003F038
S31508004C6013FA01BD00380140D04C0020CC4C00207E
S31508004C70444B0020004800403C4C0020504A00208D
S31508004C80604B0020004400407C4B0020920000202E
S31508004C90000C0140E14C0020084C0020F8B5050046
S31508004CA00E0014000027DFF8E0000078002803D083
S31508004CB047F27520208040E0DFF8D0000078002811
S31508004CC003D046F66350208037E0B6B2300000289D
S31508004CD005D0022803D004281FD008281ED1002D8D
S31508004CE003D147F27E20208027E000F0F3FF07007B
S31508004CF00120DFF89C10096881F83600230032008D
S31508004D0092B229002248006803F044FA2088002855
S31508004D1008D0380000F0E2FF0FE0E6E745F6256028
S31508004D2020800AE01A48006802F09EFF380000F06A
S31508004D30D5FF02F0BDFC00202080F1BD10B582B081
S31508004D4003F055FC00AA0021124803F0B9FE04003E
S31508004D50114800780C21114A01FB002002F0B2FF2D
S31508004D600F480068401E0E4908600D480068002874
S31508004D7008D10C4800680A49086000AA00210A48B8
S31508004D8003F09EFE13BD0000E34C0020E84C002013
S31508004D90BC4C002060470020E54C0020D83E00208F
S31508004DA0B84C0020B44C00201448002038B50C003C
S31508004DB01500FFF7EDFE2000FFF719FF00AA0021F6
S31508004DC02800FFF76BFFDFF8340704680020FFF7B9
S31508004DD00EFF200032BD02E00D220270401C027850
S31508004DE0002A01D18842F7D3704738B50024002538
S31508004DF000A9DFF80C07FFF76BFC0400BDF80000FC
S31508004E00002826D125004FF4807200212800FFF7DC
S31508004E10BDFC64222900DFF8EC064068FFF7C6FFF0
S31508004E20040021002800FFF7D6FFB2A1280000F0F1
S31508004E303BFC002807D000AA2900DFF8C406FFF7C4
S31508004E406AFC012006E000AA2900DFF8B406FFF78D
S31508004E5062FC002032BD70B582B00025002600A98C
S31508004E60DFF89C06FFF734FC0500BDF800000028B3
S31508004E7035D12E00002400E0641CE4B2642C28DA44
S31508004E80E4B2002C04D000AA0021C820FFF706FFD0
S31508004E904FF4807200213000FFF778FC642231005D
S31508004EA0DFF860068068FFF781FF050029003000FB
S31508004EB0FFF791FFDFF85016300000F0F5FB0028E9
S31508004EC0DAD000AA3100DFF83806FFF724FC012003
S31508004ED006E000AA3100DFF82806FFF71CFC0020D0
S31508004EE076BD2DE9F84F00240025002600275FF03F
S31508004EF000085FF000095FF0000A00A9DFF8000665
S31508004F00FFF7E6FB8146BDF8000000285AD1CA46DD
S31508004F105FF0000B02E000241BF1010B5FFA8BFB2C
S31508004F20BBF1640F48DA5FFA8BFBBBF1000F04D0C4
S31508004F3000AA0021C820FFF7B1FE4FF480720021B5
S31508004F405046FFF723FC64225146DFF8B805C068CF
S31508004F50FFF72CFF814649465046FFF73CFFB8A1AC
S31508004F60504600F0A1FB0028D5D03A224FF48071B4
S31508004F70504600F071FB851C280003F0D5FE06009C
S31508004F802C224FF48071504600F066FB471C38000F
S31508004F9003F0CAFE8046F6B2062E0BDB641CE4B2AA
S31508004FA0072CB9DB00AA5146DFF85405FFF7B3FB17
S31508004FB0012008E00024AFE700AA5146DFF84005C3
S31508004FC0FFF7A9FB0020BDE8F28F70B582B0002577
S31508004FD0002600A9DFF82805FFF77AFB0500BDF8CB
S31508004FE0000000283CD12E00002400E0641CE4B236
S31508004FF0642C2FDAE4B2002C04D000AA0021C820C1
S31508005000FFF74CFE4FF4807200213000FFF7BEFB1D
S3150800501064223100DFF8EC040069FFF7C7FE0500DB
S3150800502029003000FFF7D7FEDFF8E014300000F063
S315080050303BFB002806D1DFF8D814300000F034FB1B
S315080050400028D3D000AA3100DFF8B404FFF763FBC9
S31508005050012006E000AA3100DFF8A404FFF75BFB95
S31508005060002076BD70B582B00025002600A9DFF8BD
S315080050709004FFF72DFB0500BDF80000002835D188
S315080050802E00002400E0641CE4B2642C28DAE4B2A2
S31508005090002C04D000AA0021C820FFF7FFFD4FF41A
S315080050A0807200213000FFF771FB64223100DFF8BF
S315080050B054044069FFF77AFE050029003000FFF71F
S315080050C08AFEDFF85014300000F0EEFA0028DAD035
S315080050D000AA3100DFF82804FFF71DFB012006E0CF
S315080050E000AA3100DFF81804FFF715FB002076BD8B
S315080050F0000000004F4B000038B50024002500A929
S31508005100DFF8FC03FFF7E4FA0400BDF80000002806
S3150800511026D125004FF4807200212800FFF736FBC0
S3150800512064222900DFF8DC038069FFF73FFE0400EC
S3150800513021002800FFF74FFEA5A1280000F0B4FAC9
S31508005140002807D000AA2900DFF8B403FFF7E3FA1E
S31508005150012006E000AA2900DFF8A403FFF7DBFA1E
S31508005160002032BD38B50024002500A9DFF89003D9
S31508005170FFF7AEFA0400BDF80000002824D1250088
S315080051804FF4807200212800FFF700FB64222900F3
S31508005190DFF87003C069FFF709FE04002100280044
S315080051A0FFF719FE8AA1280000F07EFA002806D02B
S315080051B000AA2900D248FFF7AEFA012005E000AAA6
S315080051C02900CF48FFF7A7FA002032BD70B582B094
S315080051D00025002600A9CA48FFF77AFA0500BDF897
S315080051E0000000282AD12E00002400E0641CE4B246
S315080051F0642C1EDA4FF4807200213000FFF7C6FADD
S315080052004FF4FA623100BF48006AFFF7CFFD050088
S3150800521029003000FFF7DFFD6DA1300000F044FAE9
S315080052200028E3D000AA3100B548FFF774FA012038
S3150800523005E000AA3100B248FFF76DFA002076BDF6
S315080052404353510070B582B00025002600A9AC482A
S31508005250FFF73EFA0500BDF80000002831D12E0000
S31508005260002400E0641CE4B2642C25DAE4B2002CC5
S3150800527004D000AA0021C820FFF710FD4FF4807261
S3150800528000213000FFF782FA642231009D48406A07
S31508005290FFF78CFD050029003000FFF79CFD94A15F
S315080052A0300000F001FA0028DCD000AA310094484A
S315080052B0FFF731FA012005E000AA31009048FFF710
S315080052C02AFA002076BD38B50024002500A98C48A6
S315080052D0FFF7FEF90400BDF8000000283CD12500C0
S315080052E04FF4807200212800FFF750FA8548806A3B
S315080052F0FFF74EFC88480078FF2803D18748FFF758
S3150800530047FC02E08648FFF743FC8648FFF740FC67
S315080053102000FFF76CFC00AA002140F6B830FFF722
S31508005320BDFC764804680020FFF761FC21002800D0
S31508005330FFF751FD7C49280000F0B6F9002806D091
S3150800534000AA29006E48FFF7E6F9012005E000AA41
S3150800535029006B48FFF7DFF9002032BD30B585B06C
S3150800536004000D0001A8009002AB00224FF47A71E8
S315080053706E4801F06BFAADB22A005EA103A801F0EF
S3150800538019FC6048C06AFFF703FC03A8FFF700FC96
S3150800539059A0FFF7FDFB01A8009002AB00224FF4CD
S315080053A07A71634800F023FABDF80400002801D09A
S315080053B000200AE0290089B22000FFF7BBFB01AAFA
S315080053C000215A4801F050FB012005B030BD00000D
S315080053D04F4B000080B5FFF708FD002801D10020DB
S315080053E039E0FFF738FD002801D1002033E0FFF748
S315080053F078FD002801D100202DE0FFF7E6FD002802
S3150800540001D1002027E0FFF72DFE002801D100205A
S3150800541021E0FFF771FE002801D100201BE0FFF70D
S31508005420A1FE002801D1002015E0FFF7CFFE0028D5
S3150800543001D100200FE0FFF705FF002801D1002069
S3150800544009E0FFF740FF002801D1002003E0012012
S3150800545038490870012002BD10B582B00024C0B2D8
S3150800546000282CD04FF48071334800F0B8FC4FF474
S315080054700061314800F0B6FC00AA00214FF496609E
S31508005480FFF70CFC4FF400612B4800F0A8FC00AABB
S31508005490002140F6B830FFF701FC05E000AA00211C
S315080054A06420FFF7FBFB641CE4B2FA2C05DAFFF76D
S315080054B09CFC0128F2D101200DE000200BE04FF4FE
S315080054C080711D4800F08EFC00AA002140F6B83015
S315080054D0FFF7E4FB012016BD38B50400002500F0EF
S315080054E0F9FB050013480470280000F0F7FB31BDEE
S315080054F02E000000256400000D000000CC4C0020A2
S31508005500244C0020000000208CBC0008C8BB000802
