S00C0000546573742E7372656378
S31508000000F84E0020B1B9000847B8000849B80008FA
S315080000104BB800084DB800084FB8000800000000AB
S3150800002000000000000000000000000051B80008B1
S3150800003053B8000800000000DB9D000855B800080A
S315080000407DBB000881BB000885BB000889BB00088A
S315080000508DBB000891BB000875B8000895BB000861
S3150800006099BB00089DBB0008A1BB0008A5BB0008FA
S31508000070A9BB0008ADBB0008B1BB0008B5BB0008AA
S31508000080B9BB0008BDBB0008C1BB0008C5BB00085A
S31508000090C9BB0008CDBB0008D1BB0008D5BB00080A
S315080000A0D9BB0008DDBB0008E1BB0008E5BB0008BA
S315080000B0E9BB0008EDBB0008F1BB0008F5BB00086A
S315080000C0F9BB0008FDBB000801BC000805BC000818
S315080000D009BC00085DB8000865B800086DB80008D6
S315080000E00DBC000811BC000815BC0008F0B585B0A9
S315080000F000260FE0DFF8500D007801280AD1DFF856
S31508000100DC090068DFF8D81908600020DFF8381D18
S315080001100870002602A8019003A800900DF10A03B2
S315080001200022C821DFF8BC0903F04CFF0100BDF826
S31508000130080047F2D9229042DCD00F7802AADFF8ED
S31508000140A80904F04EF9DFF89809006800281AD1C2
S3150800015002A9DFF8F80C04F021F9DFF88419086021
S31508000160BDF80800002800D000BFDFF87409006851
S31508000170DFF8681908604FF480720021DFF85C091F
S31508000180006804F069F9DFF8C80C0078002878D010
S31508000190DFF8B40C0078002810D1FFB2682FB9D167
S315080001A0DFF83C090068411CDFF834291160077044
S315080001B000260120DFF8901C0870ABE7DFF820095D
S315080001C00068411CDFF8182911600770DFF810096C
S315080001D00068DFF808190968401A0B2805D1DFF806
S315080001E0FC080068807A10F10D06F6B2002E91D050
S315080001F0DFF8EC080068DFF8E4180968401AF6B278
S31508000200B04287DBDFF8D808006810F8010C16281A
S315080002102BD1DFF8CC080768F6B2B11E89B2DFF831
S31508000220BC08006800F011F917F8021CC0B2814238
S315080002307FF470AF02A800900023F6B2320092B2A3
S31508000240DFF898080168DFF80C0C03F09AFF002025
S31508000250DFF8881808600020DFF884180860002096
S31508000260DFF8E41B0870002654E7DFF8700800681A
S31508000270DFF86C1808600020DFF8CC1B0870002631
S3150800028048E7DFF8C40B0078002813D1FFB2682FBF
S315080002907FF440AFDFF848080068411CDFF84028C3
S315080002A0116007700026012400250120DFF8981B3D
S315080002B008702FE7DFF828080068411CDFF82028B7
S315080002C011600770EDB2002D39D1641CE4B2062C1A
S315080002D07FF420AFDFF8040800684079682820D149
S315080002E0DFF8F8070068B0F80100DFF8F0170968CA
S315080002F0B1F8031080B289B2884204D1012580B2D0
S315080003008608083606E70020DFF83C1B087000263A
S3150800031000240025DFF8C4070068DFF8C417086062
S31508000320F8E60020DFF8201B0870002600240025C8
S31508000330DFF8A8070068DFF8A8170860EAE6F6B24B
S31508000340002E3FF4E7AEDFF898070068DFF88C1751
S315080003500968401AF6B2B042FFF6DCAEDFF880074D
S31508000360006810F8010C162861D1DFF874070468D4
S31508000370F6B2B6F1080189B2DFF860070068801D99
S3150800038000F063F814F8021CC0B2814241D1DFF8CC
S315080003904C070068007B032806D0042817D00A28D3
S315080003A002D00B2813D024E00020DFF834170968A0
S315080003B0087002A800900023F6B2320092B2DFF865
S315080003C01C070168DFF8FC0C03F0DBFE11E00020D7
S315080003D0DFF80C170968087002A800900023F6B227
S315080003E0320092B2DFF8F4060168DFF8DC0C03F09D
S315080003F0C8FE0020DFF8E41608600020DFF8E016E3
S3150800040008600020DFF8401A08700026002400253E
S3150800041080E6DFF8C8060068DFF8C4160860002022
S31508000420DFF8241A087000260024002572E6DFF893
S31508000430AC060068DFF8A81608600020DFF8081A7E
S31508000440087000260024002564E610B40022002364
S3150800045003E09BB21C5CA2185B1C9BB289B28B4260
S31508000460F7D31000C0B210BC7047000030B583B097
S31508000470002000210022002400250FE02C004FF464
S3150800048080720021280003F0E7FF280004F016FA1E
S3150800049001AA0021DFF8340C04F053FBDFF8300C16
S315080004A00078012840F0A180002C14D101A9DFF8BA
S315080004B09C0903F073FF040025004FF480720021A5
S315080004C0280003F0C9FFBDF80400002800D000BFCB
S315080004D0280004F0F3F9DFF8FC0B0068DFF8F81BD6
S315080004E00968401A01287ADB01AA0021042004F0D1
S315080004F0D3FBDFF8E00B04682100280004F027FD91
S31508000500A5A1280005F094F90028B7D1DFF8CC1B7F
S31508000510280005F08DF900280ED001A800900023C8
S31508000520621B92B22900DFF8B80B03F02AFE0024FA
S31508000530002004F0C3F9B1E7DFF8A81B280005F08E
S3150800054077F9002810D02C004FF48072002128007B
S3150800055003F082FF002004000025002004F0AEF915
S31508000560002005F07DF899E7DFF87C1B280005F0E8
S315080005705FF9002810D02C004FF480720021280063
S3150800058003F06AFF002004000025002004F096F915
S31508000590002005F065F881E7DFF8501B280005F014
S315080005A047F9002810D02C004FF48072002128004B
S315080005B003F052FF002004000025002004F07EF915
S315080005C0002005F04DF869E72C004FF480720021F1
S315080005D0280003F041FF280004F070F95EE701AA3D
S315080005E00021042004F058FB58E7002C10D04FF4E3
S315080005F080720021280003F02FFF01AA2900DFF8E6
S315080006004C0803F0EEFE00240025002004F056F9FD
S31508000610002004F0D7FF012004F0D4FF04F090FF77
S315080006203CE72DE9FF41002600240020ADF80A002A
S315080006305FF000080025002705E002AA2100DFF880
S315080006400C0803F0CEFE02A8019003A800900DF155
S315080006500A0300220021DFF8880A03F0B3FC04002D
S31508000660B0A1200005F0E4F810F10208404600F0B9
S3150800067095F80700BFB2002FDFD098F80C000028C5
S315080006800CD0022828D0032827D0042841D00A28CD
S3150800069023D00B283DD00C28CFD0CEE798F80D00F4
S315080006A010F00F05DFF8480A0078EDB2854206D14A
S315080006B002AA0021DFF83C0A04F043FA0BE0DFF84F
S315080006C0380A0078EDB2854205D102AA0021DFF882
S315080006D02C0A04F036FAB0E7AFE702A9DFF86C0790
S315080006E003F05CFE0600002E12D0BFB23A00414667
S315080006F0300005F007F90120BFB2B85502A80090EE
S3150800070000233A0092B23100DFF8B80903F039FD48
S3150800071093E798F80D000F2101FB00F598F80E00F5
S31508000720052808D1DFF8D80905702900C9B20120C3
S3150800073002F008FE2EE0DFF8C8090078EDB2A842FC
S3150800074023D002A9DFF8040703F028FE0600002ECE
S3150800075008D0BFB23A004146300005F0D3F8012070
S31508000760BFB2B855DFF8980905702900C9B201204B
S3150800077002F0E8FD02A8009000233A0092B2310088
S31508000780DFF8440903F0FDFC04E02900C9B20120A2
S3150800079002F0D8FD51E700000A3E000070B50400DB
S315080007A0B4F80150B4F80300ADB280B2854214D152
S315080007B0ADB2AD08ADB228198679290089B2A01D57
S315080007C0FFF743FE864208D1ADB22819C07916282C
S315080007D003D115F10800C0B200E0002070BD10B5C5
S315080007E0002405F0A3F90400DFF818090078401C76
S315080007F0DFF810190870DFF80C09007810F00F0000
S31508000800DFF800190870200005F094F910BD30B51E
S3150800081089B0002404E001AA0021642004F03CFA0F
S3150800082003AD682028706D1C272028706D1C0020D9
S3150800083028706D1C272028706D1C002028706D1CE0
S31508000840682028706D1CC92028706D1CDFF8B80850
S31508000850007828706D1CDFF8B008407828706D1C89
S31508000860DFF8A408807828706D1CDFF89C08C0782B
S3150800087028706D1CDFF89008007928706D1C02201E
S3150800088028706D1CDFF87C08007850F0700028701E
S315080008906D1CDFF870080078DFF854180870FFF749
S315080008A09EFF032028706D1C09210DF11200FFF729
S315080008B0CCFD28706D1C162028706D1CDFF81008FA
S315080008C000780028A7D0002500E06D1CDFF8000896
S315080008D00078002818D0EDB2032D15DA002411216E
S315080008E003A804F0F1FD0028EFD001A8009002ABA0
S315080008F0002241F28831DFF8FC0704F068F8BDF8F9
S3150800090004000028E1D10124E4B2002C06D001AA93
S315080009100021DFF88C0D04F0BFF981E7002004F010
S315080009209FFE7DE70D0A680080B5C0B200280CD08E
S31508000930DFF8700D0078AA2803D1012000F047F8E7
S315080009400FE0012000F05BF80BE0DFF8580D0078A7
S31508000950AA2803D1002000F03AF802E0002000F0AF
S315080009604EF801BD1FB512E00120FFF7DDFFBDF807
S315080009700800015D200000F0B9F80020FFF7D4FF59
S315080009800DF10A022100DFF8C40403F02AFD0DF177
S315080009900A00019003A8009002AB00220021DFF8AC
S315080009A0280703F00FFB0400207B042802D00B283D
S315080009B0DAD0E5E70120FFF7B7FFBDF80800015DCB
S315080009C0200000F075FE0020FFF7AEFFD8E780B5DF
S315080009D0C0B200280CD04FF40051DFF8CC0C05F05B
S315080009E02AF900AA002140F2DC5004F055F905E086
S315080009F04FF40051DFF8B00C05F020F902BD80B5C0
S31508000A00C0B200280BD04021DFF8A00C05F013F97E
S31508000A1000AA00214FF4167004F03EF904E04021C4
S31508000A20DFF8880C05F00AF902BD80B5C0B20028C7
S31508000A300BD00421DFF8740E05F0FDF800AA00219A
S31508000A4040F6B83004F028F904E00421DFF85C0E1B
S31508000A5005F0F4F802BD80B5C0B200280BD002211B
S31508000A60DFF8480E05F0E7F800AA002140F6B8308E
S31508000A7004F012F904E00221DFF8300E05F0DEF882
S31508000A8002BD80B5C0B200280BD00121DFF81C0ECC
S31508000A9005F0D1F800AA002140F6B83004F0FCF8B9
S31508000AA004E00121DFF8040E05F0C8F802BD80B5A0
S31508000AB0C0B200280BD08021DFF8F00B05F0BBF898
S31508000AC000AA002140F6B83004F0E6F804E08021D8
S31508000AD0DFF8D80B05F0B2F802BD0000C84C0020BC
S31508000AE0C44C0020504A00203C4C00202DE9F0411F
S31508000AF08AB004000D000020039000200290002018
S31508000B00ADF810000020ADF80600002600270020EA
S31508000B108DF804005FF000080222DFF8941D04A88F
S31508000B2005F03EFA0322DFF88C1D03A805F038FA13
S31508000B30BDF81000002800F0CF80012003F0CDFE9C
S31508000B400722DFF8741D14F1100003F0B2FC012827
S31508000B5040F0C5800120DFF8641D0870002634E0E7
S31508000B6007220298811D07A805F01AFA01220298A1
S31508000B7010F10D0101A805F013FA2B00DBB29DF860
S31508000B800420029907A800F067F903220298C11CFD
S31508000B9002A805F005FA7F1CBDF80600BFB2874219
S31508000BA0DED3039905A800F06BFFB6B2701CBDF83A
S31508000BB0101090FBF1F0DFF8081D08700322039867
S31508000BC0C11C03A805F0ECF9761CBDF81000B6B2F6
S31508000BD0864274D206220398811D05A805F0E0F91D
S31508000BE00322039810F10C0102A805F0D9F9022294
S31508000BF0039810F112010DF1060005F0D1F90399D9
S31508000C0005A800F05FFE002857D10DF112000090EC
S31508000C1009AB00224FF47A71DFF85C0E05F03EFD51
S31508000C2000273DE04FF480520298000B4FF48051A4
S31508000C3001FB00F1DFF8440E05F0B2F902984FF413
S31508000C408051B0FBF1F202FB1102DFF8300E1018EA
S31508000C50807D50F0800002994FF48052B1FBF2F388
S31508000C6003FB1213DFF8141E591888750298000B37
S31508000C704FF48051484305F051F84FF480520298DA
S31508000C80000B4FF4805101FB00F1DFF8F00D05F081
S31508000C90DDF803220298C11C02A805F081F97F1C21
S31508000CA0BDF80600BFB28742BCD30DF1120200217F
S31508000CB0DFF8C40D05F000FE77E700276CE7002093
S31508000CC0DFF8F81B08702A00D2B20021012000F0D4
S31508000CD01DFA002003F001FE0AB0BDE8F0810026E7
S31508000CE01AE02B00DBB29DF80420029907A800F051
S31508000CF0B3F82A00D2B20299002000F007FA039945
S31508000D0005A800F0BDFE5FF0010803220398C11C88
S31508000D1003A805F045F9761C5FFA88F8B8F1000FC4
S31508000D20D7D1BDF81000B6B28642D2D206220398B1
S31508000D30811D05A805F034F90322039810F10C016A
S31508000D4002A805F02DF90222039810F112010DF1FF
S31508000D50060005F025F9002706E003220298C11CC3
S31508000D6002A805F01DF97F1CBDF80600BFB2874230
S31508000D70CBD207220298811D07A805F011F9012296
S31508000D80029810F10D0101A805F00AF9072207A932
S31508000D9014F1100003F08DFB0128DED19DF8040044
S31508000DA0E17B8842D9D1039905A800F08BFD00287C
S31508000DB097D10DF11200009009AB00224FF47A7119
S31508000DC0DFF8B40C05F06AFC4FF480520298000B69
S31508000DD04FF4805101FB00F1DFF8A00C05F0E0F8B4
S31508000DE002984FF48051B0FBF1F202FB1102DFF8D2
S31508000DF08C0C1018807D50F0800002994FF48052B8
S31508000E00B1FBF2F303FB1213DFF8701C591888754F
S31508000E100298000B4FF48051484304F07FFF4FF4CB
S31508000E2080520298000B4FF4805101FB00F1DFF865
S31508000E304C0C05F00BF80DF112020021DFF8380C06
S31508000E4005F03AFD5FE70000EF4C0020244C002037
S31508000E50E14C0020984A00202DE9F0438BB00400AD
S31508000E600D00002600200021ADF80C1000275FF0C9
S31508000E70000800218DF808105FF0000907A98946C7
S31508000E80682189F8001019F1010989F8002019F17B
S31508000E90010900210E0006E0F6B2305D89F800006F
S31508000EA019F10109761CF6B2072EF5DB012089F83F
S31508000EB0000019F10109032089F8000019F1010958
S31508000EC0DFF8EC0C0078FF280AD11F2089F800000B
S31508000ED019F10109902089F8000019F1010909E0C2
S31508000EE0902089F8000019F101091F2089F80000EF
S31508000EF019F10109012089F8000019F101090E21EB
S31508000F0007A8FFF7A2FA89F8000019F101091620C7
S31508000F1089F8000019F10109002608E00020F6B258
S31508000F2005A970540020F6B204A97054761CF6B2CE
S31508000F30042EF3DB002617E0C0B2C119897BC0B2C4
S31508000F4005AA8154C0B2C119C97CC0B204AA815489
S31508000F50401CC0B20428EFDB0DF10A023900DFF8A5
S31508000F60540C03F03EFA761C5FFA88F8B8F1000FC5
S31508000F7031D1F6B2032E2EDA0421DFF83C0C03F049
S31508000F8098FB102107A803F094FB0DF10A000190C5
S31508000F9006A8009003AB00224FF49661DFF81C0CFC
S31508000FA003F010F80700BDF80A00002805D0F6B2CD
S31508000FB0022E01D15FF00008D5E70722B91C2000F0
S31508000FC003F077FA0128C7D15FF00108F87F8DF89A
S31508000FD008000020BDE70DF10A00009006AB0022CC
S31508000FE04FF47A71DFF8900A05F058FB4FF48052F7
S31508000FF0280B4FF4805101FB00F1DFF8800A04F05A
S31508001000CFFF5FFA88F8B8F1000F16D14FF4805079
S31508001010B5FBF0F101FB1051DFF8600A0818807D76
S3150800102050F040004FF48051B5FBF1F202FB11522B
S31508001030DFF8481A5118887529E0012202A94FF4E9
S315080010408050B5FBF0F303FB1053DFF8300A18188D
S31508001050163004F057FC042205A94FF48050B5FB5E
S31508001060F0F303FB1053DFF8140A18180E3004F0D7
S3150800107049FC042204A94FF48050B5FBF0F303FBA6
S315080010801053DFF8F8091818183004F03BFC280B41
S315080010904FF48051484304F041FE4FF48052280B28
S315080010A04FF4805101FB00F1DFF8D00904F0CEFEC1
S315080010B00DF10A020021DFF8C00905F0FDFB0BB0AF
S315080010C0BDE8F083BC4A0020744A0020D04B0020BB
S315080010D0E04C0020CC4C0020D04C0020F4BA00088C
S315080010E0E04A0020FCBA000804BB00080CBB000854
S315080010F0EB4C0020984B0020EC4C0020B44B002011
S31508001100EE4C0020ED4C00207C0000202DE9F54F28
S315080011108DB00025002006905FF000090020ADF88C
S315080011201C000020ADF814000020ADF816000020C1
S31508001130ADF8000000208DF808000020ADF80A0080
S315080011400027002008900020039000208DF8070053
S3150800115000208DF8060000240020ADF812005FF08C
S31508001160000A5FF000080020ADF8040000265FF0D2
S31508001170000B00208DF80000039104A9DFF8340A5B
S3150800118003F00CF90500002D00F0C68006959DF8C1
S315080011903400002840F0C88007220398811D0BA858
S315080011A004F0FEFE0122039810F10D010DF107006F
S315080011B004F0F6FE0422039810F10E0109A804F0C3
S315080011C0EFFE0122039810F116010DF1060004F056
S315080011D0E7FE682028706D1CA9467320A9F8000050
S315080011E019F102097320A9F8000019F102094D4600
S315080011F0682028706D1C882028706D1CDFF8D00BBD
S31508001200007828706D1CDFF8C80B407828706D1CB4
S31508001210DFF8BC0B807828706D1CDFF8B40BC0783B
S3150800122028706D1CDFF8A80B007928706D1C0B2040
S3150800123028706D1CDFF8CC0D007850F0600028701F
S315080012406D1C042028706D1CDFF8B80D0078DFF8D7
S31508001250B81D0870FFF7C3FA002028706D1C00201F
S3150800126028706D1C002028706D1C002028706D1CCD
S315080012709DF8070028706D1C002405E0A4B20BA891
S31508001280205C28706D1C641CA4B2072CF6DB0120B8
S3150800129028706D1C002405E0A4B209A8205C2870FB
S315080012A06D1C641CA4B2042CF6DB9DF8060028709D
S315080012B06D1C002028706D1C1C210698801DFFF7E8
S315080012C0C4F828706D1C162028706D1C9DF838000F
S315080012D0002824D05FF0000A01E01AF1010A5FFA3B
S315080012E08AFABAF1030F11DA2421069804F0ECF809
S315080012F004A800900AAB002241F28831DFF8600D9D
S3150800130003F065FBBDF810000028E6D104AA06998B
S31508001310DFF8A00803F065F80FB0BDE8F08F2421C8
S31508001320069803F032FAF1E70222DFF884150DF188
S31508001330160004F035FE0222DFF8281D05A804F081
S315080013402FFE0322DFF86C1508A804F029FEBDF865
S3150800135014000A2190FBF1F0ADF80000BDF8140066
S315080013600A2190FBF1F201FB12008DF80800002714
S31508001370BDF80000ADF80A009DF80800002804D062
S31508001380BDF80A00401CADF80A00002406E0032256
S315080013900898C11C08A804F003FE641CBDF81600D2
S315080013A0A4B28442B2D20322089810F10C0103A811
S315080013B004F0F6FD0222089810F1120107A804F0BD
S315080013C0EFFD0020ADF8120015E0BDF804000E216F
S315080013D0484310F1160189B2069803F0D6F9069D1E
S315080013E003220398C11C03A804F0DAFDBDF8120015
S315080013F0401CADF81200BDF81200BDF81C1088425A
S31508001400C5D207220398811D0BA804F0C9FD012245
S31508001410039810F10D010DF1070004F0C1FD042237
S31508001420039810F10E0109A804F0BAFD01220398E9
S3150800143010F116010DF1060004F0B2FDF6B2002E09
S3150800144040F0BF8001267F1CBDF80A0001280CD198
S31508001450BDF81480ADF80480BDF804000E21484399
S315080014600E30800050F0030B36E0BFB2012F0CD1CE
S315080014705FF00A08ADF80480BDF804000E21484361
S315080014800E30800050F0030B26E0BDF80A00BFB20C
S31508001490874215D19DF80800002804D15FF00A0894
S315080014A0ADF8048003E09DF80880ADF80480BDF827
S315080014B004000E2148430E30800050F0030B0BE069
S315080014C05FF00A08ADF80480BDF804000E21484311
S315080014D00E30800050F0030B682028706D1CA9465A
S315080014E0A9F800B019F10209A9F800B019F1020922
S315080014F04D46682028706D1C882028706D1CDFF802
S31508001500D008007828706D1CDFF8C4084078287069
S315080015106D1CDFF8BC08807828706D1CDFF8B008F1
S31508001520C07828706D1CDFF8A808007928706D1C33
S315080015300B2028706D1CBDF80A00012807D1DFF8BA
S31508001540C40A007850F0700028706D1C1EE0BFB207
S31508001550012F07D1DFF8AC0A007850F05000287048
S315080015606D1C13E0BDF80A00BFB2874207D1DFF849
S31508001570940A007850F0300028706D1C06E0DFF8F9
S31508001580840A007850F0100028706D1CDFF8740A81
S315080015900078DFF8741A0870FFF721F9042028701C
S315080015A06D1CA946BDF80A00A9F8000019F1020940
S315080015B0A9F8007019F102094D469DF80700287030
S315080015C06D1C5FF0000A08E05FFA8AFA0BA81AF8A1
S315080015D0000028706D1C1AF1010A5FFA8AFABAF13E
S315080015E0070FF1DB012028706D1C5FF0000A08E088
S315080015F05FFA8AFA09A81AF8000028706D1C1AF111
S31508001600010A5FFA8AFABAF1040FF1DB9DF80600BF
S3150800161028706D1C002028706D1CB8F101081FFA8F
S3150800162088F8B8F1000F7FF4DBAE0026BDF8040099
S315080016300E21484310F10E0189B20698801DFEF767
S3150800164004FF28706D1C162028706D1C9DF8380044
S3150800165000283FF4BAAE5FF0000A01E01AF1010A69
S315080016605FFA8AFABAF1030FBFF6B9AEBDF80400FD
S315080016700E21484310F1160189B2069803F024FF9B
S3150800168004A800900AAB002241F28831DFF8D0099D
S3150800169003F09DF9BDF810000028DFD19FE6000091
S315080016A0C0D401009200002000100140000801404B
S315080016B02DE9F0438BB004000D00002003900020B4
S315080016C002900020ADF806000020ADF810000026B4
S315080016D0002700208DF804005FF000085FF000097D
S315080016E0022273490DF1060004F05AFC03227149DF
S315080016F003A804F055FCBDF80600002800F0D280C7
S31508001700012003F0EAF8002618E05FFA89F9CDF817
S3150800171000902B00DBB29DF80420029906A800F081
S3150800172059FB039908A800F0ABF95FF001080322FA
S315080017300398C11C03A804F033FC761C5FFA88F8EA
S31508001740B8F1000F40F0AB80BDF80600B6B286428D
S3150800175080F0A58006220398811D08A804F020FCC5
S315080017600322039810F10C0102A804F019FC0222C6
S31508001770039810F1120104A804F012FC002706E0F1
S3150800178003220298C11C02A804F00AFC7F1CBDF8BB
S315080017901000BFB28742CAD207220298811D06A846
S315080017A004F0FEFB0122029810F10D0101A804F0D5
S315080017B0F7FB072206A914F1100002F07AFE0128A9
S315080017C0DED19DF80400E17B8842D9D1039908A8A7
S315080017D000F078F8002843D10DF1120000900AAB0A
S315080017E000224FF47A71A44804F058FF4FF480524F
S315080017F00298000B4FF4805101FB00F19F4804F05A
S31508001800CFFB02984FF48051B0FBF1F202FB1102B4
S315080018109A481018807D50F0800002994FF4805243
S31508001820B1FBF2F303FB1213944959188875029811
S31508001830000B4FF48051484304F070FA4FF480527D
S315080018400298000B4FF4805101FB00F18B4804F01D
S31508001850FDFA0DF112020021874805F02DF864E71C
S315080018600222029810F1160105A804F099FB607B84
S315080018700F2101FB00F9A07B02283FF446AF03289D
S315080018807FF44FAF5FFA89F9CDF800902B00DBB2F1
S315080018909DF80420029906A800F092F941E7002075
S315080018A003F01BF80BB0BDE8F0830000000C014004
S315080018B0A3F01F00A0F01F0014BB0008F04C002086
S315080018C0F14C00202DE9F0418AB004000D000027F4
S315080018D00026DFF8800C0078AA281AD1207801287B
S315080018E006D014D303280BD006D304280CD00EE058
S315080018F00120FFF79AF80AE00120FFF7ACF806E0A6
S315080019000120FFF7BEF802E00120FFF7D0F801201A
S31508001910AEE0DFF8400C0078BB2840F0A98004AFA1
S31508001920682038707F1CA02038707F1C5FF0000884
S3150800193007E05FFA88F818F8040038707F1C18F179
S3150800194001085FFA88F8B8F1060FF2DB0020387054
S315080019507F1C042038707F1C042038707F1C902060
S3150800196038707F1CA02038707F1C012038707F1CBF
S31508001970552038707F1C0F2104A8FEF766FD3870C5
S315080019807F1C162038707F1C5FF0000807E00026D1
S3150800199002AA3900874802F024FD18F10108F6B2B8
S315080019A0002E2DD15FFA88F8B8F1020F28DA112136
S315080019B004A802F07EFE02A8019003A800900DF18B
S315080019C00A03002241F288317C4802F0FBFA07003C
S315080019D0BDF80800002806D05FFA88F8B8F1010FAC
S315080019E000D10026D9E70622B91C200002F061FDC5
S315080019F00128CDD1B87B03210842C8D10126C7E703
S31508001A00F6B2002E31D102A8009003AB00224FF4A3
S31508001A107A71194804F042FE4FF48052280B4FF4AD
S31508001A20805101FB00F1154804F0BAFA01204FF481
S31508001A308051B5FBF1F202FB115210495118C875D5
S31508001A40280B4FF48051484304F068F94FF480524C
S31508001A50280B4FF4805101FB00F1084804F0F6F911
S31508001A6002AA0021044804F027FF3000C0B2FFE7AD
S31508001A700AB0BDE8F0810000044B00209800002061
S31508001A80F0B589B0040000260025DFF8C80A0078FA
S31508001A90AA281AD12078012806D014D303280BD0F7
S31508001AA006D304280CD00EE00020FEF7BEFF0AE09D
S31508001AB00020FEF7D0FF06E00020FEF7E2FF02E076
S31508001AC00020FEF7F4FF01206FE0DFF8880A0078AF
S31508001AD0BB286AD104AE68203070761CA02030700E
S31508001AE0761C002704E0FFB2385D3070761C7F1C38
S31508001AF0FFB2062FF7DB00203070761C042030700A
S31508001B00761C04203070761C90203070761CA0203D
S31508001B103070761C01203070761C99203070761C47
S31508001B200F2104A8FEF791FC3070761C1620307041
S31508001B30761C002706E0002502AA31001D4802F09F
S31508001B4050FC7F1CEDB2002D2CD1FFB2022F29DAF2
S31508001B50112104A802F0ADFD02A8019003A8009087
S31508001B600DF10A0300224FF47A61DFF8680C02F0DF
S31508001B7029FA0600BDF80800002804D0FFB2012F94
S31508001B8000D10025DDE70622B11C200002F091FCF9
S31508001B900128D1D1B07BC0B210F003000228CAD107
S31508001BA00125C9E72800C0B2FFE709B0F0BD00006B
S31508001BB0E24C0020244C002088000020984A00208F
S31508001BC02DE9F04F89B004000D001E000027002003
S31508001BD0ADF80A005FF000085FF000095FF0000A40
S31508001BE05FF0000B04A8834668208BF800001BF101
S31508001BF0010B8BF800201BF1010B0020070006E003
S31508001C00FFB2385D8BF800001BF1010B7F1CFFB299
S31508001C10072FF5DB04208BF800001BF1010B0420CD
S31508001C208BF800001BF1010B17208BF800001BF145
S31508001C30010BA0208BF800001BF1010B01208BF88B
S31508001C4000001BF1010B55208BF800001BF1010B5E
S31508001C500F2104A8FEF7F9FB8BF800001BF1010B16
S31508001C6016208BF800001BF1010B002708E05FF037
S31508001C70000902AA4146DFF8600B02F0B2FB7F1C9E
S31508001C805FFA89F9B9F1000F34D1FFB2022F31DAC0
S31508001C900421DFF8480B02F00CFD112104A802F01C
S31508001CA008FD02A8019003A800900DF10A0300227E
S31508001CB043F69821DFF81C0B02F084F98046BDF83C
S31508001CC00800002805D0FFB2012F01D15FF00009F6
S31508001CD0D5E7072218F10201200002F0EAFB0128E5
S31508001CE0C7D198F80EA003201AEA000FBFD15FF0FB
S31508001CF00109BEE702A8009003AB00224FF47A71EF
S31508001D00DFF8DC0A04F0CAFC4FF48052280B4FF4C3
S31508001D10805101FB00F1DFF8CC0A04F041F95FFAC3
S31508001D2089F9B9F1000F28D15FFA8AFA1AF0030087
S31508001D3003280BD103204FF48051B5FBF1F202FBC7
S31508001D401152DFF8A01A5118887526E04FF4805012
S31508001D50B5FBF0F101FB1051DFF8880A0818807D01
S31508001D6050F040004FF48051B5FBF1F202FB1152DE
S31508001D70DFF8701A511888750FE04FF48050B5FBDC
S31508001D80F0F101FB1051DFF85C0A081880F816A07C
S31508001D9012993000C0B201F0D5FA280B4FF48051E1
S31508001DA0484303F0BBFF4FF48052280B4FF4805191
S31508001DB001FB00F1DFF82C0A04F048F802AA00211A
S31508001DC0DFF81C0A04F078FD09B0BDE8F08F0000C2
S31508001DD07C0000202DE9F04F89B004000D001E009C
S31508001DE000270020ADF80A005FF000085FF0000940
S31508001DF05FF0000A5FF0000B04A8834668208BF8A2
S31508001E0000001BF1010B8BF800201BF1010B0020D1
S31508001E10070006E0FFB2385D8BF800001BF1010BE6
S31508001E207F1CFFB2072FF5DB04208BF800001BF19F
S31508001E30010B04208BF800001BF1010B17208BF80F
S31508001E4000001BF1010BA0208BF800001BF1010B11
S31508001E5001208BF800001BF1010B99208BF800007C
S31508001E601BF1010B0F2104A8FEF7EFFA8BF800000F
S31508001E701BF1010B16208BF800001BF1010B002744
S31508001E8008E05FF0000902AA4146DFF84C0902F0B3
S31508001E90A8FA7F1C5FFA89F9B9F1000F45D1FFB29C
S31508001EA0022F42DA0421DFF8340902F002FC11217C
S31508001EB004A802F0FEFB02A8019003A800900DF109
S31508001EC00A03002243F69821DFF8080902F07AF897
S31508001ED08046BDF80800002805D0FFB2012F01D1C1
S31508001EE05FF00009D5E7072218F10201200002F089
S31508001EF0E0FA0128C7D198F80EA05FFA8AFA1AF014
S31508001F000300032802D15FF00009BCE75FFA8AFAEA
S31508001F101AF002005FFA8AFA1AF0010151EA600023
S31508001F200028AED05FF00109ADE702A8009003AB28
S31508001F3000224FF47A71DFF8A80804F0AFFB4FF4DB
S31508001F408052280B4FF4805101FB00F1DFF894080A
S31508001F5004F026F85FFA89F9B9F1000F28D15FFA7B
S31508001F608AFA1AF0030003280BD103204FF4805194
S31508001F70B5FBF1F202FB1152DFF8681851188875A3
S31508001F8026E04FF48050B5FBF0F101FB1051DFF865
S31508001F9054080818807D50F040004FF48051B5FB76
S31508001FA0F1F202FB1152DFF83C18511888750FE060
S31508001FB04FF48050B5FBF0F101FB1051DFF824080F
S31508001FC0081880F816A012993000C0B201F0BAF9C4
S31508001FD0280B4FF48051484303F0A0FE4FF480527B
S31508001FE0280B4FF4805101FB00F1DFF8F80703F0E6
S31508001FF02DFF02AA0021DFF8E80704F05DFC09B00E
S31508002000BDE8F08FED4C0020EC4C00201FB50CE02D
S31508002010BDF80800015D200001F0C2F80DF10A02C2
S315080020202100DFF8B40702F0DCF90DF10A0001908F
S3150800203003A8009002AB00220021DFF8BC0D01F0D6
S31508002040C1FF0400207B032802D00A28E0D0E5E778
S31508002050BDF80800015D200000F006F8DEE7000084
S31508002060B44B0020B3F01F002DE9F04188B00400FE
S315080020700D0000260020ADF8060000200290002082
S3150800208006905FF00008607B0F2101FB00F7A07B3C
S31508002090022812D0032800F0E780062800F02B81DA
S315080020A0072800F05C810C2800F098810D2800F0C4
S315080020B0D9810E2800F00E8248E2A07CDFF83C1D8C
S315080020C00870607CDFF8381D0870207CDFF8341D46
S315080020D00870E07BDFF8301D0870B4F81300DFF8ED
S315080020E02C1D08801121DFF8280D02F0AFF9062112
S315080020F003A802F0ABF9A27CCDA103A804F082FCE8
S3150800210003A9DFF80C0D03F0EAFACAA1DFF8000DFF
S3150800211003F0E5FA062103A802F098F9627CC4A147
S3150800212003A804F06FFC03A9DFF8E40C03F0D7FA60
S31508002130C0A1DFF8DC0C03F0D2FA062103A802F0EE
S3150800214085F9227CBAA103A804F05CFC03A9DFF890
S31508002150C00C03F0C4FAB7A1DFF8B40C03F0BFFA59
S31508002160062103A802F072F9E27BB1A103A804F0E4
S3150800217049FC03A9DFF8980C03F0B1FA0821DFF847
S31508002180940C02F063F9062103A802F05FF9B4F88B
S315080021901320A7A103A804F035FCE0A1DFF8740C0E
S315080021A003F09DFA03A9DFF86C0C03F098FADCA19A
S315080021B0DFF8600C03F093FA01A8009005AB002243
S315080021C04FF47A71DFF8180604F068FA4FF4807253
S315080021D0DFF8441CDFF80C0603F0E2FE1122DFF8F4
S315080021E0301CDFF8380C03F08DFB0822DFF8241CBE
S315080021F0DFF82C0C03F086FB0122DFF8001CDFF861
S31508002200240C03F07FFB0122DFF8F41BDFF8180C1F
S3150800221003F078FB0122DFF8EC1BDFF8100C03F063
S3150800222071FB0122DFF8E01BDFF8040C03F06AFB00
S315080022300222DFF8D81BDFF8FC0B03F063FB4FF430
S315080022408072DFF8D41BDFF89C0503F0CEFD01AAE7
S315080022500021DFF88C0504F02FFB3900C9B22800ED
S31508002260C0B201F06FF871E10521DFF8CC0B02F07E
S31508002270EDF8E07BDFF8C01B0870207CDFF8B81BA0
S315080022804870607CDFF8B01B8870A07CDFF8A81B5C
S31508002290C870E07CDFF8A01B087101A8009005ABA8
S315080022A000224FF47A71DFF8380504F0F7F94FF495
S315080022B08072DFF8641BDFF82C0503F071FE052237
S315080022C0DFF8741BDFF8740B03F01CFB4FF4807205
S315080022D0DFF8441BDFF80C0503F087FD01AA00218F
S315080022E0DFF8FC0404F0E8FA3900C9B22800C0B2E5
S315080022F001F028F82AE114F1190000F0C7FC029051
S3150800230014F11201029800F027F9804602987FF02E
S315080023107F41884222D0E07F00280DD17FF07F40A0
S31508002320804503D04146029800F05EFA3900C9B2EA
S315080023302800C0B201F006F8E07F01280ED17FF030
S315080023407F40804504D114F11201029800F03AF951
S315080023503900C9B22800C0B200F0F4FFF6E0E07B0D
S31508002360AA2825D10222DFF81C1E0DF1060003F06B
S3150800237017FE0322DFF8101E02A803F011FE00263E
S315080023800BE003220298C11C06A803F009FE029876
S3150800239000F056FD06980290761CBDF80600B6B207
S315080023A08642EED33900C9B22800C0B200F0CAFF8F
S315080023B0E07B552811D114F1100000F067FC7FF07E
S315080023C07F41884203D114F1100000F091FC3900D6
S315080023D0C9B22800C0B200F0B5FFB7E0E07BAA2872
S315080023E002D1AA205B490870E07BBB2802D1BB203A
S315080023F058490870E07BFF2802D1FF20554908702C
S3150800240001A8009005AB00224FF47A71DFF8D003DB
S3150800241004F044F94FF48072DFF8FC19DFF8C403BE
S3150800242003F0BEFD01224B49DFF8600D04E000BF52
S31508002430256400002E00000003F064FA4FF4807251
S31508002440DFF8D419DFF89C0303F0CFFC01AA0021BA
S31508002450E34804F031FA3900C9B22800C0B200F0E6
S3150800246071FF73E0E07B002803D10020DFF8201D10
S315080024700870E07BFF2803D1FF20DFF8141D0870E1
S3150800248001A8009005AB00224FF47A71D44804F0F5
S3150800249005F94FF48072DFF88019D24803F080FD01
S315080024A00122DFF8EC1CDFF8EC0C03F02BFA4FF4F2
S315080024B08072DFF86419CB4803F097FC01AA002163
S315080024C0C74804F0F9F93900C9B22800C0B200F0CB
S315080024D039FF3BE0E07BAA2803D1AA20DFF8B81C25
S315080024E00870E07BFF2803D1FF20DFF8AC1C0870DA
S315080024F001A8009005AB00224FF47A71B84804F0A1
S31508002500CDF84FF48072DFF81019B64803F048FD8D
S315080025100122DFF8841CDFF8840C03E02C0000009D
S315080025200D00000003F0EEF94FF48072DFF8E818AA
S31508002530AC4803F05AFC01AA0021A94804F0BCF9EA
S315080025403900C9B22800C0B200F0FCFE08B0BDE8E8
S31508002550F08100009200002030B585B005000C001F
S31508002560002000900020ADF80400022215F11201A7
S3150800257001A803F015FD032215F10C0100A803F0CC
S315080025800FFD002506E003220098C11C00A803F0F1
S3150800259007FD6D1CBDF80400ADB285420ED20722B8
S315080025A00098811D02A803F0FBFC072202A920005F
S315080025B001F07FFF0128E6D1009801E07FF07F4017
S315080025C005B030BD30B587B004000D00002004907A
S315080025D0002002900020ADF804000020ADF80600A7
S315080025E000200590022214F1120101A803F0D8FC7C
S315080025F00222DFF84C1D0DF1060003F0D1FC032280
S3150800260014F10F0104A803F0CBFCBDF80400401C2C
S31508002610ADF80400BDF80600401CADF8060003F04E
S3150800262029FE029002987FF07F41884202D17FF00E
S315080026307F40CDE007220298811D280003F0A7FB02
S315080026400122029810F10D01E81E03F0A0FB0422F6
S31508002650029810F10E0105A803F099FB02220298D0
S3150800266010F1160105A803F092FB03A8009006AB2B
S3150800267000224FF47A715A4804F010F8BDF80C009D
S31508002680002802D07FF07F40A2E004987FF07F41C7
S31508002690884241D14FF48052200B4FF4805101FB00
S315080026A000F1504803F07CFC032202A94FF4805045
S315080026B0B4FBF0F303FB10434A4818180C3003F038
S315080026C021F9032202A94FF48050B4FBF0F303FB6F
S315080026D01043444818180F3003F014F9022201A9D0
S315080026E04FF48050B4FBF0F303FB10433D48181831
S315080026F0123003F007F9200B4FF48051484303F0DA
S315080027000DFB4FF48052200B4FF4805101FB00F172
S31508002710344803F09BFB40E04FF48052200B4FF403
S31508002720805101FB00F12F4803F03AFC032202A96D
S315080027304FF48050B4FBF0F303FB104329481818F4
S315080027400F3003F0DFF8022201A94FF48050B4FBE2
S31508002750F0F303FB104323481818123003F0D2F89D
S31508002760200B4FF48051484303F0D8FA4FF48052B7
S31508002770200B4FF4805101FB00F11A4803F066FB69
S3150800278003220498C11C02A803F001FB0322029845
S3150800279010F1120104A803F0FAFA4FF48072DFF878
S315080027A07816104803F0FCFB02220DF10601DFF84B
S315080027B03C0C03F0A7F84FF48072DFF85C16094862
S315080027C003F013FB03AA0021054804F075F80298E4
S315080027D007B030BD984A0020244C0020880000200D
S315080027E0044B00209800002070B586B004000D0048
S315080027F000200390002002900020ADF8040000207D
S31508002800ADF80600022214F1120101A803F0C8FB74
S315080028100222DFF82C1B0DF1060003F0C1FB032290
S31508002820E91C03A803F0BCFB032215F1120102A858
S3150800283003F0B6FBBDF80400401EADF80400BDF871
S315080028400600401EADF80600280003F0AAFD04A8FD
S31508002850009005AB00224FF47A71DFF8EC0C03F018
S315080028601DFFBDF8040000285DD14FF48052200BEF
S315080028704FF4805101FB00F1DFF8D00C03F090FB18
S31508002880032203A94FF48050B4FBF0F303FB104373
S31508002890DFF8B80C18180C3003F034F8022201A936
S315080028A04FF48050B4FBF0F303FB1043DFF89C0CA5
S315080028B01818123003F026F8032202A94FF48050A4
S315080028C0B4FBF0F303FB1043DFF8800C18180F3045
S315080028D003F018F8200B4FF48051484303F01EFA12
S315080028E04FF48052200B4FF4805101FB00F1DFF8C2
S315080028F05C0C03F0ABFA4FF48072DFF81C15DFF8B6
S315080029004C0C03F04DFB02220DF10601DFF8DC0A40
S3150800291002F0F8FF4FF48072DFF8FC14DFF82C0C95
S3150800292003F063FAA9E102987FF07F41884205D057
S3150800293003987FF07F41884240F0048102987FF037
S315080029407F4188427CD14FF480520398000B4FF4A4
S31508002950805101FB00F1DFF8F40B03F021FB0322A1
S3150800296002A903984FF48053B0FBF3F606FB13064F
S31508002970DFF8D80B3018123002F0C4FF0398000BAA
S315080029804FF48051484303F0C9F94FF48052039835
S31508002990000B4FF4805101FB00F1DFF8B00B03F098
S315080029A055FA4FF48052200B4FF4805101FB00F189
S315080029B0DFF8980B03F0F4FA032203A94FF48050CA
S315080029C0B4FBF0F303FB1043DFF8800B18180C3048
S315080029D002F098FF022201A94FF48050B4FBF0F3ED
S315080029E003FB1043DFF8640B1818123002F08AFF55
S315080029F0200B4FF48051484303F090F94FF480526E
S31508002A00200B4FF4805101FB00F1DFF8400B03F077
S31508002A101DFA4FF48072DFF80014DFF8300B03F06C
S31508002A20BFFA02220DF10601DFF8C00902F06AFFBB
S31508002A304FF48072DFF8E013DFF8100B03F0D5F9D6
S31508002A4003987FF07F41884240F017814FF4805207
S31508002A500298000B4FF4805101FB00F1DFF8EC0AF5
S31508002A6003F09EFA032203A902984FF48053B0FBA1
S31508002A70F3F606FB1306DFF8D40A3018C01C02F07A
S31508002A8041FF0298000B4FF48051484303F046F982
S31508002A904FF480520298000B4FF4805101FB00F16D
S31508002AA0DFF8A80A03F0D2F94FF48052200B4FF44E
S31508002AB0805101FB00F1DFF8940A03F071FA032252
S31508002AC002A94FF48050B4FBF0F303FB1043DFF880
S31508002AD07C0A18180F3002F015FF022201A94FF4DC
S31508002AE08050B4FBF0F303FB1043DFF8600A1818B4
S31508002AF0123002F007FF200B4FF48051484303F0D1
S31508002B000DF94FF48052200B4FF4805101FB00F170
S31508002B10DFF8380A03F09AF94FF48072BE49DFF8F5
S31508002B202C0A03F03DFA02220DF10601DFF8BC0873
S31508002B3002F0E8FE4FF48072B749DFF8100A03F096
S31508002B4054F99AE04FF480520298000B4FF48051E2
S31508002B5001FB00F1DFF8F40903F022FA032203A9C6
S31508002B6002984FF48053B0FBF3F606FB1306DFF822
S31508002B70DC093018C01C02F0C5FE0298000B4FF4A1
S31508002B808051484303F0CAF84FF480520298000B6C
S31508002B904FF4805101FB00F1DFF8B00903F056F954
S31508002BA04FF480520398000B4FF4805101FB00F15B
S31508002BB0DFF8980903F0F4F9032202A903984FF401
S31508002BC08053B0FBF3F606FB1306DFF880093018CE
S31508002BD0123002F097FE0398000B4FF480514843D9
S31508002BE003F09CF84FF480520398000B4FF4805181
S31508002BF001FB00F1DFF8540903F028F94FF480527D
S31508002C00200B4FF4805101FB00F1DFF8400903F077
S31508002C10C7F9022201A94FF48050B4FBF0F303FB75
S31508002C201043DFF828091818123002F06BFE200B43
S31508002C304FF48051484303F071F84FF48052200B4B
S31508002C404FF4805101FB00F1DFF8000903F0FEF8AC
S31508002C504FF480727049DFF8F40803F0A1F90222F4
S31508002C600DF10601DFF8840702F04CFE4FF480727E
S31508002C706949DFF8D80803F0B8F804AA0021DFF894
S31508002C80C80803F019FE280006B070BD30B585B037
S31508002C900400002000900222DFF8E81401A803F0DF
S31508002CA07FF90322DFF8E01400A803F079F900257C
S31508002CB006E003220098C11C00A803F071F96D1CF8
S31508002CC0BDF80400ADB285420ED206220098811DD9
S31508002CD002A803F065F9062202A9200001F0E9FB23
S31508002CE00128E6D1009801E07FF07F4005B030BDAD
S31508002CF010B586B004000020049000200290002041
S31508002D00ADF804000020ADF80C000222DFF87414B8
S31508002D1001A803F045F90322DFF8341804A803F0E4
S31508002D203FF9BDF80400401CADF8040003F0A2FA10
S31508002D30029006220298811D200003F028F802223C
S31508002D40029810F1120103A803F021F80DF106000C
S31508002D50009005AB00224FF47A71DFF8EC0703F018
S31508002D609DFC4FF48072DFF88816DFF8E00703F061
S31508002D7017F904987FF07F41884212D1032202A9ED
S31508002D80DFF8E40C02F0BEFD022201A9DFF8DC0C34
S31508002D9002F0B8FD032202A9DFF8D40C02F0B2FD56
S31508002DA018E0022201A9DFF8C40C02F0ABFD0322E9
S31508002DB002A9DFF8BC0C02F0A5FD03220498C11C89
S31508002DC002A802F0E4FF0322029810F1140104A8F5
S31508002DD002F0DDFF4FF48072DFF81416DFF86C0797
S31508002DE003F003F80DF106020021DFF85C0703F093
S31508002DF063FD029806B010BDBC4A0020940000206E
S31508002E0095000020960000209700002090000020E2
S31508002E10500000207400002000F01F00E800002089
S31508002E2008010020070100200601002005010020F6
S31508002E3004010020160100207C0000201801002053
S31508002E4030B589B004000020ADF8060000200590D2
S31508002E500020069000200390002002900020ADF884
S31508002E6004000025022214F112010DF1060003F0F8
S31508002E7097F8032214F10C0105A803F091F8032230
S31508002E80E11C03A803F08CF8032214F1140102A82C
S31508002E9003F086F80222DFF8BC1601A803F080F8D2
S31508002EA0BDF80400401EADF80400002005000CE043
S31508002EB003220598C11C06A803F072F8059920009C
S31508002EC0FFF792FC069805906D1CBDF80600ADB29A
S31508002ED08542EDD3200003F064FA04A8009007ABFE
S31508002EE000224FF47A71DFF8600603F0D7FBBDF8CD
S31508002EF00400002822D14FF48072DFF8F414DFF8BA
S31508002F004C0603F04DF8032203A9DFF85C0B02F028
S31508002F10F9FC022201A9DFF8540B02F0F3FC0322A4
S31508002F2002A9DFF84C0B02F0EDFC4FF48072DFF8D3
S31508002F30C014DFF8180602F058FF1AE102987FF06D
S31508002F407F41884205D003987FF07F41884240F050
S31508002F50A08002987FF07F41884249D14FF4805281
S31508002F600398000B4FF4805101FB00F1DFF8DC05F4
S31508002F7003F016F8032202A903984FF48053B0FB16
S31508002F80F3F505FB1305DFF8C4052818143002F01D
S31508002F90B9FC0398000B4FF48051484302F0BEFE7B
S31508002FA04FF480520398000B4FF4805101FB00F157
S31508002FB0DFF8980502F04AFF4FF48072DFF8301404
S31508002FC0DFF8880502F0ECFF032203A9DFF8980A68
S31508002FD002F098FC022201A9DFF8900A02F092FC9E
S31508002FE04FF48072DFF80814DFF8600502F0FDFE82
S31508002FF003987FF07F41884240F0BB804FF48052AF
S315080030000298000B4FF4805101FB00F1DFF83C05F4
S3150800301002F0C6FF032203A902984FF48053B0FBBF
S31508003020F3F505FB1305DFF824052818C01C02F084
S3150800303069FC0298000B4FF48051484302F06EFE7B
S315080030404FF480520298000B4FF4805101FB00F1B7
S31508003050DFF8F80402F0FAFE4FF48072DFF89013F6
S31508003060DFF8E80402F09CFF022201A9DFF8FC0958
S3150800307002F048FC032202A9DFF8F40902F042FC38
S315080030804FF48072DFF86813DFF8C00402F0ADFE73
S315080030906FE04FF480520298000B4FF4805101FB09
S315080030A000F1DFF8A80402F07BFF032203A90298C7
S315080030B04FF48053B0FBF3F505FB1305DFF88C04DA
S315080030C02818C01C02F01EFC0298000B4FF4805111
S315080030D0484302F023FE4FF480520298000B4FF447
S315080030E0805101FB00F1DFF8640402F0AFFE4FF4F3
S315080030F080520398000B4FF4805101FB00F1DFF872
S315080031004C0402F04DFF032202A903984FF48053A2
S31508003110B0FBF3F505FB1305DFF830042818143067
S3150800312002F0F0FB0398000B4FF48051484302F07D
S31508003130F5FD4FF480520398000B4FF4805101FBC4
S3150800314000F1DFF8080402F081FE4FF48072A84906
S31508003150DFF8F80302F024FF022201A9DFF80C09C0
S3150800316002F0D0FB4FF48072A149DFF8E00302F0C9
S315080031703CFE04AA0021DFF8D00303F09DFB2000E3
S3150800318009B030BDA3F01F00A0F01F0058010020B1
S3150800319093000020C8000020E24C002059010020BE
S315080031A080B50A00417B0F235943837B022B0CD041
S315080031B0032B10D0062B14D0072B1BD00C2B1FD09B
S315080031C00D2B23D00E2B27D02BE0C9B21000C0B28E
S315080031D000F0B0FC25E0C9B21000C0B200F04AFC0D
S315080031E01FE00B00DBB2D2B210F11001C07B00F079
S315080031F0B3F916E0C9B21000C0B200F0FBF810E04F
S31508003200C9B21000C0B200F00EFD0AE0C9B2100043
S31508003210C0B200F06CFD04E0C9B21000C0B200F004
S31508003220CAFD01BD30B587B00024002516E040214F
S31508003230DFF8BC0C02F0FFFC00AA00214FF47A70FC
S3150800324001F02AFD4021DFF8A80C02F0F7FC00AADD
S3150800325000214FF47A7001F01FFD0024DFF8940C6A
S3150800326000780028E3D04021DFF8840C02F0E3FC64
S3150800327000AA00214FF4967001F00EFD4021DFF8F8
S31508003280700C02F0DBFC00AA00214FF4967001F0E6
S3150800329003FDDFF8640C00780028DFD0641CE4B274
S315080032A00F2CDBDB002401AD682028706D1C27205D
S315080032B028706D1C002028706D1C272028706D1C36
S315080032C0002028706D1C682028706D1CCA20287084
S315080032D06D1CDFF8280C007828706D1CDFF81C0CB4
S315080032E0407828706D1CDFF8140C807828706D1CE7
S315080032F0DFF8080CC07828706D1CDFF8000C007920
S3150800330028706D1C0F2028706D1CDFF8F40B0078F0
S3150800331050F0600028706D1CDFF8E80B0078287004
S315080033206D1C09210DF10A00FDF78FF828706D1C38
S31508003330162028706D1C112101A802F0C5F88DE72A
S31508003340B3F01F0030B585B0040000AD68202870C2
S315080033506D1C272028706D1C002028706D1C2720E6
S3150800336028706D1C002028706D1C682028706D1C44
S31508003370802028706D1CDFF8840B007828706D1C7F
S31508003380DFF8780B407828706D1CDFF8700B8078B2
S3150800339028706D1CDFF8640BC07828706D1CDFF888
S315080033A05C0B007928706D1C002028706D1C51F08C
S315080033B0600028706D1C012028706D1C09210DF114
S315080033C00600FDF742F828706D1C162028706D1C43
S315080033D0E4B2002C04D0112100A802F075F803E02D
S315080033E0112100A801F0D1F905B030BD4B0100202C
S315080033F000F01F00F0B585B004000F000DF10201C2
S31508003400DFF8040B00F0CAFF0600002E00F09980D2
S3150800341035000322DFF8F41A01A802F0C1FD0222E2
S315080034204C4900A802F0BCFD68203070761CBDF837
S315080034300000062148430930800050F00300308020
S31508003440B61CBDF80000062148430930800050F03C
S3150800345003003080B61C68203070761C88203070D7
S31508003460761CDFF8980A00783070761CDFF88C0A2C
S3150800347040783070761CDFF8840A80783070761CC5
S31508003480DFF8780AC0783070761CDFF8700A0079A1
S315080034903070761C0A203070761C57F06000307049
S315080034A0761C07203070761C00270FE0C0B202A9F0
S315080034B0415C3170761C401CC0B20628F6DB03223C
S315080034C00198C11C01A802F06BFD7F1CBDF8000025
S315080034D0BFB2874207D206220198811D02A802F0D0
S315080034E05FFD0020E8E7BDF800000621484310F11B
S315080034F0090189B2A81DFCF7A8FF3070761C1620B2
S315080035003070761CE4B2002C0AD0BDF80000062103
S31508003510484310F1110189B2280001F0D5FF09E0EE
S31508003520BDF800000621484310F1110189B22800B0
S3150800353001F02BF90DF102022900DFF8CC0900F0A1
S3150800354050FF05B0F0BD0000044B00209800002095
S31508003550A5F01F00A3F01F002DE9FF4F8BB05FF009
S31508003560000A5FF00008002500265FF0000B5FF0F8
S3150800357000090020ADF8000000270222DFF89019A4
S315080035800DF10A0002F00CFD0222DFF8881904A8E2
S3150800359002F006FD0322DFF8741903A802F000FD05
S315080035A0BDF80A00002800F05B820DF11A01DFF869
S315080035B0580900F0F3FE0400002C00F0518205942F
S315080035C00722DFF854190C9800F073FF012840F021
S315080035D07081BDF810000A2190FBF1F0BDF81010BB
S315080035E00A2291FBF2F302FB13118DF802105FF029
S315080035F00008ADF808009DF80200002804D0BDF8C0
S315080036000800401CADF80800002506E003220398D0
S31508003610C11C03A802F0C4FC6D1CBDF80A00ADB2BB
S31508003620854280F0168206220398811D09A802F0B9
S31508003630B7FC0322039810F10C0101A802F0B0FCB4
S315080036400222039810F112010DF1120002F0A8FCF3
S31508003650002611E0BDF800001121484310F11201BF
S3150800366089B2059801F091F8059C03220198C11CBE
S3150800367001A802F095FC761CBDF81200B6B2864287
S31508003680C4D207220198811D07A802F089FC0122ED
S31508003690019810F10D010DF1030002F081FC0122E1
S315080036A0019810F1150106A802F07AFCFFB2002F66
S315080036B040F0A880012718F1010868202070641CD2
S315080036C0BDF8080001280CD1BDF81090ADF800909F
S315080036D0BDF80000112148430A30800050F0030A63
S315080036E039E01FFA88F8B8F1010F0CD15FF00A0922
S315080036F0ADF80090BDF80000112148430A3080005B
S3150800370050F0030A27E0BDF808001FFA88F880453C
S3150800371015D19DF80200002804D15FF00A09ADF81A
S31508003720009003E09DF80290ADF80090BDF8000007
S31508003730112148430A30800050F0030A0BE05FF07D
S315080037400A09ADF80090BDF80000112148430A3077
S31508003750800050F0030AA4F800A0A41CA4F800A056
S31508003760A41C68202070641C88202070641CDFF864
S315080037708C0700782070641CDFF88007407820707A
S31508003780641CDFF8780780782070641CDFF86C0703
S31508003790C0782070641CDFF8640700792070641C08
S315080037A00A202070641CBDF80800012806D19DF87F
S315080037B0380050F060002070641C1CE01FFA88F87E
S315080037C0B8F1010F06D19DF8380050F0400020707E
S315080037D0641C10E0BDF808001FFA88F8804506D179
S315080037E09DF8380050F020002070641C03E09DF816
S315080037F038002070641C06202070641C9DF82C007C
S315080038002070641C00202070641C00202070641C3A
S315080038105FF0000B08E05FFA8BFB07A81BF80000B7
S315080038202070641C1BF1010B5FFA8BFBBBF1070FC1
S31508003830F1DB5FF0000B08E05FFA8BFB09A81BF8C9
S3150800384000002070641C1BF1010B5FFA8BFBBBF1B7
S31508003850060FF1DB00202070641C01202070641C18
S31508003860B9F101091FFA89F9B9F1000F7FF4FDAE24
S315080038700027BDF800001121484310F10A0189B25A
S315080038800598801DFCF7E1FD2070641C1620207049
S31508003890641C9DF8340000283FF4DCAEBDF8000037
S315080038A01121484310F1120189B2059801F00CFE66
S315080038B0DAE6002530E003220198C11C01A802F0CF
S315080038C06FFB761CBDF81200B6B2864223D20722D9
S315080038D00198811D07A802F063FB0122019810F1E7
S315080038E00D010DF1030002F05BFB072207A90C98F6
S315080038F000F0DFFD0128DED19DF803009DF82C10AD
S315080039008842D8D10122019810F1150106A802F0C3
S3150800391047FB5FF001086D1C5FFA88F8B8F1000FE5
S315080039201BD1BDF80A00ADB2854216D2062203980D
S31508003930811D09A802F034FB0322039810F10C013B
S3150800394001A802F02DFB0222039810F112010DF1D5
S31508003950120002F025FB0026B4E75FFA88F8B8F1F2
S31508003960000F76D068202070641C6F202070641CBD
S3150800397000202070641C6F202070641C00202070BA
S31508003980641C68202070641C88202070641CDFF882
S315080039906C0500782070641CDFF86005407820709C
S315080039A0641CDFF8580580782070641CDFF84C0525
S315080039B0C0782070641CDFF8440500792070641C08
S315080039C00A202070641C9DF8380050F060002070B2
S315080039D0641C06202070641C9DF82C002070641C52
S315080039E000202070641C00202070641C002505E05F
S315080039F0ADB207A8285C2070641C6D1CADB2072DFB
S31508003A00F6DB002505E0ADB209A8285C2070641C29
S31508003A106D1CADB2062DF6DB00202070641C01205B
S31508003A202070641C1B210598801DFCF70EFD207074
S31508003A30641C16202070641C9DF83400002804D0ED
S31508003A402321059801F040FD03E02321059800F0A5
S31508003A509CFE0DF11A020599DFF8AC0400F0C1FCD2
S31508003A600FB0BDE8F08F0000380100203B010020B0
S31508003A703D010020F8B504000D0000A9DFF8880410
S31508003A8000F08CFC0700002F53D03E0068203870E9
S31508003A907F1C272038707F1C002038707F1C272049
S31508003AA038707F1C002038707F1C682038707F1C97
S31508003AB0882038707F1CDFF84404007838707F1C33
S31508003AC0DFF83804407838707F1CDFF830048078D7
S31508003AD038707F1CDFF82404C07838707F1CDFF844
S31508003AE01C04007938707F1C0A2038707F1C55F03A
S31508003AF0600038707F1C032038707F1C0921B01DB8
S31508003B00FCF7A3FC38707F1C162038707F1CE4B2C3
S31508003B10002C04D01121300001F0D6FC03E011215D
S31508003B20300000F032FE00AA3100DFF8DC0300F0B6
S31508003B3058FCF1BD2DE9F04182B004000D000027C4
S31508003B4000265FF0000800A9DFF8BC0300F026FC99
S31508003B500700002F65D03E00682038707F1C3F2084
S31508003B6038707F1C002038707F1C3F2038707F1CFF
S31508003B70002038707F1C682038707F1C88203870B9
S31508003B807F1CDE48007838707F1CDC484078387027
S31508003B907F1CDA48807838707F1CD848C07838701F
S31508003BA07F1CD648007938707F1C0A2038707F1C25
S31508003BB055F0600038707F1C022038707F1CD7488B
S31508003BC0007838707F1CD648007838707F1CD54836
S31508003BD0007838707F1CD448007838707F1CB84647
S31508003BE0D2480088A8F8000018F1020847460F21B5
S31508003BF0B01DFCF72AFC38707F1C162038707F1C15
S31508003C00E4B2002C04D01721300001F05DFC03E07B
S31508003C101721300000F0B9FD00AA3100BA4800F0BB
S31508003C20E0FBBDE8F3812DE9F04182B004000D0008
S31508003C30002700265FF0000800A9B34800F0AEFB95
S31508003C400700002F51D03E00682038707F1C2B20BB
S31508003C5038707F1C002038707F1C2B2038707F1C22
S31508003C60002038707F1C682038707F1C88203870C8
S31508003C707F1CA248007838707F1CA04840783870AE
S31508003C807F1C9E48807838707F1C9C48C0783870A6
S31508003C907F1C9A48007938707F1C0A2038707F1C70
S31508003CA055F0600038707F1C0C2038707F1CA048C7
S31508003CB0007838707F1C0A21B01DFCF7C6FB3870E7
S31508003CC07F1C162038707F1CE4B2002C04D0122109
S31508003CD0300001F0F9FB03E01221300000F055FD39
S31508003CE000AA3100884800F07CFBBDE8F3812DE985
S31508003CF0F04182B004000D00002700265FF000089E
S31508003D0000A9814800F04AFB0700002F51D03E0069
S31508003D10682038707F1C2B2038707F1C0020387074
S31508003D207F1C2B2038707F1C002038707F1C682071
S31508003D3038707F1C882038707F1C7048007838706F
S31508003D407F1C6E48407838707F1C6C4880783870C5
S31508003D507F1C6A48C07838707F1C684800793870BC
S31508003D607F1C0A2038707F1C55F0600038707F1C55
S31508003D700D2038707F1C6F48007838707F1C0A2128
S31508003D80B01DFCF762FB38707F1C162038707F1C4C
S31508003D90E4B2002C04D01221300001F095FB03E0B8
S31508003DA01221300000F0F1FC00AA3100564800F05C
S31508003DB018FBBDE8F3812DE9F04182B004000D003F
S31508003DC0002700265FF0000800A94F4800F0E6FA31
S31508003DD00700002F51D03E00682038707F1C2B202A
S31508003DE038707F1C002038707F1C2B2038707F1C91
S31508003DF0002038707F1C682038707F1C8820387037
S31508003E007F1C3E48007838707F1C3C4840783870E4
S31508003E107F1C3A48807838707F1C3848C0783870DC
S31508003E207F1C3648007938707F1C0A2038707F1C42
S31508003E3055F0600038707F1C0E2038707F1C3E4895
S31508003E40007838707F1C0A21B01DFCF7FEFA38701E
S31508003E507F1C162038707F1CE4B2002C04D0122177
S31508003E60300001F031FB03E01221300000F08DFC38
S31508003E7000AA3100244800F0B4FABDE8F38100B581
S31508003E8085B002A8019003A800904FF4847300221D
S31508003E9001212A4802F003FE02AA00214FF4FA7013
S31508003EA000F0FAFE0121264801F0BAFE0028E8D102
S31508003EB04FF40041224801F0BEFE4FF4005121485C
S31508003EC001F0BCFE4FF40071094801F0B4FE02AAE5
S31508003ED00021642000F0E0FE4FF40071044801F070
S31508003EE0ADFE02AA0021642000F0D6FEEAE7000033
S31508003EF0000C0140E14C0020F04C00207C00002022
S31508003F00ED4C0020F14C0020244C0020A0F01F00AE
S31508003F10A3F01F00B3F01F0014BB00089700002091
S31508003F2096000020950000209400002090000020B4
S31508003F309200002093000020E24C0020084C00204C
S31508003F4000080140001001402DE9F04106000F006D
S31508003F5090461C000025DFF8BC020078002803D034
S31508003F6042F6E16020802BE0002E03D145F6C350CF
S31508003F70208025E01FFA88F8B8F1000F03D146F231
S31508003F80945020801CE001F0D1FD0500DFF888027E
S31508003F9030607760414689B216F1140003F00BF9D8
S31508003FA016F1080003F028FCDFF870020088401CB0
S31508003FB0DFF868120880280001F0BCFD0020208088
S31508003FC0BDE8F0812DE9F04F89B004000D00160018
S31508003FD01F005FF00008DDF84C908E480078002836
S31508003FE005D046F2AE10A9F800000020C6E0002C65
S31508003FF005D145F6C350A9F800000020BEE0002F01
S3150800400005D146F2D520A9F800000020B6E0B6B2E0
S315080040103000002802D0B0F5004F1FD120687E4935
S31508004020884221D1DDF848A0BAF1000F02D000205D
S31508004030CAF8000001F07AFD80464B465246390020
S3150800404014F1140003F0C1F88346B9F800000028FB
S3150800405010D1404601F06EFD58468FE045F62560C2
S31508004060A9F80000002089E045F6C450A9F8000028
S31508004070002083E0300408D5404601F05BFD46F297
S31508004080B010A9F80000002078E0654800780028FC
S3150800409008D0404601F04EFD46F66350A9F80000E8
S315080040A000206BE02B000522210000A803F040FB4E
S315080040B0404601F03FFD03F023FA01F037FD804644
S315080040C05848006890F83500002805D0022838D0EE
S315080040D017D3032826D045E052480068D0F85CB0CC
S315080040E050480068B0F860003880BAF1000F04D074
S315080040F04C480068006CCAF800000020A9F80000C7
S3150800410038E05FF0000B00203880BAF1000F04D0C9
S3150800411044480068006CCAF8000046F2A910A9F8DD
S31508004120000027E05FF0000B00203880BAF1000F8E
S3150800413002D00020CAF8000047F2D920A9F80000EA
S3150800414018E05FF0000B00203880BAF1000F04D0A9
S3150800415034480068006CCAF8000045F6C250A9F851
S31508004160000007E05FF0000B0020388046F62E605E
S31508004170A9F80000404601F0DDFC584609B0BDE844
S31508004180F08F2DE9FC4105000E0017009846089CA3
S31508004190002D03D145F6C35020802AE01FFA88F87F
S315080041A04046002815D0102813D0B0F5007F10D04F
S315080041B0B0F5047F0DD0B0F5004F0AD048F21001D3
S315080041C0884206D0B0F5024F03D048F21021884243
S315080041D011D128681049884211D103F05EFD019477
S315080041E0009043469BB23A0092B23100280000F094
S315080041F01BF8BDE8F38145F625602080F9E745F60A
S31508004200C4502080F5E70021044A1180002101806E
S3150800421070470000E34C002051554555DA4C002004
S31508004220E84C0020BC4C00202DE9F04F83B0040078
S315080042300D0016001F005FF0000A01F077FC8246A9
S3150800424014F10800DDF83080DDF834900189002982
S3150800425014D1F80601D4002300E01023CDF8049009
S31508004260CDF800809BB2320092B2290014F11400F6
S3150800427002F0E3FF504601F05DFC25E0B90502D5E2
S31508004280B0F808B001E05FF0010B00680DE0816846
S3150800429040680190CDF8008033009BB22A002000C8
S315080042A003F020FB0198BBF1010B1FFA8BFBBBF156
S315080042B0000FECD1504601F03DFC380401D403F060
S315080042C01FF90020A9F80000BDE8F78F2DE9F8438B
S315080042D005000E00170098460020DDF8249058497E
S315080042E00978002904D045F2B960A9F8000053E01E
S315080042F0002F04D145F2BB60A9F800004CE01FFA74
S3150800430088F8B8F1020F04DA45F2BC60A9F8000093
S3150800431042E0089CA4B2042C04D245F2C160A9F874
S31508004320000039E0032000280FD0074204D045F2E8
S31508004330BB60A9F800002FE0210089B2014204D031
S3150800434045F2C160A9F8000026E03B003A00B8F142
S315080043500101002004E0A4B2A2181A601300401C50
S3150800436080B289B28842F6D30020186001F0DEFBDD
S3150800437034492960AE606F60EF60A5F81480A5F82F
S3150800438012802C8230490988491C2F4A118001F075
S31508004390D1FB0020A9F80000BDE8F18370B505003F
S315080043A00C000020002D04D145F2BF6020800020BB
S315080043B016E001F0BBFBA98A002906D101F0BAFB79
S315080043C045F2C260208000200AE0EE683168E960A4
S315080043D0A98A491EA98201F0ADFB00202080300081
S315080043E070BD70B505000E0014000020002D03D125
S315080043F045F2BF6020801BE0002E03D145F2BE6067
S31508004400208015E001F092FBA98A6A8A914205D3B9
S3150800441001F090FB45F2BA60208009E0E968316056
S31508004420EE60A98A491CA98201F084FB002020803D
S3150800443070BD0021044A11800021018070470000E8
S31508004440E34C00204D454D20D64C002080B50A008F
S31508004450002100F001F801BD30B4002A27D0002859
S3150800446025D00023002403E01B02C9B20B43641CB9
S31508004470042CF9D30425B0FBF5F404FB1504E4B2C7
S31508004480002C08D003E00170401C521E641C002A50
S3150800449001D0042CF7D302E00360001D121F042A82
S315080044A0FAD202E00170401C521E002AFAD130BC32
S315080044B0704770B41300002B01D1012052E0002888
S315080044C001D100204EE0002901D100204AE0012256
S315080044D0181859180425B0FBF5F404FB1504E4B2C2
S315080044E00426B1FBF6F505FB1615EDB2AC4201D173
S315080044F0012500E00025EDB2012D2CD1002C10D0AD
S3150800450008E0401E491E05780E78B54200D0002204
S315080045105B1E641ED2B2012A03D1002B01D0002CE7
S31508004520EFD1D2B2012A16D107E0001F091F04688D
S315080045300D68AC4200D000221B1FD2B2012A01D15D
S31508004540042BF2D207E0401E491E04780D78AC42CF
S3150800455000D000225B1ED2B2012A01D1002BF2D173
S315080045601000C0B270BC704780B52021DFF8C003C8
S3150800457003F03DFC00281CD0DFF8B40303F033FC3D
S31508004580DFF8B0130968002913D0DFF8AC130968FF
S31508004590DFF8A0231268891AFF290ADADFF89813C8
S315080045A009680870DFF890030068401CDFF8881374
S315080045B008604021DFF8780303F019FC002810D0C2
S315080045C040F22661DFF8680303F01EFC00AA00210A
S315080045D0DFF8680300F0B5FABDF80000002800D03F
S315080045E000BF01BD1CB52021DFF8540303F0FFFB13
S315080045F0002815D0D24803F0F6FB040001A9D148DB
S31508004600FFF7CCFE01000C7001A8009000230122E0
S31508004610CD48FFF7B6FDBDF80400002800D000BF5E
S315080046204021C74803F0E3FB00280ED040F226617C
S31508004630C34803F0E9FB01AA0021C44800F081FA47
S31508004640BDF80400002800D000BF13BD1CB520210A
S31508004650BF4803F0CCFB002815D0BD4803F0C3FBC8
S31508004660040001A9B748FFF799FE01000C7001A8DC
S31508004670009000230122B448FFF783FDBDF804002B
S31508004680002800D000BF4021B14803F0B0FB002845
S315080046900ED040F22661AE4803F0B6FB01AA00210F
S315080046A0AC4800F04EFABDF80400002800D000BF60
S315080046B013BD70B584B004000D00A7480078AA2879
S315080046C02BD1012240F22661A14803F05FFB0026A8
S315080046D012E00020ADF8040001A8009002AB002209
S315080046E04FF4FA719B4800F072F9B6B2315D89B29F
S315080046F0974803F074FB761CB6B2ADB2AE42E8D367
S31508004700002240F22661924803F040FB402190487F
S3150800471003F06DFB002835D1F8E74FF480718F4818
S3150800472001F089FA012240F22661854803F02EFB42
S31508004730002612E00020ADF8040001A8009002ABA4
S3150800474000224FF4FA71814800F041F9B6B2315DA2
S3150800475089B27B4803F043FB761CB6B2ADB2AE42D3
S31508004760E8D3002240F22661754803F00FFB40218A
S31508004770734803F03CFB0028F9D04FF48071774862
S3150800478001F05CFA012004B070BD70B584B0040075
S315080047900D004FF48071714801F04DFA012240F284
S315080047A02661674803F0F2FA002612E00020ADF809
S315080047B0040001A8009002AB00224FF4FA71634886
S315080047C000F005F9B6B2315D89B25D4803F007FB22
S315080047D0761CB6B2ADB2AE42E8D3002240F22661EC
S315080047E0574803F0D3FA4021554803F000FB002848
S315080047F0F9D04FF48071594801F020FA012004B02D
S3150800480070BD70B584B004000D00012240F2266127
S31508004810474803F0BBFA002606E0B6B2315D89B216
S31508004820434803F0DCFA761CB6B2ADB2AE420DD2FE
S3150800483001A8009002AB00223221404800F0C7F8D8
S31508004840BDF804000028E8D0002006E0002240F267
S315080048502661374803F09AFA012004B070BD10B5F6
S3150800486084B00400012240F22661314803F08EFA32
S3150800487040F226612E4803F0C7FA05E0217889B28E
S315080048802B4803F0ACFA641C207800280DD001A848
S31508004890009002AB00223221284800F098F8BDF8B3
S315080048A004000028EAD0002006E0002240F2266133
S315080048B01F4803F06BFA012004B010BD38B5040098
S315080048C0002501F033F905001B4804601948046007
S315080048D0280001F02FF9012032BD80B50021C0B2B1
S315080048E0002809D001F022F9010001201C4A1070A5
S315080048F0080001F01FF908E001F018F9010000208E
S31508004900174A1070080001F015F9012002BD80B59C
S31508004910012003F0CFFA002808D000AB00220121BD
S31508004920104802F0C2FA012003F0D6FA01BD0000D1
S3150800493000480040D04C0020CC4C0020444B0020BE
S31508004940003801403C4C0020504A0020604B0020B3
S31508004950004400407C4B00209200002000080140E3
S31508004960E14C0020084C00202DE9F04105000E001E
S3150800497090461C000027DFF838020078002803D08C
S3150800498042F6E160208020E0002D03D145F6C350B1
S3150800499020801AE001F0CAF80700DFF8180228603C
S315080049A0C5F814800020A8616E6015F1080002F0B1
S315080049B023FFDFF804020088401CDFF8FC1108809A
S315080049C0380001F0B7F800202080BDE8F0812DE915
S315080049D0F04389B006000F00914698460024109DC2
S315080049E073480078002804D046F2AE1028800020CC
S315080049F07AE0002E04D145F6C3502880002073E0E3
S31508004A001FFA89F94846002802D0B0F5004F20D190
S31508004A1030686849884221D1B8F1000F02D00020D9
S31508004A20C8F8000001F082F80400706900281AD05E
S31508004A307069401E7061B8F1000F02D0B069C8F8FD
S31508004A4000007669200001F075F800202880300003
S31508004A504AE045F625602880002045E045F6C45022
S31508004A602880002040E05FEA094008D576692000E2
S31508004A7001F060F846F2B0102880300034E04F4864
S31508004A800078002807D0200001F054F846F6635055
S31508004A902880002028E03B000622310000A802F00A
S31508004AA047FE200001F046F802F02AFD01F03EF824
S31508004AB004004348006890F83500002805D002280D
S31508004AC02BD014D303281ED033E0B8F1000F04D03E
S31508004AD03B480068006CC8F800000020288076690A
S31508004AE0200001F027F8300009B0BDE8F083B8F1DE
S31508004AF0000F04D032480068006CC8F8000046F27F
S31508004B00A9102880EBE7B8F1000F02D00020C8F8FA
S31508004B10000047F2D9202880E1E7B8F1000F04D059
S31508004B2027480068006CC8F8000045F6C25028807F
S31508004B30D5E746F62E602880200000F0FBFF00200F
S31508004B40D2E770B505000E001400002D04D145F615
S31508004B50C3502080002019E0B6B23000002808D0E3
S31508004B60B0F5007F05D0B0F5004F02D0B0F5024F82
S31508004B700DD128680F4988420ED103F08EF802003D
S31508004B802300310089B2280000F01CF870BD45F6F4
S31508004B90256020800020F9E745F6C45020800020D3
S31508004BA0F4E70021044A11800021018070470000C3
S31508004BB0E34C002053454D41DC4C0020E84C0020D6
S31508004BC0BC4C00202DE9F04782B004000D00160009
S31508004BD01F005FF0000800F0A9FF804614F10800E6
S31508004BE00189002918D1606910F1010F07D14046E3
S31508004BF000F0A0FF46F6C5503880002033E0606913
S31508004C00401C6061D4F81490A661404600F092FFFB
S31508004C1000203880484626E0A90502D5B0F8089055
S31508004C2001E05FF00109D0F800A00BE0DAF80810FF
S31508004C30DAF804A0009600230022200002F052FEB3
S31508004C40B9F101091FFA89F9B9F1000FEED1D4F8C3
S31508004C501490404600F06EFF280401D402F050FC80
S31508004C60002038804846BDE8F68710B450F8041B83
S31508004C7081B102681218001D50F8043BDC0744BFD6
S31508004C80A9F10104E31852F8044B43F8044B091F31
S31508004C90F9D1EBE710BC7047F8B505000E00140013
S31508004CA00027DFF858020078002803D047F275205D
S31508004CB0208040E0DFF848020078002803D046F656
S31508004CC06350208037E0B6B23000002805D00228AD
S31508004CD003D004281FD008281ED1002D03D147F27F
S31508004CE07E20208027E000F021FF07000120DFF862
S31508004CF01412096881F836002300320092B229009E
S31508004D008048006803F06EF92088002808D038002B
S31508004D1000F010FF0FE0E6E745F6256020800AE080
S31508004D207848006802F0C8FE380000F003FF02F079
S31508004D30E7FB00202080F1BDF8B50024079D6F4EE3
S31508004D403678002E03D047F275202880AFE06C4CE9
S31508004D502478002C03D046F663502880A7E0069CEA
S31508004D6014F00E06B6B23700002F05D0022F03D076
S31508004D70042F17D0082F16D1002B0CD192B2002A77
S31508004D8009D189B2002906D180B2002803D147F299
S31508004D907E2028808BE04FF6E17C14EA0C0F06D1C2
S31508004DA0002705E0F7E745F6256028807FE001271C
S31508004DB0FFB2012F03D145F62560288077E0C4F3BA
S31508004DC00014A4B214F00104E4B2012C1BD0B3F50C
S31508004DD07A7F03D347F27B20288068E092B23C2A88
S31508004DE003DB47F27A20288061E089B23C2903DB9D
S31508004DF047F2792028805AE080B2642814DB47F20B
S31508004E007820288053E089B242F21074A14203DB6D
S31508004E1047F2792028804AE080B2B0F57A7F03DB32
S31508004E2047F27820288042E0374C246880B24FF455
S31508004E30616789B25FF03C0C0CFB01F107FB0010BF
S31508004E4092B210184FF4FA71B1FBF4F1C91801FBCC
S31508004E5004F14FF47A72B1FBF2F104FB0017002F4C
S31508004E6022D000F063FE040001202649096881F873
S31508004E7036002B00320092B239002248006803F04F
S31508004E80B1F82888002803D0200000F053FE0EE071
S31508004E901C48006802F010FE200000F04BFE02F0ED
S31508004EA02FFB0020288002E047F27E202880F1BDF3
S31508004EB010B582B003F0C3FA00AA0021134803F024
S31508004EC027FD0400124800780C21124A01FB002035
S31508004ED002F020FE10480068401E0F4908600E4880
S31508004EE00068002808D10D4800680B49086000AA28
S31508004EF000210B4803F00CFD13BD0000E34C002015
S31508004F00E84C0020BC4C002044BB00086047002049
S31508004F10E54C0020D83E0020B84C0020B44C0020B8
S31508004F201448002038B50C001500FFF798FC20003F
S31508004F30FFF7C4FC00AA00212800FFF7ADFEDFF842
S31508004F40440704680020FFF7B9FC200032BD02E0E0
S31508004F500D220270401C0278002A01D18842F7D33C
S31508004F60704738B50024002500A9DFF81C07FFF7AD
S31508004F7015FA040025004FF4807200212800FFF777
S31508004F806BFA64222900DFF804074068FFF7CAFFB6
S31508004F90040021002800FFF7DAFFB7A1280000F077
S31508004FA047FC002807D000AA2900DFF8DC06FFF72F
S31508004FB018FA012006E000AA2900DFF8CC06FFF758
S31508004FC010FA002032BD70B584B00025002602A96B
S31508004FD0DFF8B406FFF7E2F905002E00002400E02A
S31508004FE0641CE4B2642C2DDAE4B2002C09D002A8C1
S31508004FF0019000200090C823002200210020FFF71E
S315080050009BFE4FF4807200213000FFF725FA6422D8
S315080050103100DFF878068068FFF784FF050029006D
S315080050203000FFF794FFDFF86816300000F000FC48
S315080050300028D5D002AA3100DFF84C06FFF7D1F9CF
S31508005040012006E002AA3100DFF83C06FFF7C9F99D
S31508005050002004B070BD2DE9FE4F002500275FF043
S3150800506000085FF000095FF0000A5FF0000B0024FB
S3150800507002A9DFF81406FFF791F983465C46002675
S3150800508001E00025761CF6B2642E53DAF6B2002E3D
S3150800509009D002A8019000200090C8230022002110
S315080050A00020FFF749FE4FF4807200212000FFF729
S315080050B0D3F964222100DFF8D405C068FFF732FF70
S315080050C0834659462000FFF742FFB9A1200000F0A9
S315080050D0AFFB0028D5D03A224FF48071200000F0AB
S315080050E07FFB871C380003F047FD80462C224FF4CF
S315080050F08071200000F074FB10F10109484603F0A6
S315080051003BFD82465FFA88F8B8F1060F10DB5FFAB6
S315080051108AFABAF1630F0BD06D1CEDB2072DB1DB1D
S3150800512002AA2100DFF86005FFF75BF9012008E015
S315080051300025A7E702AA2100DFF84C05FFF751F979
S315080051400020BDE8FE8F70B584B00025002602A9B0
S31508005150DFF83405FFF722F905002E00002400E0E9
S31508005160641CE4B2642C34DAE4B2002C09D002A838
S31508005170019000200090C823002200210020FFF79C
S31508005180DBFD4FF4807200213000FFF765F96422D9
S315080051903100DFF8F8040069FFF7C4FE05002900AE
S315080051A03000FFF7D4FEDFF8EC14300000F040FBC7
S315080051B0002806D1DFF8E014300000F039FB00289B
S315080051C0CED002AA3100DFF8C004FFF70AF90120A1
S315080051D006E002AA3100DFF8B004FFF702F9002062
S315080051E004B070BD70B584B00025002602A9DFF8AA
S315080051F09804FFF7D3F805002E00002400E0641C8D
S31508005200E4B2642C2DDAE4B2002C09D002A801908D
S3150800521000200090C823002200210020FFF78CFD03
S315080052204FF4807200213000FFF716F9642231002E
S31508005230DFF858044069FFF775FE050029003000BD
S31508005240FFF785FEDFF85414300000F0F1FA002865
S31508005250D5D002AA3100DFF83004FFF7C2F80120E2
S3150800526006E002AA3100DFF82004FFF7BAF80020AA
S3150800527004B070BD000000004F4B000038B5002494
S31508005280002500A9DFF80004FFF788F804002500C8
S315080052904FF4807200212800FFF7DEF86422290007
S315080052A0DFF8E8038069FFF73DFE040021002800C7
S315080052B0FFF74DFEA1A1280000F0BAFA002807D092
S315080052C000AA2900DFF8C003FFF78BF8012006E0E3
S315080052D000AA2900DFF8B003FFF783F8002032BDE3
S315080052E038B50024002500A9DFF89C03FFF756F817
S315080052F0040025004FF4807200212800FFF7ACF85F
S3150800530064222900DFF88403C069FFF70BFE040056
S3150800531021002800FFF71BFE88A1280000F088FA64
S31508005320002807D000AA2900DFF85C03FFF759F820
S31508005330012005E000AA2900D348FFF752F800200B
S3150800534032BD70B582B00025002600A9CE48FFF709
S3150800535025F805002E00002400E0641CE4B2642C45
S315080053601EDA4FF4807200213000FFF775F84FF40B
S31508005370FA623100C548006AFFF7D4FD0500290026
S315080053803000FFF7E4FD6DA1300000F051FA002867
S31508005390E3D000AA3100BC48FFF723F8012005E056
S315080053A000AA3100B848FFF71CF8002076BD0000B7
S315080053B04353510070B584B00025002602A9B248AF
S315080053C0FEF7ECFF05002E00002400E0641CE4B2A2
S315080053D0642C2ADAE4B2002C09D002A80190002035
S315080053E00090C823002200210020FFF7A5FC4FF4F7
S315080053F0807200213000FFF72FF864223100A3489D
S31508005400406AFFF78FFD050029003000FFF79FFD72
S3150800541099A1300000F00CFA0028D7D002AA310072
S315080054209948FEF7DEFF012005E002AA31009648FA
S31508005430FEF7D7FF002004B070BD38B5002400255C
S3150800544000A99148FEF7AAFF040025004FF48072D0
S3150800545000212800FFF700F88C48806AFFF7FFF95B
S315080054608F480078FF2803D18E48FFF7F8F902E045
S315080054708D48FFF7F4F98D48FFF7F1F92000FFF79B
S315080054801DFA00AA002140F6B830FFF705FC7D4852
S3150800549004680020FFF712FA21002800FFF757FDDD
S315080054A08349280000F0C4F9002806D000AA29007C
S315080054B07548FEF796FF012005E000AA2900724804
S315080054C0FEF78FFF002032BD30B585B004000D0011
S315080054D001A8009002AB00224FF47A71754801F0DA
S315080054E0DDF8ADB22A0065A103A801F08BFA67487A
S315080054F0C06AFFF7B4F903A8FFF7B1F960A0FFF790
S31508005500AEF901A8009002AB00224FF47A716A48FE
