S00C0000546573742E7372656378
S31508000000204500203DAE0008BFAC0008C1AC000882
S31508000010C3AC0008C5AC0008C7AC00080000000067
S31508000020000000000000000000000000C9AC000845
S31508000030CBAC00080000000057920008CDAC0008C1
S3150800004059B000085DB0000861B0000865B0000846
S3150800005069B000086DB00008EDAC000871B0000882
S3150800006075B0000879B000087DB0000881B00008B6
S3150800007085B0000889B000088DB0000891B0000866
S3150800008095B0000899B000089DB00008A1B0000816
S31508000090A5B00008A9B00008ADB00008B1B00008C6
S315080000A0B5B00008B9B00008BDB00008C1B0000876
S315080000B0C5B00008C9B00008CDB00008D1B0000826
S315080000C0D5B00008D9B00008DDB00008E1B00008D6
S315080000D0E5B00008D5AC0008DDAC0008E5AC0008C2
S315080000E0E9B00008EDB00008F1B00008F0B585B039
S315080000F0002619E0FFB2682F16D1DFF89C0A0068BF
S31508000100411CDFF8942A1160077000260120DFF8E9
S31508000110801D087002A9DFF8840A03F00DFBBDF8FC
S315080001200800002800D000BFDFF86C0A0068002825
S315080001301AD102A9DFF8680A03F0A6FDDFF8581AF3
S315080001400860DFF8540A0068DFF8581A08604FF4A8
S3150800015080720021DFF84C0A006803F0F3FDBDF851
S315080001600800002800D000BF02A8019003A800904C
S315080001700DF10A0300220021DFF82C0A03F0A8FE7D
S3150800018001000F7802AADFF8240A03F0A0FDDFF8C1
S31508000190200A0078002862D0DFF8F40C00780028DE
S315080001A0A8D0DFF8F4090068411CDFF8EC291160D3
S315080001B00770DFF8E4090068DFF8E8190968401AEB
S315080001C00B2805D1DFF8DC090068807A10F10D06E6
S315080001D0F6B2002EA8D0DFF8C0090068DFF8C41907
S315080001E00968401AF6B2B0429EDBDFF8AC0900682F
S315080001F010F8010C162897D1DFF89C090768F6B2A3
S31508000200B11E89B2DFF89C09006800F02AF917F8D0
S31508000210021CC0B2814287D100BF02AB0022002176
S31508000220DFF8780903F0DDFA02A800900023F6B299
S31508000230320092B2DFF86C090168DFF8580C03F057
S3150800024026FF0020DFF85C1908600020DFF848194F
S3150800025008600020DFF8381C0870002664E7DFF81D
S31508000260300C007800281ED1FFB2682F7FF45CAFEF
S31508000270DFF824090068411CDFF81C2911600770A3
S315080002800026012400250120DFF8041C087002A9B5
S31508000290DFF8080903F050FABDF8080000283FF413
S315080002A043AF00BF40E7DFF8F0080068411CDFF8FD
S315080002B0E82811600770EDB2002D39D1641CE4B24C
S315080002C0062C7FF431AFDFF8DC080068407968282F
S315080002D020D1DFF8D0080068B0F80100DFF8C418AC
S315080002E00968B1F8031080B289B2884204D10125A1
S315080002F080B28608083617E70020DFF8941B0870D6
S31508000300002600240025DFF89C080068DFF8881816
S31508000310086009E70020DFF8781B0870002600242B
S315080003200025DFF880080068DFF86C180860FBE62F
S31508000330F6B2002E3FF4F8AEDFF85C080068DFF886
S3150800034064180968401AF6B2B042FFF6EDAEDFF857
S315080003504808006810F8010C162869D1DFF8380833
S315080003600468F6B2B6F1080189B2DFF83808006801
S31508000370801D00F076F814F8021CC0B2814249D1FB
S3150800038000BF02AB00220021DFF8100803F029FAAB
S31508000390DFF810080068007B032806D0042817D069
S315080003A00A2802D00B2813D024E00020DFF8E8172B
S315080003B00968087002A800900023F6B2320092B2CB
S315080003C0DFF8E0070168DFF8AC0C03F060FE11E027
S315080003D00020DFF8C4170968087002A800900023F7
S315080003E0F6B2320092B2DFF8BC070168DFF8880C73
S315080003F003F04DFE0020DFF8AC1708600020DFF898
S31508000400981708600020DFF8881A0870002600246C
S31508000410002589E6DFF88C070068DFF87C17086096
S315080004200020DFF86C1A08700026002400257BE6F9
S31508000430DFF870070068DFF8601708600020DFF84B
S31508000440501A08700026002400256DE6DFF85407C8
S315080004500068DFF8441708600020DFF8341A0870CF
S31508000460704710B40022002303E09BB21C5CA2185C
S315080004705B1C9BB289B28B42F7D31000C0B210BC8A
S315080004807047000030B583B0002000210022002408
S3150800049000250FE02C004FF480720021280003F09D
S315080004A051FC280003F0FBFF01AA0021DFF8CC0B62
S315080004B004F037F9DFF8C80B0078012840F0D2803D
S315080004C0002C14D101A9DFF8D80603F0DDFB0400DF
S315080004D025004FF480720021280003F033FCBDF894
S315080004E00400002800D000BF280003F0D8FFDFF87A
S315080004F0940B0068DFF8901B0968401A0128C0F2BF
S31508000500AB8001AA0021042004F0B6F9DFF8740BC9
S3150800051004682100280004F00AFB60A1280005F001
S3150800052023F80028B6D1DFF8641B280005F01CF86C
S3150800053000280ED001A800900023621B92B2290061
S31508000540DFF84C0B03F0A3FD0024002003F0A7FFFF
S31508000550B0E7DFF8401B280005F006F8002810D0A1
S315080005602C004FF480720021280003F0EBFB2800D2
S3150800057003F095FF01AA0021DFF81C0B04F0D1F85F
S3150800058098E7DFF8181B280004F0EEFF002810D0C3
S315080005902C004FF480720021280003F0D3FB0020C2
S315080005A004000025002003F07AFF002004F0F0FE86
S315080005B080E7DFF8EC1A280004F0D6FF002810D0F0
S315080005C02C004FF480720021280003F0BBFB0020AA
S315080005D004000025002003F062FF002004F0D8FE86
S315080005E068E7DFF8C01A280004F0BEFF002810D01C
S315080005F02C004FF480720021280003F0A3FB002092
S3150800060004000025002003F04AFF002004F0C0FE85
S3150800061050E7DFF8941A280004F0A6FF002810D047
S315080006202C004FF480720021280003F08BFB002079
S3150800063004000025002003F032FF002004F0A8FE85
S3150800064038E72C004FF480720021280003F07AFB6B
S31508000650280003F024FF2DE701AA0021042004F056
S315080006600BF927E7002C10D04FF4807200212800E0
S3150800067003F068FB01AA2900DFF8240503F027FB2D
S3150800068000240025002003F00AFF002004F001FEE4
S31508000690012004F0FEFD04F0AEFD0BE70A3E000063
S315080006A02DE9FF41002600240020ADF80A005FF07E
S315080006B000080025002705E002AA2100DFF8E0046B
S315080006C003F005FB02A8019003A800900DF10A03A8
S315080006D000220021DFF8B80903F0FAFB0400B4A1F0
S315080006E0200004F041FF10F10108404600F092F89E
S315080006F00700BFB2002FDFD098F80C0000280CD0F6
S31508000700022828D0032827D0042841D00A2823D035
S315080007100B283DD00C28CFD0CEE798F80D0010F066
S315080007200F05DFF888090078EDB2854206D102AADE
S315080007300021DFF87C0903F0F4FF0BE0DFF8740909
S315080007400078EDB2854205D102AA0021DFF86809D2
S3150800075003F0E7FFB0E7AFE702A9DFF8440403F0C8
S3150800076093FA0600002E12D0BFB23A004146300076
S3150800077004F064FF0120BFB2B85502A80090002318
S315080007803A0092B23100DFF8EC0803F080FC93E7F8
S3150800079098F80D000F2101FB00F598F80E000528C2
S315080007A008D1DFF8180905702900C9B2012002F03E
S315080007B053FA2EE0DFF804090078EDB2A84223D0F8
S315080007C002A9DFF8DC0303F05FFA0600002E08D062
S315080007D0BFB23A004146300004F030FF0120BFB2F4
S315080007E0B855DFF8D80805702900C9B2012002F00B
S315080007F033FA02A8009000233A0092B23100DFF8DB
S31508000800780803F044FC04E02900C9B2012002F08C
S3150800081023FA51E770B50400B4F80150B4F80300A0
S31508000820ADB280B2854214D1ADB2AD08ADB22819C9
S315080008308679290089B2A01DFFF713FE864208D1E2
S31508000840ADB22819C079162803D115F10800C0B22F
S3150800085000E0002070BD10B5002405F003F8040080
S31508000860DFF8DC0D0078401CDFF8D41D0870DFF8CF
S31508000870D00D007810F00F00DFF8C41D08702000B6
S3150800088004F0F4FF10BD30B589B0002409E002A8D1
S31508000890019000200090642300220021002004F02B
S315080008A03BF804AD682028706D1C272028706D1C45
S315080008B0002028706D1C272028706D1C00202870C9
S315080008C06D1C682028706D1CC92028706D1CDFF807
S315080008D0740D007828706D1CDFF8680D4078287054
S315080008E06D1CDFF8600D807828706D1CDFF8540DDC
S315080008F0C07828706D1CDFF84C0D007928706D1CC7
S31508000900022028706D1CDFF8380D007850F0700052
S3150800091028706D1CDFF8280D0078DFF8901708702E
S31508000920FFF799FF032028706D1C09210DF11600A9
S31508000930FFF797FD28706D1C162028706D1CDFF8D0
S31508000940400700780028A2D0002500E06D1CDFF8DB
S3150800095030070078002818D0EDB2032D15DA0024E8
S31508000960112104A804F0D6FC0028EFD002A80090B4
S3150800097003AB002241F28831DFF8340703F017FE93
S31508000980BDF808000028E1D10124E4B2002C0AD001
S3150800099002A80190002000900023002202210020D6
S315080009A003F0BAFF7DE7002004F0F2FC79E70000C7
S315080009B02C68000080B5C0B200280CD0DFF8880C7F
S315080009C00078AA2803D1012000F046F80FE001209C
S315080009D000F05FF80BE0DFF8700C0078AA2803D166
S315080009E0002000F039F802E0002000F052F801BDBE
S315080009F01FB511E00120FFF7DDFFBDF80800015D16
S31508000A00200000F0D7F80020FFF7D4FF0DF10A0206
S31508000A102100634803F05BF90DF10A00019003A871
S31508000A20009002AB00220021DFF84C0603F050FAD2
S31508000A300400207B042802D00B28DBD0E6E701203F
S31508000A40FFF7B8FFBDF80800015D200000F0FEFDC5
S31508000A500020FFF7AFFFD9E7E0B5C0B2002811D0F4
S31508000A604FF40051DFF8B80D04F081FF02A8019099
S31508000A70002000904FF4FA7301220021002003F0B1
S31508000A804BFF05E04FF40051DFF8940D04F072FFB8
S31508000A900EBDE0B5C0B2002810D04021DFF8840DA5
S31508000AA004F065FF02A80190002000904FF4167329
S31508000AB000220021002003F02FFF04E04021DFF888
S31508000AC0640D04F057FF0EBDE0B5C0B200280FD084
S31508000AD00421DFF8540D04F04AFF02A80190002013
S31508000AE00090002303220021002003F015FF04E0F4
S31508000AF00421DFF8340D04F03DFF0EBDE0B5C0B2A9
S31508000B0000280FD00221DFF8200D04F030FF02A8DC
S31508000B10019000200090002303220021002003F00A
S31508000B20FBFE04E00221DFF8000D04F023FF0EBDF2
S31508000B30E0B5C0B200280FD00121DFF8EC0C04F0B4
S31508000B4016FF02A80190002000900023032200212E
S31508000B50002003F0E1FE04E00121DFF8CC0C04F0EC
S31508000B6009FF0EBDE0B5C0B200280FD08021DFF81E
S31508000B70B40C04F0FCFE02A80190002000900023AB
S31508000B8003220021002003F0C7FE04E08021DFF8DD
S31508000B90940C04F0EFFE0EBDEC3C0020843A0020D5
S31508000BA0443C0020F03C0020B03A00205C3C002089
S31508000BB00B3D00202DE9F04389B004000D0000200C
S31508000BC00190002000900020ADF80C000020ADF840
S31508000BD00A000026002700208DF808005FF00009AB
S31508000BE05FF000080222DFF8001E03A804F0CAFF1F
S31508000BF00322DFF8F81D01A804F0C4FFBDF80C00B5
S31508000C00002800F0A580012003F058FC0722DFF831
S31508000C10E01D14F1100003F0C2F8012840F09B8093
S31508000C20002633E007220098811D06A804F0AAFFD3
S31508000C300122009810F10D0102A804F0A3FF2B0071
S31508000C40DBB29DF80820009906A800F025F90322D2
S31508000C500098C11C00A804F095FF7F1CBDF80A0087
S31508000C60BFB28742DED30622DFF8881D04A803F048
S31508000C7096F8002803D1019904A800F0BFFE0322C4
S31508000C800198C11C01A804F07DFF761CBDF80C0074
S31508000C90B6B2864253D206220198811D04A804F0F2
S31508000CA071FF0322019810F10C0100A804F06AFFF5
S31508000CB00222019810F112010DF10A0004F062FFF8
S31508000CC00622DFF8301D04A803F069F8002834D19D
S31508000CD0019904A800F0AAFD00282ED10DF10E01F5
S31508000CE0DFF8140D02F0D0FF8046002718E04FF415
S31508000CF080720099404604F045FF98F8160050F0B7
S31508000D00800088F816004FF480720099404604F077
S31508000D1008FF03220098C11C00A804F033FF7F1CBB
S31508000D20BDF80A00BFB28742E1D30DF10E02414673
S31508000D30DFF8C40C02F0CBFFA7E700278EE72A00EE
S31508000D40D2B20021012000F0BBF9002003F0B6FB67
S31508000D5009B0BDE8F083002622E02B00DBB29DF83F
S31508000D600820009906A800F097F82A00D2B2009940
S31508000D70002000F0A5F90622DFF8781C04A803F085
S31508000D800EF8002803D1019904A800F037FE5FF099
S31508000D90010903220198C11C01A804F0F3FE761C80
S31508000DA05FFA89F9B9F1000FCFD1BDF80C00B6B2D8
S31508000DB08642CAD206220198811D04A804F0E2FEE2
S31508000DC00322019810F10C0100A804F0DBFE0222B0
S31508000DD0019810F112010DF10A0004F0D3FE002764
S31508000DE006E003220098C11C00A804F0CBFE7F1C75
S31508000DF0BDF80A00BFB28742CBD207220098811DF0
S31508000E0006A804F0BFFE0122009810F10D0102A801
S31508000E1004F0B8FE072206A914F1100002F0BFFF7D
S31508000E200128DED19DF80800E17B8842D9D1062247
S31508000E30DFF8C01B04A802F0B2FF00288DD1019983
S31508000E4004A800F0F3FC002887D10DF10E01DFF8A5
S31508000E50A80B02F019FF80464FF4807200994046AD
S31508000E6004F090FE98F8160050F0800088F81600F6
S31508000E704FF480720099404604F053FE0DF10E02BD
S31508000E804146DFF8740B02F022FF5FF0010980E7A4
S31508000E90183D0020F83A00202DE9F0478CB00400F0
S31508000EA00D00002600200021ADF80C1000275FF089
S31508000EB0000800218DF808105FF000095FF0000AAD
S31508000EC007A98A4668218AF800101AF1010A8AF8E1
S31508000ED000201AF1010A00210E0006E0F6B2305D84
S31508000EE08AF800001AF1010A761CF6B2072EF5DB1D
S31508000EF001208AF800001AF1010A03208AF8000086
S31508000F001AF1010A1F208AF800001AF1010A902036
S31508000F108AF800001AF1010A01208AF800001AF17D
S31508000F20010A0E2107A8FFF79CFA8AF800001AF1B1
S31508000F30010A16208AF800001AF1010A002604E0C0
S31508000F40FE20F6B204A97054761CF6B2042EF7DB1E
S31508000F50002617E0C0B2C119897BC0B204AA815421
S31508000F60C0B2C119C97CC0B205AA8154401CC0B21E
S31508000F700428EFDB0DF10A023900DFF87C0A02F0DB
S31508000F80A6FE761C5FFA88F8B8F1000F30D1F6B2E3
S31508000F90032E2DDA042104A803F0B9F9102107A8B5
S31508000FA003F0B5F90DF10A00019006A8009003AB0D
S31508000FB000224FF49661DFF8780D02F089FF0700EA
S31508000FC0BDF80A00002805D0F6B2022E01D15FF05E
S31508000FD00008D6E70722B91C200002F0E0FE012827
S31508000FE0C8D15FF00108F87F8DF808000020BEE739
S31508000FF00DF10A01DFF8000A02F046FE81464FF4B9
S3150800100080722900484604F0BDFD5FFA88F8B8F1F9
S31508001010000F0CD199F8160050F0400089F8160018
S315080010204FF480722900484604F07BFD17E0012240
S3150800103002A919F1160004F001FB042204A919F10A
S315080010400E0004F0FBFA042205A919F1180004F0B1
S31508001050F5FA4FF480722900484604F062FD0DF156
S315080010600A024946DFF8900902F031FE0CB0BDE8E5
S31508001070F08700001C3B0020D43A0020F03B0020FB
S315080010800A3D0020F43C0020F83C0020F4AE00089D
S31508001090403B002000AF00080C3C0020C8AF000809
S315080010A0D0AF0008D8AF0008E0AF0008143D002014
S315080010B0B83B0020153D0020D43B0020173D0020FA
S315080010C02DE9F54F8DB00025002006905FF0000948
S315080010D00020ADF81C000020ADF814000020ADF883
S315080010E016000020ADF8000000208DF8080000204A
S315080010F0ADF80A0000270020089000200390002081
S315080011008DF8070000208DF8060000240020ADF8B1
S3150800111012005FF0000A5FF000080020ADF8040036
S3150800112000265FF0000B00208DF80000039104A94B
S31508001130DFF8C40802F0A8FD0500002D00F0C680FF
S3150800114006959DF83400002840F0C88007220398C9
S31508001150811D0BA804F016FD0122039810F10D015C
S315080011600DF1070004F00EFD0422039810F10E019C
S3150800117009A804F007FD0122039810F116010DF1E4
S31508001180060004F0FFFC682028706D1CA946732031
S31508001190A9F8000019F102097320A9F8000019F14D
S315080011A002094D46682028706D1C882028706D1C21
S315080011B0DFF89004007828706D1CDFF88804407802
S315080011C028706D1CDFF87C04807828706D1CDFF8A9
S315080011D07404C07828706D1CDFF8680400792870DC
S315080011E06D1C0B2028706D1CDFF85404007850F035
S315080011F0600028706D1C042028706D1CDFF8400400
S315080012000078DFF8381D0870FFF725FB00202870E6
S315080012106D1C002028706D1C002028706D1C002095
S3150800122028706D1C9DF8070028706D1C002405E0C9
S31508001230A4B20BA8205C28706D1C641CA4B2072CF1
S31508001240F6DB012028706D1C002405E0A4B209A86D
S31508001250205C28706D1C641CA4B2042CF6DB9DF877
S31508001260060028706D1C002028706D1C1C2106982D
S31508001270801DFFF7F6F828706D1C162028706D1C67
S315080012809DF83800002824D05FF0000A01E01AF122
S31508001290010A5FFA8AFABAF1030F11DA24210698CD
S315080012A004F038F804A800900AAB002241F288310D
S315080012B0DFF8900C03F07BF9BDF810000028E6D1A2
S315080012C004AA0699DFF8300702F001FD0FB0BDE861
S315080012D0F08F2421069803F01AF8F1E70222DFF8C6
S315080012E008170DF1160004F04DFC0222DFF8581C11
S315080012F005A804F047FC0322DFF8F01608A804F056
S3150800130041FCBDF814000A2190FBF1F0ADF800008D
S31508001310BDF814000A2190FBF1F201FB12008DF8CA
S3150800132008000027BDF80000ADF80A009DF808007F
S31508001330002804D0BDF80A00401CADF80A000024B5
S3150800134006E003220898C11C08A804F01BFC641CCC
S31508001350BDF81600A4B28442B2D20322089810F14E
S315080013600C0103A804F00EFC0222089810F11201E1
S3150800137007A804F007FC0020ADF8120015E0BDF838
S3150800138004000E21484310F1160189B2069802F0AE
S31508001390BEFF069D03220398C11C03A804F0F2FBB6
S315080013A0BDF81200401CADF81200BDF81200BDF8D9
S315080013B01C108842C5D207220398811D0BA804F089
S315080013C0E1FB0122039810F10D010DF1070004F06D
S315080013D0D9FB0422039810F10E0109A804F0D2FBE8
S315080013E00122039810F116010DF1060004F0CAFB5C
S315080013F0F6B2002E40F0B58001267F1CBDF80A0023
S3150800140001280CD1BDF81480ADF80480BDF804009D
S315080014100E2148430E30800050F0030B36E0BFB271
S31508001420012F0CD15FF00A08ADF80480BDF804005E
S315080014300E2148430E30800050F0030B26E0BDF81D
S315080014400A00BFB2874215D19DF80800002804D1CA
S315080014505FF00A08ADF8048003E09DF80880ADF84F
S315080014600480BDF804000E2148430E30800050F079
S31508001470030B0BE05FF00A08ADF80480BDF8040022
S315080014800E2148430E30800050F0030B6820287068
S315080014906D1CA946A9F800B019F10209A9F800B00F
S315080014A019F102094D46682028706D1C882028709D
S315080014B06D1C6448007828706D1C62484078287056
S315080014C06D1C6048807828706D1C5E48C07828704E
S315080014D06D1C5C48007928706D1C0B2028706D1CEB
S315080014E0BDF80A00012806D15548007850F070006A
S315080014F028706D1C1BE0BFB2012F06D1504800783A
S3150800150050F0500028706D1C11E0BDF80A00BFB2FB
S31508001510874206D14A48007850F0300028706D1C82
S3150800152005E04748007850F0100028706D1C4448C4
S315080015300078DFF8081A0870FFF78DF9042028707C
S315080015406D1CA946BDF80A00A9F8000019F10209A0
S31508001550A9F8007019F102094D469DF80700287090
S315080015606D1C5FF0000A08E05FFA8AFA0BA81AF801
S31508001570000028706D1C1AF1010A5FFA8AFABAF19E
S31508001580070FF1DB012028706D1C5FF0000A08E0E8
S315080015905FFA8AFA09A81AF8000028706D1C1AF171
S315080015A0010A5FFA8AFABAF1040FF1DB9DF8060020
S315080015B028706D1C002028706D1CB8F101081FFAF0
S315080015C088F8B8F1000F7FF4E5AE0026BDF80400F0
S315080015D00E21484310F10E0189B20698801DFEF7C8
S315080015E040FF28706D1C162028706D1C9DF8380069
S315080015F000283FF4C4AE5FF0000A01E01AF1010AC0
S315080016005FFA8AFABAF1030FBFF6C3AEBDF8040053
S315080016100E21484310F1160189B2069803F07AFEA6
S3150800162004A800900AAB002241F28831DFF81409B9
S3150800163002F0BDFFBDF810000028DFD1A9E60000C2
S31508001640163D0020903C0020CA0000202DE9F047F6
S315080016508AB004000D0000200390002002900020AC
S31508001660ADF806000020ADF810000026002700207F
S315080016708DF804005FF000085FF000095FF0000ACB
S315080016800222D9490DF1060004F07CFA0322D74953
S3150800169003A804F077FABDF80600002800F0BD801C
S315080016A0012002F00BFF00261FE05FFA8AFACDF848
S315080016B000A02B00DBB29DF80420029908A800F0D0
S315080016C039FB0622CB4906A802F069FB002803D19C
S315080016D0039906A800F092F95FF00108032203981F
S315080016E0C11C03A804F04EFA761C5FFA88F8B8F114
S315080016F0000F40F08F80BDF80600B6B2864280F033
S31508001700898006220398811D06A804F03BFA032265
S31508001710039810F10C0102A804F034FA0222039887
S3150800172010F1120104A804F02DFA002706E003229E
S315080017300298C11C02A804F025FA7F1CBDF8100007
S31508001740BFB28742CAD207220298811D08A804F0B0
S3150800175019FA0122029810F10D0101A804F012FAF3
S31508001760072208A914F1100002F019FB0128DED19E
S315080017709DF80400E17B8842D9D106229D4906A836
S3150800178002F00DFB002826D1039906A800F04EF8B2
S31508001790002820D10DF11201974802F075FA81460A
S315080017A04FF480720299484604F0ECF999F816004D
S315080017B050F0800089F816004FF480720299484666
S315080017C004F0AFF90DF1120249468B4802F07FFA90
S315080017D05FF0010882E70222029810F1160105A8B7
S315080017E004F0D0F9607B0F2101FB00FAA07B0228E8
S315080017F03FF45BAF03287FF464AF5FFA8AFACDF84B
S3150800180000A02B00DBB29DF80420029908A800F07E
S31508001810B7F956E7002002F051FE0AB0BDE8F08796
S315080018200010014000080140000C01402DE9F04776
S315080018308AB004000D0000260020ADF80A00002733
S315080018405FF0000800205FF000095FF0000ADFF88B
S31508001850AC1C0978AA291AD12078012806D014D3F5
S3150800186003280BD006D304280CD00EE00120FFF77E
S315080018702BF90AE00120FFF741F906E00120FFF7FE
S3150800188057F902E00120FFF76DF90120A9E00DF1F3
S31508001890100A68208AF800001AF1010AA0208AF8BE
S315080018A000001AF1010A002606E0F6B2305D8AF851
S315080018B000001AF1010A761CF6B2062EF5DB0020A6
S315080018C08AF800001AF1010A04208AF800001AF1C1
S315080018D0010A04208AF800001AF1010A90208AF801
S315080018E000001AF1010AA0208AF800001AF1010A7C
S315080018F001208AF800001AF1010A55208AF800002A
S315080019001AF1010A0F2104A8FEF7ABFD8AF80000B8
S315080019101AF1010A16208AF800001AF1010A0026AF
S3150800192008E05FF0000802AA3900DFF8B80502F0FF
S31508001930CEF9761C5FFA88F8B8F1000F2CD1F6B20A
S31508001940032E29DA112104A802F0E1FC02A801906D
S3150800195003A800900DF10A03002240F6B831DFF81B
S31508001960D00302F0B5FA0700BDF80800002805D034
S31508001970F6B2022E01D15FF00008DAE70622B91C9A
S31508001980200002F00CFA0128CDD1B87B03210842C9
S31508001990C7D15FF00108C6E75FFA88F8B8F1000F0B
S315080019A01DD102A9DFF83C0502F06EF981464FF415
S315080019B080722900484604F0E5F801226FA119F162
S315080019C0170003F03BFE4FF480722900484604F0E6
S315080019D0A8F802AA4946DFF80C0502F078F940464D
S315080019E0C0B20AB0BDE8F087A3F01F00A0F01F0040
S315080019F0E8AF0008F0AF0008443C00202DE9F041AC
S31508001A008AB005000C000026DFF8F00A0078AA283C
S31508001A101AD12878012806D014D303280BD006D368
S31508001A2004280CD00EE00020FFF74EF80AE000204C
S31508001A30FFF764F806E00020FFF77AF802E00020D6
S31508001A40FFF790F8012095E004AF682038707F1CF6
S31508001A50A02038707F1C5FF0000807E05FFA88F85E
S31508001A6018F8050038707F1C18F101085FFA88F825
S31508001A70B8F1060FF2DB002038707F1C042038709E
S31508001A807F1C042038707F1C902038707F1CA02093
S31508001A9038707F1C012038707F1C992038707F1C95
S31508001AA00F2104A8FEF7DDFC38707F1C162038705D
S31508001AB07F1C5FF0000808E0002602AA3900DFF85C
S31508001AC0240402F004F918F10108F6B2002E2FD109
S31508001AD05FFA88F8B8F1030F2ADA112104A802F090
S31508001AE016FC02A8019003A800900DF10A03002233
S31508001AF040F6B8318E4802F0EBF90700BDF8080049
S31508001B00002806D05FFA88F8B8F1020F00D100263F
S31508001B10D9E70622B91C280002F041F90128CCD1E0
S31508001B20B87BC0B210F003000228C5D10126C4E76D
S31508001B30F6B2002E1CD102A9DFF8A80302F0A4F819
S31508001B4005004FF480722100280004F01BF80122DA
S31508001B500AA115F1170003F071FD4FF480722100F8
S31508001B60280003F0DEFF02AA2900DE4802F0AFF8DB
S31508001B703000C0B20AB0BDE8F081000001000000E4
S31508001B802DE9F04F8BB004000D001E000027002041
S31508001B90ADF80A005FF000085FF0000900205FF06A
S31508001BA0000A5FF0000B05A98B4668218BF8001028
S31508001BB01BF1010B8BF800201BF1010B00210F0014
S31508001BC006E0FFB2385D8BF800001BF1010B7F1CA5
S31508001BD0FFB2072FF5DB04208BF800001BF1010B81
S31508001BE004208BF800001BF1010B17208BF800006E
S31508001BF01BF1010BA0208BF800001BF1010B012043
S31508001C008BF800001BF1010B55208BF800001BF127
S31508001C10010B0F2105A8FEF724FC8BF800001BF129
S31508001C20010B16208BF800001BF1010B002704E0BE
S31508001C30FE20FFB203A978547F1CFFB2042FF7DBFE
S31508001C40002707E05FF0000902AA4146A54802F00E
S31508001C503EF87F1C5FFA89F9B9F1000F31D1FFB25E
S31508001C60032F2EDA042103A802F051FB112105A83F
S31508001C7002F04DFB02A8019004A800900DF10A039A
S31508001C80002244F620612A4802F022F98046BDF86F
S31508001C900800002805D0FFB2022F01D15FF0000925
S31508001CA0D7E7072218F10201200002F078F8012888
S31508001CB0CAD198F80E0003210842C3D15FF0010982
S31508001CC0C2E702A9874801F0DFFF82464FF4807217
S31508001CD02900504603F056FF5FFA89F9B9F1000F5B
S31508001CE00CD19AF8160050F040008AF816004FF406
S31508001CF080722900504603F014FF10E0012290A1DB
S31508001D001AF1160003F09AFC4FF480722900504627
S31508001D1003F007FF14993000C0B200F09DFF02AA35
S31508001D205146704801F0D3FF0BB0BDE8F08F0000B4
S31508001D30F83A00202DE9F04F8BB004000D001E0084
S31508001D4000270020ADF80A005FF000085FF00009E0
S31508001D5000205FF0000A5FF0000B05A98B4668219A
S31508001D608BF800101BF1010B8BF800201BF1010BFF
S31508001D7000210F0006E0FFB2385D8BF800001BF16A
S31508001D80010B7F1CFFB2072FF5DB04208BF8000040
S31508001D901BF1010B04208BF800001BF1010B172027
S31508001DA08BF800001BF1010BA0208BF800001BF13B
S31508001DB0010B01208BF800001BF1010B99208BF811
S31508001DC000001BF1010B0F2105A8FEF74AFB8BF853
S31508001DD000001BF1010B16208BF800001BF1010B0C
S31508001DE0002704E0FE20FFB203A978547F1CFFB247
S31508001DF0042FF7DB002707E05FF0000902AA414637
S31508001E00384801F064FF7F1C5FFA89F9B9F1000FC1
S31508001E1032D1FFB2032F2FDA042103A802F077FA92
S31508001E20112105A802F073FA02A8019004A80090EF
S31508001E300DF10A03002244F62061DFF8200D02F0B6
S31508001E4047F88046BDF80800002805D0FFB2022FE3
S31508001E5001D15FF00009D6E7072218F10201200038
S31508001E6001F09DFF0128C9D198F80E00C0B280077D
S31508001E70C2D55FF00109C1E702A91A4801F004FFBB
S31508001E8082464FF480722900504603F07BFE5FFAC3
S31508001E9089F9B9F1000F0CD19AF8160050F04000F4
S31508001EA08AF816004FF480722900504603F039FE6E
S31508001EB010E0012225A11AF1160003F0BFFB4FF42A
S31508001EC080722900504603F02CFE14993000C0B2E7
S31508001ED000F0C2FE02AA5146024801F0F8FE0BB015
S31508001EE0BDE8F08F443C00201FB50CE0BDF80800A3
S31508001EF0015D200000F034FE0DF10A022100DFF832
S31508001F00F80D01F0E4FE0DF10A00019003A8009017
S31508001F1002AB00220021DFF8E40D01F0D9FF04002E
S31508001F20207B032802D00A28E0D0E5E7BDF80800A0
S31508001F30015D200000F00CF8DEE70000153D0020EA
S31508001F4000000000D43B0020B3F01F000200000090
S31508001F502DE9F04186B004000D0000260020ADF8FA
S31508001F60060000200090002004905FF00008607BC7
S31508001F700F2101FB00F7A07B02280CD0032800F0F4
S31508001F80DB80062800F01981072800F04A810C2812
S31508001F9000F08681B6E1A07CDFF8641D0870607CDD
S31508001FA0DFF8601D0870207CDFF85C1D0870E07B98
S31508001FB0DFF8581D0870B4F81300DFF8541D0880C0
S31508001FC01121DFF8500D01F0B7FE062102A801F035
S31508001FD0B3FEA27CCDA102A804F0D2F802A9DFF8CC
S31508001FE0340D03F018FACAA1DFF8280D03F013FA26
S31508001FF0062102A801F0A0FE627CC4A102A804F092
S31508002000BFF802A9DFF80C0D03F005FAC0A1DFF846
S31508002010040D03F000FA062102A801F08DFE227CC9
S31508002020BAA102A804F0ACF802A9DFF8E80C03F09C
S31508002030F2F9B7A1DFF8DC0C03F0EDF9062102A8E6
S3150800204001F07AFEE27BB1A102A804F099F802A990
S31508002050DFF8C00C03F0DFF90821DFF8BC0C01F04B
S315080020606BFE062102A801F067FEB4F81320A7A1AB
S3150800207002A804F085F8A7A1DFF89C0C03F0CBF9B9
S3150800208002A9DFF8940C03F0C6F9A3A1DFF8880CBF
S3150800209003F0C1F901A9DFF8600C01F0F5FD0400B1
S315080020A04FF48072DFF8B81D200003F06BFD112293
S315080020B0DFF8601C14F1500003F0C0FA0822DFF8BC
S315080020C0581C14F1700003F0B9FA0122DFF8301C2D
S315080020D014F16F0003F0B2FA0122DFF8281C14F19C
S315080020E06E0003F0ABFA0122DFF81C1C14F16D0038
S315080020F003F0A4FA0122DFF8141C14F16C0003F0B3
S315080021009DFA0222DFF8081C14F17E0003F096FA05
S315080021104FF48072DFF8481D200003F002FD01AA83
S315080021202100DFF8D40B01F0D2FD3900C9B228002E
S31508002130C0B200F091FDE5E00521DFF8280D01F0B9
S31508002140FBFDE07BDFF81C1D0870207CDFF8141D02
S315080021504870607CDFF80C1D8870A07CDFF8041DD1
S31508002160C870E07CDFF8FC1C087101A9DFF8880B51
S3150800217001F08AFD04004FF48072DFF8E41C2000A9
S3150800218003F000FD0522DFF8DC1C14F1800003F0E3
S3150800219055FA4FF48072DFF8C81C200003F0C1FC22
S315080021A001AA2100DFF8500B01F091FD3900C9B2F0
S315080021B02800C0B200F050FDA4E014F1190000F0A8
S315080021C0F7FA009014F11201009800F0A7F880467B
S315080021D000987FF07F41884222D0E07F00280DD109
S315080021E07FF07F40804503D04146009800F088F98B
S315080021F03900C9B22800C0B200F02EFDE07F0128E0
S315080022000ED17FF07F40804504D114F11201009869
S3150800221000F0BAF83900C9B22800C0B200F01CFDB7
S3150800222070E0E07BAA2825D10222DFF83C1C0DF1DC
S31508002230060003F0A7FC0322DFF8301C00A803F011
S31508002240A1FC00260BE003220098C11C04A803F099
S3150800225099FC009800F05DFB04980090761CBDF888
S315080022600600B6B28642EED33900C9B22800C0B21B
S3150800227000F0F2FCE07B552811D114F1100000F0B3
S3150800228097FA7FF07F41884203D114F1100000F0DD
S31508002290C1FA3900C9B22800C0B200F0DDFC31E04D
S315080022A0E07BAA2802D1AA2094490870E07BFF287F
S315080022B002D1FF209149087001A9DFF83C0A01F014
S315080022C0E3FC04004FF48072DFF8941B200003F04F
S315080022D059FC0122894914F1C00003F0AFF94FF403
S315080022E08072DFF87C1B200003F01BFC01AA21008A
S315080022F0DFF8040A01F0EBFC3900C9B22800C0B2C5
S3150800230000F0AAFC06B0BDE8F081000025640000D4
S315080023102E0000002C0000000D00000030B585B02E
S3150800232005000C00002000900020ADF804000222F1
S3150800233015F1120101A803F025FC032215F10C0181
S3150800234000A803F01FFC002506E003220098C11C24
S3150800235000A803F017FC6D1CBDF80400ADB2854259
S315080023600ED207220098811D02A803F00BFC072253
S3150800237002A9200001F013FD0128E6D1009801E02A
S315080023807FF07F4005B030BD70B586B004000D0003
S31508002390002002900020019000260020ADF80000E1
S315080023A00020ADF8020000200390022214F1120169
S315080023B000A803F0E7FB0222DFF8B41A0DF10200C9
S315080023C003F0E0FB032214F10F0102A803F0DAFB85
S315080023D0BDF80000401CADF80000BDF80200401C26
S315080023E0ADF8020003F02BFD019007220198811D2C
S315080023F0280003F068FB0122019810F10D01E81E80
S3150800240003F061FB0422019810F10E0103A803F002
S315080024105AFB0222019810F1160103A803F053FB98
S3150800242004A9DFF8D40801F02FFC060002987FF013
S315080024307F4188421ED1032214F10C0101A803F042
S3150800244042FB032214F10F0101A803F03CFB4FF4F1
S3150800245080722100300003F095FB022200A916F1D4
S31508002460120003F0EBF84FF480722100300003F0FD
S3150800247058FB24E04FF480722100300003F082FB01
S31508002480032201A916F10F0003F0D8F8022200A9C9
S3150800249016F1120003F0D2F84FF4807221003000D2
S315080024A003F03FFB03220298C11C01A803F00BFBB3
S315080024B00322019810F1120102A803F004FB4FF45D
S315080024C08072DFF89C19300003F05CFB02220DF1E4
S315080024D0020116F1B30003F0B1F84FF48072DFF889
S315080024E08019300003F01DFB04AA3100DFF8080844
S315080024F001F0EDFB019806B070BD0000CA0000208F
S315080025007FB504000D0000200290002001900026EF
S315080025100020ADF800000020ADF80200022214F1F8
S31508002520120100A803F02EFB0222DFF844190DF170
S31508002530020003F027FB0322E91C02A803F022FB92
S31508002540032215F1120101A803F01CFBBDF80000D7
S31508002550401EADF80000BDF80200401EADF80200AE
S31508002560280003F0CCFC03A9DFF88C0701F08CFBEC
S315080025700600BDF80000002833D14FF48072210010
S31508002580300003F0FFFA032202A916F10C0003F04B
S3150800259055F8022200A916F1120003F04FF803229B
S315080025A001A916F10F0003F049F84FF480722100D3
S315080025B0300003F0B6FA4FF48072DFF8A418300042
S315080025C003F0E0FA02220DF1020116F1B30003F05E
S315080025D035F84FF48072DFF88818300003F0A1FA56
S315080025E0DDE001987FF07F41884205D002987FF0B0
S315080025F07F41884240F0898001987FF07F41884278
S315080026003ED14FF480720299300003F0BBFA0322E0
S3150800261001A916F1120003F011F84FF4807202991D
S31508002620300003F07EFA4FF480722100300003F088
S31508002630A9FA032202A916F10C0002F0FFFF0222F2
S3150800264000A916F1120002F0F9FF4FF4807221007A
S31508002650300003F066FA4FF48072DFF80418300091
S3150800266003F090FA02220DF1020116F1B30002F00E
S31508002670E5FF4FF48072DFF8E817300003F051FAEF
S3150800268002987FF07F41884240F089804FF480723B
S315080026900199300003F076FA032202A9F01C02F031
S315080026A0CDFF4FF480720199300003F03AFA4FF4E7
S315080026B080722100300003F065FA032201A916F1A1
S315080026C00F0002F0BBFF022200A916F1120002F069
S315080026D0B5FF4FF480722100300003F022FA4FF460
S315080026E08072DFF87C17300003F04CFA02220DF1F5
S315080026F0020116F1B30002F0A1FF4FF48072DFF871
S315080027006017300003F00DFA49E04FF48072019922
S31508002710300003F037FA032202A9F01C02F08EFFFC
S315080027204FF480720199300003F0FBF94FF4807280
S315080027300299300003F026FA032201A916F11200C5
S3150800274002F07CFF4FF480720299300003F0E9F939
S315080027504FF480722100300003F014FA022200A917
S3150800276016F1120002F06AFF4FF480722100300061
S3150800277003F0D7F94FF48072DFF8E416300003F05F
S3150800278001FA02220DF1020116F1B30002F056FF1A
S315080027904FF48072DFF8C816300003F0C2F903AAB6
S315080027A03100DFF8540501F092FA280004B070BD34
S315080027B030B585B00400002000900222DFF8A81684
S315080027C001A803F0DFF90322DFF8A01600A803F03A
S315080027D0D9F9002506E003220098C11C00A803F0D9
S315080027E0D1F96D1CBDF80400ADB285420ED20622A1
S315080027F00098811D02A803F0C5F9062202A9200047
S3150800280001F0CDFA0128E6D1009801E07FF07F407B
S3150800281005B030BD30B585B0040000200290002018
S31508002820009000250020ADF804000020ADF80C004B
S315080028300222DFF8341601A803F0A4F90322DFF810
S31508002840E81C02A803F09EF9BDF80400401CADF888
S31508002850040003F0F4FA009006220098811D200077
S3150800286003F031F90222009810F1120103A803F0CF
S315080028702AF90DF10601DFF8800401F005FA0500D2
S315080028804FF48072DFF8D815280003F07BF9029818
S315080028907FF07F41884212D1032200A915F1A000DA
S315080028A002F0CCFE022201A915F1A30002F0C6FE31
S315080028B0032200A915F1A50002F0C0FE18E00222C5
S315080028C001A915F1A30002F0B9FE032200A915F12A
S315080028D0A50002F0B3FE03220298C11C00A803F06B
S315080028E0F2F80322009810F1140102A803F0EBF89D
S315080028F04FF48072DFF86815280003F012F90DF11D
S3150800290006022900DFF8F00301F0E1F9009805B0A6
S3150800291030BD70B586B004000020ADF80200002076
S3150800292003900020049000200290002001900020CF
S31508002930ADF8000000250026022214F112010DF15F
S31508002940020003F01FF9032214F10C0103A803F097
S3150800295019F90322E11C02A803F014F9032214F161
S31508002960140101A803F00EF90222DFF8FC1400A8EE
S3150800297003F008F9BDF80000401EADF8000000207D
S3150800298005000CE003220398C11C04A803F0FAF81A
S3150800299003992000FFF7B4FD049803906D1CBDF859
S315080029A00200ADB28542EDD3200003F0A8FA05A9CE
S315080029B0DFF8C00401F068F90600BDF80000002839
S315080029C020D14FF48072DFF89814300003F0DAF85B
S315080029D0032202A916F1A00002F030FE022200A985
S315080029E016F1A30002F02AFE032201A916F1A5009A
S315080029F002F024FE4FF48072DFF86414300003F00E
S31508002A0090F8A2E001987FF07F41884204D00298AE
S31508002A107FF07F41884261D101987FF07F418842EB
S31508002A202BD14FF480720299300003F0ABF80322E1
S31508002A3001A916F1140002F001FE4FF48072029902
S31508002A40300003F06EF84FF48072DFF8141430008B
S31508002A5003F098F8032202A916F1A00002F0EEFD91
S31508002A60022200A916F1A30002F0E8FD4FF48072D5
S31508002A70DFF8EC13300003F054F802987FF07F413A
S31508002A80884262D14FF480720199300003F07AF8D7
S31508002A90032202A9F01C02F0D1FD4FF480720199BD
S31508002AA0300003F03EF84FF48072DFF8B4133000BC
S31508002AB003F068F8022200A916F1A30002F0BEFD91
S31508002AC0032201A916F1A50002F0B8FD4FF48072A1
S31508002AD0DFF88C13300003F024F836E04FF48072E8
S31508002AE00199300003F04EF8032202A9F01C02F007
S31508002AF0A5FD4FF480720199300003F012F84FF4E7
S31508002B0080720299300003F03DF8032201A916F1FC
S31508002B10140002F093FD4FF480720299300003F01E
S31508002B2000F84FF48072DFF83813300003F02AF803
S31508002B30022200A916F1A30002F080FD4FF480726C
S31508002B40DFF81C13300002F0ECFF05AA3100DFF8AD
S31508002B50240301F0BCF8200006B070BDF83A002046
S31508002B6080B50A00417B0F235943837B022B08D08B
S31508002B70032B0CD0062B10D0072B17D00C2B1BD0F1
S31508002B801FE0C9B21000C0B200F056FC19E0C9B285
S31508002B901000C0B200F0F5FB13E00B00DBB2D2B2B6
S31508002BA010F11001C07B00F067F90AE0C9B2100005
S31508002BB0C0B200F0B3F804E0C9B21000C0B200F029
S31508002BC0B5FC01BDE0B51FE04FF40071DFF8780AE7
S31508002BD002F0CDFE02A801900020009000230122F9
S31508002BE00021002001F098FE4FF40071DFF8580A22
S31508002BF002F0C0FE02A801900020009000230122E6
S31508002C000021002001F088FEDFF8400A007800283D
S31508002C10DAD04FF40071DFF8300A02F0A8FE02A8F5
S31508002C200190002000904FF4FA7300220021002042
S31508002C3001F072FE4FF40071DFF80C0A02F09AFEFA
S31508002C4002A80190002000904FF4FA730022002198
S31508002C50002001F061FED7E730B585B0040000AD6D
S31508002C60682028706D1C272028706D1C002028708D
S31508002C706D1C272028706D1C002028706D1C68208C
S31508002C8028706D1C802028706D1C76480078287086
S31508002C906D1C7448407828706D1C724880782870BE
S31508002CA06D1C7048C07828706D1C6E4800792870B5
S31508002CB06D1C002028706D1C51F0600028706D1C7A
S31508002CC0012028706D1C09210DF10600FDF7C9FBCE
S31508002CD028706D1C162028706D1CE4B2002C04D0D8
S31508002CE0112100A802F016FB03E0112100A801F04B
S31508002CF00EFB05B030BD0000443C00201C3B002004
S31508002D00C6000020C7000020C8000020C900002017
S31508002D10C40000206C000020B4000020F0B585B087
S31508002D2004000F000DF10201524800F0ADFF060045
S31508002D30002E00F09380350003224C4901A802F0CA
S31508002D4021FF0222DFF8EC1600A802F01BFF68201C
S31508002D503070761CBDF80000062148430930800013
S31508002D6050F003003080B61CBDF800000621484329
S31508002D700930800050F003003080B61C682030709F
S31508002D80761C88203070761C364800783070761CA1
S31508002D90344840783070761C324880783070761C1B
S31508002DA03048C0783070761C2E4800793070761C12
S31508002DB00A203070761C57F060003070761C0720A9
S31508002DC03070761C00270FE0C0B202A9415C317052
S31508002DD0761C401CC0B20628F6DB03220198C11CEB
S31508002DE001A802F0CFFE7F1CBDF80000BFB28742E3
S31508002DF007D206220198811D02A802F0C3FE002010
S31508002E00E8E7BDF800000621484310F1090189B238
S31508002E10A81DFDF726FB3070761C16203070761C30
S31508002E20E4B2002C0AD0BDF800000621484310F190
S31508002E30110189B2280002F06DFA09E0BDF8000018
S31508002E400621484310F1110189B2280001F05FFA02
S31508002E500DF102022900074800F039FF05B0F0BD60
S31508002E6000F01F00903C0020A3F01F00A0F01F00F8
S31508002E70B3F01F00443C00202DE9FF4F8BB05FF0F4
S31508002E80000A5FF00008002500265FF0000B5FF0DF
S31508002E9000090020ADF8000000270222DFF894158B
S31508002EA00DF10A0002F06EFE0222DFF8A81704A848
S31508002EB002F068FE0322DFF8A01703A802F062FEFC
S31508002EC0BDF80A00002800F059820DF11A01DFF852
S31508002ED08C0700F0D9FE0400002C00F04F82059400
S31508002EE00722DFF87C170C9800F059FF012840F0FC
S31508002EF07081BDF810000A2190FBF1F0BDF81010A2
S31508002F000A2291FBF2F302FB13118DF802105FF00F
S31508002F100008ADF808009DF80200002804D0BDF8A6
S31508002F200800401CADF80800002506E003220398B7
S31508002F30C11C03A802F026FE6D1CBDF80A00ADB23E
S31508002F40854280F0158206220398811D09A802F0A1
S31508002F5019FE0322039810F10C0101A802F012FED3
S31508002F600222039810F112010DF1120002F00AFE76
S31508002F70002611E0BDF800001121484310F11201A6
S31508002F8089B2059801F0C3F9059C03220198C11C72
S31508002F9001A802F0F7FD761CBDF81200B6B286420B
S31508002FA0C4D207220198811D07A802F0EBFD012271
S31508002FB0019810F10D010DF1030002F0E3FD012265
S31508002FC0019810F1150106A802F0DCFDFFB2002FEA
S31508002FD040F0A880012718F1010868202070641CB9
S31508002FE0BDF8080001280CD1BDF81090ADF8009086
S31508002FF0BDF80000112148430A30800050F0030A4A
S3150800300039E01FFA88F8B8F1010F0CD15FF00A0908
S31508003010ADF80090BDF80000112148430A30800041
S3150800302050F0030A27E0BDF808001FFA88F8804523
S3150800303015D19DF80200002804D15FF00A09ADF801
S31508003040009003E09DF80290ADF80090BDF80000EE
S31508003050112148430A30800050F0030A0BE05FF064
S315080030600A09ADF80090BDF80000112148430A305E
S31508003070800050F0030AA4F800A0A41CA4F800A03D
S31508003080A41C68202070641C88202070641CDFF84B
S31508003090C00500782070641CDFF8B40540782070FD
S315080030A0641CDFF8AC0580782070641CDFF8A00586
S315080030B0C0782070641CDFF8980500792070641CBD
S315080030C00A202070641CBDF80800012806D19DF866
S315080030D0380050F060002070641C1CE01FFA88F865
S315080030E0B8F1010F06D19DF8380050F04000207065
S315080030F0641C10E0BDF808001FFA88F8804506D160
S315080031009DF8380050F020002070641C03E09DF8FC
S3150800311038002070641C06202070641C9DF82C0062
S315080031202070641C00202070641C00202070641C21
S315080031305FF0000B08E05FFA8BFB07A81BF800009E
S315080031402070641C1BF1010B5FFA8BFBBBF1070FA8
S31508003150F1DB5FF0000B08E05FFA8BFB09A81BF8B0
S3150800316000002070641C1BF1010B5FFA8BFBBBF19E
S31508003170060FF1DB00202070641C01202070641CFF
S31508003180B9F101091FFA89F9B9F1000F7FF4FDAE0B
S315080031900027BDF800001121484310F10A0189B241
S315080031A00598801DFDF75DF92070641C16202070B7
S315080031B0641C9DF8340000283FF4DCAEBDF800001E
S315080031C01121484310F1120189B2059802F0A2F8BC
S315080031D0DAE6002530E003220198C11C01A802F0B6
S315080031E0D1FC761CBDF81200B6B2864223D207225D
S315080031F00198811D07A802F0C5FC0122019810F16B
S315080032000D010DF1030002F0BDFC072207A90C9879
S3150800321000F0C5FD0128DED19DF803009DF82C10AD
S315080032208842D8D10122019810F1150106A802F0AA
S31508003230A9FC5FF001086D1C5FFA88F8B8F1000F69
S315080032401BD1BDF80A00ADB2854216D206220398F4
S31508003250811D09A802F096FC0322039810F10C01BF
S3150800326001A802F08FFC0222039810F112010DF159
S31508003270120002F087FC0026B4E75FFA88F8B8F176
S31508003280000F75D068202070641C6F202070641CA5
S3150800329000202070641C6F202070641C00202070A1
S315080032A0641C68202070641C88202070641CDFF869
S315080032B0A00300782070641CDFF89403407820701F
S315080032C0641CDFF88C0380782070641CDFF88003A8
S315080032D0C0782070641CDE4800792070641C0A20BF
S315080032E02070641C9DF8380050F060002070641C43
S315080032F006202070641C9DF82C002070641C002099
S315080033002070641C00202070641C002505E0ADB206
S3150800331007A8285C2070641C6D1CADB2072DF6DB6F
S31508003320002505E0ADB209A8285C2070641C6D1C58
S31508003330ADB2062DF6DB00202070641C012020703B
S31508003340641C1B210598801DFDF78BF82070641CF2
S3150800335016202070641C9DF83400002804D0232110
S31508003360059801F0D7FF03E02321059800F0CFFF69
S315080033700DF11A020599B94800F0A9FC0FB0BDE88D
S31508003380F08FF8B504000D0000A9B44800F07CFCE5
S315080033900700002F4DD03E00682038707F1C27207C
S315080033A038707F1C002038707F1C272038707F1CDF
S315080033B0002038707F1C682038707F1C8820387081
S315080033C07F1CA348007838707F1CA1484078387065
S315080033D07F1C9F48807838707F1C9D48C07838705D
S315080033E07F1C9B48007938707F1C0A2038707F1C28
S315080033F055F0600038707F1C032038707F1C092147
S31508003400B01DFDF72EF838707F1C162038707F1C0B
S31508003410E4B2002C04D01121300001F07BFF03E058
S315080034201121300000F073FF00AA31008B4800F02C
S315080034304EFCF1BDA3F01F002DE9F04182B0040057
S315080034400D00002700265FF0000800A9834800F059
S315080034501BFC0700002F65D03E00682038707F1CD3
S315080034603F2038707F1C002038707F1C3F20387042
S315080034707F1C002038707F1C682038707F1C8820CD
S3150800348038707F1C7248007838707F1C7048407806
S3150800349038707F1C6E48807838707F1C6C48C078FE
S315080034A038707F1C6A48007938707F1C0A2038708B
S315080034B07F1C55F0600038707F1C022038707F1C16
S315080034C06848007838707F1C6748007838707F1C19
S315080034D06648007838707F1C6548007838707F1C0D
S315080034E0B84664480088A8F8000018F1020847465C
S315080034F00F21B01DFCF7B5FF38707F1C16203870F9
S315080035007F1CE4B2002C04D01721300001F002FF22
S3150800351003E01721300000F0FAFE00AA31004F48F8
S3150800352000F0D5FBBDE8F381A5F01F002DE9F041B9
S3150800353082B004000D00002700265FF0000800A9ED
S31508003540464800F0A1FB0700002F51D03E00682036
S3150800355038707F1C2B2038707F1C002038707F1C29
S315080035602B2038707F1C002038707F1C682038702C
S315080035707F1C882038707F1C3548007838707F1C7F
S315080035803348407838707F1C3148807838707F1C03
S315080035902F48C07838707F1C2D48007938707F1CFA
S315080035A00A2038707F1C55F0600038707F1C0C208C
S315080035B038707F1C3048007838707F1C0A21B01D8F
S315080035C0FCF74FFF38707F1C162038707F1CE4B25A
S315080035D0002C04D01221300001F09CFE03E01221D9
S315080035E0300000F094FE00AA31001C4800F06FFB82
S315080035F0BDE8F38100B585B002A8019003A8009044
S315080036004FF48473002201211C4802F006FE02A82A
S31508003610019000200090C82300220021002001F01C
S315080036207BF94FF48041164802F096F90028E3D159
S315080036304FF40041134802F09AF94FF4005110482C
S3150800364002F098F9D8E70000000C01400B3D002075
S31508003650903C0020B3F01F00A0F01F00443C00205F
S31508003660E8AF0008C6000020C7000020C8000020F8
S31508003670C9000020C4000020CA000020283C002001
S3150800368000100140000801402DE9F84306000F002C
S315080036909046994600200B9DDFF8D4140978002936
S315080036A003D047F24330288038E0002E03D145F690
S315080036B0C350288032E0089CA4B2200001282FD0ED
S315080036C0022835D1B9F1000F03D147F240302880DE
S315080036D024E002F0C7F8012186F82A10DFF89414CE
S315080036E031607760C6F820800021B1610021F16160
S315080036F0C6F8249034850999B1600A99F1600021C9
S31508003700316100217161DFF870140988491CDFF8FE
S315080037106824118002F0AAF800202880BDE8F18309
S31508003720B8F1000F03D147F23F302880F6E7D0E71B
S3150800373045F625602880F1E738B505000C00DFF866
S3150800374030040078002804D047F243302080002057
S3150800375046E0002D04D147F24230208000203FE0A9
S315080037602868DFF81014884204D045F6C450208033
S31508003770002035E000A803F0CAF995F82A000028C9
S315080037801ED0022803D010D303280ED020E028002C
S3150800379000F071F90021280000F005F900A803F0EF
S315080037A0E2F900202080012019E00021280000F01D
S315080037B0FAF800A803F0D7F90020208001200EE0CF
S315080037C000A803F0D0F947F23D302080002006E03B
S315080037D000A803F0C8F947F2413020800020C0B2A3
S315080037E032BDF8B505000F0016001C00DFF880038F
S315080037F00078002804D047F243302080002067E094
S31508003800002D04D147F242302080002060E028686D
S31508003810DFF86013884204D045F6C45020800020A3
S3150800382056E000A803F073F995F82A0000283FD05F
S31508003830022803D034D3032832D041E0280000F010
S315080038401AF900202080BFB2002F20D0032F02D003
S31508003850042F10D01CE0AA681000002803D0E968DD
S315080038602800904702E047F24430208000A803F081
S315080038707AF901202BE0AA681000002803D031004D
S315080038802800904702E047F244302080EEE7EDE753
S3150800389000A803F068F945F625602080002017E0A7
S315080038A000A803F060F947F24930208001200EE0B5
S315080038B000A803F058F947F23D302080002006E0C2
S315080038C000A803F050F947F2413020800020C0B22A
S315080038D0F2BD00B589B0AA490968002908D0A949E6
S315080038E00968A74A1268B1FBF2F1A74A116006E017
S315080038F0A44909680A22B1FBF2F1A34A1160A24958
S315080039000968A24A116000219C4A11600021A04A58
S31508003910116000210AE089B29E4A12EBC102002317
S3150800392093800023D38000231360491C9A4A128887
S3150800393089B29142EFD399490968002903D147F220
S31508003940473101802DE096490968964A12689142E6
S3150800395003D247F24831018023E0934909781F29A9
S3150800396003D347F2463101801BE008900B200790ED
S3150800397000200690002005900020049088480068E2
S3150800398003908A4800680290844800680190864837
S315080039900078009000230FF22D128549854803F020
S315080039A00DFC09B000BD10B4022280F82A2089B2A5
S315080039B0012905D1416A714A1268511881610DE0E1
S315080039C0016A002905D1416A6C4A12685118816159
S315080039D004E0016A694A12685118816181696E4A70
S315080039E01288B1FBF2F302FB131189B2694A12EB92
S315080039F0C1010A68002A07D1002202610022426139
S31508003A000860012088802EE082695C4B1B68D21A08
S31508003A10C2610B6805E05A69426103611061586129
S31508003A200023002B1CD09A69544C2468121BDA61B7
S31508003A30DA69C469A2420AD21A69002A01D01B6946
S31508003A40EFE700220261436118610023E9E75A693A
S31508003A50002AE0D100224261036158610860DFE76D
S31508003A608888401C8880C8888A88904201D28888BD
S31508003A70C88010BC70478169474A1288B1FBF2F3C7
S31508003A8002FB131189B2434A12EBC1010A6882424A
S31508003A9006D102690A60002A08D00023536105E0AE
S31508003AA0426903691361002B00D05A61012280F82C
S31508003AB02A2000220261002242618888401E8880EE
S31508003AC070470000F0B583B00BE003F0D6FE041B88
S31508003AD000A803F048F82E480068A04201D22C48F6
S31508003AE0046000AB01AA0021002003F097FC050042
S31508003AF000A803F00CF803F0C0FE04001F48006895
S31508003B00401C1E4908601D48006823490988B0FB07
S31508003B10F1F201FB120080B21E4911EBC0000668E3
S31508003B20002700E00127FFB2002FCED1002EF9D0E2
S31508003B30356912480068B169884216D13000FFF726
S31508003B409AFF308D022804D101213000FFF72BFFA0
S31508003B5002E0032086F82A00B2681000002802D086
S31508003B60F168300090472E00DDE70127DBE700000B
S31508003B700C3D0020544D5220083D0020D83C002022
S31508003B803CB0000824B00008DC3C0020E03C0020E3
S31508003B90D43C002084390020DE9B000840B0000891
S31508003BA048B0000820B00008179C000844B0000878
S31508003BB0BCAD0008483800202DE9F84305000E0082
S31508003BC0170098460020DDF82490584909780029FE
S31508003BD004D045F2B960A9F8000053E0002F04D1DB
S31508003BE045F2BB60A9F800004CE01FFA88F8B8F166
S31508003BF0020F04DA45F2BC60A9F8000042E0089C0E
S31508003C00A4B2042C04D245F2C160A9F8000039E038
S31508003C10032000280FD0074204D045F2BB60A9F85C
S31508003C2000002FE0210089B2014204D045F2C160AC
S31508003C30A9F8000026E03B003A00B8F1010100208F
S31508003C4004E0A4B2A2181A601300401C80B289B21C
S31508003C508842F6D30020186001F004FE3449296032
S31508003C60AE606F60EF60A5F81480A5F812802C820C
S31508003C7030490988491C2F4A118001F0F7FD0020B8
S31508003C80A9F80000BDE8F18370B505000C00002016
S31508003C90002D04D145F2BF602080002016E001F017
S31508003CA0E1FDA98A002906D101F0E0FD45F2C260CE
S31508003CB0208000200AE0EE683168E960A98A491E7A
S31508003CC0A98201F0D3FD00202080300070BD70B5B8
S31508003CD005000E0014000020002D03D145F2BF6038
S31508003CE020801BE0002E03D145F2BE60208015E03F
S31508003CF001F0B8FDA98A6A8A914205D301F0B6FD9A
S31508003D0045F2BA60208009E0E9683160EE60A98A68
S31508003D10491CA98201F0AAFD0020208070BD00215F
S31508003D20044A118000210180704700000C3D0020E4
S31508003D304D454D20FE3C002080B50A00002100F0CC
S31508003D4001F801BD30B4002A27D0002825D0002369
S31508003D50002403E01B02C9B20B43641C042CF9D3EC
S31508003D600425B0FBF5F404FB1504E4B2002C08D0D6
S31508003D7003E00170401C521E641C002A01D0042C6A
S31508003D80F7D302E00360001D121F042AFAD202E0EC
S31508003D900170401C521E002AFAD130BC704770B41C
S31508003DA01300002B01D1012052E0002801D1002088
S31508003DB04EE0002901D100204AE0012218185918BE
S31508003DC00425B0FBF5F404FB1504E4B20426B1FBA4
S31508003DD0F6F505FB1615EDB2AC4201D1012500E05A
S31508003DE00025EDB2012D2CD1002C10D008E0401E84
S31508003DF0491E05780E78B54200D000225B1E641E67
S31508003E00D2B2012A03D1002B01D0002CEFD1D2B2B5
S31508003E10012A16D107E0001F091F04680D68AC4285
S31508003E2000D000221B1FD2B2012A01D1042BF2D2E4
S31508003E3007E0401E491E04780D78AC4200D00022E7
S31508003E405B1ED2B2012A01D1002BF2D11000C0B2FA
S31508003E5070BC70472DE9F04106000F0090461C0023
S31508003E600025DFF8BC020078002803D042F6E1609E
S31508003E7020802BE0002E03D145F6C350208025E094
S31508003E801FFA88F8B8F1000F03D146F29450208043
S31508003E901CE001F0E7FC0500DFF888023060776077
S31508003EA0414689B216F1140003F055FD16F10800D3
S31508003EB002F048FFDFF870020088401CDFF868123D
S31508003EC00880280001F0D2FC00202080BDE8F0819F
S31508003ED02DE9F04F89B004000D0016001F005FF0B1
S31508003EE00008DDF84C908E480078002805D046F288
S31508003EF0AE10A9F800000020C6E0002C05D145F652
S31508003F00C350A9F800000020BEE0002F05D146F2F4
S31508003F10D520A9F800000020B6E0B6B23000002887
S31508003F2002D0B0F5004F1FD120687E49884221D1C2
S31508003F30DDF848A0BAF1000F02D00020CAF8000048
S31508003F4001F090FC80464B465246390014F11400A5
S31508003F5003F00BFD8346B9F80000002810D140464F
S31508003F6001F084FC58468FE045F62560A9F8000064
S31508003F70002089E045F6C450A9F80000002083E037
S31508003F80300408D5404601F071FC46F2B010A9F895
S31508003F900000002078E065480078002808D04046F0
S31508003FA001F064FC46F66350A9F8000000206BE0B7
S31508003FB02B000522210000A802F07AFE404601F0F7
S31508003FC055FC02F05DFD01F04DFC8046584800683E
S31508003FD090F83500002805D0022838D017D30328D2
S31508003FE026D045E052480068D0F85CB050480068D2
S31508003FF0B0F860003880BAF1000F04D04C48006869
S31508004000006CCAF800000020A9F8000038E05FF04C
S31508004010000B00203880BAF1000F04D0444800682D
S31508004020006CCAF8000046F2A910A9F8000027E0BB
S315080040305FF0000B00203880BAF1000F02D0002094
S31508004040CAF8000047F2D920A9F8000018E05FF086
S31508004050000B00203880BAF1000F04D034480068FD
S31508004060006CCAF8000045F6C250A9F8000007E03F
S315080040705FF0000B0020388046F62E60A9F8000095
S31508004080404601F0F3FB584609B0BDE8F08F2DE92C
S31508004090FC4105000E0017009846089C002D03D128
S315080040A045F6C35020802AE01FFA88F840460028C3
S315080040B015D0102813D0B0F5007F10D0B0F5047FC6
S315080040C00DD0B0F5004F0AD048F21001884206D04C
S315080040D0B0F5024F03D048F21021884211D1286862
S315080040E01049884211D103F0C8FB01940090434659
S315080040F09BB23A0092B23100280000F01BF8BDE8E6
S31508004100F38145F625602080F9E745F6C4502080FE
S31508004110F5E70021044A118000210180704700005C
S315080041200C3D002051554555023D0020113D00200B
S31508004130E43C00202DE9F04F83B004000D00160082
S315080041401F005FF0000A01F08DFB824614F108009B
S31508004150DDF83080DDF834900189002914D1F8069D
S3150800416001D4002300E01023CDF80490CDF8008098
S315080041709BB2320092B2290014F1140003F02DFC10
S31508004180504601F073FB25E0B90502D5B0F808B032
S3150800419001E05FF0010B00680DE08168406801905E
S315080041A0CDF8008033009BB22A00200002F040FEC2
S315080041B00198BBF1010B1FFA8BFBBBF1000FECD189
S315080041C0504601F053FB380401D402F059FC002094
S315080041D0A9F80000BDE8F78F80B52021CC4803F088
S315080041E0F4FC002815D0CA4803F0EBFCC949096855
S315080041F000290ED0C8490968C64A1268891AFF29D3
S3150800420007DAC54909680870C3480068401CC249EE
S3150800421008604021BE4803F0D8FC00280ED040F2C2
S315080042202661BB4803F0DEFC00AA0021BB4800F06B
S3150800423078FABDF80000002800D000BF01BD0000D4
S315080042401CB52021B64803F0C0FC002815D0B44898
S3150800425003F0B7FC040001A9B248FFF715FD0100F9
S315080042600C7001A8009000230122AF48FFF70FFF4A
S31508004270BDF80400002800D000BF4021A84803F07C
S31508004280A4FC00280ED040F22661A54803F0AAFC3B
S3150800429001AA0021A54800F044FABDF80400002848
S315080042A000D000BF13BD00001CB52021A04803F0B4
S315080042B08CFC002815D09E4803F083FC040001A955
S315080042C09848FFF7E1FC01000C7001A80090002354
S315080042D001229548FFF7DBFEBDF80400002800D050
S315080042E000BF4021924803F070FC00280ED040F22F
S315080042F026618F4803F076FC01AA00218D4800F05C
S3150800430010FABDF80400002800D000BF13BD70B530
S3150800431084B004000D0088480078AA282AD1012212
S3150800432040F22661824803F01FFC002612E00020B6
S31508004330ADF8040001A8009002AB00224FF4FA7110
S315080043407C4800F034F9B6B2315D89B2784803F09A
S3150800435034FC761CB6B2ADB2AE42E8D3002240F2C7
S315080043602661734803F000FC4021714803F02DFCD8
S315080043700028F9D04FF48071704801F0F8FA01224C
S3150800438040F22661664803F0EFFB002612E00020A3
S31508004390ADF8040001A8009002AB00224FF4FA71B0
S315080043A0624800F004F9B6B2315D89B25C4803F0A0
S315080043B004FC761CB6B2ADB2AE42E8D3002240F297
S315080043C02661574803F0D0FB4021554803F0FDFB12
S315080043D00028F9D04FF48071584801F0CBFA012033
S315080043E004B070BD70B584B004000D00012240F21F
S315080043F02661474803F0B8FB002606E0B6B2315DF1
S3150800440089B2434803F0D9FB761CB6B2ADB2AE42C8
S315080044100DD201A8009002AB002232213F4800F0DD
S31508004420C6F8BDF804000028E8D0002006E00022FF
S3150800443040F22661364803F097FB012004B070BDB0
S3150800444010B584B00400012240F22661304803F01A
S315080044508BFB40F226612E4803F0C4FB05E0217869
S3150800446089B22B4803F0A9FB641C207800280DD0DC
S3150800447001A8009002AB00223221284800F097F8E4
S31508004480BDF804000028EAD0002006E0002240F229
S3150800449026611F4803F068FB012004B010BD38B53B
S315080044A00400002501F0DEF905001B4804601948E0
S315080044B00460280001F0DAF9012032BD80B5002138
S315080044C0C0B2002809D001F0CDF9010001201C4A2C
S315080044D01070080001F0CAF908E001F0C3F90100FC
S315080044E00020174A1070080001F0C0F9012002BD2B
S315080044F080B5012003F0CCFB002808D000AB0022D1
S315080045000121104802F08FF8012003F0D3FB01BD0A
S3150800451000480040F83C0020F43C0020643B0020A2
S31508004520003801405C3C0020B03A0020803B002067
S31508004530004400409C3B0020CA00002000080140BF
S315080045400B3D0020283C00202DE9F04105000E0017
S3150800455090461C000027DFF838020078002803D0B0
S3150800456042F6E160208020E0002D03D145F6C350D5
S3150800457020801AE001F076F90700DFF818022860B3
S31508004580C5F814800020A8616E6015F1080002F0D5
S31508004590D9FBDFF804020088401CDFF8FC1108800C
S315080045A0380001F063F900202080BDE8F0812DE98C
S315080045B0F04389B006000F00914698460024109DE6
S315080045C073480078002804D046F2AE1028800020F0
S315080045D07AE0002E04D145F6C3502880002073E007
S315080045E01FFA89F94846002802D0B0F5004F20D1B5
S315080045F030686849884221D1B8F1000F02D00020FE
S31508004600C8F8000001F02EF90400706900281AD0D5
S315080046107069401E7061B8F1000F02D0B069C8F821
S3150800462000007669200001F021F90020288030007A
S315080046304AE045F625602880002045E045F6C45046
S315080046402880002040E05FEA094008D57669200006
S3150800465001F00CF946F2B0102880300034E04F48DB
S315080046600078002807D0200001F000F946F66350CC
S315080046702880002028E03B000622310000A802F02E
S3150800468017FB200001F0F2F802F0FAF901F0EAF857
S3150800469004004348006890F83500002805D0022831
S315080046A02BD014D303281ED033E0B8F1000F04D062
S315080046B03B480068006CC8F800000020288076692E
S315080046C0200001F0D3F8300009B0BDE8F083B8F156
S315080046D0000F04D032480068006CC8F8000046F2A3
S315080046E0A9102880EBE7B8F1000F02D00020C8F81F
S315080046F0000047F2D9202880E1E7B8F1000F04D07E
S3150800470027480068006CC8F8000045F6C2502880A3
S31508004710D5E746F62E602880200001F0A7F800208D
S31508004720D2E770B505000E001400002D04D145F639
S31508004730C3502080002019E0B6B23000002808D007
S31508004740B0F5007F05D0B0F5004F02D0B0F5024FA6
S315080047500DD128680F4988420ED103F08EF8020061
S315080047602300310089B2280000F01CF870BD45F618
S31508004770256020800020F9E745F6C45020800020F7
S31508004780F4E70021044A11800021018070470000E7
S315080047900C3D002053454D41043D0020113D0020AD
S315080047A0E43C00202DE9F04782B004000D00160015
S315080047B01F005FF0000801F055F8804614F1080064
S315080047C00189002918D1606910F1010F07D1404607
S315080047D001F04CF846F6C5503880002033E0606991
S315080047E0401C6061D4F81490A661404601F03EF87A
S315080047F000203880484626E0A90502D5B0F808907A
S3150800480001E05FF00109D0F800A00BE0DAF8081023
S31508004810DAF804A0009600230022200002F008FB24
S31508004820B9F101091FFA89F9B9F1000FEED1D4F8E7
S315080048301490404601F01AF8280401D402F020F931
S31508004840002038804846BDE8F68710B450F8041BA7
S3150800485081B102681218001D50F8043BDC0744BFFA
S31508004860A9F10104E31852F8044B43F8044B091F55
S31508004870F9D1EBE710BC7047F8B505000E00140037
S315080048800027DFF858020078002803D047F2752081
S31508004890208040E0DFF848020078002803D046F67A
S315080048A06350208037E0B6B23000002805D00228D1
S315080048B003D004281FD008281ED1002D03D147F2A3
S315080048C07E20208027E000F0CDFF07000120DFF8DA
S315080048D01412096881F836002300320092B22900C2
S315080048E08048006803F06CFA2088002808D0380051
S315080048F000F0BCFF0FE0E6E745F6256020800AE0F9
S315080049007848006802F07EFB380000F0AFFF02F03E
S31508004910B7F800202080F1BDF8B50024079D6F4E3A
S315080049203678002E03D047F275202880AFE06C4C0D
S315080049302478002C03D046F663502880A7E0069C0E
S3150800494014F00E06B6B23700002F05D0022F03D09A
S31508004950042F17D0082F16D1002B0CD192B2002A9B
S3150800496009D189B2002906D180B2002803D147F2BD
S315080049707E2028808BE04FF6E17C14EA0C0F06D1E6
S31508004980002705E0F7E745F6256028807FE0012740
S31508004990FFB2012F03D145F62560288077E0C4F3DE
S315080049A00014A4B214F00104E4B2012C1BD0B3F530
S315080049B07A7F03D347F27B20288068E092B23C2AAC
S315080049C003DB47F27A20288061E089B23C2903DBC1
S315080049D047F2792028805AE080B2642814DB47F22F
S315080049E07820288053E089B242F21074A14203DB92
S315080049F047F2792028804AE080B2B0F57A7F03DB57
S31508004A0047F27820288042E0374C246880B24FF479
S31508004A10616789B25FF03C0C0CFB01F107FB0010E3
S31508004A2092B210184FF4FA71B1FBF4F1C91801FBF0
S31508004A3004F14FF47A72B1FBF2F104FB0017002F70
S31508004A4022D000F00FFF040001202649096881F8EA
S31508004A5036002B00320092B239002248006803F073
S31508004A60AFF92888002803D0200000F0FFFE0EE0EA
S31508004A701C48006802F0C6FA200000F0F7FE01F0B4
S31508004A80FFFF0020288002E047F27E202880F1BD43
S31508004A9010B582B003F0C1FB00AA0021134802F04A
S31508004AA0A3FD0400124800780C21124A01FB0020DD
S31508004AB002F0D6FA10480068401E0F4908600E48F2
S31508004AC00068002808D10D4800680B49086000AA4C
S31508004AD000210B4802F088FD13BD00000C3D0020A4
S31508004AE0113D0020E43C002024B000089437002043
S31508004AF00E3D00200C2F0020E03C0020DC3C00206E
S31508004B004838002038B50C001500FFF799FC20003E
S31508004B10FFF7C5FC00AA00212800FFF7ADFEDFF865
S31508004B20900804680020FFF7BAFC200032BD02E0B6
S31508004B300D220270401C0278002A01D18842F7D360
S31508004B40704770B584B00025002602A9DFF864080E
S31508004B50FFF79AF805002E00002400E0641CE4B272
S31508004B60032C2CDAE4B2002C09D002A8019000200C
S31508004B700090C823002200210020FFF7CDFE4FF445
S31508004B80807200213000FFF7DDF864223100DFF87B
S31508004B9028084068FFF7B6FF050029003000FFF730
S31508004BA0C6FFADA1300000F0DFFC0028D6D002AA6F
S31508004BB03100DFF80008FFF78AF8012006E002AAAC
S31508004BC03100DFF8F007FFF782F8002004B070BD67
S31508004BD070B584B00025002602A9DFF8D807FFF7CC
S31508004BE053F805002E00002400E0641CE4B2642C8F
S31508004BF02DDAE4B2002C09D002A80190002000901A
S31508004C00C823002200210020FFF786FE4FF4807299
S31508004C1000213000FFF796F864223100DFF8980784
S31508004C208068FFF76FFF050029003000FFF77FFF58
S31508004C30DFF88817300000F097FC0028D5D002AAC4
S31508004C403100DFF87007FFF742F8012006E002AAF4
S31508004C503100DFF86007FFF73AF8002004B070BDAE
S31508004C602DE9FE4F002500275FF000085FF00009D8
S31508004C705FF0000A5FF0000B002402A9DFF8340792
S31508004C80FFF702F883465C46002601E00025761CFD
S31508004C90F6B2642E54DAF6B2002E09D002A80190B4
S31508004CA000200090C823002200210020FFF734FED0
S31508004CB04FF4807200212000FFF744F86422210097
S31508004CC0DFF8F406C068FFF71DFF83465946200043
S31508004CD0FFF72DFFDFF8E816200000F045FC002856
S31508004CE0D4D03A224FF48071200000F015FC871CBE
S31508004CF0380003F0E5FA80462C224FF48071200034
S31508004D0000F00AFC10F10109484603F0D9FA824678
S31508004D105FFA88F8B8F1060F10DB5FFA8AFABAF17B
S31508004D20630F0BD06D1CEDB2072DB0DB02AA210074
S31508004D30DFF88006FEF7CBFF012008E00025A6E78E
S31508004D4002AA2100DFF86C06FEF7C1FF0020BDE8C5
S31508004D50FE8F70B584B00025002602A9DFF8540638
S31508004D60FEF792FF05002E00002400E0641CE4B262
S31508004D70642C34DAE4B2002C09D002A80190002091
S31508004D800090C823002200210020FFF7C5FD4FF43C
S31508004D90807200213000FEF7D5FF64223100DFF86B
S31508004DA018060069FFF7AEFE050029003000FFF778
S31508004DB0BEFEDFF81016300000F0D6FB002806D13C
S31508004DC0DFF80416300000F0CFFB0028CED002AA88
S31508004DD03100DFF8E005FEF77AFF012006E002AAB7
S31508004DE03100DFF8D005FEF772FF002004B070BD71
S31508004DF038B50024002500A9DFF8B805FEF744FFFA
S31508004E00040025004FF4807200212800FEF79AFF5F
S31508004E1064222900DFF8A0054069FFF773FE040045
S31508004E2021002800FFF783FE0BA1280000F09CFB59
S31508004E30002807D000AA2900DFF87805FEF747FF03
S31508004E40012006E000AA2900DFF86805FEF73FFF03
S31508004E50002032BD000000004F4B000038B500248A
S31508004E60002500A9DFF84C05FEF70EFF0400250013
S31508004E704FF4807200212800FEF764FF642229009F
S31508004E80DFF834058069FFF73DFE0400210028009D
S31508004E90FFF74DFE86A1280000F066FB002807D024
S31508004EA000AA2900DFF80C05FEF711FF012006E02D
S31508004EB000AA2900DFF8FC04FEF709FF002032BD2E
S31508004EC038B50024002500A9DFF8E804FEF7DCFE63
S31508004ED0040025004FF4807200212800FEF732FFF7
S31508004EE064222900DFF8D004C069FFF70BFE04002E
S31508004EF021002800FFF71BFE6DA1280000F034FBF7
S31508004F00002807D000AA2900DFF8A804FEF7DFFE6C
S31508004F10012006E000AA2900DFF89804FEF7D7FE6C
S31508004F20002032BD70B584B00025002602A9DFF83E
S31508004F308404FEF7A9FE05002E00002400E0641C88
S31508004F40E4B2642C2DDAE4B2002C09D002A8019050
S31508004F5000200090C823002200210020FFF7DCFC77
S31508004F604FF4807200213000FEF7ECFE6422310017
S31508004F70DFF84404006AFFF7C5FD05002900300084
S31508004F80FFF7D5FDDFF84414300000F0EDFA0028ED
S31508004F90D5D002AA3100DFF81C04FEF798FE0120DE
S31508004FA006E002AA3100DFF80C04FEF790FE0020A6
S31508004FB004B070BD70B582B00025002600A9DFF8E0
S31508004FC0F403FEF761FE05002E00002400E0641CD1
S31508004FD0E4B2032C1FDA4FF4807200213000FEF78A
S31508004FE0B1FE64223100DFF8D003406AFFF78AFD7C
S31508004FF0050029003000FFF79AFD2DA1300000F0CA
S31508005000B3FA0028E3D000AA3100DFF8A803FEF7B8
S315080050105EFE012006E000AA3100DFF89803FEF7DD
S3150800502056FE002076BD70B584B00025002602A97C
S31508005030DFF88003FEF728FE05002E00002400E0B6
S31508005040641CE4B2142C2ADAE4B2002C09D002A8B3
S31508005050019000200090C823002200210020FFF7BD
S315080050605BFC4FF4807200213000FEF76BFE642271
S315080050703100D148806AFFF745FD05002900300058
S31508005080FFF755FDD249300000F06EFA0028D7D058
S3150800509002AA3100C748FEF71AFE012005E002AA57
S315080050A03100C448FEF713FE002004B070BD0000AE
S315080050B04F4B0000FEB500240027002502A9BD4875
S315080050C0FEF7E2FD07003D0000260AE002A801906F
S315080050D000200090C823002200210020FFF71CFCB6
S315080050E0761CF6B2642E40DA4FF48072002128004E
S315080050F0FEF728FEB048C06AFFF7A2F9B548FFF7E1
S315080051009FF93800FFF7CBF902AA00214FF4FA609D
S31508005110FFF7B2FBA64807680020FFF7C0F9390079
S315080051202800FFF704FDAC49280000F01DFA002806
S31508005130CCD0AA49280000F017FA06E0E4B22118F4
S315080051404979E4B2A64AA154641CE4B22118497903
S315080051500D29F3D10020E4B2A149605402AA29001E
S315080051609448FEF7B4FD012005E002AA29009148FB
S31508005170FEF7ADFD0020FEBD38B50024002500A9C8
S315080051808C48FEF781FD040025004FF4807200214B
S315080051902800FEF7D7FD8848006BFFF751F99048BD
S315080051A0FFF74EF98F48FFF74BF92000FFF777F91D
S315080051B000AA00214FF4FA60FFF75EFB7C480468FA
S315080051C00020FFF76CF921002800FFF7B0FC86499C
S315080051D0280000F0C9F9002806D000AA2900754859
S315080051E0FEF775FD012005E000AA29007148FEF7C3
S315080051F06EFD002032BD80B5FFF7A3FC002801D163
S31508005200002045E0FFF7E4FC002801D100203FE03C
S31508005210FFF726FD002801D1002039E0FFF799FDA8
S31508005220002801D1002033E0FFF7E2FD002801D174
S3150800523000202DE0FFF712FE002801D1002027E00C
S31508005240FFF73EFE002801D1002021E0FFF76AFEA5
S31508005250002801D100201BE0FFF7ACFE002801D191
S31508005260002015E0FFF7DFFE002801D100200FE03F
S31508005270FFF720FF002801D1002009E0FFF77CFF97
S31508005280002801D1002003E0012000F081F8012068
S3150800529002BD10B584B00024C0B2002829D0102160
S315080052A0524800F064FB02A80190002000904FF4D9
S315080052B0FA73002200210020FFF72EFB02214B483B
S315080052C000F055FB0AE002A8019000200090642334
S315080052D0002200210020FFF71FFB641CE4B2FA2C11
S315080052E005DAFFF72EFC0128EDD1012010E0002099
S315080052F00EE002213D4800F03DFB02A80190002087
S3150800530000900023032200210020FFF705FB01205F
S3150800531004B010BD30B585B004000D00ADB22A004A
S3150800532021A103A800F02CFF2348406BFFF788F85B
S3150800533003A8FFF785F81DA0FFF782F801A80090DB
S3150800534002AB00224FF47A712948FFF730F9BDF80D
S315080053500400002801D0002018E0290089B22000A6
S31508005360FFF740F8012111A0FFF73CF801A80090CB
S3150800537002AB00224FF47A711E48FFF718F9BDF800
S315080053800400002801D0002000E0012005B030BD4F
S3150800539038B50400002500F065FA050016480470C3
S315080053A0280000F063FA31BD256400000D000000F6
S315080053B0F43C0020443C00200000002030AF0008E8
S315080053C038AF000894AE0008A0AE0008ACAE0008DE
S315080053D0B8AE000850000020C4AE000840AF000870
S315080053E06C000020B40000202CAE00080008014024
S315080053F0F03B00200C3C00200A3D0020002201E082
S31508005400401C521C002804D00378002B01D08A4285
S31508005410F6D31000704780B55FF0FF3200F001F850
S3150800542002BD30B4002801D1002029E0002901D1AD
S31508005430002025E0002A23D0030000E05B1C002B97
S3150800544002D01C78002CF9D1002B01D1002017E0DE
S31508005450002404E00D781D705B1C491C641C002B9D
S3150800546006D0002904D00D78002D01D09442F1D33E
S31508005470002B01D0002901D1002001E0002119707C
S3150800548030BC7047F0B4002A01D1002042E0002861
S3150800549007D1002901D100203CE00878404200B23B
S315080054A038E0002902D1007800B233E003000C008E
S315080054B05B1C641C002504E0401C491C5B1C641C26
S315080054C06D1C06780F78BE4208D10678002E05D0E6
S315080054D0002B03D0002C01D09542EDD3954201D183
S315080054E0002017E002780D78AA4203D000780978E0
S315080054F0401A0EE00078002801D1002009E0002BB0
S3150800550006D1002C01D1002003E02078404200E0BB
