S00C0000546573742E7372656378
S31508000000F84E00200DBA0008A3B80008A5B80008E5
S31508000010A7B80008A9B80008ABB800080000000097
S31508000020000000000000000000000000ADB8000855
S31508000030AFB8000800000000379E0008B1B80008F5
S31508000040D9BB0008DDBB0008E1BB0008E5BB00081A
S31508000050E9BB0008EDBB0008D1B80008F1BB0008F1
S31508000060F5BB0008F9BB0008FDBB000801BC000889
S3150800007005BC000809BC00080DBC000811BC000836
S3150800008015BC000819BC00081DBC000821BC0008E6
S3150800009025BC000829BC00082DBC000831BC000896
S315080000A035BC000839BC00083DBC000841BC000846
S315080000B045BC000849BC00084DBC000851BC0008F6
S315080000C055BC000859BC00085DBC000861BC0008A6
S315080000D065BC0008B9B80008C1B80008C9B8000866
S315080000E069BC00086DBC000871BC0008F0B585B095
S315080000F000260FE0DFF8540D007801280AD1DFF852
S31508000100E0090068DFF8DC1908600020DFF83C1D0C
S315080001100870002602A8019003A800900DF10A03B2
S315080001200022C821DFF8C00903F054FF0100BDF81A
S31508000130080047F2D9229042DCD00F7802AADFF8ED
S31508000140AC0904F056F9DFF89C090068002819D1B3
S3150800015002A9DFF8FC0C04F029F9DFF88819086011
S31508000160BDF80800002828D1DFF878090068DFF80C
S31508000170701908604FF480720021DFF8640900687E
S3150800018004F072F9DFF8CC0C007800287AD0DFF892
S31508000190BC0C0078002812D1FFB2682FBAD1DFF85C
S315080001A044090068411CDFF83C29116007700026E5
S315080001B00120DFF8981C0870ACE700BFAAE7DFF853
S315080001C024090068411CDFF81C2911600770DFF854
S315080001D014090068DFF808190968401A0B2805D1C0
S315080001E0DFF8FC080068807A10F10D06F6B2002EDA
S315080001F090D0DFF8F0080068DFF8E4180968401ABC
S31508000200F6B2B04286DBDFF8DC08006810F8010CAD
S3150800021016282BD1DFF8CC080768F6B2B11E89B2CA
S31508000220DFF8BC08006800F011F917F8021CC0B224
S3150800023081427FF46FAF02A800900023F6B2320025
S3150800024092B2DFF89C080168DFF80C0C03F0A1FFF6
S315080002500020DFF88C1808600020DFF8881808608E
S315080002600020DFF8E81B0870002653E7DFF870085F
S315080002700068DFF8701808600020DFF8D01B0870E7
S31508000280002647E7DFF8C40B0078002813D1FFB231
S31508000290682F7FF43FAFDFF84C080068411CDFF891
S315080002A04428116007700026012400250120DFF884
S315080002B09C1B08702EE7DFF82C080068411CDFF845
S315080002C0242811600770EDB2002D39D1641CE4B200
S315080002D0062C7FF41FAFDFF8080800684079682805
S315080002E020D1DFF8FC070068B0F80100DFF8F01746
S315080002F00968B1F8031080B289B2884204D1012591
S3150800030080B28608083605E70020DFF8401B08702B
S31508000310002600240025DFF8C8070068DFF8C417A0
S315080003200860F7E60020DFF8241B08700026002482
S315080003300025DFF8AC070068DFF8A8170860E9E6CB
S31508000340F6B2002E3FF4E6AEDFF898070068DFF84D
S3150800035090170968401AF6B2B042FFF6DBAEDFF82E
S315080003608407006810F8010C162861D1DFF87407B5
S315080003700468F6B2B6F1080189B2DFF864070068C6
S31508000380801D00F063F814F8021CC0B2814241D106
S31508000390DFF84C070068007B032806D0042817D02E
S315080003A00A2802D00B2813D024E00020DFF83417DF
S315080003B00968087002A800900023F6B2320092B2CB
S315080003C0DFF81C070168DFF8000D03F0E2FE11E014
S315080003D00020DFF810170968087002A800900023AB
S315080003E0F6B2320092B2DFF8F8060168DFF8DC0CE4
S315080003F003F0CFFE0020DFF8E81608600020DFF8DB
S31508000400E41608600020DFF8441A08700026002465
S3150800041000257FE6DFF8C8060068DFF8C81608601A
S315080004200020DFF8281A087000260024002571E647
S31508000430DFF8AC060068DFF8AC1608600020DFF8C5
S315080004400C1A087000260024002563E610B4002262
S31508000450002303E09BB21C5CA2185B1C9BB289B20A
S315080004608B42F7D31000C0B210BC704730B583B0CA
S315080004700020002100220025002400E000BFDFF84C
S31508000480500C0078012840F0B280002D13D101A944
S31508000490DFF8BC0903F08AFF0500BDF80400002850
S315080004A0ECD12C004FF480720021200003F0DCFF11
S315080004B0200004F00EFADFF81C0C0068DFF8181CA0
S315080004C00968401A0128C0F28C8001AA002104207C
S315080004D004F054FADFF8FC0B05682900200004F044
S315080004E0A8FBAEA1200005F039F8002810D0250099
S315080004F04FF480720021200003F0B6FF200004F0BC
S31508000500E8F901AA0021DFF8D40B05F084F9B6E76B
S31508000510DFF8CC1B200005F021F800280ED001A832
S31508000520009000232A1B92B22100DFF8B80B03F0D3
S3150800053030FE0025002004F0CCF9A0E7DFF8A81B60
S31508000540200005F00BF8002810D025004FF4807223
S315080005500021200003F088FF002005000024002069
S3150800056004F0B7F9002004F011FF88E7DFF87C1BD8
S31508000570200004F0F3FF002810D025004FF4807205
S315080005800021200003F070FF002005000024002051
S3150800059004F09FF9002004F0F9FE70E7DFF8501B1D
S315080005A0200004F0DBFF002810D025004FF48072ED
S315080005B00021200003F058FF002005000024002039
S315080005C004F087F9002004F0E1FE58E725004FF40F
S315080005D080720021200003F047FF200004F079F91B
S315080005E04DE701AA0021042004F0C8F947E7002DC9
S315080005F010D04FF480720021200003F035FF01AAC5
S315080006002100DFF84C0803F0F4FE00250024002042
S3150800061004F05FF9002004F06BFE012004F068FE88
S3150800062004F024FE2BE72DE9FF41002600240020D4
S31508000630ADF80A005FF000080025002705E002AAC9
S315080006402100DFF80C0803F0D4FE02A8019003A8E5
S3150800065000900DF10A0300220021DFF8880A03F052
S31508000660B9FC0400B0A1200004F078FF10F10208DC
S31508000670404600F095F80700BFB2002FDFD098F883
S315080006800C0000280CD0022828D0032827D00428DC
S3150800069041D00A2823D00B283DD00C28CFD0CEE74E
S315080006A098F80D0010F00F05DFF8480A0078EDB24B
S315080006B0854206D102AA0021DFF83C0A05F0ABF80C
S315080006C00BE0DFF8380A0078EDB2854205D102AAB8
S315080006D00021DFF82C0A05F09EF8B0E7AFE702A97B
S315080006E0DFF86C0703F062FE0600002E12D0BFB2D8
S315080006F03A004146300005F033F90120BFB2B8553B
S3150800070002A8009000233A0092B23100DFF8B80937
S3150800071003F03FFD93E798F80D000F2101FB00F564
S3150800072098F80E00052808D1DFF8D80905702900C1
S31508000730C9B2012002F00AFE2EE0DFF8C8090078E7
S31508000740EDB2A84223D002A9DFF8040703F02EFE73
S315080007500600002E08D0BFB23A004146300005F028
S31508000760FFF80120BFB2B855DFF8980905702900CF
S31508000770C9B2012002F0EAFD02A8009000233A005F
S3150800078092B23100DFF8440903F003FD04E02900C2
S31508000790C9B2012002F0DAFD51E700000A3E000066
S315080007A070B50400B4F80150B4F80300ADB280B2D5
S315080007B0854214D1ADB2AD08ADB2281986792900A3
S315080007C089B2A01DFFF742FE864208D1ADB22819AC
S315080007D0C079162803D115F10800C0B200E0002040
S315080007E070BD10B5002405F0CFF90400DFF818092C
S315080007F00078401CDFF810190870DFF80C0900783B
S3150800080010F00F00DFF800190870200005F0C0F995
S3150800081010BD30B589B0002404E001AA0021642087
S3150800082004F0ACF803AD682028706D1C27202870EA
S315080008306D1C002028706D1C272028706D1C002058
S3150800084028706D1C682028706D1CC92028706D1CC6
S31508000850DFF8B808007828706D1CDFF8B008407813
S3150800086028706D1CDFF8A408807828706D1CDFF8E6
S315080008709C08C07828706D1CDFF8900800792870ED
S315080008806D1C022028706D1CDFF87C08007850F07B
S31508000890700028706D1CDFF870080078DFF85418AF
S315080008A00870FFF79EFF032028706D1C09210DF1C3
S315080008B01200FFF7CBFD28706D1C162028706D1CE2
S315080008C0DFF80C0800780028A7D0002500E06D1C8A
S315080008D0DFF8FC070078002818D0EDB2032D15DAEA
S315080008E00024112103A804F085FC0028EFD001A8F4
S315080008F0009002AB002241F28831DFF8FC0704F0D1
S31508000900D0FEBDF804000028E1D10124E4B2002C91
S3150800091006D001AA0021DFF8940D04F02FF881E72C
S31508000920002004F033FD7DE70D0A680080B5C0B2EB
S3150800093000280CD0DFF8780D0078AA2803D101200A
S3150800094000F047F80FE0012000F05BF80BE0DFF855
S31508000950600D0078AA2803D1002000F03AF802E0DA
S31508000960002000F04EF801BD1FB512E00120FFF788
S31508000970DDFFBDF80800015D200000F0B9F8002091
S31508000980FFF7D4FF0DF10A022100DFF8C40403F0D3
S3150800099030FD0DF10A00019003A8009002AB002279
S315080009A00021DFF8280703F015FB0400207B042844
S315080009B002D00B28DAD0E5E70120FFF7B7FFBDF82C
S315080009C00800015D200000F079FE0020FFF7AEFF69
S315080009D0D8E780B5C0B200280CD04FF40051DFF834
S315080009E0D40C05F056F900AA002140F2DC5003F0B9
S315080009F0C5FF05E04FF40051DFF8B80C05F04CF9D7
S31508000A0002BD80B5C0B200280BD04021DFF8A80C83
S31508000A1005F03FF900AA00214FF4167003F0AEFF67
S31508000A2004E04021DFF8900C05F036F902BD80B5E8
S31508000A30C0B200280BD00421DFF87C0E05F029F996
S31508000A4000AA002140F6B83003F098FF04E004211C
S31508000A50DFF8640E05F020F902BD80B5C0B20028A3
S31508000A600BD00221DFF8500E05F013F900AA002179
S31508000A7040F6B83003F082FF04E00221DFF8380EB2
S31508000A8005F00AF902BD80B5C0B200280BD00121D5
S31508000A90DFF8240E05F0FDF800AA002140F6B8306C
S31508000AA003F06CFF04E00121DFF80C0E05F0F4F802
S31508000AB002BD80B5C0B200280BD08021DFF8F80B44
S31508000AC005F0E7F800AA002140F6B83003F056FF13
S31508000AD004E08021DFF8E00B05F0DEF802BD000037
S31508000AE0C84C0020C44C0020504A00203C4C002032
S31508000AF02DE9F0418AB004000D0000200390002083
S31508000B0002900020ADF810000020ADF8060000267F
S31508000B10002700208DF804005FF000080222DFF8A5
S31508000B209C1D04A805F06AFA0322DFF8941D03A8A1
S31508000B3005F064FABDF81000002800F0CF80012007
S31508000B4003F0D6FE0722DFF87C1D14F1100003F02F
S31508000B50B8FC012840F0C5800120DFF86C1D08703C
S31508000B60002634E007220298811D07A805F046FAF8
S31508000B700122029810F10D0101A805F03FFA2B0099
S31508000B80DBB29DF80420029907A800F067F9032252
S31508000B900298C11C02A805F031FA7F1CBDF80600B0
S31508000BA0BFB28742DED3039905A800F071FFB6B23B
S31508000BB0701CBDF8101090FBF1F0DFF8101D0870DE
S31508000BC003220398C11C03A805F018FA761CBDF881
S31508000BD01000B6B2864274D206220398811D05A873
S31508000BE005F00CFA0322039810F10C0102A805F08F
S31508000BF005FA0222039810F112010DF1060005F01C
S31508000C00FDF9039905A800F065FE002857D10DF1F6
S31508000C101200009009AB00224FF47A71DFF86C0ECF
S31508000C2005F06AFD00273DE04FF480520298000B5C
S31508000C304FF4805101FB00F1DFF8940C05F0DEF962
S31508000C4002984FF48051B0FBF1F202FB1102DFF873
S31508000C50800C1018807D50F0800002994FF4805265
S31508000C60B1FBF2F303FB1213DFF8641C59188875FD
S31508000C700298000B4FF48051484305F07DF84FF475
S31508000C8080520298000B4FF4805101FB00F1DFF807
S31508000C90400C05F009F903220298C11C02A805F0C8
S31508000CA0ADF97F1CBDF80600BFB28742BCD30DF173
S31508000CB012020021DFF8D40D05F02CFE77E7002795
S31508000CC06CE70020DFF8001C08702A00D2B2002169
S31508000CD0012000F01DFA002003F00AFE0AB0BDE864
S31508000CE0F08100261AE02B00DBB29DF80420029959
S31508000CF007A800F0B3F82A00D2B20299002000F043
S31508000D0007FA039905A800F0C3FE5FF0010803225D
S31508000D100398C11C03A805F071F9761C5FFA88F8D8
S31508000D20B8F1000FD7D1BDF81000B6B28642D2D2BC
S31508000D3006220398811D05A805F060F90322039889
S31508000D4010F10C0102A805F059F90222039810F1D6
S31508000D5012010DF1060005F051F9002706E00322FD
S31508000D600298C11C02A805F049F97F1CBDF80600C7
S31508000D70BFB28742CBD207220298811D07A805F089
S31508000D803DF90122029810F10D0101A805F036F986
S31508000D90072207A914F1100003F093FB0128DED1FE
S31508000DA09DF80400E17B8842D9D1039905A800F093
S31508000DB091FD002897D10DF11200009009AB002291
S31508000DC04FF47A71DFF8C40C05F096FC4FF48052A4
S31508000DD00298000B4FF4805101FB00F1DFF8F00A8E
S31508000DE005F00CF902984FF48051B0FBF1F202FBC2
S31508000DF01102DFF8DC0A1018807D50F08000029995
S31508000E004FF48052B1FBF2F303FB1213DFF8C01A5A
S31508000E10591888750298000B4FF48051484304F01E
S31508000E20ABFF4FF480520298000B4FF4805101FB40
S31508000E3000F1DFF89C0A05F037F80DF112020021DF
S31508000E40DFF8480C05F066FD5FE70000EF4C002070
S31508000E50244C0020E14C0020984A00202DE9F0435C
S31508000E608BB004000D00002600200021ADF80C1000
S31508000E7000275FF0000800218DF808105FF00009D0
S31508000E8007A98946682189F8001019F1010989F826
S31508000E90002019F1010900210E0006E0F6B2305DC6
S31508000EA089F8000019F10109761CF6B2072EF5DB60
S31508000EB0012089F8000019F10109032089F80000CA
S31508000EC019F10109DFF8F80C0078FF280AD11F206C
S31508000ED089F8000019F10109902089F8000019F134
S31508000EE0010909E0902089F8000019F101091F207D
S31508000EF089F8000019F10109012089F8000019F1A3
S31508000F0001090E2107A8FFF7A1FA89F8000019F1CF
S31508000F100109162089F8000019F10109002608E0E0
S31508000F200020F6B205A970540020F6B204A9705440
S31508000F30761CF6B2042EF3DB002617E0C0B2C11900
S31508000F40897BC0B205AA8154C0B2C119C97CC0B296
S31508000F5004AA8154401CC0B20428EFDB0DF10A0232
S31508000F603900DFF8600C03F044FA761C5FFA88F85B
S31508000F70B8F1000F31D1F6B2032E2EDA0421DFF8CC
S31508000F80480C03F0A1FB102107A803F09DFB0DF107
S31508000F900A00019006A8009003AB00224FF4966160
S31508000FA0DFF8280C03F016F80700BDF80A00002839
S31508000FB005D0F6B2022E01D15FF00008D5E7072268
S31508000FC0B91C200003F07DFA0128C7D15FF001089B
S31508000FD0F87F8DF808000020BDE70DF10A000090A3
S31508000FE006AB00224FF47A71DFF8A00A05F084FBFD
S31508000FF04FF48052280B4FF4805101FB00F1DFF8C3
S31508001000D00804F0FBFF5FFA88F8B8F1000F16D194
S315080010104FF48050B5FBF0F101FB1051DFF8B00832
S315080010200818807D50F040004FF48051B5FBF1F26E
S3150800103002FB1152DFF898185118887529E0012229
S3150800104002A94FF48050B5FBF0F303FB1053DFF809
S3150800105080081818163004F083FC042205A94FF4FA
S315080010608050B5FBF0F303FB1053DFF8640818183B
S315080010700E3004F075FC042204A94FF48050B5FB29
S31508001080F0F303FB1053DFF848081818183004F07B
S3150800109067FC280B4FF48051484304F06DFE4FF46B
S315080010A08052280B4FF4805101FB00F1DFF820082D
S315080010B004F0FAFE0DF10A020021DFF8D00905F066
S315080010C029FC0BB0BDE8F083BC4A0020744A002016
S315080010D0E04C0020CC4C0020D04C0020D04B002007
S315080010E050BB0008E04A002058BB000860BB000857
S315080010F068BB0008EB4C0020984B0020EC4C002005
S31508001100B44B0020EE4C0020ED4C00207C00002063
S315080011102DE9F54F8DB00025002006905FF00009F7
S315080011200020ADF81C000020ADF814000020ADF832
S3150800113016000020ADF8000000208DF808000020F9
S31508001140ADF80A000027002008900020049000202F
S315080011508DF8070000208DF8060000240020ADF861
S315080011600E005FF0000A5FF000080020ADF80400EA
S3150800117000265FF0000B00208DF80000049103A9FB
S31508001180DFF8400A03F012F90500002D00F0C680CA
S3150800119006959DF83400002840F0C8800722049878
S315080011A0811D0BA804F02AFF0122049810F10D01F5
S315080011B00DF1070004F022FF0422049810F10E0135
S315080011C009A804F01BFF0122049810F116010DF17D
S315080011D0060004F013FF682028706D1CA9467320CA
S315080011E0A9F8000019F102097320A9F8000019F1FD
S315080011F002094D46682028706D1C882028706D1CD1
S31508001200DFF8DC0B007828706D1CDFF8D40B40780B
S3150800121028706D1CDFF8C80B807828706D1CDFF805
S31508001220C00BC07828706D1CDFF8B40B00792870E5
S315080012306D1C0B2028706D1CDFF8A80B007850F089
S31508001240600028706D1C042028706D1CDFF8940B54
S315080012500078DFF8C41D0870FFF7C3FA002028706D
S315080012606D1C002028706D1C002028706D1C002045
S3150800127028706D1C9DF8070028706D1C002405E079
S31508001280A4B20BA8205C28706D1C641CA4B2072CA1
S31508001290F6DB012028706D1C002405E0A4B209A81D
S315080012A0205C28706D1C641CA4B2042CF6DB9DF827
S315080012B0060028706D1C002028706D1C1C210698DD
S315080012C0801DFFF7C3F828706D1C162028706D1C4A
S315080012D09DF83800002824D05FF0000A01E01AF1D2
S315080012E0010A5FFA8AFABAF1030F11DA242106987D
S315080012F003F080FF03A800900AAB002241F2883170
S31508001300DFF86C0D04F0CDF9BDF80C000028E6D125
S3150800131003AA0699DFF8AC0803F06BF80FB0BDE82E
S31508001320F08F2421069803F03BFAF1E70222DFF852
S315080013308C150DF1160004F061FE0222DFF8341D4B
S3150800134005A804F05BFE0322DFF8741508A804F06C
S3150800135055FEBDF814000A2190FBF1F0ADF8000027
S31508001360BDF814000A2190FBF1F201FB12008DF87A
S3150800137008000027BDF80000ADF80A009DF808002F
S31508001380002804D0BDF80A00401CADF80A00002465
S3150800139006E003220898C11C08A804F02FFE641C66
S315080013A0BDF81600A4B28442B2D20322089810F1FE
S315080013B00C0104A804F022FE0222089810F112017A
S315080013C007A804F01BFE0020ADF80E001AE0BDF8D1
S315080013D004000E21484310F1160189B2069803F05D
S315080013E0DFF903AA0021642003F0C8FA069D032248
S315080013F00498C11C04A804F001FEBDF80E00401CA8
S31508001400ADF80E00BDF80E00BDF81C108842C0D21B
S3150800141007220498811D0BA804F0F0FD0122049808
S3150800142010F10D010DF1070004F0E8FD04220498FF
S3150800143010F10E0109A804F0E1FD0122049810F14B
S3150800144016010DF1060004F0D9FDF6B2002E40F0A3
S31508001450BF8001267F1CBDF80A0001280CD1BDF803
S315080014601480ADF80480BDF804000E2148430E3000
S31508001470800050F0030B36E0BFB2012F0CD15FF0AD
S315080014800A08ADF80480BDF804000E2148430E3062
S31508001490800050F0030B26E0BDF80A00BFB2874271
S315080014A015D19DF80800002804D15FF00A08ADF8A8
S315080014B0048003E09DF80880ADF80480BDF80400B8
S315080014C00E2148430E30800050F0030B0BE05FF00E
S315080014D00A08ADF80480BDF804000E2148430E3012
S315080014E0800050F0030B682028706D1CA946A9F8E7
S315080014F000B019F10209A9F800B019F102094D4620
S31508001500682028706D1C882028706D1CDFF8D008AC
S31508001510007828706D1CDFF8C808407828706D1CA4
S31508001520DFF8BC08807828706D1CDFF8B408C0782E
S3150800153028706D1CDFF8A808007928706D1C0B2030
S3150800154028706D1CBDF80A00012807D1DFF8940839
S31508001550007850F0700028706D1C1EE0BFB2012F95
S3150800156007D1DFF88008007850F0500028706D1C0D
S3150800157013E0BDF80A00BFB2874207D1DFF8640856
S31508001580007850F0300028706D1C06E0DFF854082B
S31508001590007850F0100028706D1CDFF848080078B5
S315080015A0DFF8741A0870FFF71CF9042028706D1C00
S315080015B0A946BDF80A00A9F8000019F10209A9F818
S315080015C0007019F102094D469DF8070028706D1C38
S315080015D05FF0000A08E05FFA8AFA0BA81AF800001A
S315080015E028706D1C1AF1010A5FFA8AFABAF1070F18
S315080015F0F1DB012028706D1C5FF0000A08E05FFA35
S315080016008AFA09A81AF8000028706D1C1AF1010A4E
S315080016105FFA8AFABAF1040FF1DB9DF80600287022
S315080016206D1C002028706D1CB8F101081FFA88F897
S31508001630B8F1000F7FF4DBAE0026BDF804000E21DA
S31508001640484310F10E0189B20698801DFEF7FEFE8A
S3150800165028706D1C162028706D1C9DF8380000280F
S315080016603FF4B5AE5FF0000A01E01AF1010A5FFA2D
S315080016708AFABAF1030FBFF6B4AEBDF804000E211C
S31508001680484310F1160189B2069803F0B3FD03A882
S3150800169000900AAB002241F28831DFF8D40904F041
S315080016A000F8BDF80C000028DFD19AE6C0D4010086
S315080016B09200002000100140000801402DE9F04387
S315080016C08BB004000D00002003900020029000203B
S315080016D0ADF806000020ADF810000026002700200F
S315080016E08DF804005FF000085FF0000902227349D4
S315080016F00DF1060004F082FC0322714903A804F0E8
S315080017007DFCBDF80600002800F0D280012003F019
S31508001710EFF8002618E05FFA89F9CDF800902B005B
S31508001720DBB29DF80420029906A800F05DFB039938
S3150800173008A800F0ADF95FF0010803220398C11C60
S3150800174003A804F05BFC761C5FFA88F8B8F1000F72
S3150800175040F0AB80BDF80600B6B2864280F0A580A0
S3150800176006220398811D08A804F048FC0322039862
S3150800177010F10C0102A804F041FC0222039810F1B2
S31508001780120104A804F03AFC002706E00322029896
S31508001790C11C02A804F032FC7F1CBDF81000BFB2C1
S315080017A08742CAD207220298811D06A804F026FCA1
S315080017B00122029810F10D0101A804F01FFC07226E
S315080017C006A914F1100002F07CFE0128DED19DF86E
S315080017D00400E17B8842D9D1039908A800F07AF879
S315080017E0002843D10DF1120000900AAB00224FF4F5
S315080017F07A71A64804F080FF4FF480520298000BD5
S315080018004FF4805101FB00F1314804F0F7FB0298D0
S315080018104FF48051B0FBF1F202FB11022C4810186C
S31508001820807D50F0800002994FF48052B1FBF2F3AC
S3150800183003FB12132649591888750298000B4FF4B2
S315080018408051484304F098FA4FF480520298000BEE
S315080018504FF4805101FB00F11D4804F025FB0DF102
S3150800186012020021894805F055F864E70222029819
S3150800187010F1160105A804F0C1FB607B0F2101FBDE
S3150800188000F9A07B02283FF446AF03287FF44FAF48
S315080018905FFA89F9CDF800902B00DBB29DF8042099
S315080018A0029906A800F094F941E7002003F020F811
S315080018B00BB0BDE8F0830000000C0140A3F01F0048
S315080018C0A0F01F0070BB0008F04C0020F14C00206F
S315080018D0980000202DE9F0418AB004000D00002789
S315080018E00026DFF8740C0078AA281AD12078012877
S315080018F006D014D303280BD006D304280CD00EE048
S315080019000120FFF794F80AE00120FFF7A6F806E0A1
S315080019100120FFF7B8F802E00120FFF7CAF8012016
S31508001920B1E0DFF8340C0078BB2840F0AC8004AF97
S31508001930682038707F1CA02038707F1C5FF0000874
S3150800194007E05FFA88F818F8040038707F1C18F169
S3150800195001085FFA88F8B8F1060FF2DB0020387044
S315080019607F1C042038707F1C042038707F1C902050
S3150800197038707F1CA02038707F1C012038707F1CAF
S31508001980552038707F1C0F2104A8FEF75FFD3870BC
S315080019907F1C162038707F1C5FF0000807E00026C1
S315080019A002AA3900874802F024FD18F10108F6B2A8
S315080019B0002E2DD15FFA88F8B8F1020F28DA112126
S315080019C004A802F081FE02A8019003A800900DF178
S315080019D00A03002241F288317C4802F0FBFA07002C
S315080019E0BDF80800002806D05FFA88F8B8F1010F9C
S315080019F000D10026D9E70622B91C200002F061FDB5
S31508001A000128CDD1B87B03210842C8D10126C7E7F2
S31508001A10F6B2002E34D102A8009003AB00224FF490
S31508001A207A711A4804F068FE4FF48052280B4FF476
S31508001A30805101FB00F1DFF8240B04F0DFFA0120E6
S31508001A404FF48051B5FBF1F202FB1152DFF80C1B83
S31508001A505118C875280B4FF48051484304F08CF987
S31508001A604FF48052280B4FF4805101FB00F1DFF848
S31508001A70EC0A04F019FA02AA0021044804F04AFF05
S31508001A803000C0B2FFE70AB0BDE8F081044B002081
S31508001A90F0B589B0040000260025DFF8BC0A0078F6
S31508001AA0AA281AD12078012806D014D303280BD0E7
S31508001AB006D304280CD00EE00020FEF7B8FF0AE093
S31508001AC00020FEF7CAFF06E00020FEF7DCFF02E072
S31508001AD00020FEF7EEFF01206FE0DFF87C0A0078B1
S31508001AE0BB286AD104AE68203070761CA0203070FE
S31508001AF0761C002704E0FFB2385D3070761C7F1C28
S31508001B00FFB2062FF7DB00203070761C04203070F9
S31508001B10761C04203070761C90203070761CA0202D
S31508001B203070761C01203070761C99203070761C37
S31508001B300F2104A8FEF78AFC3070761C1620307038
S31508001B40761C002706E0002502AA31001D4802F08F
S31508001B5050FC7F1CEDB2002D2CD1FFB2022F29DAE2
S31508001B60112104A802F0B0FD02A8019003A8009074
S31508001B700DF10A0300224FF47A61DFF8780C02F0BF
S31508001B8029FA0600BDF80800002804D0FFB2012F84
S31508001B9000D10025DDE70622B11C200002F091FCE9
S31508001BA00128D1D1B07BC0B210F003000228CAD1F7
S31508001BB00125C9E72800C0B2FFE709B0F0BD00005B
S31508001BC0E24C0020244C002088000020984A00207F
S31508001BD02DE9F04F89B004000D001E0000270020F3
S31508001BE0ADF80A005FF000085FF000095FF0000A30
S31508001BF05FF0000B04A8834668208BF800001BF1F1
S31508001C00010B8BF800201BF1010B0020070006E0F2
S31508001C10FFB2385D8BF800001BF1010B7F1CFFB289
S31508001C20072FF5DB04208BF800001BF1010B0420BD
S31508001C308BF800001BF1010B17208BF800001BF135
S31508001C40010BA0208BF800001BF1010B01208BF87B
S31508001C5000001BF1010B55208BF800001BF1010B4E
S31508001C600F2104A8FEF7F2FB8BF800001BF1010B0D
S31508001C7016208BF800001BF1010B002708E05FF027
S31508001C80000902AA4146DFF8700B02F0B2FB7F1C7E
S31508001C905FFA89F9B9F1000F34D1FFB2022F31DAB0
S31508001CA00421DFF8580B02F00FFD112104A802F0F9
S31508001CB00BFD02A8019003A800900DF10A0300226B
S31508001CC043F69821DFF82C0B02F084F98046BDF81C
S31508001CD00800002805D0FFB2012F01D15FF00009E6
S31508001CE0D5E7072218F10201200002F0EAFB0128D5
S31508001CF0C7D198F80EA003201AEA000FBFD15FF0EB
S31508001D000109BEE702A8009003AB00224FF47A71DE
S31508001D10DFF8EC0A04F0F0FC4FF48052280B4FF47D
S31508001D20805101FB00F1DFF8340804F067F95FFA27
S31508001D3089F9B9F1000F28D15FFA8AFA1AF0030077
S31508001D4003280BD103204FF48051B5FBF1F202FBB7
S31508001D501152DFF808185118887526E04FF480509C
S31508001D60B5FBF0F101FB1051DFF8F0070818807D8C
S31508001D7050F040004FF48051B5FBF1F202FB1152CE
S31508001D80DFF8D817511888750FE04FF48050B5FB67
S31508001D90F0F101FB1051DFF8C407081880F816A007
S31508001DA012993000C0B201F0D1FA280B4FF48051D5
S31508001DB0484303F0E1FF4FF48052280B4FF480515B
S31508001DC001FB00F1DFF8940704F06EF802AA00217F
S31508001DD0DFF82C0A04F09EFD09B0BDE8F08F00007C
S31508001DE07C000020ED4C00202DE9F04F89B004005E
S31508001DF00D001E0000270020ADF80A005FF000085D
S31508001E005FF000095FF0000A5FF0000B04A8834644
S31508001E1068208BF800001BF1010B8BF800201BF1E2
S31508001E20010B0020070006E0FFB2385D8BF80000C2
S31508001E301BF1010B7F1CFFB2072FF5DB04208BF883
S31508001E4000001BF1010B04208BF800001BF1010BAD
S31508001E5017208BF800001BF1010BA0208BF800005F
S31508001E601BF1010B01208BF800001BF1010B9920D7
S31508001E708BF800001BF1010B0F2104A8FEF7E6FA08
S31508001E808BF800001BF1010B16208BF800001BF1E4
S31508001E90010B002708E05FF0000902AA4146DFF8B7
S31508001EA0580902F0A6FA7F1C5FFA89F9B9F1000F02
S31508001EB045D1FFB2022F42DA0421DFF8400902F0C9
S31508001EC003FC112104A802F0FFFB02A8019003A855
S31508001ED000900DF10A03002243F69821DFF8140951
S31508001EE002F078F88046BDF80800002805D0FFB251
S31508001EF0012F01D15FF00009D5E7072218F1020189
S31508001F00200002F0DEFA0128C7D198F80EA05FFA81
S31508001F108AFA1AF00300032802D15FF00009BCE729
S31508001F205FFA8AFA1AF002005FFA8AFA1AF00101D1
S31508001F3051EA60000028AED05FF00109ADE702A8BB
S31508001F40009003AB00224FF47A71DFF8B40804F06E
S31508001F50D3FB4FF48052280B4FF4805101FB00F15C
S31508001F60DFF8F80504F04AF85FFA89F9B9F1000FC5
S31508001F7028D15FFA8AFA1AF0030003280BD1032046
S31508001F804FF48051B5FBF1F202FB1152DFF8CC1584
S31508001F905118887526E04FF48050B5FBF0F101FB27
S31508001FA01051DFF8B8050818807D50F040004FF44E
S31508001FB08051B5FBF1F202FB1152DFF8A01551185A
S31508001FC088750FE04FF48050B5FBF0F101FB105116
S31508001FD0DFF88805081880F816A012993000C0B2F4
S31508001FE001F0B4F9280B4FF48051484303F0C4FEBE
S31508001FF04FF48052280B4FF4805101FB00F1DFF8B3
S315080020005C0503F051FF02AA0021DFF8F40704F08B
S3150800201081FC09B0BDE8F08FEC4C00201FB50CE040
S31508002020BDF80800015D200001F0BEF80DF10A02B6
S315080020302100DFF8C40702F0DCF90DF10A0001906F
S3150800204003A8009002AB00220021DFF8C80D01F0BA
S31508002050C1FF0400207B032802D00A28E0D0E5E768
S31508002060BDF80800015D200000F006F8DEE7000074
S31508002070B44B0020B3F01F002DE9F04188B00400EE
S315080020800D0000260020ADF8060000200290002072
S3150800209006905FF00008607B0F2101FB00F7A07B2C
S315080020A0022812D0032800F0E580062800F02781D0
S315080020B0072800F058810C2800F094810D2800F0BC
S315080020C0D2810E2800F0078242E2A07CDFF8481D84
S315080020D00870607CDFF8441D0870207CDFF8401D1E
S315080020E00870E07BDFF83C1D0870B4F81300DFF8D1
S315080020F0381D08801121DFF8340D02F0AFF90621EA
S3150800210003A802F0ABF9A27CCAA103A804F0A8FCB4
S3150800211003A9DFF8180D03F078F9C7A1DFF80C0D4D
S3150800212003F073F9062103A802F098F9627CC1A1AD
S3150800213003A804F095FC03A9DFF8F00C03F065F991
S31508002140BDA1DFF8E80C03F060F9062103A802F048
S3150800215085F9227CB7A103A804F082FC03A9DFF85D
S31508002160CC0C03F052F9B4A1DFF8C00C03F04DF91A
S31508002170062103A802F072F9E27BAEA103A804F0D7
S315080021806FFC03A9DFF8A40C03F03FF90821DFF878
S31508002190A00C02F063F9062103A802F05FF9B4F86F
S315080021A01320A4A103A804F05BFCDDA1DFF8800CD2
S315080021B003F02BF903A9DFF8780C03F026F9D9A167
S315080021C0DFF86C0C03F021F901A8009005AB00229A
S315080021D04FF47A71DFF8280604F08EFA4FF480720D
S315080021E0DFF8501CDD4803F009FF1122DFF83C1C1C
S315080021F0DFF8440C03F0B4FB0822DFF8341CDFF8E0
S315080022003C0C03F0ADFB0122DFF80C1CDFF8300CA8
S3150800221003F0A6FB0122DFF8041CDFF8280C03F004
S315080022209FFB0122DFF8F81BDFF81C0C03F098FB74
S315080022300122DFF8F01BDFF8140C03F091FB0222F1
S31508002240DFF8E41BDFF8080C03F08AFB4FF4807212
S31508002250DFF8E01BC14803F0F6FD01AA0021DFF80C
S31508002260A00504F057FB3900C9B22800C0B201F036
S315080022706DF86DE10521DFF8DC0B02F0EFF8E07B85
S31508002280DFF8D01B0870207CDFF8C81B4870607C1C
S31508002290DFF8C01B8870A07CDFF8B81BC870E07C2C
S315080022A0DFF8B01B087101A8009005AB00224FF4B7
S315080022B07A71DFF84C0504F01FFA4FF48072DFF8E4
S315080022C0741BA64803F09AFE0522DFF8881BDFF880
S315080022D0880B03F045FB4FF48072DFF8581B9F48C4
S315080022E003F0B1FD01AA0021DFF8140504F012FB82
S315080022F03900C9B22800C0B201F028F828E114F163
S31508002300190000F0D1FC029014F11201029800F0B5
S3150800231027F9804602987FF07F41884222D0E07FE5
S3150800232000280DD17FF07F40804503D041460298B2
S3150800233000F068FA3900C9B22800C0B201F006F800
S31508002340E07F01280ED17FF07F40804504D114F14B
S315080023501201029800F03AF93900C9B22800C0B251
S3150800236000F0F4FFF4E0E07BAA2825D10222DFF88A
S315080023701C1E0DF1060003F041FE0322DFF8101EB5
S3150800238002A803F03BFE00260BE003220298C11CBC
S3150800239006A803F033FE029800F060FD0698029046
S315080023A0761CBDF80600B6B28642EED33900C9B22D
S315080023B02800C0B200F0CAFFE07B552811D114F1FD
S315080023C0100000F071FC7FF07F41884203D114F1C0
S315080023D0100000F09BFC3900C9B22800C0B200F01A
S315080023E0B5FFB5E0E07BAA2802D1AA205A490870B1
S315080023F0E07BBB2802D1BB2057490870E07BFF2849
S3150800240002D1FF205449087001A8009005AB0022AC
S315080024104FF47A71DFF8E80304F06EF94FF480722E
S31508002420DFF8101A4D4803F0E9FD01224A49DFF8A2
S31508002430640D03E0256400002E00000003F090FA06
S315080024404FF48072DFF8EC19444803F0FCFC01AA4B
S315080024500021EB4804F05EFA3900C9B22800C0B280
S3150800246000F074FF74E0E07B002803D10020DFF859
S31508002470281D0870E07BFF2803D1FF20DFF8181D10
S31508002480087001A8009005AB00224FF47A71DC4869
S3150800249004F032F94FF48072DFF898192F4803F0E8
S315080024A0ADFD0122DFF8F01CDFF8F00C03F058FA56
S315080024B04FF48072DFF87C19284803F0C4FC01AA9F
S315080024C00021CF4804F026FA3900C9B22800C0B264
S315080024D000F03CFF3CE0E07BAA2803D1AA20DFF805
S315080024E0C01C0870E07BFF2803D1FF20DFF8B01C72
S315080024F0087001A8009005AB00224FF47A71C04815
S3150800250004F0FAF84FF48072DFF82819134803F03C
S3150800251075FD0122DFF8881CDFF8880C04E000BF8F
S315080025202C0000000D00000003F01AFA4FF4807228
S31508002530DFF80019094803F086FC01AA0021B04813
S3150800254004F0E8F93900C9B22800C0B200F0FEFE6E
S3150800255008B0BDE8F0810000920000209800002035
S3150800256030B585B005000C00002000900020ADF8BD
S315080025700400022215F1120101A803F03FFD03220F
S3150800258015F10C0100A803F039FD002506E0032229
S315080025900098C11C00A803F031FD6D1CBDF80400AD
S315080025A0ADB285420ED207220098811D02A803F01B
S315080025B025FD072202A9200001F083FF0128E6D1A4
S315080025C0009801E07FF07F4005B030BD30B587B098
S315080025D004000D0000200490002002900020ADF8B1
S315080025E004000020ADF8060000200590022214F130
S315080025F0120101A803F002FD0222DFF84C1D0DF1BD
S31508002600060003F0FBFC032214F10F0104A803F0F3
S31508002610F5FCBDF80400401CADF80400BDF8060042
S31508002620401CADF8060003F053FE029002987FF0B6
S315080026307F41884202D17FF07F40D8E00722029886
S31508002640811D280003F0D1FB0122029810F10D012B
S31508002650E81E03F0CAFB0422029810F10E0105A831
S3150800266003F0C3FB0222029810F1160105A803F035
S31508002670BCFB03A8009006AB00224FF47A716048B1
S3150800268004F03AF8BDF80C00002802D07FF07F402D
S31508002690ADE004987FF07F41884246D14FF48052DE
S315080026A0200B4FF4805101FB00F1DFF8480D03F0D1
S315080026B0A5FC032202A94FF48050B4FBF0F303FBF8
S315080026C01043DFF8300D18180C3003F049F90322CF
S315080026D002A94FF48050B4FBF0F303FB1043DFF874
S315080026E0140D18180F3003F03BF9022201A94FF414
S315080026F08050B4FBF0F303FB1043DFF8F80C18180E
S31508002700123003F02DF9200B4FF48051484303F0A3
S3150800271033FB4FF48052200B4FF4805101FB00F13C
S31508002720DFF8D00C03F0C0FB44E04FF48052200BD6
S315080027304FF4805101FB00F1DFF8B80C03F05EFCA2
S31508002740032202A94FF48050B4FBF0F303FB1043B5
S31508002750DFF8A00C18180F3003F002F9022201A9BD
S315080027604FF48050B4FBF0F303FB1043DFF8840CFE
S315080027701818123003F0F4F8200B4FF48051484330
S3150800278003F0FAFA4FF48052200B4FF4805101FB04
S3150800279000F1DFF8600C03F087FB03220498C11CE4
S315080027A002A803F022FB0322029810F1120104A8E2
S315080027B003F01BFB4FF48072DFF87816DFF8340C51
S315080027C003F01CFC02220DF10601DFF82C0C03F0C5
S315080027D0C7F84FF48072DFF85C16DFF8180C03F0C0
S315080027E032FB03AA0021064804F094F8029807B0C1
S315080027F030BD0000984A0020244C002088000020A4
S31508002800044B002070B586B004000D00002003902C
S31508002810002002900020ADF804000020ADF8060064
S31508002820022214F1120101A803F0E8FB0222DFF8E4
S31508002830181B0DF1060003F0E1FB0322E91C03A8AF
S3150800284003F0DCFB032215F1120102A803F0D6FB04
S31508002850BDF80400401EADF80400BDF80600401E91
S31508002860ADF80600280003F0CAFD04A8009005ABE1
S3150800287000224FF47A71DFF8DC0C03F03DFFBDF857
S31508002880040000285DD14FF48052200B4FF480518C
S3150800289001FB00F1DFF85C0B03F0B0FB032203A990
S315080028A04FF48050B4FBF0F303FB1043DFF8440BFE
S315080028B018180C3003F054F8022201A94FF480507E
S315080028C0B4FBF0F303FB1043DFF8280B181812309B
S315080028D003F046F8032202A94FF48050B4FBF0F344
S315080028E003FB1043DFF80C0B18180F3003F038F809
S315080028F0200B4FF48051484303F03EFA4FF48052C0
S31508002900200B4FF4805101FB00F1DFF8E80A03F0D1
S31508002910CBFA4FF48072DFF81C15DFF8D80A03F0FB
S315080029206DFB02220DF10601DFF8CC0A03F018F858
S315080029304FF48072DFF8FC14DFF8B80A03F083FA64
S31508002940A9E102987FF07F41884205D003987FF07D
S315080029507F41884240F0048102987FF07F41884297
S315080029607CD14FF480520398000B4FF4805101FB41
S3150800297000F1DFF8800A03F041FB032202A903985D
S315080029804FF48053B0FBF3F606FB1306DFF8640A30
S315080029903018123002F0E4FF0398000B4FF4805110
S315080029A0484303F0E9F94FF480520398000B4FF4BB
S315080029B0805101FB00F1DFF83C0A03F075FA4FF489
S315080029C08052200B4FF4805101FB00F1DFF8240AF6
S315080029D003F014FB032203A94FF48050B4FBF0F371
S315080029E003FB1043DFF80C0A18180C3002F0B8FF86
S315080029F0022201A94FF48050B4FBF0F303FB104305
S31508002A00DFF8F0091818123002F0AAFF200B4FF46D
S31508002A108051484303F0B0F94FF48052200B4FF42D
S31508002A20805101FB00F1DFF8CC0903F03DFA4FF4C1
S31508002A308072DFF80014DFF8BC0903F0DFFA02221F
S31508002A400DF10601DFF8B00902F08AFF4FF4807233
S31508002A50DFF8E013DFF89C0903F0F5F903987FF037
S31508002A607F41884240F017814FF480520298000B4C
S31508002A704FF4805101FB00F1DFF8780903F0BEFA44
S31508002A80032203A902984FF48053B0FBF3F606FB22
S31508002A901306DFF860093018C01C02F061FF0298BF
S31508002AA0000B4FF48051484303F066F94FF4805207
S31508002AB00298000B4FF4805101FB00F1DFF834094E
S31508002AC003F0F2F94FF48052200B4FF4805101FBCA
S31508002AD000F1DFF8200903F091FA032202A94FF466
S31508002AE08050B4FBF0F303FB1043DFF8080918180D
S31508002AF00F3002F035FF022201A94FF48050B4FBD3
S31508002B00F0F303FB1043DFF8EC081818123002F054
S31508002B1027FF200B4FF48051484303F02DF94FF45B
S31508002B208052200B4FF4805101FB00F1DFF8C408F6
S31508002B3003F0BAF94FF48072BE49DFF8B80803F01B
S31508002B405DFA02220DF10601DFF8AC0802F008FF73
S31508002B504FF48072B749DFF89C0803F074F99AE0DD
S31508002B604FF480520298000B4FF4805101FB00F19C
S31508002B70DFF8800803F042FA032203A902984FF40B
S31508002B808053B0FBF3F606FB1306DFF86808301827
S31508002B90C01C02F0E5FE0298000B4FF48051484332
S31508002BA003F0EAF84FF480520298000B4FF4805174
S31508002BB001FB00F1DFF83C0803F076F94FF4805288
S31508002BC00398000B4FF4805101FB00F1DFF824084D
S31508002BD003F014FA032202A903984FF48053B0FBBA
S31508002BE0F3F606FB1306DFF80C083018123002F06D
S31508002BF0B7FE0398000B4FF48051484303F0BCF826
S31508002C004FF480520398000B4FF4805101FB00F1FA
S31508002C10DFF8E00703F048F94FF48052200B4FF431
S31508002C20805101FB00F1DFF8CC0703F0E7F9022237
S31508002C3001A94FF48050B4FBF0F303FB1043DFF80F
S31508002C40B4071818123002F08BFE200B4FF480518F
S31508002C50484303F091F84FF48052200B4FF480510B
S31508002C6001FB00F1DFF88C0703F01EF94FF48072C0
S31508002C707049DFF8800703F0C1F902220DF1060159
S31508002C80DFF8740702F06CFE4FF480726949DFF8CA
S31508002C90640703F0D8F804AA0021DFF8B80803F09F
S31508002CA039FE280006B070BD30B585B00400002096
S31508002CB000900222DFF8D41401A803F09FF903223A
S31508002CC0DFF8CC1400A803F099F9002506E00322E2
S31508002CD00098C11C00A803F091F96D1CBDF804000A
S31508002CE0ADB285420ED206220098811D02A803F0D5
S31508002CF085F9062202A9200001F0E3FB0128E6D1A6
S31508002D00009801E07FF07F4005B030BD10B586B071
S31508002D10040000200490002002900020ADF8040072
S31508002D200020ADF80C000222DFF8601401A803F0B9
S31508002D3065F90322DFF8201804A803F05FF9BDF847
S31508002D400400401CADF8040003F0C2FA0290062203
S31508002D500298811D200003F048F80222029810F11B
S31508002D60120103A803F041F80DF10600009005AB27
S31508002D7000224FF47A71DFF8DC0703F0BDFC4FF44C
S31508002D808072DFF87816DFF86C0603F037F90498D6
S31508002D907FF07F41884212D1032202A9DFF8D80CBE
S31508002DA002F0DEFD022201A9DFF8D00C02F0D8FD00
S31508002DB0032202A9DFF8C80C02F0D2FD18E00222AD
S31508002DC001A9DFF8B80C02F0CBFD032202A9DFF84F
S31508002DD0B00C02F0C5FD03220498C11C02A803F03A
S31508002DE004F80322029810F1140104A802F0FDFF6A
S31508002DF04FF48072DFF80416DFF8F80503F023F8BD
S31508002E000DF106020021DFF84C0703F083FD029856
S31508002E1006B010BDBC4A0020940000209500002092
S31508002E209600002097000020900000205000002007
S31508002E307400002000F01F00E800002008010020B0
S31508002E4007010020060100200501002004010020DA
S31508002E50160100207C0000201801002030B589B03A
S31508002E6004000020ADF8060000200590002006901A
S31508002E7000200390002002900020ADF804000025F1
S31508002E80022214F112010DF1060003F0B7F803222D
S31508002E9014F10C0105A803F0B1F80322E11C03A8FC
S31508002EA003F0ACF8032214F1140102A803F0A6F803
S31508002EB00222DFF8A81601A803F0A0F8BDF804005E
S31508002EC0401EADF80400002005000CE0032205981A
S31508002ED0C11C06A803F092F805992000FFF792FC9A
S31508002EE0069805906D1CBDF80600ADB28542EDD377
S31508002EF0200003F084FA04A8009007AB00224FF4E0
S31508002F007A71DFF8500603F0F7FBBDF804000028D5
S31508002F1022D14FF48072DFF8E414DFF8D80403F006
S31508002F206DF8032203A9DFF8500B02F019FD0222FF
S31508002F3001A9DFF8480B02F013FD032202A9DFF806
S31508002F40400B02F00DFD4FF48072DFF8B014DFF885
S31508002F50A40402F078FF0FE102987FF07F418842CF
S31508002F6005D003987FF07F41884240F09D80029803
S31508002F707FF07F41884249D14FF480520398000B75
S31508002F804FF4805101FB00F1DFF8680403F036F8CE
S31508002F90032202A903984FF48053B0FBF3F505FB0F
S31508002FA01305DFF850042818143002F0D9FC0398EA
S31508002FB0000B4FF48051484302F0DEFE4FF4805276
S31508002FC00398000B4FF4805101FB00F1DFF824044D
S31508002FD002F06AFF4FF48072DFF82014DFF8140459
S31508002FE003F00CF8032203A9DFF88C0A02F0B8FCF8
S31508002FF0022201A9DFF8840A02F0B2FC4FF48072BB
S31508003000DFF8F813DFF8EC0302F01DFF03987FF0F2
S315080030107F41884240F0B0804FF480520298000BFE
S315080030204FF4805101FB00F1DFF8C80302F0E6FF18
S31508003030032203A902984FF48053B0FBF3F505FB6E
S315080030401305DFF8B0032818C01C02F089FC0298A3
S31508003050000B4FF48051484302F08EFE4FF4805225
S315080030600298000B4FF4805101FB00F1E14802F091
S315080030701BFF4FF48072DFF88413DE4802F0BEFFB0
S31508003080022201A9DFF8F40902F06AFC032202A968
S31508003090DFF8EC0902F064FC4FF48072DFF85C1389
S315080030A0D44802F0D0FE67E04FF480520298000B35
S315080030B04FF4805101FB00F1CE4802F09FFF032236
S315080030C003A902984FF48053B0FBF3F505FB1305EB
S315080030D0C8482818C01C02F043FC0298000B4FF49D
S315080030E08051484302F048FE4FF480520298000B84
S315080030F04FF4805101FB00F1BE4802F0D5FE4FF4B3
S3150800310080520398000B4FF4805101FB00F1B94837
S3150800311002F074FF032202A903984FF48053B0FB10
S31508003120F3F505FB1305B3482818143002F018FC0C
S315080031300398000B4FF48051484302F01DFE4FF4EC
S3150800314080520398000B4FF4805101FB00F1A94807
S3150800315002F0AAFE4FF48072A849A64802F04EFF74
S31508003160022201A9DFF8140902F0FAFB4FF4807273
S31508003170A249A04802F067FE04AA0021DFF8D4039A
S3150800318003F0C8FB200009B030BD0000A3F01F0003
S31508003190A0F01F005801002093000020C80000205E
S315080031A0E24C00205901002080B50A00417B0F231C
S315080031B05943837B022B0CD0032B10D0062B14D03B
S315080031C0072B1BD00C2B1FD00D2B23D00E2B27D053
S315080031D02BE0C9B21000C0B200F0B4FC25E0C9B2B9
S315080031E01000C0B200F04EFC1FE00B00DBB2D2B2FA
S315080031F010F11001C07B00F0B3F916E0C9B2100057
S31508003200C0B200F0FDF810E0C9B21000C0B200F07C
S3150800321012FD0AE0C9B21000C0B200F070FD04E069
S31508003220C9B21000C0B200F0CEFD01BD30B587B0FE
S315080032300024002516E04021DFF8C40C02F029FD21
S3150800324000AA00214FF47A7001F098FB4021DFF8BC
S31508003250B00C02F021FD00AA00214FF47A7001F0AB
S315080032608DFB0024DFF89C0C00780028E3D0402171
S31508003270DFF88C0C02F00DFD00AA00214FF49670C1
S3150800328001F07CFB4021DFF8780C02F005FD00AA6E
S3150800329000214FF4967001F071FBDFF86C0C007892
S315080032A00028DFD0641CE4B20F2CDBDB002401AD60
S315080032B0682028706D1C272028706D1C0020287037
S315080032C06D1C272028706D1C002028706D1C682036
S315080032D028706D1CCA2028706D1CDFF8300C007829
S315080032E028706D1CDFF8240C407828706D1CDFF8F8
S315080032F01C0C807828706D1CDFF8100CC0782870BC
S315080033006D1CDFF8080C007928706D1C0F202870DA
S315080033106D1CDFF8FC0B007850F0600028706D1CFF
S31508003320DFF8F00B007828706D1C09210DF10A00F2
S31508003330FDF78CF828706D1C162028706D1C11215D
S3150800334001A801F057FF8DE7B3F01F0030B585B02F
S31508003350040000AD682028706D1C272028706D1C9D
S31508003360002028706D1C272028706D1C00202870EE
S315080033706D1C682028706D1C802028706D1CDFF875
S315080033808C0B007828706D1CDFF8800B407828704D
S315080033906D1CDFF8780B807828706D1CDFF86C0BD5
S315080033A0C07828706D1CDFF8640B007928706D1CD6
S315080033B0002028706D1C51F0600028706D1C0120DB
S315080033C028706D1C09210DF10600FDF73FF82870DD
S315080033D06D1C162028706D1CE4B2002C04D0112137
S315080033E000A801F007FF03E0112100A801F0D8F9B1
S315080033F005B030BD980000204B01002000F01F00EA
S31508003400F0B585B004000F000DF10201DFF8080BD6
S3150800341000F0CCFF0600002E00F09980350003224C
S31508003420DFF8F81A01A802F0E9FD02224B4900A8C4
S3150800343002F0E4FD68203070761CBDF80000062115
S3150800344048430930800050F003003080B61CBDF8B0
S315080034500000062148430930800050F00300308000
S31508003460B61C68203070761C88203070761CDFF811
S315080034709C0A00783070761CDFF8900A4078307025
S31508003480761CDFF8880A80783070761CDFF87C0AAC
S31508003490C0783070761CDFF8740A00793070761CB4
S315080034A00A203070761C57F060003070761C0720B2
S315080034B03070761C00270FE0C0B202A9415C31705B
S315080034C0761C401CC0B20628F6DB03220198C11CF4
S315080034D001A802F093FD7F1CBDF80000BFB2874229
S315080034E007D206220198811D02A802F087FD002056
S315080034F0E8E7BDF800000621484310F1090189B242
S31508003500A81DFCF7A3FF3070761C16203070761CB9
S31508003510E4B2002C0AD0BDF800000621484310F199
S31508003520110189B2280001F065FE09E0BDF8000026
S315080035300621484310F1110189B2280001F030F93B
S315080035400DF102022900DFF8D00900F052FF05B09C
S31508003550F0BD0000044B0020A5F01F00A3F01F00DB
S315080035602DE9FF4F8BB05FF0000A5FF000080025D9
S3150800357000265FF0000B5FF000090020ADF80000A0
S3150800358000270222DFF898190DF10A0002F036FD2D
S315080035900222DFF8901904A802F030FD0322DFF8B2
S315080035A07C1903A802F02AFDBDF80A00002800F0DD
S315080035B0608206A9DFF8600900F0F8FE0400002C16
S315080035C000F0578205940722DFF85C190C9800F082
S315080035D078FF012840F07681BDF810000A2190FB9B
S315080035E0F1F0BDF810100A2291FBF2F302FB131159
S315080035F08DF802105FF00008ADF808009DF802008B
S31508003600002804D0BDF80800401CADF808000025C5
S3150800361006E003220398C11C03A802F0EFFC6D1C08
S31508003620BDF80A00ADB2854280F01D8206220398D5
S31508003630811D09A802F0E2FC0322039810F10C018F
S3150800364001A802F0DBFC0222039810F112010DF129
S31508003650120002F0D3FC002616E0BDF80000112186
S31508003660484310F1120189B2059801F099F806AAA3
S315080036700021642001F082F9059C03220198C11CEF
S3150800368001A802F0BBFC761CBDF81200B6B2864251
S31508003690BFD207220198811D07A802F0AFFC0122BC
S315080036A0019810F10D010DF1030002F0A7FC0122AB
S315080036B0019810F115010DF11A0002F09FFCFFB2F6
S315080036C0002F40F0A880012718F101086820207013
S315080036D0641CBDF8080001280CD1BDF81090ADF89F
S315080036E00090BDF80000112148430A30800050F0D0
S315080036F0030A39E01FFA88F8B8F1010F0CD15FF018
S315080037000A09ADF80090BDF80000112148430A30B7
S31508003710800050F0030A27E0BDF808001FFA88F871
S31508003720804515D19DF80200002804D15FF00A09EA
S31508003730ADF8009003E09DF80290ADF80090BDF852
S315080037400000112148430A30800050F0030A0BE0BC
S315080037505FF00A09ADF80090BDF800001121484352
S315080037600A30800050F0030AA4F800A0A41CA4F8AC
S3150800377000A0A41C68202070641C88202070641C8B
S31508003780DFF8880700782070641CDFF88007407827
S315080037902070641CDFF8740780782070641CDFF8DA
S315080037A06C07C0782070641CDFF860070079207009
S315080037B0641C0A202070641CBDF80800012806D184
S315080037C09DF8380050F060002070641C1CE01FFA59
S315080037D088F8B8F1010F06D19DF8380050F040007E
S315080037E02070641C10E0BDF808001FFA88F88045B0
S315080037F006D19DF8380050F020002070641C03E0C4
S315080038009DF838002070641C06202070641C9DF802
S315080038102C002070641C00202070641C002020707E
S31508003820641C5FF0000B08E05FFA8BFB07A81BF827
S3150800383000002070641C1BF1010B5FFA8BFBBBF1C7
S31508003840070FF1DB5FF0000B08E05FFA8BFB09A8B6
S315080038501BF800002070641C1BF1010B5FFA8BFB40
S31508003860BBF1060FF1DB00202070641C01202070DC
S31508003870641CB9F101091FFA89F9B9F1000F7FF43F
S31508003880FCAE0027BDF800001121484310F10A01DB
S3150800389089B20598801DFCF7D9FD2070641C162096
S315080038A02070641C9DF8340000283FF4D6AEBDF89D
S315080038B000001121484310F1120189B2059801F060
S315080038C099FCD4E6002531E003220198C11C01A821
S315080038D002F094FB761CBDF81200B6B2864224D2DA
S315080038E007220198811D07A802F088FB012201988A
S315080038F010F10D010DF1030002F080FB072207A964
S315080039000C9800F0DEFD0128DED19DF803009DF835
S315080039102C108842D8D10122019810F115010DF119
S315080039201A0002F06BFB5FF001086D1C5FFA88F85D
S31508003930B8F1000F1BD1BDF80A00ADB2854216D208
S3150800394006220398811D09A802F058FB0322039852
S3150800395010F10C0101A802F051FB0222039810F1A4
S3150800396012010DF1120002F049FB0026B3E75FFAD7
S3150800397088F8B8F1000F76D068202070641C6F2094
S315080039802070641C00202070641C6F202070641C4A
S3150800399000202070641C68202070641C8820207019
S315080039A0641CDFF8680500782070641CDFF85C0585
S315080039B040782070641CDFF8540580782070641CF9
S315080039C0DFF84805C0782070641CDFF840050079E8
S315080039D02070641C0A202070641C9DF8380050F082
S315080039E060002070641C06202070641C9DF82C0062
S315080039F02070641C00202070641C00202070641C49
S31508003A00002505E0ADB207A8285C2070641C6D1C73
S31508003A10ADB2072DF6DB002505E0ADB209A8285C96
S31508003A202070641C6D1CADB2062DF6DB00202070DC
S31508003A30641C01202070641C1B210598801DFCF75E
S31508003A4005FD2070641C16202070641C9DF8340047
S31508003A50002804D02321059801F0CCFB03E023219C
S31508003A60059800F09DFE06AA0599DFF8AC0400F05B
S31508003A70C0FC0FB0BDE8F08F380100203B010020E4
S31508003A803D010020F8B504000D0000A9DFF8880400
S31508003A9000F08CFC0700002F53D03E0068203870D9
S31508003AA07F1C272038707F1C002038707F1C272039
S31508003AB038707F1C002038707F1C682038707F1C87
S31508003AC0882038707F1CDFF84404007838707F1C23
S31508003AD0DFF83804407838707F1CDFF830048078C7
S31508003AE038707F1CDFF82404C07838707F1CDFF834
S31508003AF01C04007938707F1C0A2038707F1C55F02A
S31508003B00600038707F1C032038707F1C0921B01DA7
S31508003B10FCF79CFC38707F1C162038707F1CE4B2BA
S31508003B20002C04D01121300001F064FB03E01121C0
S31508003B30300000F035FE00AA3100DFF8DC0300F0A3
S31508003B4058FCF1BD2DE9F04182B004000D000027B4
S31508003B5000265FF0000800A9DFF8BC0300F026FC89
S31508003B600700002F65D03E00682038707F1C3F2074
S31508003B7038707F1C002038707F1C3F2038707F1CEF
S31508003B80002038707F1C682038707F1C88203870A9
S31508003B907F1CDE48007838707F1CDC484078387017
S31508003BA07F1CDA48807838707F1CD848C07838700F
S31508003BB07F1CD648007938707F1C0A2038707F1C15
S31508003BC055F0600038707F1C022038707F1CD7487B
S31508003BD0007838707F1CD648007838707F1CD54826
S31508003BE0007838707F1CD448007838707F1CB84637
S31508003BF0D2480088A8F8000018F1020847460F21A5
S31508003C00B01DFCF723FC38707F1C162038707F1C0B
S31508003C10E4B2002C04D01721300001F0EBFA03E0DF
S31508003C201721300000F0BCFD00AA3100BA4800F0A8
S31508003C30E0FBBDE8F3812DE9F04182B004000D00F8
S31508003C40002700265FF0000800A9B34800F0AEFB85
S31508003C500700002F51D03E00682038707F1C2B20AB
S31508003C6038707F1C002038707F1C2B2038707F1C12
S31508003C70002038707F1C682038707F1C88203870B8
S31508003C807F1CA248007838707F1CA048407838709E
S31508003C907F1C9E48807838707F1C9C48C078387096
S31508003CA07F1C9A48007938707F1C0A2038707F1C60
S31508003CB055F0600038707F1C0C2038707F1CA048B7
S31508003CC0007838707F1C0A21B01DFCF7BFFB3870DE
S31508003CD07F1C162038707F1CE4B2002C04D01221F9
S31508003CE0300001F087FA03E01221300000F058FD99
S31508003CF000AA3100884800F07CFBBDE8F3812DE975
S31508003D00F04182B004000D00002700265FF000088D
S31508003D1000A9814800F04AFB0700002F51D03E0059
S31508003D20682038707F1C2B2038707F1C0020387064
S31508003D307F1C2B2038707F1C002038707F1C682061
S31508003D4038707F1C882038707F1C7048007838705F
S31508003D507F1C6E48407838707F1C6C4880783870B5
S31508003D607F1C6A48C07838707F1C684800793870AC
S31508003D707F1C0A2038707F1C55F0600038707F1C45
S31508003D800D2038707F1C6F48007838707F1C0A2118
S31508003D90B01DFCF75BFB38707F1C162038707F1C43
S31508003DA0E4B2002C04D01221300001F023FA03E01B
S31508003DB01221300000F0F4FC00AA3100564800F049
S31508003DC018FBBDE8F3812DE9F04182B004000D002F
S31508003DD0002700265FF0000800A94F4800F0E6FA21
S31508003DE00700002F51D03E00682038707F1C2B201A
S31508003DF038707F1C002038707F1C2B2038707F1C81
S31508003E00002038707F1C682038707F1C8820387026
S31508003E107F1C3E48007838707F1C3C4840783870D4
S31508003E207F1C3A48807838707F1C3848C0783870CC
S31508003E307F1C3648007938707F1C0A2038707F1C32
S31508003E4055F0600038707F1C0E2038707F1C3E4885
S31508003E50007838707F1C0A21B01DFCF7F7FA387015
S31508003E607F1C162038707F1CE4B2002C04D0122167
S31508003E70300001F0BFF903E01221300000F090FC99
S31508003E8000AA3100244800F0B4FABDE8F38100B571
S31508003E9085B002A8019003A800904FF4847300220D
S31508003EA001212A4802F029FE02AA00214FF4FA70DD
S31508003EB000F064FD0121264801F0E0FE0028E8D163
S31508003EC04FF40041224801F0E4FE4FF40051214826
S31508003ED001F0E2FE4FF40071094801F0DAFE02AA89
S31508003EE00021642000F04AFD4FF40071044801F0F7
S31508003EF0D3FE02AA0021642000F040FDEAE7000094
S31508003F00000C0140E14C0020F04C00207C00002011
S31508003F10ED4C0020F14C0020244C0020A0F01F009E
S31508003F20A3F01F00B3F01F0070BB00089700002025
S31508003F3096000020950000209400002090000020A4
S31508003F409200002093000020E24C0020084C00203C
S31508003F5000080140001001402DE9F04106000F005D
S31508003F6090461C000025DFF8BC020078002803D024
S31508003F7042F6E16020802BE0002E03D145F6C350BF
S31508003F80208025E01FFA88F8B8F1000F03D146F221
S31508003F90945020801CE001F0F7FD0500DFF8880248
S31508003FA030607760414689B216F1140003F031F9A2
S31508003FB016F1080003F04EFCDFF870020088401C7A
S31508003FC0DFF868120880280001F0E2FD0020208052
S31508003FD0BDE8F0812DE9F04F89B004000D00160008
S31508003FE01F005FF00008DDF84C908E480078002826
S31508003FF005D046F2AE10A9F800000020C6E0002C55
S3150800400005D145F6C350A9F800000020BEE0002FF0
S3150800401005D146F2D520A9F800000020B6E0B6B2D0
S315080040203000002802D0B0F5004F1FD120687E4925
S31508004030884221D1DDF848A0BAF1000F02D000204D
S31508004040CAF8000001F0A0FD80464B4652463900EA
S3150800405014F1140003F0E7F88346B9F800000028C5
S3150800406010D1404601F094FD58468FE045F625608C
S31508004070A9F80000002089E045F6C450A9F8000018
S31508004080002083E0300408D5404601F081FD46F261
S31508004090B010A9F80000002078E0654800780028EC
S315080040A008D0404601F074FD46F66350A9F80000B2
S315080040B000206BE02B000522210000A803F066FB18
S315080040C0404601F065FD03F049FA01F05DFD8046C2
S315080040D05848006890F83500002805D0022838D0DE
S315080040E017D3032826D045E052480068D0F85CB0BC
S315080040F050480068B0F860003880BAF1000F04D064
S315080041004C480068006CCAF800000020A9F80000B6
S3150800411038E05FF0000B00203880BAF1000F04D0B9
S3150800412044480068006CCAF8000046F2A910A9F8CD
S31508004130000027E05FF0000B00203880BAF1000F7E
S3150800414002D00020CAF8000047F2D920A9F80000DA
S3150800415018E05FF0000B00203880BAF1000F04D099
S3150800416034480068006CCAF8000045F6C250A9F841
S31508004170000007E05FF0000B0020388046F62E604E
S31508004180A9F80000404601F003FD584609B0BDE80D
S31508004190F08F2DE9FC4105000E0017009846089C93
S315080041A0002D03D145F6C35020802AE01FFA88F86F
S315080041B04046002815D0102813D0B0F5007F10D03F
S315080041C0B0F5047F0DD0B0F5004F0AD048F21001C3
S315080041D0884206D0B0F5024F03D048F21021884233
S315080041E011D128681049884211D103F084FD019441
S315080041F0009043469BB23A0092B23100280000F084
S315080042001BF8BDE8F38145F625602080F9E745F6F9
S31508004210C4502080F5E70021044A1180002101805E
S3150800422070470000E34C002051554555DA4C0020F4
S31508004230E84C0020BC4C00202DE9F04F83B0040068
S315080042400D0016001F005FF0000A01F09DFC824673
S3150800425014F10800DDF83080DDF834900189002972
S3150800426014D1F80601D4002300E01023CDF80490F9
S31508004270CDF800809BB2320092B2290014F11400E6
S3150800428003F009F8504601F083FC25E0B90502D58C
S31508004290B0F808B001E05FF0010B00680DE0816836
S315080042A040680190CDF8008033009BB22A002000B8
S315080042B003F046FB0198BBF1010B1FFA8BFBBBF120
S315080042C0000FECD1504601F063FC380401D403F02A
S315080042D045F90020A9F80000BDE8F78F2DE9F84355
S315080042E005000E00170098460020DDF8249058496E
S315080042F00978002904D045F2B960A9F8000053E00E
S31508004300002F04D145F2BB60A9F800004CE01FFA63
S3150800431088F8B8F1020F04DA45F2BC60A9F8000083
S3150800432042E0089CA4B2042C04D245F2C160A9F864
S31508004330000039E0032000280FD0074204D045F2D8
S31508004340BB60A9F800002FE0210089B2014204D021
S3150800435045F2C160A9F8000026E03B003A00B8F132
S315080043600101002004E0A4B2A2181A601300401C40
S3150800437080B289B28842F6D30020186001F004FCA6
S3150800438034492960AE606F60EF60A5F81480A5F81F
S3150800439012802C8230490988491C2F4A118001F065
S315080043A0F7FB0020A9F80000BDE8F18370B5050009
S315080043B00C000020002D04D145F2BF6020800020AB
S315080043C016E001F0E1FBA98A002906D101F0E0FB1D
S315080043D045F2C260208000200AE0EE683168E96094
S315080043E0A98A491EA98201F0D3FB0020208030004B
S315080043F070BD70B505000E0014000020002D03D115
S3150800440045F2BF6020801BE0002E03D145F2BE6056
S31508004410208015E001F0B8FBA98A6A8A914205D383
S3150800442001F0B6FB45F2BA60208009E0E968316020
S31508004430EE60A98A491CA98201F0AAFB0020208007
S3150800444070BD0021044A11800021018070470000D8
S31508004450E34C00204D454D20D64C002080B50A007F
S31508004460002100F001F801BD30B4002A27D0002849
S3150800447025D00023002403E01B02C9B20B43641CA9
S31508004480042CF9D30425B0FBF5F404FB1504E4B2B7
S31508004490002C08D003E00170401C521E641C002A40
S315080044A001D0042CF7D302E00360001D121F042A72
S315080044B0FAD202E00170401C521E002AFAD130BC22
S315080044C0704770B41300002B01D1012052E0002878
S315080044D001D100204EE0002901D100204AE0012246
S315080044E0181859180425B0FBF5F404FB1504E4B2B2
S315080044F00426B1FBF6F505FB1615EDB2AC4201D163
S31508004500012500E00025EDB2012D2CD1002C10D09C
S3150800451008E0401E491E05780E78B54200D00022F4
S315080045205B1E641ED2B2012A03D1002B01D0002CD7
S31508004530EFD1D2B2012A16D107E0001F091F04687D
S315080045400D68AC4200D000221B1FD2B2012A01D14D
S31508004550042BF2D207E0401E491E04780D78AC42BF
S3150800456000D000225B1ED2B2012A01D1002BF2D163
S315080045701000C0B270BC704780B52021DFF8C403B4
S3150800458003F063FC00281CD0DFF8B80303F059FCDD
S31508004590DFF8B4130968002913D0DFF8B0130968E7
S315080045A0DFF8A4231268891AFF290ADADFF89C13B0
S315080045B009680870DFF894030068401CDFF88C135C
S315080045C008604021DFF87C0303F03FFC002810D088
S315080045D040F22661DFF86C0303F044FC00AA0021D0
S315080045E0DFF86C0301F017F9BDF80000002800D0C9
S315080045F000BF01BD1CB52021DFF8580303F025FCD8
S31508004600002817D0DFF84C0303F01BFC040001A9AF
S31508004610D148FFF7CBFE0100BDF80400002808D1F9
S315080046200C7001A8009000230122CC48FFF7B1FDC9
S3150800463000E000BF4021C74803F007FC00280ED061
S3150800464040F22661C34803F00DFC01AA0021C448C4
S3150800465001F0E1F8BDF80400002800D000BF13BD42
S315080046601CB52021BF4803F0F0FB002816D0BD4832
S3150800467003F0E7FB040001A9B748FFF797FE01001E
S31508004680BDF80400002808D10C7001A8009000238A
S315080046900122B248FFF77DFD00E000BF4021B14886
S315080046A003F0D3FB00280ED040F22661AD4803F094
S315080046B0D9FB01AA0021AC4801F0ADF8BDF8040009
S315080046C0002800D000BF13BD70B584B004000D00EB
S315080046D0A6480078AA282BD1012240F22661A148D3
S315080046E003F082FB002612E00020ADF8040001A8C2
S315080046F0009002AB00224FF4FA719B4800F0D1FFFC
S31508004700B6B2315D89B2974803F097FB761CB6B20C
S31508004710ADB2AE42E8D3002240F22661914803F0DA
S3150800472063FB40218F4803F090FB002835D1F8E75A
S315080047304FF480718E4801F0ACFA012240F22661EE
S31508004740844803F051FB002612E00020ADF804006F
S3150800475001A8009002AB00224FF4FA71804800F0DD
S31508004760A0FFB6B2315D89B27A4803F066FB761CC3
S31508004770B6B2ADB2AE42E8D3002240F22661754821
S3150800478003F032FB4021734803F05FFB0028F9D0A1
S315080047904FF48071764801F07FFA012004B070BDAD
S315080047A070B584B004000D004FF48071704801F0B4
S315080047B070FA012240F22661664803F015FB0026CE
S315080047C012E00020ADF8040001A8009002AB002218
S315080047D04FF4FA71624800F064FFB6B2315D89B2EF
S315080047E05C4803F02AFB761CB6B2ADB2AE42E8D3FB
S315080047F0002240F22661574803F0F6FA4021554850
S3150800480003F023FB0028F9D04FF48071584801F0D3
S3150800481043FA012004B070BD70B584B004000D00E1
S31508004820012240F22661474803F0DEFA002606E038
S31508004830B6B2315D89B2434803F0FFFA761CB6B2C8
S31508004840ADB2AE420DD201A8009002AB00223221D1
S315080048503F4800F026FFBDF804000028E8D00020F5
S3150800486006E0002240F22661364803F0BDFA012030
S3150800487004B070BD10B584B00400012240F2266170
S31508004880304803F0B1FA40F226612E4803F0EAFAFE
S3150800489005E0217889B22B4803F0CFFA641C20780A
S315080048A000280DD001A8009002AB0022322128482A
S315080048B000F0F7FEBDF804000028EAD0002006E064
S315080048C0002240F226611F4803F08EFA012004B048
S315080048D010BD38B50400002501F056F905001B483F
S315080048E0046019480460280001F052F9012032BD1D
S315080048F080B50021C0B2002809D001F045F90100B1
S3150800490001201C4A1070080001F042F908E001F085
S315080049103BF901000020174A1070080001F038F929
S31508004920012002BD80B5012003F0F2FA002808D064
S3150800493000AB00220121104802F0E5FA012003F03D
S31508004940F9FA01BD00480040D04C0020CC4C0020AC
S31508004950444B0020003801403C4C0020504A0020BF
S31508004960604B0020004400407C4B00209200002051
S3150800497000080140E14C0020084C0020F8B505006D
S315080049800E0014000027DFF858020078002803D02C
S3150800499047F27520208040E0DFF8480200780028BA
S315080049A003D046F66350208037E0B6B230000028C0
S315080049B005D0022803D004281FD008281ED1002DB0
S315080049C003D147F27E20208027E001F0DDF80700BA
S315080049D00120DFF81412096881F836002300320036
S315080049E092B229008048006803F02AFB2088002834
S315080049F008D0380001F0CCF80FE0E6E745F6256068
S31508004A0020800AE07848006803F084F8380001F04E
S31508004A10BFF802F0A3FD00202080F1BDF8B5002400
S31508004A20079D6F4E3678002E03D047F275202880F2
S31508004A30AFE06C4C2478002C03D046F663502880EF
S31508004A40A7E0069C14F00E06B6B23700002F05D074
S31508004A50022F03D0042F17D0082F16D1002B0CD104
S31508004A6092B2002A09D189B2002906D180B200285B
S31508004A7003D147F27E2028808BE04FF6E17C14EACA
S31508004A800C0F06D1002705E0F7E745F625602880D4
S31508004A907FE00127FFB2012F03D145F62560288064
S31508004AA077E0C4F30014A4B214F00104E4B2012CB4
S31508004AB01BD0B3F57A7F03D347F27B20288068E0C2
S31508004AC092B23C2A03DB47F27A20288061E089B259
S31508004AD03C2903DB47F2792028805AE080B2642813
S31508004AE014DB47F27820288053E089B242F210742A
S31508004AF0A14203DB47F2792028804AE080B2B0F56C
S31508004B007A7F03DB47F27820288042E0374C246816
S31508004B1080B24FF4616789B25FF03C0C0CFB01F17F
S31508004B2007FB001092B210184FF4FA71B1FBF4F1BA
S31508004B30C91801FB04F14FF47A72B1FBF2F104FBD8
S31508004B400017002F22D001F01FF804000120264983
S31508004B50096881F836002B00320092B239002248E3
S31508004B60006803F06DFA2888002803D0200001F0B9
S31508004B700FF80EE01C48006802F0CCFF200001F098
S31508004B8007F802F0EBFC0020288002E047F27E20BE
S31508004B902880F1BD10B582B003F07FFC00AA002181
S31508004BA0134803F0E3FE0400124800780C21124A69
S31508004BB001FB002002F0DCFF10480068401E0F4988
S31508004BC008600E480068002808D10D4800680B499F
S31508004BD0086000AA00210B4803F0C8FE13BD0000B8
S31508004BE0E34C0020E84C0020BC4C0020A0BB000889
S31508004BF060470020E54C0020D83E0020B84C002035
S31508004C00B44C00201448002038B50C001500FFF7F6
S31508004C1031FE2000FFF75DFE00AA00212800FFF7FD
S31508004C20ADFEDFF88C0704680020FFF752FE20006F
S31508004C3032BD02E00D220270401C0278002A01D122
S31508004C408842F7D3704738B50024002500A9DFF855
S31508004C506407FFF7ABFB0400BDF80000002826D167
S31508004C6025004FF4807200212800FFF7FDFB64221F
S31508004C702900DFF844074068FFF7C6FF0400210053
S31508004C802800FFF7D6FFBDA1280000F067FC002822
S31508004C9007D000AA2900DFF81C07FFF7AAFB0120A6
S31508004CA006E000AA2900DFF80C07FFF7A2FB0020A0
S31508004CB032BD70B584B00025002602A9DFF8F406D7
S31508004CC0FFF774FB0500BDF8080000283AD12E004E
S31508004CD0002400E0641CE4B2642C2DDAE4B2002C53
S31508004CE009D002A8019000200090C82300220021C4
S31508004CF00020FFF793FE4FF4807200213000FFF783
S31508004D00B3FB64223100DFF8B0068068FFF77CFF4A
S31508004D10050029003000FFF78CFFDFF8A0163000E9
S31508004D2000F01CFC0028D5D002AA3100DFF8840662
S31508004D30FFF75FFB012006E002AA3100DFF87406E0
S31508004D40FFF757FB002004B070BD2DE9FE4F002485
S31508004D500025002600275FF000085FF000095FF0D5
S31508004D60000A02A9DFF84C06FFF720FB8146BDF8CA
S31508004D70080000285FD1CA465FF0000B02E0002455
S31508004D801BF1010B5FFA8BFBBBF1640F4DDA5FFA7F
S31508004D908BFBBBF1000F09D002A801900020009000
S31508004DA0C823002200210020FFF738FE4FF4807246
S31508004DB000215046FFF758FB64225146DFF8F805F4
S31508004DC0C068FFF721FF814649465046FFF731FF85
S31508004DD0BEA1504600F0C2FB0028D0D03A224FF4BC
S31508004DE08071504600F092FB851C280003F0F2FE05
S31508004DF006002C224FF48071504600F087FB471CB2
S31508004E00380003F0E7FE8046F6B2062E0BDB641C7C
S31508004E10E4B2072CB4DB02AA5146DFF89805FFF77F
S31508004E20E8FA012008E00024AAE702AA5146DFF8BA
S31508004E308405FFF7DEFA0020BDE8FE8F70B584B062
S31508004E400025002602A9DFF86C05FFF7AFFA050072
S31508004E50BDF80800002841D12E00002400E0641C9B
S31508004E60E4B2642C34DAE4B2002C09D002A801902A
S31508004E7000200090C823002200210020FFF7CEFD65
S31508004E804FF4807200213000FFF7EEFA64223100F9
S31508004E90DFF824050069FFF7B7FE05002900300092
S31508004EA0FFF7C7FEDFF81815300000F057FB00289B
S31508004EB006D1DFF81015300000F050FB0028CED0E0
S31508004EC002AA3100DFF8EC04FFF793FA012006E0A6
S31508004ED002AA3100DFF8DC04FFF78BFA002004B0E1
S31508004EE070BD70B584B00025002602A9DFF8C40499
S31508004EF0FFF75CFA0500BDF8080000283AD12E0035
S31508004F00002400E0641CE4B2642C2DDAE4B2002C20
S31508004F1009D002A8019000200090C8230022002191
S31508004F200020FFF77BFD4FF4807200213000FFF769
S31508004F309BFA64223100DFF880044069FFF764FEBB
S31508004F40050029003000FFF774FEDFF87C143000F6
S31508004F5000F004FB0028D5D002AA3100DFF854047B
S31508004F60FFF747FA012006E002AA3100DFF84404F9
S31508004F70FFF73FFA002004B070BD00004F4B000059
S31508004F8038B50024002500A9DFF82804FFF70EFA33
S31508004F900400BDF80000002826D125004FF48072D1
S31508004FA000212800FFF760FA64222900DFF80804C8
S31508004FB08069FFF729FE040021002800FFF739FE63
S31508004FC0A9A1280000F0CAFA002807D000AA2900DB
S31508004FD0DFF8E003FFF70DFA012006E000AA290032
S31508004FE0DFF8D003FFF705FA002032BD38B50024F4
S31508004FF0002500A9DFF8BC03FFF7D8F90400BDF8BF
S315080050000000002826D125004FF4807200212800D0
S31508005010FFF72AFA64222900DFF89C03C069FFF724
S31508005020F3FD040021002800FFF703FE8EA12800E7
S3150800503000F094FA002807D000AA2900DFF87403C4
S31508005040FFF7D7F9012006E000AA2900DFF8640374
S31508005050FFF7CFF9002032BD70B582B000250026D3
S3150800506000A9D448FFF7A2F90500BDF800000028FA
S315080050702AD12E00002400E0641CE4B2642C1EDA57
S315080050804FF4807200213000FFF7EEF94FF4FA6210
S315080050903100C948006AFFF7B7FD0500290030004E
S315080050A0FFF7C7FD70A1300000F058FA0028E3D0DA
S315080050B000AA3100BF48FFF79CF9012005E000AAC5
S315080050C03100BC48FFF795F9002076BD43535100DF
S315080050D070B584B00025002602A9B648FFF766F920
S315080050E00500BDF80800002836D12E00002400E08F
S315080050F0641CE4B2642C2ADAE4B2002C09D002A8B3
S31508005100019000200090C823002200210020FFF70C
S3150800511085FC4FF4807200213000FFF7A5F9642260
S315080051203100A548406AFFF76FFD050029003000E9
S31508005130FFF77FFD9BA1300000F010FA0028D7D0BA
S3150800514002AA31009B48FFF754F9012005E002AA9C
S3150800515031009848FFF74DF9002004B070BD38B506
S315080051600024002500A99348FFF720F90400BDF89C
S31508005170000000283CD125004FF480720021280049
S31508005180FFF772F98C48806AFFF774FB8F4800783E
S31508005190FF2803D18E48FFF76DFB02E08D48FFF725
S315080051A069FB8D48FFF766FB2000FFF792FB00AA14
S315080051B0002140F6B830FFF7E1FB7D48046800207F
S315080051C0FFF787FB21002800FFF733FD83492800F6
S315080051D000F0C4F9002806D000AA29007548FFF790
S315080051E008F9012005E000AA29007248FFF701F92D
S315080051F0002032BD30B585B004000D0001A800902E
S3150800520002AB00224FF47A71754801F075FAADB217
S315080052102A0065A103A801F023FC6748C06AFFF7C6
S3150800522029FB03A8FFF726FB60A0FFF723FB01A8CD
S31508005230009002AB00224FF47A716A4800F031FA06
S31508005240BDF80400002801D000200AE0290089B230
S315080052502000FFF7E1FA01AA0021614801F05AFB94
S31508005260012005B030BD00004F4B000080B5FFF7A8
S31508005270EAFC002801D1002039E0FFF71AFD0028D2
S3150800528001D1002033E0FFF760FD002801D100209E
S315080052902DE0FFF7D3FD002801D1002027E0FFF716
S315080052A020FE002801D1002021E0FFF769FE002832
S315080052B001D100201BE0FFF799FE002801D100204C
S315080052C015E0FFF7C9FE002801D100200FE0FFF71F
S315080052D0FFFE002801D1002009E0FFF740FF002863
S315080052E001D1002003E001203F490870012002BDDA
S315080052F010B584B00024C0B2002836D002213B483D
S3150800530000F0C7FC1021394800F0C6FC02A801903D
S3150800531000200090C823012200210020FFF77EFB11
S315080053201021324800F0B5FC02A801900020009038
S315080053300023032200210020FFF770FB0AE002A8E1
S315080053400190002000906423002200210020FFF72E
S3150800535065FB641CE4B2FA2C05DAFFF774FC012835
S31508005360EDD1012010E000200EE002211F4800F0D8
S3150800537093FC02A80190002000900023032200213C
S315080053800020FFF74BFB012004B010BD38B5040020
S31508005390002500F0F9FB050013480470280000F00A
S315080053A0F7FB31BD2E000000256400000D0000004B
S315080053B0CC4C0020244C00200000002048BB0008EC
S315080053C07CBA000888BA000894BA0008930000203E
S315080053D098B900085000002074000020A0BA000800
S315080053E0244B0020D04B0020E04C00200008014050
S315080053F0002201E0401C521C002804D00378002B30
S3150800540001D08A42F6D31000704780B55FF0FF32AC
S3150800541000F001F802BD30B4002801D1002029E0CF
S31508005420002901D1002025E0002A23D0030000E04E
S315080054305B1C002B02D01C78002CF9D1002B01D163
S31508005440002017E0002404E00D781D705B1C491C41
S31508005450641C002B06D0002904D00D78002D01D03D
S315080054609442F1D3002B01D0002901D1002001E09C
S315080054700021197030BC7047F0B4002A01D1002011
S3150800548042E0002807D1002901D100203CE0087835
S31508005490404200B238E0002902D1007800B233E079
S315080054A003000C005B1C641C002504E0401C491C1E
S315080054B05B1C641C6D1C06780F78BE4208D1067802
S315080054C0002E05D0002B03D0002C01D09542EDD339
S315080054D0954201D1002017E002780D78AA4203D040
S315080054E000780978401A0EE00078002801D10020DB
S315080054F009E0002B06D1002C01D1002003E020781A
S31508005500404200E0187800B2F0BC704710B400289A
