S00C0000546573742E7372656378
S31508000000304F002079CE000827CD000829CD0008FA
S315080000102BCD00082DCD00082FCD000800000000CC
S3150800002000000000000000000000000031CD0008BC
S3150800003033CD0008000000002FB2000835CD0008B7
S315080000403DD0000841D0000845D0000849D0000836
S315080000504DD0000851D0000855D0000859D00008E6
S315080000605DD0000861D0000865D0000869D0000896
S315080000706DD0000871D0000875D0000879D0000846
S315080000807DD0000881D0000885D0000889D00008F6
S315080000908DD0000891D0000895D0000899D00008A6
S315080000A09DD00008A1D00008A5D00008A9D0000856
S315080000B0ADD00008B1D00008B5D00008B9D0000806
S315080000C0BDD00008C1D00008C5D00008C9D00008B6
S315080000D0CDD000083DCD000845CD00084DCD00081F
S315080000E055CD0008D1D00008D5D00008F0B585B0A8
S315080000F000260FE0DFF8000C007801280AD1DFF8A7
S31508000100FC0B0068DFF8F81B08600020DFF8E81B26
S315080001100870002602A8019003A800900DF10A03B2
S315080001200022C821DFF8DC0B04F0B2FB0100BDF8A1
S31508000130080047F2D9229042DCD00F7802AADFF8ED
S31508000140C80B04F0B4FDDFF8B80B0068002819D115
S3150800015002A9DFF8B80B04F087FDDFF8A41B0860D6
S31508000160BDF80800002830D1DFF8940B0068DFF8E6
S315080001708C1B08604FF480720021DFF8800B006842
S3150800018004F0D0FDDFF8880B0078002800F01D8108
S31508000190DFF8800B007801287BD0FF28BAD1DFF87A
S315080001A0580B0078002812D1FFB2682F70D1DFF8FB
S315080001B0500B0068411CDFF8482B116007700026B9
S315080001C00120DFF8341B087062E000BFA2E7DFF801
S315080001D0300B0068411CDFF8282B11600770DFF828
S315080001E0200B0068DFF8141B0968401A0B2805D194
S315080001F0DFF8080B0068807A10F10D06F6B2002EBB
S3150800020046D0DFF8FC0A0068DFF8F01A0968401AD9
S31508000210F6B2B0423CDBDFF8E80A006810F8010CD9
S3150800022016282AD1DFF8D80A0768F6B2B11E89B2AD
S31508000230DFF8C80A006800F0ACF917F8021CC0B26B
S31508000240814225D102A800900023F6B2320092B26C
S31508000250DFF8A80A0168DFF8C00A04F0F8FB0020F6
S31508000260DFF8981A08600020DFF8941A0860002062
S31508000270DFF8841A087000260AE0DFF8800A0068AA
S31508000280DFF87C1A08600020DFF86C1A0870002670
S3150800029040E7DFF8640A0078002811D1FFB20E2F74
S315080002A040F09280DFF8580A0068411CDFF8502AAF
S315080002B01160077000260120DFF83C1A087083E0F9
S315080002C0DFF83C0A0068411CDFF8342A1160077021
S315080002D0DFF82C0A0068DFF8241A0968401A09288A
S315080002E072DBDFF8180A006880780B282ED10926F9
S315080002F00921DFF8080A006800F05BF900281AD11E
S3150800030002A800900023F6B2320092B2DFF8EC0998
S315080003100168DFF8040A04F09AFB0020DFF8DC190C
S3150800032008600020DFF8D81908600020DFF8C8192F
S31508000330087000260AE0DFF8C4090068DFF8C0196B
S3150800034008600020DFF8B01908700026DFF8AC094D
S31508000350006880780C2837D1DFF8A4090068DFF830
S315080003609C190968401A0A282EDB0A260A21DFF892
S315080003708C09006800F01DF900281AD102A800901F
S315080003800023F6B2320092B2DFF870090168DFF88E
S31508000390880904F05CFB0020DFF86019086000207B
S315080003A0DFF85C1908600020DFF84C190870002691
S315080003B00AE0DFF848090068DFF8441908600020F9
S315080003C0DFF8341908700026A4E6DFF82C0900784F
S315080003D0002813D1FFB2682F7FF49CAEDFF82009FE
S315080003E00068411CDFF818291160077000260124EF
S315080003F000250120DFF8001908708BE6DFF80009F0
S315080004000068411CDFF8F82811600770EDB2002D6E
S3150800041039D1641CE4B2062C7FF47CAEDFF8DC0824
S3150800042000684079682820D1DFF8D0080068B0F85D
S315080004300100DFF8C8180968B1F8031080B289B25C
S31508000440884204D1012580B28608083662E6002073
S31508000450DFF8A4180870002600240025DFF89C0899
S315080004600068DFF89C18086054E60020DFF8881852
S315080004700870002600240025DFF880080068DFF8E9
S315080004808018086046E6F6B2002E3FF443AEDFF861
S3150800049070080068DFF864180968401AF6B2B042B6
S315080004A0FFF638AEDFF85808006810F8010C162871
S315080004B061D1DFF84C080468F6B2B6F1080189B2D2
S315080004C0DFF838080068801D00F063F814F8021C8D
S315080004D0C0B2814241D1DFF824080068007B0328B6
S315080004E006D0042817D00A2802D00B2813D024E0F7
S315080004F00020DFF80C180968087002A8009000238D
S31508000500F6B2320092B2DFF8F4070168DFF8780B2A
S3150800051004F09DFA11E00020DFF8E4170968087076
S3150800052002A800900023F6B2320092B2DFF8CC0798
S315080005300168DFF8580B04F08AFA0020DFF8BC17C8
S3150800054008600020DFF8B81708600020DFF8A81751
S315080005500870002600240025DCE5DFF8A0070068FF
S31508000560DFF89C1708600020DFF88C170870002653
S3150800057000240025CEE5DFF884070068DFF8801739
S3150800058008600020DFF87017087000260024002590
S31508000590C0E510B40022002303E09BB21C5CA2183D
S315080005A05B1C9BB289B28B42F7D31000C0B210BC59
S315080005B0704710B40022002303E09BB21C5C624023
S315080005C05B1C9BB289B28B42F7D31000C0B210BC39
S315080005D07047000030B583B00024002500E000BF56
S315080005E0DFF8AC0A0078012840F0B280002C13D15D
S315080005F001A9DFF8180704F037FB0400BDF804006A
S315080006000028ECD125004FF480720021280004F060
S3150800061089FB280004F0B7FDDFF8180D0068DFF83D
S31508000620181D0968401A0128C0F28C8001AA002109
S31508000630042004F0FFFDDFF8FC0C04682100280004
S3150800064004F095FEADA1280005F0EEFA002810D0BA
S315080006502C004FF480720021280004F063FB280068
S3150800066004F091FD01AA0021DFF8D00C05F039FC51
S31508000670B6E7DFF8CC1C280005F0D6FA00280ED01D
S3150800068001A800900023621B92B22900DFF8B40C7F
S3150800069004F0DDF90024002004F075FDA0E7DFF87A
S315080006A0A81C280005F0C0FA002810D02C004FF42A
S315080006B080720021280004F035FB00200400002584
S315080006C0002004F060FD002005F0CAF988E7DFF88D
S315080006D07C1C280005F0A8FA002810D02C004FF43E
S315080006E080720021280004F01DFB0020040000256C
S315080006F0002004F048FD002005F0B2F970E7DFF8A5
S31508000700501C280005F090FA002810D02C004FF451
S3150800071080720021280004F005FB00200400002553
S31508000720002004F030FD002005F09AF958E72C0067
S315080007304FF480720021280004F0F4FA280004F02F
S3150800074022FD4DE701AA0021042004F073FD47E7C6
S31508000750002C10D04FF480720021280004F0E2FA31
S3150800076001AA2900DFF8A40504F0A1FA002400254F
S31508000770002004F008FD002005F032F9012005F0FC
S315080007802FF905F0EBF82BE72DE9FF4100260024A9
S315080007900020ADF80A005FF000080025002705E0F4
S315080007A002AA2100DFF8640504F081FA02A8019084
S315080007B003A800900DF10A0300220021DFF8840B3C
S315080007C004F066F80400B0A1200005F02DFA10F137
S315080007D00208404600F094F80700BFB2002FDFD0A9
S315080007E098F80C0000280CD0022828D0032827D017
S315080007F0042841D00A2823D00B283DD00C28CFD076
S31508000800CEE798F80D0010F00F05DFF8480B0078D2
S31508000810EDB2854206D102AA0021DFF83C0B05F0AD
S3150800082060FB0BE0DFF8340B0078EDB2854205D1AA
S3150800083002AA0021DFF8280B05F053FBB0E7AFE763
S3150800084002A9DFF8C80404F00FFA0600002E12D039
S31508000850BFB23A004146300005F0E8FB0120BFB2BE
S31508000860B85502A8009000233A0092B23100DFF88A
S31508000870180804F0ECF893E798F80D0010F00F0547
S3150800088098F80E00052808D1DFF8D80A057029005F
S31508000890C9B2012003F04EF92EE0DFF8C80A007845
S315080008A0EDB2A84223D002A9DFF8600404F0DCF90F
S315080008B00600002E08D0BFB23A004146300005F0C7
S315080008C0B5FB0120BFB2B855DFF8980A05702900B4
S315080008D0C9B2012003F02EF902A8009000233A00BD
S315080008E092B23100DFF8A40704F0B1F804E0290059
S315080008F0C9B2012003F01EF952E700000A3E0000C3
S3150800090070B50400B4F80150B4F80300ADB280B273
S31508000910854214D1ADB2AD08ADB228198679290041
S3150800092089B2A01DFFF735FE864208D1ADB2281957
S31508000930C079162803D115F10800C0B200E00020DE
S3150800094070BD10B5002405F085FC0400DFF8180A10
S315080009500078401CDFF8101A0870DFF80C0A0078D7
S3150800096010F00F00DFF8001A0870200005F076FC7A
S3150800097010BD30B589B0002404E001AA0021642026
S3150800098004F058FC03AD682028706D1C27202870D9
S315080009906D1C002028706D1C272028706D1C0020F7
S315080009A028706D1C682028706D1CC92028706D1C65
S315080009B0DFF8B809007828706D1CDFF8B0094078B0
S315080009C028706D1CDFF8A409807828706D1CDFF884
S315080009D09C09C07828706D1CDFF89009007928708A
S315080009E06D1C022028706D1CDFF87C09007850F019
S315080009F0700028706D1CDFF870090078DFF854194C
S31508000A000870FFF79EFF032028706D1C09210DF161
S31508000A101200FFF7BEFD28706D1C162028706D1C8D
S31508000A20DFF86C0600780028A7D0002500E06D1CCA
S31508000A30DFF85C060078002818D0EDB2032D15DA29
S31508000A400024112103A804F04DFF0028EFD001A8C7
S31508000A50009002AB002241F28831DFF8FC0805F06D
S31508000A6086F9BDF804000028E1D10124E4B2002C7F
S31508000A7006D001AA0021DFF8F80804F0DBFB81E7BD
S31508000A80002004F0EDFF7DE70D0A680080B5C0B2CE
S31508000A9000280CD0DFF8DC080078AA2803D101204A
S31508000AA000F059F80FE0012000F06CF80BE0DFF8D1
S31508000AB0C4080078AA2803D1002000F04CF802E008
S31508000AC0002000F05FF801BD1FB511E00120FFF717
S31508000AD0DDFFBDF80800015D200000F0C8F8002021
S31508000AE0FFF7D4FF0DF10A022100884804F0DFF869
S31508000AF00DF10A00019003A8009002AB0022002124
S31508000B00DFF8880503F0C4FE04008248007801284F
S31508000B10DCD0FF28E6D1207B042802D00B280DD094
S31508000B2018E00120FFF7B2FFBDF80800015D2000BC
S31508000B3000F00AFF0020FFF7A9FF0BE00120FFF7EE
S31508000B40A5FFBDF80800015D200000F0E7F80020C9
S31508000B50FFF79CFFC6E780B5C0B200280BD001217D
S31508000B60DFF8D00D05F0FBFB00AA002140F2DC50AF
S31508000B7004F060FB04E00121DFF8B80D05F0F2FB94
S31508000B80012002BD80B5C0B200280BD00221DFF8D3
S31508000B90A80D05F0E4FB00AA00214FF4167004F036
S31508000BA049FB04E00221DFF8900D05F0DBFB01208C
S31508000BB002BD80B5C0B200280CD04FF40041DFF862
S31508000BC0740D05F0CCFB00AA002140F6B83004F0FD
S31508000BD031FB05E04FF40041DFF8580D05F0C2FB84
S31508000BE0012002BD80B5C0B200280BD00821DFF86D
S31508000BF0480D05F0B4FB00AA002140F6B83004F011
S31508000C0019FB04E00821DFF8300D05F0ABFB0120E5
S31508000C1002BD80B5C0B200280BD01021DFF8180D30
S31508000C2005F09DFB00AA002140F6B83004F002FB4F
S31508000C3004E01021DFF8000D05F094FB012002BD49
S31508000C4080B5C0B200280BD02021DFF8EC0C05F0E7
S31508000C5086FB00AA002140F6B83004F0EBFA04E05F
S31508000C602021DFF8D40C05F07DFB012002BD3EB53E
S31508000C7004000D0001A8009002AB00224FF47A711F
S31508000C80DFF8B80C05F012FCBDF80400002831D1D5
S31508000C90DFF8AC0CDFF8AC1C0860012004F082FA1F
S31508000CA0E07B00280AD0AA281BD1200005F0B2FD57
S31508000CB02900C9B2012005F0F2FF12E0200005F074
S31508000CC0C2FDDFF8800C00688078FF2805D029006F
S31508000CD0C9B2A07C05F0E3FF03E02800C0B206F025
S31508000CE057FA002004F05EFA01AA0021DFF84C0C3E
S31508000CF005F0EAFC37BD0000254D0020FC4C00201D
S31508000D00F84C0020804A00206C4C0020544C0020EF
S31508000D10174D002094000020C84A00202DE9F04114
S31508000D208AB004000D0000200390002002900020E5
S31508000D30ADF810000020ADF80600002600270020B8
S31508000D408DF804005FF000080222DFF8141E04A8DC
S31508000D5006F0F6FB0322DFF80C1E03A806F0F0FBEC
S31508000D60BDF81000002800F0D380012004F01AFA1C
S31508000D700722DFF8F41D14F1100004F000F801282A
S31508000D8040F0C9800120DFF8E41D0870002634E031
S31508000D9007220298811D07A806F0D2FB01220298B5
S31508000DA010F10D0101A806F0CBFB2B00DBB29DF874
S31508000DB00420029907A800F06DF903220298C11CC5
S31508000DC002A806F0BDFB7F1CBDF80600BFB287422D
S31508000DD0DED3039905A800F0E0FFB6B2701CBDF893
S31508000DE0101090FBF1F0DFF8881D087003220398B5
S31508000DF0C11C03A806F0A4FB761CBDF81000B6B209
S31508000E00864278D206220398811D05A806F098FB2B
S31508000E100322039810F10C0102A806F091FB0222A6
S31508000E20039810F112010DF1060006F089FB0399EB
S31508000E3005A800F09FFE00285BD10DF11200009076
S31508000E4009AB00224FF47A71DFF8F00A05F02EFBA1
S31508000E50BDF8120000285BD100273DE04FF4805210
S31508000E600298000B4FF4805101FB00F1DFF8D00A1D
S31508000E7006F066FB02984FF48051B0FBF1F202FBD4
S31508000E801102DFF8BC0A1018807D50F08000029924
S31508000E904FF48052B1FBF2F303FB1213DFF8A01AEA
S31508000EA0591888750298000B4FF48051484306F08C
S31508000EB005FA4FF480520298000B4FF4805101FB5B
S31508000EC000F1DFF87C0A06F091FA03220298C11CA9
S31508000ED002A806F035FB7F1CBDF80600BFB28742A4
S31508000EE0BCD30DF112020021DFF8500A05F0ECFB25
S31508000EF073E7002768E70020DFF8701C08702A00EF
S31508000F00D2B20021012000F037FA002004F04AF995
S31508000F100AB0BDE8F08100261AE02B00DBB29DF886
S31508000F200420029907A800F0B5F82A00D2B202995F
S31508000F30002000F021FA039905A800F02EFF5FF0C3
S31508000F40010803220398C11C03A806F0F9FA761CC7
S31508000F505FFA88F8B8F1000FD7D1BDF81000B6B21D
S31508000F608642D2D206220398811D05A806F0E8FA21
S31508000F700322039810F10C0102A806F0E1FA0222F6
S31508000F80039810F112010DF1060006F0D9FA0027B0
S31508000F9006E003220298C11C02A806F0D1FA7F1CBB
S31508000FA0BDF80600BFB28742CBD207220298811D40
S31508000FB007A806F0C5FA0122029810F10D0101A84A
S31508000FC006F0BEFA072207A914F1100003F0D7FEAF
S31508000FD00128DED19DF80400E17B8842D9D1039926
S31508000FE005A800F0C7FD002897D10DF11200009062
S31508000FF009AB00224FF47A71DFF8400905F056FA7A
S31508001000BDF81200002883D14FF480520298000BD5
S315080010104FF4805101FB00F1DFF8240906F090FA3D
S3150800102002984FF48051B0FBF1F202FB1102DFF88F
S3150800103010091018807D50F0800002994FF48052F4
S31508001040B1FBF2F303FB1213DFF8F418591888758D
S315080010500298000B4FF48051484306F02FF94FF4DD
S3150800106080520298000B4FF4805101FB00F1DFF823
S31508001070D00806F0BBF90DF112020021DFF8BC0812
S3150800108005F022FB5BE70000EC4A0020A44A00209A
S31508001090164D00202DE9F0438BB004000D00002604
S315080010A000200021ADF80C1000275FF00008002191
S315080010B08DF8091000218DF808105FF0000907A9BE
S315080010C08946682189F8001019F1010989F8002074
S315080010D019F1010900210E0006E0F6B2305D89F823
S315080010E0000019F10109761CF6B2072EF5DB01207E
S315080010F089F8000019F10109032089F8000019F19F
S315080011000109DFF8BC0D0078FF280AD11F2089F8ED
S31508001110000019F10109902089F8000019F1010968
S3150800112009E0902089F8000019F101091F2089F8C3
S31508001130000019F10109012089F8000019F10109D7
S315080011400E2107A8FFF725FA89F8000019F1010909
S31508001150162089F8000019F10109002608E0002088
S31508001160F6B205A970540020F6B204A97054761C8C
S31508001170F6B2042EF3DB002617E0C0B2C119897B4C
S31508001180C0B205AA8154C0B2C119C97CC0B204AAAA
S315080011908154401CC0B20428EFDB0DF10A02390065
S315080011A0DFF8580D03F083FD761C5FFA88F8B8F16E
S315080011B0000F35D1F6B2002E32D10421DFF8400DEA
S315080011C003F0E0FE102107A803F0DCFE0DF10A008B
S315080011D0019006A8009003AB00224FF49661DFF851
S315080011E0240D03F055FB0700BDF80A00002805D0BA
S315080011F0F6B2022E01D15FF00008D5E70722B91C26
S31508001200200003F0BCFD0128C7D15FF00108F87F74
S315080012108DF8090097F820008DF808000020B9E736
S315080012200DF10A00009006AB00224FF47A71DFF840
S315080012300C0705F03BF9BDF80A00002877D14FF4F2
S315080012408052280B4FF4805101FB00F1DFF8F006BD
S3150800125006F076F95FFA88F8B8F1000F16D14FF460
S315080012608050B5FBF0F101FB1051DFF8D4060818E1
S31508001270807D50F040004FF48051B5FBF1F202FB3F
S315080012801152DFF8BC165118887538E001220DF1A5
S3150800129009014FF48050B5FBF0F303FB1053DFF858
S315080012A0A0061818163004F0C1FE012202A94FF450
S315080012B08050B5FBF0F303FB1053DFF884061818CB
S315080012C0173004F0B3FE042205A94FF48050B5FB8D
S315080012D0F0F303FB1053DFF8680618180E3004F015
S315080012E0A5FE042204A94FF48050B5FBF0F303FBD6
S315080012F01053DFF84C061818183004F097FE280B20
S315080013004FF48051484305F0D9FF4FF48052280B1B
S315080013104FF4805101FB00F1DFF8240606F066F869
S315080013200DF10A020021DFF8140605F0CDF90BB01D
S31508001330BDE8F083004D0020044D0020004C00203D
S31508001340B4CF0008104B0020BCCF0008C4CF00085B
S31508001350CCCF0008214D0020C84B0020224D00208C
S31508001360E44B0020244D0020234D00207C00002063
S31508001370C0D40100930000202DE9F54F8DB000255B
S31508001380002006905FF000090020ADF81C00002040
S31508001390ADF814000020ADF816000020ADF80000E6
S315080013A000208DF809000020ADF80A00002700206B
S315080013B008900020039000208DF8080000208DF882
S315080013C0070000208DF8060000240020ADF8120062
S315080013D05FF0000A5FF000080020ADF80400002660
S315080013E05FF0000B039104A9DFF8100B03F03CFC37
S315080013F00500002D00F0CE8006959DF834000028E3
S3150800140040F0D08007220398811D0BA806F098F8B3
S315080014100122039810F10D0102A806F091F80422A2
S31508001420039810F10E0109A806F08AF8012203981C
S3150800143010F116010DF1070006F082F80122039853
S3150800144010F117010DF1060006F07AF868202870E9
S315080014506D1CA9467320A9F8000019F1020973202A
S31508001460A9F8000019F102094D46682028706D1C7C
S31508001470882028706D1CDFF8580D007828706D1CC0
S31508001480DFF84C0D407828706D1CDFF8440D807825
S3150800149028706D1CDFF8380DC07828706D1CDFF8D1
S315080014A0300D007928706D1C0B2028706D1CDFF834
S315080014B0240D007850F0600028706D1C04202870F8
S315080014C06D1CDFF8100D0078DFF80C1D0870FFF7AB
S315080014D038FA002028706D1C002028706D1C00202A
S315080014E028706D1C002028706D1C9DF80800287057
S315080014F06D1C002405E0A4B20BA8205C28706D1CA6
S31508001500641CA4B2072CF6DB012028706D1C00248D
S3150800151005E0A4B209A8205C28706D1C641CA4B25E
S31508001520042CF6DB9DF8070028706D1C9DF8060054
S3150800153028706D1C1C210698801DFFF72AF8287054
S315080015406D1C162028706D1C9DF83800002824D0C4
S315080015505FF0000A01E01AF1010A5FFA8AFABAF1A5
S31508001560030F11DA2421069804F0BCF904A80090A8
S315080015700AAB002241F28831DFF8600C04F0F7FB71
S31508001580BDF810000028E6D104AA0699DFF86C0910
S3150800159003F08DFB0FB0BDE8F08F2421069803F009
S315080015A05BFDF1E70222DFF8B8150DF1160005F02C
S315080015B0C7FF0222DFF8281C05A805F0C1FF032291
S315080015C0DFF8A01508A805F0BBFFBDF814000A212E
S315080015D090FBF1F0ADF80000BDF814000A2190FB6D
S315080015E0F1F201FB12008DF809000027BDF8000092
S315080015F0ADF80A009DF80900002804D0BDF80A00D5
S31508001600401CADF80A00002406E003220898C11C15
S3150800161008A805F095FF641CBDF81600A4B284421C
S31508001620B2D20322089810F10C0103A805F088FF2E
S315080016300222089810F1120107A805F081FF002080
S31508001640ADF812001AE0BDF804000E21484310F167
S31508001650160189B2069803F0FFFC04AA002164204B
S3150800166003F0E8FD069D03220398C11C03A805F0B4
S3150800167067FFBDF81200401CADF81200BDF8120055
S31508001680BDF81C108842C0D207220398811D0BA8FA
S3150800169005F056FF0122039810F10D0102A805F086
S315080016A04FFF0422039810F10E0109A805F048FF20
S315080016B00122039810F116010DF1070005F040FF0D
S315080016C00122039810F117010DF1060005F038FF05
S315080016D0F6B2002E40F0BF8001267F1CBDF80A0036
S315080016E001280CD1BDF81480ADF80480BDF80400BB
S315080016F00E2148430E30800050F0030B36E0BFB28F
S31508001700012F0CD15FF00A08ADF80480BDF804007B
S315080017100E2148430E30800050F0030B26E0BDF83A
S315080017200A00BFB2874215D19DF80900002804D1E6
S315080017305FF00A08ADF8048003E09DF80980ADF86B
S315080017400480BDF804000E2148430E30800050F096
S31508001750030B0BE05FF00A08ADF80480BDF804003F
S315080017600E2148430E30800050F0030B6820287085
S315080017706D1CA946A9F800B019F10209A9F800B02C
S3150800178019F102094D46682028706D1C88202870BA
S315080017906D1CDFF83C0A007828706D1CDFF8300AEB
S315080017A0407828706D1CDFF8280A807828706D1C30
S315080017B0DFF81C0AC07828706D1CDFF8140A007957
S315080017C028706D1C0B2028706D1CBDF80A000128B6
S315080017D007D1DFF8000A007850F0700028706D1CF9
S315080017E01EE0BFB2012F07D1DFF8E809007850F0F4
S315080017F0500028706D1C13E0BDF80A00BFB287427E
S3150800180007D1DFF8D009007850F0300028706D1C39
S3150800181006E0DFF8C009007850F0100028706D1C4B
S31508001820DFF8B0090078DFF8B0190870FFF789F813
S31508001830042028706D1CA946BDF80A00A9F8000006
S3150800184019F10209A9F8007019F102094D469DF827
S31508001850080028706D1C5FF0000A08E05FFA8AFA33
S315080018600BA81AF8000028706D1C1AF1010A5FFA15
S315080018708AFABAF1070FF1DB012028706D1C5FF0B8
S31508001880000A08E05FFA8AFA09A81AF80000287020
S315080018906D1C1AF1010A5FFA8AFABAF1040FF1DB34
S315080018A09DF8070028706D1C9DF8060028706D1CB1
S315080018B0B8F101081FFA88F8B8F1000F7FF4D3AE23
S315080018C00026BDF804000E21484310F10E0189B226
S315080018D00698801DFEF75DFE28706D1C1620287080
S315080018E06D1C9DF8380000283FF4ADAE5FF0000A85
S315080018F001E01AF1010A5FFA8AFABAF1030FBFF694
S31508001900ACAEBDF804000E21484310F1160189B2A9
S31508001910069803F0E7FF04A800900AAB002241F2FC
S315080019208831DFF8B80804F022FABDF8100000285C
S31508001930DFD192E600080140000C0140344B00203C
S315080019409C000020A44C00202DE9F0438BB0040035
S315080019500D0000200390002002900020ADF806003C
S315080019600020ADF810000026002700208DF804009E
S315080019705FF000085FF00009022279490DF10600C0
S3150800198005F0DEFD0322774903A805F0D9FDBDF869
S315080019900600002800F0E080607B10F00F09A07BAD
S315080019A0042808D14946C9B22800C0B202F0C2F8D4
S315080019B000F077FDD0E0012003F0F4FB002618E0E4
S315080019C05FFA89F9CDF800902B00DBB29DF8042068
S315080019D0029905A800F006FC039907A800F0DDF9AE
S315080019E05FF0010803220398C11C03A805F0A8FDAF
S315080019F0761C5FFA88F8B8F1000F40F0AA80BDF8A7
S31508001A000600B6B2864280F0A48006220398811D9D
S31508001A1007A805F095FD0322039810F10C0102A80A
S31508001A2005F08EFD0222039810F1120104A805F0B4
S31508001A3087FD002706E003220298C11C02A805F0CC
S31508001A407FFD7F1CBDF81000BFB28742CAD20722AD
S31508001A500298811D05A805F073FD0122029810F170
S31508001A600D0101A805F06CFD072205A914F1100067
S31508001A7003F085F90128DED19DF80400E17B884250
S31508001A80D9D1039907A800F075F800284DD10DF1B2
S31508001A901200009009AB00224FF47A71DFF8D00BE0
S31508001AA004F004FDBDF81200002855D14FF4805209
S31508001AB00298000B4FF4805101FB00F1DFF8B40BDC
S31508001AC005F03EFD02984FF48051B0FBF1F202FB9F
S31508001AD01102DFF8A00B1018807D50F080000299E3
S31508001AE04FF48052B1FBF2F303FB1213DFF8841BA9
S31508001AF0591888750298000B4FF48051484305F031
S31508001B00DDFB4FF480520298000B4FF4805101FB25
S31508001B1000F1DFF8600B05F069FC0DF112020021F7
S31508001B20DFF84C0B04F0D0FD5AE7A07B02283FF4FF
S31508001B3047AF03287FF450AF5FFA89F9CDF80090D4
S31508001B402B00DBB29DF80420029905A800F0DCF909
S31508001B5042E7002003F026FB0BB0BDE8F083000047
S31508001B60A3F01F00A0F01F00D4CF0008264D0020C8
S31508001B70274D00202DE9F0418AB004000D0000270A
S31508001B800026DFF8F40A0078AA2847D1DFF8EC0A1D
S31508001B9000782178884205D102A9DFF8E40A06F020
S31508001BA07FF839E00020FFF704F80020FFF71AF85D
S31508001BB00020FFF72EF80020FFF742F820780128CA
S31508001BC006D024D3032813D00AD3042818D01EE03D
S31508001BD00120FEF7EEFF0120DFF8A01A087016E0D4
S31508001BE00120FEF7FFFF0220DFF8901A08700EE0CA
S31508001BF00120FFF70EF80320DFF8801A087006E0C8
S31508001C000120FFF71DF80420DFF8701A087002A9F2
S31508001C10DFF86C0A06F044F80120BBE0DFF8580A42
S31508001C200078BB2840F0B58004AF682038707F1C68
S31508001C30A02038707F1C5FF0000807E05FFA88F87C
S31508001C4018F8040038707F1C18F101085FFA88F844
S31508001C50B8F1060FF2DB002038707F1C04203870BC
S31508001C607F1C042038707F1C172038707F1CA0202A
S31508001C7038707F1C012038707F1C552038707F1CF7
S31508001C800F2104A8FEF785FC38707F1C16203870D3
S31508001C907F1C5FF0000807E0002602AA3900974873
S31508001CA003F005F818F10108F6B2002E2DD15FFAF7
S31508001CB088F8B8F1020F28DA112104A803F062F9AE
S31508001CC002A8019003A800900DF10A03002241F230
S31508001CD088318C4802F0DCFD0700BDF808000028B2
S31508001CE006D05FFA88F8B8F1010F00D10026D9E7C7
S31508001CF00622B91C200003F042F80128CDD1B87B92
S31508001D0003210842C8D10126C7E7F6B2002E3DD105
S31508001D1002A8009003AB00224FF47A71DFF850094D
S31508001D2004F0C4FBBDF80800002802D03000C0B299
S31508001D3030E04FF48052280B4FF4805101FB00F13C
S31508001D40DFF8300905F0FCFB01204FF48051B5FBA4
S31508001D50F1F202FB1152DFF81C195118C875280B4D
S31508001D604FF48051484305F0A9FA4FF48052280BE6
S31508001D704FF4805101FB00F1DFF8F80805F036FB57
S31508001D8002AA0021DFF8E80804F09EFC3000C0B281
S31508001D9000E001200AB0BDE8F081F0B589B0040082
S31508001DA000260025DFF8D0080078AA2818D10020D8
S31508001DB0FEF7FFFE0020FEF715FF0020FEF729FFBD
S31508001DC00020FEF73DFF0020DFF8B018087002ABD0
S31508001DD000220021DFF8A80805F0B7FF01206DE012
S31508001DE0DFF894080078BB2866D104AE6820307006
S31508001DF0761CA0203070761C002704E0FFB2385D00
S31508001E003070761C7F1CFFB2062FF7DB002030707F
S31508001E10761C04203070761C04203070761C17203F
S31508001E203070761CA0203070761C01203070761C2D
S31508001E3099203070761C0F2104A8FEF7AAFB307093
S31508001E40761C16203070761C002706E0002502AAAC
S31508001E5031002A4802F02BFF7F1CEDB2002D2BD152
S31508001E60FFB2022F28DA112104A803F08BF802A882
S31508001E70019003A800900DF10A0300224FF47A613D
S31508001E80204802F005FD0600BDF80800002804D029
S31508001E90FFB2012F00D10025DEE70622B11C200083
S31508001EA002F06DFF0128D2D1B07BC0B210F003005A
S31508001EB00228CBD10125CAE72800C0B209B0F0BD77
S31508001EC0184D002080B50020FEF7E0FD0020FEF743
S31508001ED070FE0020FEF786FE0020FEF79AFE002020
S31508001EE0FEF7AEFE0020DFF89417087000AB00225C
S31508001EF00021DFF88C0705F028FF01BD544C0020AF
S31508001F0088000020C84A00202DE9F84F8AB004004E
S31508001F100D0000260020ADF80A0000275FF0000833
S31508001F205FF000095FF0000A5FF0000B04A8834623
S31508001F3068208BF800001BF1010B8BF800201BF1C1
S31508001F40010B0020060006E0F6B2305D8BF80000B3
S31508001F501BF1010B761CF6B2072EF5DB04208BF875
S31508001F6000001BF1010B04208BF800001BF1010B8C
S31508001F70DFF810070078FF280AD117208BF8000031
S31508001F801BF1010BA0208BF800001BF1010B09E0E7
S31508001F90A0208BF800001BF1010B17208BF800001E
S31508001FA01BF1010B01208BF800001BF1010B5520DA
S31508001FB08BF800001BF1010B0F2104A8FEF7E9FAC4
S31508001FC08BF800001BF1010B16208BF800001BF1A3
S31508001FD0010B002608E05FF0000802AA3900DFF8C6
S31508001FE0A80602F064FE761C5FFA88F8B8F1000FBE
S31508001FF049D1F6B2002E46D10421DFF8040D02F0CD
S31508002000C1FF112104A802F0BDFF02A8019003A890
S3150800201000900DF10A03002243F69821DFF8E40C3C
S3150800202002F036FC0700BDF80800002805D0F6B215
S31508002030012E01D15FF00008D5E7DFF8CC0C007857
S31508002040FF280ED002AA3900DFF83C0602F02FFE60
S3150800205002AA002142F6E06003F0ECF85FF00108FE
S31508002060C1E70722B91C200002F089FE0128B4D175
S3150800207097F80E9097F80FA0032019EA000FAAD137
S315080020805FF00108A9E702A8009003AB00224FF40D
S315080020907A71DFF8DC0504F009FABDF808000028B3
S315080020A040F092804FF48052280B4FF4805101FB88
S315080020B000F1DFF8C00505F043FA5FFA88F8B8F1D1
S315080020C0000F33D15FFA89F919F00300032816D1F6
S315080020D04FF48050B5FBF0F101FB1051DFF8940581
S315080020E0081880F816904FF48050B5FBF0F101FB04
S315080020F01051DFF88005081880F817A04DE04FF456
S315080021008050B5FBF0F101FB1051DFF8680508189F
S31508002110807D50F040004FF48051B5FBF1F202FB90
S315080021201152DFF850155118887536E0DFF8D80BCC
S315080021300078FF2816D000204FF48051B5FBF1F245
S3150800214002FB1152DFF82C155118887500204FF440
S315080021508051B5FBF1F202FB1152DFF81815511840
S31508002160C87515E04FF48050B5FBF0F101FB10512E
S31508002170DFF80005081880F816904FF48050B5FB74
S31508002180F0F101FB1051DFF8EC04081880F817A0ED
S3150800219014999DF8280001F0CDFC280B4FF48051C6
S315080021A0484305F08BF84FF48052280B4FF48051C2
S315080021B001FB00F1DFF8BC0405F018F902AA0021BA
S315080021C0DFF8AC0404F080FA0BB0BDE8F08F00002D
S315080021D07C000020234D0020224D0020E44B0020E7
S315080021E0B3F01F002DE9F84F8AB004000D00002651
S315080021F00020ADF80A0000275FF000085FF000092C
S315080022005FF0000A5FF0000B04A8834668208BF88D
S3150800221000001BF1010B8BF800201BF1010B0020BD
S31508002220060006E0F6B2305D8BF800001BF1010BE4
S31508002230761CF6B2072EF5DB04208BF800001BF19E
S31508002240010B04208BF800001BF1010BDFF83404A6
S315080022500078FF280AD117208BF800001BF1010B24
S31508002260A0208BF800001BF1010B09E0A0208BF8D9
S3150800227000001BF1010B17208BF800001BF1010B66
S3150800228001208BF800001BF1010B99208BF8000048
S315080022901BF1010B0F2104A8FEF77BF98BF8000050
S315080022A01BF1010B16208BF800001BF1010B002611
S315080022B008E05FF0000802AA3900DFF8CC0302F054
S315080022C0F6FC761C5FFA88F8B8F1000F51D1F6B221
S315080022D0002E4ED10421DFF8280A02F053FE112100
S315080022E004A802F04FFE02A8019003A800900DF181
S315080022F00A03002243F69821DFF8080A02F0C8FA12
S315080023000700BDF80800002805D0F6B2012E01D155
S315080023105FF00008D5E7DFF8F0090078FF280DD050
S3150800232002AA3900D84802F0C2FC02AA002142F6E5
S31508002330E06002F07FFF5FF00108C2E70722B91CE0
S31508002340200002F01CFD0128B5D197F80E9097F8E9
S315080023500FA05FFA89F919F00300032802D15FF08C
S315080023600008A8E7032019EA000FA2D05FF00108C9
S31508002370A1E702A8009003AB00224FF47A71BC488B
S3150800238004F094F8BDF80800002840F087804FF460
S315080023908052280B4FF4805101FB00F1B54805F037
S315080023A0CFF85FFA88F8B8F1000F2FD15FFA89F9EC
S315080023B019F00300032814D14FF48050B5FBF0F14F
S315080023C001FB1051AB48081880F816904FF480505E
S315080023D0B5FBF0F101FB1051A648081880F817A0C4
S315080023E047E04FF48050B5FBF0F101FB1051A148CE
S315080023F00818807D50F040004FF48051B5FBF1F28B
S3150800240002FB11529B495118887532E0DFF8F8082B
S315080024100078FF2814D001204FF48051B5FBF1F263
S3150800242002FB115293495118887500204FF48051C8
S31508002430B5FBF1F202FB11528E495118C87513E02B
S315080024404FF48050B5FBF0F101FB1051894808188C
S3150800245080F816904FF48050B5FBF0F101FB10514F
S315080024608448081880F817A014999DF8280001F0E8
S3150800247061FB280B4FF48051484304F01FFF4FF4CB
S315080024808052280B4FF4805101FB00F1794804F083
S31508002490ADFF02AA0021764804F016F90BB0BDE894
S315080024A0F08FF0B58DB0002000900020029000203B
S315080024B0ADF804000020ADF80C000024002500202B
S315080024C08DF80600002700260222DFF8D81A01A890
S315080024D005F036F80322DFF8D01A00A805F030F820
S315080024E0BDF80400002800F09880012002F05AFE8A
S315080024F000240AE0009904A8FFF74FFC032200987D
S31508002500C11C00A805F01CF8641CBDF80400A4B2A0
S31508002510844280F07F8006220098811D04A805F079
S315080025200FF80322009810F10C0102A805F008F82C
S315080025300222009810F1120103A805F001F800998B
S3150800254004A8FFF717FB0028D8D000252BE0A02009
S315080025503070761C17203070761C01203070761C7F
S3150800256072203070761C0F2108A8FEF712F830701A
S31508002570761C16203070761C0421DFF8840702F0DA
S3150800258001FD112108A802F0FDFC03220298C11CD6
S3150800259002A804F0D5FF0DF10E02002142F6E06014
S315080025A002F048FE6D1CBDF80C00ADB28542A1D202
S315080025B007220298811D06A804F0C2FF012202988C
S315080025C010F10D010DF1060004F0BAFF08AE6820FF
S315080025D03070761C9DF806003070761C002705E0E2
S315080025E0FFB206A8385C3070761C7F1CFFB2072F36
S315080025F0F6DB04203070761C04203070761C2148E7
S315080026000078FF28A3D117203070761CA0203070E0
S31508002610761CA2E7002002F0C5FD0DB0F0BD1FB57F
S315080026200BE0BDF80800015D200001F0A7F90DF1E7
S315080026300A022100144802F03AFB0DF10A00019043
S3150800264003A8009002AB00220021DFF8700E02F00A
S315080026501FF90400207B032802D00A28E1D0E6E708
S31508002660BDF80800015D200000F010F8DFE7000063
S31508002670344B00209C00002093000020284D0020A9
S31508002680544A0020184D0020544C00202DE9F041F2
S3150800269088B004000D0000260020ADF806000020D2
S315080026A00290002006905FF00008607B10F00F078C
S315080026B0A07B02281BD0032800F0F580062800F02E
S315080026C03E81072800F079810C2800F0C8810E2881
S315080026D000F00D820F2800F0C782102800F0008352
S315080026E0112800F04582122800F0808204E3A07CBD
S315080026F0DFF8581D0870607CDFF8541D0870207CD0
S31508002700DFF8BC1D0870E07BDFF8B81D0870B4F868
S315080027101300DFF8B41D08801121DFF8380D02F028
S31508002720FBFA062103A802F0F7FAA27CACA103A8DB
S3150800273005F0F6FC03A9DFF81C0D03F0CCF9A9A1F6
S31508002740DFF8100D03F0C7F9062103A802F0E4FA32
S31508002750627CA3A103A805F0E3FC03A9DFF8F40C47
S3150800276003F0B9F99FA1DFF8EC0C03F0B4F90621E0
S3150800277003A802F0D1FA227C99A103A805F0D0FC9F
S3150800278003A9DFF8D00C03F0A6F996A1DFF8C40C6C
S3150800279003F0A1F9062103A802F0BEFAE27B90A194
S315080027A003A805F0BDFC03A9DFF8A80C03F093F90C
S315080027B00821DFF8180D02F0AFFA062103A802F087
S315080027C0ABFAB4F8132086A103A805F0A9FC86A1E4
S315080027D0DFF8F80C03F07FF903A9DFF8F00C03F033
S315080027E07AF982A1DFF8E40C03F075F901A80090E4
S315080027F005AB00224FF47A71DFF8FC0D03F056FEA4
S31508002800BDF80400002840F077824FF48072DFF8A4
S31508002810EC1DDFF8EC0D04F093FE1122DFF8341CF2
S31508002820DFF8AC0C03F002FC0822DFF8A01CDFF886
S31508002830A40C03F0FBFB0122DFF8101CDFF8980C50
S3150800284003F0F4FB0122DFF8081CDFF8900C03F014
S31508002850EDFB0122DFF8681CDFF8840C03F0E6FBC9
S315080028600122DFF8601CDFF89C0D03F0DFFB022273
S31508002870DFF8541CDFF8900D03F0D8FB4FF4807294
S31508002880DFF8781DDFF8780D04F07FFD01AA002136
S31508002890DFF8640D03F018FF3900C9B22800C0B28A
S315080028A001F048F928E20521DFF8600D02F034FA54
S315080028B0E07BDFF8581D0870207CDFF8501D487053
S315080028C0607CDFF8481D8870A07CDFF8401DC87062
S315080028D0E07CDFF8381D087101A8009005AB0022DE
S315080028E04FF47A71DFF8100D03F0E0FDBDF804002F
S315080028F0002840F001824FF48072DFF8001DDFF8EF
S31508002900000D04F01DFE0522DFF8001DDFF8000D9E
S3150800291003F08CFB4FF48072DFF8E01CDFF8E00C64
S3150800292004F033FD01AA0021DFF8CC0C03F0CCFE3D
S315080029303900C9B22800C0B201F0FCF8DCE114F194
S31508002940190000F089FD029014F11201029800F0B6
S31508002950DDF9804602987FF07F4188422CD0E07FDF
S31508002960002812D17FF07F40804508D04146029862
S3150800297000F01CFB7FF07F41884200F0BD813900E2
S31508002980C9B22800C0B201F0D5F8E07F012813D1FA
S315080029907FF07F40804509D114F11201029800F0BA
S315080029A0EBF97FF07F41884200F0A6813900C9B271
S315080029B02800C0B201F0BEF89EE1E07BAA2833D118
S315080029C00222DFF8E0150DF1060004F0B9FD032236
S315080029D0DFF8D41502A804F0B3FD00260BE000BF0B
S315080029E0256400002E0000002C0000000D000000E9
S315080029F006980290761CBDF80600B6B286420DD23D
S31508002A0003220298C11C06A804F09AFD029800F059
S31508002A1009FE7FF07F418842EAD16DE13900C9B2EB
S31508002A202800C0B201F086F8E07B552816D114F1CB
S31508002A30100000F011FD7FF07F41884208D114F1A3
S31508002A40100000F04FFD7FF07F41884200F054816E
S31508002A503900C9B22800C0B201F06CF84CE1E07B3D
S31508002A60AA2803D1AA20DFF8AC1B0870E07BBB2894
S31508002A7003D1BB20DFF89C1B0870E07BFF2803D13D
S31508002A80FF20DFF8901B087001A8009005AB002214
S31508002A904FF47A71DFF8600B03F008FDBDF8040007
S31508002AA0002840F029814FF48072DFF8501BDFF8C8
S31508002AB0500B04F045FD0122DFF8581BDFF8580BD0
S31508002AC003F0B4FA4FF48072DFF8301BDFF8300BEE
S31508002AD004F05BFC01AA0021DFF81C0B03F0F4FDEF
S31508002AE03900C9B22800C0B201F024F804E1E07B3D
S31508002AF0AA2803D1AA20DFF8241B0870E07BFF2848
S31508002B0003D1FF20DFF8141B087001A8009005AB5D
S31508002B1000224FF47A71DFF8E00A03F0C7FCBDF82B
S31508002B200400002840F0E8804FF48072DFF8CC1AE1
S31508002B30DFF8CC0A04F004FD0122DFF8E01ADFF81A
S31508002B40E00A03F073FA4FF48072DFF8B01ADFF880
S31508002B50B00A04F01AFC01AA0021DFF89C0A03F067
S31508002B60B3FD3900C9B22800C0B200F0E3FFC3E0E4
S31508002B70E07BAA2802D1AA2063490870E07BFF28D7
S31508002B8002D1FF206049087001A8009005AB002219
S31508002B904FF47A71DFF8600A03F088FCBDF8040088
S31508002BA0002840F0A9804FF48072DFF8501ADFF849
S31508002BB0500A04F0C5FC01225349DFF8B00D03F0B2
S31508002BC035FA4FF48072DFF8341ADFF8340A04F065
S31508002BD0DCFB01AA0021DFF8200A03F075FD3900A5
S31508002BE0C9B22800C0B200F0A5FF85E0E07B012845
S31508002BF004D10120DFF8781D087003E0FF20DFF814
S31508002C00701D087001A8009005AB00224FF47A7178
S31508002C10DFF8E40903F04AFCBDF8040000286BD18C
S31508002C204FF48072DFF8D419DFF8D40904F088FC71
S31508002C300122DFF83C1DDFF83C0D03F0F7F94FF4ED
S31508002C408072DFF8B819DFF8B80904F09EFB01AA0C
S31508002C500021DFF8A40903F037FD3900C9B22800BE
S31508002C60C0B200F067FF47E0E07BFF2837D101A834
S31508002C70009005AB00224FF47A71DFF87C0903F067
S31508002C8015FCBDF80400002836D14FF48072DFF831
S31508002C906C19DFF86C0904F053FCFF20DFF87C1987
S31508002CA008700122DFF87419DFF8CC0C03F0BEF9BE
S31508002CB04FF48072DFF84419DFF8440904F065FB25
S31508002CC001AA0021DFF8300903F0FEFC3900C9B279
S31508002CD02800C0B200F02EFF0020002108700BE08B
S31508002CE0E07BFF2808D13900C9B22800C0B200F03D
S31508002CF021FF00200021087008B0BDE8F08100001F
S31508002D0088000020C84A00209200002030B585B00F
S31508002D1005000C00002000900020ADF804000222F7
S31508002D2015F1120101A804F00BFC032215F10C01A0
S31508002D3000A804F005FC002506E003220098C11C43
S31508002D4000A804F0FDFB6D1CBDF80400ADB2854279
S31508002D500ED207220098811D02A804F0F1FB072273
S31508002D6002A9200002F00BF80128E6D1009801E03C
S31508002D707FF07F4005B030BD30B587B004000D0048
S31508002D8000200490002002900020ADF804000020E6
S31508002D90ADF8060000200590022214F1120101A8E0
S31508002DA004F0CEFB0222DFF8881D0DF1060004F0C0
S31508002DB0C7FB032214F10F0104A804F0C1FBBDF8F8
S31508002DC00400401CADF80400BDF80600401CADF830
S31508002DD0060004F020FD029002987FF07F418842A9
S31508002DE002D17FF07F40DAE007220298811D280091
S31508002DF004F09DFA0122029810F10D01E81E04F074
S31508002E0096FA0422029810F10E0105A804F08FFA2A
S31508002E100222029810F1160105A804F088FA03A800
S31508002E20009006AB00224FF47A71DFF8CC0703F066
S31508002E303DFBBDF80C00002802D07FF07F40AEE0D5
S31508002E4004987FF07F41884246D14FF48052200B88
S31508002E504FF4805101FB00F1DFF8A40704F070FB82
S31508002E60032202A94FF48050B4FBF0F303FB10438E
S31508002E70DFF88C0718180C3003F0D8F8032202A9DB
S31508002E804FF48050B4FBF0F303FB1043DFF87007F0
S31508002E9018180F3003F0CAF8022201A94FF480501F
S31508002EA0B4FBF0F303FB1043DFF85407181812308D
S31508002EB003F0BCF8200B4FF48051484304F0FEF9A8
S31508002EC04FF48052200B4FF4805101FB00F1DFF8DC
S31508002ED0300704F08BFA44E04FF48052200B4FF48D
S31508002EE0805101FB00F1DFF8180704F029FB0322E3
S31508002EF002A94FF48050B4FBF0F303FB1043DFF84C
S31508002F00000718180F3003F091F8022201A94FF4B0
S31508002F108050B4FBF0F303FB1043DFF8E4061818FF
S31508002F20123003F083F8200B4FF48051484304F025
S31508002F30C5F94FF48052200B4FF4805101FB00F184
S31508002F40DFF8BC0604F052FA03220498C11C02A852
S31508002F5004F0EDF90322029810F1120104A804F016
S31508002F60E6F94FF48072DFF89416DFF8940604F059
S31508002F70E7FA02220DF10601DFF8640C03F056F8B1
S31508002F804FF48072DFF87416DFF8740604F0FDF962
S31508002F9003AA0021DFF8600603F096FB029807B043
S31508002FA030BD0000A3F01F00A0F01F0070B586B06A
S31508002FB004000D0000200390002002900020ADF8C8
S31508002FC004000020ADF80600022214F1120101A83F
S31508002FD004F0B6FA0222DFF8581B0DF1060004F0D9
S31508002FE0AFFA0322E91C03A804F0AAFA032215F192
S31508002FF0120102A804F0A4FABDF80400401EADF8B8
S315080030000400BDF80600401EADF80600280004F0CE
S3150800301099FC04A8009005AB00224FF47A71DFF8FA
S31508003020D80503F043FABDF81000002802D07FF057
S315080030307F4009E2BDF8040000285DD14FF48052B4
S31508003040200B4FF4805101FB00F1DFF8B40504F0C2
S3150800305077FA032203A94FF48050B4FBF0F303FB7D
S315080030601043DFF89C0518180C3002F0DFFF022227
S3150800307001A94FF48050B4FBF0F303FB1043DFF8CB
S3150800308080051818123002F0D1FF032202A94FF466
S315080030908050B4FBF0F303FB1043DFF864051818FF
S315080030A00F3002F0C3FF200B4FF48051484304F061
S315080030B005F94FF48052200B4FF4805101FB00F1C3
S315080030C0DFF83C0504F092F94FF48072DFF82C150E
S315080030D0DFF82C0504F034FA02220DF10601DFF8B8
S315080030E0000B02F0A3FF4FF48072DFF81015DFF82B
S315080030F0100504F04AF9A1E102987FF07F41884261
S3150800310005D003987FF07F41884240F0FC80029802
S315080031107FF07F4188427CD14FF480520398000BA0
S315080031204FF4805101FB00F1DFF8D40404F008FAEB
S31508003130032202A903984FF48053B0FBF3F606FB6B
S315080031401306DFF8BC043018123002F06FFF03983C
S31508003150000B4FF48051484304F0B0F84FF4805206
S315080031600398000B4FF4805101FB00F1DFF890043F
S3150800317004F03CF94FF48052200B4FF4805101FBC8
S3150800318000F1DFF87C0404F0DBF9032203A94FF40D
S315080031908050B4FBF0F303FB1043DFF864041818FF
S315080031A00C3002F043FF022201A94FF48050B4FB11
S315080031B0F0F303FB1043DFF848041818123002F046
S315080031C035FF200B4FF48051484304F077F84FF44D
S315080031D08052200B4FF4805101FB00F1DFF82004E8
S315080031E004F004F94FF48072DFF81014DFF81004C5
S315080031F004F0A6F902220DF10601DFF8E40902F04F
S3150800320015FF4FF48072DFF8F413DFF8F40304F0C7
S31508003210BCF803987FF07F41884240F00F814FF455
S3150800322080520298000B4FF4805101FB00F1DFF841
S31508003230D00304F085F9032203A902984FF48053BA
S31508003240B0FBF3F606FB1306ED483018C01C02F077
S31508003250EDFE0298000B4FF48051484304F02EF817
S315080032604FF480520298000B4FF4805101FB00F195
S31508003270E34804F0BBF84FF48052200B4FF480511A
S3150800328001FB00F1DE4804F05BF9032202A94FF4C2
S315080032908050B4FBF0F303FB1043D94818180F30DD
S315080032A002F0C4FE022201A94FF48050B4FBF0F3E9
S315080032B003FB1043D2481818123002F0B7FE200B51
S315080032C04FF48051484303F0F9FF4FF48052200B26
S315080032D04FF4805101FB00F1C94804F087F84FF418
S315080032E08072C649C64804F02BF902220DF1060180
S315080032F0DFF8EC0802F09AFE4FF48072BF49C04826
S3150800330004F043F89AE04FF480520298000B4FF409
S31508003310805101FB00F1DFF8C40804F011F903221B
S3150800332003A902984FF48053B0FBF3F606FB130685
S31508003330DFF8A8083018C01C02F078FE0298000BC7
S315080033404FF48051484303F0B9FF4FF48052029876
S31508003350000B4FF4805101FB00F1DFF8800804F000
S3150800336045F84FF480520398000B4FF4805101FB47
S3150800337000F1DFF8680804F0E3F8032202A90398CD
S315080033804FF48053B0FBF3F606FB1306DFF84C0840
S315080033903018123002F04AFE0398000B4FF48051A1
S315080033A0484303F08BFF4FF480520398000B4FF409
S315080033B0805101FB00F1DFF8240804F017F84FF4F8
S315080033C08052200B4FF4805101FB00F1DFF80C0806
S315080033D004F0B6F8022201A94FF48050B4FBF0F3CA
S315080033E003FB1043DFF8F4071818123002F01EFE2C
S315080033F0200B4FF48051484303F060FF4FF480528E
S31508003400200B4FF4805101FB00F1DFF8D00703F0E1
S31508003410EDFF4FF480727949DFF8C00704F090F8A1
S3150800342002220DF10601DFF8B80702F0FFFD4FF49E
S3150800343080727249DFF8A40703F0A7FF04AA0021E7
S315080034406D4803F041F9280006B070BD95000020CC
S31508003450960000205000002030B585B004000020FA
S3150800346000900222DFF8D01801A804F069F80322B8
S31508003470DFF8C81800A804F063F8002506E0032260
S315080034800098C11C00A804F05BF86D1CBDF8040088
S31508003490ADB285420ED206220098811D02A804F01C
S315080034A04FF8062202A9200001F069FC0128E6D19E
S315080034B0009801E07FF07F4005B030BDEC4A00205F
S315080034C0970000209800002090000020740000203B
S315080034D0EC0000200C0100200B0100200A0100204E
S315080034E00901002010B586B00400002004900020D1
S315080034F002900020ADF804000020ADF80C0002226E
S31508003500DFF8341801A804F01BF80322DFF8301896
S3150800351004A804F015F8BDF80400401CADF8040032
S3150800352004F079F9029006220298811D200003F022
S31508003530FEFE0222029810F1120103A803F0F7FE1C
S315080035400DF10600009005AB00224FF47A712A4867
S3150800355002F0ACFFBDF80600002802D07FF07F40DD
S3150800356047E04FF48072DFF87C16DFF8700603F048
S31508003570E7FF04987FF07F41884212D1032202A90F
S31508003580DFF8D80C02F052FD022201A9DFF8D00CB0
S3150800359002F04CFD032202A9DFF8C80C02F046FD32
S315080035A018E0022201A9DFF8B80C02F03FFD032259
S315080035B002A9DFF8B00C02F039FD03220498C11CF9
S315080035C002A803F0B4FE0322029810F1140104A81D
S315080035D003F0ADFE4FF48072DFF80816DFF8FC053D
S315080035E003F0D3FE0DF106020021034803F06CF840
S315080035F0029806B010BD0000344B002000F01F00F2
S315080036009C000020080100201A0100207C000020F0
S315080036101C010020930000205C010020184D0020AA
S315080036205D01002030B589B004000020ADF8100017
S3150800363000200590002006900020039000200290AC
S315080036400020ADF804000025022214F1120104A896
S3150800365003F076FF032214F10C0105A803F070FFAE
S315080036600322E11C03A803F06BFF032214F11401E3
S3150800367002A803F065FF0222DFF8BC1601A803F0D2
S315080036805FFFBDF80400401EADF8040000200500E9
S3150800369002E0069805906D1CBDF81000ADB2854293
S315080036A00ED203220598C11C06A803F049FF059906
S315080036B02000FFF77BFC7FF07F418842E9D1EAE7EB
S315080036C0200004F03FF90DF10600009007AB002238
S315080036D04FF47A71DFF8580D02F0E8FEBDF80600DF
S315080036E0002802D07FF07F403EE1BDF804000028A4
S315080036F022D14FF48072DFF8EC14DFF8E00403F00F
S315080037001FFF032203A9DFF8540B02F08FFC0222E5
S3150800371001A9DFF84C0B02F089FC032202A9DFF8A5
S31508003720440B02F083FC4FF48072DFF8B814DFF81C
S31508003730AC0403F02AFE0FE102987FF07F4188422D
S3150800374005D003987FF07F41884240F09D8002981B
S315080037507FF07F41884249D14FF480520398000B8D
S315080037604FF4805101FB00F1DFF8700403F0E8FE26
S31508003770032202A903984FF48053B0FBF3F505FB27
S315080037801305DFF858042818143002F04FFC039884
S31508003790000B4FF48051484303F090FD4FF48052DC
S315080037A00398000B4FF4805101FB00F1DFF82C045D
S315080037B003F01CFE4FF48072DFF82814DFF81C04AF
S315080037C003F0BEFE032203A9DFF8900A02F02EFCDE
S315080037D0022201A9DFF8880A02F028FC4FF4807259
S315080037E0DFF80014DFF8F40303F0CFFD03987FF049
S315080037F07F41884240F0B0804FF480520298000B17
S315080038004FF4805101FB00F1DFF8D00303F098FE76
S31508003810032203A902984FF48053B0FBF3F505FB86
S315080038201305DFF8B8032818C01C02F0FFFB02983E
S31508003830000B4FF48051484303F040FD4FF480528B
S315080038400298000B4FF4805101FB00F1E34803F0A6
S31508003850CDFD4FF48072DFF88C13E04803F070FE5C
S31508003860022201A9DFF8F80902F0E0FB032202A907
S31508003870DFF8F00902F0DAFB4FF48072DFF8641320
S31508003880D64803F082FD67E04FF480520298000B99
S315080038904FF4805101FB00F1D04803F051FE03229A
S315080038A003A902984FF48053B0FBF3F505FB130503
S315080038B0CA482818C01C02F0B9FB0298000B4FF43E
S315080038C08051484303F0FAFC4FF480520298000BEB
S315080038D04FF4805101FB00F1C04803F087FD4FF417
S315080038E080520398000B4FF4805101FB00F1BB484E
S315080038F003F026FE032202A903984FF48053B0FB77
S31508003900F3F505FB1305B5482818143002F08EFBAD
S315080039100398000B4FF48051484303F0CFFC4FF453
S3150800392080520398000B4FF4805101FB00F1AB481D
S3150800393003F05CFD4FF48072AA49A84803F000FE24
S31508003940022201A9DFF8180902F070FB4FF4807211
S31508003950A449A24803F019FD0DF106020021DFF87B
S31508003960D00A02F0B1FE200009B030BD5E01002089
S31508003970940000205F0100205401002080B50A0051
S31508003980417B11F00F01837B022B0ED0032B12D043
S31508003990062B16D0072B1DD00C2B21D00E2B25D08D
S315080039A0112B29D0122B2DD031E0C9B21000C0B28C
S315080039B000F0BAFC2BE0C9B21000C0B200F054FC0B
S315080039C025E00B00DBB2D2B210F11001C07B00F08B
S315080039D0B9F91CE0C9B21000C0B200F005F916E04A
S315080039E0C9B21000C0B200F025FD10E0C9B210003F
S315080039F0C0B200F07FFD0AE0C9B21000C0B200F004
S31508003A00D8FD04E0C9B21000C0B200F033FE01BD13
S31508003A1030B587B00024002518E04FF48071DFF830
S31508003A20500C02F09CFC00AA00214FF47A7001F0B9
S31508003A3001FC4FF48071DFF8380C02F093FC00AA01
S31508003A4000214FF47A7001F0F5FB0024DFF8E40C4E
S31508003A5000780028E1D04FF48071DFF8140C02F0EA
S31508003A607EFC00AA0021642001F0E4FB4FF480717B
S31508003A70DFF8FC0B02F076FC00AA0021642001F0B6
S31508003A80D9FBDFF8B40C00780028DFD0641CE4B258
S31508003A900F2CDBDB002401AD682028706D1C272065
S31508003AA028706D1C002028706D1C272028706D1C3E
S31508003AB0002028706D1C682028706D1CCA2028708C
S31508003AC06D1CDFF8780C007828706D1CDFF86C0C1C
S31508003AD0407828706D1CDFF8640C807828706D1C9F
S31508003AE0DFF8580CC07828706D1CDFF8500C007988
S31508003AF028706D1C0F2028706D1CDFF8C80C007824
S31508003B0050F0600028706D1CDFF8BC0C0078287037
S31508003B106D1C09210DF10A00FCF73BFD28706D1C90
S31508003B20162028706D1C112101A801F0DBFE8DE717
S31508003B30B3F01F0030B585B0040000AD68202870CA
S31508003B406D1C272028706D1C002028706D1C2720EE
S31508003B5028706D1C002028706D1C682028706D1C4C
S31508003B60802028706D1CDFF8D40B007828706D1C37
S31508003B70DFF8C80B407828706D1CDFF8C00B80781A
S31508003B8028706D1CDFF8B40BC07828706D1CDFF840
S31508003B90AC0B007928706D1C002028706D1C51F044
S31508003BA0600028706D1C012028706D1C09210DF11C
S31508003BB00600FCF7EEFC28706D1C162028706D1C9C
S31508003BC0E4B2002C04D0112100A801F08BFE03E01A
S31508003BD0112100A801F040FA05B030BD9C00002074
S31508003BE04F01002000F01F00F0B585B004000F005B
S31508003BF00DF10201DFF8D40B01F036F80600002EAD
S31508003C0000F09880350003224C4901A803F098FC7F
S31508003C100222494900A803F093FC68203070761CFC
S31508003C20BDF80000062148430930800050F0030023
S31508003C303080B61CBDF800000621484309308000D4
S31508003C4050F003003080B61C68203070761C88203F
S31508003C503070761CDFF8E40A00783070761CDFF8DE
S31508003C60DC0A40783070761CDFF8D00A807830702D
S31508003C70761CDFF8C80AC0783070761CDFF8BC0AF4
S31508003C8000793070761C0A203070761C57F0600078
S31508003C903070761C07203070761C00270FE0C0B203
S31508003CA002A9415C3170761C401CC0B20628F6DBBE
S31508003CB003220198C11C01A803F042FC7F1CBDF831
S31508003CC00000BFB2874207D206220198811D02A8CA
S31508003CD003F036FC0020E8E7BDF80000062148435B
S31508003CE010F1090189B2A81DFCF753FC3070761C47
S31508003CF016203070761CE4B2002C0AD0BDF80000FD
S31508003D000621484310F1110189B2280001F0EAFDA5
S31508003D1009E0BDF800000621484310F1110189B2F7
S31508003D20280001F099F90DF102022900DFF89C0A32
S31508003D3000F0BDFF05B0F0BDA3F01F00A0F01F0006
S31508003D40A5F01F002DE9FF4F8BB05FF0000A5FF06A
S31508003D500008002500265FF0000B5FF00009002030
S31508003D60ADF8000000270222DFF8641A0DF10A00F8
S31508003D7003F0E6FB0222DFF85C1A04A803F0E0FB76
S31508003D800322DFF8541A03A803F0DAFBBDF80A0089
S31508003D90002800F0608206A9DFF8300A00F064FF08
S31508003DA00400002C00F0578205940722DFF82C1A2D
S31508003DB00C9800F0E4FF012840F07681BDF8100069
S31508003DC00A2190FBF1F0BDF810100A2291FBF2F3DC
S31508003DD002FB13118DF802105FF00008ADF8080019
S31508003DE09DF80200002804D0BDF80800401CADF874
S31508003DF00800002506E003220398C11C03A803F067
S31508003E009FFB6D1CBDF80A00ADB2854280F01D828D
S31508003E1006220398811D09A803F092FB0322039842
S31508003E2010F10C0101A803F08BFB0222039810F194
S31508003E3012010DF1120003F083FB002616E0BDF80F
S31508003E4000001121484310F1120189B2059801F0CA
S31508003E5003F906AA0021642001F0ECF9059C032267
S31508003E600198C11C01A803F06BFB761CBDF8120073
S31508003E70B6B28642BFD207220198811D07A803F071
S31508003E805FFB0122019810F10D010DF1030003F00B
S31508003E9057FB0122019810F115010DF11A0003F0E4
S31508003EA04FFBFFB2002F40F0A880012718F1010848
S31508003EB068202070641CBDF8080001280CD1BDF8E4
S31508003EC01090ADF80090BDF80000112148430A3063
S31508003ED0800050F0030A39E01FFA88F8B8F1010F9C
S31508003EE00CD15FF00A09ADF80090BDF80000112169
S31508003EF048430A30800050F0030A27E0BDF808005E
S31508003F001FFA88F8804515D19DF80200002804D1CB
S31508003F105FF00A09ADF8009003E09DF80290ADF84D
S31508003F200090BDF80000112148430A30800050F087
S31508003F30030A0BE05FF00A09ADF80090BDF800002F
S31508003F40112148430A30800050F0030AA4F800A063
S31508003F50A41CA4F800A0A41C68202070641C882057
S31508003F602070641CDFF8D40700782070641CDFF822
S31508003F70CC0740782070641CDFF8C0078078207072
S31508003F80641CDFF8B807C0782070641CDFF8AC073B
S31508003F9000792070641C0A202070641CBDF8080093
S31508003FA0012806D19DF8380050F060002070641C86
S31508003FB01CE01FFA88F8B8F1010F06D19DF8380001
S31508003FC050F040002070641C10E0BDF808001FFA8D
S31508003FD088F8804506D19DF8380050F020002070FA
S31508003FE0641C03E09DF838002070641C06202070CD
S31508003FF0641C9DF82C002070641C00202070641C32
S3150800400000202070641C5FF0000B08E05FFA8BFB51
S3150800401007A81BF800002070641C1BF1010B5FFA4F
S315080040208BFBBBF1070FF1DB5FF0000B08E05FFAD3
S315080040308BFB09A81BF800002070641C1BF1010B00
S315080040405FFA8BFBBBF1060FF1DB00202070641CC6
S3150800405001202070641CB9F101091FFA89F9B9F128
S31508004060000F7FF4FCAE0027BDF80000112148437D
S3150800407010F10A0189B20598801DFCF78AFA2070AA
S31508004080641C16202070641C9DF8340000283FF438
S31508004090D6AEBDF800001121484310F1120189B2CD
S315080040A0059801F01FFCD4E6002531E003220198AB
S315080040B0C11C01A803F044FA761CBDF81200B6B27A
S315080040C0864224D207220198811D07A803F038FAF0
S315080040D00122019810F10D010DF1030003F030FAE9
S315080040E0072207A90C9800F04AFE0128DED19DF8A0
S315080040F003009DF82C108842D8D10122019810F1AE
S3150800410015010DF11A0003F01BFA5FF001086D1C8A
S315080041105FFA88F8B8F1000F1BD1BDF80A00ADB2F6
S31508004120854216D206220398811D09A803F008FACB
S315080041300322039810F10C0101A803F001FA0222E8
S31508004140039810F112010DF1120003F0F9F9002697
S31508004150B3E75FFA88F8B8F1000F76D068202070C8
S31508004160641C6F202070641C00202070641C6F2063
S315080041702070641C00202070641C68202070641C59
S3150800418088202070641CDFF8B40500782070641C51
S31508004190DFF8A80540782070641CDFF8A005807851
S315080041A02070641CDFF89405C0782070641CDFF862
S315080041B08C0500792070641C0A202070641C9DF808
S315080041C0380050F060002070641C06202070641CC3
S315080041D09DF82C002070641C00202070641C0020B0
S315080041E02070641C002505E0ADB207A8285C207085
S315080041F0641C6D1CADB2072DF6DB002505E0ADB2DB
S3150800420009A8285C2070641C6D1CADB2062DF6DB6F
S3150800421000202070641C01202070641C1B21059856
S31508004220801DFCF7B6F92070641C16202070641CEB
S315080042309DF83400002804D02321059801F052FB8C
S3150800424003E02321059800F007FF06AA0599DFF881
S315080042507C0500F02CFD0FB0BDE8F08F3C01002076
S315080042603F01002041010020F8B504000D0000A917
S31508004270DFF8580500F0F8FC0700002F53D03E0081
S31508004280682038707F1C272038707F1C0020387003
S315080042907F1C272038707F1C002038707F1C682000
S315080042A038707F1C882038707F1CDFF890040078EF
S315080042B038707F1CDFF88404407838707F1CDFF87C
S315080042C07C04807838707F1CDFF87004C0783870FA
S315080042D07F1CDFF86804007938707F1C0A20387064
S315080042E07F1C55F0600038707F1C032038707F1CD7
S315080042F00921B01DFCF74DF938707F1C162038705F
S315080043007F1CE4B2002C04D01121300001F0EAFA37
S3150800431003E01121300000F09FFE00AA3100DFF80B
S31508004320AC0400F0C4FCF1BD2DE9F04182B00400F4
S315080043300D00002700265FF0000800A9DFF88C04AE
S3150800434000F092FC0700002F70D03E0068203870FD
S315080043507F1C3F2038707F1C002038707F1C3F2050
S3150800436038707F1C002038707F1C682038707F1CCE
S31508004370882038707F1CDFF8C403007838707F1CEB
S31508004380DFF8B803407838707F1CDFF8B003807810
S3150800439038707F1CDFF8A403C07838707F1CDFF8FC
S315080043A09C03007938707F1C0A2038707F1C55F0F2
S315080043B0600038707F1C022038707F1CDFF82004EC
S315080043C0007838707F1CDFF81C04007838707F1C72
S315080043D0DFF81404007838707F1CDFF810040078C2
S315080043E038707F1CB846DFF808040088A8F8000073
S315080043F018F1020847460F21B01DFCF7CAF83870B5
S315080044007F1C162038707F1CE4B2002C04D01721BC
S31508004410300001F067FA03E01721300000F01CFEB7
S3150800442000AA3100DFF8A40300F041FCBDE8F381DF
S31508004430344B0020F8B504000D000027002600A91B
S31508004440DFF8880300F010FC0700002F51D03E006B
S31508004450682038707F1C2B2038707F1C002038702D
S315080044607F1C2B2038707F1C002038707F1C68202A
S3150800447038707F1C882038707F1CB04800783870E8
S315080044807F1CAE48407838707F1CAC4880783870FE
S315080044907F1CAA48C07838707F1CA84800793870F5
S315080044A07F1C0A2038707F1C55F0600038707F1C0E
S315080044B00C2038707F1CCF48007838707F1C0A2182
S315080044C0B01DFCF766F838707F1C162038707F1C04
S315080044D0E4B2002C04D01221300001F003FA03E004
S315080044E01221300000F0B8FD00AA3100B74800F0EC
S315080044F0DEFBF1BDF8B504000D000027002600A973
S31508004500B24800F0B1FB0700002F51D03E006820EA
S3150800451038707F1C2B2038707F1C002038707F1C59
S315080045202B2038707F1C002038707F1C682038705C
S315080045307F1C882038707F1C8048007838707F1C64
S315080045407E48407838707F1C7C48807838707F1C9D
S315080045507A48C07838707F1C7848007938707F1C94
S315080045600A2038707F1C55F0600038707F1C0E20BA
S3150800457038707F1CA048007838707F1C0A21B01D4F
S31508004580FCF707F838707F1C162038707F1CE4B2D9
S31508004590002C04D01221300001F0A4F903E0122106
S315080045A0300000F059FD00AA3100884800F07FFB72
S315080045B0F1BDF8B504000D000027002600A98348C0
S315080045C000F052FB0700002F51D03E0068203870DB
S315080045D07F1C2B2038707F1C002038707F1C2B20F6
S315080045E038707F1C002038707F1C682038707F1C4C
S315080045F0882038707F1C5148007838707F1C4F48D7
S31508004600407838707F1C4D48807838707F1C4B483E
S31508004610C07838707F1C4948007938707F1C0A209A
S3150800462038707F1C55F0600038707F1C1120387078
S315080046307F1C7248007838707F1C0A21B01DFBF772
S31508004640A8FF38707F1C162038707F1CE4B2002C37
S3150800465004D01221300001F045F903E012213000A0
S3150800466000F0FAFC00AA3100584800F020FBF1BD22
S31508004670000C0140F8B504000D000027002600A92B
S31508004680524800F0F1FA0700002F51D03E0068208A
S3150800469038707F1C2B2038707F1C002038707F1CD8
S315080046A02B2038707F1C002038707F1C68203870DB
S315080046B07F1C882038707F1C2048007838707F1C43
S315080046C01E48407838707F1C1C48807838707F1CDC
S315080046D01A48C07838707F1C1848007938707F1CD3
S315080046E00A2038707F1C55F0600038707F1C122035
S315080046F038707F1C4248007838707F1C0A21B01D2C
S31508004700FBF747FF38707F1C162038707F1CE4B211
S31508004710002C04D01221300001F0E4F803E0122145
S31508004720300000F099FC00AA3100284800F0BFFAD2
S31508004730F1BD0000174D0020264D00207C0000200A
S315080047401FB500241BE080212E4801F00BFE02AAAB
S315080047500021642000F06EFD80212A4801F0FFFD4B
S3150800476002AA0021642000F065FD641CA4B2642C32
S31508004770E9DB00244FF48041234801F0F3FD02A849
S31508004780019003A800904FF48473002201211F486A
S3150800479003F013FD02AA00214FF4FA7000F04AFD57
S315080047A04FF40051184801F0CFFD0028E7D14FF427
S315080047B08041154801F0D3FD0121154801F0D2FDCD
S315080047C0D4E70000234D0020274D0020544C00203C
S315080047D0A3F01F00B3F01F00A0F01F00D4CF0008FD
S315080047E098000020970000209600002095000020E1
S315080047F09000002093000020184D00209200002011
S3150800480094000020000C014000100140384C0020A4
S31508004810000801402DE9F04106000F0090461C00F3
S315080048200025DFF8BC020078002803D042F6E160D4
S3150800483020802BE0002E03D145F6C350208025E0CA
S315080048401FFA88F8B8F1000F03D146F29450208079
S315080048501CE001F0FFFC0500DFF888023060776095
S31508004860414689B216F1140004F033F816F108002F
S3150800487004F050FBDFF870020088401CDFF868126D
S315080048800880280001F0EAFC00202080BDE8F081BD
S315080048902DE9F04F89B004000D0016001F005FF0E7
S315080048A00008DDF84C908E480078002805D046F2BE
S315080048B0AE10A9F800000020C6E0002C05D145F688
S315080048C0C350A9F800000020BEE0002F05D146F22B
S315080048D0D520A9F800000020B6E0B6B230000028BE
S315080048E002D0B0F5004F1FD120687E49884221D1F9
S315080048F0DDF848A0BAF1000F02D00020CAF800007F
S3150800490001F0A8FC80464B465246390014F11400C3
S3150800491003F0E9FF8346B9F80000002810D14046A5
S3150800492001F09CFC58468FE045F62560A9F8000082
S31508004930002089E045F6C450A9F80000002083E06D
S31508004940300408D5404601F089FC46F2B010A9F8B3
S315080049500000002078E065480078002808D0404626
S3150800496001F07CFC46F66350A9F8000000206BE0D5
S315080049702B000522210000A804F068FA404601F041
S315080049806DFC04F04BF901F065FC80465848006858
S3150800499090F83500002805D0022838D017D3032808
S315080049A026D045E052480068D0F85CB05048006808
S315080049B0B0F860003880BAF1000F04D04C4800689F
S315080049C0006CCAF800000020A9F8000038E05FF083
S315080049D0000B00203880BAF1000F04D04448006864
S315080049E0006CCAF8000046F2A910A9F8000027E0F2
S315080049F05FF0000B00203880BAF1000F02D00020CB
S31508004A00CAF8000047F2D920A9F8000018E05FF0BC
S31508004A10000B00203880BAF1000F04D03448006833
S31508004A20006CCAF8000045F6C250A9F8000007E075
S31508004A305FF0000B0020388046F62E60A9F80000CB
S31508004A40404601F00BFC584609B0BDE8F08F2DE949
S31508004A50FC4105000E0017009846089C002D03D15E
S31508004A6045F6C35020802AE01FFA88F840460028F9
S31508004A7015D0102813D0B0F5007F10D0B0F5047FFC
S31508004A800DD0B0F5004F0AD048F21001884206D082
S31508004A90B0F5024F03D048F21021884211D1286898
S31508004AA01049884211D104F086FC019400904346CF
S31508004AB09BB23A0092B23100280000F01BF8BDE81C
S31508004AC0F38145F625602080F9E745F6C450208035
S31508004AD0F5E70021044A1180002101807047000093
S31508004AE0194D0020515545550E4D00201E4D0020EC
S31508004AF0F04C00202DE9F04F83B004000D0016009D
S31508004B001F005FF0000A01F0A5FB824614F10800B9
S31508004B10DDF83080DDF834900189002914D1F806D3
S31508004B2001D4002300E01023CDF80490CDF80080CE
S31508004B309BB2320092B2290014F1140003F00BFF65
S31508004B40504601F08BFB25E0B90502D5B0F808B050
S31508004B5001E05FF0010B00680DE081684068019094
S31508004B60CDF8008033009BB22A00200004F048FAF2
S31508004B700198BBF1010B1FFA8BFBBBF1000FECD1BF
S31508004B80504601F06BFB380401D404F047F80020C6
S31508004B90A9F80000BDE8F78F2DE9F84305000E00D7
S31508004BA0170098460020DDF824905849097800290E
S31508004BB004D045F2B960A9F8000053E0002F04D1EB
S31508004BC045F2BB60A9F800004CE01FFA88F8B8F176
S31508004BD0020F04DA45F2BC60A9F8000042E0089C1E
S31508004BE0A4B2042C04D245F2C160A9F8000039E049
S31508004BF0032000280FD0074204D045F2BB60A9F86D
S31508004C0000002FE0210089B2014204D045F2C160BC
S31508004C10A9F8000026E03B003A00B8F1010100209F
S31508004C2004E0A4B2A2181A601300401C80B289B22C
S31508004C308842F6D30020186001F00CFB344929603D
S31508004C40AE606F60EF60A5F81480A5F812802C821C
S31508004C5030490988491C2F4A118001F0FFFA0020C3
S31508004C60A9F80000BDE8F18370B505000C00002026
S31508004C70002D04D145F2BF602080002016E001F027
S31508004C80E9FAA98A002906D101F0E8FA45F2C260D4
S31508004C90208000200AE0EE683168E960A98A491E8A
S31508004CA0A98201F0DBFA00202080300070BD70B5C3
S31508004CB005000E0014000020002D03D145F2BF6048
S31508004CC020801BE0002E03D145F2BE60208015E04F
S31508004CD001F0C0FAA98A6A8A914205D301F0BEFAA0
S31508004CE045F2BA60208009E0E9683160EE60A98A79
S31508004CF0491CA98201F0B2FA0020208070BD00216B
S31508004D00044A11800021018070470000194D0020D7
S31508004D104D454D200A4D002080B50A00002100F0BF
S31508004D2001F801BD30B4002A27D0002825D0002379
S31508004D30002403E01B02C9B20B43641C042CF9D3FC
S31508004D400425B0FBF5F404FB1504E4B2002C08D0E6
S31508004D5003E00170401C521E641C002A01D0042C7A
S31508004D60F7D302E00360001D121F042AFAD202E0FC
S31508004D700170401C521E002AFAD130BC704770B42C
S31508004D801300002B01D1012052E0002801D1002098
S31508004D904EE0002901D100204AE0012218185918CE
S31508004DA00425B0FBF5F404FB1504E4B20426B1FBB4
S31508004DB0F6F505FB1615EDB2AC4201D1012500E06A
S31508004DC00025EDB2012D2CD1002C10D008E0401E94
S31508004DD0491E05780E78B54200D000225B1E641E77
S31508004DE0D2B2012A03D1002B01D0002CEFD1D2B2C6
S31508004DF0012A16D107E0001F091F04680D68AC4296
S31508004E0000D000221B1FD2B2012A01D1042BF2D2F4
S31508004E1007E0401E491E04780D78AC4200D00022F7
S31508004E205B1ED2B2012A01D1002BF2D11000C0B20A
S31508004E3070BC704780B52021DFF8C00304F065FB1D
S31508004E4000281CD0DFF8B40304F05BFBDFF8B013CE
S31508004E500968002913D0DFF8AC130968DFF8A02326
S31508004E601268891AFF290ADADFF8981309680870A0
S31508004E70DFF890030068401CDFF8881308604021BB
S31508004E80DFF8780304F041FB002810D040F22661D1
S31508004E90DFF8680304F046FB00AA0021DFF8680380
S31508004EA001F01FF8BDF80000002800D000BF01BDC2
S31508004EB01CB52021DFF8540304F027FB002816D080
S31508004EC0D24804F01EFB040001A9D148FFF7CCFE26
S31508004ED00100BDF80400002808D10C7001A8009054
S31508004EE000230122CB48FFF7B2FD00E000BF4021B6
S31508004EF0C64804F00AFB00280ED040F22661C348D3
S31508004F0004F010FB01AA0021C34800F0EAFFBDF82F
S31508004F100400002800D000BF13BD00001CB52021E6
S31508004F20BE4804F0F2FA002816D0BC4804F0E9FAA4
S31508004F30040001A9B648FFF797FE0100BDF8040072
S31508004F40002808D10C7001A8009000230122B1485E
S31508004F50FFF77DFD00E000BF4021B04804F0D5FA18
S31508004F6000280ED040F22661AC4804F0DBFA01AA0C
S31508004F700021AB4800F0B5FFBDF80400002800D0BA
S31508004F8000BF13BD70B584B004000D00A5480078B5
S31508004F90AA282BD1012240F22661A04804F084FAFF
S31508004FA0002612E00020ADF8040001A8009002AB2C
S31508004FB000224FF4FA719A4800F0D9FEB6B2315D74
S31508004FC089B2964804F099FA761CB6B2ADB2AE42EA
S31508004FD0E8D3002240F22661904804F065FA4021A1
S31508004FE08E4804F092FA002833D1F8E704218E4857
S31508004FF001F0B5F9012240F22661844804F054FA1A
S31508005000002612E00020ADF8040001A8009002ABCB
S3150800501000224FF4FA71804800F0A9FEB6B2315D5D
S3150800502089B27A4804F069FA761CB6B2ADB2AE42D5
S31508005030E8D3002240F22661744804F035FA40218C
S31508005040724804F062FA0028F9D00421764801F083
S3150800505089F9012004B070BD70B584B004000D0054
S315080050600421714801F07BF9012240F22661674864
S3150800507004F01AFA002612E00020ADF8040001A890
S31508005080009002AB00224FF4FA71634800F06FFEFD
S31508005090B6B2315D89B25D4804F02FFA761CB6B215
S315080050A0ADB2AE42E8D3002240F22661574804F07A
S315080050B0FBF94021554804F028FA0028F9D00421C4
S315080050C0594801F04FF9012004B070BD70B584B09D
S315080050D004000D00012240F22661484804F0E4F974
S315080050E0002606E0B6B2315D89B2444804F005FAF6
S315080050F0761CB6B2ADB2AE420DD201A8009002AB94
S3150800510000223221404800F032FEBDF80400002893
S31508005110E8D0002006E0002240F22661374804F075
S31508005120C3F9012004B070BD10B584B00400012293
S3150800513040F22661314804F0B7F940F226612F485B
S3150800514004F0F0F905E0217889B22C4804F0D5F985
S31508005150641C207800280DD001A8009002AB00221C
S315080051603221294800F003FEBDF804000028EAD0E1
S31508005170002006E0002240F22661204804F094F957
S31508005180012004B010BD38B50400002501F062F80E
S3150800519005001C4804601A480460280001F05EF8FF
S315080051A0012032BD80B50021C0B2002809D001F027
S315080051B051F8010001201D4A1070080001F04EF850
S315080051C008E001F047F801000020184A10700800AE
S315080051D001F044F8012002BD80B54FF4005004F0F8
S315080051E0F7F9002809D000AB00220121104803F086
S315080051F0EAF94FF4005004F0FDF901BD003801400A
S31508005200044D0020004D0020744B0020004800404B
S315080052106C4C0020804A0020904B0020004400403F
S31508005220AC4B002093000020000C0140174D0020D5
S31508005230384C0020F8B505000E0014000027DFF8EA
S31508005240E0000078002803D047F27520208040E06F
S31508005250DFF8D0000078002803D046F66350208097
S3150800526037E0B6B23000002805D0022803D004285B
S315080052701FD008281ED1002D03D147F27E2020809A
S3150800528027E000F0E7FF07000120DFF89C10096817
S3150800529081F836002300320092B2290022480068BD
S315080052A004F02EFA2088002808D0380000F0D6FF2F
S315080052B00FE0E6E745F6256020800AE01A48006810
S315080052C003F088FF380000F0C9FF03F0A7FC0020B0
S315080052D02080F1BD10B582B004F03FFC00AA002181
S315080052E0124804F0A3FE0400114800780C21114A64
S315080052F001FB002003F09CFF0F480068401E0E4982
S3150800530008600D480068002808D10C4800680A495A
S31508005310086000AA00210A4804F088FE13BD0000B0
S31508005320194D00201E4D0020F04C00206447002037
S315080053301B4D0020DC3E0020EC4C0020E84C0020F1
S315080053401848002038B50C001500FFF7EDFE2000C0
S31508005350FFF719FF00AA00212800FFF76BFFDFF807
S31508005360240704680020FFF70EFF200032BD02E084
S315080053700D220270401C0278002A01D18842F7D318
S31508005380704738B50024002500A9DFF8FC06FFF7AA
S315080053906BFC0400BDF80000002826D125004FF458
S315080053A0807200212800FFF7BDFC64222900DFF87F
S315080053B0DC064068FFF7C6FF040021002800FFF757
S315080053C0D6FFB2A1280000F02FFC002807D000AABB
S315080053D02900DFF8B406FFF76AFC012006E000AAF8
S315080053E02900DFF8A406FFF762FC002032BD70B57D
S315080053F082B00025002600A9DFF88C06FFF734FCEA
S315080054000500BDF80000002835D12E00002400E074
S31508005410641CE4B2642C28DAE4B2002C04D000AA96
S315080054200021C820FFF706FF4FF4807200213000E4
S31508005430FFF778FC64223100DFF850068068FFF732
S3150800544081FF050029003000FFF791FFDFF84016BD
S31508005450300000F0E9FB0028DAD000AA3100DFF8B6
S315080054602806FFF724FC012006E000AA3100DFF831
S315080054701806FFF71CFC002076BD2DE9F84F00241E
S315080054800025002600275FF000085FF000095FF09E
S31508005490000A00A9DFF8F005FFF7E6FB8146BDF82C
S315080054A0000000285AD1CA465FF0000B02E000242B
S315080054B01BF1010B5FFA8BFBBBF1640F48DA5FFA4D
S315080054C08BFBBBF1000F04D000AA0021C820FFF710
S315080054D0B1FE4FF4807200215046FFF723FC642288
S315080054E05146DFF8A805C068FFF72CFF81464946F4
S315080054F05046FFF73CFFB8A1504600F095FB002840
S31508005500D5D03A224FF48071504600F065FB851CD1
