S00C0000546573742E7372656378
S315080000008048002045B0000897AE000899AE000861
S315080000109BAE00089DAE00089FAE000800000000D9
S31508000020000000000000000000000000A1AE00086B
S31508000030A3AE0008000000002B940008A5AE000837
S3150800004079B200087DB2000881B2000885B20008BE
S3150800005089B200088DB2000891B2000895B200086E
S3150800006099B200089DB20008A1B20008A5B200081E
S31508000070A9B20008ADB20008B1B20008B5B20008CE
S31508000080B9B20008BDB20008C1B20008C5B200087E
S31508000090C9B20008CDB20008D1B20008D5B200082E
S315080000A0D9B20008DDB20008E1B20008E5B20008DE
S315080000B0E9B20008EDB20008F1B20008F5B200088E
S315080000C0F9B20008FDB2000801B3000805B300083C
S315080000D009B30008ADAE0008B5AE0008BDAE00080D
S315080000E0C5AE00080DB3000811B30008F0B585B019
S315080000F000261CE0FFB2682F19D1DFF8C80C00688B
S315080001000770DFF8C00C0068401CDFF8B81C0860F0
S3150800011000260120DFF8B01C087002A9DFF8AC0C35
S3150800012003F08EFBBDF80800002800D000BFDFF8FA
S31508000130940C006800281AD102A9DFF8940C03F081
S315080001405BFEDFF8801C0860DFF8780C0068DFF8D3
S31508000150841C08604FF480720021DFF8780C006870
S3150800016003F0A8FEBDF80800002800D000BF02A8CA
S31508000170019003A800900DF10A0300220021DFF880
S31508000180580C03F05DFF01000F7802AADFF84C0C4B
S3150800019003F055FEDFF8480C0078002865D0DFF834
S315080001A0280C00780028A5D0DFF8180C006807701E
S315080001B0DFF8100C0068401CDFF8081C0860DFF840
S315080001C0040C0068DFF80C1C0968401A0B2805D1D6
S315080001D0DFF8000C0068807A10F10D06F6B2002EE2
S315080001E0A5D0DFF8E00B0068DFF8E81B0968401ABD
S315080001F0F6B2B0429BDBDFF8CC0B006810F8010CB6
S31508000200162894D1F6B2B11E89B2DFF8C80B006879
S3150800021000F033F9DFF8AC1B096811F8021CC0B20C
S31508000220814284D100BF02AB00220021DFF89C0B7B
S3150800023003F08EFB02A800900023F6B2320092B2B9
S31508000240DFF8900B0168DFF89C0B03F0D8FF00205D
S31508000250DFF8801B08600020DFF8681B08600020B4
S31508000260DFF8641B0870002661E7DFF85C0B00788E
S31508000270002821D1FFB2682F7FF459AFDFF8440B6D
S3150800028000680770DFF83C0B0068401CDFF8341B79
S3150800029008600026012400250120DFF82C1B0870C1
S315080002A002A9DFF8280B03F0CBFABDF808000028EE
S315080002B03FF43DAF00BF3AE7DFF8080B0068077068
S315080002C0DFF8000B0068401CDFF8F81A0860EDB28A
S315080002D0002D39D1641CE4B2062C7FF428AFDFF870
S315080002E0F40A00684079682820D1DFF8E80A00682F
S315080002F0B0F80100DFF8DC1A0968B1F8031080B21B
S3150800030089B2884204D1012580B2860808360EE7EC
S315080003100020DFF8B41A0870002600240025DFF84C
S31508000320B40A0068DFF89C1A086000E70020DFF8C6
S31508000330981A0870002600240025DFF8980A006835
S31508000340DFF8801A0860F2E6F6B2002E3FF4EFAE48
S31508000350DFF8700A0068DFF87C1A0968401AF6B2F6
S31508000360B042FFF6E4AEDFF85C0A006810F8010C4C
S31508000370162869D1F6B2B6F1080189B2DFF8540A2F
S315080003800068801D00F079F8DFF8381A096811F856
S31508000390021CC0B2814249D100BF02AB0022002133
S315080003A0DFF8280A03F0D4FADFF8280A0068007B89
S315080003B0032806D0042817D00A2802D00B2813D001
S315080003C024E00020DFF8FC190968087002A80090EC
S315080003D00023F6B2320092B2DFF8F8090168DFF8B6
S315080003E0E40B03F00CFF11E00020DFF8D8190968C8
S315080003F0087002A800900023F6B2320092B2DFF825
S31508000400D4090168DFF8C00B03F0F9FE0020DFF815
S31508000410C41908600020DFF8AC1908600020DFF86E
S31508000420A819087000260024002580E6DFF8A4092C
S315080004300068DFF8901908600020DFF88C1908704A
S3150800044000260024002572E6DFF888090068DFF830
S31508000450741908600020DFF8701908700026002457
S31508000460002564E6DFF86C090068DFF858190860AB
S315080004700020DFF854190870704710B400220023D2
S3150800048003E09BB21C5CA2185B1C9BB289B28B4230
S31508000490F7D31000C0B210BC704700007FB5002625
S315080004A000210020ADF80A000024002513E04FF4CF
S315080004B080720021280003F0FDFC02AA2900DFF85B
S315080004C0100903F0BCFC00240025002004F0F3FB0F
S315080004D0002004F0BEFD02A8009003AB0022002114
S315080004E0DFF8E80A04F045FE0CE002AA0021DFF86E
S315080004F0E00A04F0F8FE2C004FF480720021280070
S3150800050003F0D8FCDFF8CC0A00780128E3D1DFF83D
S31508000510C80A0078002804D100240025012004F028
S3150800052098FD002C11D102A9DFF8A40803F064FC99
S31508000530040025004FF480720021280003F0BAFC5D
S31508000540BDF80800002800D000BF02A8019003A843
S3150800055000900DF10A0300220021DFF8800A03F05B
S315080005606FFD01000E7802AADFF8700803F067FC39
S3150800057002A9DFF86C0A03F063F902A9DFF8600A3A
S3150800058003F0B3F9022819D102A8019003A8009034
S315080005900DF10A0300220A21DFF8400A03F050FD94
S315080005A001000029E9D00E7802AADFF8300803F026
S315080005B046FC2670641C601BFA28DED12100280040
S315080005C003F0ABFF92A1280004F0C6FF00288CD1E7
S315080005D0DFF8101A280004F0BFFF00280DD002AA81
S315080005E00021DFF8040A04F07EFE2C004FF4807226
S315080005F00021280003F05EFC84E7DFF8F0192800E4
S3150800060004F0AAFF00287FF452AFDFF8E4192800A7
S3150800061004F0A2FF002814D0DFF8D819280004F047
S315080006209BFF00280DD102AA0021DFF8CC0904F0AF
S315080006305AFE2C004FF480720021280003F03AFC81
S3150800064060E7DFF8B819280004F086FF00280BD009
S3150800065002A800900023621B92B22900DFF8A009C5
S3150800066003F0CDFD00244DE72C004FF480720021E5
S31508000670280003F01FFC45E77047F0B585B0002554
S3150800068000240020ADF80A000027002605E002AA8B
S315080006902100DFF83C0703F0D2FB02A8019003A86B
S315080006A000900DF10A0300220021DFF8540903F037
S315080006B0C7FC0400C8A1200004F04EFF471C380000
S315080006C000F057F80600B6B2002EE0D0387B0028B6
S315080006D00CD0022814D0032813D004282DD00A28B9
S315080006E00FD00B2829D00C28D1D0D0E7B8790B2801
S315080006F005D102AA0021DFF80C0904F0F4FDC6E7CB
S31508000700C5E702A9DFF8C80603F076FB0500002D49
S3150800071012D0B6B232003900280004F087FF012053
S31508000720B6B2705502A800900023320092B2290092
S31508000730DFF8900803F063FDA9E702A9DFF8900641
S3150800074003F05AFB0500002D12D0B6B2320039006C
S31508000750280004F06BFF0120B6B2705502A800907D
S315080007600023320092B22900DFF85C0803F047FD47
S315080007708DE770B50400B4F80150B4F80300ADB2C3
S3150800078080B2854214D1ADB2AD08ADB228198679CA
S31508000790290089B2A01DFFF770FE864208D1ADB2C6
S315080007A02819C079162803D115F10800C0B200E04F
S315080007B0002070BD10B584B00024002009E002A80E
S315080007C0019000200090002300220321002005F05C
S315080007D03DF8DFF8000800780028F0D1002003F083
S315080007E0B3FD012003F0B0FD04F0C3F90028F0D1F1
S315080007F0641CE4B2032094FBF0F00028F4D1002432
S31508000800002003F0A1FD012003F09EFDECE70000A7
S315080008100A3E000010B58AB004AC68202070641C3B
S3150800082027202070641C00202070641C272020705C
S31508000830641C00202070641C68202070641CC92079
S315080008402070641CDFF8940D00782070641CDFF8B3
S315080008508C0D40782070641CDFF8800D807820703D
S31508000860641CDFF8780DC0782070641CDFF86C0D06
S3150800087000792070641C02202070641C702020708F
S31508000880641C03202070641C09210DF11600FFF773
S31508000890F4FD2070641C16202070641C09E002A870
S315080008A001900020009000230A220021002004F075
S315080008B0CDFFDFF8200700780028F0D0002400E0FC
S315080008C0641CE4B2032C11DA112104A804F0A4F97B
S315080008D002A8009003AB00224FF4FA61DFF8240760
S315080008E004F047FCBDF808000028E9D1E4B2032C5F
S315080008F009D1002004F0DFF902AA0021DFF8E00C94
S3150800090004F0F1FCD5E702A801900020009000232E
S3150800091000220221002004F099FFCAE71FB509E06A
S31508000920002000F05BF80DF10A022100DFF8A004B0
S3150800093003F085FA0DF10A00019003A8009002ABB6
S3150800094000220021DFF8800603F07AFB0400DFF8B6
S31508000950440E0078AA2803D1012000F020F802E00E
S31508000960012000F03BF8207B042802D00B2807D092
S315080009700CE0BDF80800015D200000F033FE05E03C
S31508000980BDF80800015D200000F0ABF8DFF8040EA2
S315080009900078AA28C4D1002000F001F8C3E7E0B522
S315080009A0C0B2002811D04FF48051DFF8EC0D05F0E5
S315080009B0B2F802A80190002000904FF4FA730122C1
S315080009C00021002004F042FF05E04FF48051DFF8D3
S315080009D0C80D05F0A3F80EBD2C680000E0B5C0B23E
S315080009E0002810D08021DFF8B00D05F094F802A891
S315080009F00190002000904FF4167300220021002079
S31508000A0004F024FF04E08021DFF88C0D05F086F859
S31508000A100EBDE0B5C0B200280FD00421DFF87C0D6A
S31508000A2005F079F802A80190002000900023022220
S31508000A300021002004F00AFF04E00421DFF85C0D21
S31508000A4005F06CF80EBDE0B5C0B200280FD0022143
S31508000A50DFF8480D05F05FF802A801900020009025
S31508000A60002302220021002004F0F0FE04E0022107
S31508000A70DFF8280D05F052F80EBDE0B5C0B2002823
S31508000A800FD00121DFF8140D05F045F802A80190F2
S31508000A9000200090002302220021002004F0D6FE48
S31508000AA004E00121DFF8F40C05F038F80EBDE0B5D6
S31508000AB0C0B200280FD01021DFF8DC0C05F02BF8A7
S31508000AC002A80190002000900023022200210020A5
S31508000AD004F0BCFE04E01021DFF8BC0C05F01EF89B
S31508000AE00EBD2DE9F04389B004000D0000200190E9
S31508000AF0002000900020ADF80C000020ADF80A0098
S31508000B000026002700208DF808005FF000095FF036
S31508000B1000080222DFF8881C03A805F007F903225B
S31508000B20DFF84C1E01A805F001F9BDF80C000028F5
S31508000B3000F0A3800722DFF86C1C14F1100003F004
S31508000B40E6F9012840F09C80002636E00722009846
S31508000B50811D06A805F0EAF80122009810F10D019A
S31508000B6002A805F0E3F82B00DBB29DF808200099EF
S31508000B7006A800F039F903220098C11C00A805F060
S31508000B80D5F87F1CBDF80A00BFB28742DED3002025
S31508000B9004F074FA0622DFF8DC1D04A803F0B7F99E
S31508000BA0002803D1019904A800F0E6FE0322019863
S31508000BB0C11C01A805F0BAF8761CBDF80C00B6B23F
S31508000BC0864254D206220198811D04A805F0AEF883
S31508000BD00322019810F10C0100A805F0A7F80222DB
S31508000BE0019810F112010DF10A0005F09FF806228E
S31508000BF0DFF8801D04A803F08AF9002832D101998C
S31508000C0004A800F0D1FD00282CD10DF10E01704882
S31508000C1003F0F2F88046002718E04FF48072009936
S31508000C20404605F083F898F8160050F0800088F8DA
S31508000C3016004FF480720099404605F046F80322E4
S31508000C400098C11C00A805F071F87F1CBDF80A00C1
S31508000C50BFB28742E1D30DF10E0241465C4803F06C
S31508000C60EEF8A9E7012004F009FA00278AE72A0026
S31508000C70D2B20021012000F0C7F909B0BDE8F0831F
S31508000C80002628E0012004F0F9F92B00DBB29DF8D4
S31508000C900820009906A800F0A7F8002004F0EEF94D
S31508000CA02A00D2B20099002000F0AEF90622DFF839
S31508000CB0C41C04A803F02BF9002803D1019904A841
S31508000CC000F05AFE5FF0010903220198C11C01A831
S31508000CD005F02CF8761C5FFA89F9B9F1000FCCD12A
S31508000CE0BDF80C00B6B28642C7D206220198811D0D
S31508000CF004A805F01BF80322019810F10C0100A8BE
S31508000D0005F014F80222019810F112010DF10A00FB
S31508000D1005F00CF8002706E003220098C11C00A87D
S31508000D2005F004F87F1CBDF80A00BFB28742CBD293
S31508000D3007220098811D06A804F0F8FF01220098F2
S31508000D4010F10D0102A804F0F1FF072206A914F11B
S31508000D50100003F0DCF80128DED19DF80800E17BDD
S31508000D608842D9D10622DFF80C1C04A803F0CFF874
S31508000D70002887D1019904A800F016FD00287FF401
S31508000D8081AF0DF10E01124803F036F880464FF494
S31508000D9080720099404604F0C9FF98F8160050F092
S31508000DA0800088F816004FF480720099404604F0D7
S31508000DB08CFF0DF10E024146054803F040F85FF03E
S31508000DC0010981E75840002078400020943D002022
S31508000DD0B03F00205C400020E43D0020C83F0020D2
S31508000DE06F4000202C3E00202DE9F0478CB004000F
S31508000DF00D00002600200021ADF80C1000275FF03A
S31508000E00000800218DF808105FF000095FF0000A5D
S31508000E1007A98A4668218AF800101AF1010A8AF891
S31508000E2000201AF1010A00210E0006E0F6B2305D34
S31508000E308AF800001AF1010A761CF6B2072EF5DBCD
S31508000E4001208AF800001AF1010A03208AF8000036
S31508000E501AF1010A1F208AF800001AF1010A9020E7
S31508000E608AF800001AF1010A01208AF800001AF12E
S31508000E70010A0E2107A8FFF700FB8AF800001AF1FD
S31508000E80010A16208AF800001AF1010A002604E071
S31508000E90FE20F6B204A97054761CF6B2042EF7DBCF
S31508000EA0002617E0C0B2C119897BC0B204AA8154D2
S31508000EB0C0B2C119C97CC0B205AA8154401CC0B2CF
S31508000EC00428EFDB0DF10A023900DFF8F80D02F00D
S31508000ED0B6FF761C5FFA88F8B8F1000F30D1F6B283
S31508000EE0032E2DDA042104A803F0EBFF102107A82E
S31508000EF003F0E7FF0DF10A00019006A8009003AB86
S31508000F0000224FF49661DFF8C00D03F099F8070048
S31508000F10BDF80A00002805D0F6B2022E01D15FF00E
S31508000F200008D6E70722B91C200002F0F0FF0128C6
S31508000F30C8D15FF00108F87F8DF808000020BEE7E9
S31508000F400DF10A01DFF87C0D02F056FF81464FF4D9
S31508000F5080722900484604F0E9FE5FFA88F8B8F17D
S31508000F60000F0CD199F8160050F0400089F81600C9
S31508000F704FF480722900484604F0A7FE17E00122C4
S31508000F8002A919F1160004F051FB042204A919F16B
S31508000F900E0004F04BFB042205A919F1180004F011
S31508000FA045FB4FF480722900484604F08EFE0DF189
S31508000FB00A024946DFF80C0D02F041FF0CB0BDE805
S31508000FC0F0870000503E0020083E00205C3F0020CD
S31508000FD0243F00206E40002079400020C03D0020BC
S31508000FE0683D002018AF0008783F002090AF000841
S31508000FF020B1000834B00008403F00202CB100089A
S31508001000743E0020EC3E00202DE9F54F8BB00024FD
S31508001010002003905FF000080020ADF816000020BD
S31508001020ADF810000020ADF814000020ADF812004D
S3150800103000208DF80A000020ADF808000020ADF861
S315080010400200002006900020019000208DF8000084
S3150800105000208DF80100002500265FF000095FF0EA
S31508001060000A5FF0000B0027019108A9DFF8540C6D
S3150800107002F0C2FE0400002C00F0958003949DF84F
S315080010802C00002840F0978007220198811D09A8A6
S3150800109004F04CFE0122019810F10D0100A804F09D
S315080010A045FE0422019810F10E0107A804F03EFE41
S315080010B00122019810F116010DF1010004F036FE27
S315080010C068202070641CA0466320A8F8000018F168
S315080010D002086320A8F8000018F1020844466820B0
S315080010E02070641C88202070641CDFF8F0040078E7
S315080010F02070641CDFF8E40440782070641CDFF874
S31508001100DC0480782070641CDFF8D004C078207076
S31508001110641CDFF8C80400792070641C0B2020705A
S31508001120641C60202070641C04202070641C9DF8D8
S3150800113000002070641C002505E0ADB209A8285CF3
S315080011402070641C6D1CADB2072DF6DB01202070E3
S31508001150641C002505E0ADB207A8285C2070641C55
S315080011606D1CADB2042DF6DB9DF801002070641CE1
S3150800117000202070641C18210398801DFFF77DF954
S315080011802070641C16202070641C9DF8300000280E
S315080011900CD02021039803F03FFD08AA0399DFF835
S315080011A0240B02F04CFE0DB0BDE8F08F2021039809
S315080011B003F087FEF1E70222DFF8E41505A804F03C
S315080011C0B5FD0222DFF8201D04A804F0AFFD0322B6
S315080011D0DFF89C1706A804F0A9FDBDF810000A213F
S315080011E090FBF1F0ADF81200BDF810000A2190FB53
S315080011F0F1F201FB12008DF80A000020ADF802009A
S31508001200BDF81200ADF808009DF80A00002804D0C1
S31508001210BDF80800401CADF80800002506E00322CA
S315080012200698C11C06A804F081FD6D1CBDF81400C3
S31508001230ADB28542B1D20322069810F10C0101A87D
S3150800124004F074FD0222069810F112010DF1160041
S3150800125004F06CFD002612E01FFA8BFB0E2000FB43
S315080012600BF010F1120189B2039803F02AFE039CD1
S3150800127003220198C11C01A804F058FD761CBDF88C
S315080012801600B6B28642CAD207220198811D09A85D
S3150800129004F04CFD0122019810F10D0100A804F09C
S315080012A045FD0422019810F10E0107A804F03EFD41
S315080012B00122019810F116010DF1010004F036FD26
S315080012C0FFB2002F40F033810127BDF80200401C11
S315080012D0ADF80200BDF80800012845D1BDF810A0F8
S315080012E0D34668202070641CA0460E2000FB0BF035
S315080012F00A30800050F00300A8F8000018F1020830
S315080013000E2000FB0BF00A30800050F00300A8F80E
S31508001310000018F10208444668202070641C8820E2
S315080013202070641CAD4800782070641CAB48407877
S315080013302070641CA94880782070641CA748C0786F
S315080013402070641CA54800792070641C0B2020704E
S31508001350641C60202070641C04202070641C9DF8A6
S3150800136000002070641CE2E0BDF80200012845D1A7
S315080013705FF00A0AD34668202070641CA0460E2037
S3150800138000FB0BF00A30800050F00300A8F80000BC
S3150800139018F102080E2000FB0BF00A30800050F00E
S315080013A00300A8F8000018F10208444668202070D7
S315080013B0641C88202070641C884800782070641C8F
S315080013C0864840782070641C844880782070641CA5
S315080013D08248C0782070641C804800792070641C9C
S315080013E00B202070641C40202070641C0420207090
S315080013F0641C9DF800002070641C98E0BDF802008B
S31508001400BDF8081088424DD19DF80A00002803D17E
S315080014105FF00A0AD34602E09DF80AA0D346682080
S315080014202070641CA0460E2000FB0BF00A308000DA
S3150800143050F00300A8F8000018F102080E2000FB7F
S315080014400BF00A30800050F00300A8F8000018F1ED
S315080014500208444668202070641C88202070641C9A
S315080014605E4800782070641C5C4840782070641CD4
S315080014705A4880782070641C5848C0782070641CCC
S31508001480564800792070641C0B202070641C2020AC
S315080014902070641C04202070641C9DF800002070D5
S315080014A0641C44E05FF00A0AD34668202070641C76
S315080014B0A0460E2000FB0BF00A30800050F0030017
S315080014C0A8F8000018F102080E2000FB0BF00A30FD
S315080014D0800050F00300A8F8000018F102084446FE
S315080014E068202070641C88202070641C3B480078A3
S315080014F02070641C394840782070641C374880780E
S315080015002070641C3548C0782070641C3348007904
S315080015102070641C0B202070641C00202070641C42
S3150800152004202070641C9DF800002070641C5FF085
S31508001530000908E05FFA89F909A819F8000020707F
S31508001540641C19F101095FFA89F9B9F1070FF1DB92
S3150800155001202070641C5FF0000908E05FFA89F931
S3150800156007A819F800002070641C19F101095FFA30
S3150800157089F9B9F1040FF1DB9DF801002070641CAC
S3150800158000202070641CBAF1010A1FFA8AFABAF11F
S31508001590000F7FF46DAE00271FFA8BFB0E2000FBB1
S315080015A00BF010F10A0189B20398801DFEF765FF5A
S315080015B02070641C16202070641C9DF830000028DA
S315080015C03FF44AAE1FFA8BFB0E2000FB0BF010F11E
S315080015D0120189B2039803F01FFB48E6FC3F00207E
S315080015E0083F00202DE9F04389B004000D000020D3
S315080015F00290002000900020ADF806000020ADF80B
S315080016000C000026002700208DF804005FF0000873
S315080016105FF00009022262490DF1060004F086FB1C
S315080016200322D34902A804F081FBBDF8060000286E
S3150800163000F0AD8000261BE02B00DBB29DF80420ED
S31508001640009906A800F042FB0622CA4904A802F03F
S315080016505EFC002803D1029904A800F08DF95FF01A
S31508001660010803220298C11C02A804F05FFB761C3D
S315080016705FFA88F8B8F1000F40F08980BDF80600D7
S31508001680B6B2864280F0838006220298811D04A89D
S3150800169004F04CFB0322029810F10C0100A804F098
S315080016A045FB0222029810F1120103A804F03EFB42
S315080016B0002706E003220098C11C00A804F036FBA8
S315080016C07F1CBDF80C00BFB28742CAD20722009819
S315080016D0811D06A804F02AFB0122009810F10D01CD
S315080016E001A804F023FB072206A914F1100002F052
S315080016F00EFC0128DED19DF80400E17B8842D9D191
S3150800170006229C4904A802F002FC002828D1029966
S3150800171004A800F049F8002822D10DF10E01DFF8DF
S31508001720A40502F069FB81464FF480720099484689
S3150800173004F0FCFA99F8160050F0800089F81600B3
S315080017404FF480720099484604F0BFFA0DF10E0274
S315080017504946DFF8700502F072FB5FF0010880E782
S315080017600222009810F1160108A804F0DFFAA07BFF
S3150800177002283FF461AF03287FF466AF2B00DBB283
S315080017809DF80420009906A800F0BCF95CE709B0AA
S31508001790BDE8F0837600002000080140000C0140F7
S315080017A0A3F01F000CB200082DE9F0478AB0040028
S315080017B00D0000260020ADF80A0000275FF000089B
S315080017C000205FF000095FF0000ADFF86C1C09785A
S315080017D0AA291AD12078012806D014D303280BD0B9
S315080017E006D304280CD00EE00120FFF712F90AE010
S315080017F00120FFF728F906E00120FFF73EF902E08D
S315080018000120FFF754F90120AEE00DF1100A682017
S315080018108AF800001AF1010AA0208AF800001AF1D5
S31508001820010A002606E0F6B2305D8AF800001AF1D1
S31508001830010A761CF6B2062EF5DB00208AF80000AF
S315080018401AF1010A04208AF800001AF1010A042094
S315080018508AF800001AF1010A90208AF800001AF1A5
S31508001860010AA0208AF800001AF1010A01208AF864
S3150800187000001AF1010A55208AF800001AF1010A37
S315080018800F2104A8FEF7F9FD8AF800001AF1010AEB
S3150800189016208AF800001AF1010A012003F0EEFB6F
S315080018A0002608E05FF0000802AA3900DFF81404F1
S315080018B002F0C5FA761C5FFA88F8B8F1000F2CD149
S315080018C0F6B2032E29DA112104A803F0FAFA02A8BF
S315080018D0019003A800900DF10A03002240F6B831E2
S315080018E0DFF8E40302F0ACFB0700BDF808000028A7
S315080018F005D0F6B2022E01D15FF00008DAE706221B
S31508001900B91C200002F003FB0128CDD1B87B0321C6
S315080019100842C7D15FF00108C6E75FFA88F8B8F150
S31508001920000F1CD102A9DFF89C0302F065FA814674
S315080019304FF480722900484604F0F8F9012270A194
S3150800194019F1170003F072FE4FF480722900484619
S3150800195004F0BBF902AA4946DA4802F070FA0020F8
S3150800196003F08CFB4046C0B20AB0BDE8F087000021
S31508001970A0F01F0014B200082DE9F0418AB0050056
S315080019800C000026DFF8B00A0078AA281AD12878B1
S31508001990012806D014D303280BD006D304280CD06C
S315080019A00EE00020FFF735F80AE00020FFF74BF8B5
S315080019B006E00020FFF761F802E00020FFF777F85D
S315080019C0012099E004AF682038707F1CA020387089
S315080019D07F1C5FF0000807E05FFA88F818F8050032
S315080019E038707F1C18F101085FFA88F8B8F1060FFD
S315080019F0F2DB002038707F1C042038707F1C04201E
S31508001A0038707F1C902038707F1CA02038707F1C8F
S31508001A10012038707F1C992038707F1C0F2104A87C
S31508001A20FEF72BFD38707F1C162038707F1C0120AE
S31508001A3003F024FB5FF0000807E0002602AA39003D
S31508001A40A04802F0FCF918F10108F6B2002E2FD1D1
S31508001A505FFA88F8B8F1030F2ADA112104A803F00F
S31508001A6030FA02A8019003A800900DF10A0300229B
S31508001A7040F6B831944802F0E3FA0700BDF80800CA
S31508001A80002806D05FFA88F8B8F1020F00D10026C0
S31508001A90D9E70622B91C280002F039FA0128CDD167
S31508001AA0B87BC0B210F003000228C6D10126C5E7EC
S31508001AB0F6B2002E1BD102A9824802F09DF9050054
S31508001AC04FF480722100280004F030F901220CA19D
S31508001AD015F1170003F0AAFD4FF4807221002800C3
S31508001AE004F0F3F802AA2900764802F0A8F90020C3
S31508001AF003F0C4FA3000C0B20AB0BDE8F0810000B5
S31508001B00010000002DE9F04F8BB004000D001E0007
S31508001B1000270020ADF80A005FF000085FF0000912
S31508001B2000205FF0000A5FF0000B05A98B466821CC
S31508001B308BF800101BF1010B8BF800201BF1010B31
S31508001B4000210F0006E0FFB2385D8BF800001BF19C
S31508001B50010B7F1CFFB2072FF5DB04208BF8000072
S31508001B601BF1010B04208BF800001BF1010B172059
S31508001B708BF800001BF1010BA0208BF800001BF16D
S31508001B80010B01208BF800001BF1010B55208BF887
S31508001B9000001BF1010B0F2105A8FEF76EFC8BF860
S31508001BA000001BF1010B16208BF800001BF1010B3E
S31508001BB0002704E0FE20FFB203A978547F1CFFB279
S31508001BC0042FF7DB012003F059FA002707E05FF03E
S31508001BD0000902AA41463B4802F031F97F1C5FFA28
S31508001BE089F9B9F1000F31D1FFB2032F2EDA04219A
S31508001BF003A803F066F9112105A803F062F902A803
S31508001C00019004A800900DF10A03002244F6206111
S31508001C102D4802F015FA8046BDF80800002805D0C0
S31508001C20FFB2022F01D15FF00009D7E7072218F1AA
S31508001C300201200002F06BF90128CAD198F80E00BB
S31508001C4003210842C3D15FF00109C2E702A91D4872
S31508001C5002F0D2F882464FF480722900504604F00A
S31508001C6065F85FFA89F9B9F1000F10D19AF81600EC
S31508001C7050F040008AF816004FF48072290050464A
S31508001C8004F023F83000C0B200F0ECFF0FE00122A8
S31508001C9096A11AF1160003F0C9FC4FF480722900C8
S31508001CA0504604F012F83000C0B200F08DFF02AAC8
S31508001CB05146044802F0C3F8002003F0DFF90BB0E0
S31508001CC0BDE8F08FB03F00202C3E00202DE9F04FF4
S31508001CD08BB004000D001E0000270020ADF80A0096
S31508001CE05FF000085FF0000900205FF0000A5FF06F
S31508001CF0000B05A98B4668218BF800101BF1010B18
S31508001D008BF800201BF1010B00210F0006E0FFB243
S31508001D10385D8BF800001BF1010B7F1CFFB2072F03
S31508001D20F5DB04208BF800001BF1010B04208BF86F
S31508001D3000001BF1010B17208BF800001BF1010BAB
S31508001D40A0208BF800001BF1010B01208BF8000086
S31508001D501BF1010B99208BF800001BF1010B0F21D9
S31508001D6005A8FEF78AFB8BF800001BF1010B16206D
S31508001D708BF800001BF1010B002704E0FE20FFB2E0
S31508001D8003A978547F1CFFB2042FF7DB012003F068
S31508001D9075F9002708E05FF0000902AA4146DFF856
S31508001DA0240E02F04CF87F1C5FFA89F9B9F1000F8E
S31508001DB032D1FFB2032F2FDA042103A803F081F8EA
S31508001DC0112105A803F07DF802A8019004A8009047
S31508001DD00DF10A03002244F62061DFF8FC0C02F03C
S31508001DE02FF98046BDF80800002805D0FFB2022F5B
S31508001DF001D15FF00009D6E7072218F10201200099
S31508001E0002F085F80128C8D198F80E00C0B28007FC
S31508001E10C1D55FF00109C0E702A9DFF8A80D01F0F6
S31508001E20EBFF82464FF480722900504603F07EFF8E
S31508001E305FFA89F9B9F1000F10D19AF8160050F037
S31508001E4040008AF816004FF480722900504603F0C5
S31508001E503CFF3000C0B200F005FF0FE0012224A1CC
S31508001E601AF1160003F0E2FB4FF48072290050467F
S31508001E7003F02BFF3000C0B200F0A6FE02AA5146BE
S31508001E80DFF8400D01F0DBFF002003F0F7F80BB098
S31508001E90BDE8F08F1FB50CE0BDF80800015D200015
S31508001EA000F01CFE0DF10A022100DFF8180D01F002
S31508001EB0C6FF0DF10A00019003A8009002AB0022AC
S31508001EC00021DFF8480E02F0BBF80400207B032847
S31508001ED002D00A28E0D0E5E7BDF80800015D200039
S31508001EE000F008F8DEE70000B3F01F00000000006D
S31508001EF002000000FEB505000C0000260027A87B9E
S31508001F0002280CD0032800F0D980062800F0158195
S31508001F10072800F041810C2800F0658193E1A87C30
S31508001F20DFF8EC1D0870687CDFF8E81D0870287C6F
S31508001F30DFF8E41D0870E87BDFF8E01D0870B5F8E7
S31508001F401300DFF8DC1D08801121DFF8D80D01F039
S31508001F50ABFF062100A801F0A7FFAA7CBAA100A83A
S31508001F6004F0E2F900A9DFF8BC0D03F074FAB7A192
S31508001F70DFF8B00D03F06FFA062100A801F094FF10
S31508001F806A7CB1A100A804F0CFF900A9DFF8940D86
S31508001F9003F061FAADA1DFF88C0D03F05CFA0621B7
S31508001FA000A801F081FF2A7CA7A100A804F0BCF9CB
S31508001FB000A9DFF8700D03F04EFAA4A1DFF8640D4E
S31508001FC003F049FA062100A801F06EFFEA7B9EA1FC
S31508001FD000A804F0A9F900A9DFF8480D03F03BFAB8
S31508001FE00821DFF8440D01F05FFF062100A801F083
S31508001FF05BFFB5F8132094A100A804F095F994A105
S31508002000DFF8240D03F027FA00A9DFF81C0D03F00A
S3150800201022FA90A1DFF8100D03F01DFA02A9DFF8E5
S31508002020A40B01F0E9FE05004FF48072DFF8441EA8
S31508002030280003F07BFE1122DFF8E81C15F150009A
S3150800204003F0F4FA0822DFF8E01C15F1700003F03B
S31508002050EDFA0122DFF8B81C15F16F0003F0E6FA75
S315080020600122DFF8B01C15F16E0003F0DFFA012239
S31508002070DFF8A41C15F16D0003F0D8FA0122DFF889
S315080020809C1C15F16C0003F0D1FA0222DFF8901CB3
S3150800209015F17E0003F0CAFA4FF48072DFF8D41DFA
S315080020A0280003F012FE02AA2900DFF8180B01F037
S315080020B0C6FE2000C0B200F087FDC4E00521DFF8A7
S315080020C0B80D01F0F1FEE87BDFF8AC1D0870287C3E
S315080020D0DFF8A41D4870687CDFF89C1D8870A87C12
S315080020E0DFF8941DC8700020DFF88C1D087102A95E
S315080020F0DFF8D00A01F080FE05004FF48072DFF8A1
S31508002100741D280003F012FE0522DFF86C1D15F178
S31508002110800003F08BFA4FF48072DFF8581D280010
S3150800212003F0D3FD02AA2900DFF8980A01F087FE1A
S315080021302000C0B200F048FD85E015F1190000F056
S31508002140D5FA060015F11201300000F085F80700EF
S315080021507FF07F4086421ED0E87F00280BD17FF0B3
S315080021607F40874207D03900300000F067F9200029
S31508002170C0B200F029FDE87F01280CD17FF07F402E
S31508002180874208D115F11201300000F09BF82000B3
S31508002190C0B200F019FD56E0E87BAA280FD115F168
S315080021A0100000F0A3FA06007FF07F40864206D0B2
S315080021B0300000F04BFB2000C0B200F005FDE87BC4
S315080021C055280FD115F1100000F090FA7FF07F41E5
S315080021D0884207D115F1100000F0BAFA2000C0B203
S315080021E000F0F2FC2FE0E87BAA2802D1AA20924947
S315080021F00870E87BFF2802D1FF208F49087002A9E2
S31508002200DFF8C00901F0F8FD05004FF48072DFF829
S31508002210641C280003F08AFD0122874915F1C000D5
S3150800222003F004FA4FF48072DFF8481C280003F024
S315080022304CFD02AA2900DFF88C0901F000FE2000F7
S31508002240C0B200F0C1FCF7BD256400002E000000F6
S315080022502C0000000D00000030B585B005000C000C
S31508002260002000900020ADF80400022215F11201AA
S3150800227001A803F05BFD032215F10C0100A803F089
S3150800228055FD002506E003220098C11C00A803F0AE
S315080022904DFD6D1CBDF80400ADB285420ED2072275
S315080022A00098811D02A803F041FD072202A920001B
S315080022B001F02DFE0128E6D1009801E07FF07F406D
S315080022C005B030BD70B586B004000D000020029040
S315080022D00020019000260020ADF800000020ADF88F
S315080022E0020000200390022214F1120100A803F054
S315080022F01DFD0222DFF8841B0DF1020003F016FD16
S31508002300032214F10F0102A803F010FDBDF8000026
S31508002310401CADF80000BDF80200401CADF80200F4
S3150800232003F061FE019007220198811D280003F041
S315080023309EFC0122019810F10D01E81E03F097FC9E
S315080023400422019810F10E0103A803F090FC022262
S31508002350019810F1160103A803F089FC04A9DFF817
S31508002360640801F049FD060002987FF07F41884223
S315080023701ED1032214F10C0101A803F078FC0322F4
S3150800238014F10F0101A803F072FC4FF480722100CA
S31508002390300003F0CBFC022200A916F1120003F06C
S315080023A045F94FF480722100300003F08EFC24E0DA
S315080023B04FF480722100300003F0B8FC032201A913
S315080023C016F10F0003F032F9022200A916F11200E5
S315080023D003F02CF94FF480722100300003F075FCED
S315080023E003220298C11C01A803F041FC03220198AC
S315080023F010F1120102A803F03AFC4FF48072DFF8DC
S31508002400741A300003F092FC02220DF1020116F153
S31508002410B30003F00BF94FF48072DFF8581A300056
S3150800242003F053FC04AA3100DFF8980701F007FD12
S31508002430019806B070BD0000760000207FB5040044
S315080024400D00002002900020019000260020ADF823
S3150800245000000020ADF80200022214F1120100A8C3
S3150800246003F064FC0222DFF8141A0DF1020003F0EF
S315080024705DFC0322E91C02A803F058FC032215F1AF
S31508002480120101A803F052FCBDF80000401EADF889
S315080024900000BDF80200401EADF80200280003F057
S315080024A002FE03A9DFF81C0701F0A6FC0600BDF82A
S315080024B00000002833D14FF480722100300003F069
S315080024C035FC032202A916F10C0003F0AFF802222C
S315080024D000A916F1120003F0A9F8032201A916F1C2
S315080024E00F0003F0A3F84FF480722100300003F0C8
S315080024F0ECFB4FF48072DFF87C19300003F016FC11
S3150800250002220DF1020116F1B30003F08FF84FF421
S315080025108072DFF86019300003F0D7FBDDE0019820
S315080025207FF07F41884205D002987FF07F4188423C
S3150800253040F0898001987FF07F4188423ED14FF470
S3150800254080720299300003F0F1FB032201A916F10B
S31508002550120003F06BF84FF480720299300003F012
S31508002560B4FB4FF480722100300003F0DFFB032236
S3150800257002A916F10C0003F059F8022200A916F177
S31508002580120003F053F84FF480722100300003F074
S315080025909CFB4FF48072DFF8DC18300003F0C6FBB2
S315080025A002220DF1020116F1B30003F03FF84FF4D1
S315080025B08072DFF8C018300003F087FB02987FF0BE
S315080025C07F41884240F089804FF48072019930003B
S315080025D003F0ACFB032202A9F01C03F027F84FF422
S315080025E080720199300003F070FB4FF4807221006D
S315080025F0300003F09BFB032201A916F10F0003F03C
S3150800260015F8022200A916F1120003F00FF84FF48C
S3150800261080722100300003F058FB4FF48072DFF817
S315080026205418300003F082FB02220DF1020116F164
S31508002630B30002F0FBFF4FF48072DFF83818300061
S3150800264003F043FB49E04FF480720199300003F030
S315080026506DFB032202A9F01C02F0E8FF4FF480721A
S315080026600199300003F031FB4FF480720299300073
S3150800267003F05CFB032201A916F1120002F0D6FF53
S315080026804FF480720299300003F01FFB4FF48072FA
S315080026902100300003F04AFB022200A916F11200BD
S315080026A002F0C4FF4FF480722100300003F00DFBE6
S315080026B04FF48072DFF8BC17300003F037FB0222B4
S315080026C00DF1020116F1B30002F0B0FF4FF480726B
S315080026D0DFF8A017300003F0F8FA03AA3100DFF894
S315080026E0E40401F0ACFB280004B070BD30B585B039
S315080026F00400002000900222DFF8AC1D01A803F0B8
S3150800270015FB0322DFF8541E00A803F00FFB002573
S3150800271006E003220098C11C00A803F007FB6D1C05
S31508002720BDF80400ADB285420ED206220098811D7E
S3150800273002A803F0FBFA062202A9200001F0E7FB33
S315080027400128E6D1009801E07FF07F4005B030BD52
S3150800275030B585B0040000200290002000900025C6
S315080027600020ADF804000020ADF80C000222DFF8C6
S31508002770381D01A803F0DAFA0322DFF8E41D02A8DF
S3150800278003F0D4FABDF80400401CADF8040003F0C9
S315080027902AFC009006220098811D200003F067FAA3
S315080027A00222009810F1120103A803F060FA0DF155
S315080027B00601DFF8100401F01FFB05004FF48072D4
S315080027C0DFF8B016280003F0B1FA02987FF07F41CF
S315080027D0884212D1032200A915F1A00002F026FFB3
S315080027E0022201A915F1A30002F020FF032200A985
S315080027F015F1A50002F01AFF18E0022201A915F149
S31508002800A30002F013FF032200A915F1A50002F0A8
S315080028100DFF03220298C11C00A803F028FA032220
S31508002820009810F1140102A803F021FA4FF48072FF
S31508002830DFF84016280003F048FA0DF106022900D1
S31508002840E04801F0FCFA009805B030BD70B586B0D6
S3150800285004000020ADF80C000020ADF802000020AE
S31508002860049000200290002001900020ADF800009E
S3150800287000250026022214F1120103A803F056FAD5
S31508002880032214F10C0104A803F050FA0322E11CF8
S3150800289002A803F04BFA032214F1140101A803F06D
S315080028A045FA0222DFF8001C00A803F03FFA0222CC
S315080028B0DFF8C8150DF1020003F038FABDF800007C
S315080028C0401EADF800000020050009E0049803F05A
S315080028D0EAFB03220498C11C04A803F027FA6D1C1E
S315080028E0BDF80C00ADB28542F0D3200003F0DBFB47
S315080028F00DF10E01B34801F07FFA0600BDF802009B
S31508002900BDF80C10401AADF802004FF48072DFF8DB
S315080029106415300003F00AFA02220DF1020116F1DD
S31508002920B30002F083FE4FF48072DFF848153000DA
S3150800293003F0CBF9BDF80000002820D14FF48072CF
S31508002940DFF83015300003F0F1F9032202A916F179
S31508002950A00002F06BFE022200A916F1A30002F005
S3150800296065FE032201A916F1A50002F05FFE4FF4E9
S315080029708072DFF80015300003F0A7F9A2E001988D
S315080029807FF07F41884204D002987FF07F418842D9
S3150800299061D101987FF07F4188422BD14FF4807234
S315080029A00299300003F0C2F9032201A916F11400B6
S315080029B002F03CFE4FF480720299300003F085F96C
S315080029C04FF48072DFF8AC14300003F0AFF903223D
S315080029D002A916F1A00002F029FE022200A916F1AA
S315080029E0A30002F023FE4FF48072DFF8881430004B
S315080029F003F06BF902987FF07F41884262D14FF469
S31508002A0080720199300003F091F9032202A9F01CA3
S31508002A1002F00CFE4FF480720199300003F055F96C
S31508002A204FF48072DFF84C14300003F07FF902226D
S31508002A3000A916F1A30002F0F9FD032201A916F177
S31508002A40A50002F0F3FD4FF48072DFF82814300079
S31508002A5003F03BF936E04FF480720199300003F039
S31508002A6065F9032202A9F01C02F0E0FD4FF480721A
S31508002A700199300003F029F94FF480720299300069
S31508002A8003F054F9032201A916F1140002F0CEFD51
S31508002A904FF480720299300003F017F94FF48072F0
S31508002AA0DFF8D013300003F041F9022200A916F12D
S31508002AB0A30002F0BBFD4FF48072DFF8B8133000B4
S31508002AC003F003F90DF10E0231003E4801F0B7F9A3
S31508002AD0200006B070BD00002C3E002080B5827B29
S31508002AE0022A08D0032A0BD0062A0ED0072A14D0A9
S31508002AF00C2A17D01AE00800C0B200F033FD15E022
S31508002B000800C0B200F0D2FC10E00A00D2B210F100
S31508002B101001C07B00F0B4F908E00800C0B200F06C
S31508002B2005F903E00800C0B200F08CFD01BDE0B570
S31508002B301FE04FF48071DFF81C0C02F0ECFF02A8CE
S31508002B40019000200090002301220021002002F0BD
S31508002B507DFE4FF48071DFF8FC0B02F0DFFF02A860
S31508002B60019000200090002301220021002002F09D
S31508002B706DFEDFF8E40B00780028DAD04FF4807198
S31508002B80DFF8D00B02F0C7FF02A8019000200090E2
S31508002B904FF4FA7300220021002002F057FE4FF48A
S31508002BA08071DFF8B00B02F0B9FF02A8019000208F
S31508002BB000904FF4FA7300220021002002F046FE2E
S31508002BC0D7E70000B03F002030B585B0040000AD5F
S31508002BD0682028706D1C272028706D1C002028701E
S31508002BE06D1C272028706D1C002028706D1C68201D
S31508002BF028706D1C802028706D1C9F4800782870EE
S31508002C006D1C9D48407828706D1C9B4880782870FC
S31508002C106D1C9948C07828706D1C974800792870F3
S31508002C206D1C002028706D1C602028706D1C01200A
S31508002C3028706D1C09210DF10600FDF71EFC287091
S31508002C406D1C162028706D1CE4B2002C04D01121CE
S31508002C5000A801F0E1FF03E0112100A802F031F914
S31508002C6005B030BD30B585B0040000AD68202870C9
S31508002C706D1C272028706D1C002028706D1C2720CD
S31508002C8028706D1C002028706D1C682028706D1C2B
S31508002C90802028706D1CDFF8C40A007828706D1C27
S31508002CA0DFF8B80A407828706D1CDFF8B00A80781B
S31508002CB028706D1CDFF8A40AC07828706D1CDFF830
S31508002CC09C0A007928706D1C002028706D1C6020F5
S31508002CD028706D1C022028706D1C09210DF1060054
S31508002CE0FDF7CBFB28706D1C162028706D1CE4B20E
S31508002CF0002C04D0112100A801F08EFF03E0112159
S31508002D0000A802F0DEF805B030BD0000503E0020F5
S31508002D107200002073000020740000207500002057
S31508002D20700000201C00002064000020F0B585B06B
S31508002D3004000DF10201DFF8280A01F05DF806002B
S31508002D40002E00F0948035000322DFF8101801A841
S31508002D5002F0ECFF0222DFF8501700A802F0E6FFA7
S31508002D6068203070761CBDF80000062148430930FB
S31508002D70800050F003003080B61CBDF80000062124
S31508002D8048430930800050F003003080B61C6820A4
S31508002D903070761C88203070761C37480078307082
S31508002DA0761C354840783070761C33488078307009
S31508002DB0761C3148C0783070761C2F480079307000
S31508002DC0761C0A203070761C60203070761C07202E
S31508002DD03070761C00270FE0C0B202A9415C317042
S31508002DE0761C401CC0B20628F6DB03220198C11CDB
S31508002DF001A802F09BFF7F1CBDF80000BFB2874206
S31508002E0007D206220198811D02A802F08FFF002032
S31508002E10E8E7BDF800000621484310F1090189B228
S31508002E20A81DFDF72AFB3070761C16203070761C1C
S31508002E30E4B2002C0AD0BDF800000621484310F180
S31508002E40110189B2280001F0E7FE09E0BDF800008B
S31508002E500621484310F1110189B2280002F031F821
S31508002E600DF102022900DFF8F80800F0E8FF05B0C6
S31508002E70F0BD000000F01F00FC3F0020B3F01F006B
S31508002E802DE9F74F8CB05FF000085FF000095FF09E
S31508002E90000A5FF0000B0025002600270222DFF853
S31508002EA0081603A802F042FF0222DFF8B8180DF14F
S31508002EB00E0002F03BFF0322DFF8A01602A802F07C
S31508002EC035FFBDF80C00002800F0EA8208A9DFF8F3
S31508002ED0900800F091FF0400002C00F0E1820494B1
S31508002EE00722DFF884180D9801F011F8012840F040
S31508002EF0F581BDF80E000A2190FBF1F0BDF80E1021
S31508002F000A2291FBF2F302FB13118DF800105FF011
S31508002F100008ADF802009DF80000002804D0BDF8AE
S31508002F200200401CADF802005FF0000907E003222A
S31508002F300298C11C02A802F0F9FE19F10109BDF8B0
S31508002F400C001FFA89F9814580F0A58206220298AD
S31508002F50811D09A802F0EAFE0322029810F10C016D
S31508002F6001A802F0E3FE0222029810F1120105A858
S31508002F7002F0DCFE5FF0000A12E0B6B2112000FB98
S31508002F8006F010F1120189B2049801F09AFF049C28
S31508002F9003220198C11C01A802F0C8FE1AF1010A11
S31508002FA0BDF814001FFA8AFA8245C0D20722019892
S31508002FB0811D06A802F0BAFE0122019810F10D0142
S31508002FC00DF1010002F0B2FE0122019810F115017F
S31508002FD00DF1160002F0AAFEFFB2002F40F02A817A
S31508002FE0012718F10108BDF80200012844D1BDF8EF
S31508002FF00E502E0068202070641C112000FB06F07D
S315080030000A30800050F003002080A41C112000FB29
S3150800301006F00A30800050F003002080A41C6820C7
S315080030202070641C88202070641CDFF83007007844
S315080030302070641CDFF8240740782070641CDFF8D1
S315080030401C0780782070641CDFF81007C078207091
S31508003050641CDFF8080700792070641C0A202070B9
S31508003060641C60202070641C06202070641C9DF877
S3150800307030002070641CDDE01FFA88F8B8F1010FF3
S3150800308043D10A252E0068202070641C112000FBFD
S3150800309006F00A30800050F003002080A41C11209E
S315080030A000FB06F00A30800050F003002080A41CC4
S315080030B068202070641C88202070641CDFF89C0639
S315080030C000782070641CDFF8940640782070641C31
S315080030D0DFF8880680782070641CDFF88006C078E0
S315080030E02070641CDFF8740600792070641C0A20BE
S315080030F02070641C40202070641C06202070641C0C
S315080031009DF830002070641C94E0BDF802001FFA98
S3150800311088F880454BD19DF80000002802D10A2581
S315080031202E0002E09DF800502E0068202070641CD6
S31508003130112000FB06F00A30800050F003002080C2
S31508003140A41C112000FB06F00A30800050F0030092
S315080031502080A41C68202070641C88202070641CB1
S31508003160DFF8F80500782070641CDFF8F005407871
S315080031702070641CDFF8E40580782070641CDFF892
S31508003180DC05C0782070641CDFF8D0050079207053
S31508003190641C0A202070641C20202070641C0620F1
S315080031A02070641C9DF830002070641C42E00A25DB
S315080031B02E0068202070641C112000FB06F00A30DF
S315080031C0800050F003002080A41C112000FB06F0AC
S315080031D00A30800050F003002080A41C682020706C
S315080031E0641C88202070641CDFF870050078207045
S315080031F0641CDFF8680540782070641CDFF85C05FD
S3150800320080782070641CDFF85405C0782070641C30
S31508003210DFF8480500792070641C0A202070641CB9
S3150800322000202070641C06202070641C9DF8300065
S315080032302070641C00202070641C00202070641C10
S315080032405FF0000B08E05FFA8BFB06A81BF800008E
S315080032502070641C1BF1010B5FFA8BFBBBF1070F97
S31508003260F1DB5FF0000B08E05FFA8BFB09A81BF89F
S3150800327000002070641C1BF1010B5FFA8BFBBBF18D
S31508003280060FF1DB00202070641C01202070641CEE
S315080032906D1EADB2002D7FF47BAE0027B6B21120AD
S315080032A000FB06F010F10A0189B20498801DFDF7AB
S315080032B0E4F82070641C16202070641C9DF8380001
S315080032C000283FF45AAEB6B2112000FB06F010F102
S315080032D0120189B2049801F09FFC58E65FF00009D4
S315080032E034E003220198C11C01A802F01FFD1AF15F
S315080032F0010ABDF814001FFA8AFA824524D2072269
S315080033000198811D06A802F011FD0122019810F10D
S315080033100D010DF1010002F009FD072206A90D981D
S3150800332000F0F5FD0128DCD19DF801009DF830106C
S315080033308842D6D10122019810F115010DF1160027
S3150800334002F0F4FC5FF0010819F101095FFA88F848
S31508003350B8F1000F1CD1BDF80C001FFA89F9814598
S3150800336016D206220298811D09A802F0DFFC032264
S31508003370029810F10C0101A802F0D8FC022202986A
S3150800338010F1120105A802F0D1FC5FF0000AB0E7BF
S315080033905FFA88F8B8F1000F7DD068202070641CA9
S315080033A06F202070641C00202070641C6F20207021
S315080033B0641C00202070641C68202070641C88200F
S315080033C02070641CDFF8940300782070641CDFF812
S315080033D08C0340782070641CDFF8800380782070A6
S315080033E0641CDE48C0782070641CDC4800792070B4
S315080033F0641C0A202070641C60202070641C06204F
S315080034002070641C9DF830002070641C0020207019
S31508003410641C00202070641C5FF0000908E01FFA95
S3150800342089F906A819F800002070641C19F1010929
S315080034301FFA89F9B9F1070FF1DB5FF0000908E017
S315080034401FFA89F909A819F800002070641C19F1F7
S3150800345001091FFA89F9B9F1060FF1DB002020707E
S31508003460641C01202070641C1B210498801DFDF734
S3150800347004F82070641C16202070641C9DF838001F
S31508003480002804D02321049801F0C6FB03E0232179
S31508003490049801F016FD08AA0499B14800F0CFFC7B
S315080034A00FB0BDE8F08F0000A3F01F0070B582B022
S315080034B0040000A9AA4800F09FFC0600002E4CD084
S315080034C0350068203070761C27203070761C002066
S315080034D03070761C27203070761C00203070761CE1
S315080034E068203070761C88203070761C9B480078DF
S315080034F03070761C994840783070761C97488078EA
S315080035003070761C9548C0783070761C93480079E0
S315080035103070761C0A203070761C60203070761C5D
S3150800352003203070761C0921A81DFCF7A6FF307011
S31508003530761C16203070761CE4B2002C04D01121BB
S31508003540280001F069FB03E01121280001F0B9FC0D
S3150800355000AA2900824800F072FC73BDA0F01F0083
S31508003560A5F01F00F8B5040000260025002700A9CD
S315080035707B4800F041FC0600002E62D0350068202A
S315080035803070761C3F203070761C00203070761C18
S315080035903F203070761C00203070761C6820307012
S315080035A0761C88203070761C6C4800783070761C43
S315080035B06A4840783070761C684880783070761C87
S315080035C06648C0783070761C644800793070761C7E
S315080035D00A203070761C60203070761C022030700D
S315080035E0761C624800783070761C61480078307026
S315080035F0761C604800783070761C5F48007830701A
S31508003600761C37005D4800883880BF1C3E000F21B5
S31508003610A81DFCF732FF3070761C16203070761C19
S31508003620E4B2002C04D01721280001F0F5FA03E0D3
S315080036301721280001F045FC00AA2900484800F097
S31508003640FEFBF1BDF8B5040000260025002700A9F9
S31508003650434800F0D1FB0600002E50D03500682004
S315080036603070761C2B203070761C00203070761C4B
S315080036702B203070761C00203070761C6820307045
S31508003680761C88203070761C344800783070761C9A
S31508003690324840783070761C304880783070761C16
S315080036A02E48C0783070761C2C4800793070761C0D
S315080036B00A203070761C60203070761C0C20307022
S315080036C0761C2F4800783070761C0A21A81DFCF756
S315080036D0D4FE3070761C16203070761CE4B2002CAE
S315080036E004D01221280001F097FA03E012212800DD
S315080036F001F0E7FB00AA2900194800F0A0FBF1BD7C
S3150800370000B585B002A8019003A800904FF4847311
S31508003710002201211B4802F054FE02A80190002055
S315080037200090C82300220021002002F08FF84FF4F1
S315080037308041154802F0E4F90028E3D14FF400412E
S31508003740124802F0E8F94FF48051104802F0E6F901
S31508003750D8E70000000C01406F400020FC3F002025
S31508003760B03F0020B3F01F000CB200087200002022
S3150800377073000020740000207500002070000020EF
S3150800378076000020943F0020001001400008014008
S315080037902DE9F84306000F009046994600200B9D38
S315080037A0DFF83C150978002903D047F24330288012
S315080037B038E0002E03D145F6C350288032E0089C35
S315080037C0A4B2200001282FD0022835D1B9F1000F64
S315080037D003D147F24030288024E003F01DF9012187
S315080037E086F82A10DFF8FC1431607760C6F8208066
S315080037F00021B1610021F161C6F824903485099948
S31508003800B1600A99F1600021316100217161DFF828
S31508003810D8140988491CDFF8D024118003F000F970
S3150800382000202880BDE8F183B8F1000F03D147F2E4
S315080038303F302880F6E7D0E745F625602880F1E78F
S3150800384038B505000C00DFF898040078002804D085
S3150800385047F243302080002046E0002D04D147F28D
S315080038604230208000203FE02868DFF8781488423C
S3150800387004D045F6C4502080002035E000A803F0A7
S3150800388034FA95F82A0000281ED0022803D010D34F
S3150800389003280ED020E0280000F0A4F90021280013
S315080038A000F038F900A803F04CFA00202080012027
S315080038B019E00021280000F02DF900A803F041FACC
S315080038C00020208001200EE000A803F03AFA47F213
S315080038D03D302080002006E000A803F032FA47F2C7
S315080038E0413020800020C0B232BD38B505000C003A
S315080038F00020DFF8EC130978002904D047F243309A
S315080039002080002023E0002D04D147F24230208099
S3150800391000201CE02868DFF8CC13884204D045F65E
S31508003920C4502080002012E003F076F895F82A505B
S31508003930EDB229000029032902D80021218002E0DE
S3150800394047F24131218003F06BF82800C0B232BD3E
S31508003950F8B505000F0016001C00DFF88403007890
S31508003960002804D047F243302080002067E0002D6D
S3150800397004D147F242302080002060E02868DFF852
S315080039806413884204D045F6C4502080002056E0CF
S3150800399000A803F0AAF995F82A0000283FD00228C3
S315080039A003D034D3032832D041E0280000F01AF9B6
S315080039B000202080BFB2002F20D0032F02D0042F72
S315080039C010D01CE0AA681000002803D0E968280077
S315080039D0904702E047F24430208000A803F0B1F98E
S315080039E001202BE0AA681000002803D03100280027
S315080039F0904702E047F244302080EEE7EDE700A862
S31508003A0003F09FF945F625602080002017E000A8FE
S31508003A1003F097F947F24930208001200EE000A80C
S31508003A2003F08FF947F23D302080002006E000A819
S31508003A3003F087F947F2413020800020C0B2F2BD7A
S31508003A4000B589B0AA490968002908D0A9490968B2
S31508003A50A74A1268B1FBF2F1A74A116006E0A54928
S31508003A6009680A22B1FBF2F1A34A1160A249096862
S31508003A70A24A116000219D4A11600021A04A1160E6
S31508003A8000210AE089B29F4A12EBC1020023938003
S31508003A900023D38000231360491C9B4A128889B2ED
S31508003AA09142EFD399490968002903D147F2473172
S31508003AB001802DE096490968964A1268914203D218
S31508003AC047F24831018023E0934909781F2903D337
S31508003AD047F2463101801BE008900B200790002032
S31508003AE006900020059000200490894800680390FD
S31508003AF08A480068029085480068019086480078E0
S31508003B00009000230FF22D128549864803F044FCE5
S31508003B1009B000BD10B4022280F82A2089B2012912
S31508003B2005D1416A714A1268511881610DE0016A2E
S31508003B30002905D1416A6D4A12685118816104E06D
S31508003B40016A6A4A12685118816181696E4A128847
S31508003B50B1FBF2F302FB131189B26A4A12EBC101F7
S31508003B600A68002A07D10022026100224261086021
S31508003B70012088802EE082695C4B1B68D21AC261DC
S31508003B800B6805E05A6942610361106158610023B8
S31508003B90002B1CD09A69554C2468121BDA61DA6925
S31508003BA0C469A2420AD21A69002A01D01B69EFE742
S31508003BB000220261436118610023E9E75A69002A75
S31508003BC0E0D100224261036158610860DFE7888816
S31508003BD0401C8880C8888A88904201D28888C88014
S31508003BE010BC70478169484A1288B1FBF2F302FBA0
S31508003BF0131189B2434A12EBC1010A68824206D1FF
S31508003C0002690A60002A08D00023536105E0426968
S31508003C1003691361002B00D05A61012280F82A201B
S31508003C2000220261002242618888401E888070470F
S31508003C3000000000F0B583B00BE003F00CFF041B96
S31508003C4000A803F07EF82E480068A04201D22C484E
S31508003C50046000AB01AA0021002003F0CDFC05009A
S31508003C6000A803F042F803F0F6FE04001F480068B7
S31508003C70401C1E4908601D48006823490988B0FB96
S31508003C80F1F201FB120080B21E4911EBC000066872
S31508003C90002700E00127FFB2002FCED1002EF9D071
S31508003CA0356912480068B169884216D13000FFF7B5
S31508003CB099FF308D022804D101213000FFF72AFF31
S31508003CC002E0032086F82A00B2681000002802D015
S31508003CD0F168300090472E00DDE70127DBE700009A
S31508003CE070400020544D52206C4000204440002073
S31508003CF05CB2000844B20008484000204C4000204E
S31508003D0040400020E43B00205A99000860B20008B1
S31508003D1068B2000840B20008179C000864B20008A0
S31508003D2078AF0008A83A00202DE9F84305000E00F0
S31508003D30170098460020DDF824905849097800298C
S31508003D4004D045F2B960A9F8000053E0002F04D169
S31508003D5045F2BB60A9F800004CE01FFA88F8B8F1F4
S31508003D60020F04DA45F2BC60A9F8000042E0089C9C
S31508003D70A4B2042C04D245F2C160A9F8000039E0C7
S31508003D80032000280FD0074204D045F2BB60A9F8EB
S31508003D9000002FE0210089B2014204D045F2C1603B
S31508003DA0A9F8000026E03B003A00B8F1010100201E
S31508003DB004E0A4B2A2181A601300401C80B289B2AB
S31508003DC08842F6D30020186002F026FE344929609E
S31508003DD0AE606F60EF60A5F81480A5F812802C829B
S31508003DE030490988491C2F4A118002F019FE002023
S31508003DF0A9F80000BDE8F18370B505000C000020A5
S31508003E00002D04D145F2BF602080002016E002F0A4
S31508003E1003FEA98A002906D102F002FE45F2C26015
S31508003E20208000200AE0EE683168E960A98A491E08
S31508003E30A98202F0F5FD00202080300070BD70B523
S31508003E4005000E0014000020002D03D145F2BF60C6
S31508003E5020801BE0002E03D145F2BE60208015E0CD
S31508003E6002F0DAFDA98A6A8A914205D302F0D8FDE2
S31508003E7045F2BA60208009E0E9683160EE60A98AF7
S31508003E80491CA98202F0CCFD0020208070BD0021CB
S31508003E90044A11800021018070470000704000200C
S31508003EA04D454D206240002080B50A00002100F0F3
S31508003EB001F801BD30B4002A27D0002825D00023F8
S31508003EC0002403E01B02C9B20B43641C042CF9D37B
S31508003ED00425B0FBF5F404FB1504E4B2002C08D065
S31508003EE003E00170401C521E641C002A01D0042CF9
S31508003EF0F7D302E00360001D121F042AFAD202E07B
S31508003F000170401C521E002AFAD130BC704770B4AA
S31508003F101300002B01D1012052E0002801D1002016
S31508003F204EE0002901D100204AE00122181859184C
S31508003F300425B0FBF5F404FB1504E4B20426B1FB32
S31508003F40F6F505FB1615EDB2AC4201D1012500E0E8
S31508003F500025EDB2012D2CD1002C10D008E0401E12
S31508003F60491E05780E78B54200D000225B1E641EF5
S31508003F70D2B2012A03D1002B01D0002CEFD1D2B244
S31508003F80012A16D107E0001F091F04680D68AC4214
S31508003F9000D000221B1FD2B2012A01D1042BF2D273
S31508003FA007E0401E491E04780D78AC4200D0002276
S31508003FB05B1ED2B2012A01D1002BF2D11000C0B289
S31508003FC070BC70472DE9F04106000F0090461C00B2
S31508003FD00025DFF8BC020078002803D042F6E1602D
S31508003FE020802BE0002E03D145F6C350208025E023
S31508003FF01FFA88F8B8F1000F03D146F294502080D2
S315080040001CE002F009FD0500DFF8880230607760E1
S31508004010414689B216F1140003F08BFD16F108002B
S3150800402002F07EFFDFF870020088401CDFF8681295
S315080040300880280002F0F4FC00202080BDE8F0810A
S315080040402DE9F04F89B004000D0016001F005FF03F
S315080040500008DDF84C908E480078002805D046F216
S31508004060AE10A9F800000020C6E0002C05D145F6E0
S31508004070C350A9F800000020BEE0002F05D146F283
S31508004080D520A9F800000020B6E0B6B23000002816
S3150800409002D0B0F5004F1FD120687E49884221D151
S315080040A0DDF848A0BAF1000F02D00020CAF80000D7
S315080040B002F0B2FC80464B465246390014F1140011
S315080040C003F041FD8346B9F80000002810D14046A8
S315080040D002F0A6FC58468FE045F62560A9F80000D0
S315080040E0002089E045F6C450A9F80000002083E0C6
S315080040F0300408D5404602F093FC46F2B010A9F801
S315080041000000002078E065480078002808D040467E
S3150800411002F086FC46F66350A9F8000000206BE022
S315080041202B000522210000A802F0B0FE404602F04E
S3150800413077FC02F093FD02F06FFC80465848006851
S3150800414090F83500002805D0022838D017D3032860
S3150800415026D045E052480068D0F85CB05048006860
S31508004160B0F860003880BAF1000F04D04C480068F7
S31508004170006CCAF800000020A9F8000038E05FF0DB
S31508004180000B00203880BAF1000F04D044480068BC
S31508004190006CCAF8000046F2A910A9F8000027E04A
S315080041A05FF0000B00203880BAF1000F02D0002023
S315080041B0CAF8000047F2D920A9F8000018E05FF015
S315080041C0000B00203880BAF1000F04D0344800688C
S315080041D0006CCAF8000045F6C250A9F8000007E0CE
S315080041E05FF0000B0020388046F62E60A9F8000024
S315080041F0404602F015FC584609B0BDE8F08F2DE997
S31508004200FC4105000E0017009846089C002D03D1B6
S3150800421045F6C35020802AE01FFA88F84046002851
S3150800422015D0102813D0B0F5007F10D0B0F5047F54
S315080042300DD0B0F5004F0AD048F21001884206D0DA
S31508004240B0F5024F03D048F21021884211D12868F0
S315080042501049884211D103F0FEFB019400904346B1
S315080042609BB23A0092B23100280000F01BF8BDE874
S31508004270F38145F625602080F9E745F6C45020808D
S31508004280F5E70021044A11800021018070470000EB
S315080042907040002051554555664000207540002065
S315080042A0504000202DE9F04F83B004000D001600A1
S315080042B01F005FF0000A02F0AFFB824614F1080007
S315080042C0DDF83080DDF834900189002914D1F8062C
S315080042D001D4002300E01023CDF80490CDF8008027
S315080042E09BB2320092B2290014F1140003F063FC69
S315080042F0504602F095FB25E0B90502D5B0F808B09E
S3150800430001E05FF0010B00680DE0816840680190EC
S31508004310CDF8008033009BB22A00200002F076FE1A
S315080043200198BBF1010B1FFA8BFBBBF1000FECD117
S31508004330504602F075FB380401D402F08FFC0020C9
S31508004340A9F80000BDE8F78FF0B585B00021002474
S315080043500025C0B200286ED002A9DFF87C09FFF755
S315080043604BFD04002500002600E0761CF6B2032E5D
S3150800437059DA0821DFF8640901F0CDFB02A801909B
S31508004380002000904FF4FA7300220021002001F06B
S315080043905DFA4FF4807200212800FFF78BFD022199
S315080043A0DFF83C0901F0B7FB012000F052FE02A934
S315080043B0DFF83009FFF744FA02A9DFF82809FFF702
S315080043C094FA0228D1D102A8019003A800900DF111
S315080043D00A0300221421DFF81009FFF731FE00282E
S315080043E0EAD0077802AA0100DFF80009FFF727FDDF
S315080043F02770641C601B0B28DEDB2100280000F0F8
S315080044008CF8DFF8EC18280001F0A6F80028D3D0BD
S31508004410002000F01EFE02AA2900DFF8BC08FFF7FC
S315080044200EFD012017E002AA2900DFF8AC08FFF705
S3150800443006FD00200FE00221DFF8A40801F06EFB5C
S3150800444002A80190002000900023032200210020EA
S3150800445001F0FCF9012005B0F0BD30B585B00400C7
S31508004460012000F0F6FD02A9DFF88808FFF7E8F951
S3150800447016E002A8019003A800900DF10A03002295
S315080044800A21DFF86408FFF7DBFD002808D0057865
S3150800449002AA0100DFF85408FFF7D1FC2570641C56
S315080044A002A9DFF85008FFF720FA0228E1D0002019
S315080044B000F0CFFD200005B030BD30B585B0040052
S315080044C0012000F0C6FD02A9DFF82C08FFF7B8F9AD
S315080044D016E002A8019003A800900DF10A03002235
S315080044E00A21DFF80408FFF7ABFD002808D0057895
S315080044F002AA0100DFF8F407FFF7A1FC2570641C87
S3150800450002A9DFF8F407FFF7F0F90228E1D0002046
S3150800451000F09FFD200005B030BD02E00D220270BC
S31508004520401C0278002A01D18842F7D3704770B53B
S3150800453082B00025002600A9DFF89C07FFF75CFC7F
S3150800454005002E00002400E0641CE4B2032C1FDAE8
S315080045504FF4807200213000FFF7ACFCDFF89C07AF
S3150800456000F048FD3000FFF778FF0500290030000D
S31508004570FFF7D3FFB0A1300000F0EEFF0028E3D02C
S3150800458000AA3100DFF85007FFF759FC012006E0C2
S3150800459000AA3100DFF84007FFF751FC002076BD7E
S315080045A070B582B00025002600A9DFF82C07FFF7B2
S315080045B023FC05002E00002400E0641CE4B2032C52
S315080045C020DA4FF4807200213000FFF773FCDFF821
S315080045D0300700F00FFD3000FFF73FFF0500290008
S315080045E03000FFF79AFFDFF81C17300000F0B4FF21
S315080045F00028E2D000AA3100DFF8DC06FFF71FFC2E
S31508004600012006E000AA3100DFF8CC06FFF717FC08
S31508004610002076BDFEB500250026002702A9DFF892
S31508004620B806FFF7E9FB06003700002401E000257D
S31508004630641CE4B2142C31DAE4B2002C09D002A8C6
S31508004640019000200090C82300220021002001F0DC
S31508004650FDF84FF4807200213800FFF72BFCDFF8D5
S31508004660A80600F0C7FC3800FFF7F7FE0600310081
S315080046703800FFF752FFDFF89416380000F06CFF99
S315080046800028D4D16D1CEDB2042DD1DB02AA390065
S31508004690DFF84406FFF7D3FB012006E002AA39003B
S315080046A0DFF83406FFF7CBFB0020FEBD70B584B0FB
S315080046B00025002602A9DFF82006FFF79DFB050066
S315080046C02E00002400E0641CE4B2142C34DAE4B2B0
S315080046D0002C09D002A8019000200090C8230022CF
S315080046E00021002001F0B2F84FF48072002130005A
S315080046F0FFF7E0FBDFF8180600F07CFC3000FFF758
S31508004700ACFE050029003000FFF707FFDFF80416A6
S31508004710300000F021FF002806D1DFF8FC15300034
S3150800472000F01AFF0028CED002AA3100DFF8A8054B
S31508004730FFF785FB012006E002AA3100DFF898059D
S31508004740FFF77DFB002004B070BD70B582B0002570
S31508004750002600A9DFF88005FFF74EFB05002E00AE
S31508004760002400E0641CE4B2032C1FDA4FF48072C4
S3150800477000213000FFF79EFBDFF8A00500F03AFCA9
S315080047803000FFF76AFE050029003000FFF7C5FE76
S3150800479029A1300000F0E0FE0028E3D000AA31008D
S315080047A0DFF83405FFF74BFB012006E000AA3100CD
S315080047B0DFF82405FFF743FB002076BD70B582B00D
S315080047C00025002600A9DFF81005FFF715FB0500F0
S315080047D02E00002400E0641CE4B2032C23DA4FF414
S315080047E0807200213000FFF765FBDFF8340500F022
S315080047F001FCDFF8300500F0FDFB3000FFF72DFE69
S31508004800050029003000FFF788FE0BA1300000F0F4
S31508004810A3FE0028DFD000AA3100DFF8BC04FFF7AA
S315080048200EFB012006E000AA3100DFF8AC04FFF712
S3150800483006FB002076BD00004F4B000070B582B025
S315080048400025002600A9DFF89004FFF7D5FA050031
S315080048502E00002400E0641CE4B2032C27DA4FF48F
S31508004860807200213000FFF725FBDFF8BC0400F05A
S31508004870C1FBDFF8B80400F0BDFBDFF8B40400F0B4
S31508004880B9FB3000FFF7E9FD050029003000FFF706
S3150800489044FE99A1300000F05FFE0028DBD000AA94
S315080048A03100DFF83404FFF7CAFA012006E000AA4F
S315080048B03100DFF82404FFF7C2FA002076BD70B590
S315080048C084B00025002602A9DFF80C04FFF794FA45
S315080048D005002E00002400E0641CE4B2142C2DDA36
S315080048E0E4B2002C09D002A8019000200090C82349
S315080048F000220021002000F0A9FF4FF48072002159
S315080049003000FFF7D7FADFF82C0400F073FB30000D
S31508004910FFF7A3FD050029003000FFF7FEFDDFF8CD
S315080049201814300000F018FE0028D5D002AA31006D
S31508004930DFF8A403FFF783FA012006E002AA310094
S31508004940DFF89403FFF77BFA002004B070BD70B55A
S3150800495082B00025002600A9DFF87C03FFF74CFA91
S3150800496005002E00002400E0641CE4B2032C1FDAC4
S315080049704FF4807200213000FFF79CFADFF8BC0381
S3150800498000F038FB3000FFF768FD0500290030000D
S31508004990FFF7C3FD58A1300000F0DEFD0028E3D084
S315080049A000AA3100DFF83003FFF749FA012006E0D4
S315080049B000AA3100DFF82003FFF741FA002076BD90
S315080049C070B584B00025002602A9DFF80C03FFF7AE
S315080049D013FA05002E00002400E0641CE4B2142C2F
S315080049E02DDAE4B2002C09D002A80190002000902C
S315080049F0C82300220021002000F028FF4FF480720F
S31508004A0000213000FFF756FADFF8340300F0F2FA17
S31508004A103000FFF722FD050029003000FFF77DFD75
S31508004A20DFF82013300000F097FD0028D5D002AA41
S31508004A303100DFF8A402FFF702FA012006E002AA15
S31508004A403100DFF89402FFF7FAF9002004B070BDD0
S31508004A50F8B500250027002400A99F48FFF7CCF9E0
S31508004A6007003C00002600E0761CF6B2032E3ADA70
S31508004A704FF4807200212000FFF71CFADFF8C80205
S31508004A8000F0B8FADFF8C40200F0B4FA2000FFF725
S31508004A9014FD070039002000FFF73FFDDFF8B012CC
S31508004AA0200000F059FD0028DED0DFF8A81220000B
S31508004AB000F052FD07E0EDB229184979EDB2DFF8AA
S31508004AC09822A9546D1CEDB2291849790D29F2D1FD
S31508004AD00020EDB2A049685400AA21007E48FFF7DD
S31508004AE0AEF9012005E000AA21007B48FFF7A7F9E7
S31508004AF00020F2BD000000004F4B000070B582B0E8
S31508004B000025002600A97448FFF776F905002E004F
S31508004B10002400E0641CE4B2032C23DA4FF480720C
S31508004B2000213000FFF7C6F98C4800F063FA8A487E
S31508004B3000F060FA8A4800F05DFA3000FFF7BDFC25
S31508004B40050029003000FFF7E8FC8649300000F030
S31508004B5003FD0028DED000AA31005F48FFF76FF991
S31508004B60012005E000AA31005B48FFF768F900203C
S31508004B7076BD80B5FFF7DBFC002801D100204AE0AE
S31508004B80FFF70EFD002801D1002044E0FFF742FDA3
S31508004B90002801D100203EE0FFF788FD002801D15A
S31508004BA0002038E0FFF7D1FD002801D1002032E0CF
S31508004BB0FFF704FE002801D100202CE0FFF73EFE97
S31508004BC0002801D1002026E0FFF779FE002801D150
S31508004BD0002020E0FFF7BBFE002801D100201AE0E4
S31508004BE0FFF7EEFE002801D1002014E0FFF730FFA2
S31508004BF0002801D100200EE0FFF780FF002801D130
S31508004C00002008E0012000F056F800AA00215648C6
S31508004C1000F069FB012002BD30B585B004000D0027
S31508004C20524800F0E7F901A8009002AB002240F6CE
S31508004C30B8314F4800F09DFABDF80400002801D0AD
S31508004C40002036E0ADB22A0021A103A801F06CFBD2
S31508004C50484800F0CFF903A800F0CCF91DA000F0F1
S31508004C60C9F901A8009002AB00224FF47A714248B4
S31508004C7000F07FFABDF80400002801D0002018E0F3
S31508004C80290089B2200000F087F9012111A000F05F
S31508004C9083F901A8009002AB00224FF47A713748D5
S31508004CA000F067FABDF80400002801D0002000E0F3
S31508004CB0012005B030BD38B50400002501F0ACFE72
S31508004CC005002F480470280001F0AAFE31BD000037
S31508004CD0256400000D000000B03F0020000C0140D4
S31508004CE000080140E43C0020C03D0020C83F0020E9
S31508004CF054B000083C3D0020103D002044B1000897
S31508004D0060B000084CB1000854B100086CB0000847
S31508004D1078B0000884B0000890B000089CB000087D
S31508004D20A8AF000840000020E4AF00084C000020AF
S31508004D3058000020A8B00008B4B00008C0B00008A9
S31508004D40CCB00008D8B000085CB10008000000200C
S31508004D50E4B0000864B100081C000020F4AF0008A5
S31508004D606400002004B000085C3F002014B000086E
S31508004D70783F002024B00008243F0020403F002050
S31508004D806E4000201CB52021DFF8480303F00BF81D
S31508004D90002819D0CF4803F002F80400CE4800785E
S31508004DA0002811D001A9CD48FFF726F801000C709C
S31508004DB001A8009000230122C948FFF720FABDF890
S31508004DC00400002800D000BF4021C24802F0EBFFD3
S31508004DD000280ED040F22661BE4802F0F1FF01AA73
S31508004DE00021C04800F07FFABDF80400002800D072
S31508004DF000BF13BD1CB52021BB4802F0D4FF002814
S31508004E0015D0B94802F0CBFF040001A9B348FEF754
S31508004E10F3FF01000C7001A8009000230122B3489B
S31508004E20FFF7EDF9BDF80400002800D000BF4021C7
S31508004E30AD4802F0B8FF00280ED040F22661AA4815
S31508004E4002F0BEFF01AA0021A94800F04CFABDF8FD
S31508004E500400002800D000BF13BD00001CB52021A7
S31508004E60A44802F0A0FF002815D0A24802F097FF38
S31508004E70040001A99948FEF7BFFF01000C7001A8BC
S31508004E800090002301229948FFF7B9F9BDF80400FC
S31508004E90002800D000BF4021964802F084FF002871
S31508004EA00ED040F22661934802F08AFF01AA00213B
S31508004EB0914800F018FABDF80400002800D000BF99
S31508004EC013BD70B584B004000D008C480078AA287C
S31508004ED02AD1012240F22661864802F033FF0026D5
S31508004EE012E00020ADF8040001A8009002AB0022F1
S31508004EF04FF4FA71804800F03CF9B6B2315D89B2D8
S31508004F007C4802F048FF761CB6B2ADB2AE42E8D392
S31508004F10002240F22661774802F014FF40217548C6
S31508004F2002F041FF0028F9D04FF48071744800F070
S31508004F30F2FD012240F226616B4802F003FF0026CB
S31508004F4012E00020ADF8040001A8009002AB002290
S31508004F504FF4FA71664800F00CF9B6B2315D89B2C1
S31508004F60614802F018FF761CB6B2ADB2AE42E8D37D
S31508004F70002240F226615C4802F0E4FE40215A48CD
S31508004F8002F011FF0028F9D04FF480715C4800F058
S31508004F90C5FD012004B070BD70B584B004000D00D5
S31508004FA0012240F226614B4802F0CCFE002606E0BC
S31508004FB0B6B2315D89B2474802F0EDFE761CB6B24C
S31508004FC0ADB2AE420DD201A8009002AB002232214A
S31508004FD0444800F0CEF8BDF804000028E8D00020C8
S31508004FE006E0002240F226613A4802F0ABFE0120B4
S31508004FF004B070BD10B584B00400012240F22661E9
S31508005000344802F09FFE40F22661324802F0D8FE8C
S3150800501005E0217889B22F4802F0BDFE641C20788D
S3150800502000280DD001A8009002AB002232212D489D
S3150800503000F09FF8BDF804000028EAD0002006E03A
S31508005040002240F22661234802F07CFE012004B0CB
S3150800505010BD38B50400002501F0DEFC0500E4B2F9
S31508005060002C03D001201C49087002E000201A49D0
S315080050700870280001F0D4FC012032BD80B500215B
S31508005080C0B2002809D001F0C7FC010001201D4A62
S315080050901070080001F0C4FC08E001F0BDFC010036
S315080050A00020184A1070080001F0BAFC012002BD61
S315080050B080B54FF4804002F0D9FE002809D000AB35
S315080050C000220121104801F082FB4FF4804002F0D3
S315080050D0DFFE01BD0044004079400020C83F0020A3
S315080050E0C03D0020983E002000380140E43D0020E5
S315080050F0B43E002000480040D03E00207600002044
S31508005100000801406F400020943F00202DE9F0413F
S3150800511005000E0090461C000027DFF838020078CC
S31508005120002803D042F6E160208020E0002D03D15C
S3150800513045F6C35020801AE001F06EFC0700DFF840
S3150800514018022860C5F814800020A8616E6015F161
S31508005150080001F0E5FEDFF804020088401CDFF8CD
S31508005160FC110880380001F05BFC00202080BDE8B7
S31508005170F0812DE9F04389B006000F009146984664
S315080051800024109D73480078002804D046F2AE101B
S31508005190288000207AE0002E04D145F6C3502880E6
S315080051A0002073E01FFA89F94846002802D0B0F5B6
S315080051B0004F20D130686849884221D1B8F1000FE4
S315080051C002D00020C8F8000001F026FC040070692F
S315080051D000281AD07069401E7061B8F1000F02D01D
S315080051E0B069C8F800007669200001F019FC0020B3
S315080051F0288030004AE045F625602880002045E0F2
S3150800520045F6C4502880002040E05FEA094008D5EA
S315080052107669200001F004FC46F2B01028803000C0
S3150800522034E04F480078002807D0200001F0F8FB4A
S3150800523046F663502880002028E03B00062231000D
S3150800524000A801F023FE200001F0EAFB01F006FDAC
S3150800525001F0E2FB04004348006890F83500002896
S3150800526005D002282BD014D303281ED033E0B8F17A
S31508005270000F04D03B480068006CC8F80000002006
S3150800528028807669200001F0CBFB300009B0BDE824
S31508005290F083B8F1000F04D032480068006CC8F8F3
S315080052A0000046F2A9102880EBE7B8F1000F02D0FB
S315080052B00020C8F8000047F2D9202880E1E7B8F1B5
S315080052C0000F04D027480068006CC8F8000045F6AF
S315080052D0C2502880D5E746F62E602880200001F0C7
S315080052E09FFB0020D2E770B505000E001400002DC4
S315080052F004D145F6C3502080002019E0B6B230002C
S31508005300002808D0B0F5007F05D0B0F5004F02D0D0
S31508005310B0F5024F0DD128680F4988420ED102F028
S315080053209AFB02002300310089B2280000F01CF81D
S3150800533070BD45F6256020800020F9E745F6C45083
S3150800534020800020F4E70021044A11800021018012
S31508005350704700007040002053454D4168400020CA
S3150800536075400020504000202DE9F04782B0040027
S315080053700D0016001F005FF0000801F04DFB804687
S3150800538014F108000189002918D1606910F1010F8C
S3150800539007D1404601F044FB46F6C5503880002048
S315080053A033E06069401C6061D4F81490A6614046F9
S315080053B001F036FB00203880484626E0A90502D5CC
S315080053C0B0F8089001E05FF00109D0F800A00BE002
S315080053D0DAF80810DAF804A0009600230022200064
S315080053E001F014FEB9F101091FFA89F9B9F1000FA4
S315080053F0EED1D4F81490404601F012FB280401D4EB
S3150800540001F02CFC002038804846BDE8F68710B429
S3150800541050F8041B81B102681218001D50F8043BAD
S31508005420DC0744BFA9F10104E31852F8044B43F81A
S31508005430044B091FF9D1EBE710BC7047002201E0C5
S31508005440401C521C002804D00378002B01D08A4245
S31508005450F6D31000704780B55FF0FF3200F001F810
S3150800546002BD30B4002801D1002029E0002901D16D
S31508005470002025E0002A23D0030000E05B1C002B57
S3150800548002D01C78002CF9D1002B01D1002017E09E
S31508005490002404E00D781D705B1C491C641C002B5D
S315080054A006D0002904D00D78002D01D09442F1D3FE
S315080054B0002B01D0002901D1002001E0002119703C
S315080054C030BC7047F0B4002A01D1002042E0002821
S315080054D007D1002901D100203CE00878404200B2FB
S315080054E038E0002902D1007800B233E003000C004E
S315080054F05B1C641C002504E0401C491C5B1C641CE6
S315080055006D1C06780F78BE4208D10678002E05D0A5
