S00C0000546573742E7372656378
S31508000000D04E002079B400080FB3000811B30008D9
S3150800001013B3000815B3000817B300080000000062
S3150800002000000000000000000000000019B30008EE
S315080000301BB3000800000000979800081DB30008CD
S3150800004045B6000849B600084DB6000851B600087E
S3150800005055B6000859B600083DB300085DB6000855
S3150800006061B6000865B6000869B600086DB60008EE
S3150800007071B6000875B6000879B600087DB600089E
S3150800008081B6000885B6000889B600088DB600084E
S3150800009091B6000895B6000899B600089DB60008FE
S315080000A0A1B60008A5B60008A9B60008ADB60008AE
S315080000B0B1B60008B5B60008B9B60008BDB600085E
S315080000C0C1B60008C5B60008C9B60008CDB600080E
S315080000D0D1B6000825B300082DB3000835B30008CB
S315080000E0D5B60008D9B60008DDB60008F0B585B063
S315080000F000260FE0DFF8100C007801280AD1DFF897
S315080001000C0C0068DFF8081C08600020DFF8F81BF4
S315080001100870002602A8019003A800900DF10A03B2
S315080001200022C821DFF8EC0B03F0BCFC0100BDF887
S31508000130080047F2D9229042DCD00F7802AADFF8ED
S31508000140D80B03F0BEFEDFF8C80B006800281AD1EA
S3150800015002A9DFF8C80B03F091FEDFF8B41B0860AC
S31508000160BDF80800002800D000BFDFF8A40B00681F
S31508000170DFF8981B08604FF480720021DFF88C0BBB
S31508000180006803F0D9FEDFF8980B0078002878D0CD
S31508000190DFF8740B0078002810D1FFB2682FB9D1A8
S315080001A0DFF86C0B0068411CDFF8642B11600770E0
S315080001B000260120DFF8501B0870ABE7DFF8500B6C
S315080001C00068411CDFF8482B11600770DFF8400B08
S315080001D00068DFF8381B0968401A0B2805D1DFF8D4
S315080001E02C0B0068807A10F10D06F6B2002E91D01D
S315080001F0DFF81C0B0068DFF8141B0968401AF6B212
S31508000200B04287DBDFF8080B006810F8010C1628E7
S315080002102BD1DFF8FC0A0768F6B2B11E89B2DFF8FF
S31508000220EC0A006800F011F917F8021CC0B2814206
S315080002307FF470AF02A800900023F6B2320092B2A3
S31508000240DFF8C80A0168DFF8DC0A03F00AFD0020B7
S31508000250DFF8B81A08600020DFF8B41A0860002032
S31508000260DFF8A41A0870002654E7DFF8A00A006829
S31508000270DFF89C1A08600020DFF88C1A0870002640
S3150800028048E7DFF8840A0078002813D1FFB2682F00
S315080002907FF440AFDFF8780A0068411CDFF8702A5F
S315080002A0116007700026012400250120DFF8581A7E
S315080002B008702FE7DFF8580A0068411CDFF8502A53
S315080002C011600770EDB2002D39D1641CE4B2062C1A
S315080002D07FF420AFDFF8340A00684079682820D117
S315080002E0DFF8280A0068B0F80100DFF8201A096864
S315080002F0B1F8031080B289B2884204D1012580B2D0
S315080003008608083606E70020DFF8FC19087000267C
S3150800031000240025DFF8F4090068DFF8F4190860FE
S31508000320F8E60020DFF8E01908700026002400250A
S31508000330DFF8D8090068DFF8D8190860EAE6F6B2E7
S31508000340002E3FF4E7AEDFF8C8090068DFF8BC19ED
S315080003500968401AF6B2B042FFF6DCAEDFF8B0091B
S31508000360006810F8010C162861D1DFF8A4090468A2
S31508000370F6B2B6F1080189B2DFF890090068801D67
S3150800038000F063F814F8021CC0B2814241D1DFF8CC
S315080003907C090068007B032806D0042817D00A28A1
S315080003A002D00B2813D024E00020DFF8641909686E
S315080003B0087002A800900023F6B2320092B2DFF865
S315080003C04C090168DFF8CC0B03F04BFC11E0002068
S315080003D0DFF83C190968087002A800900023F6B2F5
S315080003E0320092B2DFF824090168DFF8AC0B03F09B
S315080003F038FC0020DFF8141908600020DFF810190F
S3150800040008600020DFF8001908700026002400257F
S3150800041080E6DFF8F8080068DFF8F41808600020BE
S31508000420DFF8E418087000260024002572E6DFF8D5
S31508000430DC080068DFF8D81808600020DFF8C8185C
S31508000440087000260024002564E610B40022002364
S3150800045003E09BB21C5CA2185B1C9BB289B28B4260
S31508000460F7D31000C0B210BC7047000030B583B097
S31508000470002000210022002400250FE02C004FF464
S3150800048080720021280003F057FD280003F086FF3C
S3150800049001AA0021DFF8040B04F0C3F8DFF8000B0B
S315080004A00078012840F0A180002C14D101A9DFF8BA
S315080004B06C0803F0E3FC040025004FF48072002169
S315080004C0280003F039FDBDF80400002800D000BF5D
S315080004D0280003F063FFDFF8CC0A0068DFF8C81AC3
S315080004E00968401A01287ADB01AA0021042004F0D1
S315080004F043F9DFF8B00A04682100280004F097FAE7
S31508000500A5A1280004F0F2FE0028B7D1DFF89C1A4E
S31508000510280004F0EBFE00280ED001A80090002366
S31508000520621B92B22900DFF8880A03F09AFB0024BE
S31508000530002003F033FFB1E7DFF8781A280004F04B
S31508000540D5FE002810D02C004FF480720021280018
S3150800055003F0F2FC002004000025002003F01EFF33
S31508000560002004F0DDFD99E7DFF84C1A280004F0B6
S31508000570BDFE002810D02C004FF480720021280000
S3150800058003F0DAFC002004000025002003F006FF33
S31508000590002004F0C5FD81E7DFF8201A280004F0E2
S315080005A0A5FE002810D02C004FF4807200212800E8
S315080005B003F0C2FC002004000025002003F0EEFE34
S315080005C0002004F0ADFD69E72C004FF4807200218D
S315080005D0280003F0B1FC280003F0E0FE5EE701AA5C
S315080005E00021042004F0C8F858E7002C10D04FF476
S315080005F080720021280003F09FFC01AA2900DFF879
S315080006001C0703F05EFC00240025002003F0C6FE4C
S31508000610002004F037FD012004F034FD04F0F0FC5E
S315080006203CE72DE9FF41002600240020ADF80A002A
S315080006305FF000080025002705E002AA2100DFF880
S31508000640DC0603F03EFC02A8019003A800900DF119
S315080006500A0300220021DFF8580903F023FA0400F0
S31508000660B5A1200004F042FE10F10208404600F051
S3150800067095F80700BFB2002FDFD098F80C000028C5
S315080006800CD0022828D0032827D0042841D00A28CD
S3150800069023D00B283DD00C28CFD0CEE798F80D00F4
S315080006A010F00F05DFF818090078EDB2854206D17B
S315080006B002AA0021DFF80C0903F0B3FF0BE0DFF80C
S315080006C008090078EDB2854205D102AA0021DFF8B3
S315080006D0FC0803F0A6FFB0E7AFE702A9DFF83C067F
S315080006E003F0CCFB0600002E12D0BFB23A004146FA
S315080006F0300004F065FE0120BFB2B85502A800908C
S3150800070000233A0092B23100DFF8880803F0A9FA0C
S3150800071093E798F80D000F2101FB00F598F80E00F5
S31508000720052808D1DFF8A80805702900C9B20120F4
S3150800073002F07EFB2EE0DFF898080078EDB2A842BA
S3150800074023D002A9DFF8D40503F098FB0600002E93
S3150800075008D0BFB23A004146300004F031FE01200D
S31508000760BFB2B855DFF8680805702900C9B201207C
S3150800077002F05EFB02A8009000233A0092B2310014
S31508000780DFF8140803F06DFA04E02900C9B2012065
S3150800079002F04EFB51E700000A3E000070B5040067
S315080007A0B4F80150B4F80300ADB280B2854214D152
S315080007B0ADB2AD08ADB228198679290089B2A01D57
S315080007C0FFF743FE864208D1ADB22819C07916282C
S315080007D003D115F10800C0B200E0002070BD10B5C5
S315080007E0002404F001FF0400DFF8680D0078401CBF
S315080007F0DFF8601D0870DFF85C0D007810F00F0058
S31508000800DFF8501D0870200004F0F2FE10BD30B568
S3150800081089B0002409E002A8019000200090642312
S3150800082000220021002003F0F7FF04AD682028709D
S315080008306D1C272028706D1C002028706D1C272031
S3150800084028706D1C002028706D1C682028706D1C8F
S31508000850C92028706D1CDFF8000D007828706D1C03
S31508000860DFF8F40C407828706D1CDFF8EC0C807803
S3150800087028706D1CDFF8E00CC07828706D1CDFF856
S31508000880D80C007928706D1C022028706D1CDFF8C2
S31508000890C40C007850F0700028706D1CDFF8B40C9A
S315080008A00078DFF81C170870FFF799FF03202870F7
S315080008B06D1C09210DF11600FFF7C7FD28706D1C88
S315080008C0162028706D1CDFF8D80600780028A2D0FC
S315080008D0002500E06D1CDFF8C8060078002818D04F
S315080008E0EDB2032D15DA0024112104A804F05AFBF1
S315080008F00028EFD002A8009003AB002241F288310D
S31508000900DFF8C00603F0D3FDBDF808000028E1D1E2
S315080009100124E4B2002C0AD002A80190002000901D
S31508000920002300220221002003F076FF7DE7002045
S3150800093004F0F6FB79E700000D0A680080B5C0B23E
S3150800094000280CD0DFF8040E0078AA2803D101206D
S3150800095000F046F80FE0012000F05FF80BE0DFF842
S31508000960EC0D0078AA2803D1002000F039F802E03F
S31508000970002000F052F801BD1FB511E00120FFF775
S31508000980DDFFBDF80800015D200000F0C9F8002071
S31508000990FFF7D4FF0DF10A022100E04803F091FAAF
S315080009A00DF10A00019003A8009002AB0022002175
S315080009B0DFF8E40503F076F80400207B042802D06B
S315080009C00B28DBD0E6E70120FFF7B8FFBDF80800E3
S315080009D0015D200000F0C2FD0020FFF7AFFFD9E758
S315080009E0E0B5C0B2002811D04FF40051DFF8600D11
S315080009F004F07FFE02A80190002000904FF4FA73DD
S31508000A0001220021002003F007FF05E04FF4005102
S31508000A10DFF83C0D04F070FE0EBDE0B5C0B200284C
S31508000A2010D04021DFF82C0D04F063FE02A80190D7
S31508000A30002000904FF4167300220021002003F0D6
S31508000A40EBFE04E04021DFF80C0D04F055FE0EBD68
S31508000A50E0B5C0B200280FD00421DFF8FC0C04F082
S31508000A6048FE02A8019000200090002303220021DE
S31508000A70002003F0D1FE04E00421DFF8DC0C04F0CA
S31508000A803BFE0EBDE0B5C0B200280FD00221DFF84C
S31508000A90C80C04F02EFE02A8019000200090002346
S31508000AA003220021002003F0B7FE04E00221DFF84C
S31508000AB0A80C04F021FE0EBDE0B5C0B200280FD088
S31508000AC00121DFF8940C04F014FE02A8019000201E
S31508000AD00090002303220021002003F09DFE04E07D
S31508000AE00121DFF8740C04F007FE0EBDE0B5C0B2B4
S31508000AF000280FD08021DFF85C0C04F0FAFD02A86C
S31508000B00019000200090002303220021002003F01A
S31508000B1083FE04E08021DFF83C0C04F0EDFD0EBDF9
S31508000B202DE9F04188B004000D0000200090002057
S31508000B3001900020ADF80C000020ADF80A00002650
S31508000B40002700208DF808005FF000080222DFF871
S31508000B500C1C03A804F082FF0322DFF8001E00A87D
S31508000B6004F07CFFBDF80C00002862D0012003F0D9
S31508000B7024FC0722DFF8E81D14F1100003F009FA37
S31508000B80012859D100262BE007220198811D06A8C5
S31508000B9004F064FF0122019810F10D0102A804F087
S31508000BA05DFF2B00DBB29DF80820019906A800F02E
S31508000BB0BBF803220198C11C01A804F04FFF7F1C53
S31508000BC0BDF80A00BFB28742DED3009904A800F038
S31508000BD09BFD03220098C11C00A804F03FFF761C69
S31508000BE0BDF80C00B6B286421AD206220098811DBC
S31508000BF004A804F033FF0322009810F10C0101A8A1
S31508000C0004F02CFF0222009810F112010DF10A00DF
S31508000C1004F024FF009904A800F055FD0027CFE74B
S31508000C202A00D2B20021012000F0D4F9002003F0F6
S31508000C30C4FB08B0BDE8F081002644E00322019811
S31508000C40C11C01A804F00AFF7F1CBDF80A00BFB248
S31508000C50874231D207220198811D06A804F0FEFEBC
S31508000C600122019810F10D0102A804F0F7FE0722EF
S31508000C7006A914F1100003F08CF90128DED19DF8BD
S31508000C800800E17B8842D9D1009904A800F01BFD31
S31508000C902B00DBB29DF80820019906A800F044F85D
S31508000CA02A00D2B20199002000F094F9009904A80C
S31508000CB000F02AFD5FF0010803220098C11C00A875
S31508000CC004F0CCFE761C5FFA88F8B8F1000FADD1B7
S31508000CD0BDF80C00B6B28642A8D206220098811D3D
S31508000CE004A804F0BBFE0322009810F10C0101A829
S31508000CF004F0B4FE0222009810F112010DF10A0068
S31508000D0004F0ACFE0027A0E7CF4C0020A84C00203A
S31508000D10A44C0020504A00201C4C0020044C002003
S31508000D20C14C0020984A00202DE9F0438BB00400FE
S31508000D300D00002600200021ADF80C1000275FF0FA
S31508000D40000800218DF808105FF0000907A98946F8
S31508000D50682189F8001019F1010989F8002019F1AC
S31508000D60010900210E0006E0F6B2305D89F80000A0
S31508000D7019F10109761CF6B2072EF5DB012089F870
S31508000D80000019F10109032089F8000019F1010989
S31508000D90DFF8D00B0078FF280AD11F2089F8000059
S31508000DA019F10109902089F8000019F1010909E0F3
S31508000DB0902089F8000019F101091F2089F8000020
S31508000DC019F10109012089F8000019F101090E211C
S31508000DD007A8FFF73AFB89F8000019F10109162060
S31508000DE089F8000019F10109002608E00020F6B28A
S31508000DF005A970540020F6B204A97054761CF6B200
S31508000E00042EF3DB002617E0C0B2C119897BC0B2F5
S31508000E1005AA8154C0B2C119C97CC0B204AA8154BA
S31508000E20401CC0B20428EFDB0DF10A023900DFF8D6
S31508000E30540D03F046F8761C5FFA88F8B8F1000FEF
S31508000E4031D1F6B2032E2EDA0421DFF8900D03F025
S31508000E50A0F9102107A803F09CF90DF10A000190EA
S31508000E6006A8009003AB00224FF49661DFF8700DD8
S31508000E7002F018FE0700BDF80A00002805D0F6B2F1
S31508000E80022E01D15FF00008D5E70722B91C200021
S31508000E9003F07FF80128C7D15FF00108F87F8DF8C5
S31508000EA008000020BDE70DF10A00009006AB0022FD
S31508000EB04FF47A71DFF82C0D05F04EF94FF4805295
S31508000EC0280B4FF4805101FB00F1DFF81C0D04F0EC
S31508000ED0C5FD5FFA88F8B8F1000F16D14FF48050B7
S31508000EE0B5FBF0F101FB1051DFF8FC0C0818807D0A
S31508000EF050F040004FF48051B5FBF1F202FB11525D
S31508000F00DFF8E41C5118887529E0012202A94FF47C
S31508000F108050B5FBF0F303FB1053DFF8CC0C181820
S31508000F20163004F04DFA042205A94FF48050B5FB9B
S31508000F30F0F303FB1053DFF8B00C18180E3004F06A
S31508000F403FFA042204A94FF48050B5FBF0F303FBE3
S31508000F501053DFF8940C1818183004F031FA280BDF
S31508000F604FF48051484304F037FC4FF48052280B65
S31508000F704FF4805101FB00F1DFF86C0C04F0C4FC5F
S31508000F800DF10A020021DFF85C0C05F0F3F90BB04D
S31508000F90BDE8F083BC4A0020744A0020B04B00200C
S31508000FA0C04C0020AC4C0020B04C0020BCB500085A
S31508000FB0E04A0020C4B50008CCB50008D4B500083E
S31508000FC0CB4C0020784B0020CC4C0020944B0020C2
S31508000FD0CE4C00202DE9F54F8DB000250020069057
S31508000FE05FF000090020ADF81C000020ADF81400E1
S31508000FF00020ADF816000020ADF8000000208DF89E
S3150800100008000020ADF80A000027002008900020FC
S31508001010039000208DF8070000208DF806000024B4
S315080010200020ADF812005FF0000A5FF0000800200B
S31508001030ADF8040000265FF0000B00208DF80000D4
S31508001040039104A9DFF83C0B02F018FF0500002DF8
S3150800105000F0C68006959DF83400002840F0C88048
S3150800106007220398811D0BA804F0F8FC01220398B7
S3150800107010F10D010DF1070004F0F0FC04220398AD
S3150800108010F10E0109A804F0E9FC0122039810F1F9
S3150800109016010DF1060004F0E1FC682028706D1CAD
S315080010A0A9467320A9F8000019F102097320A9F8C6
S315080010B0000019F102094D46682028706D1C882029
S315080010C028706D1CDFF89004007828706D1CDFF816
S315080010D08804407828706D1CDFF87C0480782870B6
S315080010E06D1CDFF87404C07828706D1CDFF868047E
S315080010F0007928706D1C0B2028706D1CDFF85404CD
S31508001100007850F0600028706D1C042028706D1C53
S31508001110DFF840040078DFF8D41A0870FFF75FFBA1
S31508001120002028706D1C002028706D1C0020287077
S315080011306D1C002028706D1C9DF8070028706D1C1A
S31508001140002405E0A4B20BA8205C28706D1C641C62
S31508001150A4B2072CF6DB012028706D1C002405E0DC
S31508001160A4B209A8205C28706D1C641CA4B2042CC7
S31508001170F6DB9DF8060028706D1C002028706D1C93
S315080011801C210698801DFFF760F928706D1C162033
S3150800119028706D1C9DF83800002824D05FF0000ADE
S315080011A001E01AF1010A5FFA8AFABAF1030F11DAB5
S315080011B02421069803F0F6FE04A800900AAB002244
S315080011C041F28831DFF8280A03F071F9BDF81000FA
S315080011D00028E6D104AA0699DFF8A80902F071FEEC
S315080011E00FB0BDE8F08F2421069803F03EF8F1E72A
S315080011F00222DFF868150DF1160004F02FFC022212
S31508001200DFF8F01905A804F029FC0322DFF84C17CB
S3150800121008A804F023FCBDF814000A2190FBF1F09D
S31508001220ADF80000BDF814000A2190FBF1F201FBAD
S3150800123012008DF808000027BDF80000ADF80A0076
S315080012409DF80800002804D0BDF80A00401CADF837
S315080012500A00002406E003220898C11C08A804F026
S31508001260FDFB641CBDF81600A4B28442B2D2032268
S31508001270089810F10C0103A804F0F0FB0222089864
S3150800128010F1120107A804F0E9FB0020ADF81200DE
S3150800129015E0BDF804000E21484310F1160189B285
S315080012A0069802F0E2FF069D03220398C11C03A8D4
S315080012B004F0D4FBBDF81200401CADF81200BDF8CE
S315080012C01200BDF81C108842C5D207220398811D5A
S315080012D00BA804F0C3FB0122039810F10D010DF1D0
S315080012E0070004F0BBFB0422039810F10E0109A8BD
S315080012F004F0B4FB0122039810F116010DF1060063
S3150800130004F0ACFBF6B2002E40F0B58001267F1C37
S31508001310BDF80A0001280CD1BDF81480ADF8048088
S31508001320BDF804000E2148430E30800050F0030B30
S3150800133036E0BFB2012F0CD15FF00A08ADF8048081
S31508001340BDF804000E2148430E30800050F0030B10
S3150800135026E0BDF80A00BFB2874215D19DF80800FD
S31508001360002804D15FF00A08ADF8048003E09DF870
S315080013700880ADF80480BDF804000E2148430E30FD
S31508001380800050F0030B0BE05FF00A08ADF804800C
S31508001390BDF804000E2148430E30800050F0030BC0
S315080013A0682028706D1CA946A9F800B019F1020931
S315080013B0A9F800B019F102094D46682028706D1C7D
S315080013C0882028706D1C6448007828706D1C624857
S315080013D0407828706D1C6048807828706D1C5E48BF
S315080013E0C07828706D1C5C48007928706D1C0B202D
S315080013F028706D1CBDF80A00012806D155480078EA
S3150800140050F0700028706D1C1BE0BFB2012F06D18A
S315080014105048007850F0500028706D1C11E0BDF857
S315080014200A00BFB2874206D14A48007850F0300019
S3150800143028706D1C05E04748007850F010002870A9
S315080014406D1C44480078DFF8A4170870FFF7C7F941
S31508001450042028706D1CA946BDF80A00A9F80000EA
S3150800146019F10209A9F8007019F102094D469DF80B
S31508001470070028706D1C5FF0000A08E05FFA8AFA18
S315080014800BA81AF8000028706D1C1AF1010A5FFAF9
S315080014908AFABAF1070FF1DB012028706D1C5FF09C
S315080014A0000A08E05FFA8AFA09A81AF80000287004
S315080014B06D1C1AF1010A5FFA8AFABAF1040FF1DB18
S315080014C09DF8060028706D1C002028706D1CB8F168
S315080014D001081FFA88F8B8F1000F7FF4E5AE002678
S315080014E0BDF804000E21484310F10E0189B2069892
S315080014F0801DFEF7AAFF28706D1C162028706D1C2B
S315080015009DF8380000283FF4C4AE5FF0000A01E0F9
S315080015101AF1010A5FFA8AFABAF1030FBFF6C3AEE7
S31508001520BDF804000E21484310F1160189B2069849
S3150800153003F038FD04A800900AAB002241F2883176
S31508001540DFF8AC0602F0B3FFBDF810000028DFD1C3
S31508001550A9E60000CD4C00207C0000202DE9F043D0
S3150800156089B004000D00002003900020029000209E
S31508001570ADF806000020ADF8100000260027002070
S315080015808DF804005FF000085FF000090222734935
S315080015900DF1060004F062FA0322DFF8C01303A86F
S315080015A004F05CFABDF80600002800F089800120E6
S315080015B002F003FF002618E05FFA89F9CDF80090DB
S315080015C02B00DBB29DF80420029905A800F0CCF99F
S315080015D0039907A800F098F85FF00108032203981A
S315080015E0C11C03A804F03AFA761C5FFA88F8B8F129
S315080015F0000F62D1BDF80600B6B286425DD2062259
S315080016000398811D07A804F029FA0322039810F10C
S315080016100C0102A804F022FA0222039810F1120122
S3150800162004A804F01BFA002706E003220298C11C4E
S3150800163002A804F013FA7F1CBDF81000BFB2874257
S31508001640CCD207220298811D05A804F007FA0122C8
S31508001650029810F10D0101A804F000FA072205A965
S3150800166014F1100002F095FC0128DED19DF8040063
S31508001670E17B8842D9D1039907A800F024F8022211
S31508001680029810F116010DF1120004F0E7F9607BDB
S315080016900F2101FB00F9A07B02288DD0032897D1E2
S315080016A05FFA89F9CDF800902B00DBB29DF804208B
S315080016B0029905A800F054F88AE7002002F07DFE9A
S315080016C009B0BDE8F08380B520490978AA291AD15E
S315080016D00078012806D014D303280BD006D3042893
S315080016E00CD00EE00120FFF7B3F90AE00120FFF75E
S315080016F0C9F906E00120FFF7DFF902E00120FFF74C
S31508001700F5F90120FFE702BD80B510490978AA2935
S315080017101AD10078012806D014D303280BD006D393
S3150800172004280CD00EE00020FFF792F90AE000200A
S31508001730FFF7A8F906E00020FFF7BEF902E000204F
S31508001740FFF7D4F90120FFE702BD00009200002050
S315080017500010014000080140000C0140A3F01F00E2
S315080017602DE9F04F89B004000D001E000027002067
S31508001770ADF80A005FF000085FF000095FF0000AA4
S315080017805FF0000B04A8834668208BF800001BF165
S31508001790010B8BF800201BF1010B0020070006E067
S315080017A0FFB2385D8BF800001BF1010B7F1CFFB2FE
S315080017B0072FF5DB04208BF800001BF1010B042032
S315080017C08BF800001BF1010B17208BF800001BF1AA
S315080017D0010BA0208BF800001BF1010B01208BF8F0
S315080017E000001BF1010B55208BF800001BF1010BC3
S315080017F00F2104A8FEF729FE8BF800001BF1010B48
S3150800180016208BF800001BF1010B002707E05FF09C
S31508001810000902AA4146DB4802F053FB7F1C5FFA27
S3150800182089F9B9F1000F34D1FFB2032F31DA042157
S31508001830DFF8A80302F0ADFC112104A802F0A9FC08
S3150800184002A8019003A800900DF10A03002244F6AD
S315080018502061DFF88C0302F025F98046BDF8080000
S31508001860002805D0FFB2022F01D15FF00009D5E7A5
S31508001870072218F10201200002F08BFB0128C8D1CB
S3150800188098F80EA003201AEA000FC0D15FF00109EC
S31508001890BFE702A8009003AB00224FF47A71D14843
S315080018A004F05AFC4FF48052280B4FF4805101FB88
S315080018B000F1CD4804F0D2F85FFA89F9B9F1000FC2
S315080018C025D15FFA8AFA1AF0030003280AD1032001
S315080018D04FF48051B5FBF1F202FB1152C24951187F
S315080018E0887523E04FF48050B5FBF0F101FB1051E9
S315080018F0BD480818807D50F040004FF48051B5FB74
S31508001900F1F202FB1152B849511888750EE04FF4EE
S315080019108050B5FBF0F101FB1051B348081880F868
S3150800192016A012993000C0B201F082FA280B4FF4C3
S315080019308051484303F050FF4FF48052280B4FF470
S31508001940805101FB00F1A84803F0DEFF02AA00213E
S31508001950A44804F00FFD09B0BDE8F08FA0F01F0001
S31508001960DCB50008C24C00202DE9F04F89B0040010
S315080019700D001E0000270020ADF80A005FF00008E1
S315080019805FF000095FF0000A5FF0000B04A88346C9
S3150800199068208BF800001BF1010B8BF800201BF167
S315080019A0010B0020070006E0FFB2385D8BF8000047
S315080019B01BF1010B7F1CFFB2072FF5DB04208BF808
S315080019C000001BF1010B04208BF800001BF1010B32
S315080019D017208BF800001BF1010BA0208BF80000E4
S315080019E01BF1010B01208BF800001BF1010B99205C
S315080019F08BF800001BF1010B0F2104A8FEF725FD4B
S31508001A008BF800001BF1010B16208BF800001BF168
S31508001A10010B002707E05FF0000902AA4146594872
S31508001A2002F04FFA7F1C5FFA89F9B9F1000F43D12A
S31508001A30FFB2032F40DA0421684802F0AAFB1121FD
S31508001A4004A802F0A6FB02A8019003A800900DF1D5
S31508001A500A03002244F62061614802F023F8804612
S31508001A60BDF80800002805D0FFB2022F01D15FF0AB
S31508001A700009D7E7072218F10201200002F089FAC7
S31508001A800128CAD198F80EA05FFA8AFA1AF003005C
S31508001A90032802D15FF00009BFE75FFA8AFA1AF055
S31508001AA002005FFA8AFA1AF0010151EA600000287A
S31508001AB0B1D05FF00109B0E702A8009003AB00229D
S31508001AC04FF47A71474804F047FB4FF48052280BCD
S31508001AD04FF4805101FB00F1434803F0BFFF5FFA62
S31508001AE089F9B9F1000F25D15FFA8AFA1AF00300CD
S31508001AF003280AD103204FF48051B5FBF1F202FB0B
S31508001B00115239495118887523E04FF48050B5FBB6
S31508001B10F0F101FB105134480818807D50F0400060
S31508001B204FF48051B5FBF1F202FB11522E495118C0
S31508001B3088750EE04FF48050B5FBF0F101FB1051AB
S31508001B402948081880F816A012993000C0B201F08A
S31508001B506FF9280B4FF48051484303F03DFE4FF4CC
S31508001B608052280B4FF4805101FB00F11E4803F008
S31508001B70CBFE02AA00211B4804F0FCFB09B0BDE815
S31508001B80F08F0000044C00201FB50CE0BDF80800DB
S31508001B90015D200001F0C0F80DF10A022100DFF80E
S31508001BA0D80C02F08EF90DF10A00019003A80090F6
S31508001BB002AB00220021DFF8C80D01F073FF040014
S31508001BC0207B032802D00A28E0D0E5E7BDF8080004
S31508001BD0015D200000F010F8DEE700008800002014
S31508001BE0984A0020044B002098000020CC4C002086
S31508001BF0944B0020B3F01F002DE9F04188B0040093
S31508001C000D0000260020ADF80600002002900020F6
S31508001C1006905FF00008607B0F2101FB00F7A07BB0
S31508001C20022812D0032800F0E780062800F02B814E
S31508001C30072800F05C810C2800F098810D2800F038
S31508001C40D1810E2800F00F824EE2A07CDFF8341D09
S31508001C500870607CDFF8301D0870207CDFF82C1DCA
S31508001C600870E07BDFF8281D0870B4F81300DFF869
S31508001C70241D08801121DFF8200D02F057F90621EE
S31508001C8003A802F053F9A27CE9A103A804F018FC02
S31508001C9003A9DFF8040D03F080FAE6A1DFF8F80CD3
S31508001CA003F07BFA062103A802F040F9627CE0A162
S31508001CB003A804F005FC03A9DFF8DC0C03F06DFAB1
S31508001CC0DCA1DFF8D40C03F068FA062103A802F0B9
S31508001CD02DF9227CD6A103A804F0F2FB03A9DFF8AC
S31508001CE0B80C03F05AFAD3A1DFF8AC0C03F055FA96
S31508001CF0062103A802F01AF9E27BCDA103A804F095
S31508001D00DFFB03A9DFF8900C03F047FA0821DFF898
S31508001D108C0C02F00BF9062103A802F007F9B4F8B7
S31508001D201320C3A103A804F0CBFBE2A1DFF86C0CD7
S31508001D3003F033FA03A9DFF8640C03F02EFADEA1E8
S31508001D40DFF8580C03F029FA01A8009005AB002229
S31508001D504FF47A71DFF8480C04F0FEF94FF48072FC
S31508001D60DFF8401CDFF8400C03F078FE1122DFF89C
S31508001D70281CDFF8380C03F023FB0822DFF81C1CAC
S31508001D80DFF82C0C03F01CFB0122DFF8F81BDFF848
S31508001D90240C03F015FB0122DFF8EC1BDFF8180C06
S31508001DA003F00EFB0122DFF8E41BDFF8100C03F04A
S31508001DB007FB0122DFF8D81BDFF8040C03F000FB51
S31508001DC00222DFF8D01BDFF8FC0B03F0F9FA4FF418
S31508001DD08072DFF8D01BDFF8D00B03F064FD01AA90
S31508001DE00021DFF8BC0B04F0C5FA3900C9B2280097
S31508001DF0C0B201F01DF877E10521DFF8CC0B02F03F
S31508001E0095F8E07BDFF8C01B0870207CDFF8B81B6C
S31508001E104870607CDFF8B01B8870A07CDFF8A81BD0
S31508001E20C870E07CDFF8A01B087101A8009005AB1C
S31508001E3000224FF47A71DFF8680B04F08DF94FF43D
S31508001E408072DFF8601BDFF8600B03F007FE0522DF
S31508001E50DFF8741BDFF8740B03F0B2FA4FF48072E4
S31508001E60DFF8401BDFF8400B03F01DFD01AA002137
S31508001E70DFF82C0B04F07EFA3900C9B22800C0B28C
S31508001E8000F0D6FF30E114F1190000F0C3FC02900F
S31508001E9014F11201029800F02AF9804602987FF0A0
S31508001EA07F41884222D0E07F00280DD17FF07F4015
S31508001EB0804503D04146029800F064FA3900C9B259
S31508001EC02800C0B200F0B4FFE07F01280ED17FF0F1
S31508001ED07F40804504D114F11201029800F03DF9C3
S31508001EE03900C9B22800C0B200F0A2FFFCE0E07BCE
S31508001EF0AA2825D10222DFF8081E0DF1060003F0F4
S31508001F00ADFD0322DFF8FC1D02A803F0A7FD00269D
S31508001F100BE003220298C11C06A803F09FFD029855
S31508001F2000F056FD06980290761CBDF80600B6B27B
S31508001F308642EED33900C9B22800C0B200F078FF55
S31508001F40E07B552811D114F1100000F063FC7FF0F6
S31508001F507F41884203D114F1100000F08FFC39004C
S31508001F60C9B22800C0B200F063FFBDE0E07BAA2832
S31508001F7003D1AA20DFF8901D0870E07BFF2803D163
S31508001F80FF20DFF8841D087001A8009005AB002229
S31508001F904FF47A71DFF8080A04F0DEF84FF480721D
S31508001FA0DFF8001ADFF8000A03F058FD0122DFF80F
S31508001FB0581DDFF8580D03F003FA4FF48072DFF866
S31508001FC0E419DFF8E40903F06EFC01AA0021DFF842
S31508001FD0D00904F0CFF93900C9B22800C0B200F020
S31508001FE027FF81E0E07B002803D10020DFF8201DD1
S31508001FF00870E07BFF2803D1FF20DFF8141D087066
S3150800200001A8009005AB00224FF47A71DFF8900919
S3150800201004F0A2F84FF48072DFF88819DFF888090F
S3150800202003F01CFD0122DFF8E81CDFF8E80C03E0EA
S31508002030256400002E00000003F0C2F94FF48072F8
S31508002040DFF86019DFF8600903F02DFC01AA00210A
S31508002050DFF84C0904F08EF93900C9B22800C0B27D
S3150800206000F0E6FE40E0E07BAA2803D1AA20DFF8CC
S31508002070B81D0870E07BFF2803D1FF20DFF8A81DF4
S31508002080087001A8009005AB00224FF47A71DFF8BA
S31508002090100904F061F84FF48072DFF80819DFF8C8
S315080020A0080903F0DBFC0122DFF87C1DDFF87C0D54
S315080020B004E000BF2C0000000D00000003F080F9CA
S315080020C04FF48072DFF8DC18DFF8DC0803F0EBFB6E
S315080020D001AA0021DFF8C80804F04CF93900C9B292
S315080020E02800C0B200F0A4FE08B0BDE8F08130B503
S315080020F085B005000C00002000900020ADF8040013
S31508002100022215F1120101A803F0A8FC032215F119
S315080021100C0100A803F0A2FC002506E003220098A3
S31508002120C11C00A803F09AFC6D1CBDF80400ADB2F2
S3150800213085420ED207220098811D02A803F08EFC64
S31508002140072202A9200001F024FF0128E6D1009801
S3150800215001E07FF07F4005B030BD30B587B00400A0
S315080021600D0000200490002002900020ADF8040025
S315080021700020ADF8060000200590022214F1120195
S3150800218001A803F06BFC0222DFF84C1D0DF10600D6
S3150800219003F064FC032214F10F0104A803F05EFCAB
S315080021A0BDF80400401CADF80400BDF80600401C4C
S315080021B0ADF8060003F0BCFD029002987FF07F415F
S315080021C0884202D17FF07F40DAE007220298811D1B
S315080021D0280003F03AFB0122029810F10D01E81ECF
S315080021E003F033FB0422029810F10E0105A803F050
S315080021F02CFB0222029810F1160105A803F025FB14
S3150800220003A8009006AB00224FF47A71DFF8900716
S3150800221003F0A2FFBDF80C00002802D07FF07F4033
S31508002220AEE004987FF07F41884246D14FF4805251
S31508002230200B4FF4805101FB00F1DFF86C0703F027
S315080022400DFC032202A94FF48050B4FBF0F303FB04
S315080022501043DFF8540718180C3003F0B1F80322BE
S3150800226002A94FF48050B4FBF0F303FB1043DFF8E8
S31508002270380718180F3003F0A3F8022201A94FF403
S315080022808050B4FBF0F303FB1043DFF81C07181863
S31508002290123003F095F8200B4FF48051484303F0B1
S315080022A09BFA4FF48052200B4FF4805101FB00F14A
S315080022B0DFF8F40603F028FB44E04FF48052200BC5
S315080022C04FF4805101FB00F1DFF8DC0603F0C6FB92
S315080022D0032202A94FF48050B4FBF0F303FB10432A
S315080022E0DFF8C40618180F3003F06AF8022201A9AD
S315080022F04FF48050B4FBF0F303FB1043DFF8A80655
S315080023001818123003F05CF8200B4FF4805148433C
S3150800231003F062FA4FF48052200B4FF4805101FB10
S3150800232000F1DFF8840603F0EFFA03220498C11CD3
S3150800233002A803F08AFA0322029810F1120104A8EF
S3150800234003F083FA4FF48072DFF85816DFF8580660
S3150800235003F084FB02220DF10601DFF8D80C03F026
S315080023602FF84FF48072DFF83C16DFF83C0603F0CE
S315080023709AFA03AA0021DFF8280603F0FBFF029861
S3150800238007B030BD70B586B004000D00002003907C
S31508002390002002900020ADF804000020ADF80600E9
S315080023A0022214F1120101A803F058FB0222DFF8F9
S315080023B0281B0DF1060003F051FB0322E91C03A8B4
S315080023C003F04CFB032215F1120102A803F046FBA9
S315080023D0BDF80400401EADF80400BDF80600401E16
S315080023E0ADF80600280003F03AFD04A8009005ABF6
S315080023F000224FF47A71DFF8A80503F0ADFEBDF8A8
S31508002400040000285DD14FF48052200B4FF4805110
S3150800241001FB00F1DFF8900503F020FB032203A976
S315080024204FF48050B4FBF0F303FB1043DFF8780554
S3150800243018180C3002F0C4FF022201A94FF480508C
S31508002440B4FBF0F303FB1043DFF85C0518181230F1
S3150800245002F0B6FF032202A94FF48050B4FBF0F352
S3150800246003FB1043DFF8400518180F3002F0A8FFE9
S31508002470200B4FF48051484303F0AEF94FF48052D5
S31508002480200B4FF4805101FB00F1DFF81C0503F027
S315080024903BFA4FF48072DFF80C15DFF80C0503F0F1
S315080024A0DDFA02220DF10601DFF8880B02F088FF3B
S315080024B04FF48072DFF8EC14DFF8EC0403F0F3F95C
S315080024C0A0E102987FF07F41884205D003987FF00B
S315080024D07F41884240F0FB8002987FF07F41884226
S315080024E07CD14FF480520398000B4FF4805101FBC6
S315080024F000F1DFF8B40403F0B1FA032202A9039845
S315080025004FF48053B0FBF3F606FB1306DFF8980486
S315080025103018123002F054FF0398000B4FF4805124
S31508002520484303F059F94FF480520398000B4FF4CF
S31508002530805101FB00F1DFF8700403F0E5F94FF470
S315080025408052200B4FF4805101FB00F1DFF858044C
S3150800255003F084FA032203A94FF48050B4FBF0F386
S3150800256003FB1043DFF8400418180C3002F028FF6C
S31508002570022201A94FF48050B4FBF0F303FB104389
S31508002580DFF824041818123002F01AFF200B4FF453
S315080025908051484303F020F94FF48052200B4FF442
S315080025A0805101FB00F1DFF8000403F0ADF94FF4A8
S315080025B08072DFF8F013DFF8F00303F04FFA022217
S315080025C00DF10601DFF86C0A02F0FAFE4FF480728C
S315080025D0DFF8D013DFF8D00303F065F903987FF02E
S315080025E07F41884240F00E814FF480520298000BDA
S315080025F04FF4805101FB00F1EB4803F02FFA032258
S3150800260003A902984FF48053B0FBF3F606FB1306B2
S31508002610E5483018C01C02F0D3FE0298000B4FF4B0
S315080026208051484303F0D8F84FF480520298000BC3
S315080026304FF4805101FB00F1DB4803F065F94FF4D4
S315080026408052200B4FF4805101FB00F1D64803F06D
S3150800265005FA032202A94FF48050B4FBF0F303FBFA
S315080026601043D14818180F3002F0AAFE022201A919
S315080026704FF48050B4FBF0F303FB1043CA48181814
S31508002680123002F09DFE200B4FF48051484303F0B0
S31508002690A3F84FF48052200B4FF4805101FB00F150
S315080026A0C14803F031F94FF48072BE49BE4803F0C1
S315080026B0D5F902220DF10601DFF8780902F080FE4D
S315080026C04FF48072B749B84803F0EDF89AE04FF432
S315080026D080520298000B4FF4805101FB00F1DFF89D
S315080026E0FC0703F0BBF9032203A902984FF48053B1
S315080026F0B0FBF3F606FB1306DFF8E0073018C01C3C
S3150800270002F05EFE0298000B4FF48051484303F036
S3150800271063F84FF480520298000B4FF4805101FB86
S3150800272000F1DFF8B80703F0EFF84FF4805203988A
S31508002730000B4FF4805101FB00F1DFF8A00703F00E
S315080027408DF9032202A903984FF48053B0FBF3F6E0
S3150800275006FB1306DFF884073018123002F030FE45
S315080027600398000B4FF48051484303F035F84FF4B3
S3150800277080520398000B4FF4805101FB00F1DFF8FB
S315080027805C0703F0C1F84FF48052200B4FF48051D8
S3150800279001FB00F1DFF8440703F060F9022201A902
S315080027A04FF48050B4FBF0F303FB1043DFF82C071B
S315080027B01818123002F004FE200B4FF480514843DB
S315080027C003F00AF84FF48052200B4FF4805101FBB6
S315080027D000F1DFF8080703F097F84FF480727149A3
S315080027E0DFF8F80603F03AF902220DF10601DFF8E0
S315080027F0440802F0E5FD4FF480726A49DFF8DC060A
S3150800280003F051F804AA0021654803F0B3FD280037
S3150800281006B070BD30B585B00400002000900222D5
S31508002820DFF8DC1401A803F019F90322DFF8D41441
S3150800283000A803F013F9002506E003220098C11C3E
S3150800284000A803F00BF96D1CBDF80400ADB2854273
S315080028500ED206220098811D02A803F0FFF8062270
S3150800286002A9200001F095FB0128E6D1009801E0B5
S315080028707FF07F4005B030BD044C002010B586B00F
S31508002880040000200490002002900020ADF8040007
S315080028900020ADF80C000222DFF8641401A803F04A
S315080028A0DDF80322DFF8A41C04A803F0D7F8BDF866
S315080028B00400401CADF8040003F03AFA0290062220
S315080028C00298811D200002F0C0FF0222029810F132
S315080028D0120103A802F0B9FF0DF10600009005AB3E
S315080028E000224FF47A712E4803F036FC4FF48072BA
S315080028F0DFF84417DFF8E40503F0B0F804987FF032
S315080029007F41884212D1032202A9DFF8080D02F09E
S3150800291057FD022201A9DFF8000D02F051FD03223E
S3150800292002A9DFF8F80C02F04BFD18E0022201A913
S31508002930DFF8E40C02F044FD032202A9DFF8DC0C00
S3150800294002F03EFD03220498C11C02A802F07DFF96
S315080029500322029810F1140104A802F076FF4FF43E
S315080029608072DFF8D416DFF8740502F09CFF0DF1CB
S31508002970060200210A4803F0FDFC029806B010BDC5
S31508002980BC4A0020940000209500002096000020F4
S3150800299097000020900000205000002074000020BE
S315080029A0044B002000F01F0098000020E8000020DB
S315080029B0080100200701002006010020050100206B
S315080029C004010020160100207C00002018010020C8
S315080029D030B589B004000020ADF806000020059047
S315080029E00020069000200390002002900020ADF8F9
S315080029F004000025022214F112010DF1060003F06D
S31508002A002DF8032214F10C0105A803F027F8032278
S31508002A10E11C03A803F022F8032214F1140102A80A
S31508002A2003F01CF80222B64901A803F017F8BDF80E
S31508002A300400401EADF80400002005000CE0032247
S31508002A400598C11C06A803F009F805992000FFF7A8
S31508002A5099FC069805906D1CBDF80600ADB2854236
S31508002A60EDD3200003F0FBF904A8009007AB002281
S31508002A704FF47A71DFF8640D03F06EFBBDF80400BD
S31508002A80002822D14FF48072DFF8AC15DFF84C0429
S31508002A9002F0E4FF032203A9DFF8780B02F090FCAA
S31508002AA0022201A9DFF8700B02F08AFC032202A9B0
S31508002AB0DFF8680B02F084FC4FF48072DFF87815B3
S31508002AC0DFF8180402F0EFFE11E102987FF07F416B
S31508002AD0884205D003987FF07F41884240F09D8068
S31508002AE002987FF07F41884249D14FF4805203987B
S31508002AF0000B4FF4805101FB00F1DFF8E00302F010
S31508002B00ADFF032202A903984FF48053B0FBF3F5F7
S31508002B1005FB1305DFF8C4032818143002F050FC2F
S31508002B200398000B4FF48051484302F055FE4FF4CA
S31508002B3080520398000B4FF4805101FB00F1DFF837
S31508002B409C0302F0E1FE4FF48072DFF8EC14DFF824
S31508002B508C0302F083FF032203A9DFF8B80A02F008
S31508002B602FFC022201A9DFF8B00A02F029FC4FF473
S31508002B708072DFF8C414DFF8640302F094FE039849
S31508002B807FF07F41884240F0B2804FF4805202982D
S31508002B90000B4FF4805101FB00F1DFF8400302F00F
S31508002BA05DFF032203A902984FF48053B0FBF3F5A7
S31508002BB005FB1305DFF824032818C01C02F000FCE7
S31508002BC00298000B4FF48051484302F005FE4FF47B
S31508002BD080520298000B4FF4805101FB00F1BF4868
S31508002BE002F092FE4FF48072DFF84C14BB4802F0F4
S31508002BF035FF022201A9DFF8200A02F0E1FB0322D1
S31508002C0002A9DFF8180A02F0DBFB4FF48072DFF83E
S31508002C102814B24802F047FE69E04FF48052029841
S31508002C20000B4FF4805101FB00F1AC4802F016FF8F
S31508002C30032203A902984FF48053B0FBF3F505FB72
S31508002C401305A6482818C01C02F0BAFB0298000B08
S31508002C504FF48051484302F0BFFD4FF4805202986A
S31508002C60000B4FF4805101FB00F19C4802F04CFE2A
S31508002C704FF480520398000B4FF4805101FB00F18A
S31508002C80964802F0EBFE032202A903984FF48053FC
S31508002C90B0FBF3F505FB130590482818143002F02D
S31508002CA08FFB0398000B4FF48051484302F094FDC4
S31508002CB04FF480520398000B4FF4805101FB00F14A
S31508002CC0864802F021FE4FF48072DFF86C138348C1
S31508002CD002F0C4FE022201A9DFF83C0902F070FBEB
S31508002CE04FF48072DFF850137C4802F0DCFD04AA2A
S31508002CF00021DFF8E80A03F03DFB200009B030BDEB
S31508002D00A3F01F00A0F01F00920000205801002029
S31508002D1093000020C800002080B50A00417B0F23DD
S31508002D205943837B022B0CD0032B10D0062B14D0CF
S31508002D30072B1BD00C2B1FD00D2B23D00E2B27D0E7
S31508002D402BE0C9B21000C0B200F06AFC25E0C9B297
S31508002D501000C0B200F0FEFB1FE00B00DBB2D2B2DF
S31508002D6010F11001C07B00F069F916E0C9B2100035
S31508002D70C0B200F0B5F810E0C9B21000C0B200F059
S31508002D80C8FC0AE0C9B21000C0B200F029FD04E090
S31508002D90C9B21000C0B200F087FD01BDE0B51DE064
S31508002DA04021DFF83C0C02F0A4FC02A801900020A8
S31508002DB00090002301220021002001F02DFD402172
S31508002DC0DFF81C0C02F098FC02A801900020009085
S31508002DD0002301220021002001F01EFDDFF8040C6B
S31508002DE000780028DCD04021DFF8F40B02F081FCE3
S31508002DF002A80190002000904FF49673002200214B
S31508002E00002001F009FD4021DFF8D40B02F074FC24
S31508002E1002A80190002000904FF49673002200212A
S31508002E20002001F0F9FCD9E7C24C00205901002026
S31508002E3030B585B0040000AD682028706D1C2720C9
S31508002E4028706D1C002028706D1C272028706D1CAA
S31508002E50002028706D1C682028706D1C8020287042
S31508002E606D1CDFF8840B007828706D1CDFF8780B72
S31508002E70407828706D1CDFF8700B807828706D1C00
S31508002E80DFF8640BC07828706D1CDFF85C0B0079DE
S31508002E9028706D1C002028706D1C51F06000287089
S31508002EA06D1C012028706D1C09210DF10600FDF727
S31508002EB0CCFA28706D1C162028706D1CE4B2002C04
S31508002EC004D0112100A802F06DF803E0112100A832
S31508002ED001F0CBF905B030BDB3F01F009800002013
S31508002EE0F0B585B004000F000DF10201DFF8FC0A09
S31508002EF000F0C4FF0600002E00F09A803500032279
S31508002F00DFF8EC1A01A802F0A9FD0222DFF8401644
S31508002F1000A802F0A3FD68203070761CBDF80000FA
S31508002F20062148430930800050F003003080B61C63
S31508002F30BDF80000062148430930800050F0030020
S31508002F403080B61C68203070761C88203070761C5D
S31508002F50DFF8940A00783070761CDFF88C0A40781F
S31508002F603070761CDFF8800A80783070761CDFF8BF
S31508002F70780AC0783070761CDFF86C0A00793070F1
S31508002F80761C0A203070761C57F060003070761C6C
S31508002F9007203070761C00270FE0C0B202A9415CFA
S31508002FA03170761C401CC0B20628F6DB0322019855
S31508002FB0C11C01A802F052FD7F1CBDF80000BFB27B
S31508002FC0874207D206220198811D02A802F046FD13
S31508002FD00020E8E7BDF800000621484310F1090182
S31508002FE089B2A81DFDF731FA3070761C16203070AC
S31508002FF0761CE4B2002C0AD0BDF80000062148432E
S3150800300010F1110189B2280001F0CCFF09E0BDF8E2
S3150800301000000621484310F1110189B2280001F089
S3150800302024F90DF102022900DFF8C00900F049FF72
S3150800303005B0F0BD4B01002000F01F002DE9FF4F41
S315080030408BB05FF0000A5FF00008002500265FF0ED
S31508003050000B5FF000090020ADF8000000270222EF
S31508003060DFF8EC140DF10A0002F0F8FC0222DFF892
S31508003070841904A802F0F2FC0322DFF8741903A8E5
S3150800308002F0ECFCBDF80A00002800F05B820DF1A6
S315080030901A01DFF8580900F0F1FE0400002C00F0D0
S315080030A0518205940722DFF850190C9800F071FF39
S315080030B0012840F07081BDF810000A2190FBF1F05C
S315080030C0BDF810100A2291FBF2F302FB13118DF8DA
S315080030D002105FF00008ADF808009DF8020000280D
S315080030E004D0BDF80800401CADF80800002506E02D
S315080030F003220398C11C03A802F0B0FC6D1CBDF89E
S315080031000A00ADB2854280F0168206220398811D18
S3150800311009A802F0A3FC0322039810F10C0101A8E8
S3150800312002F09CFC0222039810F112010DF1120024
S3150800313002F094FC002611E0BDF800001121484376
S3150800314010F1120189B2059801F08FF8059C032247
S315080031500198C11C01A802F081FC761CBDF812007A
S31508003160B6B28642C4D207220198811D07A802F08A
S3150800317075FC0122019810F10D010DF1030002F012
S315080031806DFC0122019810F1150106A802F066FCF3
S31508003190FFB2002F40F0A880012718F10108682027
S315080031A02070641CBDF8080001280CD1BDF81090E9
S315080031B0ADF80090BDF80000112148430A308000A0
S315080031C050F0030A39E01FFA88F8B8F1010F0CD15C
S315080031D05FF00A09ADF80090BDF8000011214843D8
S315080031E00A30800050F0030A27E0BDF808001FFAED
S315080031F088F8804515D19DF80200002804D15FF0B3
S315080032000A09ADF8009003E09DF80290ADF8009029
S31508003210BDF80000112148430A30800050F0030A27
S315080032200BE05FF00A09ADF80090BDF80000112127
S3150800323048430A30800050F0030AA4F800A0A41CF2
S31508003240A4F800A0A41C68202070641C88202070A4
S31508003250641CDFF8940700782070641CDFF8880780
S3150800326040782070641CDFF8800780782070641C22
S31508003270DFF87407C0782070641CDFF86C070079E3
S315080032802070641C0A202070641CBDF80800012800
S3150800329006D19DF8380050F060002070641C1CE0D0
S315080032A01FFA88F8B8F1010F06D19DF8380050F0DA
S315080032B040002070641C10E0BDF808001FFA88F86A
S315080032C0804506D19DF8380050F020002070641C17
S315080032D003E09DF838002070641C06202070641CEA
S315080032E09DF82C002070641C00202070641C0020AF
S315080032F02070641C5FF0000B08E05FFA8BFB07A8E0
S315080033001BF800002070641C1BF1010B5FFA8BFB95
S31508003310BBF1070FF1DB5FF0000B08E05FFA8BFBF0
S3150800332009A81BF800002070641C1BF1010B5FFA4A
S315080033308BFBBBF1060FF1DB00202070641C01201B
S315080033402070641CB9F101091FFA89F9B9F1000F57
S315080033507FF4FDAE0027BDF800001121484310F1A7
S315080033600A0189B20598801DFDF76FF82070641C64
S3150800337016202070641C9DF8340000283FF4DCAE4B
S31508003380BDF800001121484310F1120189B20598D1
S3150800339001F008FEDAE6002530E003220198C11C98
S315080033A001A802F05BFB761CBDF81200B6B2864295
S315080033B023D207220198811D07A802F04FFB01229C
S315080033C0019810F10D010DF1030002F047FB0722E9
S315080033D007A90C9800F0DDFD0128DED19DF8030051
S315080033E09DF82C108842D8D10122019810F11501B8
S315080033F006A802F033FB5FF001086D1C5FFA88F837
S31508003400B8F1000F1BD1BDF80A00ADB2854216D23D
S3150800341006220398811D09A802F020FB03220398BF
S3150800342010F10C0101A802F019FB0222039810F111
S3150800343012010DF1120002F011FB0026B4E75FFA43
S3150800344088F8B8F1000F76D068202070641C6F20C9
S315080034502070641C00202070641C6F202070641C7F
S3150800346000202070641C68202070641C882020704E
S31508003470641CDFF8740500782070641CDFF86805A2
S3150800348040782070641CDFF8600580782070641C22
S31508003490DFF85405C0782070641CDFF84C05007905
S315080034A02070641C0A202070641C9DF8380050F0B7
S315080034B060002070641C06202070641C9DF82C0097
S315080034C02070641C00202070641C00202070641C7E
S315080034D0002505E0ADB207A8285C2070641C6D1CA9
S315080034E0ADB2072DF6DB002505E0ADB209A8285CCC
S315080034F02070641C6D1CADB2062DF6DB0020207012
S31508003500641C01202070641C1B210598801DFCF793
S315080035109CFF2070641C16202070641C9DF83400E3
S31508003520002804D02321059801F03CFD03E023215F
S31508003530059800F09AFE0DF11A020599DFF8AC0419
S3150800354000F0BFFC0FB0BDE8F08F0000A5F01F002B
S31508003550A3F01F00F8B504000D0000A9DFF88C04DD
S3150800356000F08CFC0700002F53D03E00682038700E
S315080035707F1C272038707F1C002038707F1C27206E
S3150800358038707F1C002038707F1C682038707F1CBC
S31508003590882038707F1CDFF85004007838707F1C4C
S315080035A0DFF84404407838707F1CDFF83C048078E4
S315080035B038707F1CDFF83004C07838707F1CDFF85D
S315080035C02804007938707F1C0A2038707F1C55F053
S315080035D0600038707F1C032038707F1C0921B01DDD
S315080035E0FCF733FF38707F1C162038707F1CE4B256
S315080035F0002C04D01121300001F0D4FC03E0112185
S31508003600300000F032FE00AA3100DFF8E00300F0D7
S3150800361058FCF1BD380100203B0100203D01002087
S315080036202DE9F04182B004000D00002700265FF066
S31508003630000800A9DFF8B40300F020FC0700002FFB
S3150800364065D03E00682038707F1C3F2038707F1C8C
S31508003650002038707F1C3F2038707F1C002038708F
S315080036607F1C682038707F1C882038707F1CDE48D5
S31508003670007838707F1CDC48407838707F1CDA4840
S31508003680807838707F1CD848C07838707F1CD64838
S31508003690007938707F1C0A2038707F1C55F060004E
S315080036A038707F1C022038707F1CD4480078387028
S315080036B07F1CD348007838707F1CD2480078387051
S315080036C07F1CD148007838707F1CB846CF480088E0
S315080036D0A8F8000018F1020847460F21B01DFCF7AC
S315080036E0B4FE38707F1C162038707F1CE4B2002C9C
S315080036F004D01721300001F055FC03E017213000F3
S3150800370000F0B3FD00AA3100B84800F0DAFBBDE8C6
S31508003710F3812DE9F04182B004000D000027002650
S315080037205FF0000800A9B14800F0A8FB0700002FC9
S3150800373051D03E00682038707F1C2B2038707F1CC3
S31508003740002038707F1C2B2038707F1C00203870B2
S315080037507F1C682038707F1C882038707F1CA24820
S31508003760007838707F1CA048407838707F1C9E48C7
S31508003770807838707F1C9C48C07838707F1C9A48BF
S31508003780007938707F1C0A2038707F1C55F060005D
S3150800379038707F1C0C2038707F1C9D480078387064
S315080037A07F1C0A21B01DFCF750FE38707F1C1620BE
S315080037B038707F1CE4B2002C04D01221300001F0CE
S315080037C0F1FB03E01221300000F04FFD00AA3100A2
S315080037D0864800F076FBBDE8F3810000044B002024
S315080037E02DE9F04182B004000D00002700265FF0A5
S315080037F0000800A97D4800F041FB0700002F51D0C2
S315080038003E00682038707F1C2B2038707F1C0020F3
S3150800381038707F1C2B2038707F1C002038707F1C66
S31508003820682038707F1C882038707F1C6E480078A6
S3150800383038707F1C6C48407838707F1C6A488078DE
S3150800384038707F1C6848C07838707F1C66480079D5
S3150800385038707F1C0A2038707F1C55F0600038705D
S315080038607F1C0D2038707F1C6A48007838707F1CD2
S315080038700A21B01DFCF7E9FD38707F1C1620387048
S315080038807F1CE4B2002C04D01221300001F08AFB20
S3150800389003E01221300000F0E8FC00AA310053488A
S315080038A000F00FFBBDE8F3812DE9F04182B004007A
S315080038B00D00002700265FF0000800A94B4800F01D
S315080038C0DDFA0700002F51D03E00682038707F1CB3
S315080038D02B2038707F1C002038707F1C2B203870F6
S315080038E07F1C002038707F1C682038707F1C882059
S315080038F038707F1C3C48007838707F1C3A484078FE
S3150800390038707F1C3848807838707F1C3648C078F5
S3150800391038707F1C3448007938707F1C0A2038704C
S315080039207F1C55F0600038707F1C0E2038707F1C95
S315080039303948007838707F1C0A21B01DFCF785FDD0
S3150800394038707F1C162038707F1CE4B2002C04D017
S315080039501221300001F026FB03E01221300000F0AE
S3150800396084FC00AA3100214800F0ABFABDE8F381D7
S3150800397000B585B002A8019003A800904FF484739F
S3150800398000220121254802F0E8FD02AA00214FF491
S31508003990FA7000F0F1FE0121214801F09FFE00288F
S315080039A0E8D14FF400411E4801F0A3FE4FF4005140
S315080039B01C4801F0A1FE4FF40071094801F099FE78
S315080039C002AA0021642000F0D7FE4FF400710448D3
S315080039D001F092FE02AA0021642000F0CDFEEAE77B
S315080039E0000C0140C14C00207C000020044C002043
S315080039F0A0F01F00B3F01F00DCB5000897000020F8
S31508003A0096000020950000209400002090000020D9
S31508003A109200002093000020C24C0020E84B0020B2
S31508003A2000080140001001402DE9F04106000F0092
S31508003A3090461C000025DFF8BC020078002803D059
S31508003A4042F6E16020802BE0002E03D145F6C350F4
S31508003A50208025E01FFA88F8B8F1000F03D146F256
S31508003A60945020801CE001F0BFFD0500DFF88802B5
S31508003A7030607760414689B216F1140003F0F9F810
S31508003A8016F1080003F016FCDFF870020088401CE7
S31508003A90DFF868120880280001F0AAFD00202080BF
S31508003AA0BDE8F0812DE9F04F89B004000D0016003D
S31508003AB01F005FF00008DDF84C908E48007800285B
S31508003AC005D046F2AE10A9F800000020C6E0002C8A
S31508003AD005D145F6C350A9F800000020BEE0002F26
S31508003AE005D146F2D520A9F800000020B6E0B6B206
S31508003AF03000002802D0B0F5004F1FD120687E495B
S31508003B00884221D1DDF848A0BAF1000F02D0002082
S31508003B10CAF8000001F068FD80464B465246390057
S31508003B2014F1140003F0AFF88346B9F80000002832
S31508003B3010D1404601F05CFD58468FE045F62560F9
S31508003B40A9F80000002089E045F6C450A9F800004D
S31508003B50002083E0300408D5404601F049FD46F2CE
S31508003B60B010A9F80000002078E065480078002821
S31508003B7008D0404601F03CFD46F66350A9F800001F
S31508003B8000206BE02B000522210000A803F02EFB85
S31508003B90404601F02DFD03F011FA01F025FD80469F
S31508003BA05848006890F83500002805D0022838D013
S31508003BB017D3032826D045E052480068D0F85CB0F1
S31508003BC050480068B0F860003880BAF1000F04D099
S31508003BD04C480068006CCAF800000020A9F80000EC
S31508003BE038E05FF0000B00203880BAF1000F04D0EF
S31508003BF044480068006CCAF8000046F2A910A9F803
S31508003C00000027E05FF0000B00203880BAF1000FB3
S31508003C1002D00020CAF8000047F2D920A9F800000F
S31508003C2018E05FF0000B00203880BAF1000F04D0CE
S31508003C3034480068006CCAF8000045F6C250A9F876
S31508003C40000007E05FF0000B0020388046F62E6083
S31508003C50A9F80000404601F0CBFC584609B0BDE87B
S31508003C60F08F2DE9FC4105000E0017009846089CC8
S31508003C70002D03D145F6C35020802AE01FFA88F8A4
S31508003C804046002815D0102813D0B0F5007F10D074
S31508003C90B0F5047F0DD0B0F5004F0AD048F21001F8
S31508003CA0884206D0B0F5024F03D048F21021884268
S31508003CB011D128681049884211D103F04CFD0194AE
S31508003CC0009043469BB23A0092B23100280000F0B9
S31508003CD01BF8BDE8F38145F625602080F9E745F62F
S31508003CE0C4502080F5E70021044A11800021018094
S31508003CF070470000C34C002051554555BA4C00206A
S31508003D00C84C00209C4C00202DE9F04F83B00400DD
S31508003D100D0016001F005FF0000A01F065FC8246E0
S31508003D2014F10800DDF83080DDF8349001890029A7
S31508003D3014D1F80601D4002300E01023CDF804902E
S31508003D40CDF800809BB2320092B2290014F114001B
S31508003D5002F0D1FF504601F04BFC25E0B90502D52B
S31508003D60B0F808B001E05FF0010B00680DE081686B
S31508003D7040680190CDF8008033009BB22A002000ED
S31508003D8003F00EFB0198BBF1010B1FFA8BFBBBF18D
S31508003D90000FECD1504601F02BFC380401D403F097
S31508003DA00DF90020A9F80000BDE8F78F2DE9F843C2
S31508003DB005000E00170098460020DDF824905849A3
S31508003DC00978002904D045F2B960A9F8000053E043
S31508003DD0002F04D145F2BB60A9F800004CE01FFA99
S31508003DE088F8B8F1020F04DA45F2BC60A9F80000B9
S31508003DF042E0089CA4B2042C04D245F2C160A9F89A
S31508003E00000039E0032000280FD0074204D045F20D
S31508003E10BB60A9F800002FE0210089B2014204D056
S31508003E2045F2C160A9F8000026E03B003A00B8F167
S31508003E300101002004E0A4B2A2181A601300401C75
S31508003E4080B289B28842F6D30020186001F0CCFB14
S31508003E5034492960AE606F60EF60A5F81480A5F854
S31508003E6012802C8230490988491C2F4A118001F09A
S31508003E70BFFB0020A9F80000BDE8F18370B5050076
S31508003E800C000020002D04D145F2BF6020800020E0
S31508003E9016E001F0A9FBA98A002906D101F0A8FBC2
S31508003EA045F2C260208000200AE0EE683168E960C9
S31508003EB0A98A491EA98201F09BFB002020803000B8
S31508003EC070BD70B505000E0014000020002D03D14A
S31508003ED045F2BF6020801BE0002E03D145F2BE608C
S31508003EE0208015E001F080FBA98A6A8A914205D3F1
S31508003EF001F07EFB45F2BA60208009E0E96831608E
S31508003F00EE60A98A491CA98201F072FB0020208074
S31508003F1070BD0021044A118000210180704700000D
S31508003F20C34C00204D454D20B64C002080B50A00F4
S31508003F30002100F001F801BD30B4002A27D000287E
S31508003F4025D00023002403E01B02C9B20B43641CDE
S31508003F50042CF9D30425B0FBF5F404FB1504E4B2EC
S31508003F60002C08D003E00170401C521E641C002A75
S31508003F7001D0042CF7D302E00360001D121F042AA7
S31508003F80FAD202E00170401C521E002AFAD130BC57
S31508003F90704770B41300002B01D1012052E00028AD
S31508003FA001D100204EE0002901D100204AE001227B
S31508003FB0181859180425B0FBF5F404FB1504E4B2E7
S31508003FC00426B1FBF6F505FB1615EDB2AC4201D198
S31508003FD0012500E00025EDB2012D2CD1002C10D0D2
S31508003FE008E0401E491E05780E78B54200D000222A
S31508003FF05B1E641ED2B2012A03D1002B01D0002C0D
S31508004000EFD1D2B2012A16D107E0001F091F0468B2
S315080040100D68AC4200D000221B1FD2B2012A01D182
S31508004020042BF2D207E0401E491E04780D78AC42F4
S3150800403000D000225B1ED2B2012A01D1002BF2D198
S315080040401000C0B270BC704780B52021DFF8C003ED
S3150800405003F02BFC00281CD0DFF8B40303F021FC86
S31508004060DFF8B0130968002913D0DFF8AC13096824
S31508004070DFF8A0231268891AFF290ADADFF89813ED
S3150800408009680870DFF890030068401CDFF8881399
S3150800409008604021DFF8780303F007FC002810D0F9
S315080040A040F22661DFF8680303F00CFC00AA002141
S315080040B0DFF8680300F0B5FABDF80000002800D064
S315080040C000BF01BD1CB52021DFF8540303F0EDFB4A
S315080040D0002815D0D24803F0E4FB040001A9D14812
S315080040E0FFF7CCFE01000C7001A800900023012206
S315080040F0CD48FFF7B6FDBDF80400002800D000BF84
S315080041004021C74803F0D1FB00280ED040F22661B3
S31508004110C34803F0D7FB01AA0021C44800F081FA7E
S31508004120BDF80400002800D000BF13BD1CB520212F
S31508004130BF4803F0BAFB002815D0BD4803F0B1FB11
S31508004140040001A9B748FFF799FE01000C7001A801
S31508004150009000230122B448FFF783FDBDF8040050
S31508004160002800D000BF4021B14803F09EFB00287C
S315080041700ED040F22661AE4803F0A4FB01AA002146
S31508004180AC4800F04EFABDF80400002800D000BF85
S3150800419013BD70B584B004000D00A7480078AA289E
S315080041A02BD1012240F22661A14803F04DFB0026DF
S315080041B012E00020ADF8040001A8009002AB00222E
S315080041C04FF4FA719B4800F072F9B6B2315D89B2C4
S315080041D0974803F062FB761CB6B2ADB2AE42E8D39E
S315080041E0002240F22661924803F02EFB40219048B7
S315080041F003F05BFB002835D1F8E74FF480718F4850
S3150800420001F077FA012240F22661854803F01CFB8B
S31508004210002612E00020ADF8040001A8009002ABC9
S3150800422000224FF4FA71814800F041F9B6B2315DC7
S3150800423089B27B4803F031FB761CB6B2ADB2AE420A
S31508004240E8D3002240F22661754803F0FDFA4021C2
S31508004250734803F02AFB0028F9D04FF48071774899
S3150800426001F04AFA012004B070BD70B584B00400AC
S315080042700D004FF48071714801F03BFA012240F2BB
S315080042802661674803F0E0FA002612E00020ADF840
S31508004290040001A8009002AB00224FF4FA716348AB
S315080042A000F005F9B6B2315D89B25D4803F0F5FA5A
S315080042B0761CB6B2ADB2AE42E8D3002240F2266111
S315080042C0574803F0C1FA4021554803F0EEFA002892
S315080042D0F9D04FF48071594801F00EFA012004B064
S315080042E070BD70B584B004000D00012240F226614D
S315080042F0474803F0A9FA002606E0B6B2315D89B24E
S31508004300434803F0CAFA761CB6B2ADB2AE420DD235
S3150800431001A8009002AB00223221404800F0C7F8FD
S31508004320BDF804000028E8D0002006E0002240F28C
S315080043302661374803F088FA012004B070BD10B52D
S3150800434084B00400012240F22661314803F07CFA69
S3150800435040F226612E4803F0B5FA05E0217889B2C5
S315080043602B4803F09AFA641C207800280DD001A87F
S31508004370009002AB00223221284800F098F8BDF8D8
S3150800438004000028EAD0002006E0002240F2266158
S315080043901F4803F059FA012004B010BD38B50400CF
S315080043A0002501F021F905001B480460194804603E
S315080043B0280001F01DF9012032BD80B50021C0B2E8
S315080043C0002809D001F010F9010001201C4A1070DC
S315080043D0080001F00DF908E001F006F901000020D7
S315080043E0174A1070080001F003F9012002BD80B5D4
S315080043F0012003F0BDFA002808D000AB00220121F5
S31508004400104802F0B0FA012003F0C4FA01BD00001A
S3150800441000480040B04C0020AC4C0020244B002043
S31508004420003801401C4C0020504A0020404B002018
S31508004430004400405C4B0020920000200008014028
S31508004440C14C0020E84B00202DE9F04105000E0084
S3150800445090461C000027DFF838020078002803D0B1
S3150800446042F6E160208020E0002D03D145F6C350D6
S3150800447020801AE001F0B8F80700DFF81802286073
S31508004480C5F814800020A8616E6015F1080002F0D6
S3150800449011FFDFF804020088401CDFF8FC110880D1
S315080044A0380001F0A5F800202080BDE8F0812DE94C
S315080044B0F04389B006000F00914698460024109DE7
S315080044C073480078002804D046F2AE1028800020F1
S315080044D07AE0002E04D145F6C3502880002073E008
S315080044E01FFA89F94846002802D0B0F5004F20D1B6
S315080044F030686849884221D1B8F1000F02D00020FF
S31508004500C8F8000001F070F80400706900281AD095
S315080045107069401E7061B8F1000F02D0B069C8F822
S3150800452000007669200001F063F80020288030003A
S315080045304AE045F625602880002045E045F6C45047
S315080045402880002040E05FEA094008D57669200007
S3150800455001F04EF846F2B0102880300034E04F489B
S315080045600078002807D0200001F042F846F663508C
S315080045702880002028E03B000622310000A802F02F
S3150800458035FE200001F034F802F018FD01F02CF891
S3150800459004004348006890F83500002805D0022832
S315080045A02BD014D303281ED033E0B8F1000F04D063
S315080045B03B480068006CC8F800000020288076692F
S315080045C0200001F015F8300009B0BDE8F083B8F115
S315080045D0000F04D032480068006CC8F8000046F2A4
S315080045E0A9102880EBE7B8F1000F02D00020C8F820
S315080045F0000047F2D9202880E1E7B8F1000F04D07F
S3150800460027480068006CC8F8000045F6C2502880A4
S31508004610D5E746F62E602880200000F0E9FF002046
S31508004620D2E770B505000E001400002D04D145F63A
S31508004630C3502080002019E0B6B23000002808D008
S31508004640B0F5007F05D0B0F5004F02D0B0F5024FA7
S315080046500DD128680F4988420ED103F07CF8020074
S315080046602300310089B2280000F01CF870BD45F619
S31508004670256020800020F9E745F6C45020800020F8
S31508004680F4E70021044A11800021018070470000E8
S31508004690C34C002053454D41BC4C0020C84C00205B
S315080046A09C4C00202DE9F04782B004000D0016004E
S315080046B01F005FF0000800F097FF804614F108001D
S315080046C00189002918D1606910F1010F07D1404608
S315080046D000F08EFF46F6C5503880002033E060694A
S315080046E0401C6061D4F81490A661404600F080FF33
S315080046F000203880484626E0A90502D5B0F808907B
S3150800470001E05FF00109D0F800A00BE0DAF8081024
S31508004710DAF804A0009600230022200002F040FEEA
S31508004720B9F101091FFA89F9B9F1000FEED1D4F8E8
S315080047301490404600F05CFF280401D402F03EFCC9
S31508004740002038804846BDE8F68710B450F8041BA8
S3150800475081B102681218001D50F8043BDC0744BFFB
S31508004760A9F10104E31852F8044B43F8044B091F56
S31508004770F9D1EBE710BC7047F8B505000E00140038
S315080047800027DFF858020078002803D047F2752082
S31508004790208040E0DFF848020078002803D046F67B
S315080047A06350208037E0B6B23000002805D00228D2
S315080047B003D004281FD008281ED1002D03D147F2A4
S315080047C07E20208027E000F00FFF07000120DFF899
S315080047D01412096881F836002300320092B22900C3
S315080047E08048006803F05CF92088002808D0380063
S315080047F000F0FEFE0FE0E6E745F6256020800AE0B9
S315080048007848006802F0B6FE380000F0F1FE02F0C3
S31508004810D5FB00202080F1BDF8B50024079D6F4E1A
S315080048203678002E03D047F275202880AFE06C4C0E
S315080048302478002C03D046F663502880A7E0069C0F
S3150800484014F00E06B6B23700002F05D0022F03D09B
S31508004850042F17D0082F16D1002B0CD192B2002A9C
S3150800486009D189B2002906D180B2002803D147F2BE
S315080048707E2028808BE04FF6E17C14EA0C0F06D1E7
S31508004880002705E0F7E745F6256028807FE0012741
S31508004890FFB2012F03D145F62560288077E0C4F3DF
S315080048A00014A4B214F00104E4B2012C1BD0B3F531
S315080048B07A7F03D347F27B20288068E092B23C2AAD
S315080048C003DB47F27A20288061E089B23C2903DBC2
S315080048D047F2792028805AE080B2642814DB47F230
S315080048E07820288053E089B242F21074A14203DB93
S315080048F047F2792028804AE080B2B0F57A7F03DB58
S3150800490047F27820288042E0374C246880B24FF47A
S31508004910616789B25FF03C0C0CFB01F107FB0010E4
S3150800492092B210184FF4FA71B1FBF4F1C91801FBF1
S3150800493004F14FF47A72B1FBF2F104FB0017002F71
S3150800494022D000F051FE040001202649096881F8AA
S3150800495036002B00320092B239002248006803F074
S315080049609FF82888002803D0200000F041FE0EE0BA
S315080049701C48006802F0FEFD200000F039FE02F037
S315080049801DFB0020288002E047F27E202880F1BD2A
S3150800499010B582B003F0B1FA00AA0021134803F05B
S315080049A015FD0400124800780C21124A01FB00206C
S315080049B002F00EFE10480068401E0F4908600E48B7
S315080049C00068002808D10D4800680B49086000AA4D
S315080049D000210B4803F0FAFC13BD0000C34C00206D
S315080049E0C84C00209C4C00200CB6000860470020EC
S315080049F0C54C0020D83E0020984C0020944C00203E
S31508004A001448002038B50C001500FFF798FC200064
S31508004A10FFF7C4FC00AA00212800FFF7ADFEDFF867
S31508004A20240704680020FFF7B9FC200032BD02E025
S31508004A300D220270401C0278002A01D18842F7D361
S31508004A40704738B50024002500A9DFF8FC06FFF7F3
S31508004A5015FA040025004FF4807200212800FFF79C
S31508004A606BFA64222900DFF8E4064068FFF7CAFFFC
S31508004A70040021002800FFF7DAFFB7A1280000F09C
S31508004A8035FC002807D000AA2900DFF8BC06FFF786
S31508004A9018FA012006E000AA2900DFF8AC06FFF79D
S31508004AA010FA002032BD70B584B00025002602A990
S31508004AB0DFF89406FFF7E2F905002E00002400E06F
S31508004AC0641CE4B2642C2DDAE4B2002C09D002A8E6
S31508004AD0019000200090C823002200210020FFF743
S31508004AE09BFE4FF4807200213000FFF725FA6422FE
S31508004AF03100DFF858068068FFF784FF05002900B3
S31508004B003000FFF794FFDFF84816300000F0EEFBA0
S31508004B100028D5D002AA3100DFF82C06FFF7D1F914
S31508004B20012006E002AA3100DFF81C06FFF7C9F9E2
S31508004B30002004B070BD2DE9FE4F002500275FF068
S31508004B4000085FF000095FF0000A5FF0000B002420
S31508004B5002A9DFF8F405FFF791F983465C460026BB
S31508004B6001E00025761CF6B2642E53DAF6B2002E62
S31508004B7009D002A8019000200090C8230022002135
S31508004B800020FFF749FE4FF4807200212000FFF74E
S31508004B90D3F964222100DFF8B405C068FFF732FFB5
S31508004BA0834659462000FFF742FFB8A1200000F0CF
S31508004BB09DFB0028D5D03A224FF48071200000F0E2
S31508004BC06DFB871C380003F035FD80462C224FF418
S31508004BD08071200000F062FB10F10109484603F0DD
S31508004BE029FD82465FFA88F8B8F1060F10DB5FFAEE
S31508004BF08AFABAF1630F0BD06D1CEDB2072DB1DB43
S31508004C0002AA2100DFF84005FFF75BF9012008E05A
S31508004C100025A7E702AA2100DFF82C05FFF751F9BE
S31508004C200020BDE8FE8F70B584B00025002602A9D5
S31508004C30DFF81405FFF722F905002E00002400E02E
S31508004C40641CE4B2642C34DAE4B2002C09D002A85D
S31508004C50019000200090C823002200210020FFF7C1
S31508004C60DBFD4FF4807200213000FFF765F96422FE
S31508004C703100DFF8D8040069FFF7C4FE05002900F3
S31508004C803000FFF7D4FEDFF8CC14300000F02EFB1E
S31508004C90002806D1DFF8C014300000F027FB0028F2
S31508004CA0CED002AA3100DFF8A004FFF70AF90120E6
S31508004CB006E002AA3100DFF89004FFF702F90020A7
S31508004CC004B070BD70B584B00025002602A9DFF8CF
S31508004CD07804FFF7D3F805002E00002400E0641CD2
S31508004CE0E4B2642C2DDAE4B2002C09D002A80190B3
S31508004CF000200090C823002200210020FFF78CFD29
S31508004D004FF4807200213000FFF716F96422310053
S31508004D10DFF838044069FFF775FE05002900300002
S31508004D20FFF785FEDFF83414300000F0DFFA0028BC
S31508004D30D5D002AA3100DFF81004FFF7C2F8012027
S31508004D4006E002AA3100DFF80004FFF7BAF80020EF
S31508004D5004B070BD000000004F4B000038B50024B9
S31508004D60002500A9DFF8E003FFF788F8040025000E
S31508004D704FF4807200212800FFF7DEF8642229002C
S31508004D80DFF8C8038069FFF73DFE0400210028000C
S31508004D90FFF74DFE99A1280000F0A8FA002807D0D1
S31508004DA000AA2900DFF8A003FFF78BF8012006E028
S31508004DB000AA2900DFF89003FFF783F8002032BD28
S31508004DC038B50024002500A9DFF87C03FFF756F85C
S31508004DD0040025004FF4807200212800FFF7ACF884
S31508004DE064222900DFF86403C069FFF70BFE04009C
S31508004DF021002800FFF71BFE80A1280000F076FAA4
S31508004E00002806D000AA2900CF48FFF75AF8012043
S31508004E1005E000AA2900CC48FFF753F8002032BD68
S31508004E2070B582B00025002600A9C748FFF726F806
S31508004E3005002E00002400E0641CE4B2642C1EDA8F
S31508004E404FF4807200213000FFF776F84FF4FA62CB
S31508004E503100BE48006AFFF7D5FD0500290030007D
S31508004E60FFF7E5FD65A1300000F040FA0028E3D021
S31508004E7000AA3100B448FFF724F8012005E000AA8B
S31508004E803100B148FFF71DF8002076BD43535100A5
S31508004E9070B584B00025002602A9AB48FEF7EEFFE0
S31508004EA005002E00002400E0641CE4B2642C2ADA13
S31508004EB0E4B2002C09D002A8019000200090C82373
S31508004EC0002200210020FFF7A7FC4FF48072002182
S31508004ED03000FFF731F8642231009C48406AFFF73A
S31508004EE091FD050029003000FFF7A1FD92A13000D1
S31508004EF000F0FCF90028D7D002AA31009248FEF744
S31508004F00E0FF012005E002AA31008F48FEF7D9FF2D
S31508004F10002004B070BD38B50024002500A98A48D1
S31508004F20FEF7ACFF040025004FF48072002128002C
S31508004F30FFF702F88548806AFFF701FA8848007883
S31508004F40FF2803D18748FFF7FAF902E08648FFF7FA
S31508004F50F6F98648FFF7F3F92000FFF71FFA00AACB
S31508004F60002140F6B830FFF707FC764804680020B1
S31508004F70FFF714FA21002800FFF759FD7C4928009D
S31508004F8000F0B4F9002806D000AA29006E48FEF7FA
S31508004F9098FF012005E000AA29006B48FEF791FF5B
S31508004FA0002032BD30B585B004000D00ADB22A0030
S31508004FB062A103A801F084FA6448C06AFFF7BFF942
S31508004FC003A8FFF7BCF95EA0FFF7B9F901A800909E
S31508004FD002AB00224FF47A716648FFF768FABDF80B
S31508004FE00400002801D0002005E0290089B220002D
S31508004FF0FFF777F9012005B030BD00004F4B0000E0
S3150800500080B5FFF71EFD002801D1002039E0FFF723
S315080050104AFD002801D1002033E0FFF78CFD002867
S3150800502001D100202DE0FFF7FEFD002801D1002068
S3150800503027E0FFF747FE002801D1002021E0FFF70F
S315080050408DFE002801D100201BE0FFF7B9FE0028DD
S3150800505001D1002015E0FFF7E3FE002801D100206A
S315080050600FE0FFF715FF002801D1002009E0FFF740
S3150800507052FF002801D1002003E001203E490870B4
S31508005080012002BD10B584B00024C0B2002836D075
S3150800509002213A4800F02DFB1021384800F02CFB7D
S315080050A002A8019000200090C823012200210020B8
S315080050B0FFF7B2FB1021314800F01BFB02A8019054
S315080050C0002000900023032200210020FFF7A4FB04
S315080050D00AE002A801900020009064230022002123
S315080050E00020FFF799FB641CE4B2FA2C05DAFFF7F7
S315080050F0A8FC0128EDD1012010E000200EE00221D5
S315080051001E4800F0F9FA02A801900020009000233A
S31508005110032200210020FFF77FFB012004B010BD09
S3150800512038B50400002500F05FFA0500124804703F
S31508005130280000F05DFA31BD2E000000256400004D
S315080051400D000000AC4C0020044C0020000000209C
S31508005150B4B50008E8B40008F4B4000800B50008BF
S315080051609300002004B400085000002074000020BA
S315080051700CB50008B04B0020C04C002000080140C8
S31508005180002201E0401C521C002804D00378002BA2
S3150800519001D08A42F6D31000704780B55FF0FF321F
S315080051A000F001F802BD30B4002801D1002029E042
S315080051B0002901D1002025E0002A23D0030000E0C1
S315080051C05B1C002B02D01C78002CF9D1002B01D1D6
S315080051D0002017E0002404E00D781D705B1C491CB4
S315080051E0641C002B06D0002904D00D78002D01D0B0
S315080051F09442F1D3002B01D0002901D1002001E00F
S315080052000021197030BC7047F0B4002A01D1002083
S3150800521042E0002807D1002901D100203CE00878A7
S31508005220404200B238E0002902D1007800B233E0EB
S3150800523003000C005B1C641C002504E0401C491C90
S315080052405B1C641C6D1C06780F78BE4208D1067874
S31508005250002E05D0002B03D0002C01D09542EDD3AB
S31508005260954201D1002017E002780D78AA4203D0B2
S3150800527000780978401A0EE00078002801D100204D
S3150800528009E0002B06D1002C01D1002003E020788C
S31508005290404200E0187800B2F0BC704710B400280D
S315080052A001D1002020E0002901D100201CE00023C4
S315080052B001E0401C5B1C002808D00478002C05D0AF
S315080052C00478D2B2944201D08B42F2D3002801D19D
S315080052D0002009E08B4201D3002005E00178D2B214
S315080052E0914201D00020FFE710BC704780B55FF0FF
S315080052F0FF3200F001F802BD2DE9F84304000D0065
S315080053001100002C01D1002047E0002D01D100201A
S3150800531043E0002901D100203FE011F1010F01D03F
S315080053204E1C01E05FF0FF362000FFF729FF07005B
S3150800533031002800FFF724FF0600002E01D12000C7
S315080053402BE0B74201D2002027E03819002801D106
S31508005350002022E07019002801D100201DE0BF1BA3
S315080053605FF00008002118EB0409320029004846BE
S31508005370FFF74AFF00B2002801D1012100E0002111
S3150800538018F10108C9B2002901D14745EBD200B28C
S31508005390002801D0002000E04846BDE8F28350F816
S315080053A0041B61B150F8042BD30744BFA9F10103CC
S315080053B09A18002342F8043B091FFAD1EFE7704711
S315080053C0002800D17047002900D17047002A00D173
S315080053D070472DE9F81F00F0030301F00304A34208
S315080053E011D1C3F1040303F00303012B1DD3012AD2
S315080053F000D2F2E011F8014B00F8014BA3F10103CA
S31508005400A2F10102F1E700F0010301F00104A34251
S3150800541000D094E0012B44D311F8014B00F8014B5E
S31508005420A3F10103A2F10102F4E7B2F5B47F26D392
S31508005430B1E8F81FA0E8F81FB1E8F81FA0E8F81FC0
S31508005440B1E8F81FA0E8F81FB1E8F81FA0E8F81FB0
S31508005450B1E8F81FA0E8F81FB1E8F81FA0E8F81FA0
S31508005460B1E8F81FA0E8F81FB1E8F81FA0E8F81F90
S31508005470B1E8F81FA0E8F81FA2F5B472D5E7282A04
S3150800548006D3B1E8F81FA0E8F81FA2F12802F6E74C
S31508005490042A06D351F8043B40F8043BA2F104025F
S315080054A0F6E7202A42D331F8023B20F8023B31F8CE
S315080054B0023B20F8023B31F8023B20F8023B31F868
S315080054C0023B20F8023B31F8023B20F8023B31F858
S315080054D0023B20F8023B31F8023B20F8023B31F848
S315080054E0023B20F8023B31F8023B20F8023B31F838
S315080054F0023B20F8023B31F8023B20F8023B31F828
S31508005500023B20F8023B31F8023B20F8023B31F817
