S00C0000546573742E7372656378
S3150800000020450020A1AF000813AE000815AE000871
S3150800001017AE000819AE00081BAE00080000000065
S315080000200000000000000000000000001DAE0008EF
S315080000301FAE000800000000AB93000821AE0008C0
S31508000040BDB10008C1B10008C5B10008C9B10008B2
S31508000050CDB10008D1B1000841AE0008D5B10008FD
S31508000060D9B10008DDB10008E1B10008E5B1000822
S31508000070E9B10008EDB10008F1B10008F5B10008D2
S31508000080F9B10008FDB1000801B2000805B2000880
S3150800009009B200080DB2000811B2000815B200082E
S315080000A019B200081DB2000821B2000825B20008DE
S315080000B029B200082DB2000831B2000835B200088E
S315080000C039B200083DB2000841B2000845B200083E
S315080000D049B2000829AE000831AE000839AE00085A
S315080000E04DB2000851B2000855B20008F0B585B007
S315080000F0002619E0FFB2682F16D1DFF89C0A0068BF
S31508000100411CDFF8942A1160077000260120DFF8E9
S31508000110801D087002A9DFF8840A03F027FBBDF8E2
S315080001200800002800D000BFDFF86C0A0068002825
S315080001301AD102A9DFF8680A03F0C0FDDFF8581AD9
S315080001400860DFF8540A0068DFF8581A08604FF4A8
S3150800015080720021DFF84C0A006803F00DFEBDF836
S315080001600800002800D000BF02A8019003A800904C
S315080001700DF10A0300220021DFF82C0A03F0C2FE63
S3150800018001000F7802AADFF8240A03F0BAFDDFF8A7
S31508000190200A0078002862D0DFF8F40C00780028DE
S315080001A0A8D0DFF8F4090068411CDFF8EC291160D3
S315080001B00770DFF8E4090068DFF8E8190968401AEB
S315080001C00B2805D1DFF8DC090068807A10F10D06E6
S315080001D0F6B2002EA8D0DFF8C0090068DFF8C41907
S315080001E00968401AF6B2B0429EDBDFF8AC0900682F
S315080001F010F8010C162897D1DFF89C090768F6B2A3
S31508000200B11E89B2DFF89C09006800F02AF917F8D0
S31508000210021CC0B2814287D100BF02AB0022002176
S31508000220DFF8780903F0F7FA02A800900023F6B27F
S31508000230320092B2DFF86C090168DFF8580C03F057
S3150800024040FF0020DFF85C1908600020DFF8481935
S3150800025008600020DFF8381C0870002664E7DFF81D
S31508000260300C007800281ED1FFB2682F7FF45CAFEF
S31508000270DFF824090068411CDFF81C2911600770A3
S315080002800026012400250120DFF8041C087002A9B5
S31508000290DFF8080903F06AFABDF8080000283FF4F9
S315080002A043AF00BF40E7DFF8F0080068411CDFF8FD
S315080002B0E82811600770EDB2002D39D1641CE4B24C
S315080002C0062C7FF431AFDFF8DC080068407968282F
S315080002D020D1DFF8D0080068B0F80100DFF8C418AC
S315080002E00968B1F8031080B289B2884204D10125A1
S315080002F080B28608083617E70020DFF8941B0870D6
S31508000300002600240025DFF89C080068DFF8881816
S31508000310086009E70020DFF8781B0870002600242B
S315080003200025DFF880080068DFF86C180860FBE62F
S31508000330F6B2002E3FF4F8AEDFF85C080068DFF886
S3150800034064180968401AF6B2B042FFF6EDAEDFF857
S315080003504808006810F8010C162869D1DFF8380833
S315080003600468F6B2B6F1080189B2DFF83808006801
S31508000370801D00F076F814F8021CC0B2814249D1FB
S3150800038000BF02AB00220021DFF8100803F043FA91
S31508000390DFF810080068007B032806D0042817D069
S315080003A00A2802D00B2813D024E00020DFF8E8172B
S315080003B00968087002A800900023F6B2320092B2CB
S315080003C0DFF8E0070168DFF8AC0C03F07AFE11E00D
S315080003D00020DFF8C4170968087002A800900023F7
S315080003E0F6B2320092B2DFF8BC070168DFF8880C73
S315080003F003F067FE0020DFF8AC1708600020DFF87E
S31508000400981708600020DFF8881A0870002600246C
S31508000410002589E6DFF88C070068DFF87C17086096
S315080004200020DFF86C1A08700026002400257BE6F9
S31508000430DFF870070068DFF8601708600020DFF84B
S31508000440501A08700026002400256DE6DFF85407C8
S315080004500068DFF8441708600020DFF8341A0870CF
S31508000460704710B40022002303E09BB21C5CA2185C
S315080004705B1C9BB289B28B42F7D31000C0B210BC8A
S315080004807047000030B583B0002000210022002408
S3150800049000250FE02C004FF480720021280003F09D
S315080004A06BFC280004F05CF801AA0021DFF8CC0BED
S315080004B004F099F9DFF8C80B0078012840F0D280DB
S315080004C0002C14D101A9DFF8D80603F0F7FB0400C5
S315080004D025004FF480720021280003F04DFCBDF87A
S315080004E00400002800D000BF280004F039F8DFF81F
S315080004F0940B0068DFF8901B0968401A0128C0F2BF
S31508000500AB8001AA0021042004F018FADFF8740B66
S3150800051004682100280004F06CFB60A1280005F09F
S31508000520CDF80028B6D1DFF8641B280005F0C6F818
S3150800053000280ED001A800900023621B92B2290061
S31508000540DFF84C0B03F0BDFD0024002004F008F88A
S31508000550B0E7DFF8401B280005F0B0F8002810D0F7
S315080005602C004FF480720021280003F005FC2800B7
S3150800057003F0F6FF01AA0021DFF81C0B04F033F99B
S3150800058098E7DFF8181B280005F098F8002810D01F
S315080005902C004FF480720021280003F0EDFB0020A8
S315080005A004000025002003F0DBFF002004F09AFF7A
S315080005B080E7DFF8EC1A280005F080F8002810D04C
S315080005C02C004FF480720021280003F0D5FB002090
S315080005D004000025002003F0C3FF002004F082FF7A
S315080005E068E7DFF8C01A280005F068F8002810D078
S315080005F02C004FF480720021280003F0BDFB002078
S3150800060004000025002003F0ABFF002004F06AFF79
S3150800061050E7DFF8941A280005F050F8002810D0A3
S315080006202C004FF480720021280003F0A5FB00205F
S3150800063004000025002003F093FF002004F052FF79
S3150800064038E72C004FF480720021280003F094FB51
S31508000650280003F085FF2DE701AA0021042004F0F5
S315080006606DF927E7002C10D04FF48072002128007E
S3150800067003F082FB01AA2900DFF8240503F041FBF9
S3150800068000240025002003F06BFF002004F0ABFED9
S31508000690012004F0A8FE04F056FE0BE70A3E00000F
S315080006A02DE9FF41002600240020ADF80A005FF07E
S315080006B000080025002705E002AA2100DFF8E0046B
S315080006C003F01FFB02A8019003A800900DF10A038E
S315080006D000220021DFF8B80903F014FC0400B4A1D5
S315080006E0200004F0EBFF10F10108404600F092F8F4
S315080006F00700BFB2002FDFD098F80C0000280CD0F6
S31508000700022828D0032827D0042841D00A2823D035
S315080007100B283DD00C28CFD0CEE798F80D0010F066
S315080007200F05DFF888090078EDB2854206D102AADE
S315080007300021DFF87C0904F056F80BE0DFF87409AD
S315080007400078EDB2854205D102AA0021DFF86809D2
S3150800075004F049F8B0E7AFE702A9DFF8440403F06C
S31508000760ADFA0600002E12D0BFB23A00414630005C
S3150800077005F00EF80120BFB2B85502A80090002374
S315080007803A0092B23100DFF8EC0803F09AFC93E7DE
S3150800079098F80D000F2101FB00F598F80E000528C2
S315080007A008D1DFF8180905702900C9B2012002F03E
S315080007B04FFA2EE0DFF804090078EDB2A84223D0FC
S315080007C002A9DFF8DC0303F079FA0600002E08D048
S315080007D0BFB23A004146300004F0DAFF0120BFB24A
S315080007E0B855DFF8D80805702900C9B2012002F00B
S315080007F02FFA02A8009000233A0092B23100DFF8DF
S31508000800780803F05EFC04E02900C9B2012002F072
S315080008101FFA51E770B50400B4F80150B4F80300A4
S31508000820ADB280B2854214D1ADB2AD08ADB22819C9
S315080008308679290089B2A01DFFF713FE864208D1E2
S31508000840ADB22819C079162803D115F10800C0B22F
S3150800085000E0002070BD10B5002405F0ADF80400D6
S31508000860DFF8DC0D0078401CDFF8D41D0870DFF8CF
S31508000870D00D007810F00F00DFF8C41D08702000B6
S3150800088005F09EF810BD30B589B0002409E002A82D
S31508000890019000200090642300220021002004F02B
S315080008A09DF804AD682028706D1C272028706D1CE3
S315080008B0002028706D1C272028706D1C00202870C9
S315080008C06D1C682028706D1CC92028706D1CDFF807
S315080008D0740D007828706D1CDFF8680D4078287054
S315080008E06D1CDFF8600D807828706D1CDFF8540DDC
S315080008F0C07828706D1CDFF84C0D007928706D1CC7
S31508000900022028706D1CDFF8380D007850F0700052
S3150800091028706D1CDFF8280D0078DFF8901708702E
S31508000920FFF799FF032028706D1C09210DF11600A9
S31508000930FFF797FD28706D1C162028706D1CDFF8D0
S31508000940400700780028A2D0002500E06D1CDFF8DB
S3150800095030070078002818D0EDB2032D15DA0024E8
S31508000960112104A804F080FD0028EFD002A8009009
S3150800097003AB002241F28831DFF8340703F079FE31
S31508000980BDF808000028E1D10124E4B2002C0AD001
S3150800099002A80190002000900023002202210020D6
S315080009A004F01CF87DE7002004F09CFD79E70000C0
S315080009B02C68000080B5C0B200280CD0DFF8880C7F
S315080009C00078AA2803D1012000F046F80FE001209C
S315080009D000F05FF80BE0DFF8700C0078AA2803D166
S315080009E0002000F039F802E0002000F052F801BDBE
S315080009F01FB511E00120FFF7DDFFBDF80800015D16
S31508000A00200000F0D7F80020FFF7D4FF0DF10A0206
S31508000A102100634803F075F90DF10A00019003A857
S31508000A20009002AB00220021DFF84C0603F06AFAB8
S31508000A300400207B042802D00B28DBD0E6E701203F
S31508000A40FFF7B8FFBDF80800015D200000F0FEFDC5
S31508000A500020FFF7AFFFD9E7E0B5C0B2002811D0F4
S31508000A604FF40051DFF8B80D05F02BF802A80190F5
S31508000A70002000904FF4FA7301220021002003F0B1
S31508000A80ADFF05E04FF40051DFF8940D05F01CF8B2
S31508000A900EBDE0B5C0B2002810D04021DFF8840DA5
S31508000AA005F00FF802A80190002000904FF4167385
S31508000AB000220021002003F091FF04E04021DFF826
S31508000AC0640D05F001F80EBDE0B5C0B200280FD0E0
S31508000AD00421DFF8540D04F0F4FF02A80190002069
S31508000AE00090002303220021002003F077FF04E092
S31508000AF00421DFF8340D04F0E7FF0EBDE0B5C0B2FF
S31508000B0000280FD00221DFF8200D04F0DAFF02A832
S31508000B10019000200090002303220021002003F00A
S31508000B205DFF04E00221DFF8000D04F0CDFF0EBDE5
S31508000B30E0B5C0B200280FD00121DFF8EC0C04F0B4
S31508000B40C0FF02A801900020009000230322002184
S31508000B50002003F043FF04E00121DFF8CC0C04F089
S31508000B60B3FF0EBDE0B5C0B200280FD08021DFF874
S31508000B70B40C04F0A6FF02A8019000200090002300
S31508000B8003220021002003F029FF04E08021DFF87A
S31508000B90940C04F099FF0EBDEC3C0020843A00202A
S31508000BA0443C0020F03C0020B03A00205C3C002089
S31508000BB00B3D00202DE9F04389B004000D0000200C
S31508000BC00190002000900020ADF80C000020ADF840
S31508000BD00A000026002700208DF808005FF00009AB
S31508000BE05FF000080222DFF8001E03A805F074F87B
S31508000BF00322DFF8F81D01A805F06EF8BDF80C0011
S31508000C00002800F0A580012003F0B9FC0722DFF8D0
S31508000C10E01D14F1100003F0DCF8012840F09B8079
S31508000C20002633E007220098811D06A805F054F82F
S31508000C300122009810F10D0102A805F04DF82B00CD
S31508000C40DBB29DF80820009906A800F025F90322D2
S31508000C500098C11C00A805F03FF87F1CBDF80A00E3
S31508000C60BFB28742DED30622DFF8881D04A803F048
S31508000C70B0F8002803D1019904A800F0BFFE0322AA
S31508000C800198C11C01A805F027F8761CBDF80C00D0
S31508000C90B6B2864253D206220198811D04A805F0F1
S31508000CA01BF80322019810F10C0100A805F014F8AE
S31508000CB00222019810F112010DF10A0005F00CF854
S31508000CC00622DFF8301D04A803F083F8002834D183
S31508000CD0019904A800F0AAFD00282ED10DF10E01F5
S31508000CE0DFF8140D02F0EAFF8046002718E04FF4FB
S31508000CF080720099404604F0EFFF98F8160050F00D
S31508000D00800088F816004FF480720099404604F077
S31508000D10B2FF03220098C11C00A804F0DDFF7F1C67
S31508000D20BDF80A00BFB28742E1D30DF10E02414673
S31508000D30DFF8C40C02F0E5FFA7E700278EE72A00D4
S31508000D40D2B20021012000F0BBF9002003F017FC05
S31508000D5009B0BDE8F083002622E02B00DBB29DF83F
S31508000D600820009906A800F097F82A00D2B2009940
S31508000D70002000F0A5F90622DFF8781C04A803F085
S31508000D8028F8002803D1019904A800F037FE5FF07F
S31508000D90010903220198C11C01A804F09DFF761CD5
S31508000DA05FFA89F9B9F1000FCFD1BDF80C00B6B2D8
S31508000DB08642CAD206220198811D04A804F08CFF37
S31508000DC00322019810F10C0100A804F085FF022205
S31508000DD0019810F112010DF10A0004F07DFF0027B9
S31508000DE006E003220098C11C00A804F075FF7F1CCA
S31508000DF0BDF80A00BFB28742CBD207220098811DF0
S31508000E0006A804F069FF0122009810F10D0102A856
S31508000E1004F062FF072206A914F1100002F0D9FFB8
S31508000E200128DED19DF80800E17B8842D9D1062247
S31508000E30DFF8C01B04A802F0CCFF00288DD1019969
S31508000E4004A800F0F3FC002887D10DF10E01DFF8A5
S31508000E50A80B02F033FF80464FF480720099404693
S31508000E6004F03AFF98F8160050F0800088F816004B
S31508000E704FF480720099404604F0FDFE0DF10E0213
S31508000E804146DFF8740B02F03CFF5FF0010980E78A
S31508000E90183D0020F83A00202DE9F0478CB00400F0
S31508000EA00D00002600200021ADF80C1000275FF089
S31508000EB0000800218DF808105FF000095FF0000AAD
S31508000EC007A98A4668218AF800101AF1010A8AF8E1
S31508000ED000201AF1010A00210E0006E0F6B2305D84
S31508000EE08AF800001AF1010A761CF6B2072EF5DB1D
S31508000EF001208AF800001AF1010A03208AF8000086
S31508000F001AF1010A1F208AF800001AF1010A902036
S31508000F108AF800001AF1010A01208AF800001AF17D
S31508000F20010A0E2107A8FFF79CFA8AF800001AF1B1
S31508000F30010A16208AF800001AF1010A002604E0C0
S31508000F40FE20F6B204A97054761CF6B2042EF7DB1E
S31508000F50002617E0C0B2C119897BC0B204AA815421
S31508000F60C0B2C119C97CC0B205AA8154401CC0B21E
S31508000F700428EFDB0DF10A023900DFF87C0A02F0DB
S31508000F80C0FE761C5FFA88F8B8F1000F30D1F6B2C9
S31508000F90032E2DDA042104A803F0DDF9102107A891
S31508000FA003F0D9F90DF10A00019006A8009003ABE9
S31508000FB000224FF49661DFF8780D02F0A3FF0700D0
S31508000FC0BDF80A00002805D0F6B2022E01D15FF05E
S31508000FD00008D6E70722B91C200002F0FAFE01280D
S31508000FE0C8D15FF00108F87F8DF808000020BEE739
S31508000FF00DF10A01DFF8000A02F060FE81464FF49F
S3150800100080722900484604F067FE5FFA88F8B8F14E
S31508001010000F0CD199F8160050F0400089F8160018
S315080010204FF480722900484604F025FE17E0012295
S3150800103002A919F1160004F0ABFB042204A919F160
S315080010400E0004F0A5FB042205A919F1180004F006
S315080010509FFB4FF480722900484604F00CFE0DF100
S315080010600A024946DFF8900902F04BFE0CB0BDE8CB
S31508001070F08700001C3B0020D43A0020F03B0020FB
S315080010800A3D0020F43C0020F83C002058B0000837
S31508001090403B002064B000080C3C00202CB100083E
S315080010A034B100083CB1000844B10008143D0020E2
S315080010B0B83B0020153D0020D43B0020173D0020FA
S315080010C02DE9F54F8DB00025002006905FF0000948
S315080010D00020ADF81C000020ADF814000020ADF883
S315080010E016000020ADF8000000208DF8080000204A
S315080010F0ADF80A0000270020089000200390002081
S315080011008DF8070000208DF8060000240020ADF8B1
S3150800111012005FF0000A5FF000080020ADF8040036
S3150800112000265FF0000B00208DF80000039104A94B
S31508001130DFF8C40802F0C2FD0500002D00F0C680E5
S3150800114006959DF83400002840F0C88007220398C9
S31508001150811D0BA804F0C0FD0122039810F10D01B2
S315080011600DF1070004F0B8FD0422039810F10E01F2
S3150800117009A804F0B1FD0122039810F116010DF13A
S31508001180060004F0A9FD682028706D1CA946732086
S31508001190A9F8000019F102097320A9F8000019F14D
S315080011A002094D46682028706D1C882028706D1C21
S315080011B0DFF89004007828706D1CDFF88804407802
S315080011C028706D1CDFF87C04807828706D1CDFF8A9
S315080011D07404C07828706D1CDFF8680400792870DC
S315080011E06D1C0B2028706D1CDFF85404007850F035
S315080011F0600028706D1C042028706D1CDFF8400400
S315080012000078DFF8381D0870FFF725FB00202870E6
S315080012106D1C002028706D1C002028706D1C002095
S3150800122028706D1C9DF8070028706D1C002405E0C9
S31508001230A4B20BA8205C28706D1C641CA4B2072CF1
S31508001240F6DB012028706D1C002405E0A4B209A86D
S31508001250205C28706D1C641CA4B2042CF6DB9DF877
S31508001260060028706D1C002028706D1C1C2106982D
S31508001270801DFFF7F6F828706D1C162028706D1C67
S315080012809DF83800002824D05FF0000A01E01AF122
S31508001290010A5FFA8AFABAF1030F11DA24210698CD
S315080012A004F0E2F804A800900AAB002241F2883163
S315080012B0DFF8900C03F0DDF9BDF810000028E6D140
S315080012C004AA0699DFF8300702F01BFD0FB0BDE847
S315080012D0F08F2421069803F0AAF8F1E70222DFF836
S315080012E008170DF1160004F0F7FC0222DFF8581C67
S315080012F005A804F0F1FC0322DFF8F01608A804F0AC
S31508001300EBFCBDF814000A2190FBF1F0ADF80000E3
S31508001310BDF814000A2190FBF1F201FB12008DF8CA
S3150800132008000027BDF80000ADF80A009DF808007F
S31508001330002804D0BDF80A00401CADF80A000024B5
S3150800134006E003220898C11C08A804F0C5FC641C22
S31508001350BDF81600A4B28442B2D20322089810F14E
S315080013600C0103A804F0B8FC0222089810F1120137
S3150800137007A804F0B1FC0020ADF8120015E0BDF88E
S3150800138004000E21484310F1160189B2069803F0AD
S315080013904EF8069D03220398C11C03A804F09CFC82
S315080013A0BDF81200401CADF81200BDF81200BDF8D9
S315080013B01C108842C5D207220398811D0BA804F089
S315080013C08BFC0122039810F10D010DF1070004F0C2
S315080013D083FC0422039810F10E0109A804F07CFC92
S315080013E00122039810F116010DF1060004F074FCB1
S315080013F0F6B2002E40F0B58001267F1CBDF80A0023
S3150800140001280CD1BDF81480ADF80480BDF804009D
S315080014100E2148430E30800050F0030B36E0BFB271
S31508001420012F0CD15FF00A08ADF80480BDF804005E
S315080014300E2148430E30800050F0030B26E0BDF81D
S315080014400A00BFB2874215D19DF80800002804D1CA
S315080014505FF00A08ADF8048003E09DF80880ADF84F
S315080014600480BDF804000E2148430E30800050F079
S31508001470030B0BE05FF00A08ADF80480BDF8040022
S315080014800E2148430E30800050F0030B6820287068
S315080014906D1CA946A9F800B019F10209A9F800B00F
S315080014A019F102094D46682028706D1C882028709D
S315080014B06D1C6448007828706D1C62484078287056
S315080014C06D1C6048807828706D1C5E48C07828704E
S315080014D06D1C5C48007928706D1C0B2028706D1CEB
S315080014E0BDF80A00012806D15548007850F070006A
S315080014F028706D1C1BE0BFB2012F06D1504800783A
S3150800150050F0500028706D1C11E0BDF80A00BFB2FB
S31508001510874206D14A48007850F0300028706D1C82
S3150800152005E04748007850F0100028706D1C4448C4
S315080015300078DFF8081A0870FFF78DF9042028707C
S315080015406D1CA946BDF80A00A9F8000019F10209A0
S31508001550A9F8007019F102094D469DF80700287090
S315080015606D1C5FF0000A08E05FFA8AFA0BA81AF801
S31508001570000028706D1C1AF1010A5FFA8AFABAF19E
S31508001580070FF1DB012028706D1C5FF0000A08E0E8
S315080015905FFA8AFA09A81AF8000028706D1C1AF171
S315080015A0010A5FFA8AFABAF1040FF1DB9DF8060020
S315080015B028706D1C002028706D1CB8F101081FFAF0
S315080015C088F8B8F1000F7FF4E5AE0026BDF80400F0
S315080015D00E21484310F10E0189B20698801DFEF7C8
S315080015E040FF28706D1C162028706D1C9DF8380069
S315080015F000283FF4C4AE5FF0000A01E01AF1010AC0
S315080016005FFA8AFABAF1030FBFF6C3AEBDF8040053
S315080016100E21484310F1160189B2069803F024FFFB
S3150800162004A800900AAB002241F28831DFF81409B9
S3150800163003F01FF8BDF810000028DFD1A9E6000066
S31508001640163D0020903C0020CA0000202DE9F047F6
S315080016508AB004000D0000200390002002900020AC
S31508001660ADF806000020ADF810000026002700207F
S315080016708DF804005FF000085FF000095FF0000ACB
S315080016800222D9490DF1060004F026FB0322D749A8
S3150800169003A804F021FBBDF80600002800F0BD8071
S315080016A0012002F06CFF00261FE05FFA8AFACDF8E7
S315080016B000A02B00DBB29DF80420029908A800F0D0
S315080016C039FB0622CB4906A802F083FB002803D182
S315080016D0039906A800F092F95FF00108032203981F
S315080016E0C11C03A804F0F8FA761C5FFA88F8B8F16A
S315080016F0000F40F08F80BDF80600B6B2864280F033
S31508001700898006220398811D06A804F0E5FA0322BB
S31508001710039810F10C0102A804F0DEFA02220398DD
S3150800172010F1120104A804F0D7FA002706E00322F4
S315080017300298C11C02A804F0CFFA7F1CBDF810005D
S31508001740BFB28742CAD207220298811D08A804F0B0
S31508001750C3FA0122029810F10D0101A804F0BCFA9F
S31508001760072208A914F1100002F033FB0128DED184
S315080017709DF80400E17B8842D9D106229D4906A836
S3150800178002F027FB002826D1039906A800F04EF898
S31508001790002820D10DF11201974802F08FFA8146F0
S315080017A04FF480720299484604F096FA99F81600A2
S315080017B050F0800089F816004FF480720299484666
S315080017C004F059FA0DF1120249468B4802F099FACB
S315080017D05FF0010882E70222029810F1160105A8B7
S315080017E004F07AFA607B0F2101FB00FAA07B02283D
S315080017F03FF45BAF03287FF464AF5FFA8AFACDF84B
S3150800180000A02B00DBB29DF80420029908A800F07E
S31508001810B7F956E7002002F0B2FE0AB0BDE8F08735
S315080018200010014000080140000C01402DE9F04776
S315080018308AB004000D0000260020ADF80A00002733
S315080018405FF0000800205FF000095FF0000ADFF88B
S31508001850AC1C0978AA291AD12078012806D014D3F5
S3150800186003280BD006D304280CD00EE00120FFF77E
S315080018702BF90AE00120FFF741F906E00120FFF7FE
S3150800188057F902E00120FFF76DF90120A9E00DF1F3
S31508001890100A68208AF800001AF1010AA0208AF8BE
S315080018A000001AF1010A002606E0F6B2305D8AF851
S315080018B000001AF1010A761CF6B2062EF5DB0020A6
S315080018C08AF800001AF1010A04208AF800001AF1C1
S315080018D0010A04208AF800001AF1010A90208AF801
S315080018E000001AF1010AA0208AF800001AF1010A7C
S315080018F001208AF800001AF1010A55208AF800002A
S315080019001AF1010A0F2104A8FEF7ABFD8AF80000B8
S315080019101AF1010A16208AF800001AF1010A0026AF
S3150800192008E05FF0000802AA3900DFF8B80502F0FF
S31508001930E8F9761C5FFA88F8B8F1000F2CD1F6B2F0
S31508001940032E29DA112104A802F005FD02A8019048
S3150800195003A800900DF10A03002240F6B831DFF81B
S31508001960D00302F0CFFA0700BDF80800002805D01A
S31508001970F6B2022E01D15FF00008DAE70622B91C9A
S31508001980200002F026FA0128CDD1B87B03210842AF
S31508001990C7D15FF00108C6E75FFA88F8B8F1000F0B
S315080019A01DD102A9DFF83C0502F088F981464FF4FB
S315080019B080722900484604F08FF901226FA119F1B7
S315080019C0170003F0E5FE4FF480722900484604F03C
S315080019D052F902AA4946DFF80C0502F092F9404688
S315080019E0C0B20AB0BDE8F087A3F01F00A0F01F0040
S315080019F04CB1000854B10008443C00202DE9F041E0
S31508001A008AB005000C000026DFF8F00A0078AA283C
S31508001A101AD12878012806D014D303280BD006D368
S31508001A2004280CD00EE00020FFF74EF80AE000204C
S31508001A30FFF764F806E00020FFF77AF802E00020D6
S31508001A40FFF790F8012095E004AF682038707F1CF6
S31508001A50A02038707F1C5FF0000807E05FFA88F85E
S31508001A6018F8050038707F1C18F101085FFA88F825
S31508001A70B8F1060FF2DB002038707F1C042038709E
S31508001A807F1C042038707F1C902038707F1CA02093
S31508001A9038707F1C012038707F1C992038707F1C95
S31508001AA00F2104A8FEF7DDFC38707F1C162038705D
S31508001AB07F1C5FF0000808E0002602AA3900DFF85C
S31508001AC0240402F01EF918F10108F6B2002E2FD1EF
S31508001AD05FFA88F8B8F1030F2ADA112104A802F090
S31508001AE03AFC02A8019003A800900DF10A0300220F
S31508001AF040F6B8318E4802F005FA0700BDF808002E
S31508001B00002806D05FFA88F8B8F1020F00D100263F
S31508001B10D9E70622B91C280002F05BF90128CCD1C6
S31508001B20B87BC0B210F003000228C5D10126C4E76D
S31508001B30F6B2002E1CD102A9DFF8A80302F0BEF8FF
S31508001B4005004FF480722100280004F0C5F8012230
S31508001B500AA115F1170003F01BFE4FF4807221004D
S31508001B60280004F088F802AA2900DE4802F0C9F81D
S31508001B703000C0B20AB0BDE8F081000001000000E4
S31508001B802DE9F04F8BB004000D001E000027002041
S31508001B90ADF80A005FF000085FF0000900205FF06A
S31508001BA0000A5FF0000B05A98B4668218BF8001028
S31508001BB01BF1010B8BF800201BF1010B00210F0014
S31508001BC006E0FFB2385D8BF800001BF1010B7F1CA5
S31508001BD0FFB2072FF5DB04208BF800001BF1010B81
S31508001BE004208BF800001BF1010B17208BF800006E
S31508001BF01BF1010BA0208BF800001BF1010B012043
S31508001C008BF800001BF1010B55208BF800001BF127
S31508001C10010B0F2105A8FEF724FC8BF800001BF129
S31508001C20010B16208BF800001BF1010B002704E0BE
S31508001C30FE20FFB203A978547F1CFFB2042FF7DBFE
S31508001C40002707E05FF0000902AA4146A54802F00E
S31508001C5058F87F1C5FFA89F9B9F1000F31D1FFB244
S31508001C60032F2EDA042103A802F075FB112105A81B
S31508001C7002F071FB02A8019004A800900DF10A0376
S31508001C80002244F620612A4802F03CF98046BDF855
S31508001C900800002805D0FFB2022F01D15FF0000925
S31508001CA0D7E7072218F10201200002F092F801286E
S31508001CB0CAD198F80E0003210842C3D15FF0010982
S31508001CC0C2E702A9874801F0F9FF82464FF48072FD
S31508001CD02900504604F000F85FFA89F9B9F1000FB7
S31508001CE00CD19AF8160050F040008AF816004FF406
S31508001CF080722900504603F0BEFF10E0012290A131
S31508001D001AF1160003F044FD4FF48072290050467C
S31508001D1003F0B1FF14993000C0B200F099FF02AA8F
S31508001D205146704801F0EDFF0BB0BDE8F08F00009A
S31508001D30F83A00202DE9F04F8BB004000D001E0084
S31508001D4000270020ADF80A005FF000085FF00009E0
S31508001D5000205FF0000A5FF0000B05A98B4668219A
S31508001D608BF800101BF1010B8BF800201BF1010BFF
S31508001D7000210F0006E0FFB2385D8BF800001BF16A
S31508001D80010B7F1CFFB2072FF5DB04208BF8000040
S31508001D901BF1010B04208BF800001BF1010B172027
S31508001DA08BF800001BF1010BA0208BF800001BF13B
S31508001DB0010B01208BF800001BF1010B99208BF811
S31508001DC000001BF1010B0F2105A8FEF74AFB8BF853
S31508001DD000001BF1010B16208BF800001BF1010B0C
S31508001DE0002704E0FE20FFB203A978547F1CFFB247
S31508001DF0042FF7DB002707E05FF0000902AA414637
S31508001E00384801F07EFF7F1C5FFA89F9B9F1000FA7
S31508001E1032D1FFB2032F2FDA042103A802F09BFA6E
S31508001E20112105A802F097FA02A8019004A80090CB
S31508001E300DF10A03002244F62061DFF8200D02F0B6
S31508001E4061F88046BDF80800002805D0FFB2022FC9
S31508001E5001D15FF00009D6E7072218F10201200038
S31508001E6001F0B7FF0128C9D198F80E00C0B2800763
S31508001E70C2D55FF00109C1E702A91A4801F01EFFA1
S31508001E8082464FF480722900504603F025FF5FFA18
S31508001E9089F9B9F1000F0CD19AF8160050F04000F4
S31508001EA08AF816004FF480722900504603F0E3FEC4
S31508001EB010E0012225A11AF1160003F069FC4FF47F
S31508001EC080722900504603F0D6FE14993000C0B23D
S31508001ED000F0BEFE02AA5146024801F012FF0BB0FE
S31508001EE0BDE8F08F443C00201FB50CE0BDF80800A3
S31508001EF0015D200000F034FE0DF10A022100DFF832
S31508001F00F00D01F0FEFE0DF10A00019003A8009005
S31508001F1002AB00220021DFF8DC0D01F0F3FF04001C
S31508001F20207B032802D00A28E0D0E5E7BDF80800A0
S31508001F30015D200000F00CF8DEE70000153D0020EA
S31508001F4000000000D43B0020B3F01F000200000090
S31508001F502DE9F04186B004000D0000260020ADF8FA
S31508001F60060000200090002004905FF00008607BC7
S31508001F700F2101FB00F7A07B02280CD0032800F0F4
S31508001F80DB80062800F01981072800F04A810C2812
S31508001F9000F08681B6E1A07CDFF85C1D0870607CE5
S31508001FA0DFF8581D0870207CDFF8541D0870E07BA8
S31508001FB0DFF8501D0870B4F81300DFF84C1D0880D0
S31508001FC01121DFF8480D01F0D1FE062102A801F023
S31508001FD0CDFEA27CCDA102A804F07CF902A9DFF807
S31508001FE02C0D03F0C2FACAA1DFF8200D03F0BDFAE2
S31508001FF0062102A801F0BAFE627CC4A102A804F078
S3150800200069F902A9DFF8040D03F0AFFAC0A1DFF8F9
S31508002010FC0C03F0AAFA062102A801F0A7FE227C0E
S31508002020BAA102A804F056F902A9DFF8E00C03F0F9
S315080020309CFAB7A1DFF8D40C03F097FA062102A898
S3150800204001F094FEE27BB1A102A804F043F902A9CB
S31508002050DFF8B80C03F089FA0821DFF8B40C01F0B0
S3150800206085FE062102A801F081FEB4F81320A7A177
S3150800207002A804F02FF9A7A1DFF8940C03F075FA6B
S3150800208002A9DFF88C0C03F070FAA3A1DFF8800C24
S3150800209003F06BFA01A9DFF8580C01F00FFE0400F3
S315080020A04FF48072DFF8B01D200003F015FE1122F0
S315080020B0DFF8581C14F1500003F06AFB0822DFF819
S315080020C0501C14F1700003F063FB0122DFF8281C92
S315080020D014F16F0003F05CFB0122DFF8201C14F1F9
S315080020E06E0003F055FB0122DFF8141C14F16D0095
S315080020F003F04EFB0122DFF80C1C14F16C0003F010
S3150800210047FB0222DFF8001C14F17E0003F040FBB7
S315080021104FF48072DFF8401D200003F0ACFD01AAE1
S315080021202100DFF8CC0B01F0ECFD3900C9B228001C
S31508002130C0B200F08DFDE5E00521DFF8200D01F0C5
S3150800214015FEE07BDFF8141D0870207CDFF80C1DF7
S315080021504870607CDFF8041D8870A07CDFF8FC1CE2
S31508002160C870E07CDFF8F41C087101A9DFF8800B61
S3150800217001F0A4FD04004FF48072DFF8DC1C200097
S3150800218003F0AAFD0522DFF8D41C14F1800003F041
S31508002190FFFA4FF48072DFF8C01C200003F06BFDD5
S315080021A001AA2100DFF8480B01F0ABFD3900C9B2DE
S315080021B02800C0B200F04CFDA4E014F1190000F0AC
S315080021C0F7FA009014F11201009800F0A7F880467B
S315080021D000987FF07F41884222D0E07F00280DD109
S315080021E07FF07F40804503D04146009800F088F98B
S315080021F03900C9B22800C0B200F02AFDE07F0128E4
S315080022000ED17FF07F40804504D114F11201009869
S3150800221000F0BAF83900C9B22800C0B200F018FDBB
S3150800222070E0E07BAA2825D10222DFF8341C0DF1E4
S31508002230060003F051FD0322DFF8281C00A803F06E
S315080022404BFD00260BE003220098C11C04A803F0EE
S3150800225043FD009800F05DFB04980090761CBDF8DD
S315080022600600B6B28642EED33900C9B22800C0B21B
S3150800227000F0EEFCE07B552811D114F1100000F0B7
S3150800228097FA7FF07F41884203D114F1100000F0DD
S31508002290C1FA3900C9B22800C0B200F0D9FC31E051
S315080022A0E07BAA2802D1AA2094490870E07BFF287F
S315080022B002D1FF209149087001A9DFF8340A01F01C
S315080022C0FDFC04004FF48072DFF88C1B200003F03D
S315080022D003FD0122894914F1C00003F059FA4FF4AD
S315080022E08072DFF8741B200003F0C5FC01AA2100E8
S315080022F0DFF8FC0901F005FD3900C9B22800C0B2B3
S3150800230000F0A6FC06B0BDE8F081000025640000D8
S315080023102E0000002C0000000D00000030B585B02E
S3150800232005000C00002000900020ADF804000222F1
S3150800233015F1120101A803F0CFFC032215F10C01D7
S3150800234000A803F0C9FC002506E003220098C11C7A
S3150800235000A803F0C1FC6D1CBDF80400ADB28542AF
S315080023600ED207220098811D02A803F0B5FC0722A9
S3150800237002A9200001F02DFD0128E6D1009801E010
S315080023807FF07F4005B030BD70B586B004000D0003
S31508002390002002900020019000260020ADF80000E1
S315080023A00020ADF8020000200390022214F1120169
S315080023B000A803F091FC0222DFF8AC1A0DF1020026
S315080023C003F08AFC032214F10F0102A803F084FC2F
S315080023D0BDF80000401CADF80000BDF80200401C26
S315080023E0ADF8020003F0D5FD019007220198811D82
S315080023F0280003F012FC0122019810F10D01E81ED5
S3150800240003F00BFC0422019810F10E0103A803F057
S3150800241004FC0222019810F1160103A803F0FDFB43
S3150800242004A9DFF8CC0801F049FC060002987FF001
S315080024307F4188421ED1032214F10C0101A803F042
S31508002440ECFB032214F10F0101A803F0E6FB4FF49D
S3150800245080722100300003F03FFC022200A916F129
S31508002460120003F095F94FF480722100300003F052
S3150800247002FC24E04FF480722100300003F02CFCAB
S31508002480032201A916F10F0003F082F9022200A91E
S3150800249016F1120003F07CF94FF480722100300027
S315080024A003F0E9FB03220298C11C01A803F0B5FB5F
S315080024B00322019810F1120102A803F0AEFB4FF4B3
S315080024C08072DFF89419300003F006FC02220DF141
S315080024D0020116F1B30003F05BF94FF48072DFF8DE
S315080024E07819300003F0C7FB04AA3100DFF80008AA
S315080024F001F007FC019806B070BD0000CA00002074
S315080025007FB504000D0000200290002001900026EF
S315080025100020ADF800000020ADF80200022214F1F8
S31508002520120100A803F0D8FB0222DFF83C190DF1CE
S31508002530020003F0D1FB0322E91C02A803F0CCFB3E
S31508002540032215F1120101A803F0C6FBBDF800002D
S31508002550401EADF80000BDF80200401EADF80200AE
S31508002560280003F076FD03A9DFF8840701F0A6FB2F
S315080025700600BDF80000002833D14FF48072210010
S31508002580300003F0A9FB032202A916F10C0003F0A0
S31508002590FFF8022200A916F1120003F0F9F8032247
S315080025A001A916F10F0003F0F3F84FF48072210029
S315080025B0300003F060FB4FF48072DFF89C1830009F
S315080025C003F08AFB02220DF1020116F1B30003F0B3
S315080025D0DFF84FF48072DFF88018300003F04BFB09
S315080025E0DDE001987FF07F41884205D002987FF0B0
S315080025F07F41884240F0898001987FF07F41884278
S315080026003ED14FF480720299300003F065FB032235
S3150800261001A916F1120003F0BBF84FF48072029973
S31508002620300003F028FB4FF480722100300003F0DD
S3150800263053FB032202A916F10C0003F0A9F80222A3
S3150800264000A916F1120003F0A3F84FF480722100D6
S31508002650300003F010FB4FF48072DFF8FC173000EF
S3150800266003F03AFB02220DF1020116F1B30003F062
S315080026708FF84FF48072DFF8E017300003F0FBFAAA
S3150800268002987FF07F41884240F089804FF480723B
S315080026900199300003F020FB032202A9F01C03F085
S315080026A077F84FF480720199300003F0E4FA4FF49A
S315080026B080722100300003F00FFB032201A916F1F6
S315080026C00F0003F065F8022200A916F1120003F0C4
S315080026D05FF84FF480722100300003F0CCFA4FF413
S315080026E08072DFF87417300003F0F6FA02220DF153
S315080026F0020116F1B30003F04BF84FF48072DFF8CD
S315080027005817300003F0B7FA49E04FF48072019980
S31508002710300003F0E1FA032202A9F01C03F038F8AE
S315080027204FF480720199300003F0A5FA4FF48072D5
S315080027300299300003F0D0FA032201A916F112001B
S3150800274003F026F84FF480720299300003F093FAEA
S315080027504FF480722100300003F0BEFA022200A96D
S3150800276016F1120003F014F84FF4807221003000BD
S3150800277003F081FA4FF48072DFF8DC16300003F0BC
S31508002780ABFA02220DF1020116F1B30003F000F8CC
S315080027904FF48072DFF8C016300003F06CFA03AA13
S315080027A03100DFF84C0501F0ACFA280004B070BD22
S315080027B030B585B00400002000900222DFF8A0168C
S315080027C001A803F089FA0322DFF8981600A803F097
S315080027D083FA002506E003220098C11C00A803F02E
S315080027E07BFA6D1CBDF80400ADB285420ED20622F6
S315080027F00098811D02A803F06FFA062202A920009C
S3150800280001F0E7FA0128E6D1009801E07FF07F4061
S3150800281005B030BD30B585B0040000200290002018
S31508002820009000250020ADF804000020ADF80C004B
S315080028300222DFF82C1601A803F04EFA0322DFF86D
S31508002840E41C02A803F048FABDF80400401CADF8E1
S31508002850040003F09EFB009006220098811D2000CC
S3150800286003F0DBF90222009810F1120103A803F025
S31508002870D4F90DF10601DFF8780401F01FFA050016
S315080028804FF48072DFF8D015280003F025FA029875
S315080028907FF07F41884212D1032200A915F1A000DA
S315080028A002F076FF022201A915F1A30002F070FFDB
S315080028B0032200A915F1A50002F06AFF18E002221A
S315080028C001A915F1A30002F063FF032200A915F17F
S315080028D0A50002F05DFF03220298C11C00A803F0C0
S315080028E09CF90322009810F1140102A803F095F947
S315080028F04FF48072DFF86015280003F0BCF90DF17B
S3150800290006022900DFF8E80301F0FBF9009805B094
S3150800291030BD70B586B004000020ADF80200002076
S3150800292003900020049000200290002001900020CF
S31508002930ADF8000000250026022214F112010DF15F
S31508002940020003F0C9F9032214F10C0103A803F0ED
S31508002950C3F90322E11C02A803F0BEF9032214F10D
S31508002960140101A803F0B8F90222DFF8F41400A84C
S3150800297003F0B2F9BDF80000401EADF800000020D3
S3150800298005000CE003220398C11C04A803F0A4F96F
S3150800299003992000FFF7B4FD049803906D1CBDF859
S315080029A00200ADB28542EDD3200003F052FB05A923
S315080029B0DFF8B80401F082F90600BDF80000002827
S315080029C020D14FF48072DFF89014300003F084F9B8
S315080029D0032202A916F1A00002F0DAFE022200A9DB
S315080029E016F1A30002F0D4FE032201A916F1A500F0
S315080029F002F0CEFE4FF48072DFF85C14300003F06C
S31508002A003AF9A2E001987FF07F41884204D0029803
S31508002A107FF07F41884261D101987FF07F418842EB
S31508002A202BD14FF480720299300003F055F9032236
S31508002A3001A916F1140002F0ABFE4FF48072029958
S31508002A40300003F018F94FF48072DFF80C143000E8
S31508002A5003F042F9032202A916F1A00002F098FE3B
S31508002A60022200A916F1A30002F092FE4FF480722A
S31508002A70DFF8E413300003F0FEF802987FF07F4198
S31508002A80884262D14FF480720199300003F024F92C
S31508002A90032202A9F01C02F07BFE4FF48072019912
S31508002AA0300003F0E8F84FF48072DFF8AC1330001A
S31508002AB003F012F9022200A916F1A30002F068FE3B
S31508002AC0032201A916F1A50002F062FE4FF48072F6
S31508002AD0DFF88413300003F0CEF836E04FF4807246
S31508002AE00199300003F0F8F8032202A9F01C02F05D
S31508002AF04FFE4FF480720199300003F0BCF84FF492
S31508002B0080720299300003F0E7F8032201A916F152
S31508002B10140002F03DFE4FF480720299300003F073
S31508002B20AAF84FF48072DFF83013300003F0D4F8B7
S31508002B30022200A916F1A30002F02AFE4FF48072C1
S31508002B40DFF81413300003F096F805AA3100DFF811
S31508002B501C0301F0D6F8200006B070BDF83A002034
S31508002B6080B50A00417B0F235943837B022B08D08B
S31508002B70032B0CD0062B10D0072B17D00C2B1BD0F1
S31508002B801FE0C9B21000C0B200F054FC19E0C9B287
S31508002B901000C0B200F0F2FB13E00B00DBB2D2B2B9
S31508002BA010F11001C07B00F063F90AE0C9B2100009
S31508002BB0C0B200F0AFF804E0C9B21000C0B200F02D
S31508002BC0B3FC01BDE0B51DE04021DFF8B00A02F014
S31508002BD078FF02A80190002000900023012200211E
S31508002BE0002001F0FBFE4021DFF8900A02F06CFF9E
S31508002BF002A8019000200090002301220021002055
S31508002C0001F0ECFEDFF8780A00780028DCD04021D5
S31508002C10DFF8680A02F055FF02A80190002000902C
S31508002C204FF4967300220021002001F0D7FE4021C0
S31508002C30DFF8480A02F048FF02A801900020009039
S31508002C404FF4967300220021002001F0C7FED9E751
S31508002C5030B585B0040000AD682028706D1C2720AB
S31508002C6028706D1C002028706D1C272028706D1C8C
S31508002C70002028706D1C682028706D1C8020287024
S31508002C806D1C7648007828706D1C7448407828704A
S31508002C906D1C7248807828706D1C7048C078287042
S31508002CA06D1C6E48007928706D1C002028706D1CFC
S31508002CB051F0600028706D1C012028706D1C0921D8
S31508002CC00DF10600FDF7CDFB28706D1C1620287047
S31508002CD06D1CE4B2002C04D0112100A802F0C4FB3C
S31508002CE003E0112100A801F0A2FB05B030BD0000E9
S31508002CF0443C00201C3B0020C6000020C7000020E2
S31508002D00C8000020C9000020C40000206C00002074
S31508002D10B4000020F0B585B004000F000DF10201E3
S31508002D20524800F0CBFF0600002E00F093803500D5
S31508002D3003224C4901A802F0CFFF0222DFF8F01661
S31508002D4000A802F0C9FF68203070761CBDF80000A4
S31508002D50062148430930800050F003003080B61C35
S31508002D60BDF80000062148430930800050F00300F2
S31508002D703080B61C68203070761C88203070761C2F
S31508002D80364800783070761C344840783070761CA7
S31508002D90324880783070761C3048C0783070761C9F
S31508002DA02E4800793070761C0A203070761C57F051
S31508002DB060003070761C07203070761C00270FE004
S31508002DC0C0B202A9415C3170761C401CC0B206280C
S31508002DD0F6DB03220198C11C01A802F07DFF7F1CC7
S31508002DE0BDF80000BFB2874207D206220198811DAE
S31508002DF002A802F071FF0020E8E7BDF800000621EE
S31508002E00484310F1090189B2A81DFDF72AFB307065
S31508002E10761C16203070761CE4B2002C0AD0BDF859
S31508002E2000000621484310F1110189B2280002F07A
S31508002E301BFB09E0BDF800000621484310F111010B
S31508002E4089B2280001F0F3FA0DF1020229000748B9
S31508002E5000F057FF05B0F0BD00F01F00903C0020C1
S31508002E60A3F01F00A0F01F00B3F01F00443C002091
S31508002E702DE9FF4F8BB05FF0000A5FF000080025D0
S31508002E8000265FF0000B5FF000090020ADF8000097
S31508002E9000270222DFF898150DF10A0002F01CFF40
S31508002EA00222DFF8E41704A802F016FF0322DFF86F
S31508002EB0DC1703A802F010FFBDF80A00002800F08E
S31508002EC05A820DF11A01DFF8C80700F0F7FE040070
S31508002ED0002C00F0508205940722DFF8B8170C98EA
S31508002EE000F077FF012840F07081BDF810000A2134
S31508002EF090FBF1F0BDF810100A2291FBF2F302FBE9
S31508002F0013118DF802105FF00008ADF808009DF85F
S31508002F100200002804D0BDF80800401CADF80800DF
S31508002F20002506E003220398C11C03A802F0D4FE7C
S31508002F306D1CBDF80A00ADB2854280F016820622E5
S31508002F400398811D09A802F0C7FE0322039810F111
S31508002F500C0101A802F0C0FE0222039810F112012A
S31508002F600DF1120002F0B8FE002611E0BDF80000CF
S31508002F701121484310F1120189B2059801F057FA58
S31508002F80059C03220198C11C01A802F0A5FE761C27
S31508002F90BDF81200B6B28642C4D207220198811D36
S31508002FA007A802F099FE0122019810F10D010DF112
S31508002FB0030002F091FE0122019810F1150106A8FE
S31508002FC002F08AFEFFB2002F40F0A880012718F110
S31508002FD0010868202070641CBDF8080001280CD17F
S31508002FE0BDF81090ADF80090BDF8000011214843D7
S31508002FF00A30800050F0030A39E01FFA88F8B8F161
S31508003000010F0CD15FF00A09ADF80090BDF8000079
S31508003010112148430A30800050F0030A27E0BDF822
S3150800302008001FFA88F8804515D19DF80200002887
S3150800303004D15FF00A09ADF8009003E09DF802900C
S31508003040ADF80090BDF80000112148430A30800011
S3150800305050F0030A0BE05FF00A09ADF80090BDF8DE
S315080030600000112148430A30800050F0030AA4F8F2
S3150800307000A0A41CA4F800A0A41C68202070641C4E
S3150800308088202070641CDFF8FC0500782070641C1A
S31508003090DFF8F00540782070641CDFF8E8058078D2
S315080030A02070641CDFF8DC05C0782070641CDFF82B
S315080030B0D40500792070641C0A202070641CBDF8B1
S315080030C00800012806D19DF8380050F060002070ED
S315080030D0641C1CE01FFA88F8B8F1010F06D19DF8A8
S315080030E0380050F040002070641C10E0BDF808005D
S315080030F01FFA88F8804506D19DF8380050F0200060
S315080031002070641C03E09DF838002070641C0620BB
S315080031102070641C9DF82C002070641C0020207010
S31508003120641C00202070641C5FF0000B08E05FFA46
S315080031308BFB07A81BF800002070641C1BF1010B11
S315080031405FFA8BFBBBF1070FF1DB5FF0000B08E0C2
S315080031505FFA8BFB09A81BF800002070641C1BF1A2
S31508003160010B5FFA8BFBBBF1060FF1DB0020207029
S31508003170641C01202070641CB9F101091FFA89F941
S31508003180B9F1000F7FF4FDAE0027BDF8000011214C
S31508003190484310F10A0189B20598801DFDF761F9C7
S315080031A02070641C16202070641C9DF834000028CA
S315080031B03FF4DCAEBDF800001121484310F11201BE
S315080031C089B2059802F050F9DAE6002530E00322C4
S315080031D00198C11C01A802F07FFD761CBDF81200FB
S315080031E0B6B2864223D207220198811D07A802F0AB
S315080031F073FD0122019810F10D010DF1030002F093
S315080032006BFD072207A90C9800F0E3FD0128DED123
S315080032109DF803009DF82C108842D8D10122019808
S3150800322010F1150106A802F057FD5FF001086D1CA4
S315080032305FFA88F8B8F1000F1BD1BDF80A00ADB2E5
S31508003240854216D206220398811D09A802F044FD7C
S315080032500322039810F10C0101A802F03DFD022299
S31508003260039810F112010DF1120002F035FD002647
S31508003270B4E75FFA88F8B8F1000F76D068202070B6
S31508003280641C6F202070641C00202070641C6F2052
S315080032902070641C00202070641C68202070641C48
S315080032A088202070641CDFF8DC0300782070641C1A
S315080032B0DFF8D00340782070641CDFF8C8038078F4
S315080032C02070641CDFF8BC03C0782070641CDFF82B
S315080032D0B40300792070641C0A202070641C9DF8D1
S315080032E0380050F060002070641C06202070641CB2
S315080032F09DF82C002070641C00202070641C00209F
S315080033002070641C002505E0ADB207A8285C207073
S31508003310641C6D1CADB2072DF6DB002505E0ADB2C9
S3150800332009A8285C2070641C6D1CADB2062DF6DB5E
S3150800333000202070641C01202070641C1B21059845
S31508003340801DFDF78EF82070641C16202070641C02
S315080033509DF83400002804D02321059802F084F84B
S3150800336003E02321059801F062F80DF11A02059988
S31508003370C74800F0C6FC0FB0BDE8F08FF8B50400EA
S315080033800D0000A9C24800F099FC0700002F4DD097
S315080033903E00682038707F1C272038707F1C00206C
S315080033A038707F1C272038707F1C002038707F1CDF
S315080033B0682038707F1C882038707F1CB1480078D8
S315080033C038707F1CAF48407838707F1CAD488078CD
S315080033D038707F1CAB48C07838707F1CA9480079C4
S315080033E038707F1C0A2038707F1C55F060003870D2
S315080033F07F1C032038707F1C0921B01DFDF731F8AA
S3150800340038707F1C162038707F1CE4B2002C04D05C
S315080034101121300002F028F803E01121300001F0F4
S3150800342006F800AA31009A4800F06BFCF1BD0000CE
S31508003430A3F01F002DE9F04182B004000D0000271B
S3150800344000265FF0000800A9914800F037FC070045
S31508003450002F65D03E00682038707F1C3F203870EA
S315080034607F1C002038707F1C3F2038707F1C00208E
S3150800347038707F1C682038707F1C882038707F1C45
S315080034808048007838707F1C7E48407838707F1CEA
S315080034907C48807838707F1C7A48C07838707F1CE2
S315080034A07848007938707F1C0A2038707F1C55F0E0
S315080034B0600038707F1C022038707F1C76480078C0
S315080034C038707F1C7548007838707F1C74480078FF
S315080034D038707F1C7348007838707F1CB84672486D
S315080034E00088A8F8000018F1020847460F21B01D09
S315080034F0FCF7B7FF38707F1C162038707F1CE4B2C3
S31508003500002C04D01721300001F0AEFF03E017218C
S31508003510300000F08CFF00AA31005D4800F0F1FB96
S31508003520BDE8F381A5F01F002DE9F04182B0040043
S315080035300D00002700265FF0000800A9544800F097
S31508003540BDFB0700002F51D03E00682038707F1C55
S315080035502B2038707F1C002038707F1C2B20387079
S315080035607F1C002038707F1C682038707F1C8820DC
S3150800357038707F1C4348007838707F1C4148407873
S3150800358038707F1C3F48807838707F1C3D48C0786B
S3150800359038707F1C3B48007938707F1C0A203870C9
S315080035A07F1C55F0600038707F1C0C2038707F1C1B
S315080035B03E48007838707F1C0A21B01DFCF751FF81
S315080035C038707F1C162038707F1CE4B2002C04D09B
S315080035D01221300001F048FF03E01221300000F00C
S315080035E026FF00AA31002A4800F08BFBBDE8F381CC
S315080035F000B585B002A8019003A800904FF4847323
S31508003600002201212A4802F0B2FE02A801900020F9
S315080036100090C82300220021002001F0DFF90121D3
S31508003620244802F043FA0028E4D14FF40041214827
S3150800363002F047FA4FF400511F4802F045FA4FF4DA
S3150800364000710E4802F03DFA02A801900020009091
S31508003650642300220021002001F0C0F94FF4007114
S31508003660064802F031FA02A801900020009064236F
S3150800367000220021002001F0B1F9E0E7000C01402A
S315080036800B3D0020903C0020B3F01F00A0F01F0067
S31508003690443C00204CB10008C6000020C7000020AA
S315080036A0C8000020C9000020C4000020CA0000206D
S315080036B0283C002000080140001001402DE9F8438D
S315080036C006000F009046994600200B9DDFF8D4149B
S315080036D00978002903D047F24330288038E0002EC5
S315080036E003D145F6C350288032E0089CA4B22000D6
S315080036F001282FD0022835D1B9F1000F03D147F29E
S315080037004030288024E002F057F9012186F82A1073
S31508003710DFF8941431607760C6F820800021B16123
S315080037200021F161C6F8249034850999B1600A9997
S31508003730F1600021316100217161DFF87014098898
S31508003740491CDFF86824118002F03AF90020288025
S31508003750BDE8F183B8F1000F03D147F23F30288066
S31508003760F6E7D0E745F625602880F1E738B5050085
S315080037700C00DFF830040078002804D047F2433004
S315080037802080002046E0002D04D147F242302080F8
S3150800379000203FE02868DFF81014884204D045F678
S315080037A0C4502080002035E000A803F05AFA95F8A6
S315080037B02A0000281ED0022803D010D303280ED0D2
S315080037C020E0280000F071F90021280000F005F932
S315080037D000A803F072FA00202080012019E00021D9
S315080037E0280000F0FAF800A803F067FA0020208005
S315080037F001200EE000A803F060FA47F23D30208071
S31508003800002006E000A803F058FA47F2413020806D
S315080038100020C0B232BDF8B505000F0016001C0026
S31508003820DFF880030078002804D047F24330208070
S31508003830002067E0002D04D147F2423020800020A6
S3150800384060E02868DFF86013884204D045F6C45063
S315080038502080002056E000A803F003FA95F82A0015
S3150800386000283FD0022803D034D3032832D041E0C1
S31508003870280000F01AF900202080BFB2002F20D0BF
S31508003880032F02D0042F10D01CE0AA6810000028CD
S3150800389003D0E9682800904702E047F244302080C8
S315080038A000A803F00AFA01202BE0AA6810000028F5
S315080038B003D031002800904702E047F244302080C8
S315080038C0EEE7EDE700A803F0F8F945F62560208055
S315080038D0002017E000A803F0F0F947F249302080ED
S315080038E001200EE000A803F0E8F947F23D302080F9
S315080038F0002006E000A803F0E0F947F241302080F6
S315080039000020C0B2F2BD00B589B0AA4909680029ED
S3150800391008D0A9490968A74A1268B1FBF2F1A74A73
S31508003920116006E0A44909680A22B1FBF2F1A34A2C
S315080039301160A2490968A24A116000219C4A1160D7
S315080039400021A04A116000210AE089B29E4A12EBC2
S31508003950C102002393800023D38000231360491CEF
S315080039609A4A128889B29142EFD39949096800297F
S3150800397003D147F2473101802DE096490968964AF6
S315080039801268914203D247F24831018023E09349F5
S3150800399009781F2903D347F2463101801BE00890B6
S315080039A00B20079000200690002005900020049028
S315080039B08848006803908A4800680290844800682E
S315080039C0019086480078009000230FF22D12854951
S315080039D0854803F09DFC09B000BD10B4022280F8AA
S315080039E02A2089B2012905D1416A714A12685118FB
S315080039F081610DE0016A002905D1416A6C4A1268A5
S31508003A005118816104E0016A694A12685118816196
S31508003A1081696E4A1288B1FBF2F302FB131189B26F
S31508003A20694A12EBC1010A68002A07D1002202611D
S31508003A30002242610860012088802EE082695C4B82
S31508003A401B68D21AC2610B6805E05A6942610361B4
S31508003A50106158610023002B1CD09A69544C2468C5
S31508003A60121BDA61DA69C469A2420AD21A69002A03
S31508003A7001D01B69EFE70022026143611861002348
S31508003A80E9E75A69002AE0D10022426103615861D8
S31508003A900860DFE78888401C8880C8888A88904242
S31508003AA001D28888C88010BC70478169474A128845
S31508003AB0B1FBF2F302FB131189B2434A12EBC101BF
S31508003AC00A68824206D102690A60002A08D00023E1
S31508003AD0536105E0426903691361002B00D05A61FE
S31508003AE0012280F82A200022026100224261888889
S31508003AF0401E888070470000F0B583B00BE003F0E5
S31508003B0066FF041B00A803F0D8F82E480068A042F8
S31508003B1001D22C48046000AB01AA0021002003F062
S31508003B2027FD050000A803F09CF803F050FF0400E9
S31508003B301F480068401C1E4908601D480068234944
S31508003B400988B0FBF1F201FB120080B21E4911EBA5
S31508003B50C0000668002700E00127FFB2002FCED17B
S31508003B60002EF9D0356912480068B169884216D125
S31508003B703000FFF79AFF308D022804D1012130006A
S31508003B80FFF72BFF02E0032086F82A00B268100030
S31508003B90002802D0F168300090472E00DDE70127A3
S31508003BA0DBE700000C3D0020544D5220083D002064
S31508003BB0D83C0020A0B1000888B10008DC3C0020F1
S31508003BC0E03C0020D43C002084390020329D0008C7
S31508003BD0A4B10008ACB1000884B100086B9D0008C8
S31508003BE0A8B1000810AF0008483800202DE9F843AE
S31508003BF005000E00170098460020DDF82490584965
S31508003C000978002904D045F2B960A9F8000053E004
S31508003C10002F04D145F2BB60A9F800004CE01FFA5A
S31508003C2088F8B8F1020F04DA45F2BC60A9F800007A
S31508003C3042E0089CA4B2042C04D245F2C160A9F85B
S31508003C40000039E0032000280FD0074204D045F2CF
S31508003C50BB60A9F800002FE0210089B2014204D018
S31508003C6045F2C160A9F8000026E03B003A00B8F129
S31508003C700101002004E0A4B2A2181A601300401C37
S31508003C8080B289B28842F6D30020186001F094FE0B
S31508003C9034492960AE606F60EF60A5F81480A5F816
S31508003CA012802C8230490988491C2F4A118001F05C
S31508003CB087FE0020A9F80000BDE8F18370B505006D
S31508003CC00C000020002D04D145F2BF6020800020A2
S31508003CD016E001F071FEA98A002906D101F070FEEE
S31508003CE045F2C260208000200AE0EE683168E9608B
S31508003CF0A98A491EA98201F063FE002020803000AF
S31508003D0070BD70B505000E0014000020002D03D10B
S31508003D1045F2BF6020801BE0002E03D145F2BE604D
S31508003D20208015E001F048FEA98A6A8A914205D3E7
S31508003D3001F046FE45F2BA60208009E0E968316084
S31508003D40EE60A98A491CA98201F03AFE002020806B
S31508003D5070BD0021044A11800021018070470000CF
S31508003D600C3D00204D454D20FE3C002080B50A0044
S31508003D70002100F001F801BD30B4002A27D0002840
S31508003D8025D00023002403E01B02C9B20B43641CA0
S31508003D90042CF9D30425B0FBF5F404FB1504E4B2AE
S31508003DA0002C08D003E00170401C521E641C002A37
S31508003DB001D0042CF7D302E00360001D121F042A69
S31508003DC0FAD202E00170401C521E002AFAD130BC19
S31508003DD0704770B41300002B01D1012052E000286F
S31508003DE001D100204EE0002901D100204AE001223D
S31508003DF0181859180425B0FBF5F404FB1504E4B2A9
S31508003E000426B1FBF6F505FB1615EDB2AC4201D159
S31508003E10012500E00025EDB2012D2CD1002C10D093
S31508003E2008E0401E491E05780E78B54200D00022EB
S31508003E305B1E641ED2B2012A03D1002B01D0002CCE
S31508003E40EFD1D2B2012A16D107E0001F091F046874
S31508003E500D68AC4200D000221B1FD2B2012A01D144
S31508003E60042BF2D207E0401E491E04780D78AC42B6
S31508003E7000D000225B1ED2B2012A01D1002BF2D15A
S31508003E801000C0B270BC70472DE9F04106000F0063
S31508003E9090461C000025DFF8BC020078002803D0F5
S31508003EA042F6E16020802BE0002E03D145F6C35090
S31508003EB0208025E01FFA88F8B8F1000F03D146F2F2
S31508003EC0945020801CE001F077FD0500DFF8880299
S31508003ED030607760414689B216F1140003F0E5FDBB
S31508003EE016F1080002F0D8FFDFF870020088401CBF
S31508003EF0DFF868120880280001F062FD00202080A3
S31508003F00BDE8F0812DE9F04F89B004000D001600D8
S31508003F101F005FF00008DDF84C908E4800780028F6
S31508003F2005D046F2AE10A9F800000020C6E0002C25
S31508003F3005D145F6C350A9F800000020BEE0002FC1
S31508003F4005D146F2D520A9F800000020B6E0B6B2A1
S31508003F503000002802D0B0F5004F1FD120687E49F6
S31508003F60884221D1DDF848A0BAF1000F02D000201E
S31508003F70CAF8000001F020FD80464B46524639003B
S31508003F8014F1140003F09BFD8346B9F800000028DD
S31508003F9010D1404601F014FD58468FE045F62560DD
S31508003FA0A9F80000002089E045F6C450A9F80000E9
S31508003FB0002083E0300408D5404601F001FD46F2B2
S31508003FC0B010A9F80000002078E0654800780028BD
S31508003FD008D0404601F0F4FC46F66350A9F8000004
S31508003FE000206BE02B000522210000A802F00AFF42
S31508003FF0404601F0E5FC02F0EDFD01F0DDFC8046EF
S315080040005848006890F83500002805D0022838D0AE
S3150800401017D3032826D045E052480068D0F85CB08C
S3150800402050480068B0F860003880BAF1000F04D034
S315080040304C480068006CCAF800000020A9F8000087
S3150800404038E05FF0000B00203880BAF1000F04D08A
S3150800405044480068006CCAF8000046F2A910A9F89E
S31508004060000027E05FF0000B00203880BAF1000F4F
S3150800407002D00020CAF8000047F2D920A9F80000AB
S3150800408018E05FF0000B00203880BAF1000F04D06A
S3150800409034480068006CCAF8000045F6C250A9F812
S315080040A0000007E05FF0000B0020388046F62E601F
S315080040B0A9F80000404601F083FC584609B0BDE85F
S315080040C0F08F2DE9FC4105000E0017009846089C64
S315080040D0002D03D145F6C35020802AE01FFA88F840
S315080040E04046002815D0102813D0B0F5007F10D010
S315080040F0B0F5047F0DD0B0F5004F0AD048F2100194
S31508004100884206D0B0F5024F03D048F21021884203
S3150800411011D128681049884211D103F058FC01943E
S31508004120009043469BB23A0092B23100280000F054
S315080041301BF8BDE8F38145F625602080F9E745F6CA
S31508004140C4502080F5E70021044A1180002101802F
S31508004150704700000C3D002051554555023D002092
S31508004160113D0020E43C00202DE9F04F83B0040007
S315080041700D0016001F005FF0000A01F01DFC8246C4
S3150800418014F10800DDF83080DDF834900189002943
S3150800419014D1F80601D4002300E01023CDF80490CA
S315080041A0CDF800809BB2320092B2290014F11400B7
S315080041B003F0BDFC504601F003FC25E0B90502D525
S315080041C0B0F808B001E05FF0010B00680DE0816807
S315080041D040680190CDF8008033009BB22A00200089
S315080041E002F0D0FE0198BBF1010B1FFA8BFBBBF165
S315080041F0000FECD1504601F0E3FB380401D402F07D
S31508004200E9FC0020A9F80000BDE8F78F80B5202159
S31508004210DFF8C00303F083FD00281CD0DFF8B403E1
S3150800422003F079FDDFF8B0130968002913D0DFF829
S31508004230AC130968DFF8A0231268891AFF290ADA7D
S31508004240DFF8981309680870DFF890030068401CC7
S31508004250DFF8881308604021DFF8780303F05FFD74
S31508004260002810D040F22661DFF8680303F064FDE9
S3150800427000AA0021DFF8680300F0B5FABDF80000CF
S31508004280002800D000BF01BD1CB52021DFF854036B
S3150800429003F045FD002815D0D24803F03CFD040084
S315080042A001A9D148FFF70AFD01000C7001A800908A
S315080042B000230122CD48FFF704FFBDF804000028BB
S315080042C000D000BF4021C74803F029FD00280ED0C2
S315080042D040F22661C34803F02FFD01AA0021C44815
S315080042E000F081FABDF80400002800D000BF13BD15
S315080042F01CB52021BF4803F012FD002815D0BD4883
S3150800430003F009FD040001A9B748FFF7D7FC01002F
S315080043100C7001A8009000230122B448FFF7D1FED3
S31508004320BDF80400002800D000BF4021B14803F0C2
S31508004330F6FC00280ED040F22661AE4803F0FCFCDD
S3150800434001AA0021AC4800F04EFABDF80400002886
S3150800435000D000BF13BD70B584B004000D00A74897
S315080043600078AA282BD1012240F22661A14803F041
S31508004370A5FC002612E00020ADF8040001A8009074
S3150800438002AB00224FF4FA719B4800F072F9B6B2FC
S31508004390315D89B2974803F0BAFC761CB6B2ADB265
S315080043A0AE42E8D3002240F22661924803F086FC2A
S315080043B04021904803F0B3FC002835D1F8E74FF4C4
S315080043C080718F4801F07DFB012240F22661854805
S315080043D003F074FC002612E00020ADF8040001A8E2
S315080043E0009002AB00224FF4FA71814800F041F9BF
S315080043F0B6B2315D89B27B4803F089FC761CB6B249
S31508004400ADB2AE42E8D3002240F22661754803F009
S3150800441055FC4021734803F082FC0028F9D04FF47C
S315080044208071774801F050FB012004B070BD70B56B
S3150800443084B004000D004FF48071714801F041FB0F
S31508004440012240F22661674803F038FC002612E094
S315080044500020ADF8040001A8009002AB00224FF43A
S31508004460FA71634800F005F9B6B2315D89B25D4864
S3150800447003F04DFC761CB6B2ADB2AE42E8D30022CC
S3150800448040F22661574803F019FC4021554803F0CD
S3150800449046FC0028F9D04FF48071594801F014FB06
S315080044A0012004B070BD70B584B004000D0001226F
S315080044B040F22661474803F001FC002606E0B6B242
S315080044C0315D89B2434803F022FC761CB6B2ADB220
S315080044D0AE420DD201A8009002AB0022322140481C
S315080044E000F0C7F8BDF804000028E8D0002006E070
S315080044F0002240F22661374803F0E0FB012004B0B1
S3150800450070BD10B584B00400012240F2266131481E
S3150800451003F0D4FB40F226612E4803F00DFC05E0BB
S31508004520217889B22B4803F0F2FB641C2078002816
S315080045300DD001A8009002AB00223221284800F0D5
S3150800454098F8BDF804000028EAD0002006E000220A
S3150800455040F226611F4803F0B1FB012004B010BDEC
S3150800456038B50400002501F027FA05001B48046049
S3150800457019480460280001F023FA012032BD80B5ED
S315080045800021C0B2002809D001F016FA0100012066
S315080045901C4A1070080001F013FA08E001F00CFA42
S315080045A001000020174A1070080001F009FA0120DE
S315080045B002BD80B5012003F015FC002808D000AB29
S315080045C000220121104802F0D8F8012003F01CFC53
S315080045D001BD000000480040F83C0020F43C0020E3
S315080045E0643B0020003801405C3C0020B03A0020C3
S315080045F0803B0020004400409C3B0020CA0000206D
S31508004600000801400B3D0020283C00202DE9F04120
S3150800461005000E0090461C000027DFF838020078D7
S31508004620002803D042F6E160208020E0002D03D167
S3150800463045F6C35020801AE001F0BEF90700DFF8FE
S3150800464018022860C5F814800020A8616E6015F16C
S31508004650080002F021FCDFF804020088401CDFF89D
S31508004660FC110880380001F0ABF900202080BDE875
S31508004670F0812DE9F04389B006000F00914698466F
S315080046800024109D73480078002804D046F2AE1026
S31508004690288000207AE0002E04D145F6C3502880F1
S315080046A0002073E01FFA89F94846002802D0B0F5C1
S315080046B0004F20D130686849884221D1B8F1000FEF
S315080046C002D00020C8F8000001F076F904007069ED
S315080046D000281AD07069401E7061B8F1000F02D028
S315080046E0B069C8F800007669200001F069F9002071
S315080046F0288030004AE045F625602880002045E0FD
S3150800470045F6C4502880002040E05FEA094008D5F5
S315080047107669200001F054F946F2B010288030007E
S3150800472034E04F480078002807D0200001F048F907
S3150800473046F663502880002028E03B000622310018
S3150800474000A802F05FFB200001F03AF902F042FAF5
S3150800475001F032F904004348006890F83500002853
S3150800476005D002282BD014D303281ED033E0B8F185
S31508004770000F04D03B480068006CC8F80000002011
S3150800478028807669200001F01BF9300009B0BDE8E1
S31508004790F083B8F1000F04D032480068006CC8F8FE
S315080047A0000046F2A9102880EBE7B8F1000F02D006
S315080047B00020C8F8000047F2D9202880E1E7B8F1C0
S315080047C0000F04D027480068006CC8F8000045F6BA
S315080047D0C2502880D5E746F62E602880200001F0D2
S315080047E0EFF80020D2E770B505000E001400002D82
S315080047F004D145F6C3502080002019E0B6B2300037
S31508004800002808D0B0F5007F05D0B0F5004F02D0DB
S31508004810B0F5024F0DD128680F4988420ED103F032
S31508004820D6F802002300310089B2280000F01CF8EF
S3150800483070BD45F6256020800020F9E745F6C4508E
S3150800484020800020F4E70021044A1180002101801D
S31508004850704700000C3D002053454D41043D0020A3
S31508004860113D0020E43C00202DE9F04782B0040009
S315080048700D0016001F005FF0000801F09DF8804645
S3150800488014F108000189002918D1606910F1010F97
S3150800489007D1404601F094F846F6C5503880002006
S315080048A033E06069401C6061D4F81490A661404604
S315080048B001F086F800203880484626E0A90502D58A
S315080048C0B0F8089001E05FF00109D0F800A00BE00D
S315080048D0DAF80810DAF804A000960023002220006F
S315080048E002F050FBB9F101091FFA89F9B9F1000F75
S315080048F0EED1D4F81490404601F062F8280401D4A9
S3150800490002F068F9002038804846BDE8F68710B4FA
S3150800491050F8041B81B102681218001D50F8043BB8
S31508004920DC0744BFA9F10104E31852F8044B43F825
S31508004930044B091FF9D1EBE710BC7047F8B5050021
S315080049400E0014000027DFF858020078002803D06C
S3150800495047F27520208040E0DFF8480200780028FA
S3150800496003D046F66350208037E0B6B23000002800
S3150800497005D0022803D004281FD008281ED1002DF0
S3150800498003D147F27E20208027E001F015F80700C2
S315080049900120DFF81412096881F836002300320076
S315080049A092B229008048006803F0B4FA20880028EB
S315080049B008D0380001F004F80FE0E6E745F6256070
S315080049C020800AE07848006802F0C6FB380000F04C
S315080049D0F7FF02F0FFF800202080F1BDF8B50024AB
S315080049E0079D6F4E3678002E03D047F27520288033
S315080049F0AFE06C4C2478002C03D046F66350288030
S31508004A00A7E0069C14F00E06B6B23700002F05D0B4
S31508004A10022F03D0042F17D0082F16D1002B0CD144
S31508004A2092B2002A09D189B2002906D180B200289B
S31508004A3003D147F27E2028808BE04FF6E17C14EA0A
S31508004A400C0F06D1002705E0F7E745F62560288014
S31508004A507FE00127FFB2012F03D145F625602880A4
S31508004A6077E0C4F30014A4B214F00104E4B2012CF4
S31508004A701BD0B3F57A7F03D347F27B20288068E002
S31508004A8092B23C2A03DB47F27A20288061E089B299
S31508004A903C2903DB47F2792028805AE080B2642853
S31508004AA014DB47F27820288053E089B242F210746A
S31508004AB0A14203DB47F2792028804AE080B2B0F5AC
S31508004AC07A7F03DB47F27820288042E0374C246857
S31508004AD080B24FF4616789B25FF03C0C0CFB01F1C0
S31508004AE007FB001092B210184FF4FA71B1FBF4F1FB
S31508004AF0C91801FB04F14FF47A72B1FBF2F104FB19
S31508004B000017002F22D000F057FF04000120264985
S31508004B10096881F836002B00320092B23900224823
S31508004B20006803F0F7F92888002803D0200000F071
S31508004B3047FF0EE01C48006802F00EFB200000F05C
S31508004B403FFF02F047F80020288002E047F27E2067
S31508004B502880F1BD10B582B003F009FC00AA002137
S31508004B60134802F0EBFD0400124800780C21124AA3
S31508004B7001FB002002F01EFB10480068401E0F498A
S31508004B8008600E480068002808D10D4800680B49DF
S31508004B90086000AA00210B4802F0D0FD13BD0000F2
S31508004BA00C3D0020113D0020E43C002088B100089F
S31508004BB0943700200E3D00200C2F0020E03C0020FA
S31508004BC0DC3C00204838002038B50C001500FFF7FB
S31508004BD098FC2000FFF7C4FC00AA00212800FFF774
S31508004BE0ADFEDFF8200904680020FFF7B9FC2000B5
S31508004BF032BD02E00D220270401C0278002A01D163
S31508004C008842F7D3704770B584B00025002602A9FC
S31508004C10DFF8F408FFF752F805002E00002400E03C
S31508004C20641CE4B2032C2CDAE4B2002C09D002A8E6
S31508004C30019000200090C823002200210020FFF7E1
S31508004C40CDFE4FF4807200213000FFF795F86422FC
S31508004C503100DFF8B808C06BFFF7B6FF050029007A
S31508004C603000FFF7C6FFB7A1300000F027FD002887
S31508004C70D6D002AA3100DFF89008FFF742F80120E3
S31508004C8006E002AA3100DFF88008FFF73AF80020AC
S31508004C9004B070BD70B584B00025002602A9DFF8FF
S31508004CA06808FFF70BF805002E00002400E0641CD6
S31508004CB0E4B2032C2CDAE4B2002C09D002A8019045
S31508004CC000200090C823002200210020FFF786FE5E
S31508004CD04FF4807200213000FFF74EF8642231004D
S31508004CE0DFF828084068FFF76FFF05002900300045
S31508004CF0FFF77FFF93A1300000F0E0FC0028D6D034
S31508004D0002AA3100DFF80008FEF7FBFF012006E0E3
S31508004D1002AA3100DFF8F007FEF7F3FF002004B01F
S31508004D2070BD70B584B00025002602A9DFF8D80743
S31508004D30FEF7C4FF05002E00002400E0641CE4B260
S31508004D40642C2DDAE4B2002C09D002A801900020C8
S31508004D500090C823002200210020FFF73FFE4FF4F1
S31508004D60807200213000FFF707F864223100DFF86F
S31508004D709C078068FFF728FF050029003000FFF729
S31508004D8038FFDFF88C17300000F098FC0028D5D0E3
S31508004D9002AA3100DFF87007FEF7B3FF012006E02C
S31508004DA002AA3100DFF86007FEF7ABFF002004B067
S31508004DB070BD2DE9FE4F002500275FF000085FF063
S31508004DC000095FF0000A5FF0000B002402A9DFF873
S31508004DD03807FEF773FF83465C46002601E0002588
S31508004DE0761CF6B2642E54DAF6B2002E09D002A862
S31508004DF0019000200090C823002200210020FFF720
S31508004E00EDFD4FF4807200212000FEF7B5FF642205
S31508004E102100DFF8F806C068FFF7D6FE8346594634
S31508004E202000FFF7E6FEDFF8EC16200000F046FC4F
S31508004E300028D4D03A224FF48071200000F016FCE6
S31508004E40871C380003F0E6FA80462C224FF480715E
S31508004E50200000F00BFC10F10109484603F0DAFACD
S31508004E6082465FFA88F8B8F1060F10DB5FFA8AFA0D
S31508004E70BAF1630F0BD06D1CEDB2072DB0DB02AA99
S31508004E802100DFF88406FEF73CFF012008E0002534
S31508004E90A6E702AA2100DFF87006FEF732FF002017
S31508004EA0BDE8FE8F70B584B00025002602A9DFF89C
S31508004EB05806FEF703FF05002E00002400E0641CD8
S31508004EC0E4B2642C34DAE4B2002C09D002A80190CA
S31508004ED000200090C823002200210020FFF77EFD55
S31508004EE04FF4807200213000FEF746FF642231003D
S31508004EF0DFF818060069FFF767FE0500290030008D
S31508004F00FFF777FEDFF81016300000F0D7FB002811
S31508004F1006D1DFF80816300000F0D0FB0028CED006
S31508004F2002AA3100DFF8E005FEF7EBFE012006E0F5
S31508004F3002AA3100DFF8D005FEF7E3FE002004B030
S31508004F4070BD00004F4B000038B50024002500A9AD
S31508004F50DFF8B405FEF7B2FE040025004FF48072B0
S31508004F6000212800FEF708FF64222900DFF89C05C7
S31508004F704069FFF729FE040021002800FFF739FEE3
S31508004F809FA1280000F09AFB002807D000AA290054
S31508004F90DFF87405FEF7B5FE012006E000AA290031
S31508004FA0DFF86405FEF7ADFE002032BD38B50024F3
S31508004FB0002500A9DFF85005FEF780FE040025004D
S31508004FC04FF4807200212800FEF7D6FE64222900DD
S31508004FD0DFF838058069FFF7F7FD0400210028008F
S31508004FE0FFF707FE86A1280000F068FB002807D017
S31508004FF000AA2900DFF81005FEF783FE012006E067
S3150800500000AA2900DFF80005FEF77BFE002032BD66
S3150800501038B50024002500A9DFF8EC04FEF74EFE9B
S31508005020040025004FF4807200212800FEF7A4FE34
S3150800503064222900DFF8D404C069FFF7C5FD04001F
S3150800504021002800FFF7D5FD6DA1280000F036FBEA
S31508005050002807D000AA2900DFF8AC04FEF751FEA5
S31508005060012006E000AA2900DFF89C04FEF749FEA5
S31508005070002032BD70B584B00025002602A9DFF8ED
S315080050808804FEF71BFE05002E00002400E0641CC1
S31508005090E4B2642C2DDAE4B2002C09D002A80190FF
S315080050A000200090C823002200210020FFF796FC6C
S315080050B04FF4807200213000FEF75EFE6422310054
S315080050C0DFF84804006AFFF77FFD05002900300075
S315080050D0FFF78FFDDFF84814300000F0EFFA0028DC
S315080050E0D5D002AA3100DFF82004FEF70AFE012017
S315080050F006E002AA3100DFF81004FEF702FE0020DF
S3150800510004B070BD70B582B00025002600A9DFF88E
S31508005110F803FEF7D3FD05002E00002400E0641C0A
S31508005120E4B2032C1FDA4FF4807200213000FEF738
S3150800513023FE64223100DFF8D403406AFFF744FDFA
S31508005140050029003000FFF754FD2DA1300000F0BE
S31508005150B5FA0028E3D000AA3100DFF8AC03FEF761
S31508005160D0FD012006E000AA3100DFF89C03FEF717
S31508005170C8FD002076BD70B584B00025002602A9BA
S31508005180DFF88403FEF79AFD05002E00002400E0F0
S31508005190641CE4B2142C2ADAE4B2002C09D002A862
S315080051A0019000200090C823002200210020FFF76C
S315080051B015FC4FF4807200213000FEF7DDFD6422F5
S315080051C03100D248806AFFF7FFFC0500290030004D
S315080051D0FFF70FFDD349300000F070FA0028D7D04A
S315080051E002AA3100C848FEF78CFD012005E002AA94
S315080051F03100C548FEF785FD002004B070BD0000EB
S315080052004F4B0000FEB500240027002502A9BE4822
S31508005210FEF754FD07003D0000260AE002A80190AB
S3150800522000200090C823002200210020FFF7D6FBAB
S31508005230761CF6B2642E40DA4FF4807200212800FC
S31508005240FEF79AFDB148C06AFFF75BF9B648FFF763
S3150800525058F93800FFF784F902AA00214FF4FA60DA
S31508005260FFF76CFBA74807680020FFF779F93900B4
S315080052702800FFF7BEFCAD49280000F01FFA0028F9
S31508005280CCD0AB49280000F019FA06E0E4B22118A0
S315080052904979E4B2A74AA154641CE4B221184979B1
S315080052A00D29F3D10020E4B2A249605402AA2900CC
S315080052B09548FEF726FD012005E002AA2900924836
S315080052C0FEF71FFD0020FEBD38B50024002500A905
S315080052D08D48FEF7F3FC040025004FF48072002188
S315080052E02800FEF749FD8948006BFFF70AF991483F
S315080052F0FFF707F99048FFF704F92000FFF730F9A0
S3150800530000AA00214FF4FA60FFF718FB7D480468ED
S315080053100020FFF725F921002800FFF76AFC8749D6
S31508005320280000F0CBF9002806D000AA2900764804
S31508005330FEF7E7FC012005E000AA29007248FEF7FF
S31508005340E0FC002032BD80B5FFF7A4FC002801D19F
S31508005350002047E0FFF757FCFFF7E3FC002801D1E0
S3150800536000203FE0FFF725FD002801D1002039E0A5
S31508005370FFF798FD002801D1002033E0FFF7E4FD90
S31508005380002801D100202DE0FFF710FE002801D1EA
S31508005390002027E0FFF73CFE002801D1002021E08D
S315080053A0FFF768FE002801D100201BE0FFF7AAFEE0
S315080053B0002801D1002015E0FFF7DDFE002801D105
S315080053C000200FE0FFF71EFF002801D1002009E0AA
S315080053D0FFF77AFF002801D1002003E0012000F042
S315080053E081F8012002BD10B584B00024C0B200289F
S315080053F029D01021524800F064FB02A80190002031
S3150800540000904FF4FA73002200210020FFF7E6FA15
S3150800541002214B4800F055FB0AE002A80190002043
S3150800542000906423002200210020FFF7D7FA641CAD
S31508005430E4B2FA2C05DAFFF72DFC0128EDD101209C
S3150800544010E000200EE002213D4800F03DFB02A8D6
S315080054500190002000900023032200210020FFF77E
S31508005460BDFA012004B010BD30B585B004000D00AA
S31508005470ADB22A0021A103A800F02CFF2348406BF7
S31508005480FFF73FF803A8FFF73CF81DA0FFF739F828
S3150800549001A8009002AB00224FF47A712948FFF761
S315080054A0E8F8BDF80400002801D0002018E029001B
S315080054B089B22000FEF7F7FF012111A0FEF7F3FFDE
S315080054C001A8009002AB00224FF47A711E48FFF73C
S315080054D0D0F8BDF80400002801D0002000E0012023
S315080054E005B030BD38B50400002500F065FA0500A2
S315080054F016480470280000F063FA31BD25640000E0
S315080055000D000000F43C0020443C00200000002070
