S00C0000546573742E7372656378
S315080000002045002099AE00081BAD00081DAD00086C
S315080000101FAD000821AD000823AD00080000000050
S3150800002000000000000000000000000025AD0008E8
S3150800003027AD000800000000CB92000829AD000893
S31508000040C1B00008C5B00008C9B00008CDB00008A6
S31508000050D1B00008D5B00008D9B00008DDB0000856
S31508000060E1B00008E5B00008E9B00008EDB0000806
S31508000070F1B00008F5B00008F9B00008FDB00008B6
S3150800008001B1000805B1000809B100080DB1000862
S3150800009011B1000815B1000819B100081DB1000812
S315080000A021B1000825B1000829B100082DB10008C2
S315080000B031B1000835B1000839B100083DB1000872
S315080000C041B1000845B1000849B100084DB1000822
S315080000D051B1000831AD000839AD000841AD00083E
S315080000E049AD000855B1000859B10008F0B585B00A
S315080000F0002619E0FFB2682F16D1DFF89C0A0068BF
S31508000100411CDFF8942A1160077000260120DFF8E9
S31508000110801D087002A9DFF8840A03F00BFBBDF8FE
S315080001200800002800D000BFDFF86C0A0068002825
S315080001301AD102A9DFF8680A03F0A4FDDFF8581AF5
S315080001400860DFF8540A0068DFF8581A08604FF4A8
S3150800015080720021DFF84C0A006803F0F1FDBDF853
S315080001600800002800D000BF02A8019003A800904C
S315080001700DF10A0300220021DFF82C0A03F0A6FE7F
S3150800018001000F7802AADFF8240A03F09EFDDFF8C3
S31508000190200A0078002862D0DFF8F40C00780028DE
S315080001A0A8D0DFF8F4090068411CDFF8EC291160D3
S315080001B00770DFF8E4090068DFF8E8190968401AEB
S315080001C00B2805D1DFF8DC090068807A10F10D06E6
S315080001D0F6B2002EA8D0DFF8C0090068DFF8C41907
S315080001E00968401AF6B2B0429EDBDFF8AC0900682F
S315080001F010F8010C162897D1DFF89C090768F6B2A3
S31508000200B11E89B2DFF89C09006800F02AF917F8D0
S31508000210021CC0B2814287D100BF02AB0022002176
S31508000220DFF8780903F0DBFA02A800900023F6B29B
S31508000230320092B2DFF86C090168DFF8580C03F057
S3150800024024FF0020DFF85C1908600020DFF8481951
S3150800025008600020DFF8381C0870002664E7DFF81D
S31508000260300C007800281ED1FFB2682F7FF45CAFEF
S31508000270DFF824090068411CDFF81C2911600770A3
S315080002800026012400250120DFF8041C087002A9B5
S31508000290DFF8080903F04EFABDF8080000283FF415
S315080002A043AF00BF40E7DFF8F0080068411CDFF8FD
S315080002B0E82811600770EDB2002D39D1641CE4B24C
S315080002C0062C7FF431AFDFF8DC080068407968282F
S315080002D020D1DFF8D0080068B0F80100DFF8C418AC
S315080002E00968B1F8031080B289B2884204D10125A1
S315080002F080B28608083617E70020DFF8941B0870D6
S31508000300002600240025DFF89C080068DFF8881816
S31508000310086009E70020DFF8781B0870002600242B
S315080003200025DFF880080068DFF86C180860FBE62F
S31508000330F6B2002E3FF4F8AEDFF85C080068DFF886
S3150800034064180968401AF6B2B042FFF6EDAEDFF857
S315080003504808006810F8010C162869D1DFF8380833
S315080003600468F6B2B6F1080189B2DFF83808006801
S31508000370801D00F076F814F8021CC0B2814249D1FB
S3150800038000BF02AB00220021DFF8100803F027FAAD
S31508000390DFF810080068007B032806D0042817D069
S315080003A00A2802D00B2813D024E00020DFF8E8172B
S315080003B00968087002A800900023F6B2320092B2CB
S315080003C0DFF8E0070168DFF8AC0C03F05EFE11E029
S315080003D00020DFF8C4170968087002A800900023F7
S315080003E0F6B2320092B2DFF8BC070168DFF8880C73
S315080003F003F04BFE0020DFF8AC1708600020DFF89A
S31508000400981708600020DFF8881A0870002600246C
S31508000410002589E6DFF88C070068DFF87C17086096
S315080004200020DFF86C1A08700026002400257BE6F9
S31508000430DFF870070068DFF8601708600020DFF84B
S31508000440501A08700026002400256DE6DFF85407C8
S315080004500068DFF8441708600020DFF8341A0870CF
S31508000460704710B40022002303E09BB21C5CA2185C
S315080004705B1C9BB289B28B42F7D31000C0B210BC8A
S315080004807047000030B583B0002000210022002408
S3150800049000250FE02C004FF480720021280003F09D
S315080004A04FFC280003F0F9FF01AA0021DFF8CC0B66
S315080004B004F037F9DFF8C80B0078012840F0D2803D
S315080004C0002C14D101A9DFF8D80603F0DBFB0400E1
S315080004D025004FF480720021280003F031FCBDF896
S315080004E00400002800D000BF280003F0D6FFDFF87C
S315080004F0940B0068DFF8901B0968401A0128C0F2BF
S31508000500AB8001AA0021042004F0B6F9DFF8740BC9
S3150800051004682100280004F082FB60A1280005F089
S315080005205DF80028B6D1DFF8641B280005F056F8F8
S3150800053000280ED001A800900023621B92B2290061
S31508000540DFF84C0B03F0A1FD0024002003F0A5FF03
S31508000550B0E7DFF8401B280005F040F8002810D067
S315080005602C004FF480720021280003F0E9FB2800D4
S3150800057003F093FF01AA0021DFF81C0B04F0D1F861
S3150800058098E7DFF8181B280005F028F8002810D08F
S315080005902C004FF480720021280003F0D1FB0020C4
S315080005A004000025002003F078FF002004F023FF54
S315080005B080E7DFF8EC1A280005F010F8002810D0BC
S315080005C02C004FF480720021280003F0B9FB0020AC
S315080005D004000025002003F060FF002004F00BFF54
S315080005E068E7DFF8C01A280004F0F8FF002810D0E2
S315080005F02C004FF480720021280003F0A1FB002094
S3150800060004000025002003F048FF002004F0F3FE54
S3150800061050E7DFF8941A280004F0E0FF002810D00D
S315080006202C004FF480720021280003F089FB00207B
S3150800063004000025002003F030FF002004F0DBFE54
S3150800064038E72C004FF480720021280003F078FB6D
S31508000650280003F022FF2DE701AA0021042004F058
S315080006600BF927E7002C10D04FF4807200212800E0
S3150800067003F066FB01AA2900DFF8240503F025FB31
S3150800068000240025002003F008FF002004F03AFAB1
S31508000690012004F037FA04F022FE0BE70A3E0000B8
S315080006A02DE9FF41002600240020ADF80A005FF07E
S315080006B000080025002705E002AA2100DFF8E0046B
S315080006C003F003FB02A8019003A800900DF10A03AA
S315080006D000220021DFF8B80903F0F8FB0400B4A1F2
S315080006E0200004F07BFF10F10108404600F092F864
S315080006F00700BFB2002FDFD098F80C0000280CD0F6
S31508000700022828D0032827D0042841D00A2823D035
S315080007100B283DD00C28CFD0CEE798F80D0010F066
S315080007200F05DFF888090078EDB2854206D102AADE
S315080007300021DFF87C0903F0F4FF0BE0DFF8740909
S315080007400078EDB2854205D102AA0021DFF86809D2
S3150800075003F0E7FFB0E7AFE702A9DFF8440403F0C8
S3150800076091FA0600002E12D0BFB23A004146300078
S3150800077004F09EFF0120BFB2B85502A800900023DE
S315080007803A0092B23100DFF8EC0803F07EFC93E7FA
S3150800079098F80D000F2101FB00F598F80E000528C2
S315080007A008D1DFF8180905702900C9B2012002F03E
S315080007B051FA2EE0DFF804090078EDB2A84223D0FA
S315080007C002A9DFF8DC0303F05DFA0600002E08D064
S315080007D0BFB23A004146300004F06AFF0120BFB2BA
S315080007E0B855DFF8D80805702900C9B2012002F00B
S315080007F031FA02A8009000233A0092B23100DFF8DD
S31508000800780803F042FC04E02900C9B2012002F08E
S3150800081021FA51E770B50400B4F80150B4F80300A2
S31508000820ADB280B2854214D1ADB2AD08ADB22819C9
S315080008308679290089B2A01DFFF713FE864208D1E2
S31508000840ADB22819C079162803D115F10800C0B22F
S3150800085000E0002070BD10B5002405F03DF8040046
S31508000860DFF8DC0D0078401CDFF8D41D0870DFF8CF
S31508000870D00D007810F00F00DFF8C41D08702000B6
S3150800088005F02EF810BD30B589B0002409E002A89D
S31508000890019000200090642300220021002004F02B
S315080008A03BF804AD682028706D1C272028706D1C45
S315080008B0002028706D1C272028706D1C00202870C9
S315080008C06D1C682028706D1CC92028706D1CDFF807
S315080008D0740D007828706D1CDFF8680D4078287054
S315080008E06D1CDFF8600D807828706D1CDFF8540DDC
S315080008F0C07828706D1CDFF84C0D007928706D1CC7
S31508000900022028706D1CDFF8380D007850F0700052
S3150800091028706D1CDFF8280D0078DFF8901708702E
S31508000920FFF799FF032028706D1C09210DF11600A9
S31508000930FFF797FD28706D1C162028706D1CDFF8D0
S31508000940400700780028A2D0002500E06D1CDFF8DB
S3150800095030070078002818D0EDB2032D15DA0024E8
S31508000960112104A804F009FD0028EFD002A8009080
S3150800097003AB002241F28831DFF8340703F017FE93
S31508000980BDF808000028E1D10124E4B2002C0AD001
S3150800099002A80190002000900023002202210020D6
S315080009A003F0BAFF7DE7002004F025FD79E7000093
S315080009B02C68000080B5C0B200280CD0DFF8880C7F
S315080009C00078AA2803D1012000F046F80FE001209C
S315080009D000F05FF80BE0DFF8700C0078AA2803D166
S315080009E0002000F039F802E0002000F052F801BDBE
S315080009F01FB511E00120FFF7DDFFBDF80800015D16
S31508000A00200000F0D7F80020FFF7D4FF0DF10A0206
S31508000A102100634803F059F90DF10A00019003A873
S31508000A20009002AB00220021DFF84C0603F04EFAD4
S31508000A300400207B042802D00B28DBD0E6E701203F
S31508000A40FFF7B8FFBDF80800015D200000F0FEFDC5
S31508000A500020FFF7AFFFD9E7E0B5C0B2002811D0F4
S31508000A604FF48051DFF8B80D04F0BBFF02A80190DF
S31508000A70002000904FF4FA7301220021002003F0B1
S31508000A804BFF05E04FF48051DFF8940D04F0ACFFFE
S31508000A900EBDE0B5C0B2002810D08021DFF8800D69
S31508000AA004F09FFF02A80190002000904FF41673EF
S31508000AB000220021002003F02FFF04E08021DFF848
S31508000AC0600D04F091FF0EBDE0B5C0B200280FD04E
S31508000AD00421DFF8500D04F084FF02A801900020DD
S31508000AE00090002302220021002003F015FF04E0F5
S31508000AF00421DFF8300D04F077FF0EBDE0B5C0B273
S31508000B0000280FD00221DFF81C0D04F06AFF02A8A6
S31508000B10019000200090002302220021002003F00B
S31508000B20FBFE04E00221DFF8FC0C04F05DFF0EBDBD
S31508000B30E0B5C0B200280FD00121DFF8E80C04F0B8
S31508000B4050FF02A8019000200090002302220021F5
S31508000B50002003F0E1FE04E00121DFF8C80C04F0F0
S31508000B6043FF0EBDE0B5C0B200280FD01021DFF854
S31508000B70B00C04F036FF02A8019000200090002374
S31508000B8002220021002003F0C7FE04E01021DFF84E
S31508000B90900C04F029FF0EBDEC3C0020843A00209E
S31508000BA0443C0020F03C0020B03A00205C3C002089
S31508000BB00B3D00202DE9F04389B004000D0000200C
S31508000BC00190002000900020ADF80C000020ADF840
S31508000BD00A000026002700208DF808005FF00009AB
S31508000BE05FF000080222DFF8FC1D03A805F004F8F0
S31508000BF00322DFF8F41D01A804F0FEFFBDF80C007F
S31508000C00002800F0A580012003F056FC0722DFF833
S31508000C10DC1D14F1100003F0C0F8012840F09B8099
S31508000C20002633E007220098811D06A804F0E4FF99
S31508000C300122009810F10D0102A804F0DDFF2B0037
S31508000C40DBB29DF80820009906A800F025F90322D2
S31508000C500098C11C00A804F0CFFF7F1CBDF80A004D
S31508000C60BFB28742DED30622DFF8841D04A803F04C
S31508000C7094F8002803D1019904A800F0BDFE0322C8
S31508000C800198C11C01A804F0B7FF761CBDF80C003A
S31508000C90B6B2864253D206220198811D04A804F0F2
S31508000CA0ABFF0322019810F10C0100A804F0A4FF81
S31508000CB00222019810F112010DF10A0004F09CFFBE
S31508000CC00622DFF82C1D04A803F067F8002834D1A3
S31508000CD0019904A800F0A8FD00282ED10DF10E01F7
S31508000CE0DFF8100D02F0CEFF8046002718E04FF41B
S31508000CF080720099404604F07FFF98F8160050F07D
S31508000D00800088F816004FF480720099404604F077
S31508000D1042FF03220098C11C00A804F06DFF7F1C47
S31508000D20BDF80A00BFB28742E1D30DF10E02414673
S31508000D30DFF8C00C02F0C9FFA7E700278EE72A00F4
S31508000D40D2B20021012000F0BBF9002003F0B4FB69
S31508000D5009B0BDE8F083002622E02B00DBB29DF83F
S31508000D600820009906A800F097F82A00D2B2009940
S31508000D70002000F0A5F90622DFF8741C04A803F089
S31508000D800CF8002803D1019904A800F035FE5FF09D
S31508000D90010903220198C11C01A804F02DFF761C45
S31508000DA05FFA89F9B9F1000FCFD1BDF80C00B6B2D8
S31508000DB08642CAD206220198811D04A804F01CFFA7
S31508000DC00322019810F10C0100A804F015FF022275
S31508000DD0019810F112010DF10A0004F00DFF002729
S31508000DE006E003220098C11C00A804F005FF7F1C3A
S31508000DF0BDF80A00BFB28742CBD207220098811DF0
S31508000E0006A804F0F9FE0122009810F10D0102A8C7
S31508000E1004F0F2FE072206A914F1100002F0BDFF45
S31508000E200128DED19DF80800E17B8842D9D1062247
S31508000E30DFF8BC1B04A802F0B0FF00288DD1019989
S31508000E4004A800F0F1FC002887D10DF10E01DFF8A7
S31508000E50A40B02F017FF80464FF4807200994046B3
S31508000E6004F0CAFE98F8160050F0800088F81600BC
S31508000E704FF480720099404604F08DFE0DF10E0283
S31508000E804146DFF8700B02F020FF5FF0010980E7AA
S31508000E90183D0020F83A00202DE9F0478CB00400F0
S31508000EA00D00002600200021ADF80C1000275FF089
S31508000EB0000800218DF808105FF000095FF0000AAD
S31508000EC007A98A4668218AF800101AF1010A8AF8E1
S31508000ED000201AF1010A00210E0006E0F6B2305D84
S31508000EE08AF800001AF1010A761CF6B2072EF5DB1D
S31508000EF001208AF800001AF1010A03208AF8000086
S31508000F001AF1010A1F208AF800001AF1010A902036
S31508000F108AF800001AF1010A01208AF800001AF17D
S31508000F20010A0E2107A8FFF79CFA8AF800001AF1B1
S31508000F30010A16208AF800001AF1010A002604E0C0
S31508000F40FE20F6B204A97054761CF6B2042EF7DB1E
S31508000F50002617E0C0B2C119897BC0B204AA815421
S31508000F60C0B2C119C97CC0B205AA8154401CC0B21E
S31508000F700428EFDB0DF10A023900DFF8780A02F0DF
S31508000F80A4FE761C5FFA88F8B8F1000F30D1F6B2E5
S31508000F90032E2DDA042104A803F0B7F9102107A8B7
S31508000FA003F0B3F90DF10A00019006A8009003AB0F
S31508000FB000224FF49661DFF8740D02F087FF0700F0
S31508000FC0BDF80A00002805D0F6B2022E01D15FF05E
S31508000FD00008D6E70722B91C200002F0DEFE012829
S31508000FE0C8D15FF00108F87F8DF808000020BEE739
S31508000FF00DF10A01DFF8FC0902F044FE81464FF4C0
S3150800100080722900484604F0F7FD5FFA88F8B8F1BF
S31508001010000F0CD199F8160050F0400089F8160018
S315080010204FF480722900484604F0B5FD17E0012206
S3150800103002A919F1160004F03BFB042204A919F1D0
S315080010400E0004F035FB042205A919F1180004F076
S315080010502FFB4FF480722900484604F09CFD0DF1E1
S315080010600A024946DFF88C0902F02FFE0CB0BDE8EB
S31508001070F08700001C3B0020D43A0020F03B0020FB
S315080010800A3D0020F43C0020F83C00205CAF000834
S31508001090403B002068AF00080C3C002030B0000838
S315080010A038B0000840B0000848B00008143D0020D9
S315080010B0B83B0020153D0020D43B0020173D0020FA
S315080010C02DE9F54F8DB00025002006905FF0000948
S315080010D00020ADF81C000020ADF814000020ADF883
S315080010E016000020ADF8000000208DF8080000204A
S315080010F0ADF80A0000270020089000200390002081
S315080011008DF8070000208DF8060000240020ADF8B1
S3150800111012005FF0000A5FF000080020ADF8040036
S3150800112000265FF0000B00208DF80000039104A94B
S31508001130DFF8C00802F0A6FD0500002D00F0C68005
S3150800114006959DF83400002840F0C88007220398C9
S31508001150811D0BA804F050FD0122039810F10D0122
S315080011600DF1070004F048FD0422039810F10E0162
S3150800117009A804F041FD0122039810F116010DF1AA
S31508001180060004F039FD682028706D1CA9467320F6
S31508001190A9F8000019F102097320A9F8000019F14D
S315080011A002094D46682028706D1C882028706D1C21
S315080011B0DFF89004007828706D1CDFF88804407802
S315080011C028706D1CDFF87C04807828706D1CDFF8A9
S315080011D07404C07828706D1CDFF8680400792870DC
S315080011E06D1C0B2028706D1CDFF85404007850F035
S315080011F0600028706D1C042028706D1CDFF8400400
S315080012000078DFF8341D0870FFF725FB00202870EA
S315080012106D1C002028706D1C002028706D1C002095
S3150800122028706D1C9DF8070028706D1C002405E0C9
S31508001230A4B20BA8205C28706D1C641CA4B2072CF1
S31508001240F6DB012028706D1C002405E0A4B209A86D
S31508001250205C28706D1C641CA4B2042CF6DB9DF877
S31508001260060028706D1C002028706D1C1C2106982D
S31508001270801DFFF7F6F828706D1C162028706D1C67
S315080012809DF83800002824D05FF0000A01E01AF122
S31508001290010A5FFA8AFABAF1030F11DA24210698CD
S315080012A004F06BF804A800900AAB002241F28831DA
S315080012B0DFF88C0C03F07BF9BDF810000028E6D1A6
S315080012C004AA0699DFF82C0702F0FFFC0FB0BDE868
S315080012D0F08F2421069803F018F8F1E70222DFF8C8
S315080012E004170DF1160004F087FC0222DFF8541CDF
S315080012F005A804F081FC0322DFF8EC1608A804F020
S315080013007BFCBDF814000A2190FBF1F0ADF8000053
S31508001310BDF814000A2190FBF1F201FB12008DF8CA
S3150800132008000027BDF80000ADF80A009DF808007F
S31508001330002804D0BDF80A00401CADF80A000024B5
S3150800134006E003220898C11C08A804F055FC641C92
S31508001350BDF81600A4B28442B2D20322089810F14E
S315080013600C0103A804F048FC0222089810F11201A7
S3150800137007A804F041FC0020ADF8120015E0BDF8FE
S3150800138004000E21484310F1160189B2069802F0AE
S31508001390BCFF069D03220398C11C03A804F02CFC7D
S315080013A0BDF81200401CADF81200BDF81200BDF8D9
S315080013B01C108842C5D207220398811D0BA804F089
S315080013C01BFC0122039810F10D010DF1070004F032
S315080013D013FC0422039810F10E0109A804F00CFC72
S315080013E00122039810F116010DF1060004F004FC21
S315080013F0F6B2002E40F0B58001267F1CBDF80A0023
S3150800140001280CD1BDF81480ADF80480BDF804009D
S315080014100E2148430E30800050F0030B36E0BFB271
S31508001420012F0CD15FF00A08ADF80480BDF804005E
S315080014300E2148430E30800050F0030B26E0BDF81D
S315080014400A00BFB2874215D19DF80800002804D1CA
S315080014505FF00A08ADF8048003E09DF80880ADF84F
S315080014600480BDF804000E2148430E30800050F079
S31508001470030B0BE05FF00A08ADF80480BDF8040022
S315080014800E2148430E30800050F0030B6820287068
S315080014906D1CA946A9F800B019F10209A9F800B00F
S315080014A019F102094D46682028706D1C882028709D
S315080014B06D1C6448007828706D1C62484078287056
S315080014C06D1C6048807828706D1C5E48C07828704E
S315080014D06D1C5C48007928706D1C0B2028706D1CEB
S315080014E0BDF80A00012806D15548007850F070006A
S315080014F028706D1C1BE0BFB2012F06D1504800783A
S3150800150050F0500028706D1C11E0BDF80A00BFB2FB
S31508001510874206D14A48007850F0300028706D1C82
S3150800152005E04748007850F0100028706D1C4448C4
S315080015300078DFF8041A0870FFF78DF90420287080
S315080015406D1CA946BDF80A00A9F8000019F10209A0
S31508001550A9F8007019F102094D469DF80700287090
S315080015606D1C5FF0000A08E05FFA8AFA0BA81AF801
S31508001570000028706D1C1AF1010A5FFA8AFABAF19E
S31508001580070FF1DB012028706D1C5FF0000A08E0E8
S315080015905FFA8AFA09A81AF8000028706D1C1AF171
S315080015A0010A5FFA8AFABAF1040FF1DB9DF8060020
S315080015B028706D1C002028706D1CB8F101081FFAF0
S315080015C088F8B8F1000F7FF4E5AE0026BDF80400F0
S315080015D00E21484310F10E0189B20698801DFEF7C8
S315080015E040FF28706D1C162028706D1C9DF8380069
S315080015F000283FF4C4AE5FF0000A01E01AF1010AC0
S315080016005FFA8AFABAF1030FBFF6C3AEBDF8040053
S315080016100E21484310F1160189B2069803F0ADFE73
S3150800162004A800900AAB002241F28831DFF81009BD
S3150800163002F0BDFFBDF810000028DFD1A9E60000C2
S31508001640163D0020903C0020CA0000202DE9F047F6
S315080016508AB004000D0000200390002002900020AC
S31508001660ADF806000020ADF810000026002700207F
S315080016708DF804005FF000085FF000095FF0000ACB
S315080016800222D8490DF1060004F0B6FA0322D6491B
S3150800169003A804F0B1FABDF80600002800F0BD80E2
S315080016A0012002F009FF00261FE05FFA8AFACDF84A
S315080016B000A02B00DBB29DF80420029908A800F0D0
S315080016C037FB0622CA4906A802F067FB002803D1A1
S315080016D0039906A800F090F95FF001080322039821
S315080016E0C11C03A804F088FA761C5FFA88F8B8F1DA
S315080016F0000F40F08F80BDF80600B6B2864280F033
S31508001700898006220398811D06A804F075FA03222B
S31508001710039810F10C0102A804F06EFA022203984D
S3150800172010F1120104A804F067FA002706E0032264
S315080017300298C11C02A804F05FFA7F1CBDF81000CD
S31508001740BFB28742CAD207220298811D08A804F0B0
S3150800175053FA0122029810F10D0101A804F04CFA7F
S31508001760072208A914F1100002F017FB0128DED1A0
S315080017709DF80400E17B8842D9D106229C4906A837
S3150800178002F00BFB002826D1039906A800F04CF8B6
S31508001790002820D10DF11201964802F073FA81460D
S315080017A04FF480720299484604F026FA99F8160012
S315080017B050F0800089F816004FF480720299484666
S315080017C004F0E9F90DF1120249468A4802F07DFA59
S315080017D05FF0010882E70222029810F1160105A8B7
S315080017E004F00AFA607B0F2101FB00FAA07B0228AD
S315080017F03FF45BAF03287FF464AF5FFA8AFACDF84B
S3150800180000A02B00DBB29DF80420029908A800F07E
S31508001810B5F956E7002002F04FFE0AB0BDE8F0879A
S3150800182000080140000C01402DE9F0478AB0040089
S315080018300D0000260020ADF80A0000275FF000081A
S3150800184000205FF000095FF0000ADFF8AC1C097899
S31508001850AA291AD12078012806D014D303280BD038
S3150800186006D304280CD00EE00120FFF72DF90AE074
S315080018700120FFF743F906E00120FFF759F902E0D6
S315080018800120FFF76FF90120A9E00DF1100A682081
S315080018908AF800001AF1010AA0208AF800001AF155
S315080018A0010A002606E0F6B2305D8AF800001AF151
S315080018B0010A761CF6B2062EF5DB00208AF800002F
S315080018C01AF1010A04208AF800001AF1010A042014
S315080018D08AF800001AF1010A90208AF800001AF125
S315080018E0010AA0208AF800001AF1010A01208AF8E4
S315080018F000001AF1010A55208AF800001AF1010AB7
S315080019000F2104A8FEF7ADFD8AF800001AF1010AB6
S3150800191016208AF800001AF1010A002608E05FF08E
S31508001920000802AA3900DFF8B80502F0CEF9761CDD
S315080019305FFA88F8B8F1000F2CD1F6B2032E29DA2F
S31508001940112104A802F0E1FC02A8019003A8009066
S315080019500DF10A03002240F6B831DFF8D00302F091
S31508001960B5FA0700BDF80800002805D0F6B2022E21
S3150800197001D15FF00008DAE70622B91C200002F060
S315080019800CFA0128CDD1B87B03210842C7D15FF0F4
S315080019900108C6E75FFA88F8B8F1000F1DD102A959
S315080019A0DFF83C0502F06EF981464FF48072290093
S315080019B0484604F021F901226FA119F1170003F036
S315080019C077FE4FF480722900484604F0E4F802AA2C
S315080019D04946DFF80C0502F078F94046C0B20AB06D
S315080019E0BDE8F087A3F01F00A0F01F0050B0000864
S315080019F058B00008443C00202DE9F0418AB00500A3
S31508001A000C000026DFF8F00A0078AA281AD12878F0
S31508001A10012806D014D303280BD006D304280CD0EB
S31508001A200EE00020FFF750F80AE00020FFF766F8FE
S31508001A3006E00020FFF77CF802E00020FFF792F8A6
S31508001A40012095E004AF682038707F1CA02038700C
S31508001A507F1C5FF0000807E05FFA88F818F80500B1
S31508001A6038707F1C18F101085FFA88F8B8F1060F7C
S31508001A70F2DB002038707F1C042038707F1C04209D
S31508001A8038707F1C902038707F1CA02038707F1C0F
S31508001A90012038707F1C992038707F1C0F2104A8FC
S31508001AA0FEF7DFFC38707F1C162038707F1C5FF04D
S31508001AB0000808E0002602AA3900DFF8240402F02C
S31508001AC004F918F10108F6B2002E2FD15FFA88F84A
S31508001AD0B8F1030F2ADA112104A802F016FC02A8AD
S31508001AE0019003A800900DF10A03002240F6B831D0
S31508001AF08E4802F0EBF90700BDF80800002806D06A
S31508001B005FFA88F8B8F1020F00D10026D9E7062255
S31508001B10B91C280002F041F90128CCD1B87BC0B223
S31508001B2010F003000228C5D10126C4E7F6B2002E3C
S31508001B301CD102A9DFF8A80302F0A4F805004FF4A7
S31508001B4080722100280004F057F801220AA115F135
S31508001B50170003F0ADFD4FF480722100280004F051
S31508001B601AF802AA2900DE4802F0AFF83000C0B21F
S31508001B700AB0BDE8F0810000010000002DE9F04F31
S31508001B808BB004000D001E0000270020ADF80A00E7
S31508001B905FF000085FF0000900205FF0000A5FF0C0
S31508001BA0000B05A98B4668218BF800101BF1010B69
S31508001BB08BF800201BF1010B00210F0006E0FFB295
S31508001BC0385D8BF800001BF1010B7F1CFFB2072F55
S31508001BD0F5DB04208BF800001BF1010B04208BF8C1
S31508001BE000001BF1010B17208BF800001BF1010BFD
S31508001BF0A0208BF800001BF1010B01208BF80000D8
S31508001C001BF1010B55208BF800001BF1010B0F216E
S31508001C1005A8FEF726FC8BF800001BF1010B162021
S31508001C208BF800001BF1010B002704E0FE20FFB231
S31508001C3003A978547F1CFFB2042FF7DB002707E0BF
S31508001C405FF0000902AA4146A54802F03EF87F1C4B
S31508001C505FFA89F9B9F1000F31D1FFB2032F2EDAF5
S31508001C60042103A802F051FB112105A802F04DFB3F
S31508001C7002A8019004A800900DF10A03002244F678
S31508001C8020612A4802F022F98046BDF8080000289B
S31508001C9005D0FFB2022F01D15FF00009D7E707226E
S31508001CA018F10201200002F078F80128CAD198F844
S31508001CB00E0003210842C3D15FF00109C2E702A959
S31508001CC0874801F0DFFF82464FF4807229005046AC
S31508001CD003F092FF5FFA89F9B9F1000F0CD19AF86F
S31508001CE0160050F040008AF816004FF4807229005A
S31508001CF0504603F050FF10E0012290A11AF1160099
S31508001D0003F0D6FC4FF480722900504603F043FFD7
S31508001D1014993000C0B200F09DFF02AA51467048DF
S31508001D2001F0D3FF0BB0BDE8F08F0000F83A0020B1
S31508001D302DE9F04F8BB004000D001E00002700208F
S31508001D40ADF80A005FF000085FF0000900205FF0B8
S31508001D50000A5FF0000B05A98B4668218BF8001076
S31508001D601BF1010B8BF800201BF1010B00210F0062
S31508001D7006E0FFB2385D8BF800001BF1010B7F1CF3
S31508001D80FFB2072FF5DB04208BF800001BF1010BCF
S31508001D9004208BF800001BF1010B17208BF80000BC
S31508001DA01BF1010BA0208BF800001BF1010B012091
S31508001DB08BF800001BF1010B99208BF800001BF132
S31508001DC0010B0F2105A8FEF74CFB8BF800001BF151
S31508001DD0010B16208BF800001BF1010B002704E00D
S31508001DE0FE20FFB203A978547F1CFFB2042FF7DB4D
S31508001DF0002707E05FF0000902AA4146384801F0CB
S31508001E0064FF7F1C5FFA89F9B9F1000F32D1FFB27E
S31508001E10032F2FDA042103A802F077FA112105A867
S31508001E2002F073FA02A8019004A800900DF10A03C3
S31508001E30002244F62061DFF8200D02F047F88046BC
S31508001E40BDF80800002805D0FFB2022F01D15FF0C7
S31508001E500009D6E7072218F10201200001F09DFFCC
S31508001E600128C9D198F80E00C0B28007C2D55FF024
S31508001E700109C1E702A91A4801F004FF82464FF496
S31508001E8080722900504603F0B7FE5FFA89F9B9F166
S31508001E90000F0CD19AF8160050F040008AF8160088
S31508001EA04FF480722900504603F075FE10E00122B7
S31508001EB025A11AF1160003F0FBFB4FF480722900E6
S31508001EC0504603F068FE14993000C0B200F0C2FE16
S31508001ED002AA5146024801F0F8FE0BB0BDE8F08FA1
S31508001EE0443C00201FB50CE0BDF80800015D200049
S31508001EF000F034FE0DF10A022100DFF8F80D01F0BA
S31508001F00E4FE0DF10A00019003A8009002AB00223E
S31508001F100021DFF8E40D01F0D9FF0400207B032837
S31508001F2002D00A28E0D0E5E7BDF80800015D2000E8
S31508001F3000F00CF8DEE70000153D00200000000068
S31508001F40D43B0020B3F01F00020000002DE9F04149
S31508001F5086B004000D0000260020ADF8060000201B
S31508001F600090002004905FF00008607B0F2101FBC1
S31508001F7000F7A07B02280CD0032800F0DB80062897
S31508001F8000F01981072800F04A810C2800F08681A4
S31508001F90B6E1A07CDFF8641D0870607CDFF8601D80
S31508001FA00870207CDFF85C1D0870E07BDFF8581DA0
S31508001FB00870B4F81300DFF8541D08801121DFF803
S31508001FC0500D01F0B7FE062102A801F0B3FEA27C6F
S31508001FD0CDA102A804F00EF902A9DFF8340D03F02A
S31508001FE054FACAA1DFF8280D03F04FFA062102A811
S31508001FF001F0A0FE627CC4A102A804F0FBF802A9C5
S31508002000DFF80C0D03F041FAC0A1DFF8040D03F068
S315080020103CFA062102A801F08DFE227CBAA102A88C
S3150800202004F0E8F802A9DFF8E80C03F02EFAB7A1E5
S31508002030DFF8DC0C03F029FA062102A801F07AFE83
S31508002040E27BB1A102A804F0D5F802A9DFF8C00C1A
S3150800205003F01BFA0821DFF8BC0C01F06BFE062121
S3150800206002A801F067FEB4F81320A7A102A804F09D
S31508002070C1F8A7A1DFF89C0C03F007FA02A9DFF85C
S31508002080940C03F002FAA3A1DFF8880C03F0FDF91B
S3150800209001A9DFF8600C01F0F5FD04004FF4807229
S315080020A0DFF8B81D200003F0A7FD1122DFF8601C39
S315080020B014F1500003F0FCFA0822DFF8581C14F15A
S315080020C0700003F0F5FA0122DFF8301C14F16F00F6
S315080020D003F0EEFA0122DFF8281C14F16E0003F073
S315080020E0E7FA0122DFF81C1C14F16D0003F0E0FA90
S315080020F00122DFF8141C14F16C0003F0D9FA02224D
S31508002100DFF8081C14F17E0003F0D2FA4FF480724F
S31508002110DFF8481D200003F03EFD01AA2100DFF884
S31508002120D40B01F0D2FD3900C9B22800C0B200F0C4
S3150800213091FDE5E00521DFF8280D01F0FBFDE07BC8
S31508002140DFF81C1D0870207CDFF8141D4870607CC1
S31508002150DFF80C1D8870A07CDFF8041DC870E07CD1
S31508002160DFF8FC1C087101A9DFF8880B01F08AFD6D
S3150800217004004FF48072DFF8E41C200003F03CFDF5
S315080021800522DFF8DC1C14F1800003F091FA4FF405
S315080021908072DFF8C81C200003F0FDFC01AA2100AC
S315080021A0DFF8500B01F091FD3900C9B22800C0B222
S315080021B000F050FDA4E014F1190000F0F7FA0090C1
S315080021C014F11201009800F0A7F8804600987FF0F5
S315080021D07F41884222D0E07F00280DD17FF07F40E2
S315080021E0804503D04146009800F088F93900C9B205
S315080021F02800C0B200F02EFDE07F01280ED17FF046
S315080022007F40804504D114F11201009800F0BAF815
S315080022103900C9B22800C0B200F01CFD70E0E07BAE
S31508002220AA2825D10222DFF83C1C0DF1060003F08E
S31508002230E3FC0322DFF8301C00A803F0DDFC0026CF
S315080022400BE003220098C11C04A803F0D5FC0098F3
S3150800225000F05DFB04980090761CBDF80600B6B247
S315080022608642EED33900C9B22800C0B200F0F2FCAB
S31508002270E07B552811D114F1100000F097FA7FF091
S315080022807F41884203D114F1100000F0C1FA3900E9
S31508002290C9B22800C0B200F0DDFC31E0E07BAA2814
S315080022A002D1AA2094490870E07BFF2802D1FF20BA
S315080022B09149087001A9DFF83C0A01F0E3FC040023
S315080022C04FF48072DFF8941B200003F095FC01227E
S315080022D0894914F1C00003F0EBF94FF48072DFF876
S315080022E07C1B200003F057FC01AA2100DFF8040A32
S315080022F001F0EBFC3900C9B22800C0B200F0AAFC14
S3150800230006B0BDE8F0810000256400002E0000003C
S315080023102C0000000D00000030B585B005000C004B
S31508002320002000900020ADF80400022215F11201E9
S3150800233001A803F061FC032215F10C0100A803F0C3
S315080023405BFC002506E003220098C11C00A803F0E8
S3150800235053FC6D1CBDF80400ADB285420ED20722AF
S315080023600098811D02A803F047FC072202A9200055
S3150800237001F013FD0128E6D1009801E07FF07F40C7
S3150800238005B030BD70B586B004000D00002002907F
S315080023900020019000260020ADF800000020ADF8CE
S315080023A0020000200390022214F1120100A803F093
S315080023B023FC0222DFF8B41A0DF1020003F01CFC1C
S315080023C0032214F10F0102A803F016FCBDF8000061
S315080023D0401CADF80000BDF80200401CADF8020034
S315080023E003F067FD019007220198811D280003F07C
S315080023F0A4FB0122019810F10D01E81E03F09DFBD4
S315080024000422019810F10E0103A803F096FB02229C
S31508002410019810F1160103A803F08FFB04A9DFF851
S31508002420D40801F02FFC060002987FF07F4188420D
S315080024301ED1032214F10C0101A803F07EFB03222E
S3150800244014F10F0101A803F078FB4FF48072210004
S31508002450300003F0D1FB022200A916F1120003F0A6
S3150800246027F94FF480722100300003F094FB24E032
S315080024704FF480722100300003F0BEFB032201A94D
S3150800248016F10F0003F014F9022200A916F1120042
S3150800249003F00EF94FF480722100300003F07BFB45
S315080024A003220298C11C01A803F047FB03220198E6
S315080024B010F1120102A803F040FB4FF48072DFF816
S315080024C09C19300003F098FB02220DF1020116F167
S315080024D0B30003F0EDF84FF48072DFF8801930008E
S315080024E003F059FB04AA3100DFF8080801F0EDFBF8
S315080024F0019806B070BD0000CA0000207FB5040030
S315080025000D00002002900020019000260020ADF862
S3150800251000000020ADF80200022214F1120100A802
S3150800252003F06AFB0222DFF844190DF1020003F0FA
S3150800253063FB0322E91C02A803F05EFB032215F1E4
S31508002540120101A803F058FBBDF80000401EADF8C3
S315080025500000BDF80200401EADF80200280003F096
S3150800256008FD03A9DFF88C0701F08CFB0600BDF80F
S315080025700000002833D14FF480722100300003F0A8
S315080025803BFB032202A916F10C0003F091F8022284
S3150800259000A916F1120003F08BF8032201A916F11F
S315080025A00F0003F085F84FF480722100300003F025
S315080025B0F2FA4FF48072DFF8A418300003F01CFB1F
S315080025C002220DF1020116F1B30003F071F84FF47F
S315080025D08072DFF88818300003F0DDFADDE0019834
S315080025E07FF07F41884205D002987FF07F4188427C
S315080025F040F0898001987FF07F4188423ED14FF4B0
S3150800260080720299300003F0F7FA032201A916F145
S31508002610120003F04DF84FF480720299300003F06F
S31508002620BAFA4FF480722100300003F0E5FA03226B
S3150800263002A916F10C0003F03BF8022200A916F1D4
S31508002640120003F035F84FF480722100300003F0D1
S31508002650A2FA4FF48072DFF80418300003F0CCFABF
S3150800266002220DF1020116F1B30003F021F84FF42E
S315080026708072DFF8E817300003F08DFA02987FF0D1
S315080026807F41884240F089804FF48072019930007A
S3150800269003F0B2FA032202A9F01C03F009F84FF47A
S315080026A080720199300003F076FA4FF480722100A7
S315080026B0300003F0A1FA032201A916F10F0002F077
S315080026C0F7FF022200A916F1120002F0F1FF4FF4FB
S315080026D080722100300003F05EFA4FF48072DFF852
S315080026E07C17300003F088FA02220DF1020116F178
S315080026F0B30002F0DDFF4FF48072DFF86017300098
S3150800270003F049FA49E04FF480720199300003F06A
S3150800271073FA032202A9F01C02F0CAFF4FF4807272
S315080027200199300003F037FA4FF4807202993000AD
S3150800273003F062FA032201A916F1120002F0B8FFAB
S315080027404FF480720299300003F025FA4FF4807234
S315080027502100300003F050FA022200A916F11200F7
S3150800276002F0A6FF4FF480722100300003F013FA3E
S315080027704FF48072DFF8E416300003F03DFA0222C7
S315080027800DF1020116F1B30002F092FF4FF48072C8
S31508002790DFF8C816300003F0FEF903AA3100DFF8A7
S315080027A0540501F092FA280004B070BD30B585B022
S315080027B00400002000900222DFF8A81601A803F002
S315080027C01BFA0322DFF8A01600A803F015FA002565
S315080027D006E003220098C11C00A803F00DFA6D1C40
S315080027E0BDF80400ADB285420ED206220098811DBE
S315080027F002A803F001FA062202A9200001F0CDFA88
S315080028000128E6D1009801E07FF07F4005B030BD91
S3150800281030B585B004000020029000200090002505
S315080028200020ADF804000020ADF80C000222DFF805
S31508002830341601A803F0E0F90322DFF8E81C02A821
S3150800284003F0DAF9BDF80400401CADF8040003F003
S3150800285030FB009006220098811D200003F06DF9D8
S315080028600222009810F1120103A803F066F90DF18F
S315080028700601DFF8800401F005FA05004FF48072BE
S31508002880DFF8D815280003F0B7F902987FF07F41E2
S31508002890884212D1032200A915F1A00002F008FF10
S315080028A0022201A915F1A30002F002FF032200A9E2
S315080028B015F1A50002F0FCFE18E0022201A915F1A7
S315080028C0A30002F0F5FE032200A915F1A50002F007
S315080028D0EFFE03220298C11C00A803F02EF903227A
S315080028E0009810F1140102A803F027F94FF480723A
S315080028F0DFF86815280003F04EF90DF106022900E5
S31508002900DFF8F00301F0E1F9009805B030BD70B5C5
S3150800291086B004000020ADF80200002003900020D5
S31508002920049000200290002001900020ADF80000DD
S3150800293000250026022214F112010DF1020003F00F
S315080029405BF9032214F10C0103A803F055F90322DD
S31508002950E11C02A803F050F9032214F1140101A89E
S3150800296003F04AF90222DFF8FC1400A803F044F940
S31508002970BDF80000401EADF80000002005000CE080
S3150800298003220398C11C04A803F036F90399200012
S31508002990FFF7B4FD049803906D1CBDF80200ADB2B4
S315080029A08542EDD3200003F0E4FA05A9DFF8C00458
S315080029B001F068F90600BDF80000002820D14FF4A0
S315080029C08072DFF89814300003F016F9032202A982
S315080029D016F1A00002F06CFE022200A916F1A3006F
S315080029E002F066FE032201A916F1A50002F060FEB8
S315080029F04FF48072DFF86414300003F0CCF8A2E0DC
S31508002A0001987FF07F41884204D002987FF07F4189
S31508002A10884261D101987FF07F4188422BD14FF4DB
S31508002A2080720299300003F0E7F8032201A916F133
S31508002A30140002F03DFE4FF480720299300003F054
S31508002A40AAF84FF48072DFF81414300003F0D4F8B3
S31508002A50032202A916F1A00002F02AFE022200A90A
S31508002A6016F1A30002F024FE4FF48072DFF8EC138F
S31508002A70300003F090F802987FF07F41884262D1D7
S31508002A804FF480720199300003F0B6F8032202A9C8
S31508002A90F01C02F00DFE4FF480720199300003F02D
S31508002AA07AF84FF48072DFF8B413300003F0A4F814
S31508002AB0022200A916F1A30002F0FAFD032201A9D9
S31508002AC016F1A50002F0F4FD4FF48072DFF88C13BE
S31508002AD0300003F060F836E04FF480720199300058
S31508002AE003F08AF8032202A9F01C02F0E1FD4FF474
S31508002AF080720199300003F04EF84FF48072029903
S31508002B00300003F079F8032201A916F1140002F047
S31508002B10CFFD4FF480720299300003F03CF84FF471
S31508002B208072DFF83813300003F066F8022200A935
S31508002B3016F1A30002F0BCFD4FF48072DFF81C13F7
S31508002B40300003F028F805AA3100DFF8240301F065
S31508002B50BCF8200006B070BDF83A002080B50A001F
S31508002B60417B0F235943837B022B08D0032B0CD0C0
S31508002B70062B10D0072B17D00C2B1BD01FE0C9B281
S31508002B801000C0B200F056FC19E0C9B21000C0B27D
S31508002B9000F0F5FB13E00B00DBB2D2B210F1100126
S31508002BA0C07B00F067F90AE0C9B21000C0B200F0B5
S31508002BB0B3F804E0C9B21000C0B200F0B5FC01BD1C
S31508002BC0E0B51FE04FF48071DFF8780A02F009FFDC
S31508002BD002A8019000200090002301220021002075
S31508002BE001F09AFE4FF48071DFF8580A02F0FCFEF5
S31508002BF002A8019000200090002301220021002055
S31508002C0001F08AFEDFF8400A00780028DAD04FF48F
S31508002C108071DFF8300A02F0E4FE02A80190002075
S31508002C2000904FF4FA7300220021002001F074FE90
S31508002C304FF48071DFF80C0A02F0D6FE02A8019064
S31508002C40002000904FF4FA7300220021002001F0C2
S31508002C5063FED7E730B585B0040000AD682028705C
S31508002C606D1C272028706D1C002028706D1C2720DD
S31508002C7028706D1C002028706D1C682028706D1C3B
S31508002C80802028706D1C7648007828706D1C744862
S31508002C90407828706D1C7248807828706D1C7048C2
S31508002CA0C07828706D1C6E48007928706D1C00204D
S31508002CB028706D1C51F0600028706D1C012028706A
S31508002CC06D1C09210DF10600FDF7CBFB28706D1C64
S31508002CD0162028706D1CE4B2002C04D0112100A81F
S31508002CE002F04BFB03E0112100A801F00EFB05B032
S31508002CF030BD0000443C00201C3B0020C6000020DC
S31508002D00C7000020C8000020C9000020C400002019
S31508002D106C000020B4000020F0B585B004000F0058
S31508002D200DF10201524800F0ADFF0600002E00F03A
S31508002D309380350003224C4901A802F05DFF022268
S31508002D40DFF8EC1600A802F057FF68203070761CF2
S31508002D50BDF80000062148430930800050F0030002
S31508002D603080B61CBDF800000621484309308000B3
S31508002D7050F003003080B61C68203070761C88201E
S31508002D803070761C364800783070761C34484078A7
S31508002D903070761C324880783070761C3048C0789F
S31508002DA03070761C2E4800793070761C0A203070F8
S31508002DB0761C57F060003070761C07203070761C41
S31508002DC000270FE0C0B202A9415C3170761C401C96
S31508002DD0C0B20628F6DB03220198C11C01A802F03E
S31508002DE00BFF7F1CBDF80000BFB2874207D2062240
S31508002DF00198811D02A802F0FFFE0020E8E7BDF851
S31508002E0000000621484310F1090189B2A81DFDF703
S31508002E1028FB3070761C16203070761CE4B2002C25
S31508002E200AD0BDF800000621484310F1110189B205
S31508002E30280002F0A2FA09E0BDF80000062148437E
S31508002E4010F1110189B2280001F05FFA0DF10202B2
S31508002E502900074800F039FF05B0F0BD00F01F0053
S31508002E60903C0020A3F01F00A0F01F00B3F01F0045
S31508002E70443C00202DE9FF4F8BB05FF0000A5FF05D
S31508002E800008002500265FF0000B5FF0000900200F
S31508002E90ADF8000000270222DFF894150DF10A00AC
S31508002EA002F0AAFE0222DFF8A81704A802F0A4FE80
S31508002EB00322DFF8A01703A802F09EFEBDF80A0059
S31508002EC0002800F059820DF11A01DFF88C0700F08E
S31508002ED0D9FE0400002C00F04F8205940722DFF883
S31508002EE07C170C9800F059FF012840F07081BDF856
S31508002EF010000A2190FBF1F0BDF810100A2291FB90
S31508002F00F2F302FB13118DF802105FF00008ADF81A
S31508002F1008009DF80200002804D0BDF80800401CEF
S31508002F20ADF80800002506E003220398C11C03A893
S31508002F3002F062FE6D1CBDF80A00ADB2854280F053
S31508002F40158206220398811D09A802F055FE032260
S31508002F50039810F10C0101A802F04EFE0222039814
S31508002F6010F112010DF1120002F046FE002611E0E2
S31508002F70BDF800001121484310F1120189B20598E5
S31508002F8001F0C3F9059C03220198C11C01A802F0AF
S31508002F9033FE761CBDF81200B6B28642C4D20722AA
S31508002FA00198811D07A802F027FE0122019810F159
S31508002FB00D010DF1030002F01FFE0122019810F128
S31508002FC0150106A802F018FEFFB2002F40F0A880EF
S31508002FD0012718F1010868202070641CBDF8080054
S31508002FE001280CD1BDF81090ADF80090BDF800008E
S31508002FF0112148430A30800050F0030A39E01FFACD
S3150800300088F8B8F1010F0CD15FF00A09ADF8009005
S31508003010BDF80000112148430A30800050F0030A29
S3150800302027E0BDF808001FFA88F8804515D19DF8F5
S315080030300200002804D15FF00A09ADF8009003E009
S315080030409DF80290ADF80090BDF8000011214843A4
S315080030500A30800050F0030A0BE05FF00A09ADF869
S315080030600090BDF80000112148430A30800050F056
S31508003070030AA4F800A0A41CA4F800A0A41C6820B5
S315080030802070641C88202070641CDFF8C005007856
S315080030902070641CDFF8B40540782070641CDFF8E3
S315080030A0AC0580782070641CDFF8A005C078207015
S315080030B0641CDFF8980500792070641C0A202070CB
S315080030C0641CBDF80800012806D19DF8380050F0A8
S315080030D060002070641C1CE01FFA88F8B8F1010F24
S315080030E006D19DF8380050F040002070641C10E0AE
S315080030F0BDF808001FFA88F8804506D19DF8380003
S3150800310050F020002070641C03E09DF83800207001
S31508003110641C06202070641C9DF82C002070641C1A
S3150800312000202070641C00202070641C5FF0000BD7
S3150800313008E05FFA8BFB07A81BF800002070641CE8
S315080031401BF1010B5FFA8BFBBBF1070FF1DB5FF09D
S31508003150000B08E05FFA8BFB09A81BF8000020703B
S31508003160641C1BF1010B5FFA8BFBBBF1060FF1DB4D
S3150800317000202070641C01202070641CB9F101092C
S315080031801FFA89F9B9F1000F7FF4FDAE0027BDF8E3
S3150800319000001121484310F10A0189B20598801DE3
S315080031A0FDF75FF92070641C16202070641C9DF8DA
S315080031B0340000283FF4DCAEBDF800001121484376
S315080031C010F1120189B2059802F0D7F8DAE600255F
S315080031D030E003220198C11C01A802F00DFD761CFF
S315080031E0BDF81200B6B2864223D207220198811D85
S315080031F007A802F001FD0122019810F10D010DF159
S31508003200030002F0F9FC072207A90C9800F0C5FD97
S315080032100128DED19DF803009DF82C108842D8D1EC
S315080032200122019810F1150106A802F0E5FC5FF0ED
S3150800323001086D1C5FFA88F8B8F1000F1BD1BDF8BC
S315080032400A00ADB2854216D206220398811D09A846
S3150800325002F0D2FC0322039810F10C0101A802F037
S31508003260CBFC0222039810F112010DF1120002F0B4
S31508003270C3FC0026B4E75FFA88F8B8F1000F75D0EA
S3150800328068202070641C6F202070641C0020207049
S31508003290641C6F202070641C00202070641C682049
S315080032A02070641C88202070641CDFF8A003007856
S315080032B02070641CDFF8940340782070641CDFF8E3
S315080032C08C0380782070641CDFF88003C078207037
S315080032D0641CDE4800792070641C0A202070641C77
S315080032E09DF8380050F060002070641C062020709D
S315080032F0641C9DF82C002070641C00202070641C3F
S3150800330000202070641C002505E0ADB207A8285CE3
S315080033102070641C6D1CADB2072DF6DB002505E098
S31508003320ADB209A8285C2070641C6D1CADB2062DD0
S31508003330F6DB00202070641C01202070641C1B2111
S315080033400598801DFDF78DF82070641C16202070E6
S31508003350641C9DF83400002804D02321059802F047
S315080033600CF803E02321059800F0CFFF0DF11A02AF
S315080033700599B94800F0A9FC0FB0BDE8F08FF8B57B
S3150800338004000D0000A9B44800F07CFC0700002FDB
S315080033904DD03E00682038707F1C272038707F1C6F
S315080033A0002038707F1C272038707F1C002038705A
S315080033B07F1C682038707F1C882038707F1CA348C3
S315080033C0007838707F1CA148407838707F1C9F4869
S315080033D0807838707F1C9D48C07838707F1C9B4861
S315080033E0007938707F1C0A2038707F1C55F0600001
S315080033F038707F1C032038707F1C0921B01DFDF72B
S3150800340030F838707F1C162038707F1CE4B2002C08
S3150800341004D01121300001F0B0FF03E01121300083
S3150800342000F073FF00AA31008B4800F04EFCF1BD96
S31508003430A3F01F002DE9F04182B004000D0000271B
S3150800344000265FF0000800A9834800F01BFC07006F
S31508003450002F65D03E00682038707F1C3F203870EA
S315080034607F1C002038707F1C3F2038707F1C00208E
S3150800347038707F1C682038707F1C882038707F1C45
S315080034807248007838707F1C7048407838707F1C06
S315080034906E48807838707F1C6C48C07838707F1CFE
S315080034A06A48007938707F1C0A2038707F1C55F0EE
S315080034B0600038707F1C022038707F1C68480078CE
S315080034C038707F1C6748007838707F1C664800781B
S315080034D038707F1C6548007838707F1CB846644889
S315080034E00088A8F8000018F1020847460F21B01D09
S315080034F0FCF7B7FF38707F1C162038707F1CE4B2C3
S31508003500002C04D01721300001F037FF03E0172103
S31508003510300000F0FAFE00AA31004F4800F0D5FB53
S31508003520BDE8F381A5F01F002DE9F04182B0040043
S315080035300D00002700265FF0000800A9464800F0A5
S31508003540A1FB0700002F51D03E00682038707F1C71
S315080035502B2038707F1C002038707F1C2B20387079
S315080035607F1C002038707F1C682038707F1C8820DC
S3150800357038707F1C3548007838707F1C334840788F
S3150800358038707F1C3148807838707F1C2F48C07887
S3150800359038707F1C2D48007938707F1C0A203870D7
S315080035A07F1C55F0600038707F1C0C2038707F1C1B
S315080035B03048007838707F1C0A21B01DFCF751FF8F
S315080035C038707F1C162038707F1CE4B2002C04D09B
S315080035D01221300001F0D1FE03E01221300000F084
S315080035E094FE00AA31001C4800F06FFBBDE8F38189
S315080035F000B585B002A8019003A800904FF4847323
S31508003600002201211C4802F042FE02A80190002077
S315080036100090C82300220021002001F07DF94FF414
S315080036208041164802F0D2F90028E3D14FF4004150
S31508003630134802F0D6F94FF48051114802F0D4F934
S31508003640D8E70000000C01400B3D0020903C00200C
S31508003650B3F01F00A0F01F00443C002050B0000843
S31508003660C6000020C7000020C8000020C9000020AE
S31508003670C4000020CA000020283C00200010014099
S31508003680000801402DE9F84306000F0090469946C8
S3150800369000200B9DDFF8D4140978002903D047F2DF
S315080036A04330288038E0002E03D145F6C3502880E1
S315080036B032E0089CA4B2200001282FD0022835D178
S315080036C0B9F1000F03D147F24030288024E002F018
S315080036D003F9012186F82A10DFF89414316077601F
S315080036E0C6F820800021B1610021F161C6F8249056
S315080036F034850999B1600A99F16000213161002188
S315080037007161DFF870140988491CDFF86824118094
S3150800371002F0E6F800202880BDE8F183B8F1000F32
S3150800372003D147F23F302880F6E7D0E745F6256013
S315080037302880F1E738B505000C00DFF8300400787A
S31508003740002804D047F243302080002046E0002DB0
S3150800375004D147F24230208000203FE02868DFF895
S315080037601014884204D045F6C4502080002035E065
S3150800377000A803F006FA95F82A0000281ED00228A9
S3150800378003D010D303280ED020E0280000F071F9EA
S315080037900021280000F005F900A803F01EFA002011
S315080037A02080012019E00021280000F0FAF800A87E
S315080037B003F013FA0020208001200EE000A803F091
S315080037C00CFA47F23D302080002006E000A803F0FE
S315080037D004FA47F2413020800020C0B232BDF8B565
S315080037E005000F0016001C00DFF88003007800288B
S315080037F004D047F243302080002067E0002D04D132
S3150800380047F242302080002060E02868DFF8601325
S31508003810884204D045F6C4502080002056E000A80F
S3150800382003F0AFF995F82A0000283FD0022803D004
S3150800383034D3032832D041E0280000F01AF90020DA
S315080038402080BFB2002F20D0032F02D0042F10D023
S315080038501CE0AA681000002803D0E96828009047F1
S3150800386002E047F24430208000A803F0B6F90120B0
S315080038702BE0AA681000002803D0310028009047E2
S3150800388002E047F244302080EEE7EDE700A803F0B7
S31508003890A4F945F625602080002017E000A803F06B
S315080038A09CF947F24930208001200EE000A803F079
S315080038B094F947F23D302080002006E000A803F086
S315080038C08CF947F2413020800020C0B2F2BD00B525
S315080038D089B0AA490968002908D0A9490968A74AE8
S315080038E01268B1FBF2F1A74A116006E0A44909681B
S315080038F00A22B1FBF2F1A34A1160A2490968A24A59
S31508003900116000219C4A11600021A04A1160002123
S315080039100AE089B29E4A12EBC10200239380002373
S31508003920D38000231360491C9A4A128889B29142AF
S31508003930EFD399490968002903D147F24731018035
S315080039402DE096490968964A1268914203D247F2D1
S315080039504831018023E0934909781F2903D347F2A8
S31508003960463101801BE008900B2007900020069046
S3150800397000200590002004908848006803908A4833
S315080039800068029084480068019086480078009094
S3150800399000230FF22D128549854803F049FC09B02A
S315080039A000BD10B4022280F82A2089B2012905D167
S315080039B0416A714A1268511881610DE0016A00294D
S315080039C005D1416A6C4A12685118816104E0016A9E
S315080039D0694A12685118816181696E4A1288B1FB79
S315080039E0F2F302FB131189B2694A12EBC1010A68A4
S315080039F0002A07D1002202610022426108600120E4
S31508003A0088802EE082695C4B1B68D21AC2610B68FB
S31508003A1005E05A6942610361106158610023002B71
S31508003A201CD09A69544C2468121BDA61DA69C46995
S31508003A30A2420AD21A69002A01D01B69EFE70022BE
S31508003A400261436118610023E9E75A69002AE0D157
S31508003A5000224261036158610860DFE78888401CDC
S31508003A608880C8888A88904201D28888C88010BC15
S31508003A7070478169474A1288B1FBF2F302FB1311BA
S31508003A8089B2434A12EBC1010A68824206D1026929
S31508003A900A60002A08D00023536105E042690369D9
S31508003AA01361002B00D05A61012280F82A200022D7
S31508003AB00261002242618888401E888070470000A3
S31508003AC0F0B583B00BE003F012FF041B00A803F067
S31508003AD084F82E480068A04201D22C48046000AB46
S31508003AE001AA0021002003F0D3FC050000A803F07A
S31508003AF048F803F0FCFE04001F480068401C1E49F5
S31508003B0008601D48006823490988B0FBF1F201FBEB
S31508003B10120080B21E4911EBC0000668002700E0BB
S31508003B200127FFB2002FCED1002EF9D035691248F1
S31508003B300068B169884216D13000FFF79AFF308DC8
S31508003B40022804D101213000FFF72BFF02E00320F1
S31508003B5086F82A00B2681000002802D0F168300002
S31508003B6090472E00DDE70127DBE700000C3D00202B
S31508003B70544D5220083D0020D83C0020A4B000082F
S31508003B808CB00008DC3C0020E03C0020D43C00203F
S31508003B9084390020369C0008A8B00008B0B0000898
S31508003BA088B000086F9C0008ACB0000818AE000882
S31508003BB0483800202DE9F84305000E0017009846FE
S31508003BC00020DDF8249058490978002904D045F2E8
S31508003BD0B960A9F8000053E0002F04D145F2BB6094
S31508003BE0A9F800004CE01FFA88F8B8F1020F04DAC9
S31508003BF045F2BC60A9F8000042E0089CA4B2042C77
S31508003C0004D245F2C160A9F8000039E00320002873
S31508003C100FD0074204D045F2BB60A9F800002FE098
S31508003C20210089B2014204D045F2C160A9F800001A
S31508003C3026E03B003A00B8F10101002004E0A4B2F6
S31508003C40A2181A601300401C80B289B28842F6D3C3
S31508003C500020186001F040FE34492960AE606F60AC
S31508003C60EF60A5F81480A5F812802C8230490988DF
S31508003C70491C2F4A118001F033FE0020A9F80000E4
S31508003C80BDE8F18370B505000C000020002D04D1B5
S31508003C9045F2BF602080002016E001F01DFEA98ACB
S31508003CA0002906D101F01CFE45F2C26020800020E2
S31508003CB00AE0EE683168E960A98A491EA98201F01E
S31508003CC00FFE00202080300070BD70B505000E0084
S31508003CD014000020002D03D145F2BF6020801BE0B0
S31508003CE0002E03D145F2BE60208015E001F0F4FDF8
S31508003CF0A98A6A8A914205D301F0F2FD45F2BA60B3
S31508003D00208009E0E9683160EE60A98A491CA98229
S31508003D1001F0E6FD0020208070BD0021044A1180D4
S31508003D2000210180704700000C3D00204D454D20C4
S31508003D30FE3C002080B50A00002100F001F801BD14
S31508003D4030B4002A27D0002825D00023002403E019
S31508003D501B02C9B20B43641C042CF9D30425B0FB1F
S31508003D60F5F404FB1504E4B2002C08D003E0017056
S31508003D70401C521E641C002A01D0042CF7D302E012
S31508003D800360001D121F042AFAD202E00170401CCB
S31508003D90521E002AFAD130BC704770B41300002BAB
S31508003DA001D1012052E0002801D100204EE000296F
S31508003DB001D100204AE00122181859180425B0FB41
S31508003DC0F5F404FB1504E4B20426B1FBF6F505FB8D
S31508003DD01615EDB2AC4201D1012500E00025EDB281
S31508003DE0012D2CD1002C10D008E0401E491E057864
S31508003DF00E78B54200D000225B1E641ED2B2012A9C
S31508003E0003D1002B01D0002CEFD1D2B2012A16D152
S31508003E1007E0001F091F04680D68AC4200D00022A5
S31508003E201B1FD2B2012A01D1042BF2D207E0401E91
S31508003E30491E04780D78AC4200D000225B1ED2B22F
S31508003E40012A01D1002BF2D11000C0B270BC704714
S31508003E502DE9F04106000F0090461C000025DFF80A
S31508003E60BC020078002803D042F6E16020802BE0EF
S31508003E70002E03D145F6C350208025E01FFA88F8A6
S31508003E80B8F1000F03D146F2945020801CE001F0EF
S31508003E9023FD0500DFF8880230607760414689B265
S31508003EA016F1140003F091FD16F1080002F084FFE4
S31508003EB0DFF870020088401CDFF8681208802800C6
S31508003EC001F00EFD00202080BDE8F0812DE9F04FBD
S31508003ED089B004000D0016001F005FF00008DDF829
S31508003EE04C908E480078002805D046F2AE10A9F806
S31508003EF000000020C6E0002C05D145F6C350A9F8FD
S31508003F0000000020BEE0002F05D146F2D520A9F812
S31508003F1000000020B6E0B6B23000002802D0B0F5A6
S31508003F20004F1FD120687E49884221D1DDF848A07C
S31508003F30BAF1000F02D00020CAF8000001F0CCFC4C
S31508003F4080464B465246390014F1140003F047FDEB
S31508003F508346B9F80000002810D1404601F0C0FC9D
S31508003F6058468FE045F62560A9F80000002089E04C
S31508003F7045F6C450A9F80000002083E0300408D5AF
S31508003F80404601F0ADFC46F2B010A9F8000000204A
S31508003F9078E065480078002808D0404601F0A0FC83
S31508003FA046F66350A9F8000000206BE02B000522B6
S31508003FB0210000A802F0B6FE404601F091FC02F08E
S31508003FC099FD01F089FC80465848006890F835004C
S31508003FD0002805D0022838D017D3032826D045E074
S31508003FE052480068D0F85CB050480068B0F86000E5
S31508003FF03880BAF1000F04D04C480068006CCAF843
S3150800400000000020A9F8000038E05FF0000B00204F
S315080040103880BAF1000F04D044480068006CCAF82A
S31508004020000046F2A910A9F8000027E05FF0000B8F
S3150800403000203880BAF1000F02D00020CAF800002C
S3150800404047F2D920A9F8000018E05FF0000B00201D
S315080040503880BAF1000F04D034480068006CCAF8FA
S31508004060000045F6C250A9F8000007E05FF0000B13
S315080040700020388046F62E60A9F80000404601F078
S315080040802FFC584609B0BDE8F08F2DE9FC41050024
S315080040900E0017009846089C002D03D145F6C3501C
S315080040A020802AE01FFA88F84046002815D01028F4
S315080040B013D0B0F5007F10D0B0F5047F0DD0B0F561
S315080040C0004F0AD048F21001884206D0B0F5024FD8
S315080040D003D048F21021884211D128681049884235
S315080040E011D103F004FC0194009043469BB23A00B8
S315080040F092B23100280000F01BF8BDE8F38145F6BE
S3150800410025602080F9E745F6C4502080F5E70021B0
S31508004110044A118000210180704700000C3D0020F0
S3150800412051554555023D0020113D0020E43C002034
S315080041302DE9F04F83B004000D0016001F005FF054
S31508004140000A01F0C9FB824614F10800DDF8308048
S31508004150DDF834900189002914D1F80601D400232A
S3150800416000E01023CDF80490CDF800809BB2320011
S3150800417092B2290014F1140003F069FC504601F0CC
S31508004180AFFB25E0B90502D5B0F808B001E05FF04D
S31508004190010B00680DE0816840680190CDF8008049
S315080041A033009BB22A00200002F07CFE0198BBF186
S315080041B0010B1FFA8BFBBBF1000FECD1504601F047
S315080041C08FFB380401D402F095FC0020A9F8000002
S315080041D0BDE8F78F80B52021CD4803F030FD0028D3
S315080041E015D0CB4803F027FDCA49096800290ED027
S315080041F0C9490968C74A1268891AFF2907DAC649E8
S3150800420009680870C4480068401CC3490860402112
S31508004210BF4803F014FD00280ED040F22661BC48C2
S3150800422003F01AFD00AA0021BC4800F07AFABDF88E
S315080042300000002800D000BF01BD00001CB52021E9
S31508004240B74803F0FCFC002815D0B54803F0F3FC8A
S31508004250040001A9B348FFF715FD01000C7001A879
S31508004260009000230122B048FFF70FFFBDF80400B5
S31508004270002800D000BF4021A94803F0E0FC002830
S315080042800ED040F22661A64803F0E6FC01AA0021FA
S31508004290A64800F046FABDF80400002800D000BF82
S315080042A013BD00001CB52021A14803F0C8FC002856
S315080042B015D09F4803F0BFFC040001A99948FFF7F1
S315080042C0E1FC01000C7001A8009000230122964829
S315080042D0FFF7DBFEBDF80400002800D000BF402130
S315080042E0934803F0ACFC00280ED040F226619048B3
S315080042F003F0B2FC01AA00218E4800F012FABDF8BC
S315080043000400002800D000BF13BD70B584B00400B7
S315080043100D0089480078AA282AD1012240F2266190
S31508004320834803F05BFC002612E00020ADF8040089
S3150800433001A8009002AB00224FF4FA717D4800F004
S3150800434036F9B6B2315D89B2794803F070FC761C4D
S31508004350B6B2ADB2AE42E8D3002240F22661744846
S3150800436003F03CFC4021724803F069FC0028F9D0B0
S315080043704FF48071714801F034FB012240F2266146
S31508004380674803F02BFC002612E00020ADF8040075
S3150800439001A8009002AB00224FF4FA71634800F0BE
S315080043A006F9B6B2315D89B25D4803F040FC761C69
S315080043B0B6B2ADB2AE42E8D3002240F22661584802
S315080043C003F00CFC4021564803F039FC0028F9D0CC
S315080043D04FF48071594801F007FB012004B070BD05
S315080043E070B584B004000D00012240F226614848E9
S315080043F003F0F4FB002606E0B6B2315D89B2444804
S3150800440003F015FC761CB6B2ADB2AE420DD201A8C9
S31508004410009002AB00223221404800F0C8F8BDF8EF
S3150800442004000028E8D0002006E0002240F22661B9
S31508004430374803F0D3FB012004B070BD10B584B033
S315080044400400012240F22661314803F0C7FB40F21E
S3150800445026612F4803F000FC05E0217889B22C4834
S3150800446003F0E5FB641C207800280DD001A8009015
S3150800447002AB00223221294800F099F8BDF8040061
S315080044800028EAD0002006E0002240F226612048F3
S3150800449003F0A4FB012004B010BD38B504000025C4
S315080044A001F01AFA05001C4804601A48046028003E
S315080044B001F016FA012032BD80B50021C0B20028ED
S315080044C009D001F009FA010001201D4A1070080000
S315080044D001F006FA08E001F0FFF901000020184A89
S315080044E01070080001F0FCF9012002BD80B54FF4F8
S315080044F0804003F007FC002809D000AB0022012108
S31508004500104802F0CAF84FF4804003F00DFC01BDD4
S3150800451000440040F83C0020F43C0020643B0020A6
S31508004520003801405C3C0020B03A0020803B002067
S31508004530004800409C3B0020CA00002000080140BB
S315080045400B3D0020283C00202DE9F04105000E0017
S3150800455090461C000027DFF838020078002803D0B0
S3150800456042F6E160208020E0002D03D145F6C350D5
S3150800457020801AE001F0B0F90700DFF81802286079
S31508004580C5F814800020A8616E6015F1080002F0D5
S3150800459013FCDFF804020088401CDFF8FC110880D1
S315080045A0380001F09DF900202080BDE8F0812DE952
S315080045B0F04389B006000F00914698460024109DE6
S315080045C073480078002804D046F2AE1028800020F0
S315080045D07AE0002E04D145F6C3502880002073E007
S315080045E01FFA89F94846002802D0B0F5004F20D1B5
S315080045F030686849884221D1B8F1000F02D00020FE
S31508004600C8F8000001F068F90400706900281AD09B
S315080046107069401E7061B8F1000F02D0B069C8F821
S3150800462000007669200001F05BF900202880300040
S315080046304AE045F625602880002045E045F6C45046
S315080046402880002040E05FEA094008D57669200006
S3150800465001F046F946F2B0102880300034E04F48A1
S315080046600078002807D0200001F03AF946F6635092
S315080046702880002028E03B000622310000A802F02E
S3150800468051FB200001F02CF902F034FA01F024F96C
S3150800469004004348006890F83500002805D0022831
S315080046A02BD014D303281ED033E0B8F1000F04D062
S315080046B03B480068006CC8F800000020288076692E
S315080046C0200001F00DF9300009B0BDE8F083B8F11B
S315080046D0000F04D032480068006CC8F8000046F2A3
S315080046E0A9102880EBE7B8F1000F02D00020C8F81F
S315080046F0000047F2D9202880E1E7B8F1000F04D07E
S3150800470027480068006CC8F8000045F6C2502880A3
S31508004710D5E746F62E602880200001F0E1F8002053
S31508004720D2E770B505000E001400002D04D145F639
S31508004730C3502080002019E0B6B23000002808D007
S31508004740B0F5007F05D0B0F5004F02D0B0F5024FA6
S315080047500DD128680F4988420ED103F0C8F8020027
S315080047602300310089B2280000F01CF870BD45F618
S31508004770256020800020F9E745F6C45020800020F7
S31508004780F4E70021044A11800021018070470000E7
S315080047900C3D002053454D41043D0020113D0020AD
S315080047A0E43C00202DE9F04782B004000D00160015
S315080047B01F005FF0000801F08FF8804614F108002A
S315080047C00189002918D1606910F1010F07D1404607
S315080047D001F086F846F6C5503880002033E0606957
S315080047E0401C6061D4F81490A661404601F078F840
S315080047F000203880484626E0A90502D5B0F808907A
S3150800480001E05FF00109D0F800A00BE0DAF8081023
S31508004810DAF804A0009600230022200002F042FBEA
S31508004820B9F101091FFA89F9B9F1000FEED1D4F8E7
S315080048301490404601F054F8280401D402F05AF9BD
S31508004840002038804846BDE8F68710B450F8041BA7
S3150800485081B102681218001D50F8043BDC0744BFFA
S31508004860A9F10104E31852F8044B43F8044B091F55
S31508004870F9D1EBE710BC7047F8B505000E00140037
S315080048800027DFF858020078002803D047F2752081
S31508004890208040E0DFF848020078002803D046F67A
S315080048A06350208037E0B6B23000002805D00228D1
S315080048B003D004281FD008281ED1002D03D147F2A3
S315080048C07E20208027E001F007F807000120DFF8A6
S315080048D01412096881F836002300320092B22900C2
S315080048E08048006803F0A6FA2088002808D0380017
S315080048F000F0F6FF0FE0E6E745F6256020800AE0BF
S315080049007848006802F0B8FB380000F0E9FF02F0CA
S31508004910F1F800202080F1BDF8B50024079D6F4E00
S315080049203678002E03D047F275202880AFE06C4C0D
S315080049302478002C03D046F663502880A7E0069C0E
S3150800494014F00E06B6B23700002F05D0022F03D09A
S31508004950042F17D0082F16D1002B0CD192B2002A9B
S3150800496009D189B2002906D180B2002803D147F2BD
S315080049707E2028808BE04FF6E17C14EA0C0F06D1E6
S31508004980002705E0F7E745F6256028807FE0012740
S31508004990FFB2012F03D145F62560288077E0C4F3DE
S315080049A00014A4B214F00104E4B2012C1BD0B3F530
S315080049B07A7F03D347F27B20288068E092B23C2AAC
S315080049C003DB47F27A20288061E089B23C2903DBC1
S315080049D047F2792028805AE080B2642814DB47F22F
S315080049E07820288053E089B242F21074A14203DB92
S315080049F047F2792028804AE080B2B0F57A7F03DB57
S31508004A0047F27820288042E0374C246880B24FF479
S31508004A10616789B25FF03C0C0CFB01F107FB0010E3
S31508004A2092B210184FF4FA71B1FBF4F1C91801FBF0
S31508004A3004F14FF47A72B1FBF2F104FB0017002F70
S31508004A4022D000F049FF040001202649096881F8B0
S31508004A5036002B00320092B239002248006803F073
S31508004A60E9F92888002803D0200000F039FF0EE075
S31508004A701C48006802F000FB200000F031FF02F03D
S31508004A8039F80020288002E047F27E202880F1BD10
S31508004A9010B582B003F0FBFB00AA0021134802F010
S31508004AA0DDFD0400124800780C21124A01FB0020A3
S31508004AB002F010FB10480068401E0F4908600E48B7
S31508004AC00068002808D10D4800680B49086000AA4C
S31508004AD000210B4802F0C2FD13BD00000C3D00206A
S31508004AE0113D0020E43C00208CB0000894370020DB
S31508004AF00E3D00200C2F0020E03C0020DC3C00206E
S31508004B004838002070B584B0002600240025C0B2BD
S31508004B1000285DD002A9DFF80009FFF7B3F8040002
S31508004B2025000821DFF8F40800F05BFF02A80190D1
S31508004B30002000904FF4FA73002200210020FFF7AE
S31508004B40EBFE4FF4807200212800FFF7F9F80221E6
S31508004B50DFF8CC0800F045FF2800FFF79EFC00E0D0
S31508004B60761CF6B2FA2E28DA02A8019000200090E8
S31508004B706423002200210020FFF7CEFEDFF8A408F8
S31508004B800068DFF8A4180968401A0B28E8DB21003A
S31508004B90280000F044F8DFF89418280000F01EFDFD
S31508004BA00028DDD002AA2900DFF86C08FFF78DF887
S31508004BB00020FFF772FC01201AE002AA2900DFF89C
S31508004BC05808FFF782F80020FFF767FC00200FE07F
S31508004BD00221DFF84C0800F007FF02A80190002028
S31508004BE000900023032200210020FFF795FE0120F4
S31508004BF004B070BD38B50C001500FFF71FFC200087
S31508004C00FFF74BFC00AA00212800FFF735FEDFF866
S31508004C10140804680020FFF740FC200032BD02E0BB
S31508004C200D220270401C0278002A01D18842F7D36F
S31508004C30704770B584B00025002602A9DFF8D807AA
S31508004C40FFF720F805002E00002400E0641CE4B2FB
S31508004C50032C2CDAE4B2002C09D002A8019000201B
S31508004C600090C823002200210020FFF755FE4FF4CC
S31508004C70807200213000FFF763F864223100DFF804
S31508004C80B0074068FFF7B6FF050029003000FFF7B8
S31508004C90C6FFADA1300000F0A1FC0028D6D002AABC
S31508004CA03100DFF87407FFF710F8012006E002AAC2
S31508004CB03100DFF86407FFF708F8002004B070BD7C
S31508004CC070B584B00025002602A9DFF84C07FEF768
S31508004CD0D9FF05002E00002400E0641CE4B2642C11
S31508004CE02DDAE4B2002C09D002A801900020009029
S31508004CF0C823002200210020FFF70EFE4FF4807221
S31508004D0000213000FFF71CF864223100DFF8200785
S31508004D108068FFF76FFF050029003000FFF77FFF67
S31508004D20DFF81017300000F059FC0028D5D002AA89
S31508004D303100DFF8E406FEF7C8FF012006E002AA04
S31508004D403100DFF8D406FEF7C0FF002004B070BDBE
S31508004D502DE9FE4F002500275FF000085FF00009E7
S31508004D605FF0000A5FF0000B002402A9DFF8A8062E
S31508004D70FEF788FF83465C46002601E00025761C80
S31508004D80F6B2642E54DAF6B2002E09D002A80190C3
S31508004D9000200090C823002200210020FFF7BCFD58
S31508004DA04FF4807200212000FEF7CAFF642221001A
S31508004DB0DFF87C06C068FFF71DFF834659462000CA
S31508004DC0FFF72DFFDFF87016200000F007FC00281B
S31508004DD0D4D03A224FF48071200000F0D7FB871C0C
S31508004DE0380003F0A7FA80462C224FF48071200081
S31508004DF000F0CCFB10F10109484603F09BFA824605
S31508004E005FFA88F8B8F1060F10DB5FFA8AFABAF18A
S31508004E10630F0BD06D1CEDB2072DB0DB02AA210083
S31508004E20DFF8F405FEF751FF012008E00025A6E7A4
S31508004E3002AA2100DFF8E005FEF747FF0020BDE8DB
S31508004E40FE8F70B584B00025002602A9DFF8C805D4
S31508004E50FEF718FF05002E00002400E0641CE4B2EB
S31508004E60642C34DAE4B2002C09D002A801900020A0
S31508004E700090C823002200210020FFF74DFD4FF4C3
S31508004E80807200213000FEF75BFF64223100DFF8F4
S31508004E90A0050069FFF7AEFE050029003000FFF700
S31508004EA0BEFEDFF89815300000F098FB002806D102
S31508004EB0DFF88C15300000F091FB0028CED002AA4E
S31508004EC03100DFF85405FEF700FF012006E002AACC
S31508004ED03100DFF84405FEF7F8FE002004B070BD87
S31508004EE038B50024002500A9DFF82C05FEF7CAFE10
S31508004EF0040025004FF4807200212800FEF720FFE9
S31508004F0064222900DFF828054069FFF773FE0400CC
S31508004F1021002800FFF783FE0BA1280000F05EFBA6
S31508004F20002807D000AA2900DFF8EC04FEF7CDFE1A
S31508004F30012006E000AA2900DFF8DC04FEF7C5FE1A
S31508004F40002032BD000000004F4B000038B5002499
S31508004F50002500A9DFF8C004FEF794FE040025002A
S31508004F604FF4807200212800FEF7EAFE6422290029
S31508004F70DFF8BC048069FFF73DFE04002100280025
S31508004F80FFF74DFE84A1280000F028FB002807D073
S31508004F9000AA2900DFF88004FEF797FE012006E044
S31508004FA000AA2900DFF87004FEF78FFE002032BD44
S31508004FB038B50024002500A9DFF85C04FEF762FE78
S31508004FC0040025004FF4807200212800FEF7B8FE81
S31508004FD064222900DFF85804C069FFF70BFE0400B5
S31508004FE021002800FFF71BFE6BA1280000F0F6FA47
S31508004FF0002807D000AA2900DFF81C04FEF765FE82
S31508005000012006E000AA2900DFF80C04FEF75DFE81
S31508005010002032BD70B584B00025002602A9DFF84D
S31508005020F803FEF72FFE05002E00002400E0641C9E
S31508005030E4B2642C2DDAE4B2002C09D002A801905F
S3150800504000200090C823002200210020FFF764FCFE
S315080050504FF4807200213000FEF772FE64223100A0
S31508005060DFF8CC03006AFFF7C5FD0500290030000C
S31508005070FFF7D5FDDFF8CC13300000F0AFFA0028B3
S31508005080D5D002AA3100DFF89003FEF71EFE0120F4
S3150800509006E002AA3100DFF88003FEF716FE0020BC
S315080050A004B070BD70B582B00025002600A9DFF8EF
S315080050B06803FEF7E7FD05002E00002400E0641CE7
S315080050C0E4B2032C1EDA4FF4807200213000FEF79A
S315080050D037FE64223100DFF85803406AFFF78AFD7D
S315080050E0050029003000FFF79AFD2BA1300000F0DB
S315080050F075FA0028E3D000AA3100C748FEF7E5FD97
S31508005100012005E000AA3100C348FEF7DEFD0020B5
S3150800511076BD70B584B00025002602A9BE48FEF704
S31508005120B1FD05002E00002400E0641CE4B2142C36
S315080051302ADAE4B2002C09D002A8019000200090D7
S31508005140C823002200210020FFF7E6FB4FF48072F7
S3150800515000213000FEF7F4FD64223100B448806A6D
S31508005160FFF748FD050029003000FFF758FDB6494E
S31508005170300000F033FA0028D7D002AA3100A6483A
S31508005180FEF7A3FD012005E002AA3100A248FEF7BA
S315080051909CFD002004B070BD4F4B0000FEB50024F6
S315080051A00027002502A99C48FEF76CFD07003D0074
S315080051B000260AE002A8019000200090C8230022D9
S315080051C000210020FFF7A8FB761CF6B2642E40DA11
S315080051D04FF4807200212800FEF7B2FD9448C06A99
S315080051E0FFF72CF99948FFF729F93800FFF755F921
S315080051F002AA00214FF4FA60FFF73EFB89480768C8
S315080052000020FFF74AF939002800FFF708FD904902
S31508005210280000F0E3F90028CCD08E49280000F0D9
S31508005220DDF906E0E4B221184979E4B28A4AA154C4
S31508005230641CE4B2211849790D29F3D10020E4B29F
S315080052408549605402AA29007348FEF73EFD0120ED
S3150800525005E002AA29007048FEF737FD0020FEBDCA
S3150800526038B50024002500A96B48FEF70BFD04009D
S3150800527025004FF4807200212800FEF761FD6C4876
S31508005280006BFFF7DBF87448FFF7D8F87348FFF7A9
S31508005290D5F82000FFF701F900AA00214FF4FA60BB
S315080052A0FFF7EAFA5F4804680020FFF7F6F82100DE
S315080052B02800FFF7B4FC6A49280000F08FF9002897
S315080052C006D000AA29005448FEF7FFFC012005E095
S315080052D000AA29005048FEF7F8FC002032BD80B528
S315080052E0FFF7A7FC002801D1002045E0FFF7E8FCFE
S315080052F0002801D100203FE0FFF72AFD002801D150
S31508005300002039E0FFF79DFD002801D1002033E099
S31508005310FFF7E6FD002801D100202DE0FFF716FE75
S31508005320002801D1002027E0FFF742FE002801D11E
S31508005330002021E0FFF76EFE002801D100201BE0C7
S31508005340FFF7B0FE002801D1002015E0FFF7E1FEC7
S31508005350002801D100200FE0FFF720FF002801D127
S31508005360002009E0FFF77CFF002801D1002003E0B8
S31508005370012000F040F8012002BD30B585B00400D8
S315080053800D00ADB22A0022A103A800F033FF284879
S31508005390406BFFF753F803A8FFF750F81DA0FFF777
S315080053A04DF801A8009002AB00224FF47A712D48FF
S315080053B0FFF7FDF8BDF80400002801D0002018E02A
S315080053C0290089B22000FFF70BF8012111A0FFF789
S315080053D007F801A8009002AB00224FF47A71224820
S315080053E0FFF7E5F8BDF80400002801D0002000E02A
S315080053F0012005B030BD38B50400002500F06CFA70
S3150800540005001A480470280000F06AFA31BD000049
S31508005410256400000D000000443C0020000C0140FB
S3150800542000080140F43C0020F83C0020F0AE0008DB
S315080054300000002098AF0008A0AF0008FCAE0008E6
S3150800544008AF000814AF000820AF0008500000207D
S315080054502CAF0008A8AF00086C000020B40000209C
S3150800546088AE0008F03B00200C3C00200A3D0020D6
S31508005470002201E0401C521C002804D00378002BAF
S3150800548001D08A42F6D31000704780B55FF0FF322C
S3150800549000F001F802BD30B4002801D1002029E04F
S315080054A0002901D1002025E0002A23D0030000E0CE
S315080054B05B1C002B02D01C78002CF9D1002B01D1E3
S315080054C0002017E0002404E00D781D705B1C491CC1
S315080054D0641C002B06D0002904D00D78002D01D0BD
S315080054E09442F1D3002B01D0002901D1002001E01C
S315080054F00021197030BC7047F0B4002A01D1002091
S3150800550042E0002807D1002901D100203CE00878B4
