S00C0000546573742E7372656378
S31508000000F04E00200DAF0008A3AD0008A5AD00080E
S31508000010A7AD0008A9AD0008ABAD000800000000B8
S31508000020000000000000000000000000ADAD000860
S31508000030AFAD00080000000067930008B1AD0008E6
S31508000040D9B00008DDB00008E1B00008E5B0000846
S31508000050E9B00008EDB00008D1AD0008F1B000081D
S31508000060F5B00008F9B00008FDB0000801B10008B5
S3150800007005B1000809B100080DB1000811B1000862
S3150800008015B1000819B100081DB1000821B1000812
S3150800009025B1000829B100082DB1000831B10008C2
S315080000A035B1000839B100083DB1000841B1000872
S315080000B045B1000849B100084DB1000851B1000822
S315080000C055B1000859B100085DB1000861B10008D2
S315080000D065B10008B9AD0008C1AD0008C9AD000892
S315080000E069B100086DB1000871B10008F0B585B0B6
S315080000F000260FE0DFF8140C007801280AD1DFF893
S31508000100100C0068DFF80C1C08600020DFF8FC1BE8
S315080001100870002602A8019003A800900DF10A03B2
S315080001200022C821DFF8F00B03F022FA0100BDF81F
S31508000130080047F2D9229042DCD00F7802AADFF8ED
S31508000140DC0B03F024FCDFF8CC0B006800281AD17E
S3150800015002A9DFF8CC0B03F0F7FBDFF8B81B086041
S31508000160BDF80800002800D000BFDFF8A80B00681B
S31508000170DFF89C1B08604FF480720021DFF8900BB3
S31508000180006803F03FFCDFF89C0B0078002878D065
S31508000190DFF8780B0078002810D1FFB2682FB9D1A4
S315080001A0DFF8700B0068411CDFF8682B11600770D8
S315080001B000260120DFF8541B0870ABE7DFF8540B64
S315080001C00068411CDFF84C2B11600770DFF8440B00
S315080001D00068DFF83C1B0968401A0B2805D1DFF8D0
S315080001E0300B0068807A10F10D06F6B2002E91D019
S315080001F0DFF8200B0068DFF8181B0968401AF6B20A
S31508000200B04287DBDFF80C0B006810F8010C1628E3
S315080002102BD1DFF8000B0768F6B2B11E89B2DFF8FA
S31508000220F00A006800F011F917F8021CC0B2814202
S315080002307FF470AF02A800900023F6B2320092B2A3
S31508000240DFF8CC0A0168DFF8E40C03F070FA002046
S31508000250DFF8BC1A08600020DFF8B81A086000202A
S31508000260DFF8A81A0870002654E7DFF8A40A006821
S31508000270DFF8A01A08600020DFF8901A0870002638
S3150800028048E7DFF8880A0078002813D1FFB2682FFC
S315080002907FF440AFDFF87C0A0068411CDFF8742A57
S315080002A0116007700026012400250120DFF85C1A7A
S315080002B008702FE7DFF85C0A0068411CDFF8542A4B
S315080002C011600770EDB2002D39D1641CE4B2062C1A
S315080002D07FF420AFDFF8380A00684079682820D113
S315080002E0DFF82C0A0068B0F80100DFF8241A09685C
S315080002F0B1F8031080B289B2884204D1012580B2D0
S315080003008608083606E70020DFF8001A0870002677
S3150800031000240025DFF8F8090068DFF8F8190860F6
S31508000320F8E60020DFF8E419087000260024002506
S31508000330DFF8DC090068DFF8DC190860EAE6F6B2DF
S31508000340002E3FF4E7AEDFF8CC090068DFF8C019E5
S315080003500968401AF6B2B042FFF6DCAEDFF8B40917
S31508000360006810F8010C162861D1DFF8A80904689E
S31508000370F6B2B6F1080189B2DFF894090068801D63
S3150800038000F063F814F8021CC0B2814241D1DFF8CC
S3150800039080090068007B032806D0042817D00A289D
S315080003A002D00B2813D024E00020DFF8681909686A
S315080003B0087002A800900023F6B2320092B2DFF865
S315080003C050090168DFF8680B03F0B1F911E0002065
S315080003D0DFF840190968087002A800900023F6B2F1
S315080003E0320092B2DFF828090168DFF8480B03F0FB
S315080003F09EF90020DFF8181908600020DFF81419A4
S3150800040008600020DFF8041908700026002400257B
S3150800041080E6DFF8FC080068DFF8F81808600020B6
S31508000420DFF8E818087000260024002572E6DFF8D1
S31508000430E0080068DFF8DC1808600020DFF8CC1850
S31508000440087000260024002564E610B40022002364
S3150800045003E09BB21C5CA2185B1C9BB289B28B4260
S31508000460F7D31000C0B210BC7047000030B583B097
S31508000470002000210022002400250FE02C004FF464
S3150800048080720021280003F0BDFA280003F0ECFC76
S3150800049001AA0021DFF8A00A03F029FEDFF89C0A6A
S315080004A00078012840F0A180002C14D101A9DFF8BA
S315080004B0700803F049FA040025004FF48072002101
S315080004C0280003F09FFABDF80400002800D000BFFA
S315080004D0280003F0C9FCDFF8680A0068DFF8641A28
S315080004E00968401A01287ADB01AA0021042003F0D2
S315080004F0A9FEDFF84C0A04682100280003F0FDFF76
S31508000500A5A1280004F04CFC0028B7D1DFF8381A5A
S31508000510280004F045FC00280ED001A8009000230E
S31508000520621B92B22900DFF8240A03F000F90024BE
S31508000530002003F099FCB1E7DFF8141A280004F04C
S315080005402FFC002810D02C004FF4807200212800C0
S3150800055003F058FA002004000025002003F084FC6C
S31508000560002004F03BFB99E7DFF8E819280004F0BF
S3150800057017FC002810D02C004FF4807200212800A8
S3150800058003F040FA002004000025002003F06CFC6C
S31508000590002004F023FB81E7DFF8BC19280004F0EB
S315080005A0FFFB002810D02C004FF480720021280091
S315080005B003F028FA002004000025002003F054FC6C
S315080005C0002004F00BFB69E72C004FF48072002131
S315080005D0280003F017FA280003F046FC5EE701AA94
S315080005E00021042003F02EFE58E7002C10D04FF40B
S315080005F080720021280003F005FA01AA2900DFF815
S31508000600200703F0C4F900240025002003F02CFC81
S31508000610002004F095FA012004F092FA04F04EFA4C
S315080006203CE72DE9FF41002600240020ADF80A002A
S315080006305FF000080025002705E002AA2100DFF880
S31508000640E00603F0A4F902A8019003A800900DF1B2
S315080006500A0300220021DFF8F40802F089FF0400EB
S31508000660B5A1200004F09CFB10F10208404600F0FA
S3150800067095F80700BFB2002FDFD098F80C000028C5
S315080006800CD0022828D0032827D0042841D00A28CD
S3150800069023D00B283DD00C28CFD0CEE798F80D00F4
S315080006A010F00F05DFF8B4080078EDB2854206D1E0
S315080006B002AA0021DFF8A80803F019FD0BE0DFF80D
S315080006C0A4080078EDB2854205D102AA0021DFF818
S315080006D0980803F00CFDB0E7AFE702A9DFF840067B
S315080006E003F032F90600002E12D0BFB23A00414696
S315080006F0300004F0BFFB0120BFB2B85502A8009035
S3150800070000233A0092B23100DFF8240803F00FF80C
S3150800071093E798F80D000F2101FB00F598F80E00F5
S31508000720052808D1DFF8440805702900C9B2012058
S3150800073002F0D2F82EE0DFF834080078EDB2A842CD
S3150800074023D002A9DFF8D80503F0FEF80600002E2C
S3150800075008D0BFB23A004146300004F08BFB0120B6
S31508000760BFB2B855DFF8040805702900C9B20120E0
S3150800077002F0B2F802A8009000233A0092B23100C3
S31508000780DFF8B00702F0D3FF04E02900C9B2012060
S3150800079002F0A2F851E700000A3E000070B5040016
S315080007A0B4F80150B4F80300ADB280B2854214D152
S315080007B0ADB2AD08ADB228198679290089B2A01D57
S315080007C0FFF743FE864208D1ADB22819C07916282C
S315080007D003D115F10800C0B200E0002070BD10B5C5
S315080007E0002404F05BFC0400DFF8040D0078401CCC
S315080007F0DFF8FC1C0870DFF8F80C007810F00F0022
S31508000800DFF8EC1C0870200004F04CFC10BD30B575
S3150800081089B0002409E002A8019000200090642312
S3150800082000220021002003F05DFD04AD6820287039
S315080008306D1C272028706D1C002028706D1C272031
S3150800084028706D1C002028706D1C682028706D1C8F
S31508000850C92028706D1CDFF89C0C007828706D1C68
S31508000860DFF8900C407828706D1CDFF8880C8078CB
S3150800087028706D1CDFF87C0CC07828706D1CDFF8BA
S31508000880740C007928706D1C022028706D1CDFF826
S31508000890600C007850F0700028706D1CDFF8500C62
S315080008A00078DFF8B8160870FFF799FF032028705C
S315080008B06D1C09210DF11600FFF7C7FD28706D1C88
S315080008C0162028706D1CDFF8740600780028A2D060
S315080008D0002500E06D1CDFF864060078002818D0B3
S315080008E0EDB2032D15DA0024112104A804F0B8F896
S315080008F00028EFD002A8009003AB002241F288310D
S31508000900DFF85C0603F039FBBDF808000028E1D1E2
S315080009100124E4B2002C0AD002A80190002000901D
S31508000920002300220221002003F0DCFC7DE70020E2
S3150800093004F054F979E700000D0A680080B5C0B2E2
S3150800094000280CD0DFF8A00D0078AA2803D10120D2
S3150800095000F046F80FE0012000F05FF80BE0DFF842
S31508000960880D0078AA2803D1002000F039F802E0A3
S31508000970002000F052F801BD1FB511E00120FFF775
S31508000980DDFFBDF80800015D200000F0C9F8002071
S31508000990FFF7D4FF0DF10A022100E14802F0F7FF44
S315080009A00DF10A00019003A8009002AB0022002175
S315080009B0DFF8800502F0DCFD0400207B042802D065
S315080009C00B28DBD0E6E70120FFF7B8FFBDF80800E3
S315080009D0015D200000F090FD0020FFF7AFFFD9E78A
S315080009E0E0B5C0B2002811D04FF40051DFF8FC0C76
S315080009F004F0D9FB02A80190002000904FF4FA7386
S31508000A0001220021002003F06DFC05E04FF400519F
S31508000A10DFF8D80C04F0CAFB0EBDE0B5C0B200285A
S31508000A2010D04021DFF8C80C04F0BDFB02A80190E5
S31508000A30002000904FF4167300220021002003F0D6
S31508000A4051FC04E04021DFF8A80C04F0AFFB0EBD12
S31508000A50E0B5C0B200280FD00421DFF8980C04F0E6
S31508000A60A2FB02A801900020009000230322002187
S31508000A70002003F037FC04E00421DFF8780C04F0CA
S31508000A8095FB0EBDE0B5C0B200280FD00221DFF8F5
S31508000A90640C04F088FB02A8019000200090002353
S31508000AA003220021002003F01DFC04E00221DFF8E8
S31508000AB0440C04F07BFB0EBDE0B5C0B200280FD095
S31508000AC00121DFF8300C04F06EFB02A8019000202B
S31508000AD00090002303220021002003F003FC04E019
S31508000AE00121DFF8100C04F061FB0EBDE0B5C0B2C1
S31508000AF000280FD08021DFF8F80B04F054FB02A879
S31508000B00019000200090002303220021002003F01A
S31508000B10E9FB04E08021DFF8D80B04F047FB0EBDA3
S31508000B202DE9F04389B004000D0000200090002054
S31508000B3001900020ADF80C000020ADF80A00002650
S31508000B40002700208DF808005FF000085FF0000914
S31508000B500222DFF8401D03A804F0DAFC0322DFF8BE
S31508000B60381D00A804F0D4FCBDF80C00002862D09B
S31508000B70012003F088F90722DFF8201D14F1100080
S31508000B8002F06DFF012859D100262BE007220198B3
S31508000B90811D06A804F0BCFC0122019810F10D0184
S31508000BA002A804F0B5FC2B00DBB29DF808200199D9
S31508000BB006A800F0B9F803220198C11C01A804F0A0
S31508000BC0A7FC7F1CBDF80A00BFB28742DED3009996
S31508000BD004A800F068FD03220098C11C00A804F0D0
S31508000BE097FC761CBDF80C00B6B286421AD20622CD
S31508000BF00098811D04A804F08BFC0322009810F1CC
S31508000C000C0101A804F084FC0222009810F11201DC
S31508000C100DF10A0004F07CFC009904A800F022FDFE
S31508000C200027CFE72A00D2B20021012000F0A0F960
S31508000C30002003F028F909B0BDE8F083002644E057
S31508000C4003220198C11C01A804F062FC7F1CBDF8B0
S31508000C500A00BFB2874231D207220198811D06A831
S31508000C6004F056FC0122019810F10D0102A804F0C7
S31508000C704FFC072206A914F1100002F0F0FE012825
S31508000C80DED19DF80800E17B8842D9D1009904A8F5
S31508000C9000F0E8FC2B00DBB29DF80820019906A8B5
S31508000CA000F042F82A00D2B20199002000F060F95B
S31508000CB0009904A800F0F7FC5FF0010803220098E9
S31508000CC0C11C00A804F024FC761C5FFA88F8B8F169
S31508000CD0000FADD1BDF80C00B6B28642A8D20622E6
S31508000CE00098811D04A804F013FC0322009810F153
S31508000CF00C0101A804F00CFC0222009810F1120164
S31508000D000DF10A0004F004FC0027A0E7EB4C0020D4
S31508000D10C44C0020C04C00206C4A0020384C0020EF
S31508000D20204C0020DD4C00202DE9F0478CB0040053
S31508000D300D00002600200021ADF80C1000275FF0FA
S31508000D40000800218DF808105FF000095FF0000A1E
S31508000D5007A98A4668218AF800101AF1010A8AF852
S31508000D6000201AF1010A00210E0006E0F6B2305DF5
S31508000D708AF800001AF1010A761CF6B2072EF5DB8E
S31508000D8001208AF800001AF1010A03208AF80000F7
S31508000D901AF1010ADFF8040D0078FF280AD11F208E
S31508000DA08AF800001AF1010A90208AF800001AF160
S31508000DB0010A09E090208AF800001AF1010A1F20AA
S31508000DC08AF800001AF1010A01208AF800001AF1CF
S31508000DD0010A0E2107A8FFF738FB8AF800001AF166
S31508000DE0010A16208AF800001AF1010A002608E00E
S31508000DF00020F6B205A970540020F6B204A9705472
S31508000E00761CF6B2042EF3DB002617E0C0B2C11931
S31508000E10897BC0B205AA8154C0B2C119C97CC0B2C7
S31508000E2004AA8154401CC0B20428EFDB0DF10A0263
S31508000E303900DFF8700C02F0AAFD761C5FFA88F814
S31508000E40B8F1000F30D1F6B2032E2DDA0421DFF8FF
S31508000E50580C02F004FF102107A802F000FF0DF15C
S31508000E600A00019006A8009003AB00224FF4966191
S31508000E702E4802F07DFB0700BDF80A00002805D0C1
S31508000E80F6B2022E01D15FF00008D6E70722B91C98
S31508000E90200002F0E4FD0128C8D15FF00108F87FC0
S31508000EA08DF808000020BEE70DF10A01DFF8F40B03
S31508000EB002F04AFD81464FF480722900484604F044
S31508000EC027FB5FFA88F8B8F1000F0CD199F81600DD
S31508000ED050F0400089F816004FF480722900484601
S31508000EE004F03BFA17E0012202A919F1160003F0F3
S31508000EF0C1FF042205A919F10E0003F0BBFF042265
S31508000F0004A919F1180003F0B5FF4FF480722900FF
S31508000F10484604F022FA0DF10A024946DFF8840B26
S31508000F2002F035FD0CB0BDE8F0870000B44A002099
S31508000F30D84A0020904A0020CC4B0020DC4C0020E8
S31508000F40C84C0020CC4C002050B00008FC4A0020B9
S31508000F5058B0000860B0000868B00008E74C0020E8
S31508000F60944B0020E84C0020B04B0020EA4C0020AF
S31508000F702DE9F54F8DB00025002006905FF0000999
S31508000F800020ADF81C000020ADF814000020ADF8D4
S31508000F9016000020ADF8000000208DF8080000209B
S31508000FA0ADF80A00002700200890002003900020D2
S31508000FB08DF8070000208DF8060000240020ADF803
S31508000FC012005FF0000A5FF000080020ADF8040088
S31508000FD000265FF0000B00208DF80000039104A99D
S31508000FE0DFF8C00A02F0B0FC0500002D00F0C6804C
S31508000FF006959DF83400002840F0C880072203981B
S31508001000811D0BA804F084FA0122039810F10D0142
S315080010100DF1070004F07CFA0422039810F10E0182
S3150800102009A804F075FA0122039810F116010DF1CA
S31508001030060004F06DFA682028706D1CA946732016
S31508001040A9F8000019F102097320A9F8000019F19E
S3150800105002094D46682028706D1C882028706D1C72
S31508001060DFF89004007828706D1CDFF88804407853
S3150800107028706D1CDFF87C04807828706D1CDFF8FA
S315080010807404C07828706D1CDFF86804007928702D
S315080010906D1C0B2028706D1CDFF85404007850F086
S315080010A0600028706D1C042028706D1CDFF8400451
S315080010B00078DFF8FC190870FFF791FB002028700C
S315080010C06D1C002028706D1C002028706D1C0020E7
S315080010D028706D1C9DF8070028706D1C002405E01B
S315080010E0A4B20BA8205C28706D1C641CA4B2072C43
S315080010F0F6DB012028706D1C002405E0A4B209A8BF
S31508001100205C28706D1C641CA4B2042CF6DB9DF8C8
S31508001110060028706D1C002028706D1C1C2106987E
S31508001120801DFFF792F928706D1C162028706D1C1B
S315080011309DF83800002824D05FF0000A01E01AF173
S31508001140010A5FFA8AFABAF1030F11DA242106981E
S3150800115003F086FC04A800900AAB002241F288310D
S31508001160DFF80C0E02F009FFBDF810000028E6D1E2
S3150800117004AA0699DFF82C0902F009FC0FB0BDE8AD
S31508001180F08F2421069802F0D6FDF1E70222DFF857
S3150800119004170DF1160004F0BBF90222DFF8141942
S315080011A005A804F0B5F90322DFF8EC1608A804F040
S315080011B0AFF9BDF814000A2190FBF1F0ADF8000074
S315080011C0BDF814000A2190FBF1F201FB12008DF81C
S315080011D008000027BDF80000ADF80A009DF80800D1
S315080011E0002804D0BDF80A00401CADF80A00002407
S315080011F006E003220898C11C08A804F089F9641CB3
S31508001200BDF81600A4B28442B2D20322089810F19F
S315080012100C0103A804F07CF90222089810F11201C7
S3150800122007A804F075F90020ADF8120015E0BDF81E
S3150800123004000E21484310F1160189B2069802F0FF
S315080012407AFD069D03220398C11C03A804F060F9E1
S31508001250BDF81200401CADF81200BDF81200BDF82A
S315080012601C108842C5D207220398811D0BA804F0DA
S315080012704FF90122039810F10D010DF1070004F052
S3150800128047F90422039810F10E0109A804F040F961
S315080012900122039810F116010DF1060004F038F941
S315080012A0F6B2002E40F0B58001267F1CBDF80A0074
S315080012B001280CD1BDF81480ADF80480BDF80400EF
S315080012C00E2148430E30800050F0030B36E0BFB2C3
S315080012D0012F0CD15FF00A08ADF80480BDF80400B0
S315080012E00E2148430E30800050F0030B26E0BDF86F
S315080012F00A00BFB2874215D19DF80800002804D11C
S315080013005FF00A08ADF8048003E09DF80880ADF8A0
S315080013100480BDF804000E2148430E30800050F0CA
S31508001320030B0BE05FF00A08ADF80480BDF8040073
S315080013300E2148430E30800050F0030B68202870B9
S315080013406D1CA946A9F800B019F10209A9F800B060
S3150800135019F102094D46682028706D1C88202870EE
S315080013606D1C6448007828706D1C624840782870A7
S315080013706D1C6048807828706D1C5E48C07828709F
S315080013806D1C5C48007928706D1C0B2028706D1C3C
S31508001390BDF80A00012806D15548007850F07000BB
S315080013A028706D1C1BE0BFB2012F06D1504800788B
S315080013B050F0500028706D1C11E0BDF80A00BFB24D
S315080013C0874206D14A48007850F0300028706D1CD4
S315080013D005E04748007850F0100028706D1C444816
S315080013E00078DFF8CC160870FFF7F9F904202870A2
S315080013F06D1CA946BDF80A00A9F8000019F10209F2
S31508001400A9F8007019F102094D469DF807002870E1
S315080014106D1C5FF0000A08E05FFA8AFA0BA81AF852
S31508001420000028706D1C1AF1010A5FFA8AFABAF1EF
S31508001430070FF1DB012028706D1C5FF0000A08E039
S315080014405FFA8AFA09A81AF8000028706D1C1AF1C2
S31508001450010A5FFA8AFABAF1040FF1DB9DF8060071
S3150800146028706D1C002028706D1CB8F101081FFA41
S3150800147088F8B8F1000F7FF4E5AE0026BDF8040041
S315080014800E21484310F10E0189B20698801DFEF719
S31508001490DCFF28706D1C162028706D1C9DF838001E
S315080014A000283FF4C4AE5FF0000A01E01AF1010A11
S315080014B05FFA8AFABAF1030FBFF6C3AEBDF80400A5
S315080014C00E21484310F1160189B2069803F0C8FAAE
S315080014D004A800900AAB002241F28831DFF8900A8E
S315080014E002F04BFDBDF810000028DFD1A9E6000088
S315080014F0E94C0020980000202DE9F0478AB0040046
S315080015000D0000200390002002900020ADF8060090
S315080015100020ADF810000026002700208DF80400F2
S315080015205FF000085FF0000A5FF000090222D9495F
S315080015300DF1060003F0ECFF0322D74903A803F0D8
S31508001540E7FFBDF80600002800F08980012002F0B8
S315080015509AFC002618E05FFA89F9CDF800902B006E
S31508001560DBB29DF80420029905A800F099F90399C1
S3150800157007A800F098F85FF0010803220398C11C39
S3150800158003A803F0C5FF761C5FFA88F8B8F1000FC8
S3150800159062D1BDF80600B6B286425DD2062203982D
S315080015A0811D07A803F0B4FF0322039810F10C016C
S315080015B002A803F0ADFF0222039810F1120104A855
S315080015C003F0A6FF002706E003220298C11C02A822
S315080015D003F09EFF7F1CBDF81000BFB28742CCD235
S315080015E007220298811D05A803F092FF012202989E
S315080015F010F10D0101A803F08BFF072205A914F1CC
S31508001600100002F02CFA0128DED19DF80400E17BD7
S315080016108842D9D1039907A800F024F80222029833
S3150800162010F116010DF1120003F072FF607B0F2115
S3150800163001FB00F9A07B02288DD0032897D15FFA19
S3150800164089F9CDF800902B00DBB29DF804200299A9
S3150800165005A800F051F88AE7002002F014FC0AB049
S31508001660BDE8F08780B520490978AA291AD10078FB
S31508001670012806D014D303280BD006D304280CD08F
S315080016800EE00120FFF7E4F90AE00120FFF7FAF976
S3150800169006E00120FFF710FA02E00120FFF726FA1C
S315080016A00120FFE702BD80B50F490978AA291AD19A
S315080016B00078012806D014D303280BD006D30428B3
S315080016C00CD00EE00020FFF7C3F90AE00020FFF770
S315080016D0D9F906E00020FFF7EFF902E00020FFF74E
S315080016E005FA0120FFE702BDAE0000200010014008
S315080016F000080140000C01402DE9F04F89B00400B4
S315080017000D001E0000270020ADF80A005FF0000853
S315080017105FF0000900205FF0000A5FF0000B04A9E3
S315080017208B4668218BF800101BF1010B8BF8002003
S315080017301BF1010B00210F0006E0FFB2385D8BF8A4
S3150800174000001BF1010B7F1CFFB2072FF5DB0420FD
S315080017508BF800001BF1010B04208BF800001BF12D
S31508001760010B17208BF800001BF1010BA0208BF84A
S3150800177000001BF1010B01208BF800001BF1010B87
S3150800178055208BF800001BF1010B0F2104A8FEF76A
S315080017905CFE8BF800001BF1010B16208BF800008D
S315080017A01BF1010B002707E05FF0000902AA41467A
S315080017B0BC4802F0ECF87F1C5FFA89F9B9F1000F12
S315080017C032D1FFB2032F2FDA0421B74802F047FAC5
S315080017D0112104A802F043FA02A8019003A8009078
S315080017E00DF10A03002244F62061DFF8780D01F0B6
S315080017F0BFFE8046BDF80800002805D0FFB2022FBC
S3150800180001D15FF00009D6E7072218F1020120008E
S3150800181002F025F90128C9D198F80E0003210842DB
S31508001820C2D15FF00109C1E702A99E4802F08CF80F
S3150800183082464FF480722900504603F069FE5FFA2B
S3150800184089F9B9F1000F0CD19AF8160050F040004A
S315080018508AF816004FF480722900504603F07DFD81
S3150800186010E001228EA11AF1160003F003FB4FF4D3
S3150800187080722900504603F070FD12993000C0B2FC
S3150800188001F02AF802AA5146864802F080F809B003
S31508001890BDE8F08FA3F01F00A0F01F0070B000088D
S315080018A02DE9F04F89B004000D001E000027002026
S315080018B0ADF80A005FF000085FF0000900205FF04D
S315080018C0000A5FF0000B04A98B4668218BF800100C
S315080018D01BF1010B8BF800201BF1010B00210F00F7
S315080018E006E0FFB2385D8BF800001BF1010B7F1C88
S315080018F0FFB2072FF5DB04208BF800001BF1010B64
S3150800190004208BF800001BF1010B17208BF8000050
S315080019101BF1010BA0208BF800001BF1010B012025
S315080019208BF800001BF1010B99208BF800001BF1C6
S31508001930010B0F2104A8FEF788FD8BF800001BF1A8
S31508001940010B16208BF800001BF1010B002707E09E
S315080019505FF0000902AA4146524802F018F87F1CB7
S315080019605FFA89F9B9F1000F39D1FFB2032F36DAD8
S3150800197004214D4802F073F9112104A802F06FF909
S3150800198002A8019003A800900DF10A03002244F66C
S315080019902061DFF8D00B01F0EBFD8046BDF80800AA
S315080019A0002805D0FFB2022F01D15FF00009D6E763
S315080019B0072218F10201200002F051F80128C9D1C6
S315080019C098F80E00C0B210F00201C0B210F0010083
S315080019D050EA61000028BBD05FF00109BAE702A906
S315080019E0304801F0B1FF82464FF480722900504614
S315080019F003F08EFD5FFA89F9B9F1000F0CD19AF858
S31508001A00160050F040008AF816004FF4807229003C
S31508001A10504603F0A2FC10E0012224A11AF1160098
S31508001A2003F028FA4FF480722900504603F095FC1B
S31508001A3012993000C0B200F04FFF02AA5146194869
S31508001A4001F0A5FF09B0BDE8F08F1FB50BE0BDF8A2
S31508001A500800015D200000F0A8FE0DF10A02210031
S31508001A60104801F094FF0DF10A00019003A80090B8
S31508001A7002AB00220021DFF8440E01F079FD0400D4
S31508001A80207B032802D00A28E1D0E6E7BDF8080043
S31508001A90015D200000F010F8DFE70000DE4C0020B2
S31508001AA000000000204C0020A400002002000000D6
S31508001AB0E84C0020B3F01F002DE9F04186B0040081
S31508001AC00D0000260020ADF802000020019000203D
S31508001AD004905FF00008607B0F2101FB00F7A07BF4
S31508001AE0022812D0032800F0E180062800F01F81A2
S31508001AF0072800F050810C2800F08C810D2800F092
S31508001B00BF810E2800F0F8812BE2A07CDFF8B01D1B
S31508001B100870607CDFF8AC1D0870207CDFF8A81D13
S31508001B200870E07BDFF8A41D0870B4F81300DFF82E
S31508001B30A01D08801121DFF89C0D01F05DFF06212C
S31508001B4002A801F059FFA27CDDA102A804F038F82A
S31508001B5002A9DFF8800D03F07AF8DAA1DFF8740D30
S31508001B6003F075F8062102A801F046FF627CD4A1AD
S31508001B7002A804F025F802A9DFF8580D03F067F863
S31508001B80D0A1DFF8500D03F062F8062102A801F093
S31508001B9033FF227CCAA102A804F012F802A9DFF8D2
S31508001BA0340D03F054F8C7A1DFF8280D03F04FF8F9
S31508001BB0062102A801F020FFE27BC1A102A803F0DA
S31508001BC0FFFF02A9DFF80C0D03F041F80821DFF842
S31508001BD0A80D01F011FF062102A801F00DFFB4F8C7
S31508001BE01320B7A102A803F0EBFFDFA1DFF8880DE9
S31508001BF003F02DF802A9DFF8800D03F028F8DBA121
S31508001C00DFF8740D03F023F800A9DFF8700D01F072
S31508001C109BFE04004FF48072DFF8641D200003F079
S31508001C2077FC1122DFF8AC1C14F1500003F022F9FE
S31508001C300822DFF8441D14F1700003F01BF9012295
S31508001C40DFF87C1C14F16F0003F014F90122DFF8A9
S31508001C50741C14F16E0003F00DF90122DFF8681CFC
S31508001C6014F16D0003F006F90122DFF8601C14F187
S31508001C706C0003F0FFF80222DFF8541C14F17E0012
S31508001C8003F0F8F84FF48072DFF8F41C200003F034
S31508001C9064FB00AA2100DFF8E40C01F078FE3900A5
S31508001CA0C9B22800C0B200F017FE5AE10521DFF8D4
S31508001CB0D40C01F0A1FEE07BDFF8C81C0870207C7C
S31508001CC0DFF8C01C4870607CDFF8B81C8870A07C00
S31508001CD0DFF8B01CC870E07CDFF8A81C087100A902
S31508001CE0DFF8980C01F030FE04004FF48072DFF83C
S31508001CF0901C200003F00CFC0522DFF8881C14F168
S31508001D00800003F0B7F84FF48072DFF8741C2000E7
S31508001D1003F023FB00AA2100DFF8600C01F037FE70
S31508001D203900C9B22800C0B200F0D6FD19E114F195
S31508001D30190000F066FB019014F11201019800F0F9
S31508001D4019F9804601987FF07F41884222D0E07FCA
S31508001D5000280DD17FF07F40804503D04146019889
S31508001D6000F0F7F93900C9B22800C0B200F0B4FD96
S31508001D70E07F01280ED17FF07F40804504D114F121
S31508001D801201019800F02CF93900C9B22800C0B236
S31508001D9000F0A2FDE5E0E07BAA2825D10222DFF8C3
S31508001DA0381D0DF1020003F0B3FB0322DFF82C1DEA
S31508001DB001A803F0ADFB00260BE003220198C11C25
S31508001DC004A803F0A5FB019800F0CEFB0498019047
S31508001DD0761CBDF80200B6B28642EED33900C9B207
S31508001DE02800C0B200F078FDE07B552811D114F127
S31508001DF0100000F006FB7FF07F41884203D114F102
S31508001E00100000F030FB3900C9B22800C0B200F05B
S31508001E1063FDA6E0E07BAA2803D1AA20DFF8C01C50
S31508001E200870E07BFF2803D1FF20DFF8B41C087098
S31508001E3000A9DFF8480B01F087FD04004FF4807213
S31508001E40DFF83C1B200003F063FB0122DFF8901C3F
S31508001E5014F1C00003F00EF84FF48072DFF8201B6F
S31508001E60200003F07AFA00AA2100DFF8100B01F02F
S31508001E708EFD3900C9B22800C0B200F02DFD70E011
S31508001E80E07B002803D10020DFF8581C0870E07BAF
S31508001E90FF2803D1FF20DFF84C1C087000A9DFF8E3
S31508001EA0DC0A01F051FD04004FF48072DFF8D01A05
S31508001EB0200003F02DFB0122DFF8281C04E000BFF8
S31508001EC0256400002E00000014F1300002F0D2FF55
S31508001ED04FF48072DFF8A81A200003F03EFA00AA31
S31508001EE02100DFF8980A01F052FD3900C9B228002E
S31508001EF0C0B200F0F1FC34E0E07BAA2803D1AA20A6
S31508001F00DFF8E41B0870E07BFF2803D1FF20DFF829
S31508001F10D81B087000A9DFF8640A01F015FD040053
S31508001F204FF48072DFF8581A200003F0F1FA012204
S31508001F30DFF8B41B14F1C10002F09CFF4FF4807265
S31508001F40DFF83C1A200003F008FA00AA2100DFF89F
S31508001F502C0A01F01CFD3900C9B22800C0B200F0F5
S31508001F60BBFC06B0BDE8F0812C0000000D000000A7
S31508001F70B04B002030B585B005000C00002000905D
S31508001F800020ADF80400022215F1120101A803F0A1
S31508001F90BFFA032215F10C0100A803F0B9FA0025CF
S31508001FA006E003220098C11C00A803F0B1FA6D1CD4
S31508001FB0BDF80400ADB285420ED207220098811DF5
S31508001FC002A803F0A5FA072202A9200001F047FD9E
S31508001FD00128E6D1009801E07FF07F4005B030BDCA
S31508001FE070B586B004000D00002002900020019014
S31508001FF000260020ADF800000020ADF80200002001
S315080020000390022214F1120100A803F081FA0222B9
S31508002010DFF8D81A0DF1020003F07AFA032214F158
S315080020200F0102A803F074FABDF80000401CADF8D1
S315080020300000BDF80200401CADF8020003F0D3FB17
S31508002040019007220198811D280003F058F9012202
S31508002050019810F10D01E81E03F051F904220198C8
S3150800206010F10E0103A803F04AF90222019810F1B3
S31508002070160103A803F043F904A9DFF8000901F0E3
S3150800208063FC060002987FF07F4188421ED1032236
S3150800209014F10C0101A803F032F9032214F10F011F
S315080020A001A803F02CF94FF480722100300003F0E8
S315080020B02FFA022200A916F1120002F0DBFE4FF4F5
S315080020C080722100300003F048F924E04FF4807252
S315080020D02100300003F01CFA032201A916F10F00B3
S315080020E002F0C8FE022200A916F1120002F0C2FE92
S315080020F04FF480722100300003F02FF90322029872
S31508002100C11C01A803F0FBF80322019810F1120183
S3150800211002A803F0F4F84FF48072DFF86418300070
S3150800212003F0F6F902220DF1020116F1B30002F0EE
S31508002130A1FE4FF48072DFF84818300003F00DF95D
S3150800214004AA3100DFF8340801F021FC019806B032
S3150800215070BD7FB504000D0000200290002001909C
S3150800216000260020ADF800000020ADF8020002228B
S3150800217014F1120100A803F0CBF90222DFF86C195A
S315080021800DF1020003F0C4F90322E91C02A803F0CA
S31508002190BFF9032215F1120101A803F0B9F9BDF838
S315080021A00000401EADF80000BDF80200401EADF864
S315080021B00200280003F0AEFB03A9DFF8C00701F010
S315080021C0C3FB0600BDF80000002833D14FF4807227
S315080021D02100300003F09CF9032202A916F10C0035
S315080021E002F048FE022200A916F1120002F042FE91
S315080021F0032201A916F10F0002F03CFE4FF480728B
S315080022002100300003F0A9F84FF48072DFF8701748
S31508002210300003F07DF902220DF1020116F1B30038
S3150800222002F028FE4FF48072DFF85417300003F0EE
S3150800223094F8DDE001987FF07F41884205D0029846
S315080022407FF07F41884240F0898001987FF07F4186
S3150800225088423ED14FF480720299300003F058F953
S31508002260032201A916F1120002F004FE4FF480724F
S315080022700299300003F071F84FF4807221003000A3
S3150800228003F046F9032202A916F10C0002F0F2FD4A
S31508002290022200A916F1120002F0ECFD4FF480723A
S315080022A02100300003F059F84FF48072DFF8D01699
S315080022B0300003F02DF902220DF1020116F1B300E8
S315080022C002F0D8FD4FF48072DFF8B416300003F040
S315080022D044F802987FF07F41884240F089804FF4A5
S315080022E080720199300003F013F9032202A9F01C49
S315080022F002F0C0FD4FF480720199300003F02DF80A
S315080023004FF480722100300003F002F9032201A97C
S3150800231016F10F0002F0AEFD022200A916F1120016
S3150800232002F0A8FD4FF480722100300003F015F882
S315080023304FF48072DFF84816300003F0E9F80222FD
S315080023400DF1020116F1B30002F094FD4FF480720C
S31508002350DFF82C16300003F000F849E04FF48072DD
S315080023600199300003F0D4F8032202A9F01C02F008
S3150800237081FD4FF480720199300002F0EEFF4FF4B0
S3150800238080720299300003F0C3F8032201A916F1FE
S31508002390120002F06FFD4FF480720299300002F0CD
S315080023A0DCFF4FF480722100300003F0B1F80222FE
S315080023B000A916F1120002F05DFD4FF480722100AB
S315080023C0300002F0CAFF4FF48072DFF8B41530000F
S315080023D003F09EF802220DF1020116F1B30002F095
S315080023E049FD4FF48072DFF89815300002F0B5FF0A
S315080023F003AA3100DFF8840501F0C9FA280004B001
S3150800240070BD30B585B00400002000900222DFF8C8
S31508002410C81601A803F07CF80322DFF8C01600A846
S3150800242003F076F8002506E003220098C11C00A8F0
S3150800243003F06EF86D1CBDF80400ADB285420ED2ED
S3150800244006220098811D02A803F062F8062202A956
S31508002450200001F004FB0128E6D1009801E07FF096
S315080024607F4005B030BD30B585B00400002002902D
S315080024700020009000250020ADF804000020ADF8EB
S315080024800C000222DFF8501601A803F041F80322D7
S31508002490DFF8301D02A803F03BF8BDF80400401C25
S315080024A0ADF8040003F09FF9009006220098811DFC
S315080024B0200002F024FF0222009810F1120103A85E
S315080024C002F01DFF0DF10601DFF8B00401F03CFA39
S315080024D005004FF48072DFF8A814280003F018F8F6
S315080024E002987FF07F41884212D1032200A915F194
S315080024F0A00002F0BFFC022201A915F1A30002F018
S31508002500B9FC032200A915F1A50002F0B3FC18E0F6
S31508002510022201A915F1A30002F0ACFC032200A9CE
S3150800252015F1A50002F0A6FC03220298C11C00A81A
S3150800253002F0E5FE0322009810F1140102A802F049
S31508002540DEFE4FF48072DFF83814280002F005FF2B
S315080025500DF106022900DFF8240401F018FA0098A4
S3150800256005B030BDB44A002070B586B0040000201E
S31508002570ADF802000020039000200490002002908D
S31508002580002001900020ADF8000000250026022258
S3150800259014F112010DF1020002F0BAFF032214F140
S315080025A00C0103A802F0B4FF0322E11C02A802F002
S315080025B0AFFF032214F1140101A802F0A9FF0222B9
S315080025C0DFF8141500A802F0A3FFBDF80000401EAE
S315080025D0ADF80000002005000CE003220398C11C9A
S315080025E004A802F095FF03992000FFF7B2FD0498AE
S315080025F003906D1CBDF80200ADB28542EDD32000F4
S3150800260003F088F905A9DFF8E80401F09DF906004A
S31508002610BDF80000002820D14FF48072DFF860135F
S31508002620300002F075FF032202A916F1A00002F09D
S3150800263021FC022200A916F1A30002F01BFC0322CA
S3150800264001A916F1A50002F015FC4FF48072DFF817
S315080026503013300002F081FE9EE001987FF07F4142
S31508002660884204D002987FF07F4188425DD1019864
S315080026707FF07F41884229D14FF480720299300059
S3150800268002F046FF032201A916F1140002F0F2FB3C
S315080026904FF480720299300002F05FFE4FF48072A8
S315080026A0B749300002F034FF032202A916F1A00050
S315080026B002F0E0FB022200A916F1A30002F0DAFB01
S315080026C04FF48072AE49300002F047FE02987FF060
S315080026D07F41884260D14FF480720199300002F040
S315080026E017FF032202A9F01C02F0C4FB4FF4807204
S315080026F00199300002F031FE4FF48072A049300093
S3150800270002F006FF022200A916F1A30002F0B2FBAE
S31508002710032201A916F1A50002F0ACFB4FF4807262
S315080027209749300002F019FE36E04FF4807201999D
S31508002730300002F0EDFE032202A9F01C02F09AFB1B
S315080027404FF480720199300002F007FE4FF4807250
S315080027500299300002F0DCFE032201A916F11400EA
S3150800276002F088FB4FF480720299300002F0F5FD02
S315080027704FF48072DFF87C13300002F0C9FE0222A3
S3150800278000A916F1A30002F075FB4FF48072DFF87A
S315080027906413300002F0E1FD05AA3100DFF85003AA
S315080027A001F0F5F8200006B070BD80B50A00417B3F
S315080027B00F235943837B022B0CD0032B10D0062BF7
S315080027C014D0072B1BD00C2B1FD00D2B23D00E2B70
S315080027D027D02BE0C9B21000C0B200F077FC25E084
S315080027E0C9B21000C0B200F00EFC1FE00B00DBB24D
S315080027F0D2B210F11001C07B00F07EF916E0C9B222
S315080028001000C0B200F0C0F810E0C9B21000C0B2A3
S3150800281000F0DAFC0AE0C9B21000C0B200F038FDD8
S3150800282004E0C9B21000C0B200F096FD01BDE0B5E3
S315080028301DE04021DFF8740C02F0B5FC02A80190F7
S3150800284000200090002301220021002001F04AFD0B
S315080028504021DFF8580C02F0A9FC02A801900020DC
S315080028600090002301220021002001F03BFDDFF843
S31508002870400C00780028DCD04021DFF8300C02F04C
S3150800288092FC02A80190002000904FF49673002253
S315080028900021002001F026FD4021DFF8100C02F08F
S315080028A085FC02A80190002000904FF49673002240
S315080028B00021002001F016FDD9E70000D84A0020C3
S315080028C0B0000020B1000020B2000020B3000020B4
S315080028D0AC0000206C00002030B585B0040000ADC7
S315080028E0682028706D1C272028706D1C0020287011
S315080028F06D1C272028706D1C002028706D1C682010
S3150800290028706D1C802028706D1C1E480078287061
S315080029106D1C1C48407828706D1C1A4880782870F1
S315080029206D1C1848C07828706D1C164800792870E8
S315080029306D1C002028706D1C51F0600028706D1CFD
S31508002940012028706D1C09210DF10600FDF77DFD9B
S3150800295028706D1C162028706D1CE4B2002C04D05B
S31508002960112100A802F07CF803E0112100A801F06B
S31508002970E2F905B030BD000090000020204C002090
S3150800298000F01F0098000020F0B585B004000F0085
S315080029900DF10201564800F0D7FF0600002E00F0A0
S315080029A09880350003224D4901A802F0B1FD0222A4
S315080029B0DFF8141700A802F0ABFD68203070761C0B
S315080029C0BDF80000062148430930800050F0030096
S315080029D03080B61CBDF80000062148430930800047
S315080029E050F003003080B61C68203070761C8820B2
S315080029F03070761CDFF8BC0A00783070761CDFF879
S31508002A00B40A40783070761CDFF8A80A80783070EF
S31508002A10761CDFF8A00AC0783070761CDFF8940AB6
S31508002A2000793070761C0A203070761C57F06000EA
S31508002A303070761C07203070761C00270FE0C0B275
S31508002A4002A9415C3170761C401CC0B20628F6DB30
S31508002A5003220198C11C01A802F05AFD7F1CBDF88B
S31508002A600000BFB2874207D206220198811D02A83C
S31508002A7002F04EFD0020E8E7BDF8000006214843B5
S31508002A8010F1090189B2A81DFDF7DFFC3070761C2C
S31508002A9016203070761CE4B2002C0AD0BDF800006F
S31508002AA00621484310F1110189B2280001F0D8FF28
S31508002AB009E0BDF800000621484310F1110189B26A
S31508002AC0280001F038F90DF102022900084800F043
S31508002AD05EFF05B0F0BD0000A3F01F00A0F01F00C8
S31508002AE0AE000020AF000020DE4C0020B3F01F002F
S31508002AF0204C002000F01F002DE9FF4F8BB05FF03F
S31508002B00000A5FF00008002500265FF0000B5FF062
S31508002B1000090020ADF8000000270222DFF8A815FA
S31508002B200DF10A0002F0F4FC0222DFF88C1904A861
S31508002B3002F0EEFC0322DFF8841903A802F0E8FC91
S31508002B40BDF80A00002800F05B820DF11A01DFF8D3
S31508002B50700900F0F9FE0400002C00F0518205947B
S31508002B600722DFF860190C9800F079FF012840F079
S31508002B707081BDF810000A2190FBF1F0BDF8101025
S31508002B800A2291FBF2F302FB13118DF802105FF093
S31508002B900008ADF808009DF80200002804D0BDF82A
S31508002BA00800401CADF80800002506E0032203983B
S31508002BB0C11C03A802F0ACFC6D1CBDF80A00ADB23E
S31508002BC0854280F0168206220398811D09A802F024
S31508002BD09FFC0322039810F10C0101A802F098FC4F
S31508002BE00222039810F112010DF1120002F090FC76
S31508002BF0002611E0BDF800001121484310F112012A
S31508002C0089B2059801F097F8059C03220198C11C22
S31508002C1001A802F07DFC761CBDF81200B6B2864209
S31508002C20C4D207220198811D07A802F071FC01226F
S31508002C30019810F10D010DF1030002F069FC012263
S31508002C40019810F1150106A802F062FCFFB2002FE8
S31508002C5040F0A880012718F1010868202070641C3C
S31508002C60BDF8080001280CD1BDF81090ADF8009009
S31508002C70BDF80000112148430A30800050F0030ACD
S31508002C8039E01FFA88F8B8F1010F0CD15FF00A098C
S31508002C90ADF80090BDF80000112148430A308000C5
S31508002CA050F0030A27E0BDF808001FFA88F88045A7
S31508002CB015D19DF80200002804D15FF00A09ADF885
S31508002CC0009003E09DF80290ADF80090BDF8000072
S31508002CD0112148430A30800050F0030A0BE05FF0E8
S31508002CE00A09ADF80090BDF80000112148430A30E2
S31508002CF0800050F0030AA4F800A0A41CA4F800A0C1
S31508002D00A41C68202070641C88202070641CDFF8CE
S31508002D10A40700782070641CDFF8980740782070B4
S31508002D20641CDFF8900780782070641CDFF884073D
S31508002D30C0782070641CDFF87C0700792070641C5A
S31508002D400A202070641CBDF80800012806D19DF8E9
S31508002D50380050F060002070641C1CE01FFA88F8E8
S31508002D60B8F1010F06D19DF8380050F040002070E8
S31508002D70641C10E0BDF808001FFA88F8804506D1E3
S31508002D809DF8380050F020002070641C03E09DF880
S31508002D9038002070641C06202070641C9DF82C00E6
S31508002DA02070641C00202070641C00202070641CA5
S31508002DB05FF0000B08E05FFA8BFB07A81BF8000022
S31508002DC02070641C1BF1010B5FFA8BFBBBF1070F2C
S31508002DD0F1DB5FF0000B08E05FFA8BFB09A81BF834
S31508002DE000002070641C1BF1010B5FFA8BFBBBF122
S31508002DF0060FF1DB00202070641C01202070641C83
S31508002E00B9F101091FFA89F9B9F1000F7FF4FDAE8E
S31508002E100027BDF800001121484310F10A0189B2C4
S31508002E200598801DFDF711FB2070641C1620207084
S31508002E30641C9DF8340000283FF4DCAEBDF80000A1
S31508002E401121484310F1120189B2059801F008FED4
S31508002E50DAE6002530E003220198C11C01A802F039
S31508002E6057FB761CBDF81200B6B2864223D207225B
S31508002E700198811D07A802F04BFB0122019810F169
S31508002E800D010DF1030002F043FB072207A90C9878
S31508002E9000F0E5FD0128DED19DF803009DF82C1011
S31508002EA08842D8D10122019810F1150106A802F02E
S31508002EB02FFB5FF001086D1C5FFA88F8B8F1000F68
S31508002EC01BD1BDF80A00ADB2854216D20622039878
S31508002ED0811D09A802F01CFB0322039810F10C01BE
S31508002EE001A802F015FB0222039810F112010DF158
S31508002EF0120002F00DFB0026B4E75FFA88F8B8F175
S31508002F00000F76D068202070641C6F202070641C27
S31508002F1000202070641C6F202070641C0020207024
S31508002F20641C68202070641C88202070641CDFF8EC
S31508002F30840500782070641CDFF8780540782070D6
S31508002F40641CDFF8700580782070641CDFF864055F
S31508002F50C0782070641CDFF85C0500792070641C5A
S31508002F600A202070641C9DF8380050F0600020701C
S31508002F70641C06202070641C9DF82C002070641CBC
S31508002F8000202070641C00202070641C002505E0C9
S31508002F90ADB207A8285C2070641C6D1CADB2072D65
S31508002FA0F6DB002505E0ADB209A8285C2070641C94
S31508002FB06D1CADB2062DF6DB00202070641C0120C6
S31508002FC02070641C1B210598801DFDF73EFA2070B1
S31508002FD0641C16202070641C9DF83400002804D058
S31508002FE02321059801F03CFD03E02321059800F014
S31508002FF0A2FE0DF11A020599DFF8C40400F0C7FC19
S315080030000FB0BDE8F08FF8B504000D0000A9DFF891
S31508003010B00400F099FC0700002F53D03E0068204A
S3150800302038707F1C272038707F1C002038707F1C62
S31508003030272038707F1C002038707F1C6820387065
S315080030407F1C882038707F1CDFF868040078387089
S315080030507F1CDFF86004407838707F1CDFF8540462
S31508003060807838707F1CDFF84C04C07838707F1C75
S31508003070DFF84004007938707F1C0A2038707F1CFE
S3150800308055F0600038707F1C032038707F1C0921BA
S31508003090B01DFDF7DAF938707F1C162038707F1CD2
S315080030A0E4B2002C04D01121300001F0D9FC03E071
S315080030B01121300000F03FFE00AA3100DFF80004BD
S315080030C000F065FCF1BD0000A3F01F002DE9F041FA
S315080030D082B004000D00002700265FF0000800A952
S315080030E0DFF8DC0300F030FC0700002F68D03E0054
S315080030F0682038707F1C3F2038707F1C002038708D
S315080031007F1C3F2038707F1C002038707F1C682089
S3150800311038707F1C882038707F1CDFF89803007889
S3150800312038707F1CDFF88C03407838707F1CDFF816
S315080031308403807838707F1CDE48C07838707F1C1E
S31508003140DC48007938707F1C0A2038707F1C55F0DF
S31508003150600038707F1C022038707F1CDA480078BF
S3150800316038707F1CD948007838707F1CD84800789A
S3150800317038707F1CD748007838707F1CB846D64808
S315080031800088A8F8000018F1020847460F21B01D6C
S31508003190FDF75BF938707F1C162038707F1CE4B287
S315080031A0002C04D01721300001F05AFC03E0172147
S315080031B0300000F0C0FD00AA3100C14800F0E7FB6E
S315080031C0BDE8F381A5F01F002DE9F04182B00400A7
S315080031D00D00002700265FF0000800A9B84800F097
S315080031E0B3FB0700002F51D03E00682038707F1CC3
S315080031F02B2038707F1C002038707F1C2B203870DD
S315080032007F1C002038707F1C682038707F1C88203F
S3150800321038707F1CA748007838707F1CA54840780E
S3150800322038707F1CA348807838707F1CA148C07806
S3150800323038707F1C9F48007938707F1C0A203870C8
S315080032407F1C55F0600038707F1C0C2038707F1C7E
S31508003250A248007838707F1C0A21B01DFDF7F5F8E2
S3150800326038707F1C162038707F1CE4B2002C04D0FE
S315080032701221300001F0F4FB03E01221300000F0C7
S315080032805AFD00AA31008E4800F081FBBDE8F381A3
S315080032902DE9F04182B004000D00002700265FF0FA
S315080032A0000800A9864800F04FFB0700002F51D000
S315080032B03E00682038707F1C2B2038707F1C002049
S315080032C038707F1C2B2038707F1C002038707F1CBC
S315080032D0682038707F1C882038707F1C75480078F5
S315080032E038707F1C7348407838707F1C7148807826
S315080032F038707F1C6F48C07838707F1C6D4800791D
S3150800330038707F1C0A2038707F1C55F060003870B2
S315080033107F1C0D2038707F1C7148007838707F1C20
S315080033200A21B01DFDF791F838707F1C16203870F9
S315080033307F1CE4B2002C04D01221300001F090FB6F
S3150800334003E01221300000F0F6FC00AA31005C48C8
S3150800335000F01DFBBDE8F3812DE9F04182B00400C1
S315080033600D00002700265FF0000800A9544800F069
S31508003370EBFA0700002F51D03E00682038707F1CFA
S315080033802B2038707F1C002038707F1C2B2038704B
S315080033907F1C002038707F1C682038707F1C8820AE
S315080033A038707F1C4348007838707F1C4148407845
S315080033B038707F1C3F48807838707F1C3D48C0783D
S315080033C038707F1C3B48007938707F1C0A2038709B
S315080033D07F1C55F0600038707F1C0E2038707F1CEB
S315080033E04048007838707F1C0A21B01DFDF72DF87B
S315080033F038707F1C162038707F1CE4B2002C04D06D
S315080034001221300001F02CFB03E01221300000F0FD
S3150800341092FC00AA31002A4800F0B9FABDE8F38107
S3150800342000B585B002A8019003A800904FF48473F4
S31508003430002201212C4802F010FC02A8019000206D
S315080034400090C82300220021002000F04BFF012134
S31508003450264801F09DFE0028E4D14FF40041234898
S3150800346001F0A1FE4FF40051214801F09FFE4FF4F0
S3150800347000710E4801F097FE02A801900020009006
S31508003480642300220021002000F02CFF4FF4007175
S31508003490064801F08BFE02A80190002000906423E4
S315080034A000220021002000F01DFFE0E7000C01408B
S315080034B0DD4C002098000020B3F01F00A0F01F008C
S315080034C0204C002070B00008B0000020B100002099
S315080034D0B2000020B3000020AC000020AE0000209F
S315080034E0AF000020DE4C0020044C002000080140FC
S315080034F0001001402DE9F04106000F0090461C001F
S315080035000025DFF8BC020078002803D042F6E16007
S3150800351020802BE0002E03D145F6C350208025E0FD
S315080035201FFA88F8B8F1000F03D146F294502080AC
S315080035301CE001F0B3FD0500DFF888023060776013
S31508003540414689B216F1140002F013FF16F108007D
S3150800355003F030FADFF870020088401CDFF86812C2
S315080035600880280001F09EFD00202080BDE8F0813B
S315080035702DE9F04F89B004000D0016001F005FF01A
S315080035800008DDF84C908E480078002805D046F2F1
S31508003590AE10A9F800000020C6E0002C05D145F6BB
S315080035A0C350A9F800000020BEE0002F05D146F25E
S315080035B0D520A9F800000020B6E0B6B230000028F1
S315080035C002D0B0F5004F1FD120687E49884221D12C
S315080035D0DDF848A0BAF1000F02D00020CAF80000B2
S315080035E001F05CFD80464B465246390014F1140042
S315080035F002F0C9FE8346B9F80000002810D14046FB
S3150800360001F050FD58468FE045F62560A9F8000000
S31508003610002089E045F6C450A9F80000002083E0A0
S31508003620300408D5404601F03DFD46F2B010A9F831
S315080036300000002078E065480078002808D0404659
S3150800364001F030FD46F66350A9F8000000206BE053
S315080036502B000522210000A803F048F9404601F096
S3150800366021FD03F02BF801F019FD80465848006843
S3150800367090F83500002805D0022838D017D303283B
S3150800368026D045E052480068D0F85CB0504800683B
S31508003690B0F860003880BAF1000F04D04C480068D2
S315080036A0006CCAF800000020A9F8000038E05FF0B6
S315080036B0000B00203880BAF1000F04D04448006897
S315080036C0006CCAF8000046F2A910A9F8000027E025
S315080036D05FF0000B00203880BAF1000F02D00020FE
S315080036E0CAF8000047F2D920A9F8000018E05FF0F0
S315080036F0000B00203880BAF1000F04D03448006867
S31508003700006CCAF8000045F6C250A9F8000007E0A8
S315080037105FF0000B0020388046F62E60A9F80000FE
S31508003720404601F0BFFC584609B0BDE8F08F2DE9C8
S31508003730FC4105000E0017009846089C002D03D191
S3150800374045F6C35020802AE01FFA88F8404600282C
S3150800375015D0102813D0B0F5007F10D0B0F5047F2F
S315080037600DD0B0F5004F0AD048F21001884206D0B5
S31508003770B0F5024F03D048F21021884211D12868CB
S315080037801049884211D103F066FB01940090434624
S315080037909BB23A0092B23100280000F01BF8BDE84F
S315080037A0F38145F625602080F9E745F6C450208068
S315080037B0F5E70021044A11800021018070470000C6
S315080037C0DF4C002051554555D64C0020E44C0020CE
S315080037D0B84C00202DE9F04F83B004000D00160008
S315080037E01F005FF0000A01F059FC824614F1080038
S315080037F0DDF83080DDF834900189002914D1F80607
S3150800380001D4002300E01023CDF80490CDF8008001
S315080038109BB2320092B2290014F1140002F0EBFDBB
S31508003820504601F03FFC25E0B90502D5B0F808B0CE
S3150800383001E05FF0010B00680DE0816840680190C7
S31508003840CDF8008033009BB22A00200003F028F947
S315080038500198BBF1010B1FFA8BFBBBF1000FECD1F2
S31508003860504601F01FFC380401D402F027FF00205F
S31508003870A9F80000BDE8F78F2DE9F84305000E000A
S31508003880170098460020DDF8249058490978002941
S3150800389004D045F2B960A9F8000053E0002F04D11E
S315080038A045F2BB60A9F800004CE01FFA88F8B8F1A9
S315080038B0020F04DA45F2BC60A9F8000042E0089C51
S315080038C0A4B2042C04D245F2C160A9F8000039E07C
S315080038D0032000280FD0074204D045F2BB60A9F8A0
S315080038E000002FE0210089B2014204D045F2C160F0
S315080038F0A9F8000026E03B003A00B8F101010020D3
S3150800390004E0A4B2A2181A601300401C80B289B25F
S315080039108842F6D30020186001F0C0FB34492960BC
S31508003920AE606F60EF60A5F81480A5F812802C824F
S3150800393030490988491C2F4A118001F0B3FB002041
S31508003940A9F80000BDE8F18370B505000C00002059
S31508003950002D04D145F2BF602080002016E001F05A
S315080039609DFBA98A002906D101F09CFB45F2C2609D
S31508003970208000200AE0EE683168E960A98A491EBD
S31508003980A98201F08FFB00202080300070BD70B541
S3150800399005000E0014000020002D03D145F2BF607B
S315080039A020801BE0002E03D145F2BE60208015E082
S315080039B001F074FBA98A6A8A914205D301F072FB69
S315080039C045F2BA60208009E0E9683160EE60A98AAC
S315080039D0491CA98201F066FB0020208070BD0021E9
S315080039E0044A11800021018070470000DF4C002046
S315080039F04D454D20D24C002080B50A00002100F02C
S31508003A0001F801BD30B4002A27D0002825D00023AC
S31508003A10002403E01B02C9B20B43641C042CF9D32F
S31508003A200425B0FBF5F404FB1504E4B2002C08D019
S31508003A3003E00170401C521E641C002A01D0042CAD
S31508003A40F7D302E00360001D121F042AFAD202E02F
S31508003A500170401C521E002AFAD130BC704770B45F
S31508003A601300002B01D1012052E0002801D10020CB
S31508003A704EE0002901D100204AE001221818591801
S31508003A800425B0FBF5F404FB1504E4B20426B1FBE7
S31508003A90F6F505FB1615EDB2AC4201D1012500E09D
S31508003AA00025EDB2012D2CD1002C10D008E0401EC7
S31508003AB0491E05780E78B54200D000225B1E641EAA
S31508003AC0D2B2012A03D1002B01D0002CEFD1D2B2F9
S31508003AD0012A16D107E0001F091F04680D68AC42C9
S31508003AE000D000221B1FD2B2012A01D1042BF2D228
S31508003AF007E0401E491E04780D78AC4200D000222B
S31508003B005B1ED2B2012A01D1002BF2D11000C0B23D
S31508003B1070BC704780B52021DFF8C00303F045FA72
S31508003B2000281CD0DFF8B40303F03BFADFF8B01323
S31508003B300968002913D0DFF8AC130968DFF8A02359
S31508003B401268891AFF290ADADFF8981309680870D3
S31508003B50DFF890030068401CDFF8881308604021EE
S31508003B60DFF8780303F021FA002810D040F2266126
S31508003B70DFF8680303F026FA00AA0021DFF86803D5
S31508003B8000F0B5FABDF80000002800D000BF01BD5E
S31508003B901CB52021DFF8540303F007FA002815D0D6
S31508003BA0D24803F0FEF9040001A9D148FFF7CCFE7C
S31508003BB001000C7001A8009000230122CD48FFF7F0
S31508003BC0B6FDBDF80400002800D000BF4021C74854
S31508003BD003F0EBF900280ED040F22661C34803F043
S31508003BE0F1F901AA0021C44800F081FABDF80400E1
S31508003BF0002800D000BF13BD1CB52021BF4803F024
S31508003C00D4F9002815D0BD4803F0CBF9040001A962
S31508003C10B748FFF799FE01000C7001A80090002331
S31508003C200122B448FFF783FDBDF80400002800D040
S31508003C3000BF4021B14803F0B8F900280ED040F281
S31508003C402661AE4803F0BEF901AA0021AC4800F08F
S31508003C504EFABDF80400002800D000BF13BD70B5A9
S31508003C6084B004000D00A7480078AA282BD10122A9
S31508003C7040F22661A14803F067F9002612E0002009
S31508003C80ADF8040001A8009002AB00224FF4FA71C7
S31508003C909B4800F072F9B6B2315D89B2974803F0D5
S31508003CA07CF9761CB6B2ADB2AE42E8D3002240F239
S31508003CB02661924803F048F94021904803F075F9C7
S31508003CC0002835D1F8E74FF480718F4801F06BFA78
S31508003CD0012240F22661854803F036F9002612E0F3
S31508003CE00020ADF8040001A8009002AB00224FF4B2
S31508003CF0FA71814800F041F9B6B2315D89B27B4864
S31508003D0003F04BF9761CB6B2ADB2AE42E8D3002248
S31508003D1040F22661754803F017F94021734803F00D
S31508003D2044F90028F9D04FF48071774801F03EFA3B
S31508003D30012004B070BD70B584B004000D004FF4C6
S31508003D408071714801F02FFA012240F22661674816
S31508003D5003F0FAF8002612E00020ADF8040001A8E6
S31508003D60009002AB00224FF4FA71634800F005F99F
S31508003D70B6B2315D89B25D4803F00FF9761CB6B26A
S31508003D80ADB2AE42E8D3002240F22661574803F0AE
S31508003D90DBF84021554803F008F90028F9D04FF41C
S31508003DA08071594801F002FA012004B070BD70B55F
S31508003DB084B004000D00012240F22661474803F052
S31508003DC0C3F8002606E0B6B2315D89B2434803F06F
S31508003DD0E4F8761CB6B2ADB2AE420DD201A8009098
S31508003DE002AB00223221404800F0C7F8BDF80400B3
S31508003DF00028E8D0002006E0002240F22661374875
S31508003E0003F0A2F8012004B070BD10B584B0040018
S31508003E10012240F22661314803F096F840F2266105
S31508003E202E4803F0CFF805E0217889B22B4803F035
S31508003E30B4F8641C207800280DD001A8009002ABC5
S31508003E4000223221284800F098F8BDF8040000281E
S31508003E50EAD0002006E0002240F226611F4803F05F
S31508003E6073F8012004B010BD38B50400002501F030
S31508003E7015F905001B48046019480460280001F07C
S31508003E8011F9012032BD80B50021C0B2002809D041
S31508003E9001F004F9010001201C4A1070080001F025
S31508003EA001F908E001F0FAF801000020174A10703D
S31508003EB0080001F0F7F8012002BD80B5012003F0E3
S31508003EC0D7F8002808D000AB00220121104802F0DC
S31508003ED0CAF8012003F0DEF801BD000000480040E2
S31508003EE0CC4C0020C84C0020404B00200038014034
S31508003EF0384C00206C4A00205C4B002000440040EF
S31508003F00784B0020AE00002000080140DD4C002060
S31508003F10044C00202DE9F04105000E0090461C00D7
S31508003F200027DFF838020078002803D042F6E1605F
S31508003F30208020E0002D03D145F6C35020801AE0EA
S31508003F4001F0ACF80700DFF818022860C5F81480FD
S31508003F500020A8616E6015F1080002F02BFDDFF85D
S31508003F6004020088401CDFF8FC110880380001F0C4
S31508003F7099F800202080BDE8F0812DE9F04389B04A
S31508003F8006000F00914698460024109D7348007855
S31508003F90002804D046F2AE10288000207AE0002ED1
S31508003FA004D145F6C3502880002073E01FFA89F92A
S31508003FB04846002802D0B0F5004F20D1306868493D
S31508003FC0884221D1B8F1000F02D00020C8F80000BD
S31508003FD001F064F80400706900281AD07069401E60
S31508003FE07061B8F1000F02D0B069C8F800007669B0
S31508003FF0200001F057F80020288030004AE045F6F6
S3150800400025602880002045E045F6C4502880002019
S3150800401040E05FEA094008D57669200001F042F8D9
S3150800402046F2B0102880300034E04F480078002867
S3150800403007D0200001F036F846F6635028800020A5
S3150800404028E03B000622310000A802F04FFC2000C1
S3150800405001F028F802F032FB01F020F8040043488A
S31508004060006890F83500002805D002282BD014D314
S3150800407003281ED033E0B8F1000F04D03B4800688F
S31508004080006CC8F80000002028807669200001F03E
S3150800409009F8300009B0BDE8F083B8F1000F04D084
S315080040A032480068006CC8F8000046F2A91028805B
S315080040B0EBE7B8F1000F02D00020C8F8000047F27D
S315080040C0D9202880E1E7B8F1000F04D02748006816
S315080040D0006CC8F8000045F6C2502880D5E746F6B9
S315080040E02E602880200000F0DDFF0020D2E770B5A2
S315080040F005000E001400002D04D145F6C35020809B
S31508004100002019E0B6B23000002808D0B0F5007FCC
S3150800411005D0B0F5004F02D0B0F5024F0DD1286892
S315080041200F4988420ED102F096FE020023003100A4
S3150800413089B2280000F01CF870BD45F6256020807D
S315080041400020F9E745F6C45020800020F4E7002156
S31508004150044A11800021018070470000DF4C0020CE
S3150800416053454D41D84C0020E44C0020B84C002063
S315080041702DE9F04782B004000D0016001F005FF01D
S31508004180000800F08BFF804614F108000189002919
S3150800419018D1606910F1010F07D1404600F082FF7F
S315080041A046F6C5503880002033E06069401C6061DF
S315080041B0D4F81490A661404600F074FF00203880B9
S315080041C0484626E0A90502D5B0F8089001E05FF058
S315080041D00109D0F800A00BE0DAF80810DAF804A014
S315080041E0009600230022200002F05AFCB9F10109CA
S315080041F01FFA89F9B9F1000FEED1D4F814904046A8
S3150800420000F050FF280401D402F058FA0020388044
S315080042104846BDE8F68710B450F8041B81B1026819
S315080042201218001D50F8043BDC0744BFA9F101042D
S31508004230E31852F8044B43F8044B091FF9D1EBE78E
S3150800424010BC7047F8B505000E0014000027DFF80B
S3150800425058020078002803D047F27520208040E0F5
S31508004260DFF848020078002803D046F6635020801D
S3150800427037E0B6B23000002805D0022803D004285B
S315080042801FD008281ED1002D03D147F27E2020809A
S3150800429027E000F003FF07000120DFF81412096881
S315080042A081F836002300320092B22900804800685F
S315080042B002F076FF2088002808D0380000F0F2FEC9
S315080042C00FE0E6E745F6256020800AE078480068B2
S315080042D002F0D0FC380000F0E5FE02F0EFF900200D
S315080042E02080F1BDF8B50024079D6F4E3678002E64
S315080042F003D047F275202880AFE06C4C2478002C58
S3150800430003D046F663502880A7E0069C14F00E06F4
S31508004310B6B23700002F05D0022F03D0042F17D0CE
S31508004320082F16D1002B0CD192B2002A09D189B2D6
S31508004330002906D180B2002803D147F27E202880C2
S315080043408BE04FF6E17C14EA0C0F06D1002705E056
S31508004350F7E745F6256028807FE00127FFB2012FA1
S3150800436003D145F62560288077E0C4F30014A4B28B
S3150800437014F00104E4B2012C1BD0B3F57A7F03D301
S3150800438047F27B20288068E092B23C2A03DB47F29A
S315080043907A20288061E089B23C2903DB47F279203C
S315080043A028805AE080B2642814DB47F278202880F7
S315080043B053E089B242F21074A14203DB47F2792036
S315080043C028804AE080B2B0F57A7F03DB47F278208E
S315080043D0288042E0374C246880B24FF4616789B27E
S315080043E05FF03C0C0CFB01F107FB001092B21018B1
S315080043F04FF4FA71B1FBF4F1C91801FB04F14FF45B
S315080044007A72B1FBF2F104FB0017002F22D000F0FC
S3150800441045FE040001202649096881F836002B006C
S31508004420320092B239002248006802F0B9FE2888A4
S31508004430002803D0200000F035FE0EE01C48006876
S3150800444002F018FC200000F02DFE02F037F90020DB
S31508004450288002E047F27E202880F1BD10B582B0A0
S3150800446003F0CBF800AA0021134803F02FFB040041
S31508004470124800780C21124A01FB002002F028FCA1
S3150800448010480068401E0F4908600E48006800285A
S3150800449008D10D4800680B49086000AA00210B489E
S315080044A003F014FB13BD0000DF4C0020E44C002091
S315080044B0B84C0020A0B000087C470020E14C002042
S315080044C0F43E0020B44C0020B04C002030480020B8
S315080044D038B50C001500FFF798FC2000FFF7C4FC60
S315080044E000AA00212800FFF7ADFEDFF814070468CC
S315080044F00020FFF7B9FC200032BD02E00D22027051
S31508004500401C0278002A01D18842F7D3704738B593
S315080045100024002500A9DFF8EC06FFF715FA0400C9
S3150800452025004FF4807200212800FFF76BFA6422F9
S315080045302900DFF8D4064068FFF7CAFF0400210007
S315080045402800FFF7DAFFB7A1280000F029FC0028A9
S3150800455007D000AA2900DFF8AC06FFF718FA0120F1
S3150800456006E000AA2900DFF89C06FFF710FA0020EB
S3150800457032BD70B584B00025002602A9DFF884068E
S31508004580FFF7E2F905002E00002400E0641CE4B2FF
S31508004590642C2DDAE4B2002C09D002A80190002080
S315080045A00090C823002200210020FFF79BFE4FF44D
S315080045B0807200213000FFF725FA64223100DFF807
S315080045C048068068FFF784FF050029003000FFF7DA
S315080045D094FFDFF83816300000F0E2FB0028D5D04B
S315080045E002AA3100DFF81C06FFF7D1F9012006E020
S315080045F002AA3100DFF80C06FFF7C9F9002004B05B
S3150800460070BD2DE9FE4F002500275FF000085FF01A
S3150800461000095FF0000A5FF0000B002402A9DFF82A
S31508004620E405FFF791F983465C46002601E000257C
S31508004630761CF6B2642E53DAF6B2002E09D002A81A
S31508004640019000200090C823002200210020FFF7D7
S3150800465049FE4FF4807200212000FFF7D3F9642247
S315080046602100DFF8A405C068FFF732FF83465946E4
S315080046702000FFF742FFB8A1200000F091FB0028B8
S31508004680D5D03A224FF48071200000F061FB871CD8
S31508004690380003F04FFB80462C224FF4807120002F
S315080046A000F056FB10F10109484603F043FB824629
S315080046B05FFA88F8B8F1060F10DB5FFA8AFABAF1E2
S315080046C0630F0BD06D1CEDB2072DB1DB02AA2100DA
S315080046D0DFF83005FFF75BF9012008E00025A7E7BA
S315080046E002AA2100DFF81C05FFF751F90020BDE8F2
S315080046F0FE8F70B584B00025002602A9DFF80405F0
S31508004700FFF722F905002E00002400E0641CE4B23D
S31508004710642C34DAE4B2002C09D002A801900020F7
S315080047200090C823002200210020FFF7DBFD4FF48C
S31508004730807200213000FFF765F964223100DFF846
S31508004740C8040069FFF7C4FE050029003000FFF71A
S31508004750D4FEDFF8BC14300000F022FB002806D196
S31508004760DFF8B014300000F01BFB0028CED002AAF8
S315080047703100DFF89004FFF70AF9012006E002AAE3
S315080047803100DFF88004FFF702F9002004B070BD9D
S3150800479070B584B00025002602A9DFF86804FFF783
S315080047A0D3F805002E00002400E0641CE4B2642C53
S315080047B02DDAE4B2002C09D002A80190002000905E
S315080047C0C823002200210020FFF78CFD4FF48072D9
S315080047D000213000FFF716F964223100DFF82804BB
S315080047E04069FFF775FE050029003000FFF785FED2
S315080047F0DFF82414300000F0D3FA0028D5D002AA36
S315080048003100DFF80004FFF7C2F8012006E002AA2B
S315080048103100DFF8F003FFF7BAF8002004B070BDE6
S31508004820000000004F4B000038B50024002500A901
S31508004830DFF8D003FFF788F8040025004FF48072EC
S3150800484000212800FFF7DEF864222900DFF8B80304
S315080048508069FFF73DFE040021002800FFF74DFEA2
S3150800486095A1280000F09CFA002807D000AA290084
S31508004870DFF89003FFF78BF8012006E000AA29006D
S31508004880DFF88003FFF783F8002032BD38B500242F
S31508004890002500A9DFF86C03FFF756F80400250089
S315080048A04FF4807200212800FFF7ACF86422290033
S315080048B0D548C069FFF70CFE040021002800FFF761
S315080048C01CFE7DA1280000F06BFA002806D000AA7D
S315080048D02900CC48FFF75BF8012005E000AA29006B
S315080048E0C848FFF754F8002032BD70B582B00025DD
S315080048F0002600A9C348FFF727F805002E00002464
S3150800490000E0641CE4B2642C1EDA4FF480720021C5
S315080049103000FFF777F84FF4FA623100BA48006AB8
S31508004920FFF7D6FD050029003000FFF7E6FD62A176
S31508004930300000F035FA0028E3D000AA3100B1486B
S31508004940FFF725F8012005E000AA3100AD48FFF77A
S315080049501EF8002076BD00004353510070B584B0A0
S315080049600025002602A9A748FEF7EEFF05002E003F
S31508004970002400E0641CE4B2642C2ADAE4B2002CB9
S3150800498009D002A8019000200090C8230022002127
S315080049900020FFF7A7FC4FF4807200213000FFF7D4
S315080049A031F8642231009848406AFFF791FD050006
S315080049B029003000FFF7A1FD8EA1300000F0F0F9C4
S315080049C00028D7D002AA31008E48FEF7E0FF012062
S315080049D005E002AA31008B48FEF7D9FF002004B093
S315080049E070BD38B50024002500A98648FEF7ACFF3F
S315080049F0040025004FF4807200212800FFF702F812
S31508004A008148806AFFF701FA8448FFF7FEF984486F
S31508004A10FFF7FBF92000FFF727FA00AA002140F666
S31508004A20B830FFF70FFC764804680020FFF71CFA39
S31508004A3021002800FFF761FD7A49280000F0B0F947
S31508004A40002806D000AA29006E48FEF7A0FF01201C
S31508004A5005E000AA29006B48FEF799FF002032BD41
S31508004A6030B585B004000D00ADB22A0062A103A8D6
S31508004A7001F0A6F86448C06AFFF7C7F903A8FFF76C
S31508004A80C4F95EA0FFF7C1F901A8009002AB0022A5
S31508004A904FF47A716448FFF770FABDF804000028ED
S31508004AA001D0002005E0290089B22000FFF77FF930
S31508004AB0012005B030BD00004F4B000080B5FFF760
S31508004AC026FD002801D1002039E0FFF752FD002815
S31508004AD001D1002033E0FFF794FD002801D1002022
S31508004AE02DE0FFF706FE002801D1002027E0FFF79A
S31508004AF04FFE002801D1002021E0FFF795FE00288F
S31508004B0001D100201BE0FFF7C1FE002801D10020DB
S31508004B1015E0FFF7EAFE002801D100200FE0FFF7B5
S31508004B201DFF002801D1002009E0FFF75AFF0028E1
S31508004B3001D1002003E001203C490870012002BD94
S31508004B4010B584B00024C0B2002836D002213848F7
S31508004B5000F029FB1021364800F028FB02A8019036
S31508004B6000200090C823012200210020FFF7BAFB8D
S31508004B7010212F4800F017FB02A801900020009092
S31508004B800023032200210020FFF7ACFB0AE002A85D
S31508004B900190002000906423002200210020FFF7E6
S31508004BA0A1FB641CE4B2FA2C05DAFFF7B0FC012875
S31508004BB0EDD1012010E000200EE002211C4800F093
S31508004BC0F5FA02A801900020009000230322002194
S31508004BD00020FFF787FB012004B010BD38B504009C
S31508004BE0002500F05BFA050010480470280000F064
S31508004BF059FA31BD2E000000256400000D000000A2
S31508004C00C84C0020204C00200000002048B00008B6
S31508004C107CAF000888AF000894AF00085000002059
S31508004C2090000020A0AF0008CC4B0020DC4C0020F0
S31508004C3000080140002201E0401C521C002804D054
S31508004C400378002B01D08A42F6D31000704780B54E
S31508004C505FF0FF3200F001F802BD30B4002801D140
S31508004C60002029E0002901D1002025E0002A23D0D0
S31508004C70030000E05B1C002B02D01C78002CF9D145
S31508004C80002B01D1002017E0002404E00D781D70E8
S31508004C905B1C491C641C002B06D0002904D00D7827
S31508004CA0002D01D09442F1D3002B01D0002901D167
S31508004CB0002001E00021197030BC7047F0B4002ACA
S31508004CC001D1002042E0002807D1002901D10020A7
S31508004CD03CE00878404200B238E0002902D100786A
S31508004CE000B233E003000C005B1C641C002504E0E2
S31508004CF0401C491C5B1C641C6D1C06780F78BE4260
S31508004D0008D10678002E05D0002B03D0002C01D040
S31508004D109542EDD3954201D1002017E002780D782F
S31508004D20AA4203D000780978401A0EE000780028D5
S31508004D3001D1002009E0002B06D1002C01D100206A
S31508004D4003E02078404200E0187800B2F0BC7047D3
S31508004D5010B4002801D1002020E0002901D100204C
S31508004D601CE0002301E0401C5B1C002808D00478E6
S31508004D70002C05D00478D2B2944201D08B42F2D3EB
S31508004D80002801D1002009E08B4201D3002005E06C
S31508004D900178D2B2914201D00020FFE710BC7047DB
S31508004DA080B55FF0FF3200F001F802BD2DE9F84347
S31508004DB004000D001100002C01D1002047E0002D51
S31508004DC001D1002043E0002901D100203FE011F184
S31508004DD0010F01D04E1C01E05FF0FF362000FFF7FF
S31508004DE029FF070031002800FFF724FF0600002EE0
S31508004DF001D120002BE0B74201D2002027E0381964
S31508004E00002801D1002022E07019002801D10020D5
S31508004E101DE0BF1B5FF00008002118EB04093200F3
S31508004E2029004846FFF74AFF00B2002801D10121B0
S31508004E3000E0002118F10108C9B2002901D147454F
S31508004E40EBD200B2002801D0002000E04846BDE8B9
S31508004E50F28350F8041B61B150F8042BD30744BF02
S31508004E60A9F101039A18002342F8043B091FFAD155
S31508004E70EFE77047002800D17047002900D1704736
S31508004E80002A00D170472DE9F81F00F0030301F04E
S31508004E900304A34211D1C3F1040303F00303012B56
S31508004EA01DD3012A00D2F2E011F8014B00F8014B9C
S31508004EB0A3F10103A2F10102F1E700F0010301F0F9
S31508004EC00104A34200D094E0012B44D311F8014B0E
S31508004ED000F8014BA3F10103A2F10102F4E7B2F5D0
S31508004EE0B47F26D3B1E8F81FA0E8F81FB1E8F81F89
S31508004EF0A0E8F81FB1E8F81FA0E8F81FB1E8F81F06
S31508004F00A0E8F81FB1E8F81FA0E8F81FB1E8F81FF5
S31508004F10A0E8F81FB1E8F81FA0E8F81FB1E8F81FE5
S31508004F20A0E8F81FB1E8F81FA0E8F81FA2F5B472C8
S31508004F30D5E7282A06D3B1E8F81FA0E8F81FA2F19A
S31508004F402802F6E7042A06D351F8043B40F8043B46
S31508004F50A2F10402F6E7202A42D331F8023B20F8F0
S31508004F60023B31F8023B20F8023B31F8023B20F8BD
S31508004F70023B31F8023B20F8023B31F8023B20F8AD
S31508004F80023B31F8023B20F8023B31F8023B20F89D
S31508004F90023B31F8023B20F8023B31F8023B20F88D
S31508004FA0023B31F8023B20F8023B31F8023B20F87D
S31508004FB0023B31F8023B20F8023B31F8023B20F86D
S31508004FC0023B31F8023B20F8023B31F8023B20F85D
S31508004FD0023B31F8023B20F8023BA2F12002BAE775
S31508004FE0022A06D331F8023B20F8023BA2F102025C
S31508004FF0F6E7102A42D311F8013B00F8013B11F8F5
S31508005000013B00F8013B11F8013B00F8013B11F8A0
S31508005010013B00F8013B11F8013B00F8013B11F890
S31508005020013B00F8013B11F8013B00F8013B11F880
S31508005030013B00F8013B11F8013B00F8013B11F870
S31508005040013B00F8013B11F8013B00F8013B11F860
S31508005050013B00F8013B11F8013B00F8013B11F850
S31508005060013B00F8013B11F8013B00F8013B11F840
S31508005070013B00F8013BA2F11002BAE7012A06D368
S3150800508011F8013B00F8013BA2F10102F6E7BDE881
S31508005090F81F704772B6704762B67047EFF3108014
S315080050A072B6704780F31088704730BF704720BFCC
S315080050B07047B0FA80F0704790FAA0F0B0FA80F026
S315080050C0704790FAA0F07047F0B40022002600243A
S315080050D000250023002791F803C01CF00F0C624638
S315080050E091F803C05FEACC6C01D58B781A430B782C
S315080050F01B0621D00368002406E0CD78482D02D18E
S315080051000125A5400561641C082C14D20125A5407B
S315080051100E882E40AE42F6D1A5000F2616FA05F7E0
S31508005120BB4312FA05F52B43CD78282DE5D1012589
S31508005130A5404561E7E703600B88FF2B26DD43683A
S31508005140002420E0012514F10806B5400E882E40FB
S31508005150AE4217D1A5000F2616FA05F7BB4312FA79
S3150800516005F52B43CD78282D04D1012514F1080621
S31508005170B5404561CD78482D04D1012514F10806BE
S31508005180B5400561641C082CDCD34360F0BC70474D
S315080051900022806889B2084201D0012200E000227C
S315080051A01000C0B2704789B20161704789B2416187
S315080051B0704770B40022002400230025002802D579
S315080051C02F4A136801E02F4A1368C0F3034582B2D9
S315080051D010F44014B4F5401F08D133F07063294C1D
S315080051E0246834F07064274D2C600FE0C40205D59E
S315080051F00324AC40A34353F0706307E0440DE4B2C4
S31508005200240112FA04F4A34353F07063C9B20029C7
S3150800521005D0410DC9B2090112FA01F10B43002864
S3150800522002D51748036001E01648036070BC704752
S3150800523010B400220F2311F00304E4B2A400A34023
S315080052401A00C9B28B10104C54F8233033EA020204
S31508005250C9B28B100C4C44F82320C9B28A100A4BE9
S3150800526053F82220C0B211F00303DBB29B0098402A
S315080052701043C9B28910044A42F8210010BC70478D
S315080052801C000140040001400800014010B504005C
S3150800529000F0DEF94FF48051DFF87808FFF786FF53
S315080052A0202000F0B8F9200CC0B200F0B4F9200AAA
S315080052B0C0B200F0B0F92000C0B200F0ACF94FF46B
S315080052C08051DFF85008FFF76EFF00F0D2F910BDE5
S315080052D080B500F0BDF900F0CCF94FF48051DFF845
S315080052E03408FFF763FFC72000F095F94FF48051A3
S315080052F0DFF82008FFF757FF00F0BBF901BD70B5CE
S3150800530004000D00160000F0A3F94FF48051DFF8F1
S315080053100408FFF74BFF022000F07DF9280CC0B205
S3150800532000F079F9280AC0B200F075F92800C0B271
S3150800533000F071F903E0207800F06DF9641C300084
S31508005340461E80B20028F6D14FF48051DFF8C40714
S31508005350FFF729FF00F08DF970BD70B504000D0048
S3150800536016002800FFF792FF00F072F94FF48051FB
S31508005370DFF8A007FFF71AFF022000F04CF9280C07
S31508005380C0B200F048F9280AC0B200F044F9280073
S31508005390C0B200F040F903E0207800F03CF9641C44
S315080053A03000461E80B20028F6D14FF48051DFF84F
S315080053B06407FFF7F8FE00F05CF970BD2DE9F843C5
S315080053C006000D000027002400205FF000085FF0AB
S315080053D000094FF48071B5FBF1F303FB1153180074
S315080053E04142884692B24FF4807192FBF1F10F0068
S315080053F092B24FF4807192FBF1F303FB11231C0068
S31508005400C0B200281FD1FFB2002F0FD192B22900D7
S315080054103000FFF774FF79E04FF4807229003000FE
S31508005420FFF76DFF15F5807516F580763800471E6F
S31508005430C0B20028F0D1E4B2220092B229003000AE
S31508005440FFF75DFF62E0FFB2002F25D15FFA88F80B
S31508005450E4B2A0451AD2B4EB08095FFA88F84246C6
S3150800546092B229003000FFF74AFF5FFA88F818EB76
S3150800547005055FFA88F818EB06065FFA89F94A46C1
S3150800548092B229003000FFF73AFF3FE092B22900B6
S315080054903000FFF734FF39E05FFA88F8B2EB08020C
S315080054A092B24FF4807092FBF0F792B24FF480708C
S315080054B092FBF0F404FB10245FFA88F8424692B295
S315080054C029003000FFF71BFF5FFA88F818EB05057F
S315080054D05FFA88F818EB060609E04FF4807229008F
S315080054E03000FFF70CFF15F5807516F58076380045
S315080054F0471EC0B20028F0D1E4B2002C06D0E4B2B0
S31508005500220092B229003000FFF7F9FEBDE8F183C8
