S00C0000546573742E7372656378
S31508000000F8440020E5AD00087BAC00087DAC00088C
S315080000107FAC000881AC000883AC00080000000033
S3150800002000000000000000000000000085AC000889
S3150800003087AC0008000000001392000889AC00088D
S31508000040B9AF0008BDAF0008C1AF0008C5AF0008CA
S31508000050C9AF0008CDAF0008A9AC0008D1AF0008A9
S31508000060D5AF0008D9AF0008DDAF0008E1AF00083A
S31508000070E5AF0008E9AF0008EDAF0008F1AF0008EA
S31508000080F5AF0008F9AF0008FDAF000801B0000899
S3150800009005B0000809B000080DB0000811B0000846
S315080000A015B0000819B000081DB0000821B00008F6
S315080000B025B0000829B000082DB0000831B00008A6
S315080000C035B0000839B000083DB0000841B0000856
S315080000D045B0000891AC000899AC0008A1AC00082E
S315080000E049B000084DB0000851B00008F0B585B019
S315080000F0002619E0FFB2682F16D1DFF83C0A00681F
S31508000100411CDFF8342A1160077000260120DFF849
S31508000110101D087002A9DFF8240A03F09BFBBDF83E
S315080001200800002800D000BFDFF80C0A0068002885
S315080001301AD102A9DFF8080A03F034FEDFF8F81925
S315080001400860DFF8F4090068DFF8D81C08604FF487
S3150800015080720021DFF8CC0C006803F081FEBDF840
S315080001600800002800D000BF02A8019003A800904C
S315080001700DF10A0300220021DFF8AC0C03F036FF6C
S3150800018001000F7802AADFF8A40C03F02EFEDFF8B0
S31508000190A00C0078002862D0DFF8840C00780028CC
S315080001A0A8D0DFF894090068411CDFF88C29116093
S315080001B00770DFF884090068DFF8681C0968401AC8
S315080001C00B2805D1DFF85C0C0068807A10F10D0663
S315080001D0F6B2002EA8D0DFF860090068DFF8441CE4
S315080001E00968401AF6B2B0429EDBDFF84C0900688F
S315080001F010F8010C162897D1DFF83C090768F6B203
S31508000200B11E89B2DFF81C0C006800F02AF917F84D
S31508000210021CC0B2814287D100BF02AB0022002176
S31508000220DFF8180903F06BFB02A800900023F6B26A
S31508000230320092B2DFF8EC0B0168DFF8F80B03F036
S31508000240B4FF0020DFF8DC1B08600020DFF8E818A0
S3150800025008600020DFF8C81B0870002664E7DFF88E
S31508000260C00B007800281ED1FFB2682F7FF45CAF60
S31508000270DFF8C4080068411CDFF8BC281160077065
S315080002800026012400250120DFF8941B087002A926
S31508000290DFF8A80803F0DEFABDF8080000283FF4E6
S315080002A043AF00BF40E7DFF890080068411CDFF85D
S315080002B0882811600770EDB2002D39D1641CE4B2AC
S315080002C0062C7FF431AFDFF85C0B006840796828AC
S315080002D020D1DFF8500B0068B0F80100DFF8441BA6
S315080002E00968B1F8031080B289B2884204D10125A1
S315080002F080B28608083617E70020DFF8241B087046
S31508000300002600240025DFF81C0B0068DFF82818F3
S31508000310086009E70020DFF8081B0870002600249B
S315080003200025DFF8000B0068DFF80C180860FBE60C
S31508000330F6B2002E3FF4F8AEDFF8FC070068DFF8E7
S31508000340E41A0968401AF6B2B042FFF6EDAEDFF8D5
S31508000350E807006810F8010C162869D1DFF8D807F5
S315080003600468F6B2B6F1080189B2DFF8B80A00687F
S31508000370801D00F076F814F8021CC0B2814249D1FB
S3150800038000BF02AB00220021DFF8B00703F0B7FA7E
S31508000390DFF8900A0068007B032806D0042817D0E7
S315080003A00A2802D00B2813D024E00020DFF888178B
S315080003B00968087002A800900023F6B2320092B2CB
S315080003C0DFF8600A0168DFF84C0C03F0EEFE11E076
S315080003D00020DFF864170968087002A80090002357
S315080003E0F6B2320092B2DFF83C0A0168DFF8280C50
S315080003F003F0DBFE0020DFF82C1A08600020DFF887
S31508000400381708600020DFF8181A0870002600243C
S31508000410002589E6DFF80C0A0068DFF81C17086073
S315080004200020DFF8FC1908700026002400257BE66A
S31508000430DFF8F0090068DFF8001708600020DFF829
S31508000440E01908700026002400256DE6DFF8D409B7
S315080004500068DFF8E41608600020DFF8C4190870A1
S31508000460704710B40022002303E09BB21C5CA2185C
S315080004705B1C9BB289B28B42F7D31000C0B210BC8A
S315080004807047000030B583B0002000210022002408
S3150800049000250FE02C004FF480720021280003F09D
S315080004A0DFFC280004F0D0F801AA0021DFF86C0B65
S315080004B004F00DFADFF8680B0078012840F0A180F7
S315080004C0002C14D101A9DFF8780603F06BFC0400B0
S315080004D025004FF480720021280003F0C1FCBDF806
S315080004E00400002800D000BF280004F0ADF8DFF8AB
S315080004F0340B0068DFF8301B0968401A01287ADBDC
S3150800050001AA0021042004F08DFADFF8180B04680C
S315080005102100280004F0E1FBA5A1280005F030F829
S315080005200028B7D1DFF8041B280005F029F80028B1
S315080005300ED001A800900023621B92B22900DFF8B2
S31508000540F00A03F032FE0024002004F07DF8B1E73B
S31508000550DFF8E01A280005F013F8002810D02C0060
S315080005604FF480720021280003F07AFC0020040072
S315080005700025002004F068F8002004F01FFF99E722
S31508000580DFF8B41A280004F0FBFF002810D02C006E
S315080005904FF480720021280003F062FC002004005A
S315080005A00025002004F050F8002004F007FF81E73A
S315080005B0DFF8881A280004F0E3FF002810D02C0082
S315080005C04FF480720021280003F04AFC0020040042
S315080005D00025002004F038F8002004F0EFFE69E753
S315080005E02C004FF480720021280003F039FC280003
S315080005F004F02AF85EE701AA0021042004F012FAA2
S3150800060058E7002C10D04FF480720021280003F020
S3150800061027FC01AA2900DFF8280503F0E6FB0024D9
S315080006200025002004F010F8002004F079FE0120CF
S3150800063004F076FE04F032FE3CE72DE9FF41002681
S3150800064000240020ADF80A005FF000080025002706
S3150800065005E002AA2100DFF8E80403F0C6FB02A8B9
S31508000660019003A800900DF10A0300220021DFF88B
S31508000670C00903F0BBFC0400B5A1200004F080FF0C
S3150800068010F10208404600F095F80700BFB2002FA7
S31508000690DFD098F80C0000280CD0022828D00328B0
S315080006A027D0042841D00A2823D00B283DD00C286F
S315080006B0CFD0CEE798F80D0010F00F05DFF88009C7
S315080006C00078EDB2854206D102AA0021DFF8740946
S315080006D004F0FDF80BE0DFF870090078EDB285420A
S315080006E005D102AA0021DFF8640904F0F0F8B0E7A2
S315080006F0AFE702A9DFF8480403F054FB0600002E12
S3150800070012D0BFB23A004146300004F0A3FF0120E0
S31508000710BFB2B85502A8009000233A0092B2310041
S31508000720DFF8F00803F041FD93E798F80D000F2174
S3150800073001FB00F598F80E00052808D1DFF8100926
S3150800074005702900C9B2012002F088FA2EE0DFF808
S3150800075000090078EDB2A84223D002A9DFF8E00329
S3150800076003F020FB0600002E08D0BFB23A0041462F
S31508000770300004F06FFF0120BFB2B855DFF8D0088B
S3150800078005702900C9B2012002F068FA02A8009093
S3150800079000233A0092B23100DFF87C0803F005FD29
S315080007A004E02900C9B2012002F058FA51E7000016
S315080007B00A3E000070B50400B4F80150B4F803000E
S315080007C0ADB280B2854214D1ADB2AD08ADB228192A
S315080007D08679290089B2A01DFFF743FE864208D113
S315080007E0ADB22819C079162803D115F10800C0B290
S315080007F000E0002070BD10B5002405F03FF80400A5
S31508000800DFF8D00D0078401CDFF8C81D0870DFF847
S31508000810C40D007810F00F00DFF8B81D087020002E
S3150800082005F030F810BD30B589B0002409E002A8FB
S31508000830019000200090642300220021002004F08B
S3150800084041F904AD682028706D1C272028706D1C9E
S31508000850002028706D1C272028706D1C0020287029
S315080008606D1C682028706D1CC92028706D1CDFF867
S31508000870680D007828706D1CDFF85C0D40782870CC
S315080008806D1CDFF8540D807828706D1CDFF8480D54
S31508000890C07828706D1CDFF8400D007928706D1C33
S315080008A0022028706D1CDFF82C0D007850F07000BF
S315080008B028706D1CDFF81C0D0078DFF884170870A7
S315080008C0FFF799FF032028706D1C09210DF116000A
S315080008D0FFF7C7FD28706D1C162028706D1CDFF801
S315080008E0400700780028A2D0002500E06D1CDFF83C
S315080008F030070078002818D0EDB2032D15DA002449
S31508000900112104A804F09CFC0028EFD002A800904E
S3150800091003AB002241F28831DFF8280703F01DFFF8
S31508000920BDF808000028E1D10124E4B2002C0AD061
S3150800093002A8019000200090002300220221002036
S3150800094004F0C0F87DE7002004F038FD79E70000E0
S315080009500D0A680080B5C0B200280CD0DFF87C0C00
S315080009600078AA2803D1012000F046F80FE00120FC
S3150800097000F05FF80BE0DFF8640C0078AA2803D1D2
S31508000980002000F039F802E0002000F052F801BD1E
S315080009901FB511E00120FFF7DDFFBDF80800015D76
S315080009A0200000F0CFF80020FFF7D4FF0DF10A026F
S315080009B02100634803F019FA0DF10A00019003A813
S315080009C0009002AB00220021DFF84C0603F00EFB74
S315080009D00400207B042802D00B28DBD0E6E70120A0
S315080009E0FFF7B8FFBDF80800015D200000F0F8FD2C
S315080009F00020FFF7AFFFD9E7E0B5C0B2002811D055
S31508000A004FF40051DFF8AC0D04F0BDFF02A80190C9
S31508000A10002000904FF4FA7301220021002004F010
S31508000A2051F805E04FF40051DFF8880D04F0AEFFE9
S31508000A300EBDE0B5C0B2002810D04021DFF8780D11
S31508000A4004F0A1FF02A80190002000904FF416734D
S31508000A5000220021002004F035F804E04021DFF8E8
S31508000A60580D04F093FF0EBDE0B5C0B200280FD0B4
S31508000A700421DFF8480D04F086FF02A80190002043
S31508000A800090002303220021002004F01BF804E054
S31508000A900421DFF8280D04F079FF0EBDE0B5C0B2D9
S31508000AA000280FD00221DFF8140D04F06CFF02A80D
S31508000AB0019000200090002303220021002004F06A
S31508000AC001F804E00221DFF8F40C04F05FFF0EBD24
S31508000AD0E0B5C0B200280FD00121DFF8E00C04F021
S31508000AE052FF02A801900020009000230322002153
S31508000AF0002003F0E7FF04E00121DFF8C00C04F052
S31508000B0045FF0EBDE0B5C0B200280FD08021DFF842
S31508000B10A80C04F038FF02A80190002000900023DA
S31508000B2003220021002003F0CDFF04E08021DFF836
S31508000B30880C04F02BFF0EBDC83C0020683A002044
S31508000B40283C00202DE9F04389B004000D00002060
S31508000B500190002000900020ADF80C000020ADF8B0
S31508000B600A000026002700208DF808005FF000091B
S31508000B705FF000080222DFF8041E03A805F00EF84D
S31508000B800322DFF8FC1D01A805F008F8BDF80C00E3
S31508000B90002800F0A580012003F065FD0722DFF894
S31508000BA0E41D14F1100003F088F9012840F09B8039
S31508000BB0002633E007220098811D06A804F0EEFF00
S31508000BC00122009810F10D0102A804F0E7FF2B009E
S31508000BD0DBB29DF80820009906A800F02DF903223B
S31508000BE00098C11C00A804F0D9FF7F1CBDF80A00B4
S31508000BF0BFB28742DED30622DFF88C1D04A803F0B5
S31508000C005CF9002803D1019904A800F0C1FE03226B
S31508000C100198C11C01A804F0C1FF761CBDF80C00A0
S31508000C20B6B2864253D206220198811D04A804F062
S31508000C30B5FF0322019810F10C0100A804F0AEFFDD
S31508000C400222019810F112010DF10A0004F0A6FF24
S31508000C500622DFF8341D04A803F02FF9002834D142
S31508000C60019904A800F0ACFD00282ED10DF10E0163
S31508000C70DFF8180D03F096F88046002718E04FF4C1
S31508000C8080720099404604F089FF98F8160050F0E3
S31508000C90800088F816004FF480720099404604F0E8
S31508000CA04CFF03220098C11C00A804F077FF7F1CA4
S31508000CB0BDF80A00BFB28742E1D30DF10E024146E4
S31508000CC0DFF8C80C03F091F8A7E700278EE72A009B
S31508000CD0D2B20021012000F0BDF9002003F0C3FCC8
S31508000CE009B0BDE8F083002622E02B00DBB29DF8B0
S31508000CF00820009906A800F09FF82A00D2B20099A9
S31508000D00002000F0A7F90622DFF87C1C04A803F0EF
S31508000D10D4F8002803D1019904A800F039FE5FF041
S31508000D20010903220198C11C01A804F037FF761CAB
S31508000D305FFA89F9B9F1000FCFD1BDF80C00B6B248
S31508000D408642CAD206220198811D04A804F026FF0D
S31508000D500322019810F10C0100A804F01FFF0222DB
S31508000D60019810F112010DF10A0004F017FF00278F
S31508000D7006E003220098C11C00A804F00FFF7F1CA0
S31508000D80BDF80A00BFB28742CBD207220098811D60
S31508000D9006A804F003FF0122009810F10D0102A82D
S31508000DA004F0FCFE072206A914F1100003F085F8EA
S31508000DB00128DED19DF80800E17B8842D9D10622B8
S31508000DC0DFF8C41B04A803F078F800288DD1019930
S31508000DD004A800F0F5FC002887D10DF10E01DFF814
S31508000DE0AC0B02F0DFFF80464FF480720099404654
S31508000DF004F0D4FE98F8160050F0800088F8160023
S31508000E004FF480720099404604F097FE0DF10E02E9
S31508000E104146DFF8780B02F0E8FF5FF0010980E74A
S31508000E20F43C0020CC3C0020943A0020403C0020B2
S31508000E30E73C0020DC3A00202DE9F0478CB004009E
S31508000E400D00002600200021ADF80C1000275FF0E9
S31508000E50000800218DF808105FF000095FF0000A0D
S31508000E6007A98A4668218AF800101AF1010A8AF841
S31508000E7000201AF1010A00210E0006E0F6B2305DE4
S31508000E808AF800001AF1010A761CF6B2072EF5DB7D
S31508000E9001208AF800001AF1010A03208AF80000E6
S31508000EA01AF1010A1F208AF800001AF1010A902097
S31508000EB08AF800001AF1010A01208AF800001AF1DE
S31508000EC0010A0E2107A8FFF7CCFA8AF800001AF1E2
S31508000ED0010A16208AF800001AF1010A002604E021
S31508000EE0FE20F6B204A97054761CF6B2042EF7DB7F
S31508000EF0002617E0C0B2C119897BC0B204AA815482
S31508000F00C0B2C119C97CC0B205AA8154401CC0B27E
S31508000F100428EFDB0DF10A023900DFF8700A02F047
S31508000F2064FF761C5FFA88F8B8F1000F30D1F6B284
S31508000F30032E2DDA042104A803F081FA102107A84C
S31508000F4003F07DFA0DF10A00019006A8009003ABA4
S31508000F5000224FF49661DFF86C0D03F047F807009E
S31508000F60BDF80A00002805D0F6B2022E01D15FF0BE
S31508000F700008D6E70722B91C200002F09EFF0128C8
S31508000F80C8D15FF00108F87F8DF808000020BEE799
S31508000F900DF10A01DFF8F40902F004FF81464FF467
S31508000FA080722900484604F0F9FD5FFA88F8B8F11E
S31508000FB0000F0CD199F8160050F0400089F8160079
S31508000FC04FF480722900484604F0B7FD17E0012265
S31508000FD002A919F1160004F03DFB042204A919F12F
S31508000FE00E0004F037FB042205A919F1180004F0D5
S31508000FF031FB4FF480722900484604F09EFD0DF13E
S315080010000A024946DFF8840902F0EFFE0CB0BDE893
S31508001010F0870000003B0020B83A0020D43B0020AF
S31508001020E63C0020D03C0020D43C002028AF000835
S31508001030243B002030AF000838AF000840AF000856
S31508001040F03C00209C3B0020F13C0020B83B0020EF
S31508001050F33C00202DE9F54F8DB0002500200690C1
S315080010605FF000090020ADF81C000020ADF8140060
S315080010700020ADF816000020ADF8000000208DF81D
S3150800108008000020ADF80A0000270020089000207C
S31508001090039000208DF8070000208DF80600002434
S315080010A00020ADF812005FF0000A5FF0000800208B
S315080010B0ADF8040000265FF0000B00208DF8000054
S315080010C0039104A9DFF8C40802F06CFE0500002DA0
S315080010D000F0C68006959DF83400002840F0C880C8
S315080010E007220398811D0BA804F058FD01220398D6
S315080010F010F10D010DF1070004F050FD04220398CC
S3150800110010F10E0109A804F049FD0122039810F117
S3150800111016010DF1060004F041FD682028706D1CCB
S31508001120A9467320A9F8000019F102097320A9F845
S31508001130000019F102094D46682028706D1C8820A8
S3150800114028706D1CDFF89004007828706D1CDFF895
S315080011508804407828706D1CDFF87C048078287035
S315080011606D1CDFF87404C07828706D1CDFF86804FD
S31508001170007928706D1C0B2028706D1CDFF854044C
S31508001180007850F0600028706D1C042028706D1CD3
S31508001190DFF840040078DFF8381D0870FFF72BFBEE
S315080011A0002028706D1C002028706D1C00202870F7
S315080011B06D1C002028706D1C9DF8070028706D1C9A
S315080011C0002405E0A4B20BA8205C28706D1C641CE2
S315080011D0A4B2072CF6DB012028706D1C002405E05C
S315080011E0A4B209A8205C28706D1C641CA4B2042C47
S315080011F0F6DB9DF8060028706D1C002028706D1C13
S315080012001C210698801DFFF72CF928706D1C1620E6
S3150800121028706D1C9DF83800002824D05FF0000A5D
S3150800122001E01AF1010A5FFA8AFABAF1030F11DA34
S315080012302421069804F004F804A800900AAB0022BA
S3150800124041F28831DFF8900C03F087FABDF81000F8
S315080012500028E6D104AA0699DFF8300702F0C5FD92
S315080012600FB0BDE8F08F2421069803F054F9F1E792
S315080012700222DFF808170DF1160004F08FFC02228F
S31508001280DFF8581C05A804F089FC0322DFF8F016DD
S3150800129008A804F083FCBDF814000A2190FBF1F0BD
S315080012A0ADF80000BDF814000A2190FBF1F201FB2D
S315080012B012008DF808000027BDF80000ADF80A00F6
S315080012C09DF80800002804D0BDF80A00401CADF8B7
S315080012D00A00002406E003220898C11C08A804F0A6
S315080012E05DFC641CBDF81600A4B28442B2D2032287
S315080012F0089810F10C0103A804F050FC0222089883
S3150800130010F1120107A804F049FC0020ADF81200FC
S3150800131015E0BDF804000E21484310F1160189B204
S31508001320069803F0F8F8069D03220398C11C03A843
S3150800133004F034FCBDF81200401CADF81200BDF8EC
S315080013401200BDF81C108842C5D207220398811DD9
S315080013500BA804F023FC0122039810F10D010DF1EE
S31508001360070004F01BFC0422039810F10E0109A8DB
S3150800137004F014FC0122039810F116010DF1060081
S3150800138004F00CFCF6B2002E40F0B58001267F1C56
S31508001390BDF80A0001280CD1BDF81480ADF8048008
S315080013A0BDF804000E2148430E30800050F0030BB0
S315080013B036E0BFB2012F0CD15FF00A08ADF8048001
S315080013C0BDF804000E2148430E30800050F0030B90
S315080013D026E0BDF80A00BFB2874215D19DF808007D
S315080013E0002804D15FF00A08ADF8048003E09DF8F0
S315080013F00880ADF80480BDF804000E2148430E307D
S31508001400800050F0030B0BE05FF00A08ADF804808B
S31508001410BDF804000E2148430E30800050F0030B3F
S31508001420682028706D1CA946A9F800B019F10209B0
S31508001430A9F800B019F102094D46682028706D1CFC
S31508001440882028706D1C6448007828706D1C6248D6
S31508001450407828706D1C6048807828706D1C5E483E
S31508001460C07828706D1C5C48007928706D1C0B20AC
S3150800147028706D1CBDF80A00012806D15548007869
S3150800148050F0700028706D1C1BE0BFB2012F06D10A
S315080014905048007850F0500028706D1C11E0BDF8D7
S315080014A00A00BFB2874206D14A48007850F0300099
S315080014B028706D1C05E04748007850F01000287029
S315080014C06D1C44480078DFF8081A0870FFF793F98E
S315080014D0042028706D1CA946BDF80A00A9F800006A
S315080014E019F10209A9F8007019F102094D469DF88B
S315080014F0070028706D1C5FF0000A08E05FFA8AFA98
S315080015000BA81AF8000028706D1C1AF1010A5FFA78
S315080015108AFABAF1070FF1DB012028706D1C5FF01B
S31508001520000A08E05FFA8AFA09A81AF80000287083
S315080015306D1C1AF1010A5FFA8AFABAF1040FF1DB97
S315080015409DF8060028706D1C002028706D1CB8F1E7
S3150800155001081FFA88F8B8F1000F7FF4E5AE0026F7
S31508001560BDF804000E21484310F10E0189B2069811
S31508001570801DFEF776FF28706D1C162028706D1CDE
S315080015809DF8380000283FF4C4AE5FF0000A01E079
S315080015901AF1010A5FFA8AFABAF1030FBFF6C3AE67
S315080015A0BDF804000E21484310F1160189B20698C9
S315080015B003F046FE04A800900AAB002241F28831E7
S315080015C0DFF8140903F0C9F8BDF810000028DFD1C8
S315080015D0A9E60000F23C002098000020AA0000209E
S315080015E02DE9F0478AB004000D0000200390002082
S315080015F002900020ADF806000020ADF81000002685
S31508001600002700208DF804005FF000085FF000094D
S315080016105FF0000A0222D9490DF1060004F0BEFA6D
S315080016200322D74903A804F0B9FABDF80600002832
S3150800163000F0BD80012003F016F800261FE05FFACF
S315080016408AFACDF800A02B00DBB29DF80420029997
S3150800165008A800F039FB0622CB4906A802F02DFCA3
S31508001660002803D1039906A800F092F95FF0010853
S3150800167003220398C11C03A804F090FA761C5FFAAB
S3150800168088F8B8F1000F40F08F80BDF80600B6B2B2
S31508001690864280F0898006220398811D06A804F0F8
S315080016A07DFA0322039810F10C0102A804F076FAD9
S315080016B00222039810F1120104A804F06FFA002719
S315080016C006E003220298C11C02A804F067FA7F1CF0
S315080016D0BDF81000BFB28742CAD207220298811D00
S315080016E008A804F05BFA0122029810F10D0101A87E
S315080016F004F054FA072208A914F1100002F0DDFBE1
S315080017000128DED19DF80400E17B8842D9D1062262
S315080017109D4906A802F0D1FB002826D1039906A800
S3150800172000F04EF8002820D10DF11201974802F07A
S3150800173039FB81464FF480720299484604F02EFA26
S3150800174099F8160050F0800089F816004FF4807258
S315080017500299484604F0F1F90DF1120249468B4800
S3150800176002F043FB5FF0010882E70222029810F1BB
S31508001770160105A804F012FA607B0F2101FB00FA96
S31508001780A07B02283FF45BAF03287FF464AF5FFABF
S315080017908AFACDF800A02B00DBB29DF80420029946
S315080017A008A800F0B7F956E7002002F05CFF0AB077
S315080017B0BDE8F0870010014000080140000C014018
S315080017C02DE9F0478AB004000D0000260020ADF888
S315080017D00A0000275FF0000800205FF000095FF0AC
S315080017E0000ADFF81C1D0978AA291AD120780128D1
S315080017F006D014D303280BD006D304280CD00EE049
S315080018000120FFF731F90AE00120FFF747F906E062
S315080018100120FFF75DF902E00120FFF773F90120C7
S31508001820A9E00DF1100A68208AF800001AF1010AE9
S31508001830A0208AF800001AF1010A002606E0F6B28E
S31508001840305D8AF800001AF1010A761CF6B2062EF7
S31508001850F5DB00208AF800001AF1010A04208AF84C
S3150800186000001AF1010A04208AF800001AF1010A98
S3150800187090208AF800001AF1010AA0208AF80000D0
S315080018801AF1010A01208AF800001AF1010A552006
S315080018908AF800001AF1010A0F2104A8FEF7E1FDF3
S315080018A08AF800001AF1010A16208AF800001AF1CF
S315080018B0010A002608E05FF0000802AA3900DFF8EE
S315080018C0B80502F092FA761C5FFA88F8B8F1000FAC
S315080018D02CD1F6B2032E29DA112104A802F0AFFDA5
S315080018E002A8019003A800900DF10A03002240F611
S315080018F0B831DFF8D00302F079FB0700BDF808001D
S31508001900002805D0F6B2022E01D15FF00008DAE70A
S315080019100622B91C200002F0D0FA0128CDD1B87BE6
S3150800192003210842C7D15FF00108C6E75FFA88F8C5
S31508001930B8F1000F1DD102A9DFF83C0502F032FA12
S3150800194081464FF480722900484604F027F901229F
S315080019506FA119F1170003F07DFE4FF4807229007C
S31508001960484604F0EAF802AA4946DFF80C0502F0F0
S315080019703CFA4046C0B20AB0BDE8F087A3F01F00A3
S31508001980A0F01F0048AF000850AF0008283C002010
S315080019902DE9F0418AB005000C000026DFF8600B3F
S315080019A00078AA281AD12878012806D014D3032843
S315080019B00BD006D304280CD00EE00020FFF754F80D
S315080019C00AE00020FFF76AF806E00020FFF780F833
S315080019D002E00020FFF796F8012095E004AF6820A2
S315080019E038707F1CA02038707F1C5FF0000807E065
S315080019F05FFA88F818F8050038707F1C18F1010896
S31508001A005FFA88F8B8F1060FF2DB002038707F1C01
S31508001A10042038707F1C042038707F1C9020387092
S31508001A207F1CA02038707F1C012038707F1C9920ED
S31508001A3038707F1C0F2104A8FEF713FD38707F1C31
S31508001A40162038707F1C5FF0000808E0002602AAFE
S31508001A503900DFF8240402F0C8F918F10108F6B2D3
S31508001A60002E2FD15FFA88F8B8F1030F2ADA112170
S31508001A7004A802F0E4FC02A8019003A800900DF166
S31508001A800A03002240F6B8318E4802F0AFFA070082
S31508001A90BDF80800002806D05FFA88F8B8F1020FEA
S31508001AA000D10026D9E70622B91C280002F005FA5B
S31508001AB00128CCD1B87BC0B210F003000228C5D1EA
S31508001AC00126C4E7F6B2002E1CD102A9DFF8A80346
S31508001AD002F068F905004FF480722100280004F02E
S31508001AE05DF801220AA115F1170003F0B3FD4FF4C2
S31508001AF080722100280004F020F802AA2900DE4896
S31508001B0002F073F93000C0B20AB0BDE8F0810000F7
S31508001B10010000002DE9F04F8BB004000D001E00F7
S31508001B2000270020ADF80A005FF000085FF0000902
S31508001B3000205FF0000A5FF0000B05A98B466821BC
S31508001B408BF800101BF1010B8BF800201BF1010B21
S31508001B5000210F0006E0FFB2385D8BF800001BF18C
S31508001B60010B7F1CFFB2072FF5DB04208BF8000062
S31508001B701BF1010B04208BF800001BF1010B172049
S31508001B808BF800001BF1010BA0208BF800001BF15D
S31508001B90010B01208BF800001BF1010B55208BF877
S31508001BA000001BF1010B0F2105A8FEF75AFC8BF864
S31508001BB000001BF1010B16208BF800001BF1010B2E
S31508001BC0002704E0FE20FFB203A978547F1CFFB269
S31508001BD0042FF7DB002707E05FF0000902AA414659
S31508001BE0A54802F002F97F1C5FFA89F9B9F1000FDE
S31508001BF031D1FFB2032F2EDA042103A802F01FFC0D
S31508001C00112105A802F01BFC02A8019004A8009067
S31508001C100DF10A03002244F620612A4802F0E6F98B
S31508001C208046BDF80800002805D0FFB2022F01D172
S31508001C305FF00009D7E7072218F10201200002F039
S31508001C403CF90128CAD198F80E0003210842C3D1ED
S31508001C505FF00109C2E702A9874802F0A3F88246A5
S31508001C604FF480722900504603F098FF5FFA89F90D
S31508001C70B9F1000F0CD19AF8160050F040008AF816
S31508001C8016004FF480722900504603F056FF10E004
S31508001C90012290A11AF1160003F0DCFC4FF48072C1
S31508001CA02900504603F049FF14993000C0B200F0ED
S31508001CB0D5FF02AA5146704802F097F80BB0BDE866
S31508001CC0F08F0000DC3A00202DE9F04F8BB00400BD
S31508001CD00D001E0000270020ADF80A005FF000087E
S31508001CE05FF0000900205FF0000A5FF0000B05A90D
S31508001CF08B4668218BF800101BF1010B8BF800202E
S31508001D001BF1010B00210F0006E0FFB2385D8BF8CE
S31508001D1000001BF1010B7F1CFFB2072FF5DB042027
S31508001D208BF800001BF1010B04208BF800001BF157
S31508001D30010B17208BF800001BF1010BA0208BF874
S31508001D4000001BF1010B01208BF800001BF1010BB1
S31508001D5099208BF800001BF1010B0F2105A8FEF74F
S31508001D6080FB8BF800001BF1010B16208BF8000096
S31508001D701BF1010B002704E0FE20FFB203A97854EB
S31508001D807F1CFFB2042FF7DB002707E05FF000098E
S31508001D9002AA4146384802F028F87F1C5FFA89F9FA
S31508001DA0B9F1000F32D1FFB2032F2FDA042103A8AD
S31508001DB002F045FB112105A802F041FB02A801909B
S31508001DC004A800900DF10A03002244F62061DFF80A
S31508001DD0880D02F00BF98046BDF80800002805D0EA
S31508001DE0FFB2022F01D15FF00009D6E7072218F1EA
S31508001DF00201200002F061F80128C9D198F80E0006
S31508001E00C0B28007C2D55FF00109C1E702A91A4826
S31508001E1001F0C8FF82464FF480722900504603F04D
S31508001E20BDFE5FFA89F9B9F1000F0CD19AF81600D0
S31508001E3050F040008AF816004FF480722900504688
S31508001E4003F07BFE10E0012225A11AF1160003F02B
S31508001E5001FC4FF480722900504603F06EFE149977
S31508001E603000C0B200F0FAFE02AA5146024801F05C
S31508001E70BCFF0BB0BDE8F08F283C00201FB50CE076
S31508001E80BDF80800015D200000F068FE0DF10A02A9
S31508001E902100DFF8680E01F0A8FF0DF10A00019095
S31508001EA003A8009002AB00220021DFF8540E02F0CE
S31508001EB09DF80400207B032802D00A28E0D0E5E735
S31508001EC0BDF80800015D200000F00CF8DEE7000010
S31508001ED0F13C002000000000B83B0020B3F01F00D2
S31508001EE0020000002DE9F04186B004000D0000262E
S31508001EF00020ADF8020000200190002004905FF059
S31508001F000008607B0F2101FB00F7A07B02280FD099
S31508001F10032800F0DE80062800F01C81072800F060
S31508001F204D810C2800F089810D2800F0B981EBE17C
S31508001F30A07CDFF8D01D0870607CDFF8CC1D087027
S31508001F40207CDFF8C81D0870E07BDFF8C41D087028
S31508001F50B4F81300DFF8BC1D08801121DFF8B80DAE
S31508001F6001F078FF062102A801F074FFA27CE8A11F
S31508001F7002A804F0E3F802A9DFF89C0D03F057FA6B
S31508001F80E4A1DFF8940D03F052FA062102A801F045
S31508001F9061FF627CDEA102A804F0D0F802A9DFF88E
S31508001FA0780D03F044FADBA1DFF86C0D03F03FFA75
S31508001FB0062102A801F04EFF227CD5A102A804F052
S31508001FC0BDF802A9DFF8500D03F031FAD1A1DFF808
S31508001FD0480D03F02CFA062102A801F03BFFE27B2C
S31508001FE0CBA102A804F0AAF802A9DFF82C0D03F089
S31508001FF01EFA0821DFF8240D01F02CFF062102A89D
S3150800200001F028FFB4F81320C1A102A804F096F83D
S31508002010C1A1DFF8080D03F00AFA02A9DFF8FC0CE3
S3150800202003F005FABDA1DFF8F40C03F000FA00A9E5
S31508002030DFF8C80C01F0B6FE04004FF48072DFF832
S31508002040E01C200003F0AAFD1122DFF8CC1C14F1D5
S31508002050500003F0FFFA0822DFF8C01C14F17000E4
S3150800206003F0F8FA0122DFF89C1C14F16F0003F064
S31508002070F1FA0122DFF8901C14F16E0003F0EAFA77
S315080020800122DFF8881C14F16D0003F0E3FA01223F
S31508002090DFF87C1C14F16C0003F0DCFA0222DFF88E
S315080020A0741C14F17E0003F0D5FA4FF48072DFF841
S315080020B0701C200003F041FD00AA2100DFF83C0C4B
S315080020C001F093FE3900C9B22800C0B200F0C6FD7F
S315080020D01AE10521DFF8900D01F0BCFEE07BDFF880
S315080020E0881D0870207CDFF8801D4870607CDFF84A
S315080020F0781D8870A07CDFF8701DC870E07CDFF85A
S31508002100681D087100A9DFF8F40B01F04BFE040006
S315080021104FF48072DFF8081C200003F03FFD05220B
S31508002120DFF8441D14F1800003F094FA4FF480722E
S31508002130DFF8EC1B200003F000FD00AA2100DFF801
S31508002140BC0B01F052FE3900C9B22800C0B200F03B
S3150800215085FDD9E014F1190000F02CFB019014F16B
S315080021601201019800F0DCF8804601987FF07F4163
S31508002170884222D0E07F00280DD17FF07F4080453D
S3150800218003D04146019800F0BDF93900C9B22800CC
S31508002190C0B200F063FDE07F01280ED17FF07F40DA
S315080021A0804504D114F11201019800F0EFF83900C6
S315080021B0C9B22800C0B200F051FDA5E0E07BAA280C
S315080021C025D10222DFF8A41C0DF1020003F0E6FC7B
S315080021D00322DFF89C1C01A803F0E0FC00260BE0B4
S315080021E003220198C11C04A803F0D8FC019800F04A
S315080021F092FB04980190761CBDF80200B6B286429E
S31508002200EED33900C9B22800C0B200F027FDE07B42
S31508002210552811D114F1100000F0CCFA7FF07F4157
S31508002220884203D114F1100000F0F6FA3900C9B259
S315080022302800C0B200F012FD66E0E07BAA2802D1B1
S31508002240AA20AF490870E07BFF2802D1FF20AC49DD
S31508002250087000A9DFF8A40A01F0A4FD04004FF4F1
S315080022608072DFF8BC1A200003F098FC0122A4490A
S3150800227014F1C00003F0EEF94FF48072DFF8A01AEB
S31508002280200003F05AFC00AA2100DFF8700A01F0CA
S31508002290ACFD3900C9B22800C0B200F0DFFC33E05B
S315080022A0E07B002803D10020DFF8C81B0870E07B1C
S315080022B0FF2803D1FF20DFF8BC1B087000A9DFF850
S315080022C03C0A01F06FFD04004FF48072DFF8501AE3
S315080022D0200003F063FC0122894914F1300003F061
S315080022E0B9F94FF48072DFF8381A200003F025FC9C
S315080022F000AA2100DFF8040A01F077FD3900C9B207
S315080023002800C0B200F0AAFC06B0BDE8F0810000C3
S31508002310256400002E0000002C0000000D000000BF
S3150800232030B585B005000C00002000900020ADF8FF
S315080023300400022215F1120101A803F02FFC032262
S3150800234015F10C0100A803F029FC002506E003227C
S315080023500098C11C00A803F021FC6D1CBDF8040000
S31508002360ADB285420ED207220098811D02A803F05D
S3150800237015FC072202A9200001F09FFD0128E6D1DD
S31508002380009801E07FF07F4005B030BD70B586B09B
S3150800239004000D0000200290002001900026002075
S315080023A0ADF800000020ADF80200002003900222DC
S315080023B014F1120100A803F0F1FB0222DFF8B81AA3
S315080023C00DF1020003F0EAFB032214F10F0102A843
S315080023D003F0E4FBBDF80000401CADF80000BDF8B2
S315080023E00200401CADF8020003F033FD01900722FD
S315080023F00198811D280003F072FB0122019810F153
S315080024000D01E81E03F06BFB0422019810F10E0182
S3150800241003A803F064FB0222019810F1160103A831
S3150800242003F05DFB04A9DFF8D40801F0BBFC060045
S3150800243002987FF07F4188421ED1032214F10C01D5
S3150800244001A803F04CFB032214F10F0101A803F0C5
S3150800245046FB4FF480722100300003F09FFB0222F6
S3150800246000A916F1120003F0F5F84FF48072210066
S31508002470300003F062FB24E04FF480722100300044
S3150800248003F08CFB032201A916F10F0003F0E2F812
S31508002490022200A916F1120003F0DCF84FF480724C
S315080024A02100300003F049FB03220298C11C01A851
S315080024B003F015FB0322019810F1120102A803F09C
S315080024C00EFB4FF48072DFF85818300003F066FBF5
S315080024D002220DF1020116F1B30003F0BBF84FF426
S315080024E08072DFF83C18300003F027FB04AA31009D
S315080024F0DFF8080801F079FC019806B070BD000005
S31508002500AA0000207FB504000D00002002900020DC
S31508002510019000260020ADF800000020ADF802006A
S31508002520022214F1120100A803F038FB0222DFF898
S3150800253048190DF1020003F031FB0322E91C02A839
S3150800254003F02CFB032215F1120101A803F026FB68
S31508002550BDF80000401EADF80000BDF80200401EA0
S31508002560ADF80200280003F0D4FC03A9DFF88C07B5
S3150800257001F018FC0600BDF80000002833D14FF41E
S3150800258080722100300003F009FB032202A916F12C
S315080025900C0003F05FF8022200A916F1120003F0FE
S315080025A059F8032201A916F10F0003F053F84FF466
S315080025B080722100300003F0C0FA4FF48072DFF811
S315080025C06017300003F0EAFA02220DF1020116F153
S315080025D0B30003F03FF84FF48072DFF84417300079
S315080025E003F0ABFADDE001987FF07F41884205D021
S315080025F002987FF07F41884240F0898001987FF0F9
S315080026007F4188423ED14FF480720299300003F030
S31508002610C5FA032201A916F1120003F01BF84FF4BC
S3150800262080720299300003F088FA4FF48072210014
S31508002630300003F0B3FA032202A916F10C0003F0E6
S3150800264009F8022200A916F1120003F003F84FF464
S3150800265080722100300003F070FA4FF48072DFF8C0
S31508002660C016300003F09AFA02220DF1020116F1A3
S31508002670B30002F0EFFF4FF48072DFF8A4163000C3
S3150800268003F05BFA02987FF07F41884240F0898028
S315080026904FF480720199300003F080FA032202A9F0
S315080026A0F01C02F0D7FF4FF480720199300003F056
S315080026B044FA4FF480722100300003F06FFA0322C7
S315080026C001A916F10F0002F0C5FF022200A916F1B2
S315080026D0120002F0BFFF4FF480722100300003F0B1
S315080026E02CFA4FF48072DFF83816300003F056FAE9
S315080026F002220DF1020116F1B30002F0ABFF4FF40E
S315080027008072DFF81C16300003F017FA49E04FF420
S3150800271080720199300003F041FA032202A9F01CE5
S3150800272002F098FF4FF480720199300003F005FA21
S315080027304FF480720299300003F030FA032201A99F
S3150800274016F1120002F086FF4FF4807202993000EB
S3150800275003F0F3F94FF480722100300003F01EFAFB
S31508002760022200A916F1120002F074FF4FF48072DB
S315080027702100300003F0E1F94FF48072DFF8A0156C
S31508002780300003F00BFA02220DF1020116F1B30034
S3150800279002F060FF4FF48072DFF88415300003F012
S315080027A0CCF903AA3100DFF8540501F01EFB280016
S315080027B004B070BD30B585B0040000200090022238
S315080027C0DFF8A81601A803F0E9F90322DFF8A01636
S315080027D000A803F0E3F9002506E003220098C11CCF
S315080027E000A803F0DBF96D1CBDF80400ADB2854204
S315080027F00ED206220098811D02A803F0CFF9062200
S3150800280002A9200001F059FB0128E6D1009801E051
S315080028107FF07F4005B030BD30B585B0040000209C
S3150800282002900020009000250020ADF8040000204A
S31508002830ADF80C000222DFF8341601A803F0AEF951
S315080028400322DFF8FC1C02A803F0A8F9BDF804006F
S31508002850401CADF8040003F0FCFA0090062200982C
S31508002860811D200003F03BF90222009810F11201A5
S3150800287003A803F034F90DF10601DFF8800401F02E
S3150800288091FA05004FF48072DFF89414280003F0DB
S3150800289085F902987FF07F41884212D1032200A968
S315080028A015F1A00002F0D6FE022201A915F1A30037
S315080028B002F0D0FE032200A915F1A50002F0CAFE17
S315080028C018E0022201A915F1A30002F0C3FE0322B3
S315080028D000A915F1A50002F0BDFE03220298C11C4D
S315080028E000A803F0FCF80322009810F1140102A8CE
S315080028F003F0F5F84FF48072DFF82414280003F08B
S315080029001CF90DF106022900DFF8F00301F06DFA53
S31508002910009805B030BD70B586B004000020ADF84B
S31508002920020000200390002004900020029000205E
S3150800293001900020ADF8000000250026022214F1BF
S3150800294012010DF1020003F029F9032214F10C011A
S3150800295003A803F023F90322E11C02A803F01EF9D9
S31508002960032214F1140101A803F018F90222DFF872
S31508002970FC1400A803F012F9BDF80000401EADF8DB
S315080029800000002005000CE003220398C11C04A8DF
S3150800299003F004F903992000FFF7B4FD04980390A7
S315080029A06D1CBDF80200ADB28542EDD3200003F0E0
S315080029B0B0FA05A9DFF8C40401F0F4F90600BDF879
S315080029C00000002820D14FF48072DFF8541330003D
S315080029D003F0E4F8032202A916F1A00002F03AFE79
S315080029E0022200A916F1A30002F034FE032201A96F
S315080029F016F1A50002F02EFE4FF48072DFF82013C0
S31508002A00300003F09AF89EE001987FF07F418842F3
S31508002A1004D002987FF07F4188425DD101987FF00B
S31508002A207F41884229D14FF480720299300003F021
S31508002A30B5F8032201A916F1140002F00BFE4FF4B3
S31508002A4080720299300003F078F84FF48072B44926
S31508002A50300003F0A3F8032202A916F1A00002F041
S31508002A60F9FD022200A916F1A30002F0F3FD4FF4C6
S31508002A708072AB49300003F060F802987FF07F411E
S31508002A80884260D14FF480720199300003F086F8CD
S31508002A90032202A9F01C02F0DDFD4FF480720199B1
S31508002AA0300003F04AF84FF480729D49300003F075
S31508002AB075F8022200A916F1A30002F0CBFD032245
S31508002AC001A916F1A50002F0C5FD4FF480729449DC
S31508002AD0300003F032F836E04FF480720199300086
S31508002AE003F05CF8032202A9F01C02F0B3FD4FF4D0
S31508002AF080720199300003F020F84FF48072029931
S31508002B00300003F04BF8032201A916F1140002F075
S31508002B10A1FD4FF480720299300003F00EF84FF4CD
S31508002B208072DFF85C13300003F038F8022200A93F
S31508002B3016F1A30002F08EFD4FF48072DFF8401301
S31508002B40300002F0FAFF05AA3100DFF8300301F081
S31508002B504CF9200006B070BDDC3A002080B50A00AA
S31508002B60417B0F235943837B022B0AD0032B0ED0BC
S31508002B70062B12D0072B19D00C2B1DD00D2B21D0CC
S31508002B8025E0C9B21000C0B200F062FC1FE0C9B26D
S31508002B901000C0B200F0FDFB19E00B00DBB2D2B2A8
S31508002BA010F11001C07B00F06DF910E0C9B21000F9
S31508002BB0C0B200F0B7F80AE0C9B21000C0B200F01F
S31508002BC0C1FC04E0C9B21000C0B200F01FFD01BD8F
S31508002BD0E0B51DE04021DFF8880B02F0D4FE02A81C
S31508002BE0019000200090002301220021002001F01E
S31508002BF069FF4021DFF8680B02F0C8FE02A80190C1
S31508002C0000200090002301220021002001F05AFF35
S31508002C10DFF8500B00780028DCD04021DFF8400BA5
S31508002C2002F0B1FE02A80190002000904FF49673BE
S31508002C3000220021002001F045FF4021DFF8200B8B
S31508002C4002F0A4FE02A80190002000904FF49673AB
S31508002C5000220021002001F035FFD9E730B585B004
S31508002C60040000AD682028706D1C272028706D1C94
S31508002C70002028706D1C272028706D1C00202870E5
S31508002C806D1C682028706D1C802028706D1C764885
S31508002C90007828706D1C7448407828706D1C72483E
S31508002CA0807828706D1C7048C07828706D1C6E4836
S31508002CB0007928706D1C002028706D1C51F060008A
S31508002CC028706D1C012028706D1C09210DF1060065
S31508002CD0FDF7C7FB28706D1C162028706D1CE4B222
S31508002CE0002C04D0112100A802F0AAFA03E0112151
S31508002CF000A801F010FC05B030BD0000283C0020FB
S31508002D00003B0020AC000020AD000020AE000020F3
S31508002D10AF000020A80000206C00002090000020D2
S31508002D2000F01F00F0B585B004000F000DF1020198
S31508002D30524801F037F80600002E00F0938035005F
S31508002D4003224B4901A802F029FF0222DFF8FC16EC
S31508002D5000A802F023FF68203070761CBDF800003A
S31508002D60062148430930800050F003003080B61C25
S31508002D70BDF80000062148430930800050F00300E2
S31508002D803080B61C68203070761C88203070761C1F
S31508002D90354800783070761C334840783070761C99
S31508002DA0314880783070761C2F48C0783070761C91
S31508002DB02D4800793070761C0A203070761C57F042
S31508002DC060003070761C07203070761C00270FE0F4
S31508002DD0C0B202A9415C3170761C401CC0B20628FC
S31508002DE0F6DB03220198C11C01A802F0D7FE7F1C5E
S31508002DF0BDF80000BFB2874207D206220198811D9E
S31508002E0002A802F0CBFE0020E8E7BDF80000062184
S31508002E10484310F1090189B2A81DFDF722FB30705D
S31508002E20761C16203070761CE4B2002C0AD0BDF849
S31508002E3000000621484310F1110189B2280002F06A
S31508002E40FFF909E0BDF800000621484310F1110119
S31508002E5089B2280001F05FFB0DF10202290007483C
S31508002E6000F0C3FF05B0F0BD98000020A3F01F00D6
S31508002E70A0F01F00AB000020B3F01F00283C002084
S31508002E8000F01F002DE9FF4F8BB05FF0000A5FF0DE
S31508002E900008002500265FF0000B5FF000090020FF
S31508002EA0ADF8000000270222DFF8A0150DF10A0090
S31508002EB002F074FE0222DFF8B41804A802F06EFECF
S31508002EC00322DFF8AC1803A802F068FEBDF80A0072
S31508002ED0002800F05B820DF11A01DFF8980800F06F
S31508002EE061FF0400002C00F0518205940722DFF8E8
S31508002EF088180C9800F0E1FF012840F07081BDF8B1
S31508002F0010000A2190FBF1F0BDF810100A2291FB7F
S31508002F10F2F302FB13118DF802105FF00008ADF80A
S31508002F2008009DF80200002804D0BDF80800401CDF
S31508002F30ADF80800002506E003220398C11C03A883
S31508002F4002F02CFE6D1CBDF80A00ADB2854280F079
S31508002F50168206220398811D09A802F01FFE032285
S31508002F60039810F10C0101A802F018FE022203983A
S31508002F7010F112010DF1120002F010FE002611E008
S31508002F80BDF800001121484310F1120189B20598D5
S31508002F9001F0C1FA059C03220198C11C01A802F0A0
S31508002FA0FDFD761CBDF81200B6B28642C4D20722D1
S31508002FB00198811D07A802F0F1FD0122019810F180
S31508002FC00D010DF1030002F0E9FD0122019810F14F
S31508002FD0150106A802F0E2FDFFB2002F40F0A88016
S31508002FE0012718F1010868202070641CBDF8080044
S31508002FF001280CD1BDF81090ADF80090BDF800007E
S31508003000112148430A30800050F0030A39E01FFABC
S3150800301088F8B8F1010F0CD15FF00A09ADF80090F5
S31508003020BDF80000112148430A30800050F0030A19
S3150800303027E0BDF808001FFA88F8804515D19DF8E5
S315080030400200002804D15FF00A09ADF8009003E0F9
S315080030509DF80290ADF80090BDF800001121484394
S315080030600A30800050F0030A0BE05FF00A09ADF859
S315080030700090BDF80000112148430A30800050F046
S31508003080030AA4F800A0A41CA4F800A0A41C6820A5
S315080030902070641C88202070641CDFF8CC06007839
S315080030A02070641CDFF8C00640782070641CDFF8C6
S315080030B0B80680782070641CDFF8AC06C0782070EB
S315080030C0641CDFF8A40600792070641C0A202070AE
S315080030D0641CBDF80800012806D19DF8380050F098
S315080030E060002070641C1CE01FFA88F8B8F1010F14
S315080030F006D19DF8380050F040002070641C10E09E
S31508003100BDF808001FFA88F8804506D19DF83800F2
S3150800311050F020002070641C03E09DF838002070F1
S31508003120641C06202070641C9DF82C002070641C0A
S3150800313000202070641C00202070641C5FF0000BC7
S3150800314008E05FFA8BFB07A81BF800002070641CD8
S315080031501BF1010B5FFA8BFBBBF1070FF1DB5FF08D
S31508003160000B08E05FFA8BFB09A81BF8000020702B
S31508003170641C1BF1010B5FFA8BFBBBF1060FF1DB3D
S3150800318000202070641C01202070641CB9F101091C
S315080031901FFA89F9B9F1000F7FF4FDAE0027BDF8D3
S315080031A000001121484310F10A0189B20598801DD3
S315080031B0FDF757F92070641C16202070641C9DF8D2
S315080031C0340000283FF4DCAEBDF800001121484366
S315080031D010F1120189B2059802F032F8DAE60025F4
S315080031E030E003220198C11C01A802F0D7FC761C26
S315080031F0BDF81200B6B2864223D207220198811D75
S3150800320007A802F0CBFC0122019810F10D010DF17F
S31508003210030002F0C3FC072207A90C9800F04DFE34
S315080032200128DED19DF803009DF82C108842D8D1DC
S315080032300122019810F1150106A802F0AFFC5FF013
S3150800324001086D1C5FFA88F8B8F1000F1BD1BDF8AC
S315080032500A00ADB2854216D206220398811D09A836
S3150800326002F09CFC0322039810F10C0101A802F05D
S3150800327095FC0222039810F112010DF1120002F0DA
S315080032808DFC0026B4E75FFA88F8B8F1000F76D00F
S3150800329068202070641C6F202070641C0020207039
S315080032A0641C6F202070641C00202070641C682039
S315080032B02070641C88202070641CDFF8AC04007839
S315080032C02070641CDFF8A00440782070641CDFF8C6
S315080032D0980480782070641CDFF88C04C07820700D
S315080032E0641CDFF8840400792070641C0A202070AE
S315080032F0641C9DF8380050F060002070641C06209D
S315080033002070641C9DF82C002070641C002020701E
S31508003310641C00202070641C002505E0ADB207A8D7
S31508003320285C2070641C6D1CADB2072DF6DB0025E9
S3150800333005E0ADB209A8285C2070641C6D1CADB20E
S31508003340062DF6DB00202070641C01202070641C0A
S315080033501B210598801DFDF784F82070641C162033
S315080033602070641C9DF83400002804D02321059899
S3150800337001F066FF03E02321059801F0CCF80DF172
S315080033801A020599DFF8EC0300F02FFD0FB0BDE82F
S31508003390F08FF8B504000D0000A9DFF8D80300F097
S315080033A001FD0700002F4FD03E00682038707F1CB3
S315080033B0272038707F1C002038707F1C2720387023
S315080033C07F1C002038707F1C682038707F1C88207E
S315080033D038707F1CDFF89003007838707F1CDFF8A0
S315080033E08803407838707F1CDF48807838707F1CE7
S315080033F0DD48C07838707F1CDB48007938707F1C40
S315080034000A2038707F1C55F0600038707F1C032036
S3150800341038707F1C0921B01DFDF723F838707F1C12
S31508003420162038707F1CE4B2002C04D0112130001D
S3150800343001F006FF03E01121300001F06CF800AA44
S315080034403100CC4800F0D1FCF1BD0000A3F01F000C
S315080034502DE9F04182B004000D00002700265FF038
S31508003460000800A9C34800F09DFC0700002F65D09E
S315080034703E00682038707F1C3F2038707F1C002073
S3150800348038707F1C3F2038707F1C002038707F1CE6
S31508003490682038707F1C882038707F1CB2480078F6
S315080034A038707F1CB048407838707F1CAE488078EA
S315080034B038707F1CAC48C07838707F1CAA480079E1
S315080034C038707F1C0A2038707F1C55F060003870F1
S315080034D07F1C022038707F1CA848007838707F1C33
S315080034E0A748007838707F1CA648007838707F1C7B
S315080034F0A548007838707F1CB846A4480088A8F804
S31508003500000018F1020847460F21B01DFCF7A9FF75
S3150800351038707F1C162038707F1CE4B2002C04D04B
S315080035201721300001F08CFE03E01721300000F06F
S31508003530F2FF00AA31008F4800F057FCBDE8F3817E
S31508003540A5F01F002DE9F04182B004000D00002708
S3150800355000265FF0000800A9864800F023FC070053
S31508003560002F51D03E00682038707F1C2B20387001
S315080035707F1C002038707F1C2B2038707F1C002091
S3150800358038707F1C682038707F1C882038707F1C34
S315080035907548007838707F1C7348407838707F1CEF
S315080035A07148807838707F1C6F48C07838707F1CE7
S315080035B06D48007938707F1C0A2038707F1C55F0DA
S315080035C0600038707F1C0C2038707F1C70480078AB
S315080035D038707F1C0A21B01DFCF743FF38707F1C2A
S315080035E0162038707F1CE4B2002C04D0122130005B
S315080035F001F026FE03E01221300000F08CFF00AA3D
S3150800360031005C4800F0F1FBBDE8F3812DE9F0419B
S3150800361082B004000D00002700265FF0000800A90C
S31508003620544800F0BFFB0700002F51D03E00682029
S3150800363038707F1C2B2038707F1C002038707F1C48
S315080036402B2038707F1C002038707F1C682038704B
S315080036507F1C882038707F1C4348007838707F1C90
S315080036604148407838707F1C3F48807838707F1C06
S315080036703D48C07838707F1C3B48007938707F1CFD
S315080036800A2038707F1C55F0600038707F1C0D20AA
S3150800369038707F1C3F48007838707F1C0A21B01D9F
S315080036A0FCF7DFFE38707F1C162038707F1CE4B2EA
S315080036B0002C04D01221300001F0C2FD03E01221D3
S315080036C0300000F028FF00AA31002A4800F08DFBE0
S315080036D0BDE8F38100B585B002A8019003A8009063
S315080036E04FF48473002201212B4802F074FD02A8CE
S315080036F0019000200090C82300220021002001F03C
S31508003700E1F90121254802F033F90028E4D14FF404
S315080037100041224802F037F94FF40051204802F0E0
S3150800372035F94FF400710E4802F02DF902A8019000
S3150800373000200090642300220021002001F0C2F935
S315080037404FF40071064802F021F902A80190002002
S315080037500090642300220021002001F0B3F9E0E77D
S31508003760000C0140E73C002098000020B3F01F0041
S31508003770A0F01F00283C002048AF0008AC0000203D
S31508003780AD000020AE000020AF000020A8000020F9
S31508003790AA000020AB0000200C3C002000080140D5
S315080037A0001001402DE9F84306000F00904699469F
S315080037B000200B9DDFF8D4140978002903D047F2BE
S315080037C04330288038E0002E03D145F6C3502880C0
S315080037D032E0089CA4B2200001282FD0022835D157
S315080037E0B9F1000F03D147F24030288024E002F0F7
S315080037F045F8012186F82A10DFF8941431607760BD
S31508003800C6F820800021B1610021F161C6F8249034
S3150800381034850999B1600A99F16000213161002166
S315080038207161DFF870140988491CDFF86824118073
S3150800383002F028F800202880BDE8F183B8F1000FCF
S3150800384003D147F23F302880F6E7D0E745F62560F2
S315080038502880F1E738B505000C00DFF83004007859
S31508003860002804D047F243302080002046E0002D8F
S3150800387004D147F24230208000203FE02868DFF874
S315080038801014884204D045F6C4502080002035E044
S3150800389000A803F01AF995F82A0000281ED0022875
S315080038A003D010D303280ED020E0280000F071F9C9
S315080038B00021280000F005F900A803F032F90020DD
S315080038C02080012019E00021280000F0FAF800A85D
S315080038D003F027F90020208001200EE000A803F05D
S315080038E020F947F23D302080002006E000A803F0CA
S315080038F018F947F2413020800020C0B232BDF8B531
S3150800390005000F0016001C00DFF880030078002869
S3150800391004D047F243302080002067E0002D04D110
S3150800392047F242302080002060E02868DFF8601304
S31508003930884204D045F6C4502080002056E000A8EE
S3150800394003F0C3F895F82A0000283FD0022803D0D0
S3150800395034D3032832D041E0280000F01AF90020B9
S315080039602080BFB2002F20D0032F02D0042F10D002
S315080039701CE0AA681000002803D0E96828009047D0
S3150800398002E047F24430208000A803F0CAF801207C
S315080039902BE0AA681000002803D0310028009047C1
S315080039A002E047F244302080EEE7EDE700A803F096
S315080039B0B8F845F625602080002017E000A803F037
S315080039C0B0F847F24930208001200EE000A803F045
S315080039D0A8F847F23D302080002006E000A803F052
S315080039E0A0F847F2413020800020C0B2F2BD00B5F1
S315080039F089B0AA490968002908D0A9490968A74AC7
S31508003A001268B1FBF2F1A74A116006E0A4490968F9
S31508003A100A22B1FBF2F1A34A1160A2490968A24A37
S31508003A20116000219C4A11600021A04A1160002102
S31508003A300AE089B29E4A12EBC10200239380002352
S31508003A40D38000231360491C9A4A128889B291428E
S31508003A50EFD399490968002903D147F24731018014
S31508003A602DE096490968964A1268914203D247F2B0
S31508003A704831018023E0934909781F2903D347F287
S31508003A80463101801BE008900B2007900020069025
S31508003A9000200590002004908848006803908A4812
S31508003AA00068029084480068019086480078009073
S31508003AB000230FF22D128549854803F05DFB09B0F6
S31508003AC000BD10B4022280F82A2089B2012905D146
S31508003AD0416A714A1268511881610DE0016A00292C
S31508003AE005D1416A6C4A12685118816104E0016A7D
S31508003AF0694A12685118816181696E4A1288B1FB58
S31508003B00F2F302FB131189B2694A12EBC1010A6882
S31508003B10002A07D1002202610022426108600120C2
S31508003B2088802EE082695C4B1B68D21AC2610B68DA
S31508003B3005E05A6942610361106158610023002B50
S31508003B401CD09A69544C2468121BDA61DA69C46974
S31508003B50A2420AD21A69002A01D01B69EFE700229D
S31508003B600261436118610023E9E75A69002AE0D136
S31508003B7000224261036158610860DFE78888401CBB
S31508003B808880C8888A88904201D28888C88010BCF4
S31508003B9070478169474A1288B1FBF2F302FB131199
S31508003BA089B2434A12EBC1010A68824206D1026908
S31508003BB00A60002A08D00023536105E042690369B8
S31508003BC01361002B00D05A61012280F82A200022B6
S31508003BD00261002242618888401E88807047000082
S31508003BE0F0B583B00BE003F026FE041B00A802F034
S31508003BF098FF2E480068A04201D22C48046000AB0A
S31508003C0001AA0021002003F0E7FB050000A802F046
S31508003C105CFF03F010FE04001F480068401C1E49A4
S31508003C2008601D48006823490988B0FBF1F201FBCA
S31508003C30120080B21E4911EBC0000668002700E09A
S31508003C400127FFB2002FCED1002EF9D035691248D0
S31508003C500068B169884216D13000FFF79AFF308DA7
S31508003C60022804D101213000FFF72BFF02E00320D0
S31508003C7086F82A00B2681000002802D0F1683000E1
S31508003C8090472E00DDE70127DBE70000E83C00202F
S31508003C90544D5220E43C0020B43C002098AF000864
S31508003CA080AF0008B83C0020BC3C0020B03C002097
S31508003CB0683900209A9B00089CAF0008A4AF00084A
S31508003CC07CAF0008D39B0008A0AF000840AD0008F1
S31508003CD02C3800202DE9F84305000E0017009846F9
S31508003CE00020DDF8249058490978002904D045F2C7
S31508003CF0B960A9F8000053E0002F04D145F2BB6073
S31508003D00A9F800004CE01FFA88F8B8F1020F04DAA7
S31508003D1045F2BC60A9F8000042E0089CA4B2042C55
S31508003D2004D245F2C160A9F8000039E00320002852
S31508003D300FD0074204D045F2BB60A9F800002FE077
S31508003D40210089B2014204D045F2C160A9F80000F9
S31508003D5026E03B003A00B8F10101002004E0A4B2D5
S31508003D60A2181A601300401C80B289B28842F6D3A2
S31508003D700020186001F082FD34492960AE606F604A
S31508003D80EF60A5F81480A5F812802C8230490988BE
S31508003D90491C2F4A118001F075FD0020A9F8000082
S31508003DA0BDE8F18370B505000C000020002D04D194
S31508003DB045F2BF602080002016E001F05FFDA98A69
S31508003DC0002906D101F05EFD45F2C2602080002080
S31508003DD00AE0EE683168E960A98A491EA98201F0FD
S31508003DE051FD00202080300070BD70B505000E0022
S31508003DF014000020002D03D145F2BF6020801BE08F
S31508003E00002E03D145F2BE60208015E001F036FD94
S31508003E10A98A6A8A914205D301F034FD45F2BA604F
S31508003E20208009E0E9683160EE60A98A491CA98208
S31508003E3001F028FD0020208070BD0021044A118071
S31508003E400021018070470000E83C00204D454D20C8
S31508003E50DA3C002080B50A00002100F001F801BD17
S31508003E6030B4002A27D0002825D00023002403E0F8
S31508003E701B02C9B20B43641C042CF9D30425B0FBFE
S31508003E80F5F404FB1504E4B2002C08D003E0017035
S31508003E90401C521E641C002A01D0042CF7D302E0F1
S31508003EA00360001D121F042AFAD202E00170401CAA
S31508003EB0521E002AFAD130BC704770B41300002B8A
S31508003EC001D1012052E0002801D100204EE000294E
S31508003ED001D100204AE00122181859180425B0FB20
S31508003EE0F5F404FB1504E4B20426B1FBF6F505FB6C
S31508003EF01615EDB2AC4201D1012500E00025EDB260
S31508003F00012D2CD1002C10D008E0401E491E057842
S31508003F100E78B54200D000225B1E641ED2B2012A7A
S31508003F2003D1002B01D0002CEFD1D2B2012A16D131
S31508003F3007E0001F091F04680D68AC4200D0002284
S31508003F401B1FD2B2012A01D1042BF2D207E0401E70
S31508003F50491E04780D78AC4200D000225B1ED2B20E
S31508003F60012A01D1002BF2D11000C0B270BC7047F3
S31508003F702DE9F04106000F0090461C000025DFF8E9
S31508003F80BC020078002803D042F6E16020802BE0CE
S31508003F90002E03D145F6C350208025E01FFA88F885
S31508003FA0B8F1000F03D146F2945020801CE001F0CE
S31508003FB065FC0500DFF8880230607760414689B203
S31508003FC016F1140003F0A5FC16F1080002F098FE9D
S31508003FD0DFF870020088401CDFF8681208802800A5
S31508003FE001F050FC00202080BDE8F0812DE9F04F5B
S31508003FF089B004000D0016001F005FF00008DDF808
S315080040004C908E480078002805D046F2AE10A9F8E4
S3150800401000000020C6E0002C05D145F6C350A9F8DB
S3150800402000000020BEE0002F05D146F2D520A9F8F1
S3150800403000000020B6E0B6B23000002802D0B0F585
S31508004040004F1FD120687E49884221D1DDF848A05B
S31508004050BAF1000F02D00020CAF8000001F00EFCE9
S3150800406080464B465246390014F1140003F05BFCB7
S315080040708346B9F80000002810D1404601F002FC3A
S3150800408058468FE045F62560A9F80000002089E02B
S3150800409045F6C450A9F80000002083E0300408D58E
S315080040A0404601F0EFFB46F2B010A9F800000020E8
S315080040B078E065480078002808D0404601F0E2FB21
S315080040C046F66350A9F8000000206BE02B00052295
S315080040D0210000A802F0CAFD404601F0D3FB02F019
S315080040E0ADFC01F0CBFB80465848006890F83500D7
S315080040F0002805D0022838D017D3032826D045E053
S3150800410052480068D0F85CB050480068B0F86000C3
S315080041103880BAF1000F04D04C480068006CCAF821
S3150800412000000020A9F8000038E05FF0000B00202E
S315080041303880BAF1000F04D044480068006CCAF809
S31508004140000046F2A910A9F8000027E05FF0000B6E
S3150800415000203880BAF1000F02D00020CAF800000B
S3150800416047F2D920A9F8000018E05FF0000B0020FC
S315080041703880BAF1000F04D034480068006CCAF8D9
S31508004180000045F6C250A9F8000007E05FF0000BF2
S315080041900020388046F62E60A9F80000404601F057
S315080041A071FB584609B0BDE8F08F2DE9FC410500C2
S315080041B00E0017009846089C002D03D145F6C350FB
S315080041C020802AE01FFA88F84046002815D01028D3
S315080041D013D0B0F5007F10D0B0F5047F0DD0B0F540
S315080041E0004F0AD048F21001884206D0B0F5024FB7
S315080041F003D048F21021884211D128681049884214
S3150800420011D103F018FB0194009043469BB23A0083
S3150800421092B23100280000F01BF8BDE8F38145F69C
S3150800422025602080F9E745F6C4502080F5E700218F
S31508004230044A11800021018070470000E83C0020F4
S3150800424051554555DE3C0020ED3C0020C03C002081
S315080042502DE9F04F83B004000D0016001F005FF033
S31508004260000A01F00BFB824614F10800DDF83080E5
S31508004270DDF834900189002914D1F80601D4002309
S3150800428000E01023CDF80490CDF800809BB23200F0
S3150800429092B2290014F1140003F07DFB504601F098
S315080042A0F1FA25E0B90502D5B0F808B001E05FF0EB
S315080042B0010B00680DE0816840680190CDF8008028
S315080042C033009BB22A00200002F090FD0198BBF152
S315080042D0010B1FFA8BFBBBF1000FECD1504601F026
S315080042E0D1FA380401D402F0A9FB0020A9F800008D
S315080042F0BDE8F78F80B52021DFF8C00303F043FC43
S3150800430000281CD0DFF8B40303F039FCDFF8B0133B
S315080043100968002913D0DFF8AC130968DFF8A02371
S315080043201268891AFF290ADADFF8981309680870EB
S31508004330DFF890030068401CDFF888130860402106
S31508004340DFF8780303F01FFC002810D040F226613E
S31508004350DFF8680303F024FC00AA0021DFF86803ED
S3150800436000F0B5FABDF80000002800D000BF01BD76
S315080043701CB52021DFF8540303F005FC002815D0EE
S31508004380D24803F0FCFB040001A9D148FFF70AFD57
S3150800439001000C7001A8009000230122CD48FFF708
S315080043A004FFBDF80400002800D000BF4021C7481C
S315080043B003F0E9FB00280ED040F22661C34803F05B
S315080043C0EFFB01AA0021C44800F081FABDF80400F9
S315080043D0002800D000BF13BD1CB52021BF4803F03C
S315080043E0D2FB002815D0BD4803F0C9FB040001A97B
S315080043F0B748FFF7D7FC01000C7001A8009000230E
S315080044000122B448FFF7D1FEBDF80400002800D009
S3150800441000BF4021B14803F0B6FB00280ED040F299
S315080044202661AE4803F0BCFB01AA0021AC4800F0A7
S315080044304EFABDF80400002800D000BF13BD70B5C1
S3150800444084B004000D00A7480078AA282BD10122C1
S3150800445040F22661A14803F065FB002612E0002021
S31508004460ADF8040001A8009002AB00224FF4FA71DF
S315080044709B4800F072F9B6B2315D89B2974803F0ED
S315080044807AFB761CB6B2ADB2AE42E8D3002240F251
S315080044902661924803F046FB4021904803F073FBDF
S315080044A0002835D1F8E74FF480718F4801F06BFA90
S315080044B0012240F22661854803F034FB002612E00B
S315080044C00020ADF8040001A8009002AB00224FF4CA
S315080044D0FA71814800F041F9B6B2315D89B27B487C
S315080044E003F049FB761CB6B2ADB2AE42E8D3002261
S315080044F040F22661754803F015FB4021734803F026
S3150800450042FB0028F9D04FF48071774801F03EFA53
S31508004510012004B070BD70B584B004000D004FF4DE
S315080045208071714801F02FFA012240F2266167482E
S3150800453003F0F8FA002612E00020ADF8040001A8FE
S31508004540009002AB00224FF4FA71634800F005F9B7
S31508004550B6B2315D89B25D4803F00DFB761CB6B282
S31508004560ADB2AE42E8D3002240F22661574803F0C6
S31508004570D9FA4021554803F006FB0028F9D04FF434
S315080045808071594801F002FA012004B070BD70B577
S3150800459084B004000D00012240F22661474803F06A
S315080045A0C1FA002606E0B6B2315D89B2434803F087
S315080045B0E2FA761CB6B2ADB2AE420DD201A80090B0
S315080045C002AB00223221404800F0C7F8BDF80400CB
S315080045D00028E8D0002006E0002240F2266137488D
S315080045E003F0A0FA012004B070BD10B584B0040031
S315080045F0012240F22661314803F094FA40F226611E
S315080046002E4803F0CDFA05E0217889B22B4803F04D
S31508004610B2FA641C207800280DD001A8009002ABDD
S3150800462000223221284800F098F8BDF80400002836
S31508004630EAD0002006E0002240F226611F4803F077
S3150800464071FA012004B010BD38B50400002501F048
S3150800465015F905001B48046019480460280001F094
S3150800466011F9012032BD80B50021C0B2002809D059
S3150800467001F004F9010001201C4A1070080001F03D
S3150800468001F908E001F0FAF801000020174A107055
S31508004690080001F0F7F8012002BD80B5012003F0FB
S315080046A0D5FA002808D000AB00220121104801F0F5
S315080046B098FF012003F0DCFA01BD00000048004025
S315080046C0D43C0020D03C0020483B00200038014064
S315080046D0403C0020943A0020643B002000440040FF
S315080046E0803B0020AA00002000080140E73C00208B
S315080046F00C3C00202DE9F04105000E0090461C00F8
S315080047000027DFF838020078002803D042F6E16077
S31508004710208020E0002D03D145F6C35020801AE002
S3150800472001F0ACF80700DFF818022860C5F8148015
S315080047300020A8616E6015F1080002F0E1FADFF8C2
S3150800474004020088401CDFF8FC110880380001F0DC
S3150800475099F800202080BDE8F0812DE9F04389B062
S3150800476006000F00914698460024109D734800786D
S31508004770002804D046F2AE10288000207AE0002EE9
S3150800478004D145F6C3502880002073E01FFA89F942
S315080047904846002802D0B0F5004F20D13068684955
S315080047A0884221D1B8F1000F02D00020C8F80000D5
S315080047B001F064F80400706900281AD07069401E78
S315080047C07061B8F1000F02D0B069C8F800007669C8
S315080047D0200001F057F80020288030004AE045F60E
S315080047E025602880002045E045F6C4502880002032
S315080047F040E05FEA094008D57669200001F042F8F2
S3150800480046F2B0102880300034E04F48007800287F
S3150800481007D0200001F036F846F6635028800020BD
S3150800482028E03B000622310000A802F01FFA20000B
S3150800483001F028F802F002F901F020F804004348D4
S31508004840006890F83500002805D002282BD014D32C
S3150800485003281ED033E0B8F1000F04D03B480068A7
S31508004860006CC8F80000002028807669200001F056
S3150800487009F8300009B0BDE8F083B8F1000F04D09C
S3150800488032480068006CC8F8000046F2A910288073
S31508004890EBE7B8F1000F02D00020C8F8000047F295
S315080048A0D9202880E1E7B8F1000F04D0274800682E
S315080048B0006CC8F8000045F6C2502880D5E746F6D1
S315080048C02E602880200000F0DDFF0020D2E770B5BA
S315080048D005000E001400002D04D145F6C3502080B3
S315080048E0002019E0B6B23000002808D0B0F5007FE5
S315080048F005D0B0F5004F02D0B0F5024F0DD12868AB
S315080049000F4988420ED102F096FF020023003100BB
S3150800491089B2280000F01CF870BD45F62560208095
S315080049200020F9E745F6C45020800020F4E700216E
S31508004930044A11800021018070470000E83C0020ED
S3150800494053454D41E03C0020ED3C0020C03C002092
S315080049502DE9F04782B004000D0016001F005FF035
S31508004960000800F08BFF804614F108000189002931
S3150800497018D1606910F1010F07D1404600F082FF97
S3150800498046F6C5503880002033E06069401C6061F7
S31508004990D4F81490A661404600F074FF00203880D1
S315080049A0484626E0A90502D5B0F8089001E05FF070
S315080049B00109D0F800A00BE0DAF80810DAF804A02C
S315080049C0009600230022200002F010FAB9F101092E
S315080049D01FFA89F9B9F1000FEED1D4F814904046C0
S315080049E000F050FF280401D402F028F8002038808F
S315080049F04846BDE8F68710B450F8041B81B1026832
S31508004A001218001D50F8043BDC0744BFA9F1010445
S31508004A10E31852F8044B43F8044B091FF9D1EBE7A6
S31508004A2010BC7047F8B505000E0014000027DFF823
S31508004A3058020078002803D047F27520208040E00D
S31508004A40DFF848020078002803D046F66350208035
S31508004A5037E0B6B23000002805D0022803D0042873
S31508004A601FD008281ED1002D03D147F27E202080B2
S31508004A7027E000F003FF07000120DFF81412096899
S31508004A8081F836002300320092B229008048006877
S31508004A9003F074F92088002808D0380000F0F2FEE8
S31508004AA00FE0E6E745F6256020800AE078480068CA
S31508004AB002F086FA380000F0E5FE01F0BFFF00209C
S31508004AC02080F1BDF8B50024079D6F4E3678002E7C
S31508004AD003D047F275202880AFE06C4C2478002C70
S31508004AE003D046F663502880A7E0069C14F00E060D
S31508004AF0B6B23700002F05D0022F03D0042F17D0E7
S31508004B00082F16D1002B0CD192B2002A09D189B2EE
S31508004B10002906D180B2002803D147F27E202880DA
S31508004B208BE04FF6E17C14EA0C0F06D1002705E06E
S31508004B30F7E745F6256028807FE00127FFB2012FB9
S31508004B4003D145F62560288077E0C4F30014A4B2A3
S31508004B5014F00104E4B2012C1BD0B3F57A7F03D319
S31508004B6047F27B20288068E092B23C2A03DB47F2B2
S31508004B707A20288061E089B23C2903DB47F2792054
S31508004B8028805AE080B2642814DB47F2782028800F
S31508004B9053E089B242F21074A14203DB47F279204E
S31508004BA028804AE080B2B0F57A7F03DB47F27820A6
S31508004BB0288042E0374C246880B24FF4616789B296
S31508004BC05FF03C0C0CFB01F107FB001092B21018C9
S31508004BD04FF4FA71B1FBF4F1C91801FB04F14FF473
S31508004BE07A72B1FBF2F104FB0017002F22D000F015
S31508004BF045FE040001202649096881F836002B0085
S31508004C00320092B239002248006803F0B7F82888C3
S31508004C10002803D0200000F035FE0EE01C4800688E
S31508004C2002F0CEF9200000F02DFE01F007FF00206B
S31508004C30288002E047F27E202880F1BD10B582B0B8
S31508004C4003F0C9FA00AA0021134802F0ABFC0400DD
S31508004C50124800780C21124A01FB002002F0DEF906
S31508004C6010480068401E0F4908600E480068002872
S31508004C7008D10D4800680B49086000AA00210B48B6
S31508004C8002F090FC13BD0000E83C0020ED3C00203B
S31508004C90C03C002080AF000878370020EA3C00209E
S31508004CA0F02E0020BC3C0020B83C00202C38002008
S31508004CB038B50C001500FFF798FC2000FFF7C4FC78
S31508004CC000AA00212800FFF7ADFEDFF814070468E4
S31508004CD00020FFF7B9FC200032BD02E00D22027069
S31508004CE0401C0278002A01D18842F7D3704738B5AC
S31508004CF00024002500A9DFF8EC06FFF753F80400A6
S31508004D0025004FF4807200212800FFF7A9F86422D5
S31508004D102900DFF8D4064068FFF7CAFF040021001F
S31508004D202800FFF7DAFFB7A1280000F029FC0028C1
S31508004D3007D000AA2900DFF8AC06FFF756F80120CD
S31508004D4006E000AA2900DFF89C06FFF74EF80020C7
S31508004D5032BD70B584B00025002602A9DFF88406A6
S31508004D60FFF720F805002E00002400E0641CE4B2DA
S31508004D70642C2DDAE4B2002C09D002A80190002098
S31508004D800090C823002200210020FFF79BFE4FF465
S31508004D90807200213000FFF763F864223100DFF8E3
S31508004DA048068068FFF784FF050029003000FFF7F2
S31508004DB094FFDFF83816300000F0E2FB0028D5D063
S31508004DC002AA3100DFF81C06FFF70FF8012006E0FB
S31508004DD002AA3100DFF80C06FFF707F8002004B036
S31508004DE070BD2DE9FE4F002500275FF000085FF033
S31508004DF000095FF0000A5FF0000B002402A9DFF843
S31508004E00E405FEF7CFFF83465C46002601E0002551
S31508004E10761CF6B2642E53DAF6B2002E09D002A832
S31508004E20019000200090C823002200210020FFF7EF
S31508004E3049FE4FF4807200212000FFF711F8642222
S31508004E402100DFF8A405C068FFF732FF83465946FC
S31508004E502000FFF742FFB8A1200000F091FB0028D0
S31508004E60D5D03A224FF48071200000F061FB871CF0
S31508004E70380003F003FA80462C224FF48071200094
S31508004E8000F056FB10F10109484603F0F7F982468F
S31508004E905FFA88F8B8F1060F10DB5FFA8AFABAF1FA
S31508004EA0630F0BD06D1CEDB2072DB1DB02AA2100F2
S31508004EB0DFF83005FEF799FF012008E00025A7E78F
S31508004EC002AA2100DFF81C05FEF78FFF0020BDE8C7
S31508004ED0FE8F70B584B00025002602A9DFF8040508
S31508004EE0FEF760FF05002E00002400E0641CE4B213
S31508004EF0642C34DAE4B2002C09D002A80190002010
S31508004F000090C823002200210020FFF7DBFD4FF4A4
S31508004F10807200213000FEF7A3FF64223100DFF81B
S31508004F20C8040069FFF7C4FE050029003000FFF732
S31508004F30D4FEDFF8BC14300000F022FB002806D1AE
S31508004F40DFF8B014300000F01BFB0028CED002AA10
S31508004F503100DFF89004FEF748FF012006E002AAB8
S31508004F603100DFF88004FEF740FF002004B070BD72
S31508004F7070B584B00025002602A9DFF86804FEF79C
S31508004F8011FF05002E00002400E0641CE4B2642C26
S31508004F902DDAE4B2002C09D002A801900020009076
S31508004FA0C823002200210020FFF78CFD4FF48072F1
S31508004FB000213000FEF754FF64223100DFF8280490
S31508004FC04069FFF775FE050029003000FFF785FEEA
S31508004FD0DFF82414300000F0D3FA0028D5D002AA4E
S31508004FE03100DFF80004FEF700FF012006E002AA00
S31508004FF03100DFF8F003FEF7F8FE002004B070BDBC
S31508005000000000004F4B000038B50024002500A919
S31508005010DFF8D003FEF7C6FE040025004FF48072C1
S3150800502000212800FEF71CFF64222900DFF8B803D8
S315080050308069FFF73DFE040021002800FFF74DFEBA
S3150800504095A1280000F09CFA002807D000AA29009C
S31508005050DFF89003FEF7C9FE012006E000AA290042
S31508005060DFF88003FEF7C1FE002032BD38B5002404
S31508005070002500A9DFF86C03FEF794FE040025005E
S315080050804FF4807200212800FEF7EAFE6422290008
S31508005090D548C069FFF70CFE040021002800FFF779
S315080050A01CFE7DA1280000F06BFA002806D000AA95
S315080050B02900CC48FEF799FE012005E000AA290040
S315080050C0C848FEF792FE002032BD70B582B00025B2
S315080050D0002600A9C348FEF765FE05002E00002439
S315080050E000E0641CE4B2642C1EDA4FF480720021DE
S315080050F03000FEF7B5FE4FF4FA623100BA48006A8E
S31508005100FFF7D6FD050029003000FFF7E6FD62A18E
S31508005110300000F035FA0028E3D000AA3100B14883
S31508005120FEF763FE012005E000AA3100AD48FEF750
S315080051305CFE002076BD00004353510070B584B074
S315080051400025002602A9A748FEF72CFE05002E001A
S31508005150002400E0641CE4B2642C2ADAE4B2002CD1
S3150800516009D002A8019000200090C823002200213F
S315080051700020FFF7A7FC4FF4807200213000FEF7ED
S315080051806FFE642231009848406AFFF791FD0500DA
S3150800519029003000FFF7A1FD8EA1300000F0F0F9DC
S315080051A00028D7D002AA31008E48FEF71EFE01203D
S315080051B005E002AA31008B48FEF717FE002004B06E
S315080051C070BD38B50024002500A98648FEF7EAFD1B
S315080051D0040025004FF4807200212800FEF740FEE7
S315080051E08148806AFFF701FA8448FFF7FEF9844888
S315080051F0FFF7FBF92000FFF727FA00AA002140F67F
S31508005200B830FFF70FFC764804680020FFF71CFA51
S3150800521021002800FFF761FD7A49280000F0B0F95F
S31508005220002806D000AA29006E48FEF7DEFD0120F8
S3150800523005E000AA29006B48FEF7D7FD002032BD1D
S3150800524030B585B004000D00ADB22A0062A103A8EE
S3150800525000F074FF6448C06AFFF7C7F903A8FFF7B0
S31508005260C4F95EA0FFF7C1F901A8009002AB0022BD
S315080052704FF47A716448FFF770FABDF80400002805
S3150800528001D0002005E0290089B22000FFF77FF948
S31508005290012005B030BD00004F4B000080B5FFF778
S315080052A026FD002801D1002039E0FFF752FD00282D
S315080052B001D1002033E0FFF794FD002801D100203A
S315080052C02DE0FFF706FE002801D1002027E0FFF7B2
S315080052D04FFE002801D1002021E0FFF795FE0028A7
S315080052E001D100201BE0FFF7C1FE002801D10020F4
S315080052F015E0FFF7EAFE002801D100200FE0FFF7CE
S315080053001DFF002801D1002009E0FFF75AFF0028F9
S3150800531001D1002003E001203C490870012002BDAC
S3150800532010B584B00024C0B2002836D0022138480F
S3150800533000F029FB1021364800F028FB02A801904E
S3150800534000200090C823012200210020FFF7BAFBA5
S3150800535010212F4800F017FB02A8019000200090AA
S315080053600023032200210020FFF7ACFB0AE002A875
S315080053700190002000906423002200210020FFF7FE
S31508005380A1FB641CE4B2FA2C05DAFFF7B0FC01288D
S31508005390EDD1012010E000200EE002211C4800F0AB
S315080053A0F5FA02A8019000200090002303220021AC
S315080053B00020FFF787FB012004B010BD38B50400B4
S315080053C0002500F05BFA050010480470280000F07C
S315080053D059FA31BD2E000000256400000D000000BA
S315080053E0D03C0020283C00200000002020AF000808
S315080053F054AE000860AE00086CAE000850000020ED
S315080054009000002078AE0008D43B0020E63C00203F
S3150800541000080140002201E0401C521C002804D06C
S315080054200378002B01D08A42F6D31000704780B566
S315080054305FF0FF3200F001F802BD30B4002801D158
S31508005440002029E0002901D1002025E0002A23D0E8
S31508005450030000E05B1C002B02D01C78002CF9D15D
S31508005460002B01D1002017E0002404E00D781D7000
S315080054705B1C491C641C002B06D0002904D00D783F
S31508005480002D01D09442F1D3002B01D0002901D17F
S31508005490002001E00021197030BC7047F0B4002AE2
S315080054A001D1002042E0002807D1002901D10020BF
S315080054B03CE00878404200B238E0002902D1007882
S315080054C000B233E003000C005B1C641C002504E0FA
S315080054D0401C491C5B1C641C6D1C06780F78BE4278
S315080054E008D10678002E05D0002B03D0002C01D059
S315080054F09542EDD3954201D1002017E002780D7848
S31508005500AA4203D000780978401A0EE000780028ED
