S00C0000546573742E7372656378
S31508000000184F002079BF000827BE000829BE00083F
S315080000102BBE00082DBE00082FBE000800000000F9
S3150800002000000000000000000000000031BE0008CB
S3150800003033BE000800000000C3A3000835BE000850
S315080000403DC1000841C1000845C1000849C1000872
S315080000504DC1000851C1000855C1000859C1000822
S315080000605DC1000861C1000865C1000869C10008D2
S315080000706DC1000871C1000875C1000879C1000882
S315080000807DC1000881C1000885C1000889C1000832
S315080000908DC1000891C1000895C1000899C10008E2
S315080000A09DC10008A1C10008A5C10008A9C1000892
S315080000B0ADC10008B1C10008B5C10008B9C1000842
S315080000C0BDC10008C1C10008C5C10008C9C10008F2
S315080000D0CDC100083DBE000845BE00084DBE00085B
S315080000E055BE0008D1C10008D5C10008F0B585B0D5
S315080000F000260FE0DFF8600D007801280AD1DFF846
S31508000100D8090068DFF8D41908600020DFF8481D10
S315080001100870002602A8019003A800900DF10A03B2
S315080001200022C821DFF8B80904F0E4F90100BDF897
S31508000130080047F2D9229042DCD00F7802AADFF8ED
S31508000140A40904F0E6FBDFF894090068002819D131
S3150800015002A9DFF8940904F0B9FBDFF880190860F2
S31508000160BDF80800002828D1DFF870090068DFF814
S31508000170681908604FF480720021DFF85C0900688E
S3150800018004F002FCDFF8D40C007800287AD0DFF8F7
S31508000190C80C0078002812D1FFB2682FBAD1DFF850
S315080001A03C090068411CDFF83429116007700026F5
S315080001B00120DFF8A41C0870ACE700BFAAE7DFF847
S315080001C01C090068411CDFF8142911600770DFF864
S315080001D00C090068DFF800190968401A0B2805D1D0
S315080001E0DFF8F4080068807A10F10D06F6B2002EE2
S315080001F090D0DFF8E8080068DFF8DC180968401ACC
S31508000200F6B2B04286DBDFF8D408006810F8010CB5
S3150800021016282BD1DFF8C4080768F6B2B11E89B2D2
S31508000220DFF8B408006800F011F917F8021CC0B22C
S3150800023081427FF46FAF02A800900023F6B2320025
S3150800024092B2DFF894080168DFF8140C04F031FA6A
S315080002500020DFF8841808600020DFF8801808609E
S315080002600020DFF8F41B0870002653E7DFF868085B
S315080002700068DFF8681808600020DFF8DC1B0870E3
S31508000280002647E7DFF8D00B0078002813D1FFB225
S31508000290682F7FF43FAFDFF844080068411CDFF899
S315080002A03C28116007700026012400250120DFF88C
S315080002B0A81B08702EE7DFF824080068411CDFF841
S315080002C01C2811600770EDB2002D39D1641CE4B208
S315080002D0062C7FF41FAFDFF800080068407968280D
S315080002E020D1DFF8F4070068B0F80100DFF8E81756
S315080002F00968B1F8031080B289B2884204D1012591
S3150800030080B28608083605E70020DFF84C1B08701F
S31508000310002600240025DFF8C0070068DFF8BC17B0
S315080003200860F7E60020DFF8301B08700026002476
S315080003300025DFF8A4070068DFF8A0170860E9E6DB
S31508000340F6B2002E3FF4E6AEDFF890070068DFF855
S3150800035088170968401AF6B2B042FFF6DBAEDFF836
S315080003607C07006810F8010C162861D1DFF86C07C5
S315080003700468F6B2B6F1080189B2DFF85C070068CE
S31508000380801D00F063F814F8021CC0B2814241D106
S31508000390DFF844070068007B032806D0042817D036
S315080003A00A2802D00B2813D024E00020DFF82C17E7
S315080003B00968087002A800900023F6B2320092B2CB
S315080003C0DFF814070168DFF89C0A04F072F911E0F7
S315080003D00020DFF808170968087002A800900023B3
S315080003E0F6B2320092B2DFF8F0060168DFF8780A52
S315080003F004F05FF90020DFF8E01608600020DFF857
S31508000400DC1608600020DFF8501A08700026002461
S3150800041000257FE6DFF8C0060068DFF8C01608602A
S315080004200020DFF8341A087000260024002571E63B
S31508000430DFF8A4060068DFF8A41608600020DFF8D5
S31508000440181A087000260024002563E610B4002256
S31508000450002303E09BB21C5CA2185B1C9BB289B20A
S315080004608B42F7D31000C0B210BC704730B583B0CA
S315080004700020002100220025002400E000BFDFF84C
S315080004808C0C0078012840F0B280002D13D101A908
S31508000490DFF8540604F01AFA0500BDF8040000282F
S315080004A0ECD12C004FF480720021200004F06CFA85
S315080004B0200004F09AFCDFF8580C0068DFF8541C9A
S315080004C00968401A0128C0F28C8001AA002104207C
S315080004D004F0E2FCDFF8380C05682900200004F077
S315080004E078FDADA1200005F0D1F9002810D025002F
S315080004F04FF480720021200004F046FA200004F030
S3150800050074FC01AA0021DFF8100C05F01CFBB6E705
S31508000510DFF8081C200005F0B9F900280ED001A85C
S31508000520009000232A1B92B22100DFF8F40B04F096
S31508000530C0F80025002004F058FCA0E7DFF8E41B0B
S31508000540200005F0A3F9002810D025004FF480728A
S315080005500021200004F018FA0020050000240020DD
S3150800056004F043FC002005F0ADF888E7DFF8B81B77
S31508000570200005F08BF9002810D025004FF4807272
S315080005800021200004F000FA0020050000240020C5
S3150800059004F02BFC002005F095F870E7DFF88C1BBB
S315080005A0200005F073F9002810D025004FF480725A
S315080005B00021200004F0E8F90020050000240020AE
S315080005C004F013FC002005F07DF858E725004FF4E9
S315080005D080720021200004F0D7F9200004F005FC01
S315080005E04DE701AA0021042004F056FC47E7002D38
S315080005F010D04FF480720021200004F0C5F901AA3A
S315080006002100DFF8E40404F084F900250024002022
S3150800061004F0EBFB002005F015F8012005F012F8B0
S3150800062004F0CEFF2BE72DE9FF4100260024002029
S31508000630ADF80A005FF000080025002705E002AAC9
S315080006402100DFF8A40404F064F902A8019003A8C5
S3150800065000900DF10A0300220021DFF8C40A03F016
S3150800066049FF0400AFA1200005F010F910F10208B7
S31508000670404600F093F80700BFB2002FDFD098F885
S315080006800C0000280CD0022828D0032827D00428DC
S3150800069041D00A2823D00B283DD00C28CFD0CEE74E
S315080006A098F80D0010F00F05DFF8840A0078EDB20F
S315080006B0854206D102AA0021DFF8780A05F043FA36
S315080006C00BE0DFF8740A0078EDB2854205D102AA7C
S315080006D00021DFF8680A05F036FAB0E7AFE702A9A5
S315080006E0DFF8040404F0F2F80600002E12D0BFB2B8
S315080006F03A004146300005F0CBFA0120BFB2B855A2
S3150800070002A8009000233A0092B23100DFF854079D
S3150800071003F0CFFF93E798F80D0010F00F0598F84F
S315080007200E00052808D1DFF8180A05702900C9B295
S31508000730012003F09DF82EE0DFF8040A0078EDB2F8
S31508000740A84223D002A9DFF8A00304F0BFF80600E8
S31508000750002E08D0BFB23A004146300005F098FA9C
S315080007600120BFB2B855DFF8D80905702900C9B20B
S31508000770012003F07DF802A8009000233A0092B207
S315080007803100DFF8E40603F094FF04E02900C9B25B
S31508000790012003F06DF852E70A3E000070B5040028
S315080007A0B4F80150B4F80300ADB280B2854214D152
S315080007B0ADB2AD08ADB228198679290089B2A01D57
S315080007C0FFF744FE864208D1ADB22819C07916282B
S315080007D003D115F10800C0B200E0002070BD10B5C5
S315080007E0002405F069FB0400DFF858090078401C6E
S315080007F0DFF850190870DFF84C09007810F00F0080
S31508000800DFF840190870200005F05AFB10BD30B516
S3150800081089B0002404E001AA0021642004F03CFB0E
S3150800082003AD682028706D1C272028706D1C0020D9
S3150800083028706D1C272028706D1C002028706D1CE0
S31508000840682028706D1CC92028706D1CDFF8F80810
S31508000850007828706D1CDFF8F008407828706D1C49
S31508000860DFF8E408807828706D1CDFF8DC08C078AB
S3150800087028706D1CDFF8D008007928706D1C0220DE
S3150800088028706D1CDFF8BC08007850F070002870DE
S315080008906D1CDFF8B0080078DFF894180870FFF7C9
S315080008A09EFF032028706D1C09210DF11200FFF729
S315080008B0CDFD28706D1C162028706D1CDFF84C08BD
S315080008C000780028A7D0002500E06D1CDFF83C085A
S315080008D00078002818D0EDB2032D15DA002411216E
S315080008E003A804F031FE0028EFD001A8009002AB5F
S315080008F0002241F28831DFF83C0805F06AF8BDF8B5
S3150800090004000028E1D10124E4B2002C06D001AA93
S315080009100021DFF8FC0D04F0BFFA81E7002004F09F
S31508000920D1FE7DE70D0A680080B5C0B200280CD05C
S31508000930DFF8E00D0078AA2803D1012000F046F878
S315080009400FE0012000F058F80BE0DFF8C80D00783A
S31508000950AA2803D1002000F039F802E0002000F0B0
S315080009604BF801BD1FB511E00120FFF7DDFFBDF80B
S315080009700800015D200000F0B9F80020FFF7D4FF59
S315080009800DF10A022100584803F0C3FF0DF10A00D1
S31508000990019003A8009002AB00220021DFF8C804EA
S315080009A003F0A8FD0400207B042802D00B28DBD026
S315080009B0E6E70120FFF7B8FFBDF80800015D200053
S315080009C000F0AEFE0020FFF7AFFFD9E780B5C0B252
S315080009D000280BD00121DFF8400D05F0F2FA00AA35
S315080009E0002140F2DC5004F057FA04E00121DFF858
S315080009F0280D05F0E9FA02BD80B5C0B200280BD073
S31508000A000221DFF8180D05F0DCFA00AA00214FF4E0
S31508000A10167004F041FA04E00221DFF8000D05F033
S31508000A20D3FA02BD80B5C0B200280CD04FF40041FD
S31508000A30DFF8E40C05F0C5FA00AA002140F6B83044
S31508000A4004F02AFA05E04FF40041DFF8CC0C05F073
S31508000A50BBFA02BD80B5C0B200280BD00821DFF86A
S31508000A60BC0C05F0AEFA00AA002140F6B83004F036
S31508000A7013FA04E00821DFF8A40C05F0A5FA02BD74
S31508000A8080B5C0B200280BD01021DFF8900C05F015
S31508000A9098FA00AA002140F6B83004F0FDF904E0FF
S31508000AA01021DFF8780C05F08FFA02BD80B5C0B2C8
S31508000AB000280BD02021DFF8640C05F082FA00AA82
S31508000AC0002140F6B83004F0E7F904E02021DFF809
S31508000AD04C0C05F079FA02BDE44C0020E04C0020ED
S31508000AE07C4A0020684C0020504C00202DE9F0413B
S31508000AF08AB004000D000020039000200290002018
S31508000B00ADF810000020ADF80600002600270020EA
S31508000B108DF804005FF000080222DFF8101E04A812
S31508000B2005F004FC0322DFF8081E03A805F0FEFB07
S31508000B30BDF81000002800F0D380012004F064F905
S31508000B400722DFF8F01D14F1100003F04AFF012810
S31508000B5040F0C9800120DFF8E01D0870002634E067
S31508000B6007220298811D07A805F0E0FB01220298DA
S31508000B7010F10D0101A805F0D9FB2B00DBB29DF899
S31508000B800420029907A800F071F903220298C11CF3
S31508000B9002A805F0CBFB7F1CBDF80600BFB2874252
S31508000BA0DED3039905A800F0E2FFB6B2701CBDF8C3
S31508000BB0101090FBF1F0DFF8841D087003220398EB
S31508000BC0C11C03A805F0B2FB761CBDF81000B6B22E
S31508000BD0864278D206220398811D05A805F0A6FB51
S31508000BE00322039810F10C0102A805F09FFB0222CC
S31508000BF0039810F112010DF1060005F097FB039911
S31508000C0005A800F0A1FE00285BD10DF112000090A6
S31508000C1009AB00224FF47A71DFF8240D05F008FFBE
S31508000C20BDF8120000285BD100273DE04FF4805242
S31508000C300298000B4FF4805101FB00F1DFF8040D18
S31508000C4005F074FB02984FF48051B0FBF1F202FBF9
S31508000C501102DFF8F00C1018807D50F08000029920
S31508000C604FF48052B1FBF2F303FB1213DFF8D41CE6
S31508000C70591888750298000B4FF48051484305F0BF
S31508000C8013FA4FF480520298000B4FF4805101FB7F
S31508000C9000F1DFF8B00C05F09FFA03220298C11C98
S31508000CA002A805F043FB7F1CBDF80600BFB28742C9
S31508000CB0BCD30DF112020021DFF8840C05F0C6FF43
S31508000CC073E7002768E70020DFF86C1C08702A0025
S31508000CD0D2B20021012000F039FA002004F094F87D
S31508000CE00AB0BDE8F08100261AE02B00DBB29DF8B9
S31508000CF00420029907A800F0B9F82A00D2B202998E
S31508000D00002000F023FA039905A800F030FF5FF0F1
S31508000D10010803220398C11C03A805F007FB761CEB
S31508000D205FFA88F8B8F1000FD7D1BDF81000B6B24F
S31508000D308642D2D206220398811D05A805F0F6FA46
S31508000D400322039810F10C0102A805F0EFFA02221B
S31508000D50039810F112010DF1060005F0E7FA0027D5
S31508000D6006E003220298C11C02A805F0DFFA7F1CE0
S31508000D70BDF80600BFB28742CBD207220298811D72
S31508000D8007A805F0D3FA0122029810F10D0101A86F
S31508000D9005F0CCFA072207A914F1100003F021FE8A
S31508000DA00128DED19DF80400E17B8842D9D1039958
S31508000DB005A800F0C9FD002897D10DF11200009092
S31508000DC009AB00224FF47A71DFF8740B05F030FE98
S31508000DD0BDF81200002883D14FF480520298000B08
S31508000DE04FF4805101FB00F1DFF8580B05F09EFA2D
S31508000DF002984FF48051B0FBF1F202FB1102DFF8C2
S31508000E00440B1018807D50F0800002994FF48052F0
S31508000E10B1FBF2F303FB1213DFF8281B5918887588
S31508000E200298000B4FF48051484305F03DF94FF402
S31508000E3080520298000B4FF4805101FB00F1DFF855
S31508000E40040B05F0C9F90DF112020021DFF8F00ACA
S31508000E5005F0FCFE5BE700000D4D0020FF4C00206E
S31508000E60C44A0020E84A0020A04A00202DE9F043A1
S31508000E708BB004000D00002600200021ADF80C10F0
S31508000E8000275FF0000800218DF8091000218DF871
S31508000E9008105FF0000907A98946682189F800103B
S31508000EA019F1010989F8002019F1010900210E003C
S31508000EB006E0F6B2305D89F8000019F10109761CE2
S31508000EC0F6B2072EF5DB012089F8000019F10109B1
S31508000ED0032089F8000019F10109DFF8BC0D007834
S31508000EE0FF280AD11F2089F8000019F1010990206E
S31508000EF089F8000019F1010909E0902089F8000035
S31508000F0019F101091F2089F8000019F101090120CA
S31508000F1089F8000019F101090E2107A8FFF796FACA
S31508000F2089F8000019F10109162089F8000019F15D
S31508000F300109002608E00020F6B205A97054002031
S31508000F40F6B204A97054761CF6B2042EF3DB00261A
S31508000F5017E0C0B2C119897BC0B205AA8154C0B2D4
S31508000F60C119C97CC0B204AA8154401CC0B2042865
S31508000F70EFDB0DF10A023900DFF8580D03F0C9FC62
S31508000F80761C5FFA88F8B8F1000F35D1F6B2032E51
S31508000F9032DA0421DFF8400D03F026FE102107A8F7
S31508000FA003F022FE0DF10A00019006A8009003AB9B
S31508000FB000224FF49661DFF8240D03F09BFA070030
S31508000FC0BDF80A00002805D0F6B2022E01D15FF05E
S31508000FD00008D5E70722B91C200003F002FD012806
S31508000FE0C7D15FF00108F87F8DF8090097F820004F
S31508000FF08DF808000020B9E70DF10A00009006AB4D
S3150800100000224FF47A71DFF8380905F011FDBDF8B2
S315080010100A00002877D14FF48052280B4FF48051EC
S3150800102001FB00F1DFF81C0905F080F95FFA88F882
S31508001030B8F1000F16D14FF48050B5FBF0F101FB63
S315080010401051DFF800090818807D50F040004FF471
S315080010508051B5FBF1F202FB1152DFF8E81851187E
S31508001060887538E001220DF109014FF48050B5FB6F
S31508001070F0F303FB1053DFF8CC081818163004F009
S3150800108007FE012202A94FF48050B5FBF0F303FBDB
S315080010901053DFF8B0081818173004F0F9FD0422C9
S315080010A005A94FF48050B5FBF0F303FB1053DFF8A6
S315080010B0940818180E3004F0EBFD042204A94FF426
S315080010C08050B5FBF0F303FB1053DFF878081818C7
S315080010D0183004F0DDFD280B4FF48051484304F026
S315080010E0E3FF4FF48052280B4FF4805101FB00F1C7
S315080010F0DFF8500805F070F80DF10A020021DFF854
S31508001100400805F0A3FD0BB0BDE8F083FE4C0020B7
S31508001110E84C0020EC4C0020FC4B0020B4C0000832
S315080011200C4B0020BCC00008C4C00008CCC0000896
S31508001130094D0020C44B00200A4D0020E04B00203A
S315080011400C4D00200B4D00207C0000202DE9F54FAA
S315080011508DB00025002006905FF000090020ADF84C
S315080011601C000020ADF814000020ADF81600002081
S31508001170ADF8000000208DF809000020ADF80A003F
S315080011800027002008900020039000208DF8080012
S3150800119000208DF8070000208DF8060000240020A6
S315080011A0ADF812005FF0000A5FF000080020ADF805
S315080011B0040000265FF0000B00208DF80000039164
S315080011C004A9DFF8100B03F081FB0500002D00F0E1
S315080011D0CE8006959DF83400002840F0D08007227E
S315080011E00398811D0BA805F0A1F80122039810F1B8
S315080011F00D0102A805F09AF80422039810F10E01D1
S3150800120009A805F093F80122039810F116010DF1CB
S31508001210070005F08BF80122039810F117010DF16C
S31508001220060005F083F8682028706D1CA94673200F
S31508001230A9F8000019F102097320A9F8000019F1AC
S3150800124002094D46682028706D1C882028706D1C80
S31508001250DFF8540D007828706D1CDFF84C0D4078C7
S3150800126028706D1CDFF8400D807828706D1CDFF83B
S31508001270380DC07828706D1CDFF82C0D00792870A1
S315080012806D1C0B2028706D1CDFF8200D007850F0BF
S31508001290600028706D1C042028706D1CDFF80C0D8A
S315080012A00078DFF80C1D0870FFF799FA00202870FF
S315080012B06D1C002028706D1C002028706D1C0020F5
S315080012C028706D1C9DF8080028706D1C002405E028
S315080012D0A4B20BA8205C28706D1C641CA4B2072C51
S315080012E0F6DB012028706D1C002405E0A4B209A8CD
S315080012F0205C28706D1C641CA4B2042CF6DB9DF8D7
S31508001300070028706D1C9DF8060028706D1C1C21AE
S315080013100698801DFFF79AF828706D1C162028700D
S315080013206D1C9DF83800002824D05FF0000A01E003
S315080013301AF1010A5FFA8AFABAF1030F11DA2421BF
S31508001340069804F001F904A800900AAB002241F2BD
S315080013508831DFF8600C04F03CFBBDF8100000286B
S31508001360E6D104AA0699DFF86C0903F0D2FA0FB0A1
S31508001370BDE8F08F2421069803F0A0FCF1E70222CD
S31508001380DFF8A8150DF1160004F0D0FF0222DFF8E9
S31508001390281C05A804F0CAFF0322DFF8941508A83C
S315080013A004F0C4FFBDF814000A2190FBF1F0ADF873
S315080013B00000BDF814000A2190FBF1F201FB1200AF
S315080013C08DF809000027BDF80000ADF80A009DF861
S315080013D00900002804D0BDF80A00401CADF80A0030
S315080013E0002406E003220898C11C08A804F09EFF02
S315080013F0641CBDF81600A4B28442B2D2032208982F
S3150800140010F10C0103A804F091FF0222089810F1CC
S31508001410120107A804F08AFF0020ADF812001AE0AE
S31508001420BDF804000E21484310F1160189B206984A
S3150800143003F044FC04AA0021642003F02DFD069D58
S3150800144003220398C11C03A804F070FFBDF812001C
S31508001450401CADF81200BDF81200BDF81C108842F9
S31508001460C0D207220398811D0BA804F05FFF012252
S31508001470039810F10D0102A804F058FF04220398FE
S3150800148010F10E0109A804F051FF0122039810F18A
S3150800149016010DF1070004F049FF0122039810F127
S315080014A017010DF1060004F041FFF6B2002E40F0D8
S315080014B0BF8001267F1CBDF80A0001280CD1BDF8A3
S315080014C01480ADF80480BDF804000E2148430E30A0
S315080014D0800050F0030B36E0BFB2012F0CD15FF04D
S315080014E00A08ADF80480BDF804000E2148430E3002
S315080014F0800050F0030B26E0BDF80A00BFB2874211
S3150800150015D19DF80900002804D15FF00A08ADF846
S31508001510048003E09DF80980ADF80480BDF8040056
S315080015200E2148430E30800050F0030B0BE05FF0AD
S315080015300A08ADF80480BDF804000E2148430E30B1
S31508001540800050F0030B682028706D1CA946A9F886
S3150800155000B019F10209A9F800B019F102094D46BF
S31508001560682028706D1C882028706D1CDFF8380AE2
S31508001570007828706D1CDFF8300A407828706D1CDA
S31508001580DFF8240A807828706D1CDFF81C0AC078FA
S3150800159028706D1CDFF8100A007928706D1C0B2066
S315080015A028706D1CBDF80A00012807D1DFF8FC0970
S315080015B0007850F0700028706D1C1EE0BFB2012F35
S315080015C007D1DFF8E809007850F0500028706D1C44
S315080015D013E0BDF80A00BFB2874207D1DFF8CC098D
S315080015E0007850F0300028706D1C06E0DFF8BC0962
S315080015F0007850F0100028706D1CDFF8B0090078EC
S31508001600DFF8AC190870FFF7EAF8042028706D1C9B
S31508001610A946BDF80A00A9F8000019F10209A9F8B7
S31508001620007019F102094D469DF8080028706D1CD6
S315080016305FF0000A08E05FFA8AFA0BA81AF80000B9
S3150800164028706D1C1AF1010A5FFA8AFABAF1070FB7
S31508001650F1DB012028706D1C5FF0000A08E05FFAD4
S315080016608AFA09A81AF8000028706D1C1AF1010AEE
S315080016705FFA8AFABAF1040FF1DB9DF807002870C1
S315080016806D1C9DF8060028706D1CB8F101081FFA3C
S3150800169088F8B8F1000F7FF4D3AE0026BDF8040031
S315080016A00E21484310F10E0189B20698801DFEF7F7
S315080016B0CDFE28706D1C162028706D1C9DF838000C
S315080016C000283FF4ADAE5FF0000A01E01AF1010A06
S315080016D05FFA8AFABAF1030FBFF6ACAEBDF804009A
S315080016E00E21484310F1160189B2069803F02CFF23
S315080016F004A800900AAB002241F28831DFF8B4084A
S3150800170004F067F9BDF810000028DFD192E6000062
S31508001710C0D401009300002000080140000C0140DD
S315080017202DE9F0438BB004000D0000200390002043
S3150800173002900020ADF806000020ADF81000002643
S31508001740002700208DF804005FF000085FF000090C
S31508001750022276490DF1060004F0E8FD03227449D9
S3150800176003A804F0E3FDBDF80600002800F0DA80BF
S31508001770607B10F00F09A07B042808D14946C9B23E
S315080017802800C0B202F074F800F078FDCAE0012023
S3150800179003F03AFB002618E05FFA89F9CDF80090C5
S315080017A02B00DBB29DF80420029905A800F006FC80
S315080017B0039907A800F0DBF95FF0010803220398F4
S315080017C0C11C03A804F0B2FD761C5FFA88F8B8F1CC
S315080017D0000F40F0A480BDF80600B6B2864280F03D
S315080017E09E8006220398811D07A804F09FFD032208
S315080017F0039810F10C0102A804F098FD0222039840
S3150800180010F1120104A804F091FD002706E0032256
S315080018100298C11C02A804F089FD7F1CBDF81000BF
S31508001820BFB28742CAD207220298811D05A804F0D2
S315080018307DFD0122029810F10D0101A804F076FD44
S31508001840072205A914F1100003F0CBF80128DED110
S315080018509DF80400E17B8842D9D1039907A800F0D6
S3150800186073F8002847D10DF11200009009AB002249
S315080018704FF47A71324805F0DBF8BDF812000028FB
S3150800188050D14FF480520298000B4FF4805101FB5F
S3150800189000F12C4804F04AFD02984FF48051B0FB41
S315080018A0F1F202FB110227481018807D50F08000E3
S315080018B002994FF48052B1FBF2F303FB121321494C
S315080018C0591888750298000B4FF48051484304F064
S315080018D0EBFB4FF480520298000B4FF4805101FB4A
S315080018E000F1184804F078FC0DF1120200211448A2
S315080018F005F0ACF960E7A07B02283FF44DAF03285A
S315080019007FF456AF5FFA89F9CDF800902B00DBB269
S315080019109DF80420029905A800F0E2F948E700209E
S3150800192003F072FA0BB0BDE8F0830000A3F01F00C5
S31508001930A0F01F00D4C000080E4D00200F4D002057
S31508001940304B0020980000202DE9F0418AB00400B1
S315080019500D0000270026DFF8F40A0078AA2847D1E8
S31508001960DFF8EC0A00782178884205D102A9DFF869
S31508001970E40A05F069FA39E00020FFF753F8002079
S31508001980FFF768F80020FFF77BF80020FFF78EF8CE
S315080019902078012806D024D3032813D00AD3042894
S315080019A018D01EE00120FFF73DF80120DFF8A01A45
S315080019B0087016E00120FFF74DF80220DFF8901AAC
S315080019C008700EE00120FFF75BF80320DFF8801AA5
S315080019D0087006E00120FFF769F80420DFF8701A9E
S315080019E0087002A9DFF86C0A05F02EFA0120BBE0A0
S315080019F0DFF8580A0078BB2840F0B58004AF6820A5
S31508001A0038707F1CA02038707F1C5FF0000807E044
S31508001A105FFA88F818F8040038707F1C18F1010876
S31508001A205FFA88F8B8F1060FF2DB002038707F1CE1
S31508001A30042038707F1C042038707F1C17203870EB
S31508001A407F1CA02038707F1C012038707F1C552011
S31508001A5038707F1C0F2104A8FEF7F8FC38707F1C2D
S31508001A60162038707F1C5FF0000807E0002602AADF
S31508001A703900984802F04DFF18F10108F6B2002E19
S31508001A802DD15FFA88F8B8F1020F28DA112104A8D7
S31508001A9003F0AAF802A8019003A800900DF10A0322
S31508001AA0002241F288318D4802F024FD0700BDF876
S31508001AB00800002806D05FFA88F8B8F1010F00D1AF
S31508001AC00026D9E70622B91C200002F08AFF012861
S31508001AD0CDD1B87B03210842C8D10126C7E7F6B2A3
S31508001AE0002E3DD102A8009003AB00224FF47A7174
S31508001AF0DFF8640904F09CFFBDF80800002802D04E
S31508001B003000C0B230E04FF48052280B4FF48051B9
S31508001B1001FB00F1DFF8440904F008FC01204FF44A
S31508001B208051B5FBF1F202FB1152DFF8301951185A
S31508001B30C875280B4FF48051484304F0B5FA4FF4A2
S31508001B408052280B4FF4805101FB00F1DFF80C0995
S31508001B5004F042FB02AA0021DFF8FC0805F076F83B
S31508001B603000C0B200E001200AB0BDE8F081F0B54F
S31508001B7089B0040000260025DFF8D0080078AA28D6
S31508001B8018D10020FEF74EFF0020FEF763FF002065
S31508001B90FEF776FF0020FEF789FF0020DFF8B01871
S31508001BA0087002AB00220021DFF8A80805F0A1F9A9
S31508001BB001206FE0DFF894080078BB286AD104AEEC
S31508001BC068203070761CA0203070761C002704E050
S31508001BD0FFB2385D3070761C7F1CFFB2062FF7DB2C
S31508001BE000203070761C04203070761C042030707B
S31508001BF0761C17203070761CA0203070761C0120C9
S31508001C003070761C99203070761C0F2104A8FEF7D8
S31508001C101DFC3070761C16203070761C002706E0F6
S31508001C20002502AA31002B4802F073FE7F1CEDB294
S31508001C30002D2CD1FFB2022F29DA112104A802F0B7
S31508001C40D3FF02A8019003A800900DF10A03002211
S31508001C504FF47A61DFF8F40D02F04CFC0600BDF88B
S31508001C600800002804D0FFB2012F00D10025DDE7C7
S31508001C700622B11C200002F0B4FE0128D1D1B07BA7
S31508001C80C0B210F003000228CAD10125C9E728000E
S31508001C90C0B2FFE709B0F0BD004D002080B50020B6
S31508001CA0FEF742FE0020FEF7BDFE0020FEF7D2FE3C
S31508001CB00020FEF7E5FE0020FEF7F8FE0020DFF81C
S31508001CC09017087000AB00220021DFF8880705F09E
S31508001CD010F901BD504C002088000020C44A00209D
S31508001CE02DE9F84F8AB004000D0000260020ADF853
S31508001CF00A0000275FF000085FF000095FF0000A9D
S31508001D005FF0000B04A8834668208BF800001BF1DF
S31508001D10010B8BF800201BF1010B0020060006E0E2
S31508001D20F6B2305D8BF800001BF1010B761CF6B29B
S31508001D30072EF5DB04208BF800001BF1010B0420AD
S31508001D408BF800001BF1010BDFF8040D0078FF2863
S31508001D500AD117208BF800001BF1010BA0208BF885
S31508001D6000001BF1010B09E0A0208BF800001BF115
S31508001D70010B17208BF800001BF1010B01208BF8D3
S31508001D8000001BF1010B55208BF800001BF1010B1D
S31508001D900F2104A8FEF75AFB8BF800001BF1010B74
S31508001DA016208BF800001BF1010B002608E05FF0F7
S31508001DB0000802AA3900DFF89C0C02F0AAFD761C7E
S31508001DC05FFA88F8B8F1000F49D1F6B2022E46DA62
S31508001DD00421DFF8840C02F007FF112104A802F0A1
S31508001DE003FF02A8019003A800900DF10A03002240
S31508001DF043F69821DFF8540C02F07CFB0700BDF887
S31508001E000800002805D0F6B2012E01D15FF00008BF
S31508001E10D5E7DFF8480C0078FF280ED002AA39006B
S31508001E20DFF8300C02F075FD02AA002142F6E060E8
S31508001E3003F032F85FF00108C1E70722B91C200059
S31508001E4002F0CFFD0128B4D197F80E9097F80FA0AD
S31508001E50032019EA000FAAD15FF00108A9E702A832
S31508001E60009003AB00224FF47A71DFF8EC0504F01A
S31508001E70DFFDBDF80800002840F092804FF480523C
S31508001E80280B4FF4805101FB00F1DFF8D00504F070
S31508001E904DFA5FFA88F8B8F1000F33D15FFA89F97D
S31508001EA019F00300032816D14FF48050B5FBF0F162
S31508001EB001FB1051DFF8A405081880F816904FF4B6
S31508001EC08050B5FBF0F101FB1051DFF890050818BA
S31508001ED080F817A04DE04FF48050B5FBF0F101FBF8
S31508001EE01051DFF878050818807D50F040004FF44F
S31508001EF08051B5FBF1F202FB1152DFF8601551185B
S31508001F00887536E0DFF8540B0078FF2816D00020D5
S31508001F104FF48051B5FBF1F202FB1152DFF83C1584
S31508001F205118887500204FF48051B5FBF1F202FB79
S31508001F301152DFF828155118C87515E04FF480506E
S31508001F40B5FBF0F101FB1051DFF81005081880F811
S31508001F5016904FF48050B5FBF0F101FB1051DFF8F5
S31508001F60FC04081880F817A014999DF8280001F0B9
S31508001F707FFC280B4FF48051484304F095F84FF442
S31508001F808052280B4FF4805101FB00F1DFF8CC0496
S31508001F9004F022F902AA0021DFF8BC0404F056FE78
S31508001FA00BB0BDE8F08F00007C0000200B4D002030
S31508001FB00A4D0020E04B0020B3F01F002DE9F84F32
S31508001FC08AB004000D0000260020ADF80A0000279C
S31508001FD05FF000085FF000095FF0000A5FF0000B91
S31508001FE004A8834668208BF800001BF1010B8BF8C8
S31508001FF000201BF1010B0020060006E0F6B2305D5A
S315080020008BF800001BF1010B761CF6B2072EF5DBE8
S3150800201004208BF800001BF1010B04208BF800004C
S315080020201BF1010BDFF8280A0078FF280AD11720D0
S315080020308BF800001BF1010BA0208BF800001BF1A8
S31508002040010B09E0A0208BF800001BF1010B1720FB
S315080020508BF800001BF1010B01208BF800001BF127
S31508002060010B99208BF800001BF1010B0F2104A826
S31508002070FEF7ECF98BF800001BF1010B16208BF824
S3150800208000001BF1010B002608E05FF0000802AA19
S315080020903900DFF8C00902F03CFC761C5FFA88F8C4
S315080020A0B8F1000F52D1F6B2022E4FDA0421DFF84A
S315080020B0A80902F099FD112104A802F095FD02A8CD
S315080020C0019003A800900DF10A03002243F6982117
S315080020D0DFF8780902F00EFA0700BDF808000028B4
S315080020E005D0F6B2012E01D15FF00008D5E7DFF87A
S315080020F06C090078FF280ED002AA3900DFF85409C7
S3150800210002F007FC02AA002142F6E06002F0C4FED3
S315080021105FF00108C1E70722B91C200002F061FC44
S315080021200128B4D197F80E9097F80FA05FFA89F9AD
S3150800213019F00300032802D15FF00008A7E703207F
S3150800214019EA000FA1D05FF00108A0E702A80090E5
S3150800215003AB00224FF47A71BF4804F069FCBDF85E
S315080021600800002840F087804FF48052280B4FF46F
S31508002170805101FB00F1B94804F0D8F85FFA88F8F5
S31508002180B8F1000F2FD15FFA89F919F00300032877
S3150800219014D14FF48050B5FBF0F101FB1051AF4854
S315080021A0081880F816904FF48050B5FBF0F101FB43
S315080021B01051AA48081880F817A047E04FF4805035
S315080021C0B5FBF0F101FB1051A4480818807D50F0CA
S315080021D040004FF48051B5FBF1F202FB11529F49C2
S315080021E05118887532E0DFF874080078FF2814D093
S315080021F001204FF48051B5FBF1F202FB11529749C9
S315080022005118887500204FF48051B5FBF1F202FB96
S31508002210115292495118C87513E04FF48050B5FB16
S31508002220F0F101FB10518D48081880F816904FF40C
S315080022308050B5FBF0F101FB10518848081880F86A
S3150800224017A014999DF8280001F012FB280B4FF4EB
S315080022508051484303F028FF4FF48052280B4FF46F
S31508002260805101FB00F17D4803F0B6FF02AA002168
S31508002270794804F0EBFC0BB0BDE8F08FF0B58DB0F3
S3150800228000200090002002900020ADF804000020F5
S31508002290ADF80C000024002500208DF80600002764
S315080022A000260222DFF8501A01A804F03FF803229C
S315080022B0DFF8481A00A804F039F8BDF80400002829
S315080022C000F09980012002F09FFD00240AE00099A1
S315080022D004A8FFF74CFC03220098C11C00A804F0D0
S315080022E025F8641CBDF80400A4B2844280F08080FE
S315080022F006220098811D04A804F018F80322009805
S3150800230010F10C0102A804F011F80222009810F14D
S31508002310120103A804F00AF8009904A8FFF714FBB1
S315080023200028D8D000252BE0A0203070761C172076
S315080023303070761C01203070761C72203070761C46
S315080023400F2108A8FEF782F83070761C1620307028
S31508002350761C0421DFF8000702F046FC112108A8C4
S3150800236002F042FC03220298C11C02A803F0DEFF19
S315080023700DF10E02002142F6E06002F08DFD6D1CA3
S31508002380BDF80C00ADB28542A1D207220298811D84
S3150800239006A803F0CBFF0122029810F10D010DF1FA
S315080023A0060003F0C3FF08AE68203070761C9DF85F
S315080023B006003070761C002705E0FFB206A8385CD8
S315080023C03070761C7F1CFFB2072FF6DB04203070B6
S315080023D0761C04203070761CDFF874060078FF2817
S315080023E0A2D117203070761CA0203070761CA1E789
S315080023F0002002F009FD0DB0F0BD1FB50CE0BDF8D8
S315080024000800015D200001F05DF90DF10A022100C6
S31508002410DFF8400602F07DFA0DF10A00019003A8E4
S31508002420009002AB00220021DFF8D80D02F062F816
S315080024300400207B032802D00A28E0D0E5E7BDF88F
S315080024400800015D200000F00BF8DEE7930000208D
S31508002450104D0020504A0020304B002098000020E4
S315080024602DE9F04188B004000D0000260020ADF8E3
S31508002470060000200290002006905FF00008607BAE
S3150800248010F00F07A07B022818D0032800F0F2806E
S31508002490062800F03B81072800F076810C2800F01A
S315080024A0BC810E2800F007820F2800F085821028CC
S315080024B000F0BC82112800F04282C3E2A07CDFF85B
S315080024C0481D0870607CDFF8441D0870207CDFF822
S315080024D0401D0870E07BDFF83C1D0870B4F8130057
S315080024E0DFF8341D08801121DFF8300D02F046FAB6
S315080024F0062103A802F042FAA27CE1A103A804F08F
S31508002500E3FE03A9DFF8140D03F017F9DDA1DFF8E0
S315080025100C0D03F012F9062103A802F02FFA627CCB
S31508002520D7A103A804F0D0FE03A9DFF8F00C03F046
S3150800253004F9D4A1DFF8E40C03F0FFF8062103A898
S3150800254002F01CFA227CCEA103A804F0BDFE03A962
S31508002550DFF8C80C03F0F1F8CAA1DFF8C00C03F0E5
S31508002560ECF8062103A802F009FAE27BC4A103A845
S3150800257004F0AAFE03A9DFF8A40C03F0DEF808218C
S31508002580DFF89C0C02F0FAF9062103A802F0F6F926
S31508002590B4F81320BAA103A804F096FEDAA1DFF86E
S315080025A0800C03F0CAF803A9DFF8740C03F0C5F829
S315080025B0D6A1DFF86C0C03F0C0F801A8009005ABB3
S315080025C000224FF47A71DFF8700D04F031FABDF885
S315080025D00400002840F036824FF48072DFF85C1D54
S315080025E0DFF85C0D03F0A2FE1122DFF8301CDFF8DD
S315080025F0540D03F04DFB0822DFF8241CDFF8480DC4
S3150800260003F046FB0122DFF8001CDFF8400D03F05B
S315080026103FFB0122DFF8F41BDFF8340D03F038FB2B
S315080026200122DFF8EC1BDFF82C0D03F031FB012249
S31508002630DFF8E01BDFF8200D03F02AFB0222DFF8A3
S31508002640D81BDFF8180D03F023FB4FF48072DFF870
S31508002650EC1CDFF8EC0C03F08EFD01AA0021DFF874
S31508002660D80C04F0F3FA3900C9B22800C0B201F058
S31508002670FFF8E7E10521DFF8E80C02F07FF9E07BD7
S31508002680DFF8DC1C0870207CDFF8D41C4870607CFE
S31508002690DFF8CC1C8870A07CDFF8C41CC870E07C0E
S315080026A0DFF8BC1C087101A8009005AB00224FF4A6
S315080026B07A71DFF8840C04F0BBF9BDF80400002831
S315080026C040F0C0814FF48072DFF8701CDFF8700CA0
S315080026D003F02CFE0522DFF8881CDFF8880C03F0CF
S315080026E0D7FA4FF48072DFF8541CDFF8540C03F065
S315080026F042FD01AA0021DFF8400C04F0A7FA3900D0
S31508002700C9B22800C0B201F0B3F89BE114F1190070
S3150800271000F046FD029014F11201029800F0A0F9AB
S31508002720804602987FF07F4188422CD0E07F0028BF
S3150800273012D17FF07F40804508D04146029800F0CC
S31508002740DFFA7FF07F41884200F07C813900C9B208
S315080027502800C0B201F08CF8E07F012813D17FF081
S315080027607F40804509D114F11201029800F0AEF9B4
S315080027707FF07F41884200F065813900C9B22800A0
S31508002780C0B201F075F85DE1E07BAA282AD10222E1
S31508002790DFF864150DF1060003F0C8FD0322DFF823
S315080027A05C1502A803F0C2FD002602E00698029016
S315080027B0761CBDF80600B6B286420DD203220298F0
S315080027C0C11C06A803F0B2FD029800F0D1FD7FF007
S315080027D07F418842EAD135E13900C9B22800C0B242
S315080027E001F046F8E07B552816D114F1100000F0E8
S315080027F0D7FC7FF07F41884208D114F1100000F021
S3150800280011FD7FF07F41884200F01C813900C9B272
S315080028102800C0B201F02CF814E1E07BAA2803D105
S31508002820AA20DFF8441B0870E07BBB2803D1BB2035
S31508002830DFF8341B0870E07BFF2803D1FF20DFF8A0
S31508002840281B087001A8009005AB00224FF47A7186
S31508002850DFF8E40A04F0ECF8BDF80400002840F0BC
S31508002860F1804FF48072DFF8D41ADFF8D40A03F047
S315080028705DFD0122DFF8F01ADFF8F00A04E000BF78
S31508002880256400002E00000003F002FA4FF480725F
S31508002890DFF8A81ADFF8A80A03F06DFC01AA0021E0
S315080028A0DFF8940A04F0D2F93900C9B22800C0B298
S315080028B000F0DEFFC6E0E07BAA2802D1AA20644920
S315080028C00870E07BFF2802D1FF206149087001A843
S315080028D0009005AB00224FF47A71DFF85C0A04F029
S315080028E0A7F8BDF80400002840F0AC804FF48072C9
S315080028F0DFF8481ADFF8480A03F018FD01225449A0
S31508002900DFF8B40D04E000BF2C0000000D00000045
S3150800291003F0BEF94FF48072DFF8201ADFF8200AB8
S3150800292003F029FC01AA0021DFF80C0A04F08EF94D
S315080029303900C9B22800C0B200F09AFF82E0E07BF5
S31508002940AA2802D1AA2045490870E07BFF2802D1AF
S31508002950FF204249087001A8009005AB00224FF4F9
S315080029607A71DFF8D40904F063F8BDF8040000288A
S3150800297068D14FF48072DFF8C419DFF8C40903F090
S31508002980D5FC01223549DFF8340D03F081F94FF4FF
S315080029908072DFF8A819DFF8A80903F0ECFB01AA92
S315080029A00021DFF8940904F051F93900C9B228006A
S315080029B0C0B200F05DFF45E0E07BFF2835D101A8F5
S315080029C0009005AB00224FF47A71DFF86C0904F029
S315080029D02FF8BDF80400002834D14FF48072DFF8D0
S315080029E05C19DFF85C0903F0A1FCFF2018490870A0
S315080029F001221749DFF8C80C03F04AF94FF4807230
S31508002A00DFF83819DFF8380903F0B5FB01AA002109
S31508002A10DFF8240904F01AF93900C9B22800C0B24F
S31508002A2000F026FF0020002108700BE0E07BFF285D
S31508002A3008D13900C9B22800C0B200F019FF002039
S31508002A400021087008B0BDE8F0810000C44A0020E3
S31508002A50004D0020504C00208800002092000020E5
S31508002A6030B585B005000C00002000900020ADF8B8
S31508002A700400022215F1120101A803F057FC0322F3
S31508002A8015F10C0100A803F051FC002506E003220D
S31508002A900098C11C00A803F049FC6D1CBDF8040091
S31508002AA0ADB285420ED207220098811D02A803F016
S31508002AB03DFC072202A9200001F093FF0128E6D178
S31508002AC0009801E07FF07F4005B030BD30B587B093
S31508002AD004000D0000200490002002900020ADF8AC
S31508002AE004000020ADF8060000200590022214F12B
S31508002AF0120101A803F01AFC0222DFF8701D0DF17D
S31508002B00060003F013FC032214F10F0104A803F0D6
S31508002B100DFCBDF80400401CADF80400BDF8060025
S31508002B20401CADF8060003F06CFD029002987FF099
S31508002B307F41884202D17FF07F40DAE0072202987F
S31508002B40811D280003F0E9FA0122029810F10D010F
S31508002B50E81E03F0E2FA0422029810F10E0105A815
S31508002B6003F0DBFA0222029810F1160105A803F019
S31508002B70D4FA03A8009006AB00224FF47A71DFF866
S31508002B80B80703F055FFBDF80C00002802D07FF007
S31508002B907F40AEE004987FF07F41884246D14FF4EB
S31508002BA08052200B4FF4805101FB00F1DFF89007AB
S31508002BB003F0BCFB032202A94FF48050B4FBF0F3E8
S31508002BC003FB1043DFF8780718180C3003F060F899
S31508002BD0032202A94FF48050B4FBF0F303FB104321
S31508002BE0DFF85C0718180F3003F052F8022201A923
S31508002BF04FF48050B4FBF0F303FB1043DFF84007B3
S31508002C001818123003F044F8200B4FF4805148434B
S31508002C1003F04AFA4FF48052200B4FF4805101FB1F
S31508002C2000F1DFF81C0703F0D7FA44E04FF48052AE
S31508002C30200B4FF4805101FB00F1DFF8040703F085
S31508002C4075FB032202A94FF48050B4FBF0F303FB93
S31508002C501043DFF8EC0618180F3003F019F80222B3
S31508002C6001A94FF48050B4FBF0F303FB1043DFF8DF
S31508002C70D0061818123003F00BF8200B4FF48051C9
S31508002C80484303F011FA4FF48052200B4FF4805159
S31508002C9001FB00F1DFF8A80603F09EFA0322049868
S31508002CA0C11C02A803F039FA0322029810F1120196
S31508002CB004A803F032FA4FF48072DFF88016DFF8C2
S31508002CC0800603F033FB02220DF10601DFF84C0CF7
S31508002CD002F0DEFF4FF48072DFF86016DFF8600658
S31508002CE003F049FA03AA0021DFF84C0603F0AEFF09
S31508002CF0029807B030BD0000A3F01F00A0F01F0027
S31508002D0070B586B004000D000020039000200290E4
S31508002D100020ADF804000020ADF80600022214F1E8
S31508002D20120101A803F002FB0222DFF8401B0DF195
S31508002D30060003F0FBFA0322E91C03A803F0F6FADF
S31508002D40032215F1120102A803F0F0FABDF80400F7
S31508002D50401EADF80400BDF80600401EADF806009A
S31508002D60280003F0E5FC04A8009005AB00224FF408
S31508002D707A71DFF8C40503F05BFEBDF81000002881
S31508002D8002D07FF07F4009E2BDF8040000285DD13B
S31508002D904FF48052200B4FF4805101FB00F1DFF80D
S31508002DA0A00503F0C3FA032203A94FF48050B4FB2D
S31508002DB0F0F303FB1043DFF8880518180C3002F00F
S31508002DC067FF022201A94FF48050B4FBF0F303FB1E
S31508002DD01043DFF86C051818123002F059FF032269
S31508002DE002A94FF48050B4FBF0F303FB1043DFF85D
S31508002DF0500518180F3002F04BFF200B4FF4805186
S31508002E00484303F051F94FF48052200B4FF4805198
S31508002E1001FB00F1DFF8280503F0DEF94FF48072B4
S31508002E20DFF81815DFF8180503F080FA02220DF10D
S31508002E300601DFF8E80A02F02BFF4FF48072DFF88C
S31508002E40FC14DFF8FC0403F096F9A1E102987FF080
S31508002E507F41884205D003987FF07F41884240F041
S31508002E60FC8002987FF07F4188427CD14FF48052E3
S31508002E700398000B4FF4805101FB00F1DFF8C00402
S31508002E8003F054FA032202A903984FF48053B0FBC7
S31508002E90F3F606FB1306DFF8A8043018123002F022
S31508002EA0F7FE0398000B4FF48051484303F0FCF8F3
S31508002EB04FF480520398000B4FF4805101FB00F148
S31508002EC0DFF87C0403F088F94FF48052200B4FF4A6
S31508002ED0805101FB00F1DFF8680403F027FA0322AA
S31508002EE003A94FF48050B4FBF0F303FB1043DFF85B
S31508002EF0500418180C3002F0CBFE022201A94FF438
S31508002F008050B4FBF0F303FB1043DFF834041818C1
S31508002F10123002F0BDFE200B4FF48051484303F0F7
S31508002F20C3F84FF48052200B4FF4805101FB00F197
S31508002F30DFF80C0403F050F94FF48072DFF8FC1345
S31508002F40DFF8FC0303F0F2F902220DF10601DFF8BF
S31508002F50CC0902F09DFE4FF48072DFF8E013DFF82B
S31508002F60E00303F008F903987FF07F41884240F0B8
S31508002F700F814FF480520298000B4FF4805101FBE9
S31508002F8000F1DFF8BC0303F0D1F9032203A9029884
S31508002F904FF48053B0FBF3F606FB1306E8483018E7
S31508002FA0C01C02F075FE0298000B4FF4805148438E
S31508002FB003F07AF84FF480520298000B4FF48051D0
S31508002FC001FB00F1DE4803F007F94FF48052200BAD
S31508002FD04FF4805101FB00F1D94803F0A7F9032209
S31508002FE002A94FF48050B4FBF0F303FB1043D44816
S31508002FF018180F3002F04CFE022201A94FF4805037
S31508003000B4FBF0F303FB1043CD481818123002F056
S315080030103FFE200B4FF48051484303F045F84FF428
S315080030208052200B4FF4805101FB00F1C44803F095
S31508003030D3F84FF48072C149C14803F077F90222E8
S315080030400DF10601DFF8D40802F022FE4FF4807273
S31508003050BA49BB4803F08FF89AE04FF480520298B9
S31508003060000B4FF4805101FB00F1DFF8AC0803F0C8
S315080030705DF9032203A902984FF48053B0FBF3F6D7
S3150800308006FB1306DFF890083018C01C02F000FE95
S315080030900298000B4FF48051484303F005F84FF4AB
S315080030A080520298000B4FF4805101FB00F1DFF8C3
S315080030B0680803F091F84FF480520398000B4FF418
S315080030C0805101FB00F1DFF8500803F02FF90322C5
S315080030D002A903984FF48053B0FBF3F606FB1306D8
S315080030E0DFF834083018123002F0D2FD0398000BCE
S315080030F04FF48051484302F0D7FF4FF480520398AB
S31508003100000B4FF4805101FB00F1DFF80C0803F0C7
S3150800311063F84FF48052200B4FF4805101FB00F105
S31508003120DFF8F40703F002F9022201A94FF48050F0
S31508003130B4FBF0F303FB1043DFF8DC071818123072
S3150800314002F0A6FD200B4FF48051484302F0ACFF75
S315080031504FF48052200B4FF4805101FB00F1DFF849
S31508003160B80703F039F84FF480727449DFF8A807F6
S3150800317003F0DCF802220DF10601DFF8A00702F0E1
S3150800318087FD4FF480726D49DFF88C0702F0F3FF74
S3150800319004AA0021684803F059FD280006B070BD4E
S315080031A030B585B00400002000900222DFF8C4186C
S315080031B001A803F0BBF80322DFF8BC1800A803F047
S315080031C0B5F8002506E003220098C11C00A803F004
S315080031D0ADF86D1CBDF80400ADB285420ED20622CC
S315080031E00098811D02A803F0A1F8062202A9200072
S315080031F001F0F7FB0128E6D1009801E07FF07F4057
S3150800320005B030BDE84A0020940000209500002053
S315080032109600002097000020900000205000002013
S315080032207400002010B586B0040000200490002029
S3150800323002900020ADF804000020ADF80C00022230
S31508003240DFF8301801A803F071F80322DFF82C180C
S3150800325004A803F06BF8BDF80400401CADF80400A0
S3150800326003F0CFF9029006220298811D200002F091
S3150800327054FF0222029810F1120103A802F04DFF32
S315080032800DF10600009005AB00224FF47A712A482A
S3150800329003F0CEFBBDF80600002802D07FF07F4081
S315080032A047E04FF48072DFF87816DFF86C0603F013
S315080032B03DF804987FF07F41884212D1032202A983
S315080032C0DFF8D40C02F0E4FC022201A9DFF8CC0CEA
S315080032D002F0DEFC032202A9DFF8C40C02F0D8FCD7
S315080032E018E0022201A9DFF8B40C02F0D1FC03228F
S315080032F002A9DFF8AC0C02F0CBFC03220498C11C2F
S3150800330002A802F00AFF0322029810F1140104A889
S3150800331002F003FF4FF48072DFF80416DFF8F805B1
S3150800332002F029FF0DF106020021034803F08EFC86
S31508003330029806B010BD0000304B002000F01F00B8
S3150800334098000020E800002008010020070100205E
S3150800335006010020050100200401002016010020B6
S315080033607C0000201801002093000020580100204E
S3150800337030B589B004000020ADF810000020059093
S315080033800020069000200390002002900020ADF84F
S3150800339004000025022214F1120104A802F0C6FF57
S315080033A0032214F10C0105A802F0C0FF0322E11C58
S315080033B003A802F0BBFF032214F1140102A802F0CD
S315080033C0B5FF0222DFF8AC1601A802F0AFFFBDF880
S315080033D00400401EADF804000020050002E006982F
S315080033E005906D1CBDF81000ADB285420ED20322C1
S315080033F00598C11C06A802F099FF05992000FFF759
S315080034007FFC7FF07F418842E9D1EAE7200003F09C
S315080034108FF90DF10600009007AB00224FF47A7180
S31508003420DFF8340D03F004FBBDF80600002802D0CF
S315080034307FF07F403EE1BDF80400002822D14FF41A
S315080034408072DFF8DC14DFF8D00402F06FFF032285
S3150800345003A9DFF8440B02F01BFC022201A9DFF8DE
S315080034603C0B02F015FC032202A9DFF8340B02F02C
S315080034700FFC4FF48072DFF8A814DFF89C0402F002
S315080034807AFE0FE102987FF07F41884205D00398C3
S315080034907FF07F41884240F09D8002987FF07F410F
S315080034A0884249D14FF480520398000B4FF480515B
S315080034B001FB00F1DFF8600402F038FF032202A9DD
S315080034C003984FF48053B0FBF3F505FB1305DFF8BB
S315080034D048042818143002F0DBFB0398000B4FF45D
S315080034E08051484302F0E0FD4FF480520398000BE8
S315080034F04FF4805101FB00F1DFF81C0402F06CFE6A
S315080035004FF48072DFF81814DFF80C0402F00EFF8F
S31508003510032203A9DFF8800A02F0BAFB022201A9F6
S31508003520DFF8780A02F0B4FB4FF48072DFF8F01384
S31508003530DFF8E40302F01FFE03987FF07F4188421C
S3150800354040F0B0804FF480520298000B4FF480513F
S3150800355001FB00F1DFF8C00302F0E8FE032203A92D
S3150800356002984FF48053B0FBF3F505FB1305DFF81B
S31508003570A8032818C01C02F08BFB0298000B4FF416
S315080035808051484302F090FD4FF480520298000B98
S315080035904FF4805101FB00F1DF4802F01DFE4FF4A5
S315080035A08072DFF87C13DC4802F0C0FE022201A913
S315080035B0DFF8E80902F06CFB032202A9DFF8E0094C
S315080035C002F066FB4FF48072DFF85413D24802F01B
S315080035D0D2FD67E04FF480520298000B4FF48051F9
S315080035E001FB00F1CC4802F0A1FE032203A90298D0
S315080035F04FF48053B0FBF3F505FB1305C6482818AE
S31508003600C01C02F045FB0298000B4FF4805148435A
S3150800361002F04AFD4FF480520298000B4FF4805195
S3150800362001FB00F1BC4802F0D7FD4FF48052039825
S31508003630000B4FF4805101FB00F1B74802F076FE0B
S31508003640032202A903984FF48053B0FBF3F505FB58
S315080036501305B1482818143002F01AFB0398000B1A
S315080036604FF48051484302F01FFD4FF480520398EF
S31508003670000B4FF4805101FB00F1A74802F0ACFDA6
S315080036804FF48072A649A44802F050FE022201A90E
S31508003690DFF8080902F0FCFA4FF48072A0499E4848
S315080036A002F069FD0DF106020021DFF8AC0A03F00D
S315080036B0CDFA200009B030BD590100205A0100207A
S315080036C05001002080B50A00417B11F00F01837B71
S315080036D0022B0CD0032B10D0062B14D0072B1BD093
S315080036E00C2B1FD00E2B23D0112B27D02BE0C9B2C1
S315080036F01000C0B200F0B6FC25E0C9B21000C0B296
S3150800370000F050FC1FE00B00DBB2D2B210F1100142
S31508003710C07B00F0B5F916E0C9B21000C0B200F0DF
S3150800372001F910E0C9B21000C0B200F017FD0AE0B6
S31508003730C9B21000C0B200F075FD04E0C9B21000AD
S31508003740C0B200F0D3FD01BD30B587B00024002516
S3150800375018E04FF48071DFF8C80C02F032FC00AABA
S3150800376000214FF47A7001F097FB4FF48071DFF86F
S31508003770B00C02F029FC00AA00214FF47A7001F07F
S315080037808BFB0024DFF89C0C00780028E1D04FF46E
S315080037908071DFF88C0C02F014FC00AA00214FF4AB
S315080037A0967001F079FB4FF48071DFF8740C02F023
S315080037B00BFC00AA00214FF4967001F06DFBDFF8B0
S315080037C0680C00780028DDD0641CE4B20F2CD9DB25
S315080037D0002401AD682028706D1C272028706D1CF8
S315080037E0002028706D1C272028706D1C002028706A
S315080037F06D1C682028706D1CCA2028706D1CDFF8A7
S315080038002C0C007828706D1CDFF8200C4078287086
S315080038106D1CDFF8180C807828706D1CDFF80C0C0E
S31508003820C07828706D1CDFF8040C007928706D1CB0
S315080038300F2028706D1CDFF8F80B007850F0600038
S3150800384028706D1CDFF8EC0B007828706D1C0921B8
S315080038500DF10A00FCF7FAFD28706D1C1620287079
S315080038606D1C112101A801F06FFE8BE7B3F01F0054
S3150800387030B585B0040000AD682028706D1C27207F
S3150800388028706D1C002028706D1C272028706D1C60
S31508003890002028706D1C682028706D1C80202870F8
S315080038A06D1CDFF8880B007828706D1CDFF87C0B20
S315080038B0407828706D1CDFF8740B807828706D1CB2
S315080038C0DFF8680BC07828706D1CDFF8600B00798C
S315080038D028706D1C002028706D1C51F0600028703F
S315080038E06D1C012028706D1C09210DF10600FCF7DE
S315080038F0ADFD28706D1C162028706D1CE4B2002CD6
S3150800390004D0112100A801F01FFE03E0112100A830
S3150800391001F0D4F905B030BD980000204B01002015
S3150800392000F01F00F0B585B004000F000DF102018C
S31508003930DFF8040B00F0CAFF0600002E00F098809E
S31508003940350003224C4901A802F0F0FC022249493D
S3150800395000A802F0EBFC68203070761CBDF8000069
S31508003960062148430930800050F003003080B61C19
S31508003970BDF80000062148430930800050F00300D6
S315080039803080B61C68203070761C88203070761C13
S31508003990DFF8980A00783070761CDFF8900A4078CD
S315080039A03070761CDFF8840A80783070761CDFF871
S315080039B07C0AC0783070761CDFF8700A007930709F
S315080039C0761C0A203070761C57F060003070761C22
S315080039D007203070761C00270FE0C0B202A9415CB0
S315080039E03170761C401CC0B20628F6DB032201980B
S315080039F0C11C01A802F09AFC7F1CBDF80000BFB2EA
S31508003A00874207D206220198811D02A802F08EFC81
S31508003A100020E8E7BDF800000621484310F1090137
S31508003A2089B2A81DFCF712FD3070761C162030707E
S31508003A30761CE4B2002C0AD0BDF8000006214843E3
S31508003A4010F1110189B2280001F07EFD09E0BDF8E8
S31508003A5000000621484310F1110189B2280001F03F
S31508003A602DF90DF102022900DFF8CC0900F051FF0B
S31508003A7005B0F0BDA3F01F00A0F01F00A5F01F00C1
S31508003A802DE9FF4F8BB05FF0000A5FF000080025B4
S31508003A9000265FF0000B5FF000090020ADF800007B
S31508003AA000270222DFF894190DF10A0002F03EFC05
S31508003AB00222DFF88C1904A802F038FC0322DFF88A
S31508003AC0841903A802F032FCBDF80A00002800F0A9
S31508003AD0608206A9DFF8600900F0F8FE0400002CF1
S31508003AE000F0578205940722DFF85C190C9800F05D
S31508003AF078FF012840F07681BDF810000A2190FB76
S31508003B00F1F0BDF810100A2291FBF2F302FB131133
S31508003B108DF802105FF00008ADF808009DF8020065
S31508003B20002804D0BDF80800401CADF808000025A0
S31508003B3006E003220398C11C03A802F0F7FB6D1CDC
S31508003B40BDF80A00ADB2854280F01D8206220398B0
S31508003B50811D09A802F0EAFB0322039810F10C0163
S31508003B6001A802F0E3FB0222039810F112010DF1FD
S31508003B70120002F0DBFB002616E0BDF8000011215A
S31508003B80484310F1120189B2059801F097F806AA80
S31508003B900021642001F080F9059C03220198C11CCC
S31508003BA001A802F0C3FB761CBDF81200B6B2864225
S31508003BB0BFD207220198811D07A802F0B7FB012290
S31508003BC0019810F10D010DF1030002F0AFFB01227F
S31508003BD0019810F115010DF11A0002F0A7FBFFB2CA
S31508003BE0002F40F0A880012718F1010868202070EE
S31508003BF0641CBDF8080001280CD1BDF81090ADF87A
S31508003C000090BDF80000112148430A30800050F0AA
S31508003C10030A39E01FFA88F8B8F1010F0CD15FF0F2
S31508003C200A09ADF80090BDF80000112148430A3092
S31508003C30800050F0030A27E0BDF808001FFA88F84C
S31508003C40804515D19DF80200002804D15FF00A09C5
S31508003C50ADF8009003E09DF80290ADF80090BDF82D
S31508003C600000112148430A30800050F0030A0BE097
S31508003C705FF00A09ADF80090BDF80000112148432D
S31508003C800A30800050F0030AA4F800A0A41CA4F887
S31508003C9000A0A41C68202070641C88202070641C66
S31508003CA0DFF8880700782070641CDFF88007407802
S31508003CB02070641CDFF8740780782070641CDFF8B5
S31508003CC06C07C0782070641CDFF8600700792070E4
S31508003CD0641C0A202070641CBDF80800012806D15F
S31508003CE09DF8380050F060002070641C1CE01FFA34
S31508003CF088F8B8F1010F06D19DF8380050F0400059
S31508003D002070641C10E0BDF808001FFA88F880458A
S31508003D1006D19DF8380050F020002070641C03E09E
S31508003D209DF838002070641C06202070641C9DF8DD
S31508003D302C002070641C00202070641C0020207059
S31508003D40641C5FF0000B08E05FFA8BFB07A81BF802
S31508003D5000002070641C1BF1010B5FFA8BFBBBF1A2
S31508003D60070FF1DB5FF0000B08E05FFA8BFB09A891
S31508003D701BF800002070641C1BF1010B5FFA8BFB1B
S31508003D80BBF1060FF1DB00202070641C01202070B7
S31508003D90641CB9F101091FFA89F9B9F1000F7FF41A
S31508003DA0FCAE0027BDF800001121484310F10A01B6
S31508003DB089B20598801DFCF749FB2070641C162003
S31508003DC02070641C9DF8340000283FF4D6AEBDF878
S31508003DD000001121484310F1120189B2059801F03B
S31508003DE0B3FBD4E6002531E003220198C11C01A8E3
S31508003DF002F09CFA761CBDF81200B6B2864224D2AE
S31508003E0007220198811D07A802F090FA012201985D
S31508003E1010F10D010DF1030002F088FA072207A937
S31508003E200C9800F0DEFD0128DED19DF803009DF810
S31508003E302C108842D8D10122019810F115010DF1F4
S31508003E401A0002F073FA5FF001086D1C5FFA88F831
S31508003E50B8F1000F1BD1BDF80A00ADB2854216D2E3
S31508003E6006220398811D09A802F060FA0322039826
S31508003E7010F10C0101A802F059FA0222039810F178
S31508003E8012010DF1120002F051FA0026B3E75FFAAB
S31508003E9088F8B8F1000F76D068202070641C6F206F
S31508003EA02070641C00202070641C6F202070641C25
S31508003EB000202070641C68202070641C88202070F4
S31508003EC0641CDFF8680500782070641CDFF85C0560
S31508003ED040782070641CDFF8540580782070641CD4
S31508003EE0DFF84805C0782070641CDFF840050079C3
S31508003EF02070641C0A202070641C9DF8380050F05D
S31508003F0060002070641C06202070641C9DF82C003C
S31508003F102070641C00202070641C00202070641C23
S31508003F20002505E0ADB207A8285C2070641C6D1C4E
S31508003F30ADB2072DF6DB002505E0ADB209A8285C71
S31508003F402070641C6D1CADB2062DF6DB00202070B7
S31508003F50641C01202070641C1B210598801DFCF739
S31508003F6075FA2070641C16202070641C9DF83400B5
S31508003F70002804D02321059801F0E6FA03E023215E
S31508003F80059800F09BFE06AA0599DFF8AC0400F038
S31508003F90C0FC0FB0BDE8F08F380100203B010020BF
S31508003FA03D010020F8B504000D0000A9DFF88804DB
S31508003FB000F08CFC0700002F53D03E0068203870B4
S31508003FC07F1C272038707F1C002038707F1C272014
S31508003FD038707F1C002038707F1C682038707F1C62
S31508003FE0882038707F1CDFF84404007838707F1CFE
S31508003FF0DFF83804407838707F1CDFF830048078A2
S3150800400038707F1CDFF82404C07838707F1CDFF80E
S315080040101C04007938707F1C0A2038707F1C55F004
S31508004020600038707F1C032038707F1C0921B01D82
S31508004030FCF70CFA38707F1C162038707F1CE4B227
S31508004040002C04D01121300001F07EFA03E0112182
S31508004050300000F033FE00AA3100DFF8DC0300F080
S3150800406058FCF1BD2DE9F04182B004000D0000278F
S3150800407000265FF0000800A9DFF8BC0300F026FC64
S315080040800700002F65D03E00682038707F1C3F204F
S3150800409038707F1C002038707F1C3F2038707F1CCA
S315080040A0002038707F1C682038707F1C8820387084
S315080040B07F1CDE48007838707F1CDC4840783870F2
S315080040C07F1CDA48807838707F1CD848C0783870EA
S315080040D07F1CD648007938707F1C0A2038707F1CF0
S315080040E055F0600038707F1C022038707F1CD74856
S315080040F0007838707F1CD648007838707F1CD54801
S31508004100007838707F1CD448007838707F1CB84611
S31508004110D2480088A8F8000018F1020847460F217F
S31508004120B01DFCF793F938707F1C162038707F1C79
S31508004130E4B2002C04D01721300001F005FA03E0A0
S315080041401721300000F0BAFD00AA3100BA4800F085
S31508004150E0FBBDE8F3810000304B00202DE9F0417B
S3150800416082B004000D00002700265FF0000800A9B1
S31508004170B14800F0ABFB0700002F51D03E00682085
S3150800418038707F1C2B2038707F1C002038707F1CED
S315080041902B2038707F1C002038707F1C68203870F0
S315080041A07F1C882038707F1CA048007838707F1CD8
S315080041B09E48407838707F1C9C48807838707F1CF1
S315080041C09A48C07838707F1C9848007938707F1CE8
S315080041D00A2038707F1C55F0600038707F1C0C2050
S315080041E038707F1C9E48007838707F1C0A21B01DE5
S315080041F0FCF72CF938707F1C162038707F1CE4B247
S31508004200002C04D01221300001F09EF903E012219F
S31508004210300000F053FD00AA3100874800F079FB12
S31508004220BDE8F3812DE9F04182B004000D000027B6
S3150800423000265FF0000800A97F4800F047FB07004A
S31508004240002F51D03E00682038707F1C2B20387014
S315080042507F1C002038707F1C2B2038707F1C0020A4
S3150800426038707F1C682038707F1C882038707F1C47
S315080042706E48007838707F1C6C48407838707F1C10
S315080042806A48807838707F1C6848C07838707F1C08
S315080042906648007938707F1C0A2038707F1C55F0F4
S315080042A0600038707F1C0E2038707F1C6D480078BF
S315080042B038707F1C0A21B01DFCF7C8F838707F1CBF
S315080042C0162038707F1CE4B2002C04D0122130006E
S315080042D001F03AF903E01221300000F0EFFC00AAE1
S315080042E03100554800F015FBBDE8F3812DE9F04192
S315080042F082B004000D00002700265FF0000800A920
S315080043004D4800F0E3FA0700002F51D03E00682020
S3150800431038707F1C2B2038707F1C002038707F1C5B
S315080043202B2038707F1C002038707F1C682038705E
S315080043307F1C882038707F1C3C48007838707F1CAA
S315080043403A48407838707F1C3848807838707F1C27
S315080043503648C07838707F1C3448007938707F1C1E
S315080043600A2038707F1C55F0600038707F1C1120B9
S3150800437038707F1C3C48007838707F1C0A21B01DB5
S31508004380FCF764F838707F1C162038707F1CE4B27E
S31508004390002C04D01221300001F0D6F803E01221D7
S315080043A0300000F08BFC00AA3100234800F0B1FA77
S315080043B0BDE8F38100B585B002A8019003A8009076
S315080043C04FF4847300220121284802F0CAFF02AA8A
S315080043D000214FF4FA7000F05FFD4FF400512448B5
S315080043E001F0E4FD0028E7D14FF48041204801F0B0
S315080043F0E8FD01211F4801F0E7FD8021084801F08A
S31508004400E0FD02AA0021642000F046FD8021044850
S3150800441001F0DAFD02AA0021642000F03DFDECE778
S31508004420000C0140FF4C00200E4D00207C000020AF
S315080044300B4D00200F4D0020504C0020A3F01F000C
S31508004440B3F01F00A0F01F00D4C00008970000209A
S31508004450960000209500002094000020900000207F
S3150800446093000020004D002092000020344C0020CC
S3150800447000100140000801402DE9F04106000F0038
S3150800448090461C000025DFF8BC020078002803D0FF
S3150800449042F6E16020802BE0002E03D145F6C3509A
S315080044A0208025E01FFA88F8B8F1000F03D146F2FC
S315080044B0945020801CE001F0FFFC0500DFF888021C
S315080044C030607760414689B216F1140003F0D5FAD8
S315080044D016F1080003F0F2FDDFF870020088401CB0
S315080044E0DFF868120880280001F0EAFC0020208026
S315080044F0BDE8F0812DE9F04F89B004000D001600E3
S315080045001F005FF00008DDF84C908E480078002800
S3150800451005D046F2AE10A9F800000020C6E0002C2F
S3150800452005D145F6C350A9F800000020BEE0002FCB
S3150800453005D146F2D520A9F800000020B6E0B6B2AB
S315080045403000002802D0B0F5004F1FD120687E4900
S31508004550884221D1DDF848A0BAF1000F02D0002028
S31508004560CAF8000001F0A8FC80464B4652463900BE
S3150800457014F1140003F08BFA8346B9F800000028FA
S3150800458010D1404601F09CFC58468FE045F6256060
S31508004590A9F80000002089E045F6C450A9F80000F3
S315080045A0002083E0300408D5404601F089FC46F235
S315080045B0B010A9F80000002078E0654800780028C7
S315080045C008D0404601F07CFC46F66350A9F8000086
S315080045D000206BE02B000522210000A803F00AFD4D
S315080045E0404601F06DFC03F0EDFB01F065FC8046EA
S315080045F05848006890F83500002805D0022838D0B9
S3150800460017D3032826D045E052480068D0F85CB096
S3150800461050480068B0F860003880BAF1000F04D03E
S315080046204C480068006CCAF800000020A9F8000091
S3150800463038E05FF0000B00203880BAF1000F04D094
S3150800464044480068006CCAF8000046F2A910A9F8A8
S31508004650000027E05FF0000B00203880BAF1000F59
S3150800466002D00020CAF8000047F2D920A9F80000B5
S3150800467018E05FF0000B00203880BAF1000F04D074
S3150800468034480068006CCAF8000045F6C250A9F81C
S31508004690000007E05FF0000B0020388046F62E6029
S315080046A0A9F80000404601F00BFC584609B0BDE8E1
S315080046B0F08F2DE9FC4105000E0017009846089C6E
S315080046C0002D03D145F6C35020802AE01FFA88F84A
S315080046D04046002815D0102813D0B0F5007F10D01A
S315080046E0B0F5047F0DD0B0F5004F0AD048F210019E
S315080046F0884206D0B0F5024F03D048F2102188420E
S3150800470011D128681049884211D103F028FF019475
S31508004710009043469BB23A0092B23100280000F05E
S315080047201BF8BDE8F38145F625602080F9E745F6D4
S31508004730C4502080F5E70021044A11800021018039
S3150800474070470000014D002051554555F64C002094
S31508004750064D0020D84C00202DE9F04F83B0040008
S315080047600D0016001F005FF0000A01F0A5FB824647
S3150800477014F10800DDF83080DDF83490018900294D
S3150800478014D1F80601D4002300E01023CDF80490D4
S31508004790CDF800809BB2320092B2290014F11400C1
S315080047A003F0ADF9504601F08BFB25E0B90502D5BB
S315080047B0B0F808B001E05FF0010B00680DE0816811
S315080047C040680190CDF8008033009BB22A00200093
S315080047D003F0EAFC0198BBF1010B1FFA8BFBBBF156
S315080047E0000FECD1504601F06BFB380401D403F0FE
S315080047F0E9FA0020A9F80000BDE8F78F2DE9F8438B
S3150800480005000E00170098460020DDF82490584948
S315080048100978002904D045F2B960A9F8000053E0E8
S31508004820002F04D145F2BB60A9F800004CE01FFA3E
S3150800483088F8B8F1020F04DA45F2BC60A9F800005E
S3150800484042E0089CA4B2042C04D245F2C160A9F83F
S31508004850000039E0032000280FD0074204D045F2B3
S31508004860BB60A9F800002FE0210089B2014204D0FC
S3150800487045F2C160A9F8000026E03B003A00B8F10D
S315080048800101002004E0A4B2A2181A601300401C1B
S3150800489080B289B28842F6D30020186001F00CFB7A
S315080048A034492960AE606F60EF60A5F81480A5F8FA
S315080048B012802C8230490988491C2F4A118001F040
S315080048C0FFFA0020A9F80000BDE8F18370B50500DD
S315080048D00C000020002D04D145F2BF602080002086
S315080048E016E001F0E9FAA98A002906D101F0E8FAEA
S315080048F045F2C260208000200AE0EE683168E9606F
S31508004900A98A491EA98201F0DBFA0020208030001E
S3150800491070BD70B505000E0014000020002D03D1EF
S3150800492045F2BF6020801BE0002E03D145F2BE6031
S31508004930208015E001F0C0FAA98A6A8A914205D357
S3150800494001F0BEFA45F2BA60208009E0E9683160F4
S31508004950EE60A98A491CA98201F0B2FA00202080DB
S3150800496070BD0021044A11800021018070470000B3
S31508004970014D00204D454D20F24C002080B50A001F
S31508004980002100F001F801BD30B4002A27D0002824
S3150800499025D00023002403E01B02C9B20B43641C84
S315080049A0042CF9D30425B0FBF5F404FB1504E4B292
S315080049B0002C08D003E00170401C521E641C002A1B
S315080049C001D0042CF7D302E00360001D121F042A4D
S315080049D0FAD202E00170401C521E002AFAD130BCFD
S315080049E0704770B41300002B01D1012052E0002853
S315080049F001D100204EE0002901D100204AE0012221
S31508004A00181859180425B0FBF5F404FB1504E4B28C
S31508004A100426B1FBF6F505FB1615EDB2AC4201D13D
S31508004A20012500E00025EDB2012D2CD1002C10D077
S31508004A3008E0401E491E05780E78B54200D00022CF
S31508004A405B1E641ED2B2012A03D1002B01D0002CB2
S31508004A50EFD1D2B2012A16D107E0001F091F046858
S31508004A600D68AC4200D000221B1FD2B2012A01D128
S31508004A70042BF2D207E0401E491E04780D78AC429A
S31508004A8000D000225B1ED2B2012A01D1002BF2D13E
S31508004A901000C0B270BC704780B52021DFF8C00393
S31508004AA003F007FE00281CD0DFF8B40303F0FDFD71
S31508004AB0DFF8B0130968002913D0DFF8AC130968CA
S31508004AC0DFF8A0231268891AFF290ADADFF8981393
S31508004AD009680870DFF890030068401CDFF888133F
S31508004AE008604021DFF8780303F0E3FD002810D0C2
S31508004AF040F22661DFF8680303F0E8FD00AA00210A
S31508004B00DFF8680301F01FF8BDF80000002800D0A0
S31508004B1000BF01BD1CB52021DFF8540303F0C9FD11
S31508004B20002816D0D24803F0C0FD040001A9D148D8
S31508004B30FFF7CCFE0100BDF80400002808D10C7070
S31508004B4001A8009000230122CB48FFF7B2FD00E040
S31508004B5000BF4021C64803F0ACFD00280ED040F245
S31508004B602661C34803F0B2FD01AA0021C34800F03C
S31508004B70EAFFBDF80400002800D000BF13BD0000FE
S31508004B801CB52021BE4803F094FD002816D0BC4869
S31508004B9003F08BFD040001A9B648FFF797FE010054
S31508004BA0BDF80400002808D10C7001A80090002365
S31508004BB00122B148FFF77DFD00E000BF4021B04863
S31508004BC003F077FD00280ED040F22661AC4803F0CA
S31508004BD07DFD01AA0021AB4800F0B5FFBDF8040031
S31508004BE0002800D000BF13BD70B584B004000D00C6
S31508004BF0A5480078AA282BD1012240F22661A048B0
S31508004C0003F026FD002612E00020ADF8040001A8F6
S31508004C10009002AB00224FF4FA719A4800F0D9FED0
S31508004C20B6B2315D89B2964803F03BFD761CB6B242
S31508004C30ADB2AE42E8D3002240F22661904803F0B6
S31508004C4007FD40218E4803F034FD002833D1F8E7EC
S31508004C5004218E4801F0B5F9012240F22661844804
S31508004C6003F0F6FC002612E00020ADF8040001A8C7
S31508004C70009002AB00224FF4FA71804800F0A9FEBA
S31508004C80B6B2315D89B27A4803F00BFD761CB6B22E
S31508004C90ADB2AE42E8D3002240F22661744803F072
S31508004CA0D7FC4021724803F004FD0028F9D00421FE
S31508004CB0764801F089F9012004B070BD70B584B05A
S31508004CC004000D000421714801F07BF9012240F22D
S31508004CD02661674803F0BCFC002612E00020ADF808
S31508004CE0040001A8009002AB00224FF4FA71634851
S31508004CF000F06FFEB6B2315D89B25D4803F0D1FCB3
S31508004D00761CB6B2ADB2AE42E8D3002240F22661B6
S31508004D10574803F09DFC4021554803F0CAFC00287B
S31508004D20F9D00421594801F04FF9012004B070BDAB
S31508004D3070B584B004000D00012240F2266148488F
S31508004D4003F086FC002606E0B6B2315D89B2444817
S31508004D5003F0A7FC761CB6B2ADB2AE420DD201A8DE
S31508004D60009002AB00223221404800F032FEBDF826
S31508004D7004000028E8D0002006E0002240F2266160
S31508004D80374803F065FC012004B070BD10B584B047
S31508004D900400012240F22661314803F059FC40F232
S31508004DA026612F4803F092FC05E0217889B22C4849
S31508004DB003F077FC641C207800280DD001A8009029
S31508004DC002AB00223221294800F003FEBDF8040098
S31508004DD00028EAD0002006E0002240F2266120489A
S31508004DE003F036FC012004B010BD38B504000025D8
S31508004DF001F062F805001C4804601A48046028009F
S31508004E0001F05EF8012032BD80B50021C0B200284D
S31508004E1009D001F051F8010001201D4A1070080060
S31508004E2001F04EF808E001F047F801000020184AA2
S31508004E301070080001F044F8012002BD80B54FF457
S31508004E40005003F099FC002809D000AB002201218C
S31508004E50104802F08CFC4FF4005003F09FFC01BD93
S31508004E6000380140EC4C0020E84C0020704B002034
S31508004E7000480040684C00207C4A00208C4B0020EB
S31508004E8000440040A84B002093000020000C01407D
S31508004E90FF4C0020344C0020F8B505000E00140025
S31508004EA00027DFF8E0000078002803D047F27520D5
S31508004EB0208040E0DFF8D0000078002803D046F6CE
S31508004EC06350208037E0B6B23000002805D00228AB
S31508004ED003D004281FD008281ED1002D03D147F27D
S31508004EE07E20208027E000F0E7FF07000120DFF89A
S31508004EF09C10096881F836002300320092B2290016
S31508004F002248006803F0D0FC2088002808D0380022
S31508004F1000F0D6FF0FE0E6E745F6256020800AE0B8
S31508004F201A48006803F02AFA380000F0C9FF02F0B0
S31508004F3049FF00202080F1BD10B582B003F0E1FEE4
S31508004F4000AA0021124804F045F904001148007827
S31508004F500C21114A01FB002003F03EFA0F480068B5
S31508004F60401E0E4908600D480068002808D10C4804
S31508004F7000680A49086000AA00210A4804F02AF9CC
S31508004F8013BD0000014D0020064D0020D84C00201E
S31508004F9060470020034D0020D83E0020D44C002056
S31508004FA0D04C00201448002038B50C001500FFF737
S31508004FB0EDFE2000FFF719FF00AA00212800FFF7E1
S31508004FC06BFFDFF8240704680020FFF70EFF2000B8
S31508004FD032BD02E00D220270401C0278002A01D17F
S31508004FE08842F7D3704738B50024002500A9DFF8B2
S31508004FF0FC06FFF76BFC0400BDF80000002826D16C
S3150800500025004FF4807200212800FFF7BDFC6422BA
S315080050102900DFF8DC064068FFF7C6FF0400210018
S315080050202800FFF7D6FFB2A1280000F02FFC0028C1
S3150800503007D000AA2900DFF8B406FFF76AFC0120AA
S3150800504006E000AA2900DFF8A406FFF762FC0020A4
S3150800505032BD70B582B00025002600A9DFF88C069F
S31508005060FFF734FC0500BDF80000002835D12E00F6
S31508005070002400E0641CE4B2642C28DAE4B2002CB4
S3150800508004D000AA0021C820FFF706FF4FF480725B
S3150800509000213000FFF778FC64223100DFF8500663
S315080050A08068FFF781FF050029003000FFF791FFB0
S315080050B0DFF84016300000F0E9FB0028DAD000AA35
S315080050C03100DFF82806FFF724FC012006E000AAD5
S315080050D03100DFF81806FFF71CFC002076BD2DE925
S315080050E0F84F00240025002600275FF000085FF02F
S315080050F000095FF0000A00A9DFF8F005FFF7E6FBF4
S315080051008146BDF8000000285AD1CA465FF0000B58
S3150800511002E000241BF1010B5FFA8BFBBBF1640F65
S3150800512048DA5FFA8BFBBBF1000F04D000AA002116
S31508005130C820FFF7B1FE4FF4807200215046FFF7F2
S3150800514023FC64225146DFF8A805C068FFF72CFF48
S31508005150814649465046FFF73CFFB8A1504600F045
S3150800516095FB0028D5D03A224FF48071504600F0BE
S3150800517065FB851C280004F061F906002C224FF413
S315080051808071504600F05AFB471C380004F056F967
S315080051908046F6B2062E0BDB641CE4B2072CB9DB9C
S315080051A000AA5146DFF84405FFF7B3FB012008E0E3
S315080051B00024AFE700AA5146DFF83005FFF7A9FB40
S315080051C00020BDE8F28F70B582B00025002600A940
S315080051D0DFF81805FFF77AFB0500BDF80000002880
S315080051E03CD12E00002400E0641CE4B2642C2FDAC3
S315080051F0E4B2002C04D000AA0021C820FFF74CFE18
S315080052004FF4807200213000FFF7BEFB64223100A4
S31508005210DFF8DC040069FFF7C7FE05002900300047
S31508005220FFF7D7FEDFF8D014300000F02FFB002878
S3150800523006D1DFF8C814300000F028FB0028D3D0C8
S3150800524000AA3100DFF8A404FFF763FB012006E09B
S3150800525000AA3100DFF89404FFF75BFB002076BD57
S3150800526070B582B00025002600A9DFF88004FFF794
S315080052702DFB0500BDF80000002835D12E000024BE
S3150800528000E0641CE4B2642C28DAE4B2002C04D0F2
S3150800529000AA0021C820FFF7FFFD4FF48072002105
S315080052A03000FFF771FB64223100DFF844044069DF
S315080052B0FFF77AFE050029003000FFF78AFEDFF8BF
S315080052C04014300000F0E2FA0028DAD000AA3100D3
S315080052D0DFF81804FFF71DFB012006E000AA3100DD
S315080052E0DFF80804FFF715FB002076BD0000000074
S315080052F04F4B000038B50024002500A9DFF8EC0361
S31508005300FFF7E4FA0400BDF80000002826D12500BE
S315080053104FF4807200212800FFF736FB642229002B
S31508005320DFF8CC038069FFF73FFE04002100280060
S31508005330FFF74FFEA1A1280000F0A8FA002807D021
S3150800534000AA2900DFF8A403FFF7E3FA012006E024
S3150800535000AA2900DFF89403FFF7DBFA002032BD24
S3150800536038B50024002500A9DFF88003FFF7AEFA58
S315080053700400BDF80000002824D125004FF48072EF
S3150800538000212800FFF700FB64222900DFF86003EC
S31508005390C069FFF709FE040021002800FFF719FE7F
S315080053A086A1280000F072FA002806D000AA290073
S315080053B0CE48FFF7AEFA012005E000AA2900CB483F
S315080053C0FFF7A7FA002032BD70B582B00025002687
S315080053D000A9C648FFF77AFA0500BDF800000028BC
S315080053E02AD12E00002400E0641CE4B2642C1EDAE4
S315080053F04FF4807200213000FFF7C6FA4FF4FA62C4
S315080054003100BB48006AFFF7CFFD050029003000D0
S31508005410FFF7DFFD69A1300000F038FA0028E3D075
S3150800542000AA3100B148FFF774FA012005E000AA86
S315080054303100AE48FFF76DFA002076BD43535100A0
S3150800544070B582B00025002600A9A848FFF73EFAE5
S315080054500500BDF80000002831D12E00002400E028
S31508005460641CE4B2642C25DAE4B2002C04D000AA49
S315080054700021C820FFF710FD4FF48072002130008C
S31508005480FFF782FA642231009948406AFFF78CFDDB
S31508005490050029003000FFF79CFD90A1300000F0C0
S315080054A0F5F90028DCD000AA31009048FFF731FA58
S315080054B0012005E000AA31008C48FFF72AFA0020EF
S315080054C076BD38B50024002500A98848FFF7FEF9FF
S315080054D00400BDF80000002834D125004FF480727E
S315080054E000212800FFF750FA8148806AFFF74EFC32
S315080054F08448FFF74BFC8448FFF748FC2000FFF779
S3150800550074FC00AA002140F6B830FFF7C5FC7648BF
