:020000040800F2
:10000000304F002021D00008CFCE0008D1CE00080C
:10001000D3CE0008D5CE0008D7CE000800000000DF
:10002000000000000000000000000000D9CE000821
:10003000DBCE000800000000D7B30008DDCE0008CA
:10004000E5D10008E9D10008EDD10008F1D10008A0
:10005000F5D10008F9D10008FDD1000801D200084F
:1000600005D2000809D200080DD2000811D20008FC
:1000700015D2000819D200081DD2000821D20008AC
:1000800025D2000829D200082DD2000831D200085C
:1000900035D2000839D200083DD2000841D200080C
:1000A00045D2000849D200084DD2000851D20008BC
:1000B00055D2000859D200085DD2000861D200086C
:1000C00065D2000869D200086DD2000871D200081C
:1000D00075D20008E5CE0008EDCE0008F5CE000888
:1000E000FDCE000879D200087DD20008F0B585B0B9
:1000F00000260FE0DFF8FC0C007801280AD1DFF8B9
:10010000600C0068DFF85C1C08600020DFF8E41C6D
:100110000870002602A8019003A800900DF10A03C0
:100120000022C821DFF8400C04F018FC0100BDF8E3
:10013000080047F2D9229042DCD00F7802AADFF8FB
:10014000B80C04F01AFEDFF81C0C0068002819D166
:1001500002A9DFF8A80C04F0EDFDDFF8081C086028
:10016000BDF80800002832D1DFF8F80B0068DFF88E
:10017000F01B08604FF480720021DFF8E40B006888
:1001800004F036FEDFF8780C0078002800F05C817F
:10019000DFF8700C0078012800F09980FF28B9D1B1
:1001A000DFF8500C0078002813D1FFB2682F40F020
:1001B0008D80DFF8B00B0068411CDFF8A82B1160C0
:1001C000077000260120DFF82C1C08707EE000BFBD
:1001D000A0E7DFF8900B0068411CDFF8882B116066
:1001E0000770DFF8800B0068DFF8741B0968401A9D
:1001F0000B2805D1DFF8680B0068807A10F10D0636
:10020000F6B2002E62D0DFF85C0B0068DFF8501BFE
:100210000968401AF6B2B04258DBDFF8480B0068B4
:1002200010F8010C162846D1DFF8380B0768F6B233
:10023000B11E89B2DFF8280B006800F0FBF917F84F
:10024000021CC0B281422AD102A800900023F6B25B
:10025000320092B2DFF8080B0168DFF8AC0B04F053
:100260005CFCBDF8080000280DD10020DFF8F01A72
:1002700008600020DFF8EC1A08600020DFF8741B2B
:100280000870002622E0DFF8D80A0068DFF8D41AE8
:1002900008600020DFF85C1B0870002616E0DFF81D
:1002A000C00A0068DFF8BC1A08600020DFF8441BB1
:1002B000087000260AE0DFF8A80A0068DFF8A41A30
:1002C00008600020DFF82C1B0870002622E7DFF80A
:1002D000240B0078002811D1FFB20E2F40F0B3801C
:1002E000DFF8800A0068411CDFF8782A1160077087
:1002F00000260120DFF8FC1A0870A4E0DFF8640A89
:100300000068411CDFF85C2A11600770DFF8540AAE
:100310000068DFF84C1A0968401A0928C0F2938077
:10032000DFF83C0A006880780B283ED109260921B5
:10033000DFF82C0A006800F08DF900282AD102A805
:1003400000900023F6B2320092B2DFF8140A01687E
:10035000DFF8B40A04F0E1FBBDF8080000280DD175
:100360000020DFF8FC1908600020DFF8F8190860A9
:100370000020DFF8801A0870002616E0DFF8E00998
:100380000068DFF8E01908600020DFF8681A0870DC
:1003900000260AE0DFF8C8090068DFF8C81908601D
:1003A0000020DFF8501A08700026DFF8B409006852
:1003B00080780C2847D1DFF8AC090068DFF8A01975
:1003C0000968401A0A283EDB0A260A21DFF890094C
:1003D000006800F03FF900282AD102A8009000230D
:1003E000F6B2320092B2DFF878090168DFF8180A35
:1003F00004F093FBBDF8080000280DD10020DFF8C1
:10040000601908600020DFF85C1908600020DFF840
:10041000E4190870002616E0DFF844090068DFF8E8
:10042000441908600020DFF8CC19087000260AE0A3
:10043000DFF82C090068DFF82C1908600020DFF8CD
:10044000B4190870002665E6DFF8A80900780028CE
:1004500013D1FFB2682F7FF45DAEDFF808090068A2
:10046000411CDFF8002911600770002601240025D7
:100470000120DFF8801908704CE6DFF8E808006812
:10048000411CDFF8E02811600770EDB2002D39D172
:10049000641CE4B2062C7FF43DAEDFF8C4080068AB
:1004A0004079682820D1DFF8B8080068B0F801006A
:1004B000DFF8AC180968B1F8031080B289B288423D
:1004C00004D1012580B28608083623E60020DFF833
:1004D00024190870002600240025DFF8840800682D
:1004E000DFF88018086015E60020DFF808190870AA
:1004F000002600240025DFF868080068DFF864188B
:10050000086007E6F6B2002E3FF404AEDFF85408A8
:100510000068DFF84C180968401AF6B2B042FFF6DE
:10052000F9ADDFF84008006810F8010C162873D107
:10053000DFF830080468F6B2B6F1080189B2DFF8D6
:1005400020080068801D00F075F814F8021CC0B285
:10055000814253D1DFF808080068007B032806D0E9
:10056000042817D00A2802D00B2813D024E000203A
:10057000DFF8F0170968087002A800900023F6B2AF
:10058000320092B2DFF8D8070168DFF8EC0B04F014
:10059000C4FA11E00020DFF8CC170968087002A83F
:1005A00000900023F6B2320092B2DFF8B40701687F
:1005B000DFF8C80B04F0B1FABDF8080000280FD12D
:1005C0000020DFF89C1708600020DFF8981708600B
:1005D0000020DFF82018087000260024002599E587
:1005E000DFF87C070068DFF87C1708600020DFF880
:1005F000041808700026002400258BE5DFF860074A
:100600000068DFF8601708600020DFF8E81708705E
:100610000026002400257DE5DFF844070068DFF8A8
:10062000441708600020DFF8CC170870002600246B
:1006300000256FE510B40022002303E09BB21C5C90
:10064000A2185B1C9BB289B28B42F7D31000C0B2D8
:1006500010BC704710B40022002303E09BB21C5C66
:1006600062405B1C9BB289B28B42F7D31000C0B2D0
:1006700010BC70477CB500260024002506E06D1CE8
:10068000EDB2142D02DB002000210870DFF8F00A23
:100690000078012840F0BF80002E14D101A9DFF8B6
:1006A0005C0704F047FB0600BDF804000028E6D113
:1006B000002534004FF480720021200004F098FBE4
:1006C000200004F0FDFDDFF8BC0A0068DFF8B81A6E
:1006D0000968401A0128C0F2988001AA002104206C
:1006E00004F046FEDFF89C0A06683100200004F0A2
:1006F000DCFE57A1200005F039FB002810D02600B1
:100700004FF480720021200004F072FB200004F0FE
:10071000D7FD01AA0021DFF8080D05F084FCB5E73C
:10072000DFF8001D200005F021FB00280ED001A8F5
:1007300000900023321B92B22100DFF8EC0C04F091
:10074000ECF90026002004F0BBFD9FE7DFF8DC1C7D
:10075000200005F00BFB002814D04FF4807200211C
:10076000200004F045FB01AA2100DFF8900604F008
:1007700004FB00260024002004F0A2FD002005F068
:1007800011FA83E7DFF8A81C200005F0EFFA002833
:1007900014D04FF480720021200004F029FB01AA3C
:1007A0002100DFF8580604F0E8FA002600240020B3
:1007B00004F086FD002005F0F5F967E7DFF8741C0A
:1007C000200005F0D3FA002814D04FF480720021E5
:1007D000200004F00DFB01AA2100DFF8200604F040
:1007E000CCFA00260024002004F06AFD002005F069
:1007F000D9F94BE726004FF480720021200004F065
:10080000F7FA200004F05CFD40E701AA0021042073
:1008100004F0AEFD3AE7002E10D04FF480720021B4
:10082000200004F0E5FA01AA2100DFF8D00504F069
:10083000A4FA00260024002004F042FD002005F068
:1008400071F9012005F06EF905F02AF91EE70000A4
:100850000A3E00002DE9FF41002600240020ADF8EB
:100860000A005FF000080025002705E002AA210029
:10087000DFF8880504F081FA02A8019003A800902F
:100880000DF10A0300220021DFF89C0B04F066F84A
:100890000400B9A1200005F069FA10F102084046F1
:1008A00000F0A6F80700BFB2002FDFD098F80C00C8
:1008B00000280DD0022800F09A80032826D00428B2
:1008C0004AD00A2822D00B2846D00C28CED0CDE71B
:1008D00098F80D0010F00F05DFF85C0B0078EDB212
:1008E000854206D102AA0021DFF8500B05F09BFBE0
:1008F0000BE0DFF84C0B0078EDB2854205D102AA7F
:100900000021DFF8400B05F08EFBAFE702A9DFF80E
:10091000EC0404F00FFA0600002E1CD0BFB23A001F
:100920004146300005F024FC0120BFB2B85502A8B2
:10093000009000233A0092B23100DFF83C0804F046
:10094000ECF8BDF80800002805D002AA3100DFF855
:10095000AC0404F012FA89E798F80D0010F00F05C6
:1009600098F80E00052808D1DFF8DC0A0570290088
:10097000C9B2012003F03AF938E0DFF8CC0A007878
:10098000EDB2A8422DD002A9DFF8700404F0D2F92C
:100990000600002E2AD0BFB23A004146300005F0D2
:1009A000E7FB0120BFB2B855DFF89C0A05702900AB
:1009B000C9B2012003F01AF902A8009000233A00FE
:1009C00092B23100DFF8B40704F0A7F8BDF80800D0
:1009D00000280BD002AA3100DFF8200404F0CDF982
:1009E00004E02900C9B2012003F000F93EE73DE729
:1009F00070B50400B4F80150B4F80300ADB280B291
:100A0000854214D1ADB2AD08ADB22819867929005E
:100A100089B2A01DFFF70EFE864208D1ADB228199B
:100A2000C079162803D115F10800C0B200E00020FB
:100A300070BD10B5002405F0AFFC0400DFF80C0A0F
:100A40000078401CDFF8041A0870DFF8000A00780C
:100A500010F00F00DFF8F4190870200005F0A0FC7A
:100A600010BD30B589B0002404E001AA0021642043
:100A700004F07EFC03AD682028706D1C27202870D0
:100A80006D1C002028706D1C272028706D1C002014
:100A900028706D1C682028706D1CC92028706D1C82
:100AA000DFF8AC09007828706D1CDFF8A4094078E5
:100AB00028706D1CDFF89809807828706D1CDFF8AD
:100AC0009009C07828706D1CDFF8840900792870BF
:100AD0006D1C022028706D1CDFF87009007850F042
:100AE000700028706D1CDFF864090078DFF8481981
:100AF0000870FFF79EFF032028706D1C09210DF17F
:100B00001200FFF797FD28706D1C162028706D1CD1
:100B1000DFF86C0600780028A7D0002500E06D1CE7
:100B2000DFF85C060078002818D0EDB2032D15DA46
:100B30000024112103A804F071FF0028EFD001A8C0
:100B4000009002AB002241F28831DFF8F00805F096
:100B5000B0F9BDF804000028E1D10124E4B2002C72
:100B600006D001AA0021DFF8EC0804F001FC81E7BF
:100B7000002005F017F87DE70D0A680080B5C0B2C7
:100B800000280CD0DFF8D0080078AA2803D1012073
:100B900000F059F80FE0012000F06CF80BE0DFF8EE
:100BA000B8080078AA2803D1002000F04CF802E031
:100BB000002000F05FF801BD1FB511E00120FFF734
:100BC000DDFFBDF80800015D200000F0CFF8002037
:100BD000FFF7D4FF0DF10A022100884804F0CDF898
:100BE0000DF10A00019003A8009002AB0022002141
:100BF000DFF8880503F0B2FE04008248007801287F
:100C0000DCD0FF28E6D1207B042802D00B280DD0B1
:100C100018E00120FFF7B2FFBDF80800015D2000D9
:100C200000F004FF0020FFF7A9FF0BE00120FFF711
:100C3000A5FFBDF80800015D200000F0E7F80020E6
:100C4000FFF79CFFC6E780B5C0B200280BD001219A
:100C5000DFF8C40D05F025FC00AA002140F2DC50AD
:100C600004F086FB04E00121DFF8AC0D05F01CFC6C
:100C7000012002BD80B5C0B200280BD00221DFF8F0
:100C80009C0D05F00EFC00AA00214FF4167004F034
:100C90006FFB04E00221DFF8840D05F005FC012064
:100CA00002BD80B5C0B200280CD04FF40041DFF87F
:100CB000680D05F0F6FB00AA002140F6B83004F0FC
:100CC00057FB05E04FF40041DFF84C0D05F0ECFB5D
:100CD000012002BD80B5C0B200280BD00821DFF88A
:100CE0003C0D05F0DEFB00AA002140F6B83004F010
:100CF0003FFB04E00821DFF8240D05F0D5FB0120BF
:100D000002BD80B5C0B200280BD01021DFF80C0D59
:100D100005F0C7FB00AA002140F6B83004F028FB1C
:100D200004E01021DFF8F40C05F0BEFB012002BD49
:100D300080B5C0B200280BD02021DFF8E00C05F010
:100D4000B0FB00AA002140F6B83004F011FB04E02B
:100D50002021DFF8C80C05F0A7FB012002BD000030
:100D6000FC4C0020F84C0020804A00203EB50400D6
:100D70000D0001A8009002AB00224FF47A71DFF859
:100D8000A00C05F035FCBDF80400002831D1DFF8D7
:100D9000940CDFF8941C0860012004F0A0FAE07BBA
:100DA00000280AD0AA281BD1200005F0D5FD290073
:100DB000C9B2012006F015F812E0200005F0E5FDAB
:100DC000DFF8640C00688078FF2805D02900C9B2DC
:100DD000A07C06F006F803E02800C0B206F07AFA1C
:100DE000002004F07CFA01AA0021DFF8340C05F0A1
:100DF0000DFD37BD254D00206C4C0020544C0020CB
:100E0000174D002094000020C84A00202DE9F04131
:100E10008AB004000D000020039000200290002002
:100E2000ADF810000020ADF80600002600270020D5
:100E30008DF804005FF000080222DFF8081E04A805
:100E400006F020FC0322DFF8001E03A806F01AFCBF
:100E5000BDF81000002800F0D380012004F03FFA14
:100E60000722DFF8E81D14F1100003F0EEFF01285F
:100E700040F0C9800120DFF8D81D0870002634E05A
:100E800007220298811D07A806F0FCFB01220298A8
:100E900010F10D0101A806F0F5FB2B00DBB29DF867
:100EA0000420029907A800F071F903220298C11CDE
:100EB00002A806F0E7FB7F1CBDF80600BFB2874220
:100EC000DED3039905A800F0D3FFB6B2701CBDF8BD
:100ED000101090FBF1F0DFF87C1D087003220398DE
:100EE000C11C03A806F0CEFB761CBDF81000B6B2FC
:100EF000864278D206220398811D05A806F0C2FB1F
:100F00000322039810F10C0102A806F0BBFB022299
:100F1000039810F112010DF1060006F0B3FB0399DE
:100F200005A800F099FE00285BD10DF11200009099
:100F300009AB00224FF47A71DFF8E40A05F058FBA0
:100F4000BDF8120000285BD100273DE04FF480522D
:100F50000298000B4FF4805101FB00F1DFF8C40A46
:100F600006F090FB02984FF48051B0FBF1F202FBC7
:100F70001102DFF8B00A1018807D50F0800002994D
:100F80004FF48052B1FBF2F303FB1213DFF8941A13
:100F9000591888750298000B4FF48051484306F0A9
:100FA0002FFA4FF480520298000B4FF4805101FB4E
:100FB00000F1DFF8700A06F0BBFA03220298C11CA8
:100FC00002A806F05FFB7F1CBDF80600BFB2874297
:100FD000BCD30DF112020021DFF8440A05F016FC23
:100FE00073E7002768E70020DFF8641C08702A0018
:100FF000D2B20021012000F031FA002004F06FF994
:101000000AB0BDE8F08100261AE02B00DBB29DF8A3
:101010000420029907A800F0B9F82A00D2B2029978
:10102000002000F01BFA039905A800F021FF5FF0F3
:10103000010803220398C11C03A806F023FB761CB9
:101040005FFA88F8B8F1000FD7D1BDF81000B6B23A
:101050008642D2D206220398811D05A806F012FB13
:101060000322039810F10C0102A806F00BFB0222E8
:10107000039810F112010DF1060006F003FB0027A2
:1010800006E003220298C11C02A806F0FBFA7F1CAE
:10109000BDF80600BFB28742CBD207220298811D5D
:1010A00007A806F0EFFA0122029810F10D0101A83D
:1010B00006F0E8FA072207A914F1100003F0C5FEB4
:1010C0000128DED19DF80400E17B8842D9D1039943
:1010D00005A800F0C1FD002897D10DF11200009085
:1010E00009AB00224FF47A71DFF8340905F080FA79
:1010F000BDF81200002883D14FF480520298000BF3
:101100004FF4805101FB00F1DFF8180906F0BAFA3C
:1011100002984FF48051B0FBF1F202FB1102DFF8AC
:1011200004091018807D50F0800002994FF480521D
:10113000B1FBF2F303FB1213DFF8E81859188875B6
:101140000298000B4FF48051484306F059F94FF4D0
:1011500080520298000B4FF4805101FB00F1DFF840
:10116000C40806F0E5F90DF112020021DFF8B0081D
:1011700005F04CFB5BE70000EC4A0020A44A00208D
:10118000164D0020004D0020044D00202DE9F043B5
:101190008BB004000D00002600200021ADF80C10DB
:1011A00000275FF0000800218DF8091000218DF85C
:1011B00008105FF0000907A98946682189F8001026
:1011C00019F1010989F8002019F1010900210E0027
:1011D00006E0F6B2305D89F8000019F10109761CCD
:1011E000F6B2072EF5DB012089F8000019F101099C
:1011F000032089F8000019F10109DFF8CC0D00780F
:10120000FF280AD11F2089F8000019F10109902058
:1012100089F8000019F1010909E0902089F800001F
:1012200019F101091F2089F8000019F101090120B5
:1012300089F8000019F101090E2107A8FFF7FAF952
:1012400089F8000019F10109162089F8000019F148
:101250000109002608E00020F6B205A9705400201C
:10126000F6B204A97054761CF6B2042EF3DB002605
:1012700017E0C0B2C119897BC0B205AA8154C0B2BF
:10128000C119C97CC0B204AA8154401CC0B2042850
:10129000EFDB0DF10A023900DFF8300D03F06DFDD0
:1012A000761C5FFA88F8B8F1000F2FD1F6B2002E45
:1012B0002CD10421DFF8180D03F0EEFE102107A851
:1012C00003F0EAFE0DF10A00019006A8009003ABBE
:1012D00000224FF49661DFF8FC0C03F03FFB07009F
:1012E000BDF80A000028DBD10722B91C200003F05A
:1012F000ACFD0128CDD15FF00108F87F8DF8090021
:1013000097F820008DF808000020BFE70DF10A00D3
:10131000009006AB00224FF47A71DFF8040705F065
:1013200067F9BDF80A00002877D14FF48052280BE6
:101330004FF4805101FB00F1DFF8E80606F0A2F956
:101340005FFA88F8B8F1000F16D14FF48050B5FB62
:10135000F0F101FB1051DFF8CC060818807D50F049
:1013600040004FF48051B5FBF1F202FB1152DFF85F
:10137000B4165118887538E001220DF109014FF4B7
:101380008050B5FBF0F303FB1053DFF898061818F4
:10139000163004F0EDFE012202A94FF48050B5FB97
:1013A000F0F303FB1053DFF87C061818173004F035
:1013B000DFFE042205A94FF48050B5FBF0F303FBD8
:1013C0001053DFF8600618180E3004F0D1FE042226
:1013D00004A94FF48050B5FBF0F303FB1053DFF882
:1013E00044061818183004F0C3FE280B4FF480513F
:1013F000484306F005F84FF48052280B4FF4805113
:1014000001FB00F1DFF81C0606F092F80DF10A026C
:101410000021DFF80C0605F0F9F90BB0BDE8F08308
:10142000004C00205CD10008104B002064D1000863
:101430006CD1000874D10008214D0020C84B002059
:10144000224D0020E44B0020244D0020234D00209D
:101450007C000020C0D40100930000202DE9F54F4E
:101460008DB00025002006905FF000090020ADF847
:101470001C000020ADF814000020ADF8160000207C
:10148000ADF8000000208DF809000020ADF80A003A
:101490000027002008900020039000208DF808000D
:1014A00000208DF8070000208DF8060000240020A1
:1014B000ADF812005FF0000A5FF000080020ADF800
:1014C000040000265FF0000B039104A9DFF8FC0A7A
:1014D00003F030FC0500002D00F0CE8006959DF84D
:1014E0003400002840F0D08007220398811D0BA80B
:1014F00006F0C8F80122039810F10D0102A806F0C9
:10150000C1F80422039810F10E0109A806F0BAF8F8
:101510000122039810F116010DF1070006F0B2F850
:101520000122039810F117010DF1060006F0AAF848
:10153000682028706D1CA9467320A9F8000019F1D5
:1015400002097320A9F8000019F102094D4668202C
:1015500028706D1C882028706D1CDFF8380D00780D
:1015600028706D1CDFF82C0D407828706D1CDFF89A
:10157000240D807828706D1CDFF8180DC078287055
:101580006D1CDFF8100D007928706D1C0B20287081
:101590006D1CDFF8040D007850F0600028706D1CA1
:1015A000042028706D1CDFF8F00C0078DFF8EC1CCC
:1015B0000870FFF73EFA002028706D1C002028708C
:1015C0006D1C002028706D1C002028706D1C9DF87B
:1015D000080028706D1C002405E0A4B20BA8205C54
:1015E00028706D1C641CA4B2072CF6DB0120287047
:1015F0006D1C002405E0A4B209A8205C28706D1CB5
:10160000641CA4B2042CF6DB9DF8070028706D1C46
:101610009DF8060028706D1C1C210698801DFFF7A0
:1016200009F828706D1C162028706D1C9DF8380074
:10163000002824D05FF0000A01E01AF1010A5FFAE5
:101640008AFABAF1030F11DA2421069804F0E6F9B8
:1016500004A800900AAB002241F28831DFF8400C68
:1016600004F027FCBDF810000028E6D104AA069972
:10167000DFF8580903F081FB0FB0BDE8F08F24219B
:10168000069803F086FDF1E70222DFF8B8150DF1A8
:10169000160005F0F7FF0222DFF8081C05A805F088
:1016A000F1FF0322DFF8A01508A805F0EBFFBDF855
:1016B00014000A2190FBF1F0ADF80000BDF8140011
:1016C0000A2190FBF1F201FB12008DF809000027BE
:1016D000BDF80000ADF80A009DF80900002804D00C
:1016E000BDF80A00401CADF80A00002406E0032201
:1016F0000898C11C08A805F0C5FF641CBDF81600B9
:10170000A4B28442B2D20322089810F10C0103A8BB
:1017100005F0B8FF0222089810F1120107A805F0A1
:10172000B1FF0020ADF812001AE0BDF804000E2150
:10173000484310F1160189B2069803F02AFD04AA65
:101740000021642003F014FE069D03220398C11CAF
:1017500003A805F097FFBDF81200401CADF8120079
:10176000BDF81200BDF81C108842C0D207220398B1
:10177000811D0BA805F086FF0122039810F10D01D1
:1017800002A805F07FFF0422039810F10E0109A8BA
:1017900005F078FF0122039810F116010DF1070002
:1017A00005F070FF0122039810F117010DF10600FA
:1017B00005F068FFF6B2002E40F0BF8001267F1CC6
:1017C000BDF80A0001280CD1BDF81480ADF80480E2
:1017D000BDF804000E2148430E30800050F0030B8A
:1017E00036E0BFB2012F0CD15FF00A08ADF80480DB
:1017F000BDF804000E2148430E30800050F0030B6A
:1018000026E0BDF80A00BFB2874215D19DF8090055
:10181000002804D15FF00A08ADF8048003E09DF8C9
:101820000980ADF80480BDF804000E2148430E3055
:10183000800050F0030B0BE05FF00A08ADF8048065
:10184000BDF804000E2148430E30800050F0030B19
:10185000682028706D1CA946A9F800B019F102098A
:10186000A9F800B019F102094D46682028706D1CD6
:10187000882028706D1CDFF81C0A007828706D1C09
:10188000DFF8100A407828706D1CDFF8080A8078AD
:1018900028706D1CDFF8FC09C07828706D1CDFF81B
:1018A000F409007928706D1C0B2028706D1CBDF8A0
:1018B0000A00012807D1DFF8E009007850F0700035
:1018C00028706D1C1EE0BFB2012F07D1DFF8C809D8
:1018D000007850F0500028706D1C13E0BDF80A002D
:1018E000BFB2874207D1DFF8B009007850F030006E
:1018F00028706D1C06E0DFF8A009007850F0100099
:1019000028706D1CDFF890090078DFF890190870D6
:10191000FFF78FF8042028706D1CA946BDF80A0057
:10192000A9F8000019F10209A9F8007019F10209DB
:101930004D469DF8080028706D1C5FF0000A08E015
:101940005FFA8AFA0BA81AF8000028706D1C1AF1C9
:10195000010A5FFA8AFABAF1070FF1DB0120287059
:101960006D1C5FF0000A08E05FFA8AFA09A81AF80D
:10197000000028706D1C1AF1010A5FFA8AFABAF1A8
:10198000040FF1DB9DF8070028706D1C9DF8060020
:1019900028706D1CB8F101081FFA88F8B8F1000F23
:1019A0007FF4D3AE0026BDF804000E21484310F1A9
:1019B0000E0189B20698801DFEF73CFE28706D1C52
:1019C000162028706D1C9DF8380000283FF4ADAE3D
:1019D0005FF0000A01E01AF1010A5FFA8AFABAF12F
:1019E000030FBFF6ACAEBDF804000E21484310F162
:1019F000160189B2069804F011F804A800900AAB09
:101A0000002241F28831DFF8980804F052FABDF85C
:101A100010000028DFD192E600080140000C0140D0
:101A2000344B00209C000020A44C00202DE9F04302
:101A30008BB004000D0000200390002002900020D5
:101A4000ADF806000020ADF81000002600270020A9
:101A50008DF804005FF000085FF000090222794968
:101A60000DF1060005F00EFE0322774903A805F0EC
:101A700009FEBDF80600002800F0E080607B10F051
:101A80000F09A07B042808D14946C9B22800C0B27A
:101A900002F0ACF800F062FDD0E0012003F01FFC82
:101AA000002618E05FFA89F9CDF800902B00DBB230
:101AB0009DF80420029905A800F0F6FB039907A8F9
:101AC00000F0D6F95FF0010803220398C11C03A8B7
:101AD00005F0D8FD761C5FFA88F8B8F1000F40F0E9
:101AE000AA80BDF80600B6B2864280F0A480062225
:101AF0000398811D07A805F0C5FD0322039810F186
:101B00000C0102A805F0BEFD0222039810F112019B
:101B100004A805F0B7FD002706E003220298C11CC7
:101B200002A805F0AFFD7F1CBDF81000BFB28742D0
:101B3000CAD207220298811D05A805F0A3FD012243
:101B4000029810F10D0101A805F09CFD072205A9DE
:101B500014F1100003F079F90128DED19DF804009A
:101B6000E17B8842D9D1039907A800F075F80028D5
:101B70004DD10DF11200009009AB00224FF47A71A3
:101B8000DFF8A80B04F034FDBDF81200002855D191
:101B90004FF480520298000B4FF4805101FB00F18A
:101BA000DFF88C0B05F06EFD02984FF48051B0FB0E
:101BB000F1F202FB1102DFF8780B1018807D50F073
:101BC000800002994FF48052B1FBF2F303FB121331
:101BD000DFF85C1B591888750298000B4FF4805190
:101BE000484305F00DFC4FF480520298000B4FF46F
:101BF000805101FB00F1DFF8380B05F099FC0DF185
:101C000012020021DFF8240B04F000FE5AE7A07B4B
:101C100002283FF447AF03287FF450AF5FFA89F9F9
:101C2000CDF800902B00DBB29DF80420029905A8A6
:101C300000F0D2F942E7002003F051FB0BB0BDE801
:101C4000F0830000A3F01F00A0F01F007CD100086B
:101C5000264D0020274D00202DE9F0418AB00400D8
:101C60000D0000270026DFF8CC0A0078AA2847D10B
:101C7000DFF8C40A00782178884205D102A9DFF88C
:101C8000BC0A06F0AFF839E00020FFF70AF80020A0
:101C9000FFF720F80020FFF734F80020FFF748F89E
:101CA0002078012806D024D3032813D00AD304288F
:101CB00018D01EE00120FEF7F4FF0120DFF8781AAB
:101CC000087016E00120FFF705F80220DFF8681A17
:101CD00008700EE00120FFF714F80320DFF8581A0F
:101CE000087006E00120FFF723F80420DFF8481A07
:101CF000087002A9DFF8440A06F074F80120B4E085
:101D0000DFF8300A0078BB2840F0AE8004AF6820CE
:101D100038707F1CA02038707F1C5FF0000807E03F
:101D20005FFA88F818F8040038707F1C18F1010871
:101D30005FFA88F8B8F1060FF2DB002038707F1CDC
:101D4000042038707F1C042038707F1C17203870E6
:101D50007F1CA02038707F1C012038707F1C55200C
:101D600038707F1C0F2104A8FEF764FC38707F1CBC
:101D7000162038707F1C5FF0000807E0002602AADA
:101D80003900924802F0F9FF18F10108F6B2002E6E
:101D900026D15FFA88F8B8F1020F21DA112104A8E0
:101DA00003F07AF902A8019003A800900DF10A034C
:101DB000002241F28831874802F0D0FD0700BDF8CB
:101DC00008000028E0D10622B91C200003F03DF8ED
:101DD0000128D4D1B87B03210842CFD10126CEE718
:101DE000F6B2002E3DD102A8009003AB00224FF4C2
:101DF0007A71DFF8380904F0FBFBBDF80800002811
:101E000002D03000C0B230E04FF48052280B4FF4C3
:101E1000805101FB00F1DFF8180905F033FC0120C7
:101E20004FF48051B5FBF1F202FB1152DFF80019BB
:101E30005118C875280B4FF48051484305F0E0FA5B
:101E40004FF48052280B4FF4805101FB00F1DFF872
:101E5000E00805F06DFB02AA0021DFF8D00804F0CD
:101E6000D5FC3000C0B200E001200AB0BDE8F0812E
:101E7000F0B589B0040000260025DFF8B808007826
:101E8000AA2818D10020FEF70CFF0020FEF722FF41
:101E90000020FEF736FF0020FEF74AFF0020DFF8A3
:101EA0009818087002AB00220021DFF8900805F0B6
:101EB000EEFF012069E0DFF87C080078BB2862D1E2
:101EC00004AE68203070761CA0203070761C00278D
:101ED00004E0FFB2385D3070761C7F1CFFB2062F25
:101EE000F7DB00203070761C04203070761C042054
:101EF0003070761C17203070761CA0203070761C55
:101F000001203070761C99203070761C0F2104A8B7
:101F1000FEF790FB3070761C16203070761C002780
:101F200006E0002502AA3100284802F026FF7F1CA7
:101F3000EDB2002D27D1FFB2022F24DA112104A81F
:101F400003F0AAF802A8019003A800900DF10A037B
:101F500000224FF47A61DFF8600E02F0FFFC060009
:101F6000BDF808000028E2D10622B11C200002F0D2
:101F70006CFF0128D6D1B07BC0B210F0030002285C
:101F8000CFD10125CEE72800C0B209B0F0BD80B5A1
:101F90000020FEF7F3FD0020FEF783FE0020FEF791
:101FA00099FE0020FEF7ADFE0020FEF7C1FE0020E6
:101FB000DFF88417087000AB00220021DFF87C07EF
:101FC00005F065FF01BD0000184D0020544C0020B5
:101FD00088000020C84A00202DE9F84F8AB004008C
:101FE0000D0000260020ADF80A0000275FF0000871
:101FF0005FF000095FF0000A5FF0000B04A8834661
:1020000068208BF800001BF1010B8BF800201BF1FE
:10201000010B0020060006E0F6B2305D8BF80000F0
:102020001BF1010B761CF6B2072EF5DB04208BF8B2
:1020300000001BF1010B04208BF800001BF1010BC9
:10204000DFF8FC060078FF280AD117208BF8000083
:102050001BF1010BA0208BF800001BF1010B09E024
:10206000A0208BF800001BF1010B17208BF800005B
:102070001BF1010B01208BF800001BF1010B552017
:102080008BF800001BF1010B0F2104A8FEF7D2FA18
:102090008BF800001BF1010B16208BF800001BF1E0
:1020A000010B002608E05FF0000802AA3900DFF803
:1020B0000C0D02F062FE761C5FFA88F8B8F1000F92
:1020C00043D1F6B2002E40D10421DFF8F40C02F027
:1020D000E3FF112104A802F0DFFF02A8019003A88A
:1020E00000900DF10A03002243F69821DFF8C80C96
:1020F00002F034FC0700BDF808000028DBD1DFF84F
:10210000C40C0078FF280ED002AA3900DFF8AC0C0E
:1021100002F033FE02AA002142F6E06003F028F943
:102120005FF00108C7E70722B91C200002F08DFE0E
:102130000128BAD197F80E9097F80FA0032019EA5A
:10214000000FB0D15FF00108AFE702A8009003AB29
:1021500000224FF47A71DFF8D40504F049FABDF893
:102160000800002840F092804FF48052280B4FF472
:10217000805101FB00F1DFF8B80505F083FA5FFA42
:1021800088F8B8F1000F33D15FFA89F919F003002C
:10219000032816D14FF48050B5FBF0F101FB10512C
:1021A000DFF88C05081880F816904FF48050B5FBC6
:1021B000F0F101FB1051DFF87805081880F817A03E
:1021C0004DE04FF48050B5FBF0F101FB1051DFF80A
:1021D00060050818807D50F040004FF48051B5FB39
:1021E000F1F202FB1152DFF848155118887536E0FC
:1021F000DFF8D00B0078FF2816D000204FF4805174
:10220000B5FBF1F202FB1152DFF824155118887565
:1022100000204FF48051B5FBF1F202FB1152DFF8C0
:1022200010155118C87515E04FF48050B5FBF0F14A
:1022300001FB1051DFF8F804081880F816904FF4ED
:102240008050B5FBF0F101FB1051DFF8E4040818F1
:1022500080F817A014999DF8280001F0C7FC280BFE
:102260004FF48051484305F0CBF84FF48052280BCF
:102270004FF4805101FB00F1DFF8B40405F058F988
:1022800002AA0021DFF8A40404F0C0FA0BB0BDE8F4
:10229000F08F00007C000020234D0020224D002004
:1022A000E44B0020B3F01F002DE9F84F8AB0040082
:1022B0000D0000260020ADF80A0000275FF000089E
:1022C0005FF000095FF0000A5FF0000B04A883468E
:1022D00068208BF800001BF1010B8BF800201BF12C
:1022E000010B0020060006E0F6B2305D8BF800001E
:1022F0001BF1010B761CF6B2072EF5DB04208BF8E0
:1023000000001BF1010B04208BF800001BF1010BF6
:10231000DFF82C040078FF280AD117208BF8000082
:102320001BF1010BA0208BF800001BF1010B09E051
:10233000A0208BF800001BF1010B17208BF8000088
:102340001BF1010B01208BF800001BF1010B992000
:102350008BF800001BF1010B0F2104A8FEF76AF9AE
:102360008BF800001BF1010B16208BF800001BF10D
:10237000010B002608E05FF0000802AA3900DFF830
:102380003C0A02F0FAFC761C5FFA88F8B8F1000FFC
:102390004CD1F6B2002E49D10421DFF8240A02F014
:1023A0007BFE112104A802F077FE02A8019003A889
:1023B00000900DF10A03002243F69821DFF8F80996
:1023C00002F0CCFA0700BDF808000028DBD1DFF8E6
:1023D000F4090078FF280ED002AA3900DFF8DC09E2
:1023E00002F0CBFC02AA002142F6E06002F0C0FF3E
:1023F0005FF00108C7E70722B91C200002F025FDA5
:102400000128BAD197F80E9097F80FA05FFA89F9D2
:1024100019F00300032802D15FF00008ADE70320A4
:1024200019EA000FA7D05FF00108A6E702A8009004
:1024300003AB00224FF47A71BC4804F0D9F8BDF820
:102440000800002840F087804FF48052280B4FF49A
:10245000805101FB00F1B64805F014F95FFA88F8E5
:10246000B8F1000F2FD15FFA89F919F003000328A2
:1024700014D14FF48050B5FBF0F101FB1051AC4882
:10248000081880F816904FF48050B5FBF0F101FB6E
:102490001051A748081880F817A047E04FF4805063
:1024A000B5FBF0F101FB1051A1480818807D50F0F8
:1024B00040004FF48051B5FBF1F202FB11529C49F0
:1024C0005118887532E0DFF8FC080078FF2814D036
:1024D00001204FF48051B5FBF1F202FB11529449F7
:1024E0005118887500204FF48051B5FBF1F202FBC2
:1024F00011528F495118C87513E04FF48050B5FB45
:10250000F0F101FB10518A48081880F816904FF43A
:102510008050B5FBF0F101FB10518548081880F898
:1025200017A014999DF8280001F060FB280B4FF4C8
:102530008051484304F064FF4FF48052280B4FF45D
:10254000805101FB00F17A4804F0F2FF02AA002159
:10255000764804F05BF90BB0BDE8F08FF0B58DB0B4
:1025600000200090002002900020ADF80400002020
:10257000ADF80C000024002500208DF8060000278F
:1025800000260222DFF8D81A01A805F07BF8032202
:10259000DFF8D01A00A805F075F8BDF8040000288F
:1025A00000F09880012002F09AFE00240AE00099D1
:1025B00004A8FFF75DFC03220098C11C00A805F0E9
:1025C00061F8641CBDF80400A4B2844280F07F80EE
:1025D00006220098811D04A805F054F803220098F3
:1025E00010F10C0102A805F04DF80222009810F13C
:1025F000120103A805F046F8009904A8FFF72CFB88
:102600000028D8D000252BE0A0203070761C1720A1
:102610003070761C01203070761C72203070761C71
:102620000F2108A8FEF706F83070761C16203070CF
:10263000761C0421DFF8880702F02EFD112108A87E
:1026400002F02AFD03220298C11C02A805F01AF824
:102650000DF10E02002142F6E06002F089FE6D1CD1
:10266000BDF80C00ADB28542A1D207220298811DAF
:1026700006A805F007F80122029810F10D010DF1EE
:10268000060004F0FFFF08AE68203070761C9DF84D
:1026900006003070761C002705E0FFB206A8385C03
:1026A0003070761C7F1CFFB2072FF6DB04203070E1
:1026B000761C04203070761C21480078FF28A3D1B6
:1026C00017203070761CA0203070761CA2E7002006
:1026D00002F005FE0DB0F0BD1FB50CE0BDF808001E
:1026E000015D200001F0A6F90DF10A022100DFF8DA
:1026F000CC0602F042FB0DF10A00019003A8009005
:1027000002AB00220021DFF8740E02F027F904006A
:10271000207B032802D00A28E0D0E5E7BDF80800B6
:10272000015D200000F00EF8DEE70000344B0020D1
:102730009C00002093000020284D0020544A0020D7
:10274000184D00202DE9F04188B004000D0000264E
:102750000020ADF8060000200290002006905FF0F7
:102760000008607B10F00F07A07B02281BD0032815
:1027700000F0F580062800F03E81072800F07981FE
:102780000C2800F0C8810E2800F00D820F2800F000
:10279000C782102800F00083112800F0458212281B
:1027A00000F0808204E3A07CDFF85C1D0870607C90
:1027B000DFF8581D0870207CDFF8541D0870E07B9E
:1027C000DFF8BC1D0870B4F81300DFF8B81D0880EE
:1027D0001121DFF8400D02F005FB062103A802F0ED
:1027E00001FBA27CACA103A805F03CFD03A9DFF826
:1027F000240D03F012FAA9A1DFF8180D03F00DFA69
:10280000062103A802F0EEFA627CA3A103A805F05A
:1028100029FD03A9DFF8FC0C03F0FFF99FA1DFF805
:10282000F40C03F0FAF9062103A802F0DBFA227C8B
:1028300099A103A805F016FD03A9DFF8D80C03F051
:10284000ECF996A1DFF8CC0C03F0E7F9062103A818
:1028500002F0C8FAE27B90A103A805F003FD03A9EA
:10286000DFF8B00C03F0D9F90821DFF81C0D02F0F5
:10287000B9FA062103A802F0B5FAB4F8132086A12C
:1028800003A805F0EFFC86A1DFF8FC0C03F0C5F906
:1028900003A9DFF8F40C03F0C0F982A1DFF8E80C1B
:1028A00003F0BBF901A8009005AB00224FF47A7148
:1028B000DFF8000E03F09CFEBDF80400002840F095
:1028C00077824FF48072DFF8F01DDFF8F00D04F02E
:1028D000D9FE1122DFF83C1CDFF8B00C03F048FCF5
:1028E0000822DFF8A41CDFF8A80C03F041FC012249
:1028F000DFF8141CDFF89C0C03F03AFC0122DFF82F
:102900000C1CDFF8940C03F033FC0122DFF8001CF0
:10291000DFF8880C03F02CFC0122DFF8641CDFF8E0
:10292000A00D03F025FC0222DFF8581CDFF8940DFF
:1029300003F01EFC4FF48072DFF87C1DDFF87C0D85
:1029400004F0C5FD01AA0021DFF8680D03F05EFF69
:102950003900C9B22800C0B201F048F928E20521C7
:10296000DFF8640D02F03EFAE07BDFF85C1D0870D2
:10297000207CDFF8541D4870607CDFF84C1D8870A7
:10298000A07CDFF8441DC870E07CDFF83C1D0871B6
:1029900001A8009005AB00224FF47A71DFF8140D06
:1029A00003F026FEBDF80400002840F001824FF439
:1029B0008072DFF8041DDFF8040D04F063FE0522C9
:1029C000DFF8041DDFF8040D03F0D2FB4FF4807232
:1029D000DFF8E41CDFF8E40C04F079FD01AA002123
:1029E000DFF8D00C03F012FF3900C9B22800C0B2E2
:1029F00001F0FCF8DCE114F1190000F08DFD02900B
:102A000014F11201029800F0DFF9804602987FF07D
:102A10007F4188422CD0E07F002812D17FF07F4098
:102A2000804508D04146029800F01EFB7FF07F41B0
:102A3000884200F0BD813900C9B22800C0B201F05F
:102A4000D5F8E07F012813D17FF07F40804509D180
:102A500014F11201029800F0EDF97FF07F418842F5
:102A600000F0A6813900C9B22800C0B201F0BEF85A
:102A70009EE1E07BAA2833D10222DFF8E4150DF1B4
:102A8000060004F0FFFD0322DFF8D81502A804F0C9
:102A9000F9FD00260BE000BF256400002E000000B9
:102AA0002C0000000D00000006980290761CBDF876
:102AB0000600B6B286420DD203220298C11C06A8B7
:102AC00004F0E0FD029800F00BFE7FF07F418842A9
:102AD000EAD16DE13900C9B22800C0B201F086F830
:102AE000E07B552816D114F1100000F015FD7FF0A1
:102AF0007F41884208D114F1100000F051FD7FF0B1
:102B00007F41884200F054813900C9B22800C0B228
:102B100001F06CF84CE1E07BAA2803D1AA20DFF891
:102B2000B01B0870E07BBB2803D1BB20DFF8A01BE3
:102B30000870E07BFF2803D1FF20DFF8941B0870AA
:102B400001A8009005AB00224FF47A71DFF8640B06
:102B500003F04EFDBDF80400002840F029814FF439
:102B60008072DFF8541BDFF8540B04F08BFD012258
:102B7000DFF85C1BDFF85C0B03F0FAFA4FF48072AD
:102B8000DFF8341BDFF8340B04F0A1FC01AA0021AC
:102B9000DFF8200B03F03AFE3900C9B22800C0B2BA
:102BA00001F024F804E1E07BAA2803D1AA20DFF891
:102BB000281B0870E07BFF2803D1FF20DFF8181BDB
:102BC000087001A8009005AB00224FF47A71DFF87D
:102BD000E40A03F00DFDBDF80400002840F0E88091
:102BE0004FF48072DFF8D01ADFF8D00A04F04AFD03
:102BF0000122DFF8E41ADFF8E40A03F0B9FA4FF42F
:102C00008072DFF8B41ADFF8B40A04F060FC01AA9D
:102C10000021DFF8A00A03F0F9FD3900C9B228004D
:102C2000C0B200F0E3FFC3E0E07BAA2802D1AA20F3
:102C300064490870E07BFF2802D1FF2061490870D9
:102C400001A8009005AB00224FF47A71DFF8640A06
:102C500003F0CEFCBDF80400002840F0A9804FF43A
:102C60008072DFF8541ADFF8540A04F00BFD0122D9
:102C70005449DFF8B00D03F07BFA4FF48072DFF8AF
:102C8000381ADFF8380A04F022FC01AA0021DFF824
:102C9000240A03F0BBFD3900C9B22800C0B200F01D
:102CA000A5FF85E0E07B012804D10120DFF8781D35
:102CB000087003E0FF20DFF8701D087001A8009085
:102CC00005AB00224FF47A71DFF8E80903F090FCBD
:102CD000BDF8040000286BD14FF48072DFF8D819DA
:102CE000DFF8D80904F0CEFC0122DFF83C1DDFF844
:102CF0003C0D03F03DFA4FF48072DFF8BC19DFF8A9
:102D0000BC0904F0E4FB01AA0021DFF8A80903F0E4
:102D10007DFD3900C9B22800C0B200F067FF47E06E
:102D2000E07BFF2837D101A8009005AB00224FF4CB
:102D30007A71DFF8800903F05BFCBDF8040000281D
:102D400036D14FF48072DFF87019DFF8700904F0A3
:102D500099FCFF20DFF8801908700122DFF878194C
:102D6000DFF8CC0C03F004FA4FF48072DFF8481956
:102D7000DFF8480904F0ABFB01AA0021DFF83409B1
:102D800003F044FD3900C9B22800C0B200F02EFFA4
:102D90000020002108700BE0E07BFF2808D13900FB
:102DA000C9B22800C0B200F021FF00200021087045
:102DB00008B0BDE8F0810000C84A0020544C002053
:102DC000880000209200002030B585B005000C007E
:102DD000002000900020ADF80400022215F112013D
:102DE00001A804F04FFC032215F10C0100A804F027
:102DF00049FC002506E003220098C11C00A804F04D
:102E000041FC6D1CBDF80400ADB285420ED2072214
:102E10000098811D02A804F035FC072202A92000B9
:102E200002F013F80128E6D1009801E07FF07F401E
:102E300005B030BD30B587B004000D00002004900F
:102E4000002002900020ADF804000020ADF806003C
:102E500000200590022214F1120101A804F012FCD6
:102E60000222DFF8841D0DF1060004F00BFC0322A2
:102E700014F10F0104A804F005FCBDF80400401C87
:102E8000ADF80400BDF80600401CADF8060004F0E3
:102E900064FD029002987FF07F41884202D17FF06A
:102EA0007F40DAE007220298811D280004F0E1FA51
:102EB0000122029810F10D01E81E04F0DAFA042252
:102EC000029810F10E0105A804F0D3FA022202982C
:102ED00010F1160105A804F0CCFA03A8009006AB87
:102EE00000224FF47A71DFF8CC0703F081FBBDF8C4
:102EF0000C00002802D07FF07F40AEE004987FF005
:102F00007F41884246D14FF48052200B4FF48051CC
:102F100001FB00F1DFF8A40704F0B4FB032202A9CF
:102F20004FF48050B4FBF0F303FB1043DFF88C0741
:102F300018180C3003F01CF9032202A94FF480503A
:102F4000B4FBF0F303FB1043DFF8700718180F30E1
:102F500003F00EF9022201A94FF48050B4FBF0F304
:102F600003FB1043DFF854071818123003F000F980
:102F7000200B4FF48051484304F042FA4FF4805242
:102F8000200B4FF4805101FB00F1DFF8300704F013
:102F9000CFFA44E04FF48052200B4FF4805101FBF4
:102FA00000F1DFF8180704F06DFB032202A94FF4CB
:102FB0008050B4FBF0F303FB1043DFF80007181850
:102FC0000F3003F0D5F8022201A94FF48050B4FB72
:102FD000F0F303FB1043DFF8E4061818123003F097
:102FE000C7F8200B4FF48051484304F009FA4FF41E
:102FF0008052200B4FF4805101FB00F1DFF8BC063A
:1030000004F096FA03220498C11C02A804F031FAD5
:103010000322029810F1120104A804F02AFA4FF4D6
:103020008072DFF89416DFF8940604F02BFB02227E
:103030000DF10601DFF85C0C03F09AF84FF4807292
:10304000DFF87416DFF8740604F041FA03AA0021D1
:10305000DFF8600603F0DAFB029807B030BD00002D
:10306000A3F01F00A0F01F0070B586B004000D0093
:1030700000200390002002900020ADF80400002002
:10308000ADF80600022214F1120101A804F0FAFAC8
:103090000222DFF8541B0DF1060004F0F3FA0322BC
:1030A000E91C03A804F0EEFA032215F1120102A8AC
:1030B00004F0E8FABDF80400401EADF80400BDF8C5
:1030C0000600401EADF80600280004F0DDFC04A850
:1030D000009005AB00224FF47A71DFF8D80503F0B9
:1030E00087FABDF81000002802D07FF07F4009E287
:1030F000BDF8040000285DD14FF48052200B4FF43E
:10310000805101FB00F1DFF8B40504F0BBFA0322A3
:1031100003A94FF48050B4FBF0F303FB1043DFF836
:103120009C0518180C3003F023F8022201A94FF473
:103130008050B4FBF0F303FB1043DFF88005181850
:10314000123003F015F8032202A94FF48050B4FBAB
:10315000F0F303FB1043DFF8640518180F3003F099
:1031600007F8200B4FF48051484304F049F94FF41D
:103170008052200B4FF4805101FB00F1DFF83C0539
:1031800004F0D6F94FF48072DFF82C15DFF82C0527
:1031900004F078FA02220DF10601DFF8F80A02F0D5
:1031A000E7FF4FF48072DFF81015DFF8100504F028
:1031B0008EF9A1E102987FF07F41884205D0039803
:1031C0007FF07F41884240F0FC8002987FF07F4191
:1031D00088427CD14FF480520398000B4FF4805109
:1031E00001FB00F1DFF8D40404F04CFA032202A939
:1031F00003984FF48053B0FBF3F606FB1306DFF899
:10320000BC043018123002F0B3FF0398000B4FF4E7
:103210008051484304F0F4F84FF480520398000BB7
:103220004FF4805101FB00F1DFF8900404F080F9C5
:103230004FF48052200B4FF4805101FB00F1DFF876
:103240007C0404F01FFA032203A94FF48050B4FB5E
:10325000F0F303FB1043DFF8640418180C3002F09D
:1032600087FF022201A94FF48050B4FBF0F303FB67
:103270001043DFF848041818123002F079FF200BD1
:103280004FF48051484304F0BBF84FF48052200BB8
:103290004FF4805101FB00F1DFF8200404F048F9FD
:1032A0004FF48072DFF81014DFF8100404F0EAF92C
:1032B00002220DF10601DFF8DC0902F059FF4FF49C
:1032C0008072DFF8F413DFF8F40304F000F90398D8
:1032D0007FF07F41884240F00F814FF48052029886
:1032E000000B4FF4805101FB00F1DFF8D00304F034
:1032F000C9F9032203A902984FF48053B0FBF3F6F7
:1033000006FB1306ED483018C01C02F031FF02988E
:10331000000B4FF48051484304F072F84FF4805290
:103320000298000B4FF4805101FB00F1E34804F0D8
:10333000FFF84FF48052200B4FF4805101FB00F155
:10334000DE4804F09FF9032202A94FF48050B4FB39
:10335000F0F303FB1043D94818180F3002F008FFB0
:10336000022201A94FF48050B4FBF0F303FB104399
:10337000D2481818123002F0FBFE200B4FF4805197
:10338000484304F03DF84FF48052200B4FF4805135
:1033900001FB00F1C94804F0CBF84FF48072C64934
:1033A000C64804F06FF902220DF10601DFF8E408C7
:1033B00002F0DEFE4FF48072BF49C04804F087F887
:1033C0009AE04FF480520298000B4FF4805101FBB9
:1033D00000F1DFF8C40804F055F9032203A90298AC
:1033E0004FF48053B0FBF3F606FB1306DFF8A80892
:1033F0003018C01C02F0BCFE0298000B4FF4805144
:10340000484303F0FDFF4FF480520298000B4FF445
:10341000805101FB00F1DFF8800804F089F84FF4D7
:1034200080520398000B4FF4805101FB00F1DFF84C
:10343000680804F027F9032202A903984FF4805387
:10344000B0FBF3F606FB1306DFF84C083018123019
:1034500002F08EFE0398000B4FF48051484303F0B6
:10346000CFFF4FF480520398000B4FF4805101FBC3
:1034700000F1DFF8240804F05BF84FF48052200BD1
:103480004FF4805101FB00F1DFF80C0804F0FAF86A
:10349000022201A94FF48050B4FBF0F303FB104368
:1034A000DFF8F4071818123002F062FE200B4FF418
:1034B0008051484303F0A4FF4FF48052200B4FF497
:1034C000805101FB00F1DFF8D00704F031F84FF430
:1034D00080727949DFF8C00704F0D4F802220DF1B8
:1034E0000601DFF8B00702F043FE4FF48072724924
:1034F000DFF8A40703F0EBFF04AA00216D4803F0F6
:1035000085F9280006B070BD9500002096000020C7
:10351000970000205000002030B585B00400002046
:1035200000900222DFF8CC1801A804F0ABF80322C7
:10353000DFF8DC1D00A804F0A5F8002506E0032252
:103540000098C11C00A804F09DF86D1CBDF8040093
:10355000ADB285420ED206220098811D02A804F069
:1035600091F8062202A9200001F06FFC0128E6D1A3
:10357000009801E07FF07F4005B030BDEC4A0020AC
:10358000980000209000002074000020EC00002033
:103590000C0100200B0100200A010020090100207D
:1035A00010B586B004000020049000200290002096
:1035B000ADF804000020ADF80C000222DFF834184A
:1035C00001A804F05FF80322DFF8481D04A804F006
:1035D00059F8BDF80400401CADF8040004F0BDF932
:1035E000029006220298811D200003F042FF022271
:1035F000029810F1120103A803F03BFF0DF1060041
:10360000009005AB00224FF47A712A4802F0F0FFD7
:10361000BDF80600002802D07FF07F4047E04FF45D
:103620008072DFF87816DFF8700604F02BF8049843
:103630007FF07F41884212D1032202A9DFF8980D62
:1036400002F096FD022201A9DFF8900D02F090FD34
:10365000032202A9DFF8880D02F08AFD18E0022299
:1036600001A9DFF8780D02F083FD032202A9DFF83B
:10367000700D02F07DFD03220498C11C02A803F026
:10368000F8FE0322029810F1140104A803F0F1FEE1
:103690004FF48072DFF80416DFF8FC0503F017FF23
:1036A0000DF106020021034803F0B0F8029806B0BD
:1036B00010BD0000344B002000F01F009C000020D3
:1036C000080100201A0100207C0000201C010020BD
:1036D000930000205C010020184D00205D010020B7
:1036E00030B589B004000020ADF81000002005902E
:1036F0000020069000200390002002900020ADF8EA
:1037000004000025022214F1120104A803F0BAFFFC
:10371000032214F10C0105A803F0B4FF0322E11CFD
:1037200003A803F0AFFF032214F1140102A803F071
:10373000A9FF0222DFF8BC1601A803F0A3FFBDF821
:103740000400401EADF804000020050002E00698C9
:1037500005906D1CBDF81000ADB285420ED203225B
:103760000598C11C06A803F08DFF05992000FFF7FE
:103770007BFC7FF07F418842E9D1EAE7200004F03A
:1037800083F90DF10600009007AB00224FF47A7127
:10379000DFF8180E02F02CFFBDF80600002802D05A
:1037A0007FF07F403CE1BDF80400002822D14FF4B7
:1037B0008072DFF8E814DFF8E00403F063FF03220F
:1037C00003A9DFF8140C02F0D3FC022201A9DFF8F0
:1037D0000C0C02F0CDFC032202A9DFF8040C02F06D
:1037E000C7FC4FF48072DFF8B414DFF8AC0403F0C8
:1037F0006EFE0DE102987FF07F41884205D003986C
:103800007FF07F41884240F09B8002987FF07F41AB
:10381000884249D14FF480520398000B4FF48051F5
:1038200001FB00F1DFF8700403F02CFF032202A972
:1038300003984FF48053B0FBF3F505FB1305DFF855
:1038400058042818143002F093FC0398000B4FF42E
:103850008051484303F0D4FD4FF480520398000B8D
:103860004FF4805101FB00F1DFF82C0403F060FEFF
:103870004FF48072DFF82414DFF81C0403F002FF19
:10388000032203A9DFF8500B02F072FC022201A907
:10389000DFF8480B02F06CFC4FF48072DFF8FC1389
:1038A000DFF8F40303F013FE03987FF07F418842B2
:1038B00040F0AE804FF480520298000B4FF48051DC
:1038C00001FB00F1DFF8D00303F0DCFE032203A9C3
:1038D00002984FF48053B0FBF3F505FB1305DFF8B6
:1038E000B8032818C01C02F043FC0298000B4FF4E8
:1038F0008051484303F084FD4FF480520298000B3E
:103900004FF4805101FB00F1E34803F011FE4FF446
:103910008072E249E04803F0B5FE022201A9DFF817
:10392000BC0A02F025FC032202A9DFF8B40A02F067
:103930001FFC4FF48072D949D74803F0C8FD67E0F7
:103940004FF480520298000B4FF4805101FB00F1BC
:10395000D14803F097FE032203A902984FF4805345
:10396000B0FBF3F505FB1305CB482818C01C02F08B
:10397000FFFB0298000B4FF48051484303F040FDD9
:103980004FF480520298000B4FF4805101FB00F17C
:10399000C14803F0CDFD4FF480520398000B4FF463
:1039A000805101FB00F1BC4803F06CFE032202A928
:1039B00003984FF48053B0FBF3F505FB1305B648AD
:1039C0002818143002F0D4FB0398000B4FF48051F8
:1039D000484303F015FD4FF480520398000B4FF459
:1039E000805101FB00F1AC4803F0A2FD4FF480725E
:1039F000AA49A94803F046FE022201A9DFF8DC0922
:103A000002F0B6FB4FF48072A449A34803F05FFDB7
:103A10000DF106020021DFF8940B02F0F7FE200002
:103A200009B030BD5E010020940000205F0100203D
:103A30005401002080B50A00417B11F00F01837B07
:103A4000022B0ED0032B12D0062B16D0072B1DD025
:103A50000C2B21D00E2B25D0112B29D0122B2DD0A1
:103A600031E0C9B21000C0B200F0BCFC2BE0C9B21A
:103A70001000C0B200F050FC25E00B00DBB2D2B267
:103A800010F11001C07B00F0B7F91CE0C9B21000C2
:103A9000C0B200F005F916E0C9B21000C0B200F0E3
:103AA00025FD10E0C9B21000C0B200F081FD0AE0AF
:103AB000C9B21000C0B200F0DAFD04E0C9B21000D3
:103AC000C0B200F033FE01BD30B587B00024002540
:103AD00018E04FF48071DFF8140D02F0E2FC00AA48
:103AE00000214FF47A7001F043FC4FF48071DFF84D
:103AF000FC0C02F0D9FC00AA00214FF47A7001F00E
:103B000037FC0024DFF8E80C00780028E1D04FF4FF
:103B10008071DFF8D80C02F0C4FC00AA00216420F8
:103B200001F026FC4FF48071DFF8C00C02F0BCFC01
:103B300000AA0021642001F01BFCDFF8500D007882
:103B40000028DFD0641CE4B20F2CDBDB002401ADC5
:103B5000682028706D1C272028706D1C002028709C
:103B60006D1C272028706D1C002028706D1C68209B
:103B700028706D1CCA2028706D1CDFF8140D0078A9
:103B800028706D1CDFF8080D407828706D1CDFF878
:103B9000000D807828706D1CDFF8F40CC078287058
:103BA0006D1CDFF8EC0C007928706D1C0F2028705C
:103BB0006D1CDFF8E00C007850F0600028706D1C80
:103BC000DFF8D40C007828706D1C09210DF10A0073
:103BD000FCF730FD28706D1C162028706D1C11211B
:103BE00001A801F01BFF8DE7B3F01F0030B585B0D1
:103BF000040000AD682028706D1C272028706D1C03
:103C0000002028706D1C272028706D1C0020287053
:103C10006D1C682028706D1C802028706D1CDFF8DA
:103C2000700C007828706D1CDFF8640C40782870E8
:103C30006D1CDFF85C0C807828706D1CDFF8500C70
:103C4000C07828706D1CDFF8480C007928706D1C56
:103C5000002028706D1C51F0600028706D1C012040
:103C600028706D1C09210DF10600FCF7E3FC28709B
:103C70006D1C162028706D1CE4B2002C04D011219C
:103C800000A801F0CBFE03E0112100A801F081FAA9
:103C900005B030BD4F0100209C00002000F01F0047
:103CA000F0B585B004000F000DF10201DFF8EC0B58
:103CB00001F040F80600002E00F099803500032244
:103CC000DFF84C1601A803F0DDFC0222494900A8E8
:103CD00003F0D8FC68203070761CBDF80000062187
:103CE00048430930800050F003003080B61CBDF816
:103CF0000000062148430930800050F00300308066
:103D0000B61C68203070761C88203070761CDFF876
:103D1000800B00783070761CDFF8740B40783070C0
:103D2000761CDFF86C0B80783070761CDFF8600B47
:103D3000C0783070761CDFF8580B00793070761C34
:103D40000A203070761C57F060003070761C072017
:103D50003070761C00270FE0C0B202A9415C3170C0
:103D6000761C401CC0B20628F6DB03220198C11C59
:103D700001A803F087FC7F1CBDF80000BFB287429A
:103D800007D206220198811D02A803F07BFC0020C7
:103D9000E8E7BDF800000621484310F1090189B2A7
:103DA000A81DFCF747FC3070761C16203070761C7E
:103DB000E4B2002C0AD0BDF800000621484310F1FF
:103DC000110189B2280001F029FE09E0BDF80000C8
:103DD0000621484310F1110189B2280001F0D9F9F8
:103DE0000DF102022900DFF8B40A00F0C6FF05B0A9
:103DF000F0BD0000A3F01F002DE9FF4F8BB05FF076
:103E0000000A5FF00008002500265FF0000B5FF05D
:103E100000090020ADF8000000270222DFF8801A18
:103E20000DF10A0003F02EFC0222DFF8781A04A834
:103E300003F028FC0322DFF8D81403A803F022FCC7
:103E4000BDF80A00002800F0608206A9DFF84C0ADD
:103E500000F070FF0400002C00F057820594072248
:103E6000DFF8441A0C9800F0F0FF012840F076814A
:103E7000BDF810000A2190FBF1F0BDF810100A22E5
:103E800091FBF2F302FB13118DF802105FF00008B2
:103E9000ADF808009DF80200002804D0BDF8080025
:103EA000401CADF80800002506E003220398C11C61
:103EB00003A803F0E7FB6D1CBDF80A00ADB2854214
:103EC00080F01D8206220398811D09A803F0DAFB09
:103ED0000322039810F10C0101A803F0D3FB022286
:103EE000039810F112010DF1120003F0CBFB002634
:103EF00016E0BDF800001121484310F1120189B20B
:103F0000059801F046F906AA0021642001F030FA74
:103F1000059C03220198C11C01A803F0B3FB761C89
:103F2000BDF81200B6B28642BFD207220198811DA9
:103F300007A803F0A7FB0122019810F10D010DF174
:103F4000030003F09FFB0122019810F115010DF110
:103F50001A0003F097FBFFB2002F40F0A880012762
:103F600018F1010868202070641CBDF808000128C1
:103F70000CD1BDF81090ADF80090BDF800001121F3
:103F800048430A30800050F0030A39E01FFA88F8ED
:103F9000B8F1010F0CD15FF00A09ADF80090BDF83F
:103FA0000000112148430A30800050F0030A27E046
:103FB000BDF808001FFA88F8804515D19DF8020069
:103FC000002804D15FF00A09ADF8009003E09DF8E5
:103FD0000290ADF80090BDF80000112148430A306E
:103FE000800050F0030A0BE05FF00A09ADF8009082
:103FF000BDF80000112148430A30800050F0030A48
:10400000A4F800A0A41CA4F800A0A41C68202070A0
:10401000641C88202070641CDFF87408007820700D
:10402000641CDFF86C0840782070641CDFF86008BE
:1040300080782070641CDFF85808C0782070641CF9
:10404000DFF84C0800792070641C0A202070641C82
:10405000BDF80800012806D19DF8380050F0600036
:104060002070641C1CE01FFA88F8B8F1010F06D11B
:104070009DF8380050F040002070641C10E0BDF83E
:1040800008001FFA88F8804506D19DF8380050F0E6
:1040900020002070641C03E09DF838002070641C30
:1040A00006202070641C9DF82C002070641C0020E9
:1040B0002070641C00202070641C5FF0000B08E07E
:1040C0005FFA8BFB07A81BF800002070641C1BF133
:1040D000010B5FFA8BFBBBF1070FF1DB5FF0000B0D
:1040E00008E05FFA8BFB09A81BF800002070641C35
:1040F0001BF1010B5FFA8BFBBBF1060FF1DB00201C
:104100002070641C01202070641CB9F101091FFAA1
:1041100089F9B9F1000F7FF4FCAE0027BDF800006B
:104120001121484310F10A0189B20598801DFCF75E
:1041300081FA2070641C16202070641C9DF83400E5
:1041400000283FF4D6AEBDF800001121484310F11D
:10415000120189B2059801F061FCD4E6002531E036
:1041600003220198C11C01A803F08CFA761CBDF84B
:104170001200B6B2864224D207220198811D07A8F8
:1041800003F080FA0122019810F10D010DF10300F6
:1041900003F078FA072207A90C9800F056FE0128D0
:1041A000DED19DF803009DF82C108842D8D1012261
:1041B000019810F115010DF11A0003F063FA5FF098
:1041C00001086D1C5FFA88F8B8F1000F1BD1BDF82B
:1041D0000A00ADB2854216D206220398811D09A8B5
:1041E00003F050FA0322039810F10C0101A803F028
:1041F00049FA0222039810F112010DF1120003F0A6
:1042000041FA0026B3E75FFA88F8B8F1000F76D0DC
:1042100068202070641C6F202070641C00202070B7
:10422000641C6F202070641C00202070641C6820B7
:104230002070641C88202070641CDFF8540600780D
:104240002070641CDFF8480640782070641CDFF89A
:10425000400680782070641CDFF83406C078207037
:10426000641CDFF82C0600792070641C0A20207082
:10427000641C9DF8380050F060002070641C06201B
:104280002070641C9DF82C002070641C002020709D
:10429000641C00202070641C002505E0ADB207A856
:1042A000285C2070641C6D1CADB2072DF6DB002568
:1042B00005E0ADB209A8285C2070641C6D1CADB28D
:1042C000062DF6DB00202070641C01202070641C89
:1042D0001B210598801DFCF7ADF92070641C162089
:1042E0002070641C9DF83400002804D02321059818
:1042F00001F094FB03E02321059800F04AFF06AA91
:104300000599DFF8980500F038FD0FB0BDE8F08F93
:10431000A0F01F00A5F01F00F8B504000D0000A9D3
:10432000DFF8780500F006FD0700002F53D03E00AF
:10433000682038707F1C272038707F1C0020387060
:104340007F1C272038707F1C002038707F1C68205D
:1043500038707F1C882038707F1CDFF834050078A7
:1043600038707F1CDFF82805407838707F1CDFF834
:104370002005807838707F1CDFF81405C07838700D
:104380007F1CDFF80C05007938707F1C0A2038701C
:104390007F1C55F0600038707F1C032038707F1C34
:1043A0000921B01DFCF746F938707F1C16203870C3
:1043B0007F1CE4B2002C04D01121300001F02EFB50
:1043C00003E01121300000F0E4FE00AA3100DFF824
:1043D000CC0400F0D2FCF1BD3C0100203F010020E4
:1043E000410100202DE9F04182B004000D000027BA
:1043F00000265FF0000800A9DFF8A00400F09AFC96
:104400000700002F70D03E00682038707F1C3F20CE
:1044100038707F1C002038707F1C3F2038707F1C54
:10442000002038707F1C682038707F1C882038700E
:104430007F1CDFF85C04007838707F1CDFF85004C4
:10444000407838707F1CDFF84804807838707F1C13
:10445000DFF83C04C07838707F1CDFF83404007942
:1044600038707F1C0A2038707F1C55F0600038704F
:104470007F1C022038707F1CDFF830040078387011
:104480007F1CDFF82C04007838707F1CDFF82404D0
:10449000007838707F1CDFF82004007838707F1CAB
:1044A000B846DFF818040088A8F8000018F10208E0
:1044B00047460F21B01DFCF7BDF838707F1C162051
:1044C00038707F1CE4B2002C04D01721300001F0BA
:1044D000A5FA03E01721300000F05BFE00AA3100CE
:1044E000DFF8B80300F049FCBDE8F381F8B504003B
:1044F0000D000027002600A9DFF8A00300F01AFC39
:104500000700002F51D03E00682038707F1C2B2000
:1045100038707F1C002038707F1C2B2038707F1C67
:10452000002038707F1C682038707F1C882038700D
:104530007F1CD748007838707F1CD5484078387089
:104540007F1CD348807838707F1CD148C078387081
:104550007F1CCF48007938707F1C0A2038707F1C80
:1045600055F0600038707F1C0C2038707F1CD448D8
:10457000007838707F1C0A21B01DFCF75BF838709A
:104580007F1C162038707F1CE4B2002C04D012214E
:10459000300001F043FA03E01221300000F0F9FD91
:1045A00000AA3100BD4800F0E8FBF1BD344B00200B
:1045B000F8B504000D000027002600A9B74800F058
:1045C000B9FB0700002F51D03E00682038707F1CD7
:1045D0002B2038707F1C002038707F1C2B203870F7
:1045E0007F1C002038707F1C682038707F1C88205A
:1045F00038707F1CA648007838707F1CA44840782B
:1046000038707F1CA248807838707F1CA048C07822
:1046100038707F1C9E48007938707F1C0A203870E3
:104620007F1C55F0600038707F1C0E2038707F1C96
:10463000A448007838707F1C0A21B01DFBF7FAFFF0
:1046400038707F1C162038707F1CE4B2002C04D018
:104650001221300001F0E2F903E01221300000F0F5
:1046600098FD00AA31008D4800F087FBF1BDF8B538
:1046700004000D000027002600A9884800F05AFB1E
:104680000700002F51D03E00682038707F1C2B207F
:1046900038707F1C002038707F1C2B2038707F1CE6
:1046A000002038707F1C682038707F1C882038708C
:1046B0007F1C7748007838707F1C754840783870C8
:1046C0007F1C7348807838707F1C7148C0783870C0
:1046D0007F1C6F48007938707F1C0A2038707F1C5F
:1046E00055F0600038707F1C112038707F1C7648B0
:1046F000007838707F1C0A21B01DFBF79BFF3870D3
:104700007F1C162038707F1CE4B2002C04D01221CC
:10471000300001F083F903E01221300000F039FD90
:1047200000AA31005D4800F028FBF1BDF8B5040097
:104730000D000027002600A9584800F0FBFA0700EA
:10474000002F51D03E00682038707F1C2B2038701D
:104750007F1C002038707F1C2B2038707F1C0020AD
:1047600038707F1C682038707F1C882038707F1C50
:104770004748007838707F1C4548407838707F1C67
:104780004348807838707F1C4148C07838707F1C5F
:104790003F48007938707F1C0A2038707F1C55F024
:1047A000600038707F1C122038707F1C47480078EA
:1047B00038707F1C0A21B01DFBF73CFF38707F1C4E
:1047C000162038707F1CE4B2002C04D01221300077
:1047D00001F024F903E01221300000F0DAFC00AA15
:1047E00031002E4800F0C9FAF1BD0000000C014074
:1047F000174D00201FB500241BE08021344801F034
:1048000053FE02AA0021642000F0B2FD802130484E
:1048100001F047FE02AA0021642000F0A9FD641CFB
:10482000A4B2642CE9DB00244FF48041294801F054
:104830003BFE02A8019003A800904FF4847300226D
:104840000121254803F05BFD02AA00214FF4FA7014
:1048500000F08EFD4FF400511E4801F017FE0028B5
:10486000E7D04FF480411B4801F01BFE0020FCF70D
:1048700018FA0020FCF72EFA0020FCF742FA00207C
:10488000FCF756FA002015490870C9E7264D0020AC
:104890007C000020234D0020274D0020544C002098
:1048A000A3F01F00B3F01F007CD100089800002087
:1048B0009700002096000020950000209000002026
:1048C00093000020184D002092000020940000204A
:1048D000000C014000100140384C0020284D002001
:1048E0002DE9F04106000F0090461C000025DFF87E
:1048F000BC020078002803D042F6E16020802BE063
:10490000002E03D145F6C350208025E01FFA88F819
:10491000B8F1000F03D146F2945020801CE001F062
:104920003BFD0500DFF8880230607760414689B2C0
:1049300016F1140004F06FF816F1080004F08CFB77
:10494000DFF870020088401CDFF868120880280039
:1049500001F026FD00202080BDE8F0812DE9F04F18
:1049600089B004000D0016001F005FF00008DDF89C
:104970004C908E480078002805D046F2AE10A9F879
:1049800000000020C6E0002C05D145F6C350A9F870
:1049900000000020BEE0002F05D146F2D520A9F886
:1049A00000000020B6E0B6B23000002802D0B0F51A
:1049B000004F1FD120687E49884221D1DDF848A0F0
:1049C000BAF1000F02D00020CAF8000001F0E4FCA8
:1049D00080464B465246390014F1140004F025F885
:1049E0008346B9F80000002810D1404601F0D8FCF9
:1049F00058468FE045F62560A9F80000002089E0C0
:104A000045F6C450A9F80000002083E0300408D522
:104A1000404601F0C5FC46F2B010A9F800000020A5
:104A200078E065480078002808D0404601F0B8FCDE
:104A300046F66350A9F8000000206BE02B00052229
:104A4000210000A804F0A4FA404601F0A9FC04F0FB
:104A500087F901F0A1FC80465848006890F83500BD
:104A6000002805D0022838D017D3032826D045E0E7
:104A700052480068D0F85CB050480068B0F8600058
:104A80003880BAF1000F04D04C480068006CCAF8B6
:104A900000000020A9F8000038E05FF0000B0020C3
:104AA0003880BAF1000F04D044480068006CCAF89E
:104AB000000046F2A910A9F8000027E05FF0000B03
:104AC00000203880BAF1000F02D00020CAF80000A0
:104AD00047F2D920A9F8000018E05FF0000B002091
:104AE0003880BAF1000F04D034480068006CCAF86E
:104AF000000045F6C250A9F8000007E05FF0000B87
:104B00000020388046F62E60A9F80000404601F0EB
:104B100047FC584609B0BDE8F08F2DE9FC4105007F
:104B20000E0017009846089C002D03D145F6C3508F
:104B300020802AE01FFA88F84046002815D0102867
:104B400013D0B0F5007F10D0B0F5047F0DD0B0F5D4
:104B5000004F0AD048F21001884206D0B0F5024F4B
:104B600003D048F21021884211D1286810498842A8
:104B700011D104F0C2FC0194009043469BB23A006C
:104B800092B23100280000F01BF8BDE8F38145F631
:104B900025602080F9E745F6C4502080F5E7002124
:104BA000044A11800021018070470000194D002047
:104BB000515545550E4D00201E4D0020F04C002053
:104BC0002DE9F04F83B004000D0016001F005FF0C8
:104BD000000A01F0E1FB824614F10800DDF83080A4
:104BE000DDF834900189002914D1F80601D400239E
:104BF00000E01023CDF80490CDF800809BB2320085
:104C000092B2290014F1140003F047FF504601F05E
:104C1000C7FB25E0B90502D5B0F808B001E05FF0A8
:104C2000010B00680DE0816840680190CDF80080BC
:104C300033009BB22A00200004F084FA0198BBF1F3
:104C4000010B1FFA8BFBBBF1000FECD1504601F0BA
:104C5000A7FB380401D404F083F80020A9F8000071
:104C6000BDE8F78F2DE9F84305000E0017009846C0
:104C70000020DDF8249058490978002904D045F235
:104C8000B960A9F8000053E0002F04D145F2BB60E1
:104C9000A9F800004CE01FFA88F8B8F1020F04DA16
:104CA00045F2BC60A9F8000042E0089CA4B2042CC4
:104CB00004D245F2C160A9F8000039E003200028C1
:104CC0000FD0074204D045F2BB60A9F800002FE0E6
:104CD000210089B2014204D045F2C160A9F8000068
:104CE00026E03B003A00B8F10101002004E0A4B244
:104CF000A2181A601300401C80B289B28842F6D311
:104D00000020186001F048FB34492960AE606F60F4
:104D1000EF60A5F81480A5F812802C82304909882C
:104D2000491C2F4A118001F03BFB0020A9F800002C
:104D3000BDE8F18370B505000C000020002D04D102
:104D400045F2BF602080002016E001F025FBA98A13
:104D5000002906D101F024FB45F2C260208000202A
:104D60000AE0EE683168E960A98A491EA98201F06B
:104D700017FB00202080300070BD70B505000E00CC
:104D800014000020002D03D145F2BF6020801BE0FD
:104D9000002E03D145F2BE60208015E001F0FCFA40
:104DA000A98A6A8A914205D301F0FAFA45F2BA60FB
:104DB000208009E0E9683160EE60A98A491CA98277
:104DC00001F0EEFA0020208070BD0021044A11801D
:104DD0000021018070470000194D00204D454D20F5
:104DE0000A4D002080B50A00002100F001F801BD45
:104DF00030B4002A27D0002825D00023002403E067
:104E00001B02C9B20B43641C042CF9D30425B0FB6C
:104E1000F5F404FB1504E4B2002C08D003E00170A3
:104E2000401C521E641C002A01D0042CF7D302E05F
:104E30000360001D121F042AFAD202E00170401C18
:104E4000521E002AFAD130BC704770B41300002BF8
:104E500001D1012052E0002801D100204EE00029BC
:104E600001D100204AE00122181859180425B0FB8E
:104E7000F5F404FB1504E4B20426B1FBF6F505FBDA
:104E80001615EDB2AC4201D1012500E00025EDB2CE
:104E9000012D2CD1002C10D008E0401E491E0578B1
:104EA0000E78B54200D000225B1E641ED2B2012AE9
:104EB00003D1002B01D0002CEFD1D2B2012A16D1A0
:104EC00007E0001F091F04680D68AC4200D00022F3
:104ED0001B1FD2B2012A01D1042BF2D207E0401EDF
:104EE000491E04780D78AC4200D000225B1ED2B27D
:104EF000012A01D1002BF2D11000C0B270BC704762
:104F000080B52021DFF8300404F0A1FB00281CD07C
:104F1000DFF8240404F097FBDFF820140968002967
:104F200013D0DFF81C140968DFF810241268891AFE
:104F3000FF290ADADFF8081409680870DFF80004AE
:104F40000068401CDFF8F81308604021DFF8E80330
:104F500004F07DFB002810D040F22661DFF8D80372
:104F600004F0B4FB00AA0021DFF8D80301F05BF8DD
:104F7000BDF80000002800D000BF01BD30B583B0EF
:104F80002021DFF8C40304F062FB002824D0DFF8FE
:104F9000B80304F058FB040001A9DFF8B003FFF7E1
:104FA000C9FE0500BDF80400002814D12C7001A82A
:104FB0000090002301222900DFF89403FFF7ADFDE4
:104FC000BDF80400002807D001AA2900DFF87C03FF
:104FD000FFF7D3FE00E000BF4021DFF86C0304F0D0
:104FE00036FB002810D040F22661DFF85C0304F0A5
:104FF0006DFB01AA0021DFF85C0301F014F8BDF895
:105000000400002800D000BF37BD000030B583B0D9
:105010002021D14804F01BFB002827D040F2255165
:10502000CD4804F021FB002820D0CB4804F00BFB36
:10503000040001A9C548FFF77DFE0500BDF8040086
:10504000002812D12C7001A8009000230122290011
:10505000BF48FFF762FDBDF80400002806D001AA92
:105060002900BA48FFF789FE00E000BF4021BA4896
:1050700004F0EDFA00280ED040F22661B64804F0A4
:1050800025FB01AA0021B54800F0CDFFBDF80400C2
:10509000002800D000BF37BD70B584B004000D00FB
:1050A000AF480078AA283ED1012240F22661AA48E2
:1050B00004F09CFA002240F22551A74804F096FA29
:1050C000002612E00020ADF8040001A8009002AB19
:1050D00000224FF4FA71A14800F0EBFEB6B2315D48
:1050E00089B29D4804F0ABFA761CB6B2ADB2AE42BE
:1050F000E8D3002240F22661974804F077FA402175
:10510000954804F0A4FA0028F9D02021924804F030
:105110009EFA914804F097FA012240F225518E48F8
:1051200004F064FA32E004218E4801F0BAF9012259
:1051300040F22661844804F059FA002612E000206B
:10514000ADF8040001A8009002AB00224FF4FA7100
:10515000804800F0AEFEB6B2315D89B27A4804F004
:105160006EFA761CB6B2ADB2AE42E8D3002240F27F
:105170002661754804F03AFA4021734804F067FA52
:105180000028F9D00421774801F08EF9012004B0FD
:1051900070BD70B584B004000D000421714801F0A9
:1051A00080F9012240F22661674804F01FFA0026C8
:1051B00012E00020ADF8040001A8009002AB00222C
:1051C0004FF4FA71634800F074FEB6B2315D89B2F3
:1051D0005D4804F034FA761CB6B2ADB2AE42E8D304
:1051E000002240F22661584804F000FA4021564857
:1051F00004F02DFA0028F9D004215A4801F054F99E
:10520000012004B070BD70B584B004000D0001220F
:1052100040F22661484804F0E9F9002606E0B6B2FB
:10522000315D89B2444804F00AFA761CB6B2ADB2D8
:10523000AE420DD201A8009002AB00226421414889
:1052400000F037FEBDF804000028E8D0002006E09A
:10525000002240F22661384804F0C8F9012004B069
:1052600070BD10B584B00400012240F226613248BE
:1052700004F0BCF940F226612F4804F027FA05E05B
:10528000217889B22C4804F0DAF9641C20780028CF
:105290000DD001A8009002AB00226421294800F043
:1052A00008FEBDF804000028EAD0002006E0002235
:1052B00040F22661204804F099F9012004B010BDA5
:1052C00038B50400002501F067F805001C480460AB
:1052D0001A480460280001F063F8012032BD80B54F
:1052E0000021C0B2002809D001F056F801000120C9
:1052F0001D4A1070080001F053F808E001F04CF866
:1053000001000020184A1070080001F049F801203F
:1053100002BD80B54FF4005004F02EFA002809D0E9
:1053200000AB00220121114803F0EFF94FF40050C7
:1053300004F034FA01BD000000380140044D0020A3
:10534000004D0020744B0020004800406C4C0020B1
:10535000804A0020904B002000440040AC4B0020CD
:1053600093000020000C0140174D0020384C002015
:10537000F8B505000E0014000027DFF8E000007803
:10538000002803D047F27520208040E0DFF8D000ED
:105390000078002803D046F66350208037E0B6B28C
:1053A0003000002805D0022803D004281FD0082888
:1053B0001ED1002D03D147F27E20208027E000F08F
:1053C000EBFF07000120DFF89C10096881F8360028
:1053D0002300320092B229002248006804F064FAE7
:1053E0002088002808D0380000F0DAFF0FE0E6E758
:1053F00045F6256020800AE01A48006803F08CFF1B
:10540000380000F0CDFF03F0ABFC00202080F1BDA0
:1054100010B582B004F075FC00AA0021124804F017
:10542000D9FE0400114800780C21114A01FB00202C
:1054300003F0A0FF0F480068401E0E4908600D48A9
:105440000068002808D10C4800680A49086000AAD2
:1054500000210A4804F0BEFE13BD0000194D0020D3
:105460001E4D0020F04C0020644700201B4D002002
:10547000DC3E0020EC4C0020E84C002018480020C6
:1054800038B50C001500FFF7ECFE2000FFF718FF01
:1054900000AA00212800FFF76BFFDFF82C07046843
:1054A0000020FFF70DFF200032BD02E00D22027048
:1054B000401C0278002A01D18842F7D3704738B5E2
:1054C0000024002500A9DFF80407FFF733FC0400DF
:1054D000BDF80000002826D125004FF4807200217D
:1054E0002800FFF785FC64222900DFF8E406406805
:1054F000FFF7C6FF040021002800FFF7D6FFB1A187
:10550000280000F033FC002807D000AA2900DFF8AB
:10551000BC06FFF732FC012006E000AA2900DFF8F4
:10552000AC06FFF72AFC002032BD70B582B0002522
:10553000002600A9DFF89406FFF7FCFB0500BDF884
:105540000000002835D12E00002400E0641CE4B2E5
:10555000642C28DAE4B2002C04D000AA0021C82070
:10556000FFF706FF4FF4807200213000FFF740FC88
:1055700064223100DFF858068068FFF781FF0500DC
:1055800029003000FFF791FFDFF84816300000F0E7
:10559000EDFB0028DAD000AA3100DFF83006FFF773
:1055A000ECFB012006E000AA3100DFF82006FFF73F
:1055B000E4FB002076BD2DE9F84F002400250026ED
:1055C00000275FF000085FF000095FF0000A00A903
:1055D000DFF8F805FFF7AEFB8146BDF800000028B4
:1055E0005AD1CA465FF0000B02E000241BF1010B08
:1055F0005FFA8BFBBBF1640F48DA5FFA8BFBBBF100
:10560000000F04D000AA0021C820FFF7B1FE4FF41C
:10561000807200215046FFF7EBFB64225146DFF811
:10562000B005C068FFF72CFF814649465046FFF79A
:105630003CFFB7A1504600F099FB0028D5D03A2294
:105640004FF48071504600F069FB851C280004F07F
:10565000F5FE06002C224FF48071504600F05EFBF0
:10566000471C380004F0EAFE8046F6B2062E0BDB3B
:10567000641CE4B2072CB9DB00AA5146DFF84C05E4
:10568000FFF77BFB012008E00024AFE700AA5146AA
:10569000DFF83805FFF771FB0020BDE8F28F70B529
:1056A00082B00025002600A9DFF82005FFF742FBA5
:1056B0000500BDF8000000283CD12E00002400E0C9
:1056C000641CE4B2642C2FDAE4B2002C04D000AAEB
:1056D0000021C820FFF74CFE4FF4807200213000FB
:1056E000FFF786FB64223100DFF8E4040069FFF76E
:1056F000C7FE050029003000FFF7D7FEDFF8D814F9
:10570000300000F033FB002806D1DFF8D014300061
:1057100000F02CFB0028D3D000AA3100DFF8AC0445
:10572000FFF72BFB012006E000AA3100DFF89C0404
:10573000FFF723FB002076BD70B582B00025002660
:1057400000A9DFF88804FFF7F5FA0500BDF80000AE
:10575000002835D12E00002400E0641CE4B2642C43
:1057600028DAE4B2002C04D000AA0021C820FFF7F8
:10577000FFFD4FF4807200213000FFF739FB6422F7
:105780003100DFF84C044069FFF77AFE050029007C
:105790003000FFF78AFEDFF84814300000F0E6FA28
:1057A0000028DAD000AA3100DFF82004FFF7E5FA7C
:1057B000012006E000AA3100DFF81004FFF7DDFA4F
:1057C000002076BD4F4B000038B50024002500A90D
:1057D000DFF8F803FFF7AEFA0400BDF80000002878
:1057E00026D125004FF4807200212800FFF700FB2E
:1057F00064222900DFF8D8038069FFF741FE040026
:1058000021002800FFF751FEA4A1280000F0AEFA05
:10581000002807D000AA2900DFF8B003FFF7ADFA8F
:10582000012006E000AA2900DFF8A003FFF7A5FA8F
:10583000002032BD38B50024002500A9DFF88C0314
:10584000FFF778FA0400BDF80000002824D12500F5
:105850004FF4807200212800FFF7CAFA6422290061
:10586000DFF86C03C069FFF70BFE0400210028007D
:10587000FFF71BFE89A1280000F078FA002806D067
:1058800000AA2900D148FFF778FA012005E000AA14
:105890002900CE48FFF771FA002032BD70B582B002
:1058A0000025002600A9C948FFF744FA0500BDF805
:1058B000000000282AD12E00002400E0641CE4B27D
:1058C000642C1EDA4FF4807200213000FFF790FA4A
:1058D0004FF4FA623100BE48006AFFF7D1FD0500BF
:1058E00029003000FFF7E1FD6CA1300000F03EFA26
:1058F0000028E3D000AA3100B448FFF73EFA0120A7
:1059000005E000AA3100B148FFF737FA002076BD64
:105910004353510070B582B00025002600A9AB4862
:10592000FFF708FA0500BDF80000002831D12E006D
:10593000002400E0641CE4B2642C25DAE4B2002CFC
:1059400004D000AA0021C820FFF712FD4FF4807296
:1059500000213000FFF74CFA642231009C48406A75
:10596000FFF78EFD050029003000FFF79EFD93A193
:10597000300000F0FBF90028DCD000AA3100934889
:10598000FFF7FBF9012005E000AA31008F48FFF77F
:10599000F4F9002076BD38B50024002500A98B4815
:1059A000FFF7C8F90400BDF80000002834D1250035
:1059B0004FF4807200212800FFF71AFA8448806AA9
:1059C000FFF74FFC8748FFF74CFC8748FFF749FC7F
:1059D0002000FFF775FC00AA002140F6B830FFF761
:1059E000C7FC794804680020FFF76AFC2100280002
:1059F000FFF75BFD7D49280000F0B8F9002806D0CC
:105A000000AA29007148FFF7B8F9012005E000AAB3
:105A100029006E48FFF7B1F9002032BD30B585B0DE
:105A200004000D0001A8009002AB00224FF47A712F
:105A30006F4800F0DDFDBDF80400002801D0002013
:105A400029E0ADB22A005EA103A802F00BFC604879
:105A5000C06AFFF706FC03A8FFF703FC59A0FFF795
:105A600000FC01A8009002AB00224FF47A7161485B
:105A700000F01FFABDF80400002801D000200AE061
:105A8000290089B22000FFF7BEFB01AA0021584877
:105A900000F0BCFE012005B030BD00004F4B0000FF
:105AA00080B5FFF70CFD002801D1002039E0FFF799
:105AB0003CFD002801D1002033E0FFF77CFD0028E9
:105AC00001D100202DE0FFF7EAFD002801D10020E0
:105AD00027E0FFF731FE002801D1002021E0FFF789
