S00C0000546573742E7372656378
S31508000000D04E00202DB40008C3B20008C5B20008BF
S31508000010C7B20008C9B20008CBB200080000000049
S31508000020000000000000000000000000CDB200083B
S31508000030CFB20008000000004B980008D1B20008B3
S31508000040F9B50008FDB5000801B6000805B60008B0
S3150800005009B600080DB60008F1B2000811B6000886
S3150800006015B6000819B600081DB6000821B600081E
S3150800007025B6000829B600082DB6000831B60008CE
S3150800008035B6000839B600083DB6000841B600087E
S3150800009045B6000849B600084DB6000851B600082E
S315080000A055B6000859B600085DB6000861B60008DE
S315080000B065B6000869B600086DB6000871B600088E
S315080000C075B6000879B600087DB6000881B600083E
S315080000D085B60008D9B20008E1B20008E9B20008FE
S315080000E089B600088DB6000891B60008F0B585B047
S315080000F000260FE0DFF8100C007801280AD1DFF897
S315080001000C0C0068DFF8081C08600020DFF8F81BF4
S315080001100870002602A8019003A800900DF10A03B2
S315080001200022C821DFF8EC0B03F096FC0100BDF8AD
S31508000130080047F2D9229042DCD00F7802AADFF8ED
S31508000140D80B03F098FEDFF8C80B006800281AD110
S3150800015002A9DFF8C80B03F06BFEDFF8B41B0860D2
S31508000160BDF80800002800D000BFDFF8A40B00681F
S31508000170DFF8981B08604FF480720021DFF88C0BBB
S31508000180006803F0B3FEDFF8980B0078002878D0F3
S31508000190DFF8740B0078002810D1FFB2682FB9D1A8
S315080001A0DFF86C0B0068411CDFF8642B11600770E0
S315080001B000260120DFF8501B0870ABE7DFF8500B6C
S315080001C00068411CDFF8482B11600770DFF8400B08
S315080001D00068DFF8381B0968401A0B2805D1DFF8D4
S315080001E02C0B0068807A10F10D06F6B2002E91D01D
S315080001F0DFF81C0B0068DFF8141B0968401AF6B212
S31508000200B04287DBDFF8080B006810F8010C1628E7
S315080002102BD1DFF8FC0A0768F6B2B11E89B2DFF8FF
S31508000220EC0A006800F011F917F8021CC0B2814206
S315080002307FF470AF02A800900023F6B2320092B2A3
S31508000240DFF8C80A0168DFF8DC0A03F0E4FC0020DE
S31508000250DFF8B81A08600020DFF8B41A0860002032
S31508000260DFF8A41A0870002654E7DFF8A00A006829
S31508000270DFF89C1A08600020DFF88C1A0870002640
S3150800028048E7DFF8840A0078002813D1FFB2682F00
S315080002907FF440AFDFF8780A0068411CDFF8702A5F
S315080002A0116007700026012400250120DFF8581A7E
S315080002B008702FE7DFF8580A0068411CDFF8502A53
S315080002C011600770EDB2002D39D1641CE4B2062C1A
S315080002D07FF420AFDFF8340A00684079682820D117
S315080002E0DFF8280A0068B0F80100DFF8201A096864
S315080002F0B1F8031080B289B2884204D1012580B2D0
S315080003008608083606E70020DFF8FC19087000267C
S3150800031000240025DFF8F4090068DFF8F4190860FE
S31508000320F8E60020DFF8E01908700026002400250A
S31508000330DFF8D8090068DFF8D8190860EAE6F6B2E7
S31508000340002E3FF4E7AEDFF8C8090068DFF8BC19ED
S315080003500968401AF6B2B042FFF6DCAEDFF8B0091B
S31508000360006810F8010C162861D1DFF8A4090468A2
S31508000370F6B2B6F1080189B2DFF890090068801D67
S3150800038000F063F814F8021CC0B2814241D1DFF8CC
S315080003907C090068007B032806D0042817D00A28A1
S315080003A002D00B2813D024E00020DFF8641909686E
S315080003B0087002A800900023F6B2320092B2DFF865
S315080003C04C090168DFF8CC0B03F025FC11E000208E
S315080003D0DFF83C190968087002A800900023F6B2F5
S315080003E0320092B2DFF824090168DFF8AC0B03F09B
S315080003F012FC0020DFF8141908600020DFF8101935
S3150800040008600020DFF8001908700026002400257F
S3150800041080E6DFF8F8080068DFF8F41808600020BE
S31508000420DFF8E418087000260024002572E6DFF8D5
S31508000430DC080068DFF8D81808600020DFF8C8185C
S31508000440087000260024002564E610B40022002364
S3150800045003E09BB21C5CA2185B1C9BB289B28B4260
S31508000460F7D31000C0B210BC7047000030B583B097
S31508000470002000210022002400250FE02C004FF464
S3150800048080720021280003F031FD280003F060FF88
S3150800049001AA0021DFF8040B04F09DF8DFF8000B31
S315080004A00078012840F0A180002C14D101A9DFF8BA
S315080004B06C0803F0BDFC040025004FF4807200218F
S315080004C0280003F013FDBDF80400002800D000BF83
S315080004D0280003F03DFFDFF8CC0A0068DFF8C81AE9
S315080004E00968401A01287ADB01AA0021042004F0D1
S315080004F01DF9DFF8B00A04682100280004F071FA33
S31508000500A5A1280004F0CCFE0028B7D1DFF89C1A74
S31508000510280004F0C5FE00280ED001A8009000238C
S31508000520621B92B22900DFF8880A03F074FB0024E4
S31508000530002003F00DFFB1E7DFF8781A280004F071
S31508000540AFFE002810D02C004FF48072002128003E
S3150800055003F0CCFC002004000025002003F0F8FE80
S31508000560002004F0B7FD99E7DFF84C1A280004F0DC
S3150800057097FE002810D02C004FF480720021280026
S3150800058003F0B4FC002004000025002003F0E0FE80
S31508000590002004F09FFD81E7DFF8201A280004F008
S315080005A07FFE002810D02C004FF48072002128000E
S315080005B003F09CFC002004000025002003F0C8FE80
S315080005C0002004F087FD69E72C004FF480720021B3
S315080005D0280003F08BFC280003F0BAFE5EE701AAA8
S315080005E00021042004F0A2F858E7002C10D04FF49C
S315080005F080720021280003F079FC01AA2900DFF89F
S315080006001C0703F038FC00240025002003F0A0FE98
S31508000610002004F011FD012004F00EFD04F0CAFCD0
S315080006203CE72DE9FF41002600240020ADF80A002A
S315080006305FF000080025002705E002AA2100DFF880
S31508000640DC0603F018FC02A8019003A800900DF13F
S315080006500A0300220021DFF8580903F0FDF9040017
S31508000660B5A1200004F01CFE10F10208404600F077
S3150800067095F80700BFB2002FDFD098F80C000028C5
S315080006800CD0022828D0032827D0042841D00A28CD
S3150800069023D00B283DD00C28CFD0CEE798F80D00F4
S315080006A010F00F05DFF818090078EDB2854206D17B
S315080006B002AA0021DFF80C0903F08DFF0BE0DFF832
S315080006C008090078EDB2854205D102AA0021DFF8B3
S315080006D0FC0803F080FFB0E7AFE702A9DFF83C06A5
S315080006E003F0A6FB0600002E12D0BFB23A00414620
S315080006F0300004F03FFE0120BFB2B85502A80090B2
S3150800070000233A0092B23100DFF8880803F083FA32
S3150800071093E798F80D000F2101FB00F598F80E00F5
S31508000720052808D1DFF8A80805702900C9B20120F4
S3150800073002F048FB2EE0DFF898080078EDB2A842F0
S3150800074023D002A9DFF8D40503F072FB0600002EB9
S3150800075008D0BFB23A004146300004F00BFE012033
S31508000760BFB2B855DFF8680805702900C9B201207C
S3150800077002F028FB02A8009000233A0092B231004A
S31508000780DFF8140803F047FA04E02900C9B201208B
S3150800079002F018FB51E700000A3E000070B504009D
S315080007A0B4F80150B4F80300ADB280B2854214D152
S315080007B0ADB2AD08ADB228198679290089B2A01D57
S315080007C0FFF743FE864208D1ADB22819C07916282C
S315080007D003D115F10800C0B200E0002070BD10B5C5
S315080007E0002404F0DBFE0400DFF8680D0078401CE6
S315080007F0DFF8601D0870DFF85C0D007810F00F0058
S31508000800DFF8501D0870200004F0CCFE10BD30B58E
S3150800081089B0002409E002A8019000200090642312
S3150800082000220021002003F0D1FF04AD68202870C3
S315080008306D1C272028706D1C002028706D1C272031
S3150800084028706D1C002028706D1C682028706D1C8F
S31508000850C92028706D1CDFF8000D007828706D1C03
S31508000860DFF8F40C407828706D1CDFF8EC0C807803
S3150800087028706D1CDFF8E00CC07828706D1CDFF856
S31508000880D80C007928706D1C022028706D1CDFF8C2
S31508000890C40C007850F0700028706D1CDFF8B40C9A
S315080008A00078DFF81C170870FFF799FF03202870F7
S315080008B06D1C09210DF11600FFF7C7FD28706D1C88
S315080008C0162028706D1CDFF8D80600780028A2D0FC
S315080008D0002500E06D1CDFF8C8060078002818D04F
S315080008E0EDB2032D15DA0024112104A804F034FB17
S315080008F00028EFD002A8009003AB002241F288310D
S31508000900DFF8C00603F0ADFDBDF808000028E1D108
S315080009100124E4B2002C0AD002A80190002000901D
S31508000920002300220221002003F050FF7DE700206B
S3150800093004F0D0FB79E700000D0A680080B5C0B264
S3150800094000280CD0DFF8040E0078AA2803D101206D
S3150800095000F046F80FE0012000F05FF80BE0DFF842
S31508000960EC0D0078AA2803D1002000F039F802E03F
S31508000970002000F052F801BD1FB511E00120FFF775
S31508000980DDFFBDF80800015D200000F0C9F8002071
S31508000990FFF7D4FF0DF10A022100E04803F06BFAD5
S315080009A00DF10A00019003A8009002AB0022002175
S315080009B0DFF8E40503F050F80400207B042802D091
S315080009C00B28DBD0E6E70120FFF7B8FFBDF80800E3
S315080009D0015D200000F0C2FD0020FFF7AFFFD9E758
S315080009E0E0B5C0B2002811D04FF40051DFF8600D11
S315080009F004F059FE02A80190002000904FF4FA7303
S31508000A0001220021002003F0E1FE05E04FF4005129
S31508000A10DFF83C0D04F04AFE0EBDE0B5C0B2002872
S31508000A2010D04021DFF82C0D04F03DFE02A80190FD
S31508000A30002000904FF4167300220021002003F0D6
S31508000A40C5FE04E04021DFF80C0D04F02FFE0EBDB4
S31508000A50E0B5C0B200280FD00421DFF8FC0C04F082
S31508000A6022FE02A801900020009000230322002104
S31508000A70002003F0ABFE04E00421DFF8DC0C04F0F0
S31508000A8015FE0EBDE0B5C0B200280FD00221DFF872
S31508000A90C80C04F008FE02A801900020009000236C
S31508000AA003220021002003F091FE04E00221DFF872
S31508000AB0A80C04F0FBFD0EBDE0B5C0B200280FD0AF
S31508000AC00121DFF8940C04F0EEFD02A80190002045
S31508000AD00090002303220021002003F077FE04E0A3
S31508000AE00121DFF8740C04F0E1FD0EBDE0B5C0B2DB
S31508000AF000280FD08021DFF85C0C04F0D4FD02A892
S31508000B00019000200090002303220021002003F01A
S31508000B105DFE04E08021DFF83C0C04F0C7FD0EBD45
S31508000B202DE9F04188B004000D0000200090002057
S31508000B3001900020ADF80C000020ADF80A00002650
S31508000B40002700208DF808005FF000080222DFF871
S31508000B50E01D03A804F05CFF0322DFF8D81D00A8F7
S31508000B6004F056FFBDF80C00002862D0012003F0FF
S31508000B70FEFB0722DFF8C01D14F1100003F0E3F9AD
S31508000B80012859D100262BE007220198811D06A8C5
S31508000B9004F03EFF0122019810F10D0102A804F0AD
S31508000BA037FF2B00DBB29DF80820019906A800F054
S31508000BB0BBF803220198C11C01A804F029FF7F1C79
S31508000BC0BDF80A00BFB28742DED3009904A800F038
S31508000BD09CFD03220098C11C00A804F019FF761C8E
S31508000BE0BDF80C00B6B286421AD206220098811DBC
S31508000BF004A804F00DFF0322009810F10C0101A8C7
S31508000C0004F006FF0222009810F112010DF10A0005
S31508000C1004F0FEFE009904A800F056FD0027CFE771
S31508000C202A00D2B20021012000F0D4F9002003F0F6
S31508000C309EFB08B0BDE8F081002644E00322019837
S31508000C40C11C01A804F0E4FE7F1CBDF80A00BFB26F
S31508000C50874231D207220198811D06A804F0D8FEE2
S31508000C600122019810F10D0102A804F0D1FE072215
S31508000C7006A914F1100003F066F90128DED19DF8E3
S31508000C800800E17B8842D9D1009904A800F01CFD30
S31508000C902B00DBB29DF80820019906A800F044F85D
S31508000CA02A00D2B20199002000F094F9009904A80C
S31508000CB000F02BFD5FF0010803220098C11C00A874
S31508000CC004F0A6FE761C5FFA88F8B8F1000FADD1DD
S31508000CD0BDF80C00B6B28642A8D206220098811D3D
S31508000CE004A804F095FE0322009810F10C0101A84F
S31508000CF004F08EFE0222009810F112010DF10A008E
S31508000D0004F086FE0027A0E7CF4C0020A84C002060
S31508000D10A44C0020504A00201C4C0020044C002003
S31508000D20C14C0020984A00202DE9F0438BB00400FE
S31508000D300D00002600200021ADF80C1000275FF0FA
S31508000D40000800218DF808105FF0000907A98946F8
S31508000D50682189F8001019F1010989F8002019F1AC
S31508000D60010900210E0006E0F6B2305D89F80000A0
S31508000D7019F10109761CF6B2072EF5DB012089F870
S31508000D80000019F10109032089F8000019F1010989
S31508000D90DFF8880D0078FF280AD11F2089F800009F
S31508000DA019F10109902089F8000019F1010909E0F3
S31508000DB0902089F8000019F101091F2089F8000020
S31508000DC019F10109012089F8000019F101090E211C
S31508000DD007A8FFF73AFB89F8000019F10109162060
S31508000DE089F8000019F10109002608E00020F6B28A
S31508000DF005A970540020F6B204A97054761CF6B200
S31508000E00042EF3DB002617E0C0B2C119897BC0B2F5
S31508000E1005AA8154C0B2C119C97CC0B204AA8154BA
S31508000E20401CC0B20428EFDB0DF10A023900DFF8D6
S31508000E30400D03F020F8761C5FFA88F8B8F1000F29
S31508000E4031D1F6B2032E2EDA0421DFF8280D03F08D
S31508000E507AF9102107A803F076F90DF10A00019036
S31508000E6006A8009003AB00224FF49661DFF8080D40
S31508000E7002F0F2FD0700BDF80A00002805D0F6B218
S31508000E80022E01D15FF00008D5E70722B91C200021
S31508000E9003F059F80128C7D15FF00108F87F8DF8EB
S31508000EA008000020BDE70DF10A00009006AB0022FD
S31508000EB04FF47A71DFF8C40C05F028F94FF4805224
S31508000EC0280B4FF4805101FB00F1DFF8B40C04F055
S31508000ED09FFD5FFA88F8B8F1000F16D14FF48050DD
S31508000EE0B5FBF0F101FB1051DFF8940C0818807D72
S31508000EF050F040004FF48051B5FBF1F202FB11525D
S31508000F00DFF87C1C5118887529E0012202A94FF4E4
S31508000F108050B5FBF0F303FB1053DFF8640C181888
S31508000F20163004F027FA042205A94FF48050B5FBC1
S31508000F30F0F303FB1053DFF8480C18180E3004F0D2
S31508000F4019FA042204A94FF48050B5FBF0F303FB09
S31508000F501053DFF82C0C1818183004F00BFA280B6D
S31508000F604FF48051484304F011FC4FF48052280B8B
S31508000F704FF4805101FB00F1DFF8040C04F09EFCED
S31508000F800DF10A020021DFF8F40B05F0CDF90BB0DC
S31508000F90BDE8F083BC4A0020744A0020B04B00200C
S31508000FA0C04C0020AC4C0020B04C002070B50008A6
S31508000FB0E04A002078B5000880B5000888B5000822
S31508000FC0CB4C0020784B0020CC4C0020944B0020C2
S31508000FD0CE4C00202DE9F54F8DB000250020069057
S31508000FE05FF000090020ADF81C000020ADF81400E1
S31508000FF00020ADF816000020ADF8000000208DF89E
S3150800100008000020ADF80A000027002008900020FC
S31508001010039000208DF8070000208DF806000024B4
S315080010200020ADF812005FF0000A5FF0000800200B
S31508001030ADF8040000265FF0000B00208DF80000D4
S31508001040039104A9DFF8280B02F0F2FE0500002D33
S3150800105000F0C68006959DF83400002840F0C88048
S3150800106007220398811D0BA804F0D2FC01220398DD
S3150800107010F10D010DF1070004F0CAFC04220398D3
S3150800108010F10E0109A804F0C3FC0122039810F11F
S3150800109016010DF1060004F0BBFC682028706D1CD3
S315080010A0A9467320A9F8000019F102097320A9F8C6
S315080010B0000019F102094D46682028706D1C882029
S315080010C028706D1CDFF89004007828706D1CDFF816
S315080010D08804407828706D1CDFF87C0480782870B6
S315080010E06D1CDFF87404C07828706D1CDFF868047E
S315080010F0007928706D1C0B2028706D1CDFF85404CD
S31508001100007850F0600028706D1C042028706D1C53
S31508001110DFF840040078DFF86C1A0870FFF75FFB09
S31508001120002028706D1C002028706D1C0020287077
S315080011306D1C002028706D1C9DF8070028706D1C1A
S31508001140002405E0A4B20BA8205C28706D1C641C62
S31508001150A4B2072CF6DB012028706D1C002405E0DC
S31508001160A4B209A8205C28706D1C641CA4B2042CC7
S31508001170F6DB9DF8060028706D1C002028706D1C93
S315080011801C210698801DFFF760F928706D1C162033
S3150800119028706D1C9DF83800002824D05FF0000ADE
S315080011A001E01AF1010A5FFA8AFABAF1030F11DAB5
S315080011B02421069803F0D0FE04A800900AAB00226A
S315080011C041F28831DFF8C00903F04BF9BDF8100089
S315080011D00028E6D104AA0699DFF8940902F04BFE26
S315080011E00FB0BDE8F08F2421069803F018F8F1E750
S315080011F00222DFF83C170DF1160004F009FC022262
S31508001200DFF8881905A804F003FC0322DFF8241781
S3150800121008A804F0FDFBBDF814000A2190FBF1F0C4
S31508001220ADF80000BDF814000A2190FBF1F201FBAD
S3150800123012008DF808000027BDF80000ADF80A0076
S315080012409DF80800002804D0BDF80A00401CADF837
S315080012500A00002406E003220898C11C08A804F026
S31508001260D7FB641CBDF81600A4B28442B2D203228E
S31508001270089810F10C0103A804F0CAFB022208988A
S3150800128010F1120107A804F0C3FB0020ADF8120004
S3150800129015E0BDF804000E21484310F1160189B285
S315080012A0069802F0BCFF069D03220398C11C03A8FA
S315080012B004F0AEFBBDF81200401CADF81200BDF8F4
S315080012C01200BDF81C108842C5D207220398811D5A
S315080012D00BA804F09DFB0122039810F10D010DF1F6
S315080012E0070004F095FB0422039810F10E0109A8E3
S315080012F004F08EFB0122039810F116010DF1060089
S3150800130004F086FBF6B2002E40F0B58001267F1C5D
S31508001310BDF80A0001280CD1BDF81480ADF8048088
S31508001320BDF804000E2148430E30800050F0030B30
S3150800133036E0BFB2012F0CD15FF00A08ADF8048081
S31508001340BDF804000E2148430E30800050F0030B10
S3150800135026E0BDF80A00BFB2874215D19DF80800FD
S31508001360002804D15FF00A08ADF8048003E09DF870
S315080013700880ADF80480BDF804000E2148430E30FD
S31508001380800050F0030B0BE05FF00A08ADF804800C
S31508001390BDF804000E2148430E30800050F0030BC0
S315080013A0682028706D1CA946A9F800B019F1020931
S315080013B0A9F800B019F102094D46682028706D1C7D
S315080013C0882028706D1C6448007828706D1C624857
S315080013D0407828706D1C6048807828706D1C5E48BF
S315080013E0C07828706D1C5C48007928706D1C0B202D
S315080013F028706D1CBDF80A00012806D155480078EA
S3150800140050F0700028706D1C1BE0BFB2012F06D18A
S315080014105048007850F0500028706D1C11E0BDF857
S315080014200A00BFB2874206D14A48007850F0300019
S3150800143028706D1C05E04748007850F010002870A9
S315080014406D1C44480078DFF83C170870FFF7C7F9A9
S31508001450042028706D1CA946BDF80A00A9F80000EA
S3150800146019F10209A9F8007019F102094D469DF80B
S31508001470070028706D1C5FF0000A08E05FFA8AFA18
S315080014800BA81AF8000028706D1C1AF1010A5FFAF9
S315080014908AFABAF1070FF1DB012028706D1C5FF09C
S315080014A0000A08E05FFA8AFA09A81AF80000287004
S315080014B06D1C1AF1010A5FFA8AFABAF1040FF1DB18
S315080014C09DF8060028706D1C002028706D1CB8F168
S315080014D001081FFA88F8B8F1000F7FF4E5AE002678
S315080014E0BDF804000E21484310F10E0189B2069892
S315080014F0801DFEF7AAFF28706D1C162028706D1C2B
S315080015009DF8380000283FF4C4AE5FF0000A01E0F9
S315080015101AF1010A5FFA8AFABAF1030FBFF6C3AEE7
S31508001520BDF804000E21484310F1160189B2069849
S3150800153003F012FD04A800900AAB002241F288319C
S31508001540DFF8440602F08DFFBDF810000028DFD151
S31508001550A9E60000CD4C00207C0000202DE9F043D0
S3150800156089B004000D00002003900020029000209E
S31508001570ADF806000020ADF8100000260027002070
S315080015808DF804005FF000085FF000090222DFF81A
S31508001590A0130DF1060004F03BFA0322DFF89413BA
S315080015A003A804F035FABDF80600002800F0898083
S315080015B0012002F0DCFE002618E05FFA89F9CDF872
S315080015C000902B00DBB29DF80420029905A800F0D4
S315080015D0B5F9039907A800F098F85FF00108032207
S315080015E00398C11C03A804F013FA761C5FFA88F85E
S315080015F0B8F1000F62D1BDF80600B6B286425DD2D8
S3150800160006220398811D07A804F002FA032203980C
S3150800161010F10C0102A804F0FBF90222039810F15C
S31508001620120104A804F0F4F9002706E00322029840
S31508001630C11C02A804F0ECF97F1CBDF81000BFB26B
S315080016408742CCD207220298811D05A804F0E0F94A
S315080016500122029810F10D0101A804F0D9F9072218
S3150800166005A914F1100002F06EFC0128DED19DF8E0
S315080016700400E17B8842D9D1039907A800F024F831
S315080016800222029810F116010DF1120004F0C0F9B9
S31508001690607B0F2101FB00F9A07B02288DD003286F
S315080016A097D15FFA89F9CDF800902B00DBB29DF847
S315080016B00420029905A800F051F88AE7002002F0F4
S315080016C056FE09B0BDE8F08380B520490978AA29F5
S315080016D01AD10078012806D014D303280BD006D3D4
S315080016E004280CD00EE00120FFF7B2F90AE0012029
S315080016F0FFF7C8F906E00120FFF7DEF902E001204E
S31508001700FFF7F4F90120FFE702BD80B50F49097814
S31508001710AA291AD10078012806D014D303280BD099
S3150800172006D304280CD00EE00020FFF791F90AE052
S315080017300020FFF7A7F906E00020FFF7BDF902E051
S315080017400020FFF7D3F90120FFE702BD9200002031
S315080017500010014000080140000C01402DE9F04747
S315080017608AB004000D001E0000270020ADF80A000C
S315080017705FF000085FF0000900205FF0000A04A986
S315080017808A4668218AF800101AF1010A8AF80020A8
S315080017901AF1010A00210F0006E0FFB2385D8AF847
S315080017A000001AF1010A7F1CFFB2072FF5DB04209F
S315080017B08AF800001AF1010A04208AF800001AF1D2
S315080017C0010A17208AF800001AF1010AA0208AF8EF
S315080017D000001AF1010A01208AF800001AF1010A2C
S315080017E055208AF800001AF1010A0F2104A8FEF70D
S315080017F02CFE8AF800001AF1010A16208AF8000061
S315080018001AF1010A002707E05FF0000902AA41461B
S31508001810D74802F030FB7F1C5FFA89F9B9F1000F4F
S3150800182031D1FFB2032F2EDA0421D24802F08BFC05
S31508001830112104A802F087FC02A8019003A80090D1
S315080018400DF10A03002244F62061CB4802F004F9A0
S315080018508046BDF80800002805D0FFB2022F01D146
S315080018605FF00009D7E7072218F10201200002F00D
S315080018706AFB0128CAD198F80E0003210842C3D191
S315080018805FF00109C2E702A8009003AB00224FF4FB
S315080018907A71BA4804F03AFC4FF48052280B4FF498
S315080018A0805101FB00F1B64804F0B2F85FFA89F9F5
S315080018B0B9F1000F14D14FF48050B5FBF0F101FBDC
S315080018C01051AF480818807D50F040004FF4805101
S315080018D0B5FBF1F202FB1152A949511888750EE0C1
S315080018E000204FF48051B5FBF1F202FB1152A449D6
S315080018F05118887512993000C0B201F063FA280BA6
S315080019004FF48051484303F041FF4FF48052280BAF
S315080019104FF4805101FB00F1994803F0CFFF02AA6A
S315080019200021964804F000FD0AB0BDE8F0870000E3
S31508001930A3F01F00A0F01F0090B500082DE9F0479E
S315080019408AB004000D001E0000270020ADF80A002A
S315080019505FF000085FF0000900205FF0000A04A9A4
S315080019608A4668218AF800101AF1010A8AF80020C6
S315080019701AF1010A00210F0006E0FFB2385D8AF865
S3150800198000001AF1010A7F1CFFB2072FF5DB0420BD
S315080019908AF800001AF1010A04208AF800001AF1F0
S315080019A0010A17208AF800001AF1010AA0208AF80D
S315080019B000001AF1010A01208AF800001AF1010A4A
S315080019C099208AF800001AF1010A0F2104A8FEF7E7
S315080019D03CFD8AF800001AF1010A16208AF8000070
S315080019E01AF1010A002707E05FF0000902AA41463A
S315080019F05F4802F040FA7F1C5FFA89F9B9F1000FD7
S31508001A0038D1FFB2032F35DA04215A4802F09BFB7E
S31508001A10112104A802F097FB02A8019003A80090E0
S31508001A200DF10A03002244F62061534802F014F827
S31508001A308046BDF80800002805D0FFB2022F01D164
S31508001A405FF00009D7E7072218F10201200002F02B
S31508001A507AFA0128CAD198F80E00C0B210F002012D
S31508001A60C0B210F0010050EA61000028BCD05FF057
S31508001A700109BBE702A8009003AB00224FF47A7174
S31508001A803E4804F043FB4FF48052280B4FF4805134
S31508001A9001FB00F13A4803F0BBFF5FFA89F9B9F197
S31508001AA0000F14D14FF48050B5FBF0F101FB105133
S31508001AB033480818807D50F040004FF48051B5FB3C
S31508001AC0F1F202FB11522E49511888750EE00220D8
S31508001AD04FF48051B5FBF1F202FB11522849511817
S31508001AE0887512993000C0B201F06CF9280B4FF4D2
S31508001AF08051484303F04AFE4FF48052280B4FF4B6
S31508001B00805101FB00F11E4803F0D8FE02AA00210D
S31508001B101A4804F009FC0AB0BDE8F087C24C002058
S31508001B201FB50BE0BDF80800015D200001F0BEF806
S31508001B300DF10A0221000E4802F09DF90DF10A0086
S31508001B40019003A8009002AB00220021DFF8C40D23
S31508001B5001F082FF0400207B032802D00A28E1D086
S31508001B60E6E7BDF80800015D200000F011F8DFE7A0
S31508001B70044C002088000020984A0020044B0020CE
S31508001B8098000020CC4C0020944B0020B3F01F0096
S31508001B902DE9F04188B004000D0000260020ADF8BC
S31508001BA0060000200290002006905FF00008607B87
S31508001BB00F2101FB00F7A07B022812D0032800F0B2
S31508001BC0E780062800F02B81072800F05C810C28A6
S31508001BD000F098810D2800F0D1810E2800F00F82C0
S31508001BE04EE2A07CDFF8301D0870607CDFF82C1D03
S31508001BF00870207CDFF8281D0870E07BDFF8241DBC
S31508001C000870B4F81300DFF8201D08801121DFF8EA
S31508001C101C0D02F065F9062103A802F061F9A27C01
S31508001C20E9A103A804F026FC03A9DFF8000D03F0D8
S31508001C308EFAE6A1DFF8F40C03F089FA062103A868
S31508001C4002F04EF9627CE0A103A804F013FC03A994
S31508001C50DFF8D80C03F07BFADCA1DFF8D00C03F030
S31508001C6076FA062103A802F03BF9227CD6A103A83E
S31508001C7004F000FC03A9DFF8B40C03F068FAD3A15A
S31508001C80DFF8A80C03F063FA062103A802F028F986
S31508001C90E27BCDA103A804F0EDFB03A9DFF88C0CC9
S31508001CA003F055FA0821DFF8880C02F019F9062125
S31508001CB003A802F015F9B4F81320C3A103A804F089
S31508001CC0D9FBE2A1DFF8680C03F041FA03A9DFF8B3
S31508001CD0600C03F03CFADEA1DFF8540C03F037FA87
S31508001CE001A8009005AB00224FF47A71DFF8440C86
S31508001CF004F00CFA4FF48072DFF83C1CDFF83C0C59
S31508001D0003F086FE1122DFF8241CDFF8340C03F0FA
S31508001D1031FB0822DFF8181CDFF8280C03F02AFB31
S31508001D200122DFF8F41BDFF8200C03F023FB012265
S31508001D30DFF8E81BDFF8140C03F01CFB0122DFF8C0
S31508001D40E01BDFF80C0C03F015FB0122DFF8D41BAF
S31508001D50DFF8000C03F00EFB0222DFF8CC1BDFF8DD
S31508001D60F80B03F007FB4FF48072DFF8CC1BDFF8A3
S31508001D70CC0B03F072FD01AA0021DFF8B80B04F0C2
S31508001D80D3FA3900C9B22800C0B201F01BF877E1CE
S31508001D900521DFF8C80B02F0A3F8E07BDFF8BC1BCF
S31508001DA00870207CDFF8B41B4870607CDFF8AC1B39
S31508001DB08870A07CDFF8A41BC870E07CDFF89C1B49
S31508001DC0087101A8009005AB00224FF47A71DFF87C
S31508001DD0640B04F09BF94FF48072DFF85C1BDFF8A4
S31508001DE05C0B03F015FE0522DFF8701BDFF8700B9D
S31508001DF003F0C0FA4FF48072DFF83C1BDFF83C0BA7
S31508001E0003F02BFD01AA0021DFF8280B04F08CFA59
S31508001E103900C9B22800C0B200F0D4FF30E114F18D
S31508001E20190000F0C3FC029014F11201029800F0A8
S31508001E302AF9804602987FF07F41884222D0E07FC7
S31508001E4000280DD17FF07F40804503D04146029897
S31508001E5000F064FA3900C9B22800C0B200F0B2FF37
S31508001E60E07F01280ED17FF07F40804504D114F130
S31508001E701201029800F03DF93900C9B22800C0B233
S31508001E8000F0A0FFFCE0E07BAA2825D10222DFF8BB
S31508001E90041E0DF1060003F0BBFD0322DFF8F81D52
S31508001EA002A803F0B5FD00260BE003220298C11C28
S31508001EB006A803F0ADFD029800F054FD06980290BE
S31508001EC0761CBDF80600B6B28642EED33900C9B212
S31508001ED02800C0B200F076FFE07B552811D114F136
S31508001EE0100000F063FC7FF07F41884203D114F1B3
S31508001EF0100000F08DFC3900C9B22800C0B200F00D
S31508001F0061FFBDE0E07BAA2803D1AA20DFF88C1D7B
S31508001F100870E07BFF2803D1FF20DFF8801D0870DA
S31508001F2001A8009005AB00224FF47A71DFF8040A85
S31508001F3004F0ECF84FF48072DFF8FC19DFF8FC09BE
S31508001F4003F066FD0122DFF8541DDFF8540D03F097
S31508001F5011FA4FF48072DFF8E019DFF8E00903F0B0
S31508001F607CFC01AA0021DFF8CC0904F0DDF9390070
S31508001F70C9B22800C0B200F025FF81E0E07B002846
S31508001F8003D10020DFF81C1D0870E07BFF2803D171
S31508001F90FF20DFF8101D087001A8009005AB00228D
S31508001FA04FF47A71DFF88C0904F0B0F84FF48072B8
S31508001FB0DFF88419DFF8840903F02AFD0122DFF827
S31508001FC0E41CDFF8E40C03E0256400002E000000A2
S31508001FD003F0D0F94FF48072DFF85C19DFF85C097A
S31508001FE003F03BFC01AA0021DFF8480904F09CF93C
S31508001FF03900C9B22800C0B200F0E4FE40E0E07B38
S31508002000AA2803D1AA20DFF8B41D0870E07BFF28B0
S3150800201003D1FF20DFF8A41D087001A8009005ABC6
S3150800202000224FF47A71DFF80C0904F06FF84FF4C8
S315080020308072DFF80419DFF8040903F0E9FC0122CD
S31508002040DFF8781DDFF8780D04E000BF2C000000EB
S315080020500D00000003F08EF94FF48072DFF8D818EF
S31508002060DFF8D80803F0F9FB01AA0021DFF8C40855
S3150800207004F05AF93900C9B22800C0B200F0A2FE2D
S3150800208008B0BDE8F08130B585B005000C00002029
S3150800209000900020ADF80400022215F1120101A8F3
S315080020A003F0B6FC032215F10C0100A803F0B0FCFE
S315080020B0002506E003220098C11C00A803F0A8FC2E
S315080020C06D1CBDF80400ADB285420ED207220098F9
S315080020D0811D02A803F09CFC072202A9200001F03A
S315080020E032FF0128E6D1009801E07FF07F4005B075
S315080020F030BD30B587B004000D00002004900020E4
S3150800210002900020ADF804000020ADF8060000207B
S315080021100590022214F1120101A803F079FC0222AB
S31508002120DFF8481D0DF1060003F072FC032214F1D6
S315080021300F0104A803F06CFCBDF80400401CADF8C0
S315080021400400BDF80600401CADF8060003F0CAFD01
S31508002150029002987FF07F41884202D17FF07F404B
S31508002160DAE007220298811D280003F048FB0122C5
S31508002170029810F10D01E81E03F041FB04220298B3
S3150800218010F10E0105A803F03AFB0222029810F19D
S31508002190160105A803F033FB03A8009006AB00223E
S315080021A04FF47A71DFF88C0703F0B0FFBDF80C0026
S315080021B0002802D07FF07F40AEE004987FF07F4190
S315080021C0884246D14FF48052200B4FF4805101FBD0
S315080021D000F1DFF8680703F01BFC032202A94FF49D
S315080021E08050B4FBF0F303FB1043DFF850071818D0
S315080021F00C3003F0BFF8032202A94FF48050B4FB59
S31508002200F0F303FB1043DFF8340718180F3003F018
S31508002210B1F8022201A94FF48050B4FBF0F303FB96
S315080022201043DFF818071818123003F0A3F8200B2C
S315080022304FF48051484303F0A9FA4FF48052200B1B
S315080022404FF4805101FB00F1DFF8F00603F036FB8E
S3150800225044E04FF48052200B4FF4805101FB00F10B
S31508002260DFF8D80603F0D4FB032202A94FF4805006
S31508002270B4FBF0F303FB1043DFF8C00618180F3061
S3150800228003F078F8022201A94FF48050B4FBF0F36A
S3150800229003FB1043DFF8A4061818123003F06AF897
S315080022A0200B4FF48051484303F070FA4FF48052E4
S315080022B0200B4FF4805101FB00F1DFF8800603F094
S315080022C0FDFA03220498C11C02A803F098FA032217
S315080022D0029810F1120104A803F091FA4FF48072E3
S315080022E0DFF85416DFF8540603F092FB02220DF1CC
S315080022F00601DFF8D40C03F03DF84FF48072DFF8DE
S315080023003816DFF8380603F0A8FA03AA0021DFF822
S31508002310240604F009F8029807B030BD70B586B0F7
S3150800232004000D0000200390002002900020ADF864
S3150800233004000020ADF80600022214F1120101A8DB
S3150800234003F066FB0222DFF8241B0DF1060003F0FA
S315080023505FFB0322E91C03A803F05AFB032215F1CD
S31508002360120102A803F054FBBDF80400401EADF8A4
S315080023700400BDF80600401EADF80600280003F06C
S3150800238048FD04A8009005AB00224FF47A71DFF8E7
S31508002390A40503F0BBFEBDF8040000285DD14FF488
S315080023A08052200B4FF4805101FB00F1DFF88C05B9
S315080023B003F02EFB032203A94FF48050B4FBF0F37D
S315080023C003FB1043DFF8740518180C3002F0D2FF2F
S315080023D0022201A94FF48050B4FBF0F303FB10432B
S315080023E0DFF858051818123002F0C4FF032202A9B4
S315080023F04FF48050B4FBF0F303FB1043DFF83C05C1
S3150800240018180F3002F0B6FF200B4FF480514843DE
S3150800241003F0BCF94FF48052200B4FF4805101FBB6
S3150800242000F1DFF8180503F049FA4FF48072DFF877
S315080024300815DFF8080503F0EBFA02220DF106018C
S31508002440DFF8840B02F096FF4FF48072DFF8E81489
S31508002450DFF8E80403F001FAA0E102987FF07F4173
S31508002460884205D003987FF07F41884240F0FB8080
S3150800247002987FF07F4188427CD14FF480520398BE
S31508002480000B4FF4805101FB00F1DFF8B00403F0B4
S31508002490BFFA032202A903984FF48053B0FBF3F660
S315080024A006FB1306DFF894043018123002F062FFB8
S315080024B00398000B4FF48051484303F067F94FF433
S315080024C080520398000B4FF4805101FB00F1DFF8AE
S315080024D06C0403F0F3F94FF48052200B4FF480514B
S315080024E001FB00F1DFF8540403F092FA032203A972
S315080024F04FF48050B4FBF0F303FB1043DFF83C04C1
S3150800250018180C3002F036FF022201A94FF4805049
S31508002510B4FBF0F303FB1043DFF82004181812305D
S3150800252002F028FF200B4FF48051484303F02EF9A0
S315080025304FF48052200B4FF4805101FB00F1DFF875
S31508002540FC0303F0BBF94FF48072DFF8EC13DFF8F5
S31508002550EC0303F05DFA02220DF10601DFF8680AC2
S3150800256002F008FF4FF48072DFF8CC13DFF8CC03D3
S3150800257003F073F903987FF07F41884240F00E819B
S315080025804FF480520298000B4FF4805101FB00F182
S31508002590EA4803F03DFA032203A902984FF4805350
S315080025A0B0FBF3F606FB1306E4483018C01C02F02D
S315080025B0E1FE0298000B4FF48051484303F0E6F819
S315080025C04FF480520298000B4FF4805101FB00F142
S315080025D0DA4803F073F94FF48052200B4FF4805118
S315080025E001FB00F1D54803F013FA032202A94FF4C0
S315080025F08050B4FBF0F303FB1043D04818180F3093
S3150800260002F0B8FE022201A94FF48050B4FBF0F3A1
S3150800261003FB1043C9481818123002F0ABFE200B12
S315080026204FF48051484303F0B1F84FF48052200B21
S315080026304FF4805101FB00F1C04803F03FF94FF415
S315080026408072BD49BD4803F0E3F902220DF1060187
S31508002650DFF8740902F08EFE4FF48072B649B74867
S3150800266003F0FBF89AE04FF480520298000B4FF4FF
S31508002670805101FB00F1DFF8F80703F0C9F90322DE
S3150800268003A902984FF48053B0FBF3F606FB130632
S31508002690DFF8DC073018C01C02F06CFE0298000B4D
S315080026A04FF48051484303F071F84FF48052029872
S315080026B0000B4FF4805101FB00F1DFF8B40703F07B
S315080026C0FDF84FF480520398000B4FF4805101FB3C
S315080026D000F1DFF89C0703F09BF9032202A903988F
S315080026E04FF48053B0FBF3F606FB1306DFF88007BA
S315080026F03018123002F03EFE0398000B4FF480515A
S31508002700484303F043F84FF480520398000B4FF404
S31508002710805101FB00F1DFF8580703F0CFF84FF4BA
S315080027208052200B4FF4805101FB00F1DFF840077F
S3150800273003F06EF9022201A94FF48050B4FBF0F3BE
S3150800274003FB1043DFF828071818123002F012FEB0
S31508002750200B4FF48051484303F018F84FF4805289
S31508002760200B4FF4805101FB00F1DFF8040703F05A
S31508002770A5F84FF480727049DFF8F40603F048F9BB
S3150800278002220DF10601DFF8400802F0F3FD4FF4CE
S3150800279080726949DFF8D80603F05FF804AA0021B9
S315080027A0644803F0C1FD280006B070BD30B585B099
S315080027B00400002000900222DFF8D81401A803F0D4
S315080027C027F90322DFF8D01400A803F021F9002521
S315080027D006E003220098C11C00A803F019F96D1C35
S315080027E0BDF80400ADB285420ED206220098811DBE
S315080027F002A803F00DF9062202A9200001F0A3FBA6
S315080028000128E6D1009801E07FF07F4005B030BD91
S3150800281010B586B004000020049000200290002025
S31508002820ADF804000020ADF80C000222DFF86414AD
S3150800283001A803F0EDF80322DFF8A41C04A803F0AE
S31508002840E7F8BDF80400401CADF8040003F04AFAA6
S31508002850029006220298811D200002F0D0FF022273
S31508002860029810F1120103A802F0C9FF0DF1060043
S31508002870009005AB00224FF47A712E4803F046FC0F
S315080028804FF48072DFF84417DFF8E40503F0C0F868
S3150800289004987FF07F41884212D1032202A9DFF80B
S315080028A0080D02F067FD022201A9DFF8000D02F00B
S315080028B061FD032202A9DFF8F80C02F05BFD18E0BF
S315080028C0022201A9DFF8E40C02F054FD032202A952
S315080028D0DFF8DC0C02F04EFD03220498C11C02A8A6
S315080028E002F08DFF0322029810F1140104A802F0E9
S315080028F086FF4FF48072DFF8D416DFF8740502F00D
S31508002900ACFF0DF1060200210A4803F00DFD0298FE
S3150800291006B010BDBC4A0020940000209500002097
S31508002920960000209700002090000020500000200C
S3150800293074000020044B002000F01F0098000020BF
S31508002940E8000020080100200701002006010020F9
S315080029500501002004010020160100207C0000204B
S315080029601801002030B589B004000020ADF8060033
S315080029700020059000200690002003900020029079
S315080029800020ADF804000025022214F112010DF111
S31508002990060003F03DF8032214F10C0105A803F024
S315080029A037F80322E11C03A803F032F8032214F1D6
S315080029B0140102A803F02CF80222B64901A803F074
S315080029C027F8BDF80400401EADF8040000200500F5
S315080029D00CE003220598C11C06A803F019F805990E
S315080029E02000FFF79BFC069805906D1CBDF80600B5
S315080029F0ADB28542EDD3200003F00BFA04A800908F
S31508002A0007AB00224FF47A71DFF8680D03F07EFBFE
S31508002A10BDF80400002822D14FF48072DFF8AC1507
S31508002A20DFF84C0402F0F4FF032203A9DFF8780B61
S31508002A3002F0A0FC022201A9DFF8700B02F09AFC52
S31508002A40032202A9DFF8680B02F094FC4FF48072A7
S31508002A50DFF87815DFF8180402F0FFFE11E1029896
S31508002A607FF07F41884205D003987FF07F418842F6
S31508002A7040F09D8002987FF07F41884249D14FF40B
S31508002A8080520398000B4FF4805101FB00F1DFF8E8
S31508002A90E00302F0BDFF032202A903984FF4805316
S31508002AA0B0FBF3F505FB1305DFF8C403281814304B
S31508002AB002F060FC0398000B4FF48051484302F083
S31508002AC065FE4FF480520398000B4FF4805101FBCA
S31508002AD000F1DFF89C0302F0F1FE4FF48072DFF894
S31508002AE0EC14DFF88C0302F093FF032203A9DFF846
S31508002AF0B80A02F03FFC022201A9DFF8B00A02F088
S31508002B0039FC4FF48072DFF8C414DFF8640302F06E
S31508002B10A4FE03987FF07F41884240F0B2804FF4CC
S31508002B2080520298000B4FF4805101FB00F1DFF848
S31508002B30400302F06DFF032203A902984FF4805365
S31508002B40B0FBF3F505FB1305DFF824032818C01CB2
S31508002B5002F010FC0298000B4FF48051484302F033
S31508002B6015FE4FF480520298000B4FF4805101FB7A
S31508002B7000F1BF4802F0A2FE4FF48072DFF84C1451
S31508002B80BB4802F045FF022201A9DFF8200A02F03D
S31508002B90F1FB032202A9DFF8180A02F0EBFB4FF457
S31508002BA08072DFF82814B24802F057FE69E04FF445
S31508002BB080520298000B4FF4805101FB00F1AC489B
S31508002BC002F026FF032203A902984FF48053B0FBB4
S31508002BD0F3F505FB1305A6482818C01C02F0CAFB26
S31508002BE00298000B4FF48051484302F0CFFD4FF492
S31508002BF080520298000B4FF4805101FB00F19C486B
S31508002C0002F05CFE4FF480520398000B4FF480519B
S31508002C1001FB00F1964802F0FBFE032202A9039885
S31508002C204FF48053B0FBF3F505FB130590482818BD
S31508002C30143002F09FFB0398000B4FF48051484371
S31508002C4002F0A4FD4FF480520398000B4FF4805114
S31508002C5001FB00F1864802F031FE4FF48072DFF87E
S31508002C606C13834802F0D4FE022201A9DFF83C095E
S31508002C7002F080FB4FF48072DFF850137C4802F0B4
S31508002C80ECFD04AA0021DFF8EC0A03F04DFB200056
S31508002C9009B030BDA3F01F00A0F01F00920000206D
S31508002CA05801002093000020C800002080B50A00C3
S31508002CB0417B0F235943837B022B0CD0032B10D067
S31508002CC0062B14D0072B1BD00C2B1FD00D2B23D073
S31508002CD00E2B27D02BE0C9B21000C0B200F06AFC58
S31508002CE025E0C9B21000C0B200F0FEFB1FE00B00E1
S31508002CF0DBB2D2B210F11001C07B00F069F916E020
S31508002D00C9B21000C0B200F0B5F810E0C9B21000A0
S31508002D10C0B200F0CBFC0AE0C9B21000C0B200F0A5
S31508002D202BFD04E0C9B21000C0B200F089FD01BD58
S31508002D30E0B51DE04021DFF85C0C02F0B4FC02A807
S31508002D40019000200090002301220021002001F0BC
S31508002D503DFD4021DFF83C0C02F0A8FC02A80190DA
S31508002D6000200090002301220021002001F02EFD02
S31508002D70DFF8240C00780028DCD04021DFF8140C9A
S31508002D8002F091FC02A80190002000904FF496737F
S31508002D9000220021002001F019FD4021DFF8F40B84
S31508002DA002F084FC02A80190002000904FF496736C
S31508002DB000220021002001F009FDD9E7C24C0020BD
S31508002DC05901002030B585B0040000AD6820287090
S31508002DD06D1C272028706D1C002028706D1C27206C
S31508002DE028706D1C002028706D1C682028706D1CCA
S31508002DF0802028706D1CDFF8A40B007828706D1CE5
S31508002E00DFF8980B407828706D1CDFF8900B8078F7
S31508002E1028706D1CDFF8840BC07828706D1CDFF8ED
S31508002E207C0B007928706D1C002028706D1C51F0F1
S31508002E30600028706D1C012028706D1C09210DF199
S31508002E400600FDF702FB28706D1C162028706D1C05
S31508002E50E4B2002C04D0112100A802F07DF803E0AA
S31508002E60112100A801F0DBF905B030BDB3F01F0051
S31508002E7098000020F0B585B004000F000DF102019E
S31508002E80DFF81C0B00F0D4FF0600002E00F09A8035
S31508002E9035000322DFF80C1B01A802F0B9FD022257
S31508002EA0DFF8401600A802F0B3FD68203070761CE3
S31508002EB0BDF80000062148430930800050F00300A1
S31508002EC03080B61CBDF80000062148430930800052
S31508002ED050F003003080B61C68203070761C8820BD
S31508002EE03070761CDFF8B40A00783070761CDFF88C
S31508002EF0AC0A40783070761CDFF8A00A807830700B
S31508002F00761CDFF8980AC0783070761CDFF88C0AD1
S31508002F1000793070761C0A203070761C57F06000F5
S31508002F203070761C07203070761C00270FE0C0B280
S31508002F3002A9415C3170761C401CC0B20628F6DB3B
S31508002F4003220198C11C01A802F062FD7F1CBDF88E
S31508002F500000BFB2874207D206220198811D02A847
S31508002F6002F056FD0020E8E7BDF8000006214843B8
S31508002F7010F1090189B2A81DFDF767FA3070761CB1
S31508002F8016203070761CE4B2002C0AD0BDF800007A
S31508002F900621484310F1110189B2280001F0DCFF2F
S31508002FA009E0BDF800000621484310F1110189B275
S31508002FB0280001F034F90DF102022900DFF8E009D2
S31508002FC000F059FF05B0F0BD4B01002000F01F00CE
S31508002FD02DE9FF4F8BB05FF0000A5FF0000800256F
S31508002FE000265FF0000B5FF000090020ADF8000036
S31508002FF000270222DFF8EC140DF10A0002F008FDA2
S315080030000222DFF8A41904A802F002FD0322DFF861
S31508003010941903A802F0FCFCBDF80A00002800F089
S315080030205B820DF11A01DFF8780900F001FF040050
S31508003030002C00F0518205940722DFF870190C98CD
S3150800304000F081FF012840F07081BDF810000A21C8
S3150800305090FBF1F0BDF810100A2291FBF2F302FB87
S3150800306013118DF802105FF00008ADF808009DF8FE
S315080030700200002804D0BDF80800401CADF808007E
S31508003080002506E003220398C11C03A802F0C0FC31
S315080030906D1CBDF80A00ADB2854280F01682062284
S315080030A00398811D09A802F0B3FC0322039810F1C6
S315080030B00C0101A802F0ACFC0222039810F11201DF
S315080030C00DF1120002F0A4FC002611E0BDF8000084
S315080030D01121484310F1120189B2059801F09FF8B1
S315080030E0059C03220198C11C01A802F091FC761CDC
S315080030F0BDF81200B6B28642C4D207220198811DD5
S3150800310007A802F085FC0122019810F10D010DF1C6
S31508003110030002F07DFC0122019810F1150106A8B2
S3150800312002F076FCFFB2002F40F0A880012718F1C4
S31508003130010868202070641CBDF8080001280CD11D
S31508003140BDF81090ADF80090BDF800001121484375
S315080031500A30800050F0030A39E01FFA88F8B8F1FF
S31508003160010F0CD15FF00A09ADF80090BDF8000018
S31508003170112148430A30800050F0030A27E0BDF8C1
S3150800318008001FFA88F8804515D19DF80200002826
S3150800319004D15FF00A09ADF8009003E09DF80290AB
S315080031A0ADF80090BDF80000112148430A308000B0
S315080031B050F0030A0BE05FF00A09ADF80090BDF87D
S315080031C00000112148430A30800050F0030AA4F891
S315080031D000A0A41CA4F800A0A41C68202070641CED
S315080031E088202070641CDFF8B40700782070641CFF
S315080031F0DFF8A80740782070641CDFF8A0078078FD
S315080032002070641CDFF89407C0782070641CDFF80F
S315080032108C0700792070641C0A202070641CBDF895
S315080032200800012806D19DF8380050F0600020708B
S31508003230641C1CE01FFA88F8B8F1010F06D19DF846
S31508003240380050F040002070641C10E0BDF80800FB
S315080032501FFA88F8804506D19DF8380050F02000FE
S315080032602070641C03E09DF838002070641C06205A
S315080032702070641C9DF82C002070641C00202070AF
S31508003280641C00202070641C5FF0000B08E05FFAE5
S315080032908BFB07A81BF800002070641C1BF1010BB0
S315080032A05FFA8BFBBBF1070FF1DB5FF0000B08E061
S315080032B05FFA8BFB09A81BF800002070641C1BF141
S315080032C0010B5FFA8BFBBBF1060FF1DB00202070C8
S315080032D0641C01202070641CB9F101091FFA89F9E0
S315080032E0B9F1000F7FF4FDAE0027BDF800001121EB
S315080032F0484310F10A0189B20598801DFDF7A5F823
S315080033002070641C16202070641C9DF83400002868
S315080033103FF4DCAEBDF800001121484310F112015C
S3150800332089B2059801F018FEDAE6002530E0032296
S315080033300198C11C01A802F06BFB761CBDF81200AF
S31508003340B6B2864223D207220198811D07A802F049
S315080033505FFB0122019810F10D010DF1030002F047
S3150800336057FB072207A90C9800F0EDFD0128DED1CE
S315080033709DF803009DF82C108842D8D101220198A7
S3150800338010F1150106A802F043FB5FF001086D1C59
S315080033905FFA88F8B8F1000F1BD1BDF80A00ADB284
S315080033A0854216D206220398811D09A802F030FB31
S315080033B00322039810F10C0101A802F029FB02224E
S315080033C0039810F112010DF1120002F021FB0026FC
S315080033D0B4E75FFA88F8B8F1000F76D06820207055
S315080033E0641C6F202070641C00202070641C6F20F1
S315080033F02070641C00202070641C68202070641CE7
S3150800340088202070641CDFF8940500782070641CFE
S31508003410DFF8880540782070641CDFF8800580781E
S315080034202070641CDFF87405C0782070641CDFF80F
S315080034306C0500792070641C0A202070641C9DF8B5
S31508003440380050F060002070641C06202070641C50
S315080034509DF82C002070641C00202070641C00203D
S315080034602070641C002505E0ADB207A8285C207012
S31508003470641C6D1CADB2072DF6DB002505E0ADB268
S3150800348009A8285C2070641C6D1CADB2062DF6DBFD
S3150800349000202070641C01202070641C1B210598E4
S315080034A0801DFCF7D2FF2070641C16202070641C57
S315080034B09DF83400002804D02321059801F04CFD1E
S315080034C003E02321059800F0AAFE0DF11A020599DA
S315080034D0DFF8CC0400F0CFFC0FB0BDE8F08F000099
S315080034E0A5F01F00A3F01F00F8B504000D0000A901
S315080034F0DFF8AC0400F09CFC0700002F53D03E0018
S31508003500682038707F1C272038707F1C0020387090
S315080035107F1C272038707F1C002038707F1C68208D
S3150800352038707F1C882038707F1CDFF8700400789C
S3150800353038707F1CDFF86404407838707F1CDFF829
S315080035405C04807838707F1CDFF85004C0783870C7
S315080035507F1CDFF84804007938707F1C0A20387011
S315080035607F1C55F0600038707F1C032038707F1C64
S315080035700921B01DFCF769FF38707F1C16203870CA
S315080035807F1CE4B2002C04D01121300001F0E4FCC9
S3150800359003E01121300000F042FE00AA3100DFF8F6
S315080035A0000400F068FCF1BD380100203B01002052
S315080035B03D0100202DE9F04182B004000D000027EE
S315080035C000265FF0000800A9DFF8D40300F030FCFD
S315080035D00700002F68D03E00682038707F1C3F2007
S315080035E038707F1C002038707F1C3F2038707F1C85
S315080035F0002038707F1C682038707F1C882038703F
S315080036007F1CDFF89803007838707F1CDFF88C037E
S31508003610407838707F1CDFF88403807838707F1C08
S31508003620DE48C07838707F1CDC48007938707F1C0B
S315080036300A2038707F1C55F0600038707F1C022005
S3150800364038707F1CDA48007838707F1CD9480078B3
S3150800365038707F1CD848007838707F1CD7480078A7
S3150800366038707F1CB846D6480088A8F8000018F1BC
S31508003670020847460F21B01DFCF7E7FE38707F1C8D
S31508003680162038707F1CE4B2002C04D017213000B5
S3150800369001F062FC03E01721300000F0C0FD00AA2B
S315080036A03100BF4800F0E7FBBDE8F3812DE9F041A2
S315080036B082B004000D00002700265FF0000800A96C
S315080036C0B74800F0B5FB0700002F51D03E00682030
S315080036D038707F1C2B2038707F1C002038707F1CA8
S315080036E02B2038707F1C002038707F1C68203870AB
S315080036F07F1C882038707F1CA848007838707F1C8B
S31508003700A648407838707F1CA448807838707F1C9B
S31508003710A248C07838707F1CA048007938707F1C92
S315080037200A2038707F1C55F0600038707F1C0C200A
S3150800373038707F1CA348007838707F1C0A21B01D9A
S31508003740FCF783FE38707F1C162038707F1CE4B2A5
S31508003750002C04D01221300001F0FEFB03E01221F8
S31508003760300000F05CFD00AA31008D4800F083FBB4
S31508003770BDE8F381044B00202DE9F04182B0040036
S315080037800D00002700265FF0000800A9844800F015
S315080037904FFB0700002F51D03E00682038707F1C71
S315080037A02B2038707F1C002038707F1C2B20387027
S315080037B07F1C002038707F1C682038707F1C88208A
S315080037C038707F1C7548007838707F1C73484078BD
S315080037D038707F1C7148807838707F1C6F48C078B5
S315080037E038707F1C6D48007938707F1C0A20387045
S315080037F07F1C55F0600038707F1C0D2038707F1CC8
S315080038007148007838707F1C0A21B01DFCF71DFE30
S3150800381038707F1C162038707F1CE4B2002C04D048
S315080038201221300001F098FB03E01221300000F06D
S31508003830F6FC00AA31005A4800F01DFBBDE8F381EA
S315080038402DE9F04182B004000D00002700265FF044
S31508003850000800A9524800F0EBFA0700002F51D0E3
S315080038603E00682038707F1C2B2038707F1C002093
S3150800387038707F1C2B2038707F1C002038707F1C06
S31508003880682038707F1C882038707F1C4348007871
S3150800389038707F1C4148407838707F1C3F488078D4
S315080038A038707F1C3D48C07838707F1C3B480079CB
S315080038B038707F1C0A2038707F1C55F060003870FD
S315080038C07F1C0E2038707F1C4048007838707F1C9B
S315080038D00A21B01DFCF7B9FD38707F1C1620387018
S315080038E07F1CE4B2002C04D01221300001F034FB16
S315080038F003E01221300000F092FC00AA31002848AB
S3150800390000F0B9FABDE8F38100B585B002A80190C8
S3150800391003A800904FF48473002201212C4802F07A
S31508003920F6FD02A8019000200090C823002200217D
S31508003930002000F04BFF0121264801F0A9FE0028CF
S31508003940E4D14FF40041234801F0ADFE4FF4005195
S31508003950214801F0ABFE4FF400710E4801F0A3FEBA
S3150800396002A8019000200090642300220021002074
S3150800397000F02CFF4FF40071064801F097FE02A8EC
S31508003980019000200090642300220021002000F00E
S315080039901DFFE0E7000C0140C14C00207C00002020
S315080039A0044C0020A0F01F00B3F01F0090B50008DB
S315080039B09400002095000020960000209700002023
S315080039C0900000209200002093000020C24C0020A6
S315080039D0E84B002000080140001001402DE9F041A5
S315080039E006000F0090461C000025DFF8BC02007890
S315080039F0002803D042F6E16020802BE0002E03D198
S31508003A0045F6C350208025E01FFA88F8B8F1000F64
S31508003A1003D146F2945020801CE001F0BFFD05005A
S31508003A20DFF8880230607760414689B216F11400E3
S31508003A3003F0F9F816F1080003F016FCDFF8700237
S31508003A400088401CDFF868120880280001F0AAFDEB
S31508003A5000202080BDE8F0812DE9F04F89B00400F0
S31508003A600D0016001F005FF00008DDF84C908E4828
S31508003A700078002805D046F2AE10A9F8000000200C
S31508003A80C6E0002C05D145F6C350A9F80000002071
S31508003A90BEE0002F05D146F2D520A9F80000002087
S31508003AA0B6E0B6B23000002802D0B0F5004F1FD1FC
S31508003AB020687E49884221D1DDF848A0BAF1000F76
S31508003AC002D00020CAF8000001F068FD80464B4687
S31508003AD05246390014F1140003F0AFF88346B9F8DA
S31508003AE00000002810D1404601F05CFD58468FE0E2
S31508003AF045F62560A9F80000002089E045F6C4507F
S31508003B00A9F80000002083E0300408D5404601F0FB
S31508003B1049FD46F2B010A9F80000002078E0654893
S31508003B200078002808D0404601F03CFD46F6635070
S31508003B30A9F8000000206BE02B000522210000A850
S31508003B4003F02EFB404601F02DFD03F011FA01F0BB
S31508003B5025FD80465848006890F83500002805D0AD
S31508003B60022838D017D3032826D045E052480068E3
S31508003B70D0F85CB050480068B0F860003880BAF1F8
S31508003B80000F04D04C480068006CCAF800000020FA
S31508003B90A9F8000038E05FF0000B00203880BAF181
S31508003BA0000F04D044480068006CCAF8000046F2CA
S31508003BB0A910A9F8000027E05FF0000B0020388064
S31508003BC0BAF1000F02D00020CAF8000047F2D92047
S31508003BD0A9F8000018E05FF0000B00203880BAF161
S31508003BE0000F04D034480068006CCAF8000045F697
S31508003BF0C250A9F8000007E05FF0000B00203880EB
S31508003C0046F62E60A9F80000404601F0CBFC58465F
S31508003C1009B0BDE8F08F2DE9FC4105000E0017003C
S31508003C209846089C002D03D145F6C35020802AE00B
S31508003C301FFA88F84046002815D0102813D0B0F58A
S31508003C40007F10D0B0F5047F0DD0B0F5004F0AD034
S31508003C5048F21001884206D0B0F5024F03D048F268
S31508003C601021884211D128681049884211D103F0E1
S31508003C704CFD0194009043469BB23A0092B2310043
S31508003C80280000F01BF8BDE8F38145F62560208082
S31508003C90F9E745F6C4502080F5E70021044A11806B
S31508003CA00021018070470000C34C0020515545553E
S31508003CB0BA4C0020C84C00209C4C00202DE9F04F3F
S31508003CC083B004000D0016001F005FF0000A01F023
S31508003CD065FC824614F10800DDF83080DDF8349082
S31508003CE00189002914D1F80601D4002300E0102325
S31508003CF0CDF80490CDF800809BB2320092B229002C
S31508003D0014F1140002F0D1FF504601F04BFC25E0F7
S31508003D10B90502D5B0F808B001E05FF0010B0068FC
S31508003D200DE0816840680190CDF8008033009BB2B1
S31508003D302A00200003F00EFB0198BBF1010B1FFAC5
S31508003D408BFBBBF1000FECD1504601F02BFC38047D
S31508003D5001D403F00DF90020A9F80000BDE8F78F9B
S31508003D602DE9F84305000E00170098460020DDF8F7
S31508003D70249058490978002904D045F2B960A9F871
S31508003D80000053E0002F04D145F2BB60A9F80000FB
S31508003D904CE01FFA88F8B8F1020F04DA45F2BC6065
S31508003DA0A9F8000042E0089CA4B2042C04D245F20B
S31508003DB0C160A9F8000039E0032000280FD00742A7
S31508003DC004D045F2BB60A9F800002FE0210089B2B3
S31508003DD0014204D045F2C160A9F8000026E03B0084
S31508003DE03A00B8F10101002004E0A4B2A2181A6052
S31508003DF01300401C80B289B28842F6D300201860AE
S31508003E0001F0CCFB34492960AE606F60EF60A5F81D
S31508003E101480A5F812802C8230490988491C2F4A3B
S31508003E20118001F0BFFB0020A9F80000BDE8F1836E
S31508003E3070B505000C000020002D04D145F2BF60C6
S31508003E402080002016E001F0A9FBA98A002906D1E6
S31508003E5001F0A8FB45F2C260208000200AE0EE6867
S31508003E603168E960A98A491EA98201F09BFB0020F6
S31508003E702080300070BD70B505000E0014000020CB
S31508003E80002D03D145F2BF6020801BE0002E03D130
S31508003E9045F2BE60208015E001F080FBA98A6A8A97
S31508003EA0914205D301F07EFB45F2BA60208009E015
S31508003EB0E9683160EE60A98A491CA98201F072FBA3
S31508003EC00020208070BD0021044A11800021018055
S31508003ED070470000C34C00204D454D20B64C0020CD
S31508003EE080B50A00002100F001F801BD30B4002AAF
S31508003EF027D0002825D00023002403E01B02C9B2DE
S31508003F000B43641C042CF9D30425B0FBF5F404FB1D
S31508003F101504E4B2002C08D003E00170401C521EC0
S31508003F20641C002A01D0042CF7D302E00360001DAC
S31508003F30121F042AFAD202E00170401C521E002AFF
S31508003F40FAD130BC704770B41300002B01D10120A0
S31508003F5052E0002801D100204EE0002901D10020BE
S31508003F604AE00122181859180425B0FBF5F404FB99
S31508003F701504E4B20426B1FBF6F505FB1615EDB2F9
S31508003F80AC4201D1012500E00025EDB2012D2CD16E
S31508003F90002C10D008E0401E491E05780E78B54260
S31508003FA000D000225B1E641ED2B2012A03D1002B68
S31508003FB001D0002CEFD1D2B2012A16D107E0001F9A
S31508003FC0091F04680D68AC4200D000221B1FD2B23C
S31508003FD0012A01D1042BF2D207E0401E491E0478BB
S31508003FE00D78AC4200D000225B1ED2B2012A01D164
S31508003FF0002BF2D11000C0B270BC704780B52021EA
S31508004000DFF8C00303F02BFC00281CD0DFF8B4034C
S3150800401003F021FCDFF8B0130968002913D0DFF894
S31508004020AC130968DFF8A0231268891AFF290ADA8F
S31508004030DFF8981309680870DFF890030068401CD9
S31508004040DFF8881308604021DFF8780303F007FCDF
S31508004050002810D040F22661DFF8680303F00CFC54
S3150800406000AA0021DFF8680300F0B5FABDF80000E1
S31508004070002800D000BF01BD1CB52021DFF854037D
S3150800408003F0EDFB002815D0D24803F0E4FB04004A
S3150800409001A9D148FFF7CCFE01000C7001A80090D9
S315080040A000230122CD48FFF7B6FDBDF8040000281D
S315080040B000D000BF4021C74803F0D1FB00280ED02E
S315080040C040F22661C34803F0D7FB01AA0021C44881
S315080040D000F081FABDF80400002800D000BF13BD27
S315080040E01CB52021BF4803F0BAFB002815D0BD48EF
S315080040F003F0B1FB040001A9B748FFF799FE0100D8
S315080041000C7001A8009000230122B448FFF783FD34
S31508004110BDF80400002800D000BF4021B14803F0D4
S315080041209EFB00280ED040F22661AE4803F0A4FBA1
S3150800413001AA0021AC4800F04EFABDF80400002898
S3150800414000D000BF13BD70B584B004000D00A748A9
S315080041500078AA282BD1012240F22661A14803F053
S315080041604DFB002612E00020ADF8040001A80090DF
S3150800417002AB00224FF4FA719B4800F072F9B6B20E
S31508004180315D89B2974803F062FB761CB6B2ADB2D0
S31508004190AE42E8D3002240F22661924803F02EFB95
S315080041A04021904803F05BFB002835D1F8E74FF42F
S315080041B080718F4801F077FA012240F2266185481E
S315080041C003F01CFB002612E00020ADF8040001A84D
S315080041D0009002AB00224FF4FA71814800F041F9D1
S315080041E0B6B2315D89B27B4803F031FB761CB6B2B4
S315080041F0ADB2AE42E8D3002240F22661754803F01C
S31508004200FDFA4021734803F02AFB0028F9D04FF441
S315080042108071774801F04AFA012004B070BD70B584
S3150800422084B004000D004FF48071714801F03BFA28
S31508004230012240F22661674803F0E0FA002612E000
S315080042400020ADF8040001A8009002AB00224FF44C
S31508004250FA71634800F005F9B6B2315D89B25D4876
S3150800426003F0F5FA761CB6B2ADB2AE42E8D3002238
S3150800427040F22661574803F0C1FA4021554803F039
S31508004280EEFA0028F9D04FF48071594801F00EFA79
S31508004290012004B070BD70B584B004000D00012281
S315080042A040F22661474803F0A9FA002606E0B6B2AE
S315080042B0315D89B2434803F0CAFA761CB6B2ADB28C
S315080042C0AE420DD201A8009002AB0022322140482E
S315080042D000F0C7F8BDF804000028E8D0002006E082
S315080042E0002240F22661374803F088FA012004B01C
S315080042F070BD10B584B00400012240F22661314831
S3150800430003F07CFA40F226612E4803F0B5FA05E080
S31508004310217889B22B4803F09AFA641C2078002881
S315080043200DD001A8009002AB00223221284800F0E7
S3150800433098F8BDF804000028EAD0002006E000221C
S3150800434040F226611F4803F059FA012004B010BD57
S3150800435038B50400002501F021F905001B48046062
S3150800436019480460280001F01DF9012032BD80B506
S315080043700021C0B2002809D001F010F9010001207F
S315080043801C4A1070080001F00DF908E001F006F962
S3150800439001000020174A1070080001F003F90120F7
S315080043A002BD80B5012003F0BDFA002808D000AB95
S315080043B000220121104802F0B0FA012003F0C4FAE5
S315080043C001BD000000480040B04C0020AC4C002065
S315080043D0244B0020003801401C4C0020504A002085
S315080043E0404B0020004400405C4B00209200002017
S315080043F000080140C14C0020E84B00202DE9F0419F
S3150800440005000E0090461C000027DFF838020078E9
S31508004410002803D042F6E160208020E0002D03D179
S3150800442045F6C35020801AE001F0B8F80700DFF817
S3150800443018022860C5F814800020A8616E6015F17E
S31508004440080002F011FFDFF804020088401CDFF8BC
S31508004450FC110880380001F0A5F800202080BDE88E
S31508004460F0812DE9F04389B006000F009146984681
S315080044700024109D73480078002804D046F2AE1038
S31508004480288000207AE0002E04D145F6C350288003
S31508004490002073E01FFA89F94846002802D0B0F5D3
S315080044A0004F20D130686849884221D1B8F1000F01
S315080044B002D00020C8F8000001F070F80400706906
S315080044C000281AD07069401E7061B8F1000F02D03A
S315080044D0B069C8F800007669200001F063F800208A
S315080044E0288030004AE045F625602880002045E00F
S315080044F045F6C4502880002040E05FEA094008D508
S315080045007669200001F04EF846F2B0102880300097
S3150800451034E04F480078002807D0200001F042F820
S3150800452046F663502880002028E03B00062231002A
S3150800453000A802F035FE200001F034F802F018FD5C
S3150800454001F02CF804004348006890F8350000286C
S3150800455005D002282BD014D303281ED033E0B8F197
S31508004560000F04D03B480068006CC8F80000002023
S3150800457028807669200001F015F8300009B0BDE8FA
S31508004580F083B8F1000F04D032480068006CC8F810
S31508004590000046F2A9102880EBE7B8F1000F02D018
S315080045A00020C8F8000047F2D9202880E1E7B8F1D2
S315080045B0000F04D027480068006CC8F8000045F6CC
S315080045C0C2502880D5E746F62E602880200000F0E5
S315080045D0E9FF0020D2E770B505000E001400002D93
S315080045E004D145F6C3502080002019E0B6B2300049
S315080045F0002808D0B0F5007F05D0B0F5004F02D0EE
S31508004600B0F5024F0DD128680F4988420ED103F044
S315080046107CF802002300310089B2280000F01CF85B
S3150800462070BD45F6256020800020F9E745F6C450A0
S3150800463020800020F4E70021044A1180002101802F
S3150800464070470000C34C002053454D41BC4C002028
S31508004650C84C00209C4C00202DE9F04782B004008D
S315080046600D0016001F005FF0000800F097FF804657
S3150800467014F108000189002918D1606910F1010FA9
S3150800468007D1404600F08EFF46F6C5503880002018
S3150800469033E06069401C6061D4F81490A661404616
S315080046A000F080FF00203880484626E0A90502D59C
S315080046B0B0F8089001E05FF00109D0F800A00BE01F
S315080046C0DAF80810DAF804A0009600230022200081
S315080046D002F040FEB9F101091FFA89F9B9F1000F94
S315080046E0EED1D4F81490404600F05CFF280401D4BB
S315080046F002F03EFC002038804846BDE8F68710B434
S3150800470050F8041B81B102681218001D50F8043BCA
S31508004710DC0744BFA9F10104E31852F8044B43F837
S31508004720044B091FF9D1EBE710BC7047F8B5050033
S315080047300E0014000027DFF858020078002803D07E
S3150800474047F27520208040E0DFF84802007800280C
S3150800475003D046F66350208037E0B6B23000002812
S3150800476005D0022803D004281FD008281ED1002D02
S3150800477003D147F27E20208027E000F00FFF0700D4
S315080047800120DFF81412096881F836002300320088
S3150800479092B229008048006803F05CF92088002856
S315080047A008D0380000F0FEFE0FE0E6E745F6256083
S315080047B020800AE07848006802F0B6FE380000F06B
S315080047C0F1FE02F0D5FB00202080F1BDF8B50024EB
S315080047D0079D6F4E3678002E03D047F27520288045
S315080047E0AFE06C4C2478002C03D046F66350288042
S315080047F0A7E0069C14F00E06B6B23700002F05D0C7
S31508004800022F03D0042F17D0082F16D1002B0CD156
S3150800481092B2002A09D189B2002906D180B20028AD
S3150800482003D147F27E2028808BE04FF6E17C14EA1C
S315080048300C0F06D1002705E0F7E745F62560288026
S315080048407FE00127FFB2012F03D145F625602880B6
S3150800485077E0C4F30014A4B214F00104E4B2012C06
S315080048601BD0B3F57A7F03D347F27B20288068E014
S3150800487092B23C2A03DB47F27A20288061E089B2AB
S315080048803C2903DB47F2792028805AE080B2642865
S3150800489014DB47F27820288053E089B242F210747C
S315080048A0A14203DB47F2792028804AE080B2B0F5BE
S315080048B07A7F03DB47F27820288042E0374C246869
S315080048C080B24FF4616789B25FF03C0C0CFB01F1D2
S315080048D007FB001092B210184FF4FA71B1FBF4F10D
S315080048E0C91801FB04F14FF47A72B1FBF2F104FB2B
S315080048F00017002F22D000F051FE0400012026499F
S31508004900096881F836002B00320092B23900224835
S31508004910006803F09FF82888002803D0200000F0DC
S3150800492041FE0EE01C48006802F0FEFD200000F083
S3150800493039FE02F01DFB0020288002E047F27E20A7
S315080049402880F1BD10B582B003F0B1FA00AA0021A3
S31508004950134803F015FD0400124800780C21124A8A
S3150800496001FB002002F00EFE10480068401E0F49A9
S3150800497008600E480068002808D10D4800680B49F1
S31508004980086000AA00210B4803F0FAFC13BD0000DA
S31508004990C34C0020C84C00209C4C0020C0B5000821
S315080049A060470020C54C0020D83E0020984C0020C7
S315080049B0944C00201448002038B50C001500FFF769
S315080049C098FC2000FFF7C4FC00AA00212800FFF786
S315080049D0ADFEDFF8240704680020FFF7B9FC2000C5
S315080049E032BD02E00D220270401C0278002A01D175
S315080049F08842F7D3704738B50024002500A9DFF8A8
S31508004A00FC06FFF715FA040025004FF48072002112
S31508004A102800FFF76BFA64222900DFF8E4064068ED
S31508004A20FFF7CAFF040021002800FFF7DAFFB7A145
S31508004A30280000F035FC002807D000AA2900DFF876
S31508004A40BC06FFF718FA012006E000AA2900DFF8DD
S31508004A50AC06FFF710FA002032BD70B584B0002509
S31508004A60002602A9DFF89406FFF7E2F905002E00F2
S31508004A70002400E0641CE4B2642C2DDAE4B2002CB5
S31508004A8009D002A8019000200090C8230022002126
S31508004A900020FFF79BFE4FF4807200213000FFF7DD
S31508004AA025FA64223100DFF858068068FFF784FF8C
S31508004AB0050029003000FFF794FFDFF8481630009C
S31508004AC000F0EEFB0028D5D002AA3100DFF82C064C
S31508004AD0FFF7D1F9012006E002AA3100DFF81C062B
S31508004AE0FFF7C9F9002004B070BD2DE9FE4F002577
S31508004AF000275FF000085FF000095FF0000A5FF02A
S31508004B00000B002402A9DFF8F405FFF791F98346A4
S31508004B105C46002601E00025761CF6B2642E53DAC0
S31508004B20F6B2002E09D002A8019000200090C823F2
S31508004B30002200210020FFF749FE4FF48072002171
S31508004B402000FFF7D3F964222100DFF8B405C06816
S31508004B50FFF732FF834659462000FFF742FFB8A108
S31508004B60200000F09DFB0028D5D03A224FF4807132
S31508004B70200000F06DFB871C380003F035FD8046E9
S31508004B802C224FF48071200000F062FB10F101091D
S31508004B90484603F029FD82465FFA88F8B8F1060F01
S31508004BA010DB5FFA8AFABAF1630F0BD06D1CEDB20F
S31508004BB0072DB1DB02AA2100DFF84005FFF75BF9F4
S31508004BC0012008E00025A7E702AA2100DFF82C0546
S31508004BD0FFF751F90020BDE8FE8F70B584B00025B7
S31508004BE0002602A9DFF81405FFF722F905002E00B2
S31508004BF0002400E0641CE4B2642C34DAE4B2002C2D
S31508004C0009D002A8019000200090C82300220021A4
S31508004C100020FFF7DBFD4FF4807200213000FFF71C
S31508004C2065F964223100DFF8D8040069FFF7C4FE8D
S31508004C30050029003000FFF7D4FEDFF8CC14300059
S31508004C4000F02EFB002806D1DFF8C014300000F073
S31508004C5027FB0028CED002AA3100DFF8A004FFF710
S31508004C600AF9012006E002AA3100DFF89004FFF7EE
S31508004C7002F9002004B070BD70B584B00025002686
S31508004C8002A9DFF87804FFF7D3F805002E00002400
S31508004C9000E0641CE4B2642C2DDAE4B2002C09D0DE
S31508004CA002A8019000200090C823002200210020BD
S31508004CB0FFF78CFD4FF4807200213000FFF716F9DC
S31508004CC064223100DFF838044069FFF775FE0500F5
S31508004CD029003000FFF785FEDFF83414300000F0B5
S31508004CE0DFFA0028D5D002AA3100DFF81004FFF752
S31508004CF0C2F8012006E002AA3100DFF80004FFF737
S31508004D00BAF8002004B070BD000000004F4B000048
S31508004D1038B50024002500A9DFF8E003FFF788F876
S31508004D20040025004FF4807200212800FFF7DEF802
S31508004D3064222900DFF8C8038069FFF73DFE0400F6
S31508004D4021002800FFF74DFE99A1280000F0A8FAD7
S31508004D50002807D000AA2900DFF8A003FFF78BF880
S31508004D60012006E000AA2900DFF89003FFF783F880
S31508004D70002032BD38B50024002500A9DFF87C03E1
S31508004D80FFF756F8040025004FF48072002128002A
S31508004D90FFF7ACF864222900DFF86403C069FFF75F
S31508004DA00BFE040021002800FFF71BFE80A1280047
S31508004DB000F076FA002806D000AA2900CF48FFF7A7
S31508004DC05AF8012005E000AA2900CC48FFF753F855
S31508004DD0002032BD70B582B00025002600A9C7485C
S31508004DE0FFF726F805002E00002400E0641CE4B254
S31508004DF0642C1EDA4FF4807200213000FFF776F833
S31508004E004FF4FA623100BE48006AFFF7D5FD050087
S31508004E1029003000FFF7E5FD65A1300000F040FAF3
S31508004E200028E3D000AA3100B448FFF724F801208F
S31508004E3005E000AA3100B148FFF71DF8002076BD4D
S31508004E404353510070B584B00025002602A9AB482B
S31508004E50FEF7EEFF05002E00002400E0641CE4B215
S31508004E60642C2ADAE4B2002C09D002A801900020AA
S31508004E700090C823002200210020FFF7A7FC4FF46A
S31508004E80807200213000FFF731F8642231009C4817
S31508004E90406AFFF791FD050029003000FFF7A1FDE4
S31508004EA092A1300000F0FCF90028D7D002AA310000
S31508004EB09248FEF7E0FF012005E002AA31008F487C
S31508004EC0FEF7D9FF002004B070BD38B500240025D0
S31508004ED000A98A48FEF7ACFF040025004FF480724B
S31508004EE000212800FFF702F88548806AFFF701FAD3
S31508004EF088480078FF2803D18748FFF7FAF902E0C7
S31508004F008648FFF7F6F98648FFF7F3F92000FFF71A
S31508004F101FFA00AA002140F6B830FFF707FC7648CA
S31508004F2004680020FFF714FA21002800FFF759FD4E
S31508004F307C49280000F0B4F9002806D000AA290008
S31508004F406E48FEF798FF012005E000AA29006B4885
S31508004F50FEF791FF002032BD30B585B004000D0084
S31508004F60ADB22A0062A103A801F084FA6448C06AB7
S31508004F70FFF7BFF903A8FFF7BCF95EA0FFF7B9F979
S31508004F8001A8009002AB00224FF47A716648FFF739
S31508004F9068FABDF80400002801D0002005E02900C1
S31508004FA089B22000FFF777F9012005B030BD00006F
S31508004FB04F4B000080B5FFF71EFD002801D10020E9
S31508004FC039E0FFF74AFD002801D1002033E0FFF75A
S31508004FD08CFD002801D100202DE0FFF7FEFD0028FA
S31508004FE001D1002027E0FFF747FE002801D1002065
S31508004FF021E0FFF78DFE002801D100201BE0FFF716
S31508005000B9FE002801D1002015E0FFF7E3FE0028CD
S3150800501001D100200FE0FFF715FF002801D100207D
S3150800502009E0FFF752FF002801D1002003E0012024
S315080050303E490870012002BD10B584B00024C0B2F4
S31508005040002836D002213A4800F02DFB10213848B6
S3150800505000F02CFB02A8019000200090C823012232
S3150800506000210020FFF7B2FB1021314800F01BFB9E
S3150800507002A80190002000900023032200210020AE
S31508005080FFF7A4FB0AE002A8019000200090642321
S31508005090002200210020FFF799FB641CE4B2FA2CD9
S315080050A005DAFFF7A8FC0128EDD1012010E0002061
S315080050B00EE002211E4800F0F9FA02A8019000202D
S315080050C000900023032200210020FFF77FFB012028
S315080050D004B010BD38B50400002500F05FFA0500DD
S315080050E012480470280000F05DFA31BD2E00000059
S315080050F0256400000D000000AC4C0020044C002084
S315080051000000002068B500089CB40008A8B4000890
S31508005110B4B4000893000020B8B30008500000207B
S3150800512074000020C0B40008B04B0020C04C00201A
S3150800513000080140002201E0401C521C002804D04F
S315080051400378002B01D08A42F6D31000704780B549
S315080051505FF0FF3200F001F802BD30B4002801D13B
S31508005160002029E0002901D1002025E0002A23D0CB
S31508005170030000E05B1C002B02D01C78002CF9D140
S31508005180002B01D1002017E0002404E00D781D70E3
S315080051905B1C491C641C002B06D0002904D00D7822
S315080051A0002D01D09442F1D3002B01D0002901D162
S315080051B0002001E00021197030BC7047F0B4002AC5
S315080051C001D1002042E0002807D1002901D10020A2
S315080051D03CE00878404200B238E0002902D1007865
S315080051E000B233E003000C005B1C641C002504E0DD
S315080051F0401C491C5B1C641C6D1C06780F78BE425B
S3150800520008D10678002E05D0002B03D0002C01D03B
S315080052109542EDD3954201D1002017E002780D782A
S31508005220AA4203D000780978401A0EE000780028D0
S3150800523001D1002009E0002B06D1002C01D1002065
S3150800524003E02078404200E0187800B2F0BC7047CE
S3150800525010B4002801D1002020E0002901D1002047
S315080052601CE0002301E0401C5B1C002808D00478E1
S31508005270002C05D00478D2B2944201D08B42F2D3E6
S31508005280002801D1002009E08B4201D3002005E067
S315080052900178D2B2914201D00020FFE710BC7047D6
S315080052A080B55FF0FF3200F001F802BD2DE9F84342
S315080052B004000D001100002C01D1002047E0002D4C
S315080052C001D1002043E0002901D100203FE011F17F
S315080052D0010F01D04E1C01E05FF0FF362000FFF7FA
S315080052E029FF070031002800FFF724FF0600002EDB
S315080052F001D120002BE0B74201D2002027E038195F
S31508005300002801D1002022E07019002801D10020D0
S315080053101DE0BF1B5FF00008002118EB04093200EE
S3150800532029004846FFF74AFF00B2002801D10121AB
S3150800533000E0002118F10108C9B2002901D147454A
S31508005340EBD200B2002801D0002000E04846BDE8B4
S31508005350F28350F8041B61B150F8042BD30744BFFD
S31508005360A9F101039A18002342F8043B091FFAD150
S31508005370EFE77047002800D17047002900D1704731
S31508005380002A00D170472DE9F81F00F0030301F049
S315080053900304A34211D1C3F1040303F00303012B51
S315080053A01DD3012A00D2F2E011F8014B00F8014B97
S315080053B0A3F10103A2F10102F1E700F0010301F0F4
S315080053C00104A34200D094E0012B44D311F8014B09
S315080053D000F8014BA3F10103A2F10102F4E7B2F5CB
S315080053E0B47F26D3B1E8F81FA0E8F81FB1E8F81F84
S315080053F0A0E8F81FB1E8F81FA0E8F81FB1E8F81F01
S31508005400A0E8F81FB1E8F81FA0E8F81FB1E8F81FF0
S31508005410A0E8F81FB1E8F81FA0E8F81FB1E8F81FE0
S31508005420A0E8F81FB1E8F81FA0E8F81FA2F5B472C3
S31508005430D5E7282A06D3B1E8F81FA0E8F81FA2F195
S315080054402802F6E7042A06D351F8043B40F8043B41
S31508005450A2F10402F6E7202A42D331F8023B20F8EB
S31508005460023B31F8023B20F8023B31F8023B20F8B8
S31508005470023B31F8023B20F8023B31F8023B20F8A8
S31508005480023B31F8023B20F8023B31F8023B20F898
S31508005490023B31F8023B20F8023B31F8023B20F888
S315080054A0023B31F8023B20F8023B31F8023B20F878
S315080054B0023B31F8023B20F8023B31F8023B20F868
S315080054C0023B31F8023B20F8023B31F8023B20F858
S315080054D0023B31F8023B20F8023BA2F12002BAE770
S315080054E0022A06D331F8023B20F8023BA2F1020257
S315080054F0F6E7102A42D311F8013B00F8013B11F8F0
S31508005500013B00F8013B11F8013B00F8013B11F89B
