S00C0000546573742E7372656378
S31508000000604800208DAF0008DFAD0008E1AD0008AC
S31508000010E3AD0008E5AD0008E7AD00080000000004
S31508000020000000000000000000000000E9AD000824
S31508000030EBAD00080000000097930008EDAD00083E
S31508000040B9B10008BDB10008C1B10008C5B10008C2
S31508000050C9B10008CDB10008D1B10008D5B1000872
S31508000060D9B10008DDB10008E1B10008E5B1000822
S31508000070E9B10008EDB10008F1B10008F5B10008D2
S31508000080F9B10008FDB1000801B2000805B2000880
S3150800009009B200080DB2000811B2000815B200082E
S315080000A019B200081DB2000821B2000825B20008DE
S315080000B029B200082DB2000831B2000835B200088E
S315080000C039B200083DB2000841B2000845B200083E
S315080000D049B20008F5AD0008FDAD000805AE0008F8
S315080000E00DAE00084DB2000851B20008F0B585B053
S315080000F000261CE0FFB2682F19D1DFF88C0C0068C7
S315080001000770DFF8840C0068401CDFF87C1C086068
S3150800011000260120DFF8741C087002A9DFF8700CAD
S3150800012003F06CFBBDF80800002800D000BFDFF81C
S31508000130580C006800281AD102A9DFF8580C03F0F9
S3150800014039FEDFF8441C0860DFF83C0C0068DFF86D
S31508000150481C08604FF480720021DFF83C0C0068E8
S3150800016003F086FEBDF80800002800D000BF02A8EC
S31508000170019003A800900DF10A0300220021DFF880
S315080001801C0C03F03BFF01000F7802AADFF8100CE5
S3150800019003F033FEDFF80C0C0078002865D0DFF892
S315080001A0EC0B00780028A5D0DFF8DC0B0068077098
S315080001B0DFF8D40B0068401CDFF8CC1B0860DFF8BA
S315080001C0C80B0068DFF8D01B0968401A0B2805D150
S315080001D0DFF8C40B0068807A10F10D06F6B2002E1F
S315080001E0A5D0DFF8A40B0068DFF8AC1B0968401A35
S315080001F0F6B2B0429BDBDFF8900B006810F8010CF2
S31508000200162894D1F6B2B11E89B2DFF88C0B0068B5
S3150800021000F033F9DFF8701B096811F8021CC0B248
S31508000220814284D100BF02AB00220021DFF8600BB7
S3150800023003F06CFB02A800900023F6B2320092B2DB
S31508000240DFF8540B0168DFF8600B03F0B6FF0020F7
S31508000250DFF8441B08600020DFF82C1B086000202C
S31508000260DFF8281B0870002661E7DFF8200B007806
S31508000270002821D1FFB2682F7FF459AFDFF8080BA9
S3150800028000680770DFF8000B0068401CDFF8F81AF2
S3150800029008600026012400250120DFF8F01A0870FE
S315080002A002A9DFF8EC0A03F0A9FABDF8080000284D
S315080002B03FF43DAF00BF3AE7DFF8CC0A00680770A5
S315080002C0DFF8C40A0068401CDFF8BC1A0860EDB203
S315080002D0002D39D1641CE4B2062C7FF428AFDFF870
S315080002E0B80A00684079682820D1DFF8AC0A0068A7
S315080002F0B0F80100DFF8A01A0968B1F8031080B257
S3150800030089B2884204D1012580B2860808360EE7EC
S315080003100020DFF8781A0870002600240025DFF888
S31508000320780A0068DFF8601A086000E70020DFF83E
S315080003305C1A0870002600240025DFF85C0A0068AD
S31508000340DFF8441A0860F2E6F6B2002E3FF4EFAE84
S31508000350DFF8340A0068DFF8401A0968401AF6B26E
S31508000360B042FFF6E4AEDFF8200A006810F8010C88
S31508000370162869D1F6B2B6F1080189B2DFF8180A6B
S315080003800068801D00F079F8DFF8FC19096811F893
S31508000390021CC0B2814249D100BF02AB0022002133
S315080003A0DFF8EC0903F0B2FADFF8EC090068007B25
S315080003B0032806D0042817D00A2802D00B2813D001
S315080003C024E00020DFF8C0190968087002A8009028
S315080003D00023F6B2320092B2DFF8BC090168DFF8F2
S315080003E0A80B03F0EAFE11E00020DFF89C19096863
S315080003F0087002A800900023F6B2320092B2DFF825
S3150800040098090168DFF8840B03F0D7FE0020DFF8AF
S31508000410881908600020DFF8701908600020DFF8E6
S315080004206C19087000260024002580E6DFF86809A4
S315080004300068DFF8541908600020DFF850190870C2
S3150800044000260024002572E6DFF84C090068DFF86C
S31508000450381908600020DFF83419087000260024CF
S31508000460002564E6DFF830090068DFF81C19086023
S315080004700020DFF818190870704710B4002200230E
S3150800048003E09BB21C5CA2185B1C9BB289B28B4230
S31508000490F7D31000C0B210BC7047000030B585B065
S315080004A00020002100220024002513E04FF480726A
S315080004B00021280003F0DCFC02AA2900DFF8D40892
S315080004C003F09BFC00240025002004F07EF80020A1
S315080004D004F06BFD02A8009003AB00220021DFF8B0
S315080004E0B00A04F0FCFD0FE002AA0021DFF8A40A16
S315080004F004F0AFFE2C00280004F067F84FF4807271
S315080005000021280003F0B4FCDFF88C0A00780128E3
S31508000510E0D1002C14D102A9DFF8780803F04AFCD0
S31508000520040025004FF480720021280003F0A0FC87
S31508000530BDF80800002800D000BF280004F045F8E0
S31508000540DFF8580A0068DFF8581A0968401A0128BF
S3150800055076DB02A8019000200090322300220021B9
S31508000560002004F021FFDFF8340A0468210028007F
S3150800057004F04CF99EA1280005F09AF80028B3D19A
S31508000580DFF8201A280005F093F8002810D002AAF0
S315080005900021DFF8140A04F05CFE2C00280004F0A1
S315080005A014F84FF480720021280003F061FCABE7D1
S315080005B0DFF8F819280005F07BF800287FF476AFF5
S315080005C0DFF8EC19280005F073F8002817D0DFF8D3
S315080005D0E419280005F06CF8002810D102AA0021B9
S315080005E0DFF8D40904F035FE2C00280003F0EDFFEF
S315080005F04FF480720021280003F03AFC84E7DFF804
S31508000600BC19280005F054F800280ED002A800905E
S315080006100023621B92B22900DFF8A40903F0CDFD7E
S315080006200024002003F0D1FF6EE72C00280003F019
S31508000630CCFF4FF480720021280003F019FC63E711
S3150800064002A80190002000903223002200210020F9
S3150800065004F0AAFE58E77047F0B585B000250024D7
S315080006600020ADF80A000027002605E002AA2100AE
S31508000670DFF8200703F0C1FB02A8019003A8009049
S315080006800DF10A0300220021DFF8340903F0B6FC55
S315080006900400C2A1200005F00BF8471C380000F042
S315080006A057F80600B6B2002EE0D0387B00280CD0EA
S315080006B0022814D0032813D004282DD00A280FD0D6
S315080006C00B2829D00C28D1D0D0E7B8790B2805D12A
S315080006D002AA0021DFF8EC0804F0BBFDC6E7C5E76F
S315080006E002A9DFF8B00603F065FB0500002D12D05D
S315080006F0B6B232003900280005F044F80120B6B237
S31508000700705502A800900023320092B22900DFF843
S31508000710780803F052FDA9E702A9DFF8780603F086
S3150800072049FB0500002D12D0B6B232003900280068
S3150800073005F028F80120B6B2705502A800900023EB
S31508000740320092B22900DFF8440803F036FD8DE73F
S3150800075070B50400B4F80150B4F80300ADB280B225
S31508000760854214D1ADB2AD08ADB2281986792900F3
S3150800077089B2A01DFFF781FE864208D1ADB22819BD
S31508000780C079162803D115F10800C0B200E0002090
S3150800079070BD10B584B00024002009E002A80190BD
S315080007A000200090002300220121002004F0FCFD17
S315080007B0DFF8E40700780028F0D1002003F05CFF9A
S315080007C0012003F059FF04F04EFB0028F0D1641C09
S315080007D0E4B2032094FBF0F100FB11400028F2D1AB
S315080007E00024002003F048FF012003F045FFEAE754
S315080007F00A3E000010B58AB004AC68202070641C5C
S3150800080027202070641C00202070641C272020707C
S31508000810641C00202070641C68202070641CC92099
S315080008202070641CDFF8740D00782070641CDFF8F3
S315080008306C0D40782070641CDFF8600D807820709D
S31508000840641CDFF8580DC0782070641CDFF84C0D66
S3150800085000792070641C02202070641C70202070AF
S31508000860641C03202070641C09210DF11600FFF793
S3150800087004FE2070641C16202070641C09E002A87F
S3150800088001900020009000230A220021002004F095
S315080008908BFDDFF8040700780028F0D0112104A8A2
S315080008A004F034FB02A8009003AB00224FF4FA616F
S315080008B0DFF8100704F013FCBDF8080000280AD179
S315080008C002A80190002000900023002202210020A7
S315080008D004F06AFDDDE7002004F067FBD9E71FB5E1
S315080008E009E0002000F05CF80DF10A022100DFF8AB
S315080008F0A40403F082FA0DF10A00019003A80090FF
S3150800090002AB00220021DFF8840603F077FB04001F
S31508000910DFF83C0E0078AA2803D1012000F020F861
S3150800092002E0012000F03CF8207B042802D00B28C6
S3150800093007D00CE0BDF80800015D200000F030FE8D
S3150800094005E0BDF80800015D200000F0ACF8DFF80E
S31508000950000E0078AA28C4D1002000F001F8C3E7E9
S31508000960E0B5C0B2002811D04FF48051DFF8E40D8D
S3150800097005F087F802A80190002000904FF4FA735A
S3150800098001220021002004F00FFD05E04FF48051FC
S31508000990DFF8C00D05F078F80EBD00002C680000E1
S315080009A0E0B5C0B2002810D08021DFF8A80D05F008
S315080009B068F802A80190002000904FF416730022F0
S315080009C00021002004F0F0FC04E08021DFF8840D0B
S315080009D005F05AF80EBDE0B5C0B200280FD00421C4
S315080009E0DFF8740D05F04DF802A80190002000907C
S315080009F0002302220021002004F0D6FC04E0042192
S31508000A00DFF8540D05F040F80EBDE0B5C0B2002879
S31508000A100FD00221DFF8400D05F033F802A8019047
S31508000A2000200090002302220021002004F0BCFCD4
S31508000A3004E00221DFF8200D05F026F80EBDE0B52A
S31508000A40C0B200280FD00121DFF80C0D05F019F807
S31508000A5002A8019000200090002302220021002015
S31508000A6004F0A2FC04E00121DFF8EC0C05F00CF818
S31508000A700EBDE0B5C0B200280FD01021DFF8D40CA7
S31508000A8004F0FFFF02A80190002000900023022234
S31508000A900021002004F088FC04E01021DFF8B40CE3
S31508000AA004F0F2FF0EBD2DE9F04389B004000D00F5
S31508000AB000200190002000900020ADF80C000020D6
S31508000AC0ADF80A000026002700208DF808005FF020
S31508000AD000095FF000080222DFF8801C03A805F071
S31508000AE0DBF80322DFF8401E01A805F0D5F8BDF8AB
S31508000AF00C00002800F0A3800722DFF8301E14F14E
S31508000B00100003F0E2F9012840F09C80002636E048
S31508000B1007220098811D06A805F0BEF80122009854
S31508000B2010F10D0102A805F0B7F82B00DBB29DF80D
S31508000B300820009906A800F039F903220098C11C7C
S31508000B4000A805F0A9F87F1CBDF80A00BFB28742C5
S31508000B50DED3002003F048FD0622DFF8D41D04A8E2
S31508000B6003F0B3F9002803D1019904A800F0E2FEC6
S31508000B7003220198C11C01A805F08EF8761CBDF861
S31508000B800C00B6B2864254D206220198811D04A8EA
S31508000B9005F082F80322019810F10C0100A805F06F
S31508000BA07BF80222019810F112010DF10A0005F0F6
S31508000BB073F80622DFF8781D04A803F086F90028E2
S31508000BC032D1019904A800F0CBFD00282CD10DF1F3
S31508000BD00E01704803F0EEF88046002718E04FF43F
S31508000BE080720099404605F057F898F8160050F0BC
S31508000BF0800088F816004FF480720099404605F088
S31508000C001AF803220098C11C00A805F045F87F1CB5
S31508000C10BDF80A00BFB28742E1D30DF10E02414684
S31508000C205C4803F0EAF8A9E7012003F0DDFC002799
S31508000C308AE72A00D2B20021012000F0C5F909B0DE
S31508000C40BDE8F083002628E0012003F0CDFC2B0048
S31508000C50DBB29DF80820009906A800F0A7F8002046
S31508000C6003F0C2FC2A00D2B20099002000F0ACF9C9
S31508000C700622DFF8BC1C04A803F027F9002803D1D4
S31508000C80019904A800F056FE5FF0010903220198B5
S31508000C90C11C01A805F000F8761C5FFA89F9B9F1BC
S31508000CA0000FCCD1BDF80C00B6B28642C7D20622D8
S31508000CB00198811D04A804F0EFFF0322019810F1A2
S31508000CC00C0100A804F0E8FF0222019810F11201B5
S31508000CD00DF10A0004F0E0FF002706E00322009861
S31508000CE0C11C00A804F0D8FF7F1CBDF80A00BFB2DB
S31508000CF08742CBD207220098811D06A804F0CCFFB4
S31508000D000122009810F10D0102A804F0C5FF072280
S31508000D1006A914F1100003F0D8F80128DED19DF8D1
S31508000D200800E17B8842D9D10622DFF8041C04A812
S31508000D3003F0CBF8002887D1019904A800F010FD2C
S31508000D4000287FF481AF0DF10E01124803F032F846
S31508000D5080464FF480720099404604F09DFF98F84B
S31508000D60160050F0800088F816004FF4807200993B
S31508000D70404604F060FF0DF10E024146054803F0B7
S31508000D803CF85FF0010981E7344000205C40002010
S31508000D90943D00208C3F002038400020C03D0020B4
S31508000DA0A43F002053400020083E00202DE9F047CC
S31508000DB08CB004000D00002600200021ADF80C10B0
S31508000DC000275FF0000800218DF808105FF0000981
S31508000DD05FF0000A07A98A4668218AF800101AF106
S31508000DE0010A8AF800201AF1010A00210E0006E01D
S31508000DF0F6B2305D8AF800001AF1010A761CF6B2DE
S31508000E00072EF5DB01208AF800001AF1010A0320F3
S31508000E108AF800001AF1010A1F208AF800001AF160
S31508000E20010A90208AF800001AF1010A01208AF8BE
S31508000E3000001AF1010A0E2107A8FFF71EFB8AF81F
S31508000E4000001AF1010A16208AF800001AF1010AB0
S31508000E50002604E0FE20F6B204A97054761CF6B209
S31508000E60042EF7DB002617E0C0B2C119897BC0B291
S31508000E7004AA8154C0B2C119C97CC0B205AA81545A
S31508000E80401CC0B20428EFDB0DF10A023900DFF876
S31508000E90F00D02F0B2FF761C5FFA88F8B8F1000F81
S31508000EA030D1F6B2032E2DDA042104A803F0C5FAD0
S31508000EB0102107A803F0C1FA0DF10A00019006A84F
S31508000EC0009003AB00224FF49661DFF8B80D03F0EB
S31508000ED095F80700BDF80A00002805D0F6B2022EDC
S31508000EE001D15FF00008D6E70722B91C200002F0FE
S31508000EF0ECFF0128C8D15FF00108F87F8DF80800DB
S31508000F000020BEE70DF10A01DFF8740D02F052FF6A
S31508000F1081464FF480722900484604F0BDFE5FFA08
S31508000F2088F8B8F1000F0CD199F8160050F0400077
S31508000F3089F816004FF480722900484604F07BFEB3
S31508000F4017E0012202A919F1160004F01BFC04227D
S31508000F5004A919F10E0004F015FC042205A919F1DB
S31508000F60180004F00FFC4FF480722900484604F07C
S31508000F7062FE0DF10A024946DFF8040D02F03DFF54
S31508000F800CB0BDE8F08700002C3E0020E43D0020B0
S31508000F90383F0020003F0020524000203C400020FF
S31508000FA04040002060AE0008543F0020D8AE00083C
S31508000FB068B000087CAF00081C3F002074B0000829
S31508000FC0503E0020C83E00202DE9F54F8BB0002486
S31508000FD0002003905FF000080020ADF816000020FE
S31508000FE0ADF810000020ADF814000020ADF812008E
S31508000FF000208DF80A000020ADF808000020ADF8A2
S315080010000200002006900020019000208DF80000C4
S3150800101000208DF80100002500265FF000095FF02A
S31508001020000A5FF0000B0027019108A9DFF8500CB1
S3150800103002F0C0FE0400002C00F0958003949DF891
S315080010402C00002840F0978007220198811D09A8E6
S3150800105004F022FE0122019810F10D0100A804F007
S315080010601BFE0422019810F10E0107A804F014FED5
S315080010700122019810F116010DF1010004F00CFE91
S3150800108068202070641CA0466320A8F8000018F1A8
S3150800109002086320A8F8000018F1020844466820F0
S315080010A02070641C88202070641CDFF8F004007827
S315080010B02070641CDFF8E40440782070641CDFF8B4
S315080010C0DC0480782070641CDFF8D004C0782070B7
S315080010D0641CDFF8C80400792070641C0B2020709B
S315080010E0641C60202070641C04202070641C9DF819
S315080010F000002070641C002505E0ADB209A8285C34
S315080011002070641C6D1CADB2072DF6DB0120207023
S31508001110641C002505E0ADB207A8285C2070641C95
S315080011206D1CADB2042DF6DB9DF801002070641C21
S3150800113000202070641C18210398801DFFF79DF974
S315080011402070641C16202070641C9DF8300000284E
S315080011500CD02021039803F0D9FE08AA0399DFF8DA
S31508001160200B02F04AFE0DB0BDE8F08F202103984F
S3150800117003F063F9F1E70222DFF8E01505A804F0A9
S315080011808BFD0222DFF81C1D04A804F085FD03224E
S31508001190DFF8941706A804F07FFDBDF810000A21B1
S315080011A090FBF1F0ADF81200BDF810000A2190FB93
S315080011B0F1F201FB12008DF80A000020ADF80200DA
S315080011C0BDF81200ADF808009DF80A00002804D002
S315080011D0BDF80800401CADF80800002506E003220B
S315080011E00698C11C06A804F057FD6D1CBDF814002E
S315080011F0ADB28542B1D20322069810F10C0101A8BE
S3150800120004F04AFD0222069810F112010DF11600AB
S3150800121004F042FD002612E01FFA8BFB0E2000FBAD
S315080012200BF010F1120189B2039803F006F9039C3A
S3150800123003220198C11C01A804F02EFD761CBDF8F6
S315080012401600B6B28642CAD207220198811D09A89D
S3150800125004F022FD0122019810F10D0100A804F006
S315080012601BFD0422019810F10E0107A804F014FDD5
S315080012700122019810F116010DF1010004F00CFD90
S31508001280FFB2002F40F033810127BDF80200401C51
S31508001290ADF80200BDF80800012845D1BDF810A038
S315080012A0D34668202070641CA0460E2000FB0BF075
S315080012B00A30800050F00300A8F8000018F1020870
S315080012C00E2000FB0BF00A30800050F00300A8F84F
S315080012D0000018F10208444668202070641C882023
S315080012E02070641CAD4800782070641CAB484078B8
S315080012F02070641CA94880782070641CA748C078B0
S315080013002070641CA54800792070641C0B2020708E
S31508001310641C60202070641C04202070641C9DF8E6
S3150800132000002070641CE2E0BDF80200012845D1E7
S315080013305FF00A0AD34668202070641CA0460E2077
S3150800134000FB0BF00A30800050F00300A8F80000FC
S3150800135018F102080E2000FB0BF00A30800050F04E
S315080013600300A8F8000018F1020844466820207017
S31508001370641C88202070641C884800782070641CCF
S31508001380864840782070641C844880782070641CE5
S315080013908248C0782070641C804800792070641CDC
S315080013A00B202070641C40202070641C04202070D0
S315080013B0641C9DF800002070641C98E0BDF80200CB
S315080013C0BDF8081088424DD19DF80A00002803D1BF
S315080013D05FF00A0AD34602E09DF80AA0D3466820C1
S315080013E02070641CA0460E2000FB0BF00A3080001B
S315080013F050F00300A8F8000018F102080E2000FBC0
S315080014000BF00A30800050F00300A8F8000018F12D
S315080014100208444668202070641C88202070641CDA
S315080014205E4800782070641C5C4840782070641C14
S315080014305A4880782070641C5848C0782070641C0C
S31508001440564800792070641C0B202070641C2020EC
S315080014502070641C04202070641C9DF80000207015
S31508001460641C44E05FF00A0AD34668202070641CB6
S31508001470A0460E2000FB0BF00A30800050F0030057
S31508001480A8F8000018F102080E2000FB0BF00A303D
S31508001490800050F00300A8F8000018F1020844463E
S315080014A068202070641C88202070641C3B480078E3
S315080014B02070641C394840782070641C374880784E
S315080014C02070641C3548C0782070641C3348007945
S315080014D02070641C0B202070641C00202070641C83
S315080014E004202070641C9DF800002070641C5FF0C6
S315080014F0000908E05FFA89F909A819F800002070C0
S31508001500641C19F101095FFA89F9B9F1070FF1DBD2
S3150800151001202070641C5FF0000908E05FFA89F971
S3150800152007A819F800002070641C19F101095FFA70
S3150800153089F9B9F1040FF1DB9DF801002070641CEC
S3150800154000202070641CBAF1010A1FFA8AFABAF15F
S31508001550000F7FF46DAE00271FFA8BFB0E2000FBF1
S315080015600BF010F10A0189B20398801DFEF785FF7A
S315080015702070641C16202070641C9DF8300000281A
S315080015803FF44AAE1FFA8BFB0E2000FB0BF010F15E
S31508001590120189B2039803F0B9FC48E6D83F002047
S315080015A02DE9F04389B004000D00002002900020C8
S315080015B000900020ADF806000020ADF80C000026CB
S315080015C0002700208DF804005FF000085FF000098E
S315080015D0022262490DF1060004F05EFB0322D2499D
S315080015E002A804F059FBBDF80600002800F0AD80FB
S315080015F000261BE02B00DBB29DF80420009906A804
S3150800160000F042FB0622CA4904A802F05EFC002844
S3150800161003D1029904A800F08DF95FF001080322AE
S315080016200298C11C02A804F037FB761C5FFA88F8FA
S31508001630B8F1000F40F08980BDF80600B6B28642C0
S3150800164080F0838006220298811D04A804F024FBFA
S315080016500322029810F10C0100A804F01DFB0222D7
S31508001660029810F1120103A804F016FB002706E001
S3150800167003220098C11C00A804F00EFB7F1CBDF8CD
S315080016800C00BFB28742CAD207220098811D06A85D
S3150800169004F002FB0122009810F10D0101A804F0E4
S315080016A0FBFA072206A914F1100002F00EFC012825
S315080016B0DED19DF80400E17B8842D9D106229C49F7
S315080016C004A802F002FC002828D1029904A800F018
S315080016D047F8002822D10DF10E01DFF8A40502F023
S315080016E069FB81464FF480720099484604F0D4FAA3
S315080016F099F8160050F0800089F816004FF48072A9
S315080017000099484604F097FA0DF10E024946DFF8AB
S31508001710700502F072FB5FF0010880E7022200986C
S3150800172010F1160108A804F0B7FAA07B02283FF4C6
S3150800173061AF03287FF466AF2B00DBB29DF8042067
S31508001740009906A800F0BCF95CE709B0BDE8F0838B
S315080017507600002000080140000C0140A3F01F009D
S315080017602DE9F0478AB004000D0000260020ADF8E8
S315080017700A0000275FF0000800205FF000095FF00C
S31508001780000ADFF8701C0978AA291AD120780128DE
S3150800179006D014D303280BD006D304280CD00EE0A9
S315080017A00120FFF718F90AE00120FFF72EF906E0F5
S315080017B00120FFF744F902E00120FFF75AF901205A
S315080017C0AEE00DF1100A68208AF800001AF1010A45
S315080017D0A0208AF800001AF1010A002606E0F6B2EF
S315080017E0305D8AF800001AF1010A761CF6B2062E58
S315080017F0F5DB00208AF800001AF1010A04208AF8AD
S3150800180000001AF1010A04208AF800001AF1010AF8
S3150800181090208AF800001AF1010AA0208AF8000030
S315080018201AF1010A01208AF800001AF1010A552066
S315080018308AF800001AF1010A0F2104A8FEF71DFE16
S315080018408AF800001AF1010A16208AF800001AF12F
S31508001850010A012002F0C8FE002608E05FF0000831
S3150800186002AA3900DFF8180402F0C7FA761C5FFAF4
S3150800187088F8B8F1000F2CD1F6B2032E29DA112117
S3150800188004A802F0DAFD02A8019003A800900DF161
S315080018900A03002240F6B831DFF8E80302F0AEFB8F
S315080018A00700BDF80800002805D0F6B2022E01D1BF
S315080018B05FF00008DAE70622B91C200002F005FBF3
S315080018C00128CDD1B87B03210842C7D15FF00108B2
S315080018D0C6E75FFA88F8B8F1000F1CD102A9DFF84D
S315080018E0A00302F067FA81464FF480722900484641
S315080018F004F0D2F9012271A119F1170003F042FF91
S315080019004FF480722900484604F095F902AA494620
S31508001910DB4802F072FA002002F066FE4046C0B2CA
S315080019200AB0BDE8F0870000A0F01F004CB100081F
S3150800193054B100082DE9F0418AB005000C000026D4
S31508001940DFF8B00A0078AA281AD12878012806D024
S3150800195014D303280BD006D304280CD00EE000209D
S31508001960FFF739F80AE00020FFF74FF806E00020F5
S31508001970FFF765F802E00020FFF77BF8012099E001
S3150800198004AF682038707F1CA02038707F1C5FF079
S31508001990000807E05FFA88F818F8050038707F1C19
S315080019A018F101085FFA88F8B8F1060FF2DB002093
S315080019B038707F1C042038707F1C042038707F1C08
S315080019C0902038707F1CA02038707F1C012038704A
S315080019D07F1C992038707F1C0F2104A8FEF74DFD47
S315080019E038707F1C162038707F1C012002F0FCFD21
S315080019F05FF0000807E0002602AA3900A04802F0B6
S31508001A00FCF918F10108F6B2002E2FD15FFA88F812
S31508001A10B8F1030F2ADA112104A802F00EFD02A874
S31508001A20019003A800900DF10A03002240F6B83190
S31508001A30944802F0E3FA0700BDF80800002806D02B
S31508001A405FFA88F8B8F1020F00D10026D9E7062216
S31508001A50B91C280002F039FA0128CDD1B87BC0B2EA
S31508001A6010F003000228C6D10126C5E7F6B2002EFB
S31508001A701BD102A9824802F09DF905004FF4807235
S31508001A802100280004F008F901220CA115F117001D
S31508001A9003F078FE4FF480722100280004F0CBF89A
S31508001AA002AA2900764802F0A8F9002002F09CFD57
S31508001AB03000C0B20AB0BDE8F081000001000000A5
S31508001AC02DE9F04F8BB004000D001E000027002002
S31508001AD0ADF80A005FF000085FF0000900205FF02B
S31508001AE0000A5FF0000B05A98B4668218BF80010E9
S31508001AF01BF1010B8BF800201BF1010B00210F00D5
S31508001B0006E0FFB2385D8BF800001BF1010B7F1C65
S31508001B10FFB2072FF5DB04208BF800001BF1010B41
S31508001B2004208BF800001BF1010B17208BF800002E
S31508001B301BF1010BA0208BF800001BF1010B012003
S31508001B408BF800001BF1010B55208BF800001BF1E8
S31508001B50010B0F2105A8FEF790FC8BF800001BF17E
S31508001B60010B16208BF800001BF1010B002704E07F
S31508001B70FE20FFB203A978547F1CFFB2042FF7DBBF
S31508001B80012002F031FD002707E05FF0000902AAF4
S31508001B9041463B4802F031F97F1C5FFA89F9B9F1F1
S31508001BA0000F31D1FFB2032F2EDA042103A802F069
S31508001BB044FC112105A802F040FC02A8019004A8E3
S31508001BC000900DF10A03002244F620612D4802F028
S31508001BD015FA8046BDF80800002805D0FFB2022F86
S31508001BE001D15FF00009D7E7072218F102012000AA
S31508001BF002F06BF90128CAD198F80E0003210842B1
S31508001C00C3D15FF00109C2E702A91D4802F0D2F864
S31508001C1082464FF480722900504604F03DF85FFA78
S31508001C2089F9B9F1000F10D19AF8160050F0400062
S31508001C308AF816004FF480722900504603F0FBFF1D
S31508001C403000C0B200F0ECFF0FE0012296A11AF1B5
S31508001C50160003F097FD4FF480722900504603F0F2
S31508001C60EAFF3000C0B200F08DFF02AA51460448D0
S31508001C7002F0C3F8002002F0B7FC0BB0BDE8F08F05
S31508001C808C3F0020083E00202DE9F04F8BB0040061
S31508001C900D001E0000270020ADF80A005FF00008BE
S31508001CA05FF0000900205FF0000A5FF0000B05A94D
S31508001CB08B4668218BF800101BF1010B8BF800206E
S31508001CC01BF1010B00210F0006E0FFB2385D8BF80F
S31508001CD000001BF1010B7F1CFFB2072FF5DB042068
S31508001CE08BF800001BF1010B04208BF800001BF198
S31508001CF0010B17208BF800001BF1010BA0208BF8B5
S31508001D0000001BF1010B01208BF800001BF1010BF1
S31508001D1099208BF800001BF1010B0F2105A8FEF78F
S31508001D20ACFB8BF800001BF1010B16208BF80000AA
S31508001D301BF1010B002704E0FE20FFB203A978542B
S31508001D407F1CFFB2042FF7DB012002F04DFC0027B1
S31508001D5008E05FF0000902AA4146DFF8240E02F007
S31508001D604CF87F1C5FFA89F9B9F1000F32D1FFB23E
S31508001D70032F2FDA042103A802F05FFB112105A81F
S31508001D8002F05BFB02A8019004A800900DF10A037B
S31508001D90002244F62061DFF8FC0C02F02FF9804699
S31508001DA0BDF80800002805D0FFB2022F01D15FF068
S31508001DB00009D6E7072218F10201200002F085F88B
S31508001DC00128C8D198F80E00C0B28007C1D55FF0C7
S31508001DD00109C0E702A9DFF8A80D01F0EBFF82466A
S31508001DE04FF480722900504603F056FF5FFA89F9CE
S31508001DF0B9F1000F10D19AF8160050F040008AF891
S31508001E0016004FF480722900504603F014FF300084
S31508001E10C0B200F005FF0FE0012224A11AF1160056
S31508001E2003F0B0FC4FF480722900504603F003FF1C
S31508001E303000C0B200F0A6FE02AA5146DFF8400DF7
S31508001E4001F0DBFF002002F0CFFB0BB0BDE8F08FFE
S31508001E501FB50CE0BDF80800015D200000F01CFE6F
S31508001E600DF10A022100DFF8180D01F0C6FF0DF189
S31508001E700A00019003A8009002AB00220021DFF8B7
S31508001E80480E02F0BBF80400207B032802D00A287B
S31508001E90E0D0E5E7BDF80800015D200000F008F88D
S31508001EA0DEE70000B3F01F0000000000020000009B
S31508001EB0FEB505000C0000260027A87B02280CD0DA
S31508001EC0032800F0D980062800F01581072800F0BD
S31508001ED041810C2800F0658193E1A87CDFF8EC1DB0
S31508001EE00870687CDFF8E81D0870287CDFF8E41DB8
S31508001EF00870E87BDFF8E01D0870B5F81300DFF816
S31508001F00DC1D08801121DFF8D80D01F0ABFF062192
S31508001F1000A801F0A7FFAA7CBAA100A804F0BAF9A4
S31508001F2000A9DFF8BC0D03F042FBB7A1DFF8B00D3E
S31508001F3003F03DFB062100A801F094FF6A7CB1A1DD
S31508001F4000A804F0A7F900A9DFF8940D03F02FFB09
S31508001F50ADA1DFF88C0D03F02AFB062100A801F0DD
S31508001F6081FF2A7CA7A100A804F094F900A9DFF84C
S31508001F70700D03F01CFBA4A1DFF8640D03F017FB3A
S31508001F80062100A801F06EFFEA7B9EA100A804F0D6
S31508001F9081F900A9DFF8480D03F009FB0821DFF8ED
S31508001FA0440D01F05FFF062100A801F05BFFB5F8BC
S31508001FB0132094A100A804F06DF994A1DFF8240D6C
S31508001FC003F0F5FA00A9DFF81C0D03F0F0FA90A16A
S31508001FD0DFF8100D03F0EBFA02A9DFF8A40B01F005
S31508001FE0E9FE05004FF48072DFF8441E280003F06E
S31508001FF053FE1122DFF8E81C15F1500003F0C2FB6E
S315080020000822DFF8E01C15F1700003F0BBFB012283
S31508002010DFF8B81C15F16F0003F0B4FB0122DFF8F6
S31508002020B01C15F16E0003F0ADFB0122DFF8A41C0D
S3150800203015F16D0003F0A6FB0122DFF89C1C15F1D3
S315080020406C0003F09FFB0222DFF8901C15F17E005E
S3150800205003F098FB4FF48072DFF8D41D280003F0D4
S31508002060EAFD02AA2900DFF8180B01F0C6FE2000D7
S31508002070C0B200F087FDC4E00521DFF8B80D01F015
S31508002080F1FEE87BDFF8AC1D0870287CDFF8A41D9C
S315080020904870687CDFF89C1D8870A87CDFF8941D62
S315080020A0C8700020DFF88C1D087102A9DFF8D00A75
S315080020B001F080FE05004FF48072DFF8741D2800D9
S315080020C003F0EAFD0522DFF86C1D15F1800003F028
S315080020D059FB4FF48072DFF8581D280003F0ABFD5A
S315080020E002AA2900DFF8980A01F087FE2000C0B28C
S315080020F000F048FD85E015F1190000F0D5FA060054
S3150800210015F11201300000F085F807007FF07F40D6
S3150800211086421ED0E87F00280BD17FF07F40874299
S3150800212007D03900300000F067F92000C0B200F08F
S3150800213029FDE87F01280CD17FF07F40874208D12E
S3150800214015F11201300000F09BF82000C0B200F033
S3150800215019FD56E0E87BAA280FD115F1100000F00A
S31508002160A3FA06007FF07F40864206D0300000F0D2
S315080021704BFB2000C0B200F005FDE87B55280FD1C7
S3150800218015F1100000F090FA7FF07F41884207D1E0
S3150800219015F1100000F0BAFA2000C0B200F0F2FC07
S315080021A02FE0E87BAA2802D1AA2092490870E87B8A
S315080021B0FF2802D1FF208F49087002A9DFF8C0095D
S315080021C001F0F8FD05004FF48072DFF8641C280062
S315080021D003F062FD0122874915F1C00003F0D2FA27
S315080021E04FF48072DFF8481C280003F024FD02AA89
S315080021F02900DFF88C0901F000FE2000C0B200F0CB
S31508002200C1FCF7BD256400002E0000002C0000006C
S315080022100D00000030B585B005000C0000200090C8
S315080022200020ADF80400022215F1120101A803F0FE
S3150800223033FD032215F10C0100A803F02DFD00253E
S3150800224006E003220098C11C00A803F025FD6D1CBA
S31508002250BDF80400ADB285420ED207220098811D52
S3150800226002A803F019FD072202A9200001F02DFE9D
S315080022700128E6D1009801E07FF07F4005B030BD27
S3150800228070B586B004000D00002002900020019071
S3150800229000260020ADF800000020ADF8020000205E
S315080022A00390022214F1120100A803F0F5FC0222A1
S315080022B0DFF8841B0DF1020003F0EEFC032214F193
S315080022C00F0102A803F0E8FCBDF80000401CADF8B9
S315080022D00000BDF80200401CADF8020003F039FE0C
S315080022E0019007220198811D280003F076FC01223F
S315080022F0019810F10D01E81E03F06FFC0422019805
S3150800230010F10E0103A803F068FC0222019810F1EF
S31508002310160103A803F061FC04A9DFF8640801F0BC
S3150800232049FD060002987FF07F4188421ED10322AC
S3150800233014F10C0101A803F050FC032214F10F015B
S3150800234001A803F04AFC4FF480722100300003F024
S31508002350A3FC022200A916F1120003F013FA4FF4A7
S3150800236080722100300003F066FC24E04FF480728E
S315080023702100300003F090FC032201A916F10F009A
S3150800238003F000FA022200A916F1120003F0FAF986
S315080023904FF480722100300003F04DFC03220298AE
S315080023A0C11C01A803F019FC0322019810F11201BF
S315080023B002A803F012FC4FF48072DFF8741A30009A
S315080023C003F06AFC02220DF1020116F1B30003F0D4
S315080023D0D9F94FF48072DFF8581A300003F02BFC55
S315080023E004AA3100DFF8980701F007FD019806B046
S315080023F070BD0000760000207FB504000D000020A7
S3150800240002900020019000260020ADF80000002070
S31508002410ADF80200022214F1120100A803F03CFCF8
S315080024200222DFF8141A0DF1020003F035FC03222C
S31508002430E91C02A803F030FC032215F1120101A8D9
S3150800244003F02AFCBDF80000401EADF80000BDF8F8
S315080024500200401EADF80200280003F0DAFD03A9C9
S31508002460DFF81C0701F0A6FC0600BDF800000028EE
S3150800247033D14FF480722100300003F00DFC0322A3
S3150800248002A916F10C0003F07DF9022200A916F143
S31508002490120003F077F9032201A916F10F0003F0E1
S315080024A071F94FF480722100300003F0C4FB4FF439
S315080024B08072DFF87C19300003F0EEFB02220DF182
S315080024C0020116F1B30003F05DF94FF48072DFF8EC
S315080024D06019300003F0AFFBDDE001987FF07F4123
S315080024E0884205D002987FF07F41884240F0898073
S315080024F001987FF07F4188423ED14FF4807202995D
S31508002500300003F0C9FB032201A916F1120003F0FB
S3150800251039F94FF480720299300003F08CFB4FF4BE
S3150800252080722100300003F0B7FB032202A916F1DE
S315080025300C0003F027F9022200A916F1120003F095
S3150800254021F94FF480722100300003F074FB4FF438
S315080025508072DFF8DC18300003F09EFB02220DF1D2
S31508002560020116F1B30003F00DF94FF48072DFF89B
S31508002570C018300003F05FFB02987FF07F41884265
S3150800258040F089804FF480720199300003F084FB93
S31508002590032202A9F01C03F0F5F84FF480720199A2
S315080025A0300003F048FB4FF480722100300003F03E
S315080025B073FB032201A916F10F0003F0E3F80222C8
S315080025C000A916F1120003F0DDF84FF4807221001D
S315080025D0300003F030FB4FF48072DFF854183000F7
S315080025E003F05AFB02220DF1020116F1B30003F0C3
S315080025F0C9F84FF48072DFF83818300003F01BFB77
S3150800260049E04FF480720199300003F045FB03223C
S3150800261002A9F01C03F0B6F84FF480720199300055
S3150800262003F009FB4FF480720299300003F034FB83
S31508002630032201A916F1120003F0A4F84FF48072E0
S315080026400299300003F0F7FA4FF480722100300047
S3150800265003F022FB022200A916F1120003F092F8F9
S315080026604FF480722100300003F0E5FA4FF48072CF
S31508002670DFF8BC17300003F00FFB02220DF1020150
S3150800268016F1B30003F07EF84FF48072DFF8A01756
S31508002690300003F0D0FA03AA3100DFF8E40401F0B1
S315080026A0ACFB280004B070BD30B585B0040000202E
S315080026B000900222DFF8AC1D01A803F0EDFA032210
S315080026C0DFF8541E00A803F0E7FA002506E0032207
S315080026D00098C11C00A803F0DFFA6D1CBDF80400C1
S315080026E0ADB285420ED206220098811D02A803F0DB
S315080026F0D3FA062202A9200001F0E7FB0128E6D159
S31508002700009801E07FF07F4005B030BD30B585B058
S315080027100400002002900020009000250020ADF85B
S3150800272004000020ADF80C000222DFF8381D01A8CD
S3150800273003F0B2FA0322DFF8E41D02A803F0ACFAAC
S31508002740BDF80400401CADF8040003F002FC00903C
S3150800275006220098811D200003F03FFA0222009805
S3150800276010F1120103A803F038FA0DF10601DFF89B
S31508002770100401F01FFB05004FF48072DFF8B01655
S31508002780280003F089FA02987FF07F41884212D127
S31508002790032200A915F1A00002F0F4FF022201A904
S315080027A015F1A30002F0EEFF032200A915F1A5001A
S315080027B002F0E8FF18E0022201A915F1A30002F0D1
S315080027C0E1FF032200A915F1A50002F0DBFF0322B1
S315080027D00298C11C00A803F000FA0322009810F121
S315080027E0140102A803F0F9F94FF48072DFF84016D5
S315080027F0280003F020FA0DF106022900E04801F04E
S31508002800FCFA009805B030BD70B586B0040000200B
S31508002810ADF80C000020ADF802000020049000205E
S315080028200290002001900020ADF800000025002647
S31508002830022214F1120103A803F02EFA032214F15E
S315080028400C0104A803F028FA0322E11C02A803F0ED
S3150800285023FA032214F1140101A803F01DFA022237
S31508002860DFF8001C00A803F017FA0222DFF8C815E3
S315080028700DF1020003F010FABDF80000401EADF895
S3150800288000000020050009E0049803F0C2FB0322BB
S315080028900498C11C04A803F0FFF96D1CBDF80C00D0
S315080028A0ADB28542F0D3200003F0B3FB0DF10E0163
S315080028B0B34801F07FFA0600BDF80200BDF80C1017
S315080028C0401AADF802004FF48072DFF86415300044
S315080028D003F0E2F902220DF1020116F1B30002F04B
S315080028E051FF4FF48072DFF84815300003F0A3F962
S315080028F0BDF80000002820D14FF48072DFF83015AB
S31508002900300003F0C9F9032202A916F1A00002F06B
S3150800291039FF022200A916F1A30002F033FF0322B1
S3150800292001A916F1A50002F02DFF4FF48072DFF819
S315080029300015300003F07FF9A2E001987FF07F418F
S31508002940884204D002987FF07F41884261D101987D
S315080029507FF07F4188422BD14FF480720299300074
S3150800296003F09AF9032201A916F1140002F00AFFEE
S315080029704FF480720299300003F05DF94FF48072CB
S31508002980DFF8AC14300003F087F9032202A916F128
S31508002990A00002F0F7FE022200A916F1A30002F039
S315080029A0F1FE4FF48072DFF88814300003F043F923
S315080029B002987FF07F41884262D14FF48072019974
S315080029C0300003F069F9032202A9F01C02F0DAFECE
S315080029D04FF480720199300003F02DF94FF480729C
S315080029E0DFF84C14300003F057F9022200A916F15B
S315080029F0A30002F0C7FE032201A916F1A50002F002
S31508002A00C1FE4FF48072DFF82814300003F013F982
S31508002A1036E04FF480720199300003F03DF9032245
S31508002A2002A9F01C02F0AEFE4FF480720199300044
S31508002A3003F001F94FF480720299300003F02CF983
S31508002A40032201A916F1140002F09CFE4FF48072CD
S31508002A500299300003F0EFF84FF48072DFF8D013D4
S31508002A60300003F019F9022200A916F1A30002F0BA
S31508002A7089FE4FF48072DFF8B813300003F0DBF8F4
S31508002A800DF10E0231003E4801F0B7F9200006B0FC
S31508002A9070BD0000083E002080B5827B022A08D05F
S31508002AA0032A0BD0062A0ED0072A14D00C2A17D0D0
S31508002AB01AE00800C0B200F033FD15E00800C0B205
S31508002AC000F0D2FC10E00A00D2B210F11001C07B6F
S31508002AD000F0B4F908E00800C0B200F005F903E018
S31508002AE00800C0B200F08CFD01BDE0B51FE04FF450
S31508002AF08071DFF81C0C02F0C4FF02A801900020C8
S31508002B000090002301220021002002F04DFC4FF422
S31508002B108071DFF8FC0B02F0B7FF02A801900020D5
S31508002B200090002301220021002002F03DFCDFF87E
S31508002B30E40B00780028DAD04FF48071DFF8D00B68
S31508002B4002F09FFF02A80190002000904FF4FA734C
S31508002B5000220021002002F027FC4FF48071DFF8E4
S31508002B60B00B02F091FF02A80190002000904FF4EC
S31508002B70FA7300220021002002F016FCD7E70000B5
S31508002B808C3F002030B585B0040000AD6820287061
S31508002B906D1C272028706D1C002028706D1C2720AE
S31508002BA028706D1C002028706D1C682028706D1C0C
S31508002BB0802028706D1C9F48007828706D1C9D48E1
S31508002BC0407828706D1C9B48807828706D1C994841
S31508002BD0C07828706D1C9748007928706D1C0020F5
S31508002BE028706D1C602028706D1C012028706D1CD3
S31508002BF009210DF10600FDF740FC28706D1C162012
S31508002C0028706D1CE4B2002C04D0112100A802F033
S31508002C107DF903E0112100A801F00FFC05B030BDD5
S31508002C2030B585B0040000AD682028706D1C2720DB
S31508002C3028706D1C002028706D1C272028706D1CBC
S31508002C40002028706D1C682028706D1C8020287054
S31508002C506D1CDFF8C40A007828706D1CDFF8B80A06
S31508002C60407828706D1CDFF8B00A807828706D1CD3
S31508002C70DFF8A40AC07828706D1CDFF89C0A007972
S31508002C8028706D1C002028706D1C602028706D1C33
S31508002C90022028706D1C09210DF10600FDF7EDFBD9
S31508002CA028706D1C162028706D1CE4B2002C04D008
S31508002CB0112100A802F02AF903E0112100A801F069
S31508002CC0BCFB05B030BD00002C3E00207200002081
S31508002CD0730000207400002075000020700000209A
S31508002CE01C00002064000020F0B585B004000DF13A
S31508002CF00201DFF8280A01F05DF80600002E00F050
S31508002D00948035000322DFF8101801A802F0C4FFEA
S31508002D100222DFF8501700A802F0BEFF68203070C4
S31508002D20761CBDF80000062148430930800050F0A3
S31508002D3003003080B61CBDF8000006214843093060
S31508002D40800050F003003080B61C68203070761C76
S31508002D5088203070761C374800783070761C3548E5
S31508002D6040783070761C334880783070761C31484D
S31508002D70C0783070761C2F4800793070761C0A208F
S31508002D803070761C60203070761C07203070761CF8
S31508002D9000270FE0C0B202A9415C3170761C401CC6
S31508002DA0C0B20628F6DB03220198C11C01A802F06E
S31508002DB073FF7F1CBDF80000BFB2874207D2062208
S31508002DC00198811D02A802F067FF0020E8E7BDF818
S31508002DD000000621484310F1090189B2A81DFDF734
S31508002DE04CFB3070761C16203070761CE4B2002C32
S31508002DF00AD0BDF800000621484310F1110189B236
S31508002E00280002F083F809E0BDF8000006214843CF
S31508002E1010F1110189B2280001F00FFB0DF1020231
S31508002E202900DFF8F80800F0E8FF05B0F0BD00005B
S31508002E3000F01F00D83F0020B3F01F002DE9F74F20
S31508002E408CB05FF000085FF000095FF0000A5FF0E1
S31508002E50000B0025002600270222DFF8081603A823
S31508002E6002F01AFF0222DFF8B8180DF10E0002F080
S31508002E7013FF0322DFF8A01602A802F00DFFBDF823
S31508002E800C00002800F0EA8208A9DFF8900800F094
S31508002E9091FF0400002C00F0E18204940722DFF879
S31508002EA084180D9801F011F8012840F0F581BDF855
S31508002EB00E000A2190FBF1F0BDF80E100A2291FBD4
S31508002EC0F2F302FB13118DF800105FF00008ADF85D
S31508002ED002009DF80000002804D0BDF80200401C3E
S31508002EE0ADF802005FF0000907E003220298C11C52
S31508002EF002A802F0D1FE19F10109BDF80C001FFA6B
S31508002F0089F9814580F0A58206220298811D09A8C3
S31508002F1002F0C2FE0322029810F10C0101A802F089
S31508002F20BBFE0222029810F1120105A802F0B4FEB7
S31508002F305FF0000A12E0B6B2112000FB06F010F1AD
S31508002F40120189B2049801F078FA049C03220198C8
S31508002F50C11C01A802F0A0FE1AF1010ABDF814006E
S31508002F601FFA8AFA8245C0D207220198811D06A84F
S31508002F7002F092FE0122019810F10D010DF10100F7
S31508002F8002F08AFE0122019810F115010DF11600D2
S31508002F9002F082FEFFB2002F40F02A81012718F1C5
S31508002FA00108BDF80200012844D1BDF80E502E00D4
S31508002FB068202070641C112000FB06F00A3080008F
S31508002FC050F003002080A41C112000FB06F00A30F4
S31508002FD0800050F003002080A41C68202070641C28
S31508002FE088202070641CDFF8300700782070641C85
S31508002FF0DFF8240740782070641CDFF81C07807807
S315080030002070641CDFF81007C0782070641CDFF895
S31508003010080700792070641C0A202070641C602050
S315080030202070641C06202070641C9DF830002070F7
S31508003030641CDDE01FFA88F8B8F1010F43D10A25B0
S315080030402E0068202070641C112000FB06F00A3050
S31508003050800050F003002080A41C112000FB06F01D
S315080030600A30800050F003002080A41C68202070DD
S31508003070641C88202070641CDFF89C060078207089
S31508003080641CDFF8940640782070641CDFF8880614
S3150800309080782070641CDFF88006C0782070641C75
S315080030A0DFF8740600792070641C0A202070641CFE
S315080030B040202070641C06202070641C9DF8300097
S315080030C02070641C94E0BDF802001FFA88F8804559
S315080030D04BD19DF80000002802D10A252E0002E0F7
S315080030E09DF800502E0068202070641C112000FBFB
S315080030F006F00A30800050F003002080A41C11203E
S3150800310000FB06F00A30800050F003002080A41C63
S3150800311068202070641C88202070641CDFF8F8057D
S3150800312000782070641CDFF8F00540782070641C75
S31508003130DFF8E40580782070641CDFF8DC05C078C9
S315080031402070641CDFF8D00500792070641C0A2002
S315080031502070641C20202070641C06202070641CCB
S315080031609DF830002070641C42E00A252E00682075
S315080031702070641C112000FB06F00A30800050F015
S3150800318003002080A41C112000FB06F00A308000F2
S3150800319050F003002080A41C68202070641C88203E
S315080031A02070641CDFF8700500782070641CDFF856
S315080031B0680540782070641CDFF85C05807820700C
S315080031C0641CDFF85405C0782070641CDFF84805D5
S315080031D000792070641C0A202070641C002020706E
S315080031E0641C06202070641C9DF830002070641C46
S315080031F000202070641C00202070641C5FF0000B07
S3150800320008E05FFA8BFB06A81BF800002070641C18
S315080032101BF1010B5FFA8BFBBBF1070FF1DB5FF0CC
S31508003220000B08E05FFA8BFB09A81BF8000020706A
S31508003230641C1BF1010B5FFA8BFBBBF1060FF1DB7C
S3150800324000202070641C01202070641C6D1EADB225
S31508003250002D7FF47BAE0027B6B2112000FB06F0E6
S3150800326010F10A0189B20498801DFDF706F920704D
S31508003270641C16202070641C9DF8380000283FF452
S315080032805AAEB6B2112000FB06F010F1120189B24F
S31508003290049801F03BFE58E65FF0000934E003228B
S315080032A00198C11C01A802F0F7FC1AF1010ABDF841
S315080032B014001FFA8AFA824524D207220198811D32
S315080032C006A802F0E9FC0122019810F10D010DF1A2
S315080032D0010002F0E1FC072206A90D9800F0F5FDB1
S315080032E00128DCD19DF801009DF830108842D6D11E
S315080032F00122019810F115010DF1160002F0CCFC1F
S315080033005FF0010819F101095FFA88F8B8F1000FB2
S315080033101CD1BDF80C001FFA89F9814516D2062280
S315080033200298811D09A802F0B7FC0322029810F141
S315080033300C0101A802F0B0FC0222029810F1120159
S3150800334005A802F0A9FC5FF0000AB0E75FFA88F862
S31508003350B8F1000F7DD068202070641C6F202070A3
S31508003360641C00202070641C6F202070641C0020E0
S315080033702070641C68202070641C88202070641CDF
S31508003380DFF8940300782070641CDFF88C0340781B
S315080033902070641CDFF8800380782070641CDE4887
S315080033A0C0782070641CDC4800792070641C0A20F0
S315080033B02070641C60202070641C06202070641C29
S315080033C09DF830002070641C00202070641C0020CA
S315080033D02070641C5FF0000908E01FFA89F906A846
S315080033E019F800002070641C19F101091FFA89F9FF
S315080033F0B9F1070FF1DB5FF0000908E01FFA89F958
S3150800340009A819F800002070641C19F101091FFAAF
S3150800341089F9B9F1060FF1DB00202070641C012040
S315080034202070641C1B210498801DFDF726F8207067
S31508003430641C16202070641C9DF83800002804D0EF
S315080034402321049801F062FD03E02321049800F08B
S31508003450F4FF08AA0499B14800F0CFFC0FB0BDE804
S31508003460F08F0000A3F01F0070B582B0040000A919
S31508003470AA4800F09FFC0600002E4CD035006820B4
S315080034803070761C27203070761C00203070761C31
S3150800349027203070761C00203070761C682030702B
S315080034A0761C88203070761C9B4800783070761C15
S315080034B0994840783070761C974880783070761C2A
S315080034C09548C0783070761C934800793070761C21
S315080034D00A203070761C60203070761C032030700D
S315080034E0761C0921A81DFCF7C8FF3070761C16202B
S315080034F03070761CE4B2002C04D01121280001F0AB
S3150800350005FD03E01121280000F097FF00AA290015
S31508003510824800F072FC73BDA0F01F00A5F01F00E2
S31508003520F8B5040000260025002700A97B4800F00E
S3150800353041FC0600002E62D0350068203070761CEB
S315080035403F203070761C00203070761C3F2030708B
S31508003550761C00203070761C68203070761C882017
S315080035603070761C6C4800783070761C6A48407853
S315080035703070761C684880783070761C6648C0784B
S315080035803070761C644800793070761C0A203070DA
S31508003590761C60203070761C02203070761C6248DB
S315080035A000783070761C614800783070761C604868
S315080035B000783070761C5F4800783070761C3700CB
S315080035C05D4800883880BF1C3E000F21A81DFCF707
S315080035D054FF3070761C16203070761CE4B2002C2E
S315080035E004D01721280001F091FC03E017212800D8
S315080035F000F023FF00AA2900484800F0FEFBF1BDB1
S31508003600F8B5040000260025002700A9434800F065
S31508003610D1FB0600002E50D0350068203070761C8D
S315080036202B203070761C00203070761C2B203070D2
S31508003630761C00203070761C68203070761C882036
S315080036403070761C344800783070761C32484078E2
S315080036503070761C304880783070761C2E48C078DA
S315080036603070761C2C4800793070761C0A20307031
S31508003670761C60203070761C0C203070761C2F4823
S3150800368000783070761C0A21A81DFCF7F6FE30700B
S31508003690761C16203070761CE4B2002C04D0122159
S315080036A0280001F033FC03E01221280000F0C5FED3
S315080036B000AA2900194800F0A0FBF1BD00B585B0A5
S315080036C002A8019003A800904FF4847300220121F8
S315080036D01B4802F02CFE02A8019000200090C82387
S315080036E000220021002001F05FFE4FF480411548BA
S315080036F002F0BCF90028E3D14FF40041124802F069
S31508003700C0F94FF48051104802F0BEF9D8E700001E
S31508003710000C014053400020D83F00208C3F002079
S31508003720B3F01F004CB1000872000020730000209F
S31508003730740000207500002070000020760000202C
S31508003740703F002000100140000801402DE9F843B1
S3150800375006000F009046994600200B9DDFF83C15A1
S315080037600978002903D047F24330288038E0002E34
S3150800377003D145F6C350288032E0089CA4B2200045
S3150800378001282FD0022835D1B9F1000F03D147F20D
S315080037904030288024E003F0F5F8012186F82A1045
S315080037A0DFF8FC1431607760C6F820800021B1612B
S315080037B00021F161C6F8249034850999B1600A9907
S315080037C0F1600021316100217161DFF8D8140988A0
S315080037D0491CDFF8D024118003F0D8F8002028808F
S315080037E0BDE8F183B8F1000F03D147F23F302880D6
S315080037F0F6E7D0E745F625602880F1E738B50500F5
S315080038000C00DFF898040078002804D047F243300B
S315080038102080002046E0002D04D147F24230208067
S3150800382000203FE02868DFF87814884204D045F67F
S31508003830C4502080002035E000A803F00CFA95F863
S315080038402A0000281ED0022803D010D303280ED041
S3150800385020E0280000F0A4F90021280000F038F93B
S3150800386000A803F024FA00202080012019E0002196
S31508003870280000F02DF900A803F019FA002020808E
S3150800388001200EE000A803F012FA47F23D3020802E
S31508003890002006E000A803F00AFA47F2413020802B
S315080038A00020C0B232BD38B505000C000020DFF894
S315080038B0EC130978002904D047F243302080002011
S315080038C023E0002D04D147F24230208000201CE07E
S315080038D02868DFF8CC13884204D045F6C450208007
S315080038E0002012E003F04EF895F82A50EDB22900B0
S315080038F00029032902D80021218002E047F241313C
S31508003900218003F043F82800C0B232BDF8B505009F
S315080039100F0016001C00DFF884030078002804D086
S3150800392047F243302080002067E0002D04D147F29B
S3150800393042302080002060E02868DFF8641388425F
S3150800394004D045F6C4502080002056E000A803F0B5
S3150800395082F995F82A0000283FD0022803D034D3EC
S31508003960032832D041E0280000F01AF90020208010
S31508003970BFB2002F20D0032F02D0042F10D01CE096
S31508003980AA681000002803D0E9682800904702E0DA
S3150800399047F24430208000A803F089F901202BE083
S315080039A0AA681000002803D031002800904702E0DA
S315080039B047F244302080EEE7EDE700A803F077F9F8
S315080039C045F625602080002017E000A803F06FF96F
S315080039D047F24930208001200EE000A803F067F97D
S315080039E047F23D302080002006E000A803F05FF98A
S315080039F047F2413020800020C0B2F2BD00B589B040
S31508003A00AA490968002908D0A9490968A74A126875
S31508003A10B1FBF2F1A74A116006E0A54909680A2236
S31508003A20B1FBF2F1A34A1160A2490968A24A1160E2
S31508003A3000219D4A11600021A04A116000210AE078
S31508003A4089B29F4A12EBC102002393800023D380D8
S31508003A5000231360491C9B4A128889B29142EFD30E
S31508003A6099490968002903D147F2473101802DE0B9
S31508003A7096490968964A1268914203D247F2483134
S31508003A80018023E0934909781F2903D347F2463179
S31508003A9001801BE008900B2007900020069000206C
S31508003AA00590002004908948006803908A480068B9
S31508003AB002908548006801908648007800900023A7
S31508003AC00FF22D128549864803F01CFC09B000BD8B
S31508003AD010B4022280F82A2089B2012905D1416A48
S31508003AE0714A1268511881610DE0016A002905D1F1
S31508003AF0416A6D4A12685118816104E0016A6A4A8E
S31508003B0012685118816181696E4A1288B1FBF2F315
S31508003B1002FB131189B26A4A12EBC1010A68002A2C
S31508003B2007D10022026100224261086001208880D4
S31508003B302EE082695C4B1B68D21AC2610B6805E0ED
S31508003B405A6942610361106158610023002B1CD039
S31508003B509A69554C2468121BDA61DA69C469A2426B
S31508003B600AD21A69002A01D01B69EFE7002202610E
S31508003B70436118610023E9E75A69002AE0D1002267
S31508003B804261036158610860DFE78888401C8880C5
S31508003B90C8888A88904201D28888C88010BC704735
S31508003BA08169484A1288B1FBF2F302FB131189B204
S31508003BB0434A12EBC1010A68824206D102690A60C9
S31508003BC0002A08D00023536105E04269036913619E
S31508003BD0002B00D05A61012280F82A2000220261B7
S31508003BE0002242618888401E8880704700000000D5
S31508003BF0F0B583B00BE003F0E4FE041B00A803F065
S31508003C0056F82E480068A04201D22C48046000AB42
S31508003C1001AA0021002003F0A5FC050000A803F076
S31508003C201AF803F0CEFE04001F480068401C1E491F
S31508003C3008601D48006823490988B0FBF1F201FBBA
S31508003C40120080B21E4911EBC0000668002700E08A
S31508003C500127FFB2002FCED1002EF9D035691248C0
S31508003C600068B169884216D13000FFF799FF308D98
S31508003C70022804D101213000FFF72AFF02E00320C1
S31508003C8086F82A00B2681000002802D0F1683000D1
S31508003C9090472E00DDE70127DBE7000054400020AF
S31508003CA0544D522050400020204000209CB100086E
S31508003CB084B1000824400020284000201C40002031
S31508003CC0E43B0020C6980008A0B10008A8B1000887
S31508003CD080B10008839B0008A4B10008C0AE0008A4
S31508003CE0A83A00202DE9F84305000E00170098466B
S31508003CF00020DDF8249058490978002904D045F2B7
S31508003D00B960A9F8000053E0002F04D145F2BB6062
S31508003D10A9F800004CE01FFA88F8B8F1020F04DA97
S31508003D2045F2BC60A9F8000042E0089CA4B2042C45
S31508003D3004D245F2C160A9F8000039E00320002842
S31508003D400FD0074204D045F2BB60A9F800002FE067
S31508003D50210089B2014204D045F2C160A9F80000E9
S31508003D6026E03B003A00B8F10101002004E0A4B2C5
S31508003D70A2181A601300401C80B289B28842F6D392
S31508003D800020186002F0FEFD34492960AE606F60BD
S31508003D90EF60A5F81480A5F812802C8230490988AE
S31508003DA0491C2F4A118002F0F1FD0020A9F80000F5
S31508003DB0BDE8F18370B505000C000020002D04D184
S31508003DC045F2BF602080002016E002F0DBFDA98ADC
S31508003DD0002906D102F0DAFD45F2C26020800020F3
S31508003DE00AE0EE683168E960A98A491EA98202F0EC
S31508003DF0CDFD00202080300070BD70B505000E0096
S31508003E0014000020002D03D145F2BF6020801BE07E
S31508003E10002E03D145F2BE60208015E002F0B2FD07
S31508003E20A98A6A8A914205D302F0B0FD45F2BA60C2
S31508003E30208009E0E9683160EE60A98A491CA982F8
S31508003E4002F0A4FD0020208070BD0021044A1180E4
S31508003E500021018070470000544000204D454D2048
S31508003E604640002080B50A00002100F001F801BD97
S31508003E7030B4002A27D0002825D00023002403E0E8
S31508003E801B02C9B20B43641C042CF9D30425B0FBEE
S31508003E90F5F404FB1504E4B2002C08D003E0017025
S31508003EA0401C521E641C002A01D0042CF7D302E0E1
S31508003EB00360001D121F042AFAD202E00170401C9A
S31508003EC0521E002AFAD130BC704770B41300002B7A
S31508003ED001D1012052E0002801D100204EE000293E
S31508003EE001D100204AE00122181859180425B0FB10
S31508003EF0F5F404FB1504E4B20426B1FBF6F505FB5C
S31508003F001615EDB2AC4201D1012500E00025EDB24F
S31508003F10012D2CD1002C10D008E0401E491E057832
S31508003F200E78B54200D000225B1E641ED2B2012A6A
S31508003F3003D1002B01D0002CEFD1D2B2012A16D121
S31508003F4007E0001F091F04680D68AC4200D0002274
S31508003F501B1FD2B2012A01D1042BF2D207E0401E60
S31508003F60491E04780D78AC4200D000225B1ED2B2FE
S31508003F70012A01D1002BF2D11000C0B270BC7047E3
S31508003F802DE9F04106000F0090461C000025DFF8D9
S31508003F90BC020078002803D042F6E16020802BE0BE
S31508003FA0002E03D145F6C350208025E01FFA88F875
S31508003FB0B8F1000F03D146F2945020801CE002F0BD
S31508003FC0E1FC0500DFF8880230607760414689B277
S31508003FD016F1140003F063FD16F1080002F056FF0F
S31508003FE0DFF870020088401CDFF868120880280095
S31508003FF002F0CCFC00202080BDE8F0812DE9F04FCE
S3150800400089B004000D0016001F005FF00008DDF8F7
S315080040104C908E480078002805D046F2AE10A9F8D4
S3150800402000000020C6E0002C05D145F6C350A9F8CB
S3150800403000000020BEE0002F05D146F2D520A9F8E1
S3150800404000000020B6E0B6B23000002802D0B0F575
S31508004050004F1FD120687E49884221D1DDF848A04B
S31508004060BAF1000F02D00020CAF8000002F08AFC5C
S3150800407080464B465246390014F1140003F019FDE8
S315080040808346B9F80000002810D1404602F07EFCAD
S3150800409058468FE045F62560A9F80000002089E01B
S315080040A045F6C450A9F80000002083E0300408D57E
S315080040B0404602F06BFC46F2B010A9F8000000205A
S315080040C078E065480078002808D0404602F05EFC93
S315080040D046F66350A9F8000000206BE02B00052285
S315080040E0210000A802F088FE404602F04FFC02F0CC
S315080040F06BFD02F047FC80465848006890F835008A
S31508004100002805D0022838D017D3032826D045E042
S3150800411052480068D0F85CB050480068B0F86000B3
S315080041203880BAF1000F04D04C480068006CCAF811
S3150800413000000020A9F8000038E05FF0000B00201E
S315080041403880BAF1000F04D044480068006CCAF8F9
S31508004150000046F2A910A9F8000027E05FF0000B5E
S3150800416000203880BAF1000F02D00020CAF80000FB
S3150800417047F2D920A9F8000018E05FF0000B0020EC
S315080041803880BAF1000F04D034480068006CCAF8C9
S31508004190000045F6C250A9F8000007E05FF0000BE2
S315080041A00020388046F62E60A9F80000404602F046
S315080041B0EDFB584609B0BDE8F08F2DE9FC41050036
S315080041C00E0017009846089C002D03D145F6C350EB
S315080041D020802AE01FFA88F84046002815D01028C3
S315080041E013D0B0F5007F10D0B0F5047F0DD0B0F530
S315080041F0004F0AD048F21001884206D0B0F5024FA7
S3150800420003D048F21021884211D128681049884203
S3150800421011D103F0D6FB0194009043469BB23A00B5
S3150800422092B23100280000F01BF8BDE8F38145F68C
S3150800423025602080F9E745F6C4502080F5E700217F
S31508004240044A118000210180704700005440002074
S31508004250515545554A400020594000202C40002021
S315080042602DE9F04F83B004000D0016001F005FF023
S31508004270000A02F087FB824614F10800DDF8308058
S31508004280DDF834900189002914D1F80601D40023F9
S3150800429000E01023CDF80490CDF800809BB23200E0
S315080042A092B2290014F1140003F03BFC504602F0C8
S315080042B06DFB25E0B90502D5B0F808B001E05FF05E
S315080042C0010B00680DE0816840680190CDF8008018
S315080042D033009BB22A00200002F04EFE0198BBF183
S315080042E0010B1FFA8BFBBBF1000FECD1504602F015
S315080042F04DFB380401D402F067FC0020A9F8000041
S31508004300BDE8F78F80B52021CD4803F002FD0028CF
S3150800431015D0CB4803F0F9FCCA49096800290ED024
S31508004320C9490968C74A1268891AFF2907DAC649B6
S3150800433009680870C4480068401CC34908604021E1
S31508004340BF4803F0E6FC00280ED040F22661BC48C0
S3150800435003F0ECFC00AA0021BC4800F07AFFBDF887
S315080043600000002800D000BF01BD00001CB52021B8
S31508004370B74803F0CEFC002815D0B54803F0C5FCB5
S31508004380040001A9B348FFF715FD01000C7001A848
S31508004390009000230122B048FFF70FFFBDF8040084
S315080043A0002800D000BF4021A94803F0B2FC00282D
S315080043B00ED040F22661A64803F0B8FC01AA0021F7
S315080043C0A64800F046FFBDF80400002800D000BF4C
S315080043D013BD00001CB52021A14803F09AFC002853
S315080043E015D09F4803F091FC040001A99948FFF7EE
S315080043F0E1FC01000C7001A80090002301229648F8
S31508004400FFF7DBFEBDF80400002800D000BF4021FE
S31508004410934803F07EFC00280ED040F226619048AF
S3150800442003F084FC01AA00218E4800F012FFBDF8B3
S315080044300400002800D000BF13BD70B584B0040086
S315080044400D0089480078AA282AD1012240F226615F
S31508004450834803F02DFC002612E00020ADF8040086
S3150800446001A8009002AB00224FF4FA717D4800F0D3
S3150800447036FEB6B2315D89B2794803F042FC761C45
S31508004480B6B2ADB2AE42E8D3002240F22661744815
S3150800449003F00EFC4021724803F03BFC0028F9D0DB
S315080044A04FF48071714801F0ECFA012240F226615E
S315080044B0674803F0FDFB002612E00020ADF8040073
S315080044C001A8009002AB00224FF4FA71634800F08D
S315080044D006FEB6B2315D89B25D4803F012FC761C61
S315080044E0B6B2ADB2AE42E8D3002240F226615848D1
S315080044F003F0DEFB4021564803F00BFC0028F9D0F8
S315080045004FF48071594801F0BFFA012004B070BD1C
S3150800451070B584B004000D00012240F226614848B7
S3150800452003F0C6FB002606E0B6B2315D89B2444800
S3150800453003F0E7FB761CB6B2ADB2AE420DD201A8C7
S31508004540009002AB00223221404800F0C8FDBDF8B9
S3150800455004000028E8D0002006E0002240F2266188
S31508004560374803F0A5FB012004B070BD10B584B030
S315080045700400012240F22661314803F099FB40F21B
S3150800458026612F4803F0D2FB05E0217889B22C4832
S3150800459003F0B7FB641C207800280DD001A8009012
S315080045A002AB00223221294800F099FDBDF804002B
S315080045B00028EAD0002006E0002240F226612048C2
S315080045C003F076FB012004B010BD38B504000025C1
S315080045D002F0D8F905001C4804601A48046028004F
S315080045E002F0D4F9012032BD80B50021C0B20028FE
S315080045F009D002F0C7F9010001201D4A1070080011
S3150800460002F0C4F908E002F0BDF901000020184ADA
S315080046101070080002F0BAF9012002BD80B54FF407
S31508004620804003F0D9FB002809D000AB0022012105
S31508004630104802F082F84FF4804003F0DFFB01BD1A
S3150800464000440040404000203C400020743E0020CA
S3150800465000380140A43F0020C03D0020903E0020C5
S3150800466000480040AC3E00207600002000080140CB
S3150800467053400020703F00203EB50021002400254D
S31508004680C0B2002864D002A9DFF84009FFF792FB00
S31508004690040025000821DFF8380901F0F2F902A81C
S315080046A00190002000904FF4FA73002200210020A8
S315080046B000F07AFE4FF4807200212800FFF7D8FB3D
S315080046C00221DFF8100901F0DCF92800FFF77DFF69
S315080046D002A9DFF80409FFF791F802A9DFF8F8083C
S315080046E0FFF7E1F8022828D102A8019000200090DF
S315080046F0142300220021002000F056FEDFF8DC0813
S315080047000068DFF8DC180968401A0B28E5DB210089
S31508004710280000F07BF8DFF8CC18280000F0C8FF66
S315080047200028DAD002AA2900DFF8A008FFF765FBFF
S315080047300020FFF74AFF01201AE002AA2900DFF845
S315080047408C08FFF75AFB0020FFF73FFF00200FE019
S315080047500221DFF8800801F097F902A801900020ED
S315080047600090002303220021002000F01DFE0120F6
S315080047703EBD10B584B004002000FFF726FF02A94D
S31508004780DFF86408FFF73AF809E002A8019000206C
S315080047900090142300220021002000F005FE02A943
S315080047A0DFF84408FFF77FF80228EED0DFF82C0878
S315080047B004680020FFF709FF200004B010BD10B5FB
S315080047C084B004002000FFF700FF02A9DFF81C08E8
S315080047D0FFF714F80AE002A80190002000904FF4B1
S315080047E0FA7300220021002000F0DEFD02A9DFF89E
S315080047F0FC07FFF758F80228EDD0DFF8E007046851
S315080048000020FFF7E2FE200004B010BD02E00D22F2
S315080048100270401C0278002A01D18842F7D37047FB
S3150800482070B582B00025002600A9DFF8A007FFF7BB
S31508004830C1FA05002E00002400E0641CE4B2032C33
S315080048401FDA4FF4807200213000FFF711FBDFF802
S31508004850A007FFF78BFE3000FFF78BFF0500290046
S315080048603000FFF7D3FFB1A1300000F021FF002888
S31508004870E3D000AA3100DFF85407FFF7BEFA01209B
S3150800488006E000AA3100DFF84407FFF7B6FA002071
S3150800489076BD70B582B00025002600A9DFF82C0782
S315080048A0FFF788FA05002E00002400E0641CE4B235
S315080048B0032C20DA4FF4807200213000FFF7D8FA73
S315080048C0DFF83007FFF752FE3000FFF752FF05000A
S315080048D029003000FFF79AFFDFF81C17300000F0B8
S315080048E0E7FE0028E2D000AA3100DFF8E006FFF76D
S315080048F084FA012006E000AA3100DFF8D006FFF7A7
S315080049007CFA002076BDFEB500250026002702A900
S31508004910DFF8B806FFF74EFA06003700002401E074
S315080049200025641CE4B2142C31DAE4B2002C09D058
S3150800493002A8019000200090C82300220021002030
S3150800494000F032FD4FF4807200213800FFF790FA2C
S31508004950DFF8A806FFF70AFE3800FFF70AFF060089
S3150800496031003800FFF752FFDFF89416380000F0E0
S315080049709FFE0028D4D16D1CEDB2042DD1DB02AA0E
S315080049803900DFF84806FFF738FA012006E002AAE0
S315080049903900DFF83806FFF730FA0020FEBD70B59B
S315080049A084B00025002602A9DFF82006FFF702FAE0
S315080049B005002E00002400E0641CE4B2142C34DA4E
S315080049C0E4B2002C09D002A8019000200090C82368
S315080049D000220021002000F0E7FC4FF4807200213D
S315080049E03000FFF745FADFF81C06FFF7BFFD300079
S315080049F0FFF7BFFE050029003000FFF707FFDFF8C5
S31508004A000816300000F054FE002806D1DFF8FC1521
S31508004A10300000F04DFE0028CED002AA3100DFF8A3
S31508004A20AC05FFF7EAF9012006E002AA3100DFF833
S31508004A309C05FFF7E2F9002004B070BD70B582B09E
S31508004A400025002600A9DFF88405FFF7B3F905005D
S31508004A502E00002400E0641CE4B2032C1FDA4FF495
S31508004A60807200213000FFF703FADFF8A405FFF78C
S31508004A707DFD3000FFF77DFE050029003000FFF7B9
S31508004A80C5FE2AA1300000F013FE0028E3D000AAD4
S31508004A903100DFF83805FFF7B0F9012006E000AA73
S31508004AA03100DFF82805FFF7A8F9002076BD70B5B4
S31508004AB082B00025002600A9DFF81005FFF77AF96D
S31508004AC005002E00002400E0641CE4B2032C23DA5F
S31508004AD04FF4807200213000FFF7CAF9DFF8340579
S31508004AE0FFF744FDDFF83005FFF740FD3000FFF71C
S31508004AF040FE050029003000FFF788FE0BA13000B4
S31508004B0000F0D6FD0028DFD000AA3100DFF8BC048B
S31508004B10FFF773F9012006E000AA3100DFF8AC04BC
S31508004B20FFF76BF9002076BD000000004F4B000030
S31508004B3070B582B00025002600A9DFF89004FFF7BB
S31508004B4039F905002E00002400E0641CE4B2032CA9
S31508004B5027DA4FF4807200213000FFF789F9DFF871
S31508004B60BC04FFF703FDDFF8B804FFF7FFFCDFF826
S31508004B70B404FFF7FBFC3000FFF7FBFD0500290036
S31508004B803000FFF743FE99A1300000F091FD0028A0
S31508004B90DBD000AA3100DFF83404FFF72EF9012034
S31508004BA006E000AA3100DFF82404FFF726F9002002
S31508004BB076BD70B584B00025002602A9DFF80C047E
S31508004BC0FFF7F8F805002E00002400E0641CE4B2A4
S31508004BD0142C2DDAE4B2002C09D002A8019000208A
S31508004BE00090C82300220021002000F0DDFB4FF4CE
S31508004BF0807200213000FFF73BF9DFF82C04FFF73D
S31508004C00B5FC3000FFF7B5FD050029003000FFF7B9
S31508004C10FDFDDFF81814300000F04AFD0028D5D055
S31508004C2002AA3100DFF8A403FFF7E7F8012006E03F
S31508004C3002AA3100DFF89403FFF7DFF8002004B07A
S31508004C4070BD70B582B00025002600A9DFF87C0388
S31508004C50FFF7B0F805002E00002400E0641CE4B25B
S31508004C60032C1FDA4FF4807200213000FFF700F999
S31508004C70DFF8BC03FFF77AFC3000FFF77AFD050082
S31508004C8029003000FFF7C2FD58A1300000F010FDE2
S31508004C900028E3D000AA3100DFF83003FFF7ADF8AB
S31508004CA0012006E000AA3100DFF82003FFF7A5F887
S31508004CB0002076BD70B584B00025002602A9DFF86D
S31508004CC00C03FFF777F805002E00002400E0641CAB
S31508004CD0E4B2142C2DDAE4B2002C09D002A8019013
S31508004CE000200090C82300220021002000F05CFB71
S31508004CF04FF4807200213000FFF7BAF8DFF834036A
S31508004D00FFF734FC3000FFF734FD050029003000BA
S31508004D10FFF77CFDDFF82013300000F0C9FC0028FF
S31508004D20D5D002AA3100DFF8A402FFF766F8012001
S31508004D3006E002AA3100DFF89402FFF75EF80020C9
S31508004D4004B070BDF8B500250027002400A99F48C7
S31508004D50FFF730F807003C00002600E0761CF6B2A4
S31508004D60032E3ADA4FF4807200212000FFF780F80C
S31508004D70DFF8C802FFF7FAFBDFF8C402FFF7F6FB15
S31508004D802000FFF71CFD070039002000FFF73EFD55
S31508004D90DFF8B012200000F08BFC0028DED0DFF828
S31508004DA0A812200000F084FC07E0EDB22918497922
S31508004DB0EDB2DFF89822A9546D1CEDB2291849798D
S31508004DC00D29F2D10020EDB2A049685400AA2100AD
S31508004DD07E48FFF712F8012005E000AA21007B486B
S31508004DE0FFF70BF80020F2BD000000004F4B000053
S31508004DF070B582B00025002600A97448FEF7DAFFD0
S31508004E0005002E00002400E0641CE4B2032C23DA1B
S31508004E104FF4807200213000FFF72AF88C48FFF71C
S31508004E20A5FB8A48FFF7A2FB8A48FFF79FFB3000DD
S31508004E30FFF7C5FC050029003000FFF7E7FC8649A7
S31508004E40300000F035FC0028DED000AA31005F48AB
S31508004E50FEF7D3FF012005E000AA31005B48FEF704
S31508004E60CCFF002076BD80B5FFF7DAFC002801D11B
S31508004E7000204AE0FFF70DFD002801D1002044E09C
S31508004E80FFF741FD002801D100203EE0FFF787FD2E
S31508004E90002801D1002038E0FFF7D0FD002801D115
S31508004EA0002032E0FFF703FE002801D100202CE0A5
S31508004EB0FFF73EFE002801D1002026E0FFF779FE25
S31508004EC0002801D1002020E0FFF7BBFE002801D111
S31508004ED000201AE0FFF7EEFE002801D1002014E0BA
S31508004EE0FFF730FF002801D100200EE0FFF780FF12
S31508004EF0002801D1002008E0012000F056F800AA99
S31508004F000021564800F0A5F9012002BD30B585B04C
S31508004F1004000D005248FFF729FB01A8009002ABD8
S31508004F20002240F6B8314F4800F0D9F8BDF8040021
S31508004F30002801D0002036E0ADB22A0021A103A83E
S31508004F4001F0A8F94848FFF711FB03A8FFF70EFB85
S31508004F501DA0FFF70BFB01A8009002AB00224FF43F
S31508004F607A71424800F0BBF8BDF80400002801D069
S31508004F70002018E0290089B22000FFF7C9FA0121AC
S31508004F8011A0FFF7C5FA01A8009002AB00224FF462
S31508004F907A71374800F0A3F8BDF80400002801D05C
S31508004FA0002000E0012005B030BD38B5040000251A
S31508004FB001F0E8FC05002F480470280001F0E6FC23
S31508004FC031BD0000256400000D0000008C3F002064
S31508004FD0000C014000080140E43C00203C40002051
S31508004FE0404000209CAF00083C3D0020103D0020BA
S31508004FF08CB00008A8AF000894B000089CB0000860
S31508005000B4AF0008C0AF0008CCAF0008D8AF00089E
S31508005010E4AF0008F0AE0008400000202CAF0008FE
S315080050204C00002058000020F0AF0008FCAF000834
S3150800503008B0000814B0000820B00008A4B00008A2
S31508005040000000202CB00008ACB000081C000020AE
S315080050503CAF0008640000204CAF0008383F002031
S315080050605CAF0008543F00206CAF0008003F0020EA
S315080050701C3F0020524000202DE9F04105000E009B
S3150800508090461C000027DFF838020078002803D075
S3150800509042F6E160208020E0002D03D145F6C3509A
S315080050A020801AE001F06EFC0700DFF8180228607D
S315080050B0C5F814800020A8616E6015F1080001F09B
S315080050C0E5FEDFF804020088401CDFF8FC110880C2
S315080050D0380001F05BFC00202080BDE8F0812DE956
S315080050E0F04389B006000F00914698460024109DAB
S315080050F073480078002804D046F2AE1028800020B5
S315080051007AE0002E04D145F6C3502880002073E0CB
S315080051101FFA89F94846002802D0B0F5004F20D179
S3150800512030686849884221D1B8F1000F02D00020C2
S31508005130C8F8000001F026FC0400706900281AD09F
S315080051407069401E7061B8F1000F02D0B069C8F8E6
S3150800515000007669200001F019FC00202880300044
S315080051604AE045F625602880002045E045F6C4500B
S315080051702880002040E05FEA094008D576692000CB
S3150800518001F004FC46F2B0102880300034E04F48A5
S315080051900078002807D0200001F0F8FB46F6635097
S315080051A02880002028E03B000622310000A801F0F4
S315080051B023FE200001F0EAFB01F006FD01F0E2FB08
S315080051C004004348006890F83500002805D00228F6
S315080051D02BD014D303281ED033E0B8F1000F04D027
S315080051E03B480068006CC8F80000002028807669F3
S315080051F0200001F0CBFB300009B0BDE8F083B8F120
S31508005200000F04D032480068006CC8F8000046F267
S31508005210A9102880EBE7B8F1000F02D00020C8F8E3
S31508005220000047F2D9202880E1E7B8F1000F04D042
S3150800523027480068006CC8F8000045F6C250288068
S31508005240D5E746F62E602880200001F09FFB002057
S31508005250D2E770B505000E001400002D04D145F6FE
S31508005260C3502080002019E0B6B23000002808D0CC
S31508005270B0F5007F05D0B0F5004F02D0B0F5024F6B
S315080052800DD128680F4988420ED102F09AFB020018
S315080052902300310089B2280000F01CF870BD45F6DD
S315080052A0256020800020F9E745F6C45020800020BC
S315080052B0F4E70021044A11800021018070470000AC
S315080052C05440002053454D414C4000205940002091
S315080052D02C4000202DE9F04782B004000D0016008E
S315080052E01F005FF0000801F04DFB804614F108002E
S315080052F00189002918D1606910F1010F07D14046CC
S3150800530001F044FB46F6C5503880002033E060695A
S31508005310401C6061D4F81490A661404601F036FB43
S3150800532000203880484626E0A90502D5B0F808903E
S3150800533001E05FF00109D0F800A00BE0DAF80810E8
S31508005340DAF804A0009600230022200001F014FEDB
S31508005350B9F101091FFA89F9B9F1000FEED1D4F8AC
S315080053601490404601F012FB280401D401F02CFCED
S31508005370002038804846BDE8F68710B450F8041B6C
S3150800538081B102681218001D50F8043BDC0744BFBF
S31508005390A9F10104E31852F8044B43F8044B091F1A
S315080053A0F9D1EBE710BC7047F8B50024079D6F4E9E
S315080053B03678002E03D047F275202880AFE06C4C73
S315080053C02478002C03D046F663502880A7E0069C74
S315080053D014F00E06B6B23700002F05D0022F03D000
S315080053E0042F17D0082F16D1002B0CD192B2002A01
S315080053F009D189B2002906D180B2002803D147F223
S315080054007E2028808BE04FF6E17C14EA0C0F06D14B
S31508005410002705E0F7E745F6256028807FE00127A5
S31508005420FFB2012F03D145F62560288077E0C4F343
S315080054300014A4B214F00104E4B2012C1BD0B3F595
S315080054407A7F03D347F27B20288068E092B23C2A11
S3150800545003DB47F27A20288061E089B23C2903DB26
S3150800546047F2792028805AE080B2642814DB47F294
S315080054707820288053E089B242F21074A14203DBF7
S3150800548047F2792028804AE080B2B0F57A7F03DBBC
S3150800549047F27820288042E0374C246880B24FF4DF
S315080054A0616789B25FF03C0C0CFB01F107FB001049
S315080054B092B210184FF4FA71B1FBF4F1C91801FB56
S315080054C004F14FF47A72B1FBF2F104FB0017002FD6
S315080054D022D001F057FA040001202649096881F80C
S315080054E036002B00320092B239002248006802F0DA
S315080054F00BFD2888002803D0200001F047FA0EE0AB
S315080055001C48006801F022FE200001F03FFA01F075
