S00C0000546573742E7372656378
S31508000000284F00204DBD0008FBBB0008FDBB0008BB
S31508000010FFBB000801BC000803BC00080000000084
S3150800002000000000000000000000000005BC0008F9
S3150800003007BC0008000000006BA1000809BC000806
S3150800004011BF000815BF000819BF00081DBF00082A
S3150800005021BF000825BF000829BF00082DBF0008DA
S3150800006031BF000835BF000839BF00083DBF00088A
S3150800007041BF000845BF000849BF00084DBF00083A
S3150800008051BF000855BF000859BF00085DBF0008EA
S3150800009061BF000865BF000869BF00086DBF00089A
S315080000A071BF000875BF000879BF00087DBF00084A
S315080000B081BF000885BF000889BF00088DBF0008FA
S315080000C091BF000895BF000899BF00089DBF0008AA
S315080000D0A1BF000811BC000819BC000821BC000813
S315080000E029BC0008A5BF0008A9BF0008F0B585B05F
S315080000F000260FE0DFF8640D007801280AD1DFF842
S31508000100DC090068DFF8D81908600020DFF84C1D04
S315080001100870002602A8019003A800900DF10A03B2
S315080001200022C821DFF8BC0904F0C2F80100BDF8B6
S31508000130080047F2D9229042DCD00F7802AADFF8ED
S31508000140A80904F0C4FADFF898090068002819D14C
S3150800015002A9DFF8980904F097FADFF8841908600D
S31508000160BDF80800002828D1DFF874090068DFF810
S315080001706C1908604FF480720021DFF86009006886
S3150800018004F0E0FADFF8D80C007800287AD0DFF817
S31508000190CC0C0078002812D1FFB2682FBAD1DFF84C
S315080001A040090068411CDFF83829116007700026ED
S315080001B00120DFF8A81C0870ACE700BFAAE7DFF843
S315080001C020090068411CDFF8182911600770DFF85C
S315080001D010090068DFF804190968401A0B2805D1C8
S315080001E0DFF8F8080068807A10F10D06F6B2002EDE
S315080001F090D0DFF8EC080068DFF8E0180968401AC4
S31508000200F6B2B04286DBDFF8D808006810F8010CB1
S3150800021016282BD1DFF8C8080768F6B2B11E89B2CE
S31508000220DFF8B808006800F011F917F8021CC0B228
S3150800023081427FF46FAF02A800900023F6B2320025
S3150800024092B2DFF898080168DFF8180C04F00FF985
S315080002500020DFF8881808600020DFF88418086096
S315080002600020DFF8F81B0870002653E7DFF86C0853
S315080002700068DFF86C1808600020DFF8E01B0870DB
S31508000280002647E7DFF8D40B0078002813D1FFB221
S31508000290682F7FF43FAFDFF848080068411CDFF895
S315080002A04028116007700026012400250120DFF888
S315080002B0AC1B08702EE7DFF828080068411CDFF839
S315080002C0202811600770EDB2002D39D1641CE4B204
S315080002D0062C7FF41FAFDFF8040800684079682809
S315080002E020D1DFF8F8070068B0F80100DFF8EC174E
S315080002F00968B1F8031080B289B2884204D1012591
S3150800030080B28608083605E70020DFF8501B08701B
S31508000310002600240025DFF8C4070068DFF8C017A8
S315080003200860F7E60020DFF8341B08700026002472
S315080003300025DFF8A8070068DFF8A4170860E9E6D3
S31508000340F6B2002E3FF4E6AEDFF894070068DFF851
S315080003508C170968401AF6B2B042FFF6DBAEDFF832
S315080003608007006810F8010C162861D1DFF87007BD
S315080003700468F6B2B6F1080189B2DFF860070068CA
S31508000380801D00F063F814F8021CC0B2814241D106
S31508000390DFF848070068007B032806D0042817D032
S315080003A00A2802D00B2813D024E00020DFF83017E3
S315080003B00968087002A800900023F6B2320092B2CB
S315080003C0DFF818070168DFF8A00A04F050F811E012
S315080003D00020DFF80C170968087002A800900023AF
S315080003E0F6B2320092B2DFF8F4060168DFF87C0A4A
S315080003F004F03DF80020DFF8E41608600020DFF876
S31508000400E01608600020DFF8541A08700026002459
S3150800041000257FE6DFF8C4060068DFF8C416086022
S315080004200020DFF8381A087000260024002571E637
S31508000430DFF8A8060068DFF8A81608600020DFF8CD
S315080004401C1A087000260024002563E610B4002252
S31508000450002303E09BB21C5CA2185B1C9BB289B20A
S315080004608B42F7D31000C0B210BC704730B583B0CA
S315080004700020002100220025002400E000BFDFF84C
S31508000480900C0078012840F0B280002D13D101A904
S31508000490DFF8580604F0F8F80500BDF8040000284F
S315080004A0ECD12C004FF480720021200004F04AF9A8
S315080004B0200004F078FBDFF85C0C0068DFF8581CB5
S315080004C00968401A0128C0F28C8001AA002104207C
S315080004D004F0C0FBDFF83C0C05682900200004F096
S315080004E056FCAEA1200005F0AFF8002810D0250074
S315080004F04FF480720021200004F024F9200004F053
S3150800050052FB01AA0021DFF8140C05F0FAF9B6E748
S31508000510DFF80C1C200005F097F800280ED001A87B
S31508000520009000232A1B92B22100DFF8F80B03F093
S315080005309EFF0025002004F036FBA0E7DFF8E81B45
S31508000540200005F081F8002810D025004FF48072AD
S315080005500021200004F0F6F8002005000024002001
S3150800056004F021FB002004F08BFF88E7DFF8BC1BB2
S31508000570200005F069F8002810D025004FF4807295
S315080005800021200004F0DEF80020050000240020E9
S3150800059004F009FB002004F073FF70E7DFF8901BF6
S315080005A0200005F051F8002810D025004FF480727D
S315080005B00021200004F0C6F80020050000240020D1
S315080005C004F0F1FA002004F05BFF58E725004FF429
S315080005D080720021200004F0B5F8200004F0E3FA48
S315080005E04DE701AA0021042004F034FB47E7002D5B
S315080005F010D04FF480720021200004F0A3F801AA5D
S315080006002100DFF8E80404F062F800250024002041
S3150800061004F0C9FA002004F0F3FE012004F0F0FE0D
S3150800062004F0ACFE2BE72DE9FF410026002400204C
S31508000630ADF80A005FF000080025002705E002AAC9
S315080006402100DFF8A80404F042F802A8019003A8E4
S3150800065000900DF10A0300220021DFF8C80A03F012
S3150800066027FE0400B0A1200004F0EEFF10F10208F6
S31508000670404600F095F80700BFB2002FDFD098F883
S315080006800C0000280CD0022828D0032827D00428DC
S3150800069041D00A2823D00B283DD00C28CFD0CEE74E
S315080006A098F80D0010F00F05DFF8880A0078EDB20B
S315080006B0854206D102AA0021DFF87C0A05F021F955
S315080006C00BE0DFF8780A0078EDB2854205D102AA78
S315080006D00021DFF86C0A05F014F9B0E7AFE702A9C4
S315080006E0DFF8080403F0D0FF0600002E12D0BFB2D0
S315080006F03A004146300005F0A9F90120BFB2B855C5
S3150800070002A8009000233A0092B23100DFF8580799
S3150800071003F0ADFE93E798F80D000F2101FB00F5F5
S3150800072098F80E00052808D1DFF8180A0570290080
S31508000730C9B2012002F0E8FF2EE0DFF8080A0078C7
S31508000740EDB2A84223D002A9DFF8A00303F09CFF6C
S315080007500600002E08D0BFB23A004146300005F028
S3150800076075F90120BFB2B855DFF8D8090570290018
S31508000770C9B2012002F0C8FF02A8009000233A007F
S3150800078092B23100DFF8E40603F071FE04E02900B6
S31508000790C9B2012002F0B8FF51E700000A3E000086
S315080007A070B50400B4F80150B4F80300ADB280B2D5
S315080007B0854214D1ADB2AD08ADB2281986792900A3
S315080007C089B2A01DFFF742FE864208D1ADB22819AC
S315080007D0C079162803D115F10800C0B200E0002040
S315080007E070BD10B5002405F045FA0400DFF8580975
S315080007F00078401CDFF850190870DFF84C090078BB
S3150800080010F00F00DFF840190870200005F036FADE
S3150800081010BD30B589B0002404E001AA0021642087
S3150800082004F018FA03AD682028706D1C272028707C
S315080008306D1C002028706D1C272028706D1C002058
S3150800084028706D1C682028706D1CC92028706D1CC6
S31508000850DFF8F808007828706D1CDFF8F008407893
S3150800086028706D1CDFF8E408807828706D1CDFF8A6
S31508000870DC08C07828706D1CDFF8D008007928706D
S315080008806D1C022028706D1CDFF8BC08007850F03B
S31508000890700028706D1CDFF8B0080078DFF894182F
S315080008A00870FFF79EFF032028706D1C09210DF1C3
S315080008B01200FFF7CBFD28706D1C162028706D1CE2
S315080008C0DFF84C0800780028A7D0002500E06D1C4A
S315080008D0DFF83C080078002818D0EDB2032D15DAA9
S315080008E00024112103A804F00DFD0028EFD001A86B
S315080008F0009002AB002241F28831DFF83C0804F090
S3150800090046FFBDF804000028E1D10124E4B2002C1A
S3150800091006D001AA0021DFF8FC0D04F09BF981E757
S31508000920002004F0ADFD7DE70D0A680080B5C0B271
S3150800093000280CD0DFF8E00D0078AA2803D10120A2
S3150800094000F046F80FE0012000F058F80BE0DFF859
S31508000950C80D0078AA2803D1002000F039F802E073
S31508000960002000F04BF801BD1FB511E00120FFF78C
S31508000970DDFFBDF80800015D200000F0B9F8002091
S31508000980FFF7D4FF0DF10A022100584803F09FFE35
S315080009900DF10A00019003A8009002AB0022002185
S315080009A0DFF8C80403F084FC0400207B042802D086
S315080009B00B28DBD0E6E70120FFF7B8FFBDF80800F3
S315080009C0015D200000F0AEFE0020FFF7AFFFD9E77B
S315080009D080B5C0B200280BD00121DFF8400D05F024
S315080009E0CEF900AA002140F2DC5004F033F904E005
S315080009F00121DFF8280D05F0C5F902BD80B5C0B2A2
S31508000A0000280BD00221DFF8180D05F0B8F900AA66
S31508000A1000214FF4167004F01DF904E00221DFF8F6
S31508000A20000D05F0AFF902BD80B5C0B200280CD0A4
S31508000A304FF40041DFF8E40C05F0A1F900AA002103
S31508000A4040F6B83004F006F905E04FF40041DFF847
S31508000A50CC0C05F097F902BD80B5C0B200280BD0C2
S31508000A600821DFF8BC0C05F08AF900AA002140F637
S31508000A70B83004F0EFF804E00821DFF8A40C05F01C
S31508000A8081F902BD80B5C0B200280BD01021DFF86D
S31508000A90900C05F074F900AA002140F6B83004F06D
S31508000AA0D9F804E01021DFF8780C05F06BF902BDDF
S31508000AB080B5C0B200280BD02021DFF8640C05F001
S31508000AC05EF900AA002140F6B83004F0C3F804E045
S31508000AD02021DFF84C0C05F055F902BDF44C002036
S31508000AE0F04C00207C4A0020684C0020504C002026
S31508000AF02DE9F0418AB004000D0000200390002083
S31508000B0002900020ADF810000020ADF8060000267F
S31508000B10002700208DF804005FF000080222DFF8A5
S31508000B20101E04A805F0E0FA0322DFF8081E03A841
S31508000B3005F0DAFABDF81000002800F0D38001208D
S31508000B4004F040F80722DFF8F01D14F1100003F056
S31508000B5026FE012840F0C9800120DFF8E01D087054
S31508000B60002634E007220298811D07A805F0BCFA82
S31508000B700122029810F10D0101A805F0B5FA2B0023
S31508000B80DBB29DF80420029907A800F071F9032248
S31508000B900298C11C02A805F0A7FA7F1CBDF806003A
S31508000BA0BFB28742DED3039905A800F0E1FFB6B2CB
S31508000BB0701CBDF8101090FBF1F0DFF8841D08706A
S31508000BC003220398C11C03A805F08EFA761CBDF80B
S31508000BD01000B6B2864278D206220398811D05A86F
S31508000BE005F082FA0322039810F10C0102A805F019
S31508000BF07BFA0222039810F112010DF1060005F0A6
S31508000C0073FA039905A800F0A1FE00285BD10DF13F
S31508000C101200009009AB00224FF47A71DFF8240D18
S31508000C2005F0DAFDBDF8120000285BD100273DE08B
S31508000C304FF480520298000B4FF4805101FB00F1EB
S31508000C40DFF8040D05F050FA02984FF48051B0FB16
S31508000C50F1F202FB1102DFF8F00C1018807D50F05B
S31508000C60800002994FF48052B1FBF2F303FB121392
S31508000C70DFF8D41C591888750298000B4FF4805178
S31508000C80484305F0EFF84FF480520298000B4FF4F2
S31508000C90805101FB00F1DFF8B00C05F07BF9032267
S31508000CA00298C11C02A805F01FFA7F1CBDF80600B1
S31508000CB0BFB28742BCD30DF112020021DFF8840CC3
S31508000CC005F098FE73E7002768E70020DFF86C1C3C
S31508000CD008702A00D2B20021012000F039FA00205B
S31508000CE003F070FF0AB0BDE8F08100261AE02B0079
S31508000CF0DBB29DF80420029907A800F0B9F82A008B
S31508000D00D2B20299002000F023FA039905A800F050
S31508000D102FFF5FF0010803220398C11C03A805F002
S31508000D20E3F9761C5FFA88F8B8F1000FD7D1BDF859
S31508000D301000B6B28642D2D206220398811D05A8B3
S31508000D4005F0D2F90322039810F10C0102A805F068
S31508000D50CBF90222039810F112010DF1060005F0F5
S31508000D60C3F9002706E003220298C11C02A805F071
S31508000D70BBF97F1CBDF80600BFB28742CBD207225B
S31508000D800298811D07A805F0AFF90122029810F113
S31508000D900D0101A805F0A8F9072207A914F110000A
S31508000DA003F0FDFC0128DED19DF80400E17B8842B2
S31508000DB0D9D1039905A800F0C9FD002897D10DF1EE
S31508000DC01200009009AB00224FF47A71DFF8740B19
S31508000DD005F002FDBDF81200002883D14FF48052B9
S31508000DE00298000B4FF4805101FB00F1DFF8580B15
S31508000DF005F07AF902984FF48051B0FBF1F202FB44
S31508000E001102DFF8440B1018807D50F0800002991B
S31508000E104FF48052B1FBF2F303FB1213DFF8281BE1
S31508000E20591888750298000B4FF48051484305F00D
S31508000E3019F84FF480520298000B4FF4805101FBC9
S31508000E4000F1DFF8040B05F0A5F80DF112020021F8
S31508000E50DFF8F00A05F0CEFD5BE700001D4D002027
S31508000E600F4D0020C44A0020E84A0020A04A00206E
S31508000E702DE9F0438BB004000D0000260020002168
S31508000E80ADF80C1000275FF0000800218DF8091056
S31508000E9000218DF808105FF0000907A98946682126
S31508000EA089F8001019F1010989F8002019F10109DA
S31508000EB000210E0006E0F6B2305D89F8000019F14F
S31508000EC00109761CF6B2072EF5DB012089F8000029
S31508000ED019F10109032089F8000019F10109DFF861
S31508000EE0BC0D0078FF280AD11F2089F8000019F1E7
S31508000EF00109902089F8000019F1010909E09020FC
S31508000F0089F8000019F101091F2089F8000019F174
S31508000F100109012089F8000019F101090E2107A825
S31508000F20FFF794FA89F8000019F10109162089F8E3
S31508000F30000019F10109002608E00020F6B205A90B
S31508000F4070540020F6B204A97054761CF6B2042E2A
S31508000F50F3DB002617E0C0B2C119897BC0B205AA27
S31508000F608154C0B2C119C97CC0B204AA8154401CBC
S31508000F70C0B20428EFDB0DF10A023900DFF8580D7C
S31508000F8003F0A5FB761C5FFA88F8B8F1000F35D197
S31508000F90F6B2032E32DA0421DFF8400D03F002FD23
S31508000FA0102107A803F0FEFC0DF10A00019006A81F
S31508000FB0009003AB00224FF49661DFF8240D03F08E
S31508000FC077F90700BDF80A00002805D0F6B2022E08
S31508000FD001D15FF00008D5E70722B91C200003F00D
S31508000FE0DEFB0128C7D15FF00108F87F8DF80900FC
S31508000FF097F820008DF808000020B9E70DF10A00DF
S31508001000009006AB00224FF47A71DFF8380905F034
S31508001010E3FBBDF80A00002877D14FF48052280B6D
S315080010204FF4805101FB00F1DFF81C0905F05CF86C
S315080010305FFA88F8B8F1000F16D14FF48050B5FB67
S31508001040F0F101FB1051DFF800090818807D50F017
S3150800105040004FF48051B5FBF1F202FB1152DFF864
S31508001060E8185118887538E001220DF109014FF486
S315080010708050B5FBF0F303FB1053DFF8CC081818C3
S31508001080163004F0E3FC012202A94FF48050B5FBA8
S31508001090F0F303FB1053DFF8B0081818173004F004
S315080010A0D5FC042205A94FF48050B5FBF0F303FBE9
S315080010B01053DFF8940818180E3004F0C7FC042201
S315080010C004A94FF48050B5FBF0F303FB1053DFF887
S315080010D078081818183004F0B9FC280B4FF480511A
S315080010E0484304F0BFFE4FF48052280B4FF480515A
S315080010F001FB00F1DFF8500804F04CFF0DF10A027D
S315080011000021DFF8400805F075FC0BB0BDE8F08358
S315080011100E4D0020F84C0020FC4C0020FC4B002013
S3150800112088BE00080C4B002090BE000898BE000838
S31508001130A0BE0008194D0020C44B00201A4D0020FF
S31508001140E04B00201C4D00201B4D00207C00002099
S315080011502DE9F54F8DB00025002006905FF00009B7
S315080011600020ADF81C000020ADF814000020ADF8F2
S3150800117016000020ADF8000000208DF809000020B8
S31508001180ADF80A00002700200890002003900020F0
S315080011908DF8080000208DF8070000208DF806005D
S315080011A000240020ADF812005FF0000A5FF0000886
S315080011B00020ADF8040000265FF0000B00208DF833
S315080011C00000039104A9DFF8100B03F05DFA05008F
S315080011D0002D00F0CE8006959DF83400002840F0DA
S315080011E0D08007220398811D0BA804F07DFF0122F9
S315080011F0039810F10D0102A804F076FF0422039863
S3150800120010F10E0109A804F06FFF0122039810F1EE
S3150800121016010DF1070004F067FF0122039810F18B
S3150800122017010DF1060004F05FFF682028706D1C99
S31508001230A9467320A9F8000019F102097320A9F834
S31508001240000019F102094D46682028706D1C882097
S3150800125028706D1CDFF8F00C007828706D1CDFF81C
S31508001260E80C407828706D1CDFF8DC0C8078287054
S315080012706D1CDFF8D40CC07828706D1CDFF8C80C1C
S31508001280007928706D1C0B2028706D1CDFF8BC0CCB
S31508001290007850F0600028706D1C042028706D1CC2
S315080012A0DFF8A80C0078DFF8A81C0870FFF799FA91
S315080012B0002028706D1C002028706D1C00202870E6
S315080012C06D1C002028706D1C9DF8080028706D1C88
S315080012D0002405E0A4B20BA8205C28706D1C641CD1
S315080012E0A4B2072CF6DB012028706D1C002405E04B
S315080012F0A4B209A8205C28706D1C641CA4B2042C36
S31508001300F6DB9DF8070028706D1C9DF8060028700E
S315080013106D1C1C210698801DFFF798F828706D1C17
S31508001320162028706D1C9DF83800002824D05FF020
S31508001330000A01E01AF1010A5FFA8AFABAF1030F04
S3150800134011DA2421069803F0DDFF04A800900AAB01
S31508001350002241F28831DFF8FC0B04F018FABDF8D8
S3150800136010000028E6D104AA0699DFF86C0903F0F4
S31508001370AEF90FB0BDE8F08F2421069803F07CFB88
S31508001380F1E70222DFF8A8150DF1160004F0ACFE0D
S315080013900222DFF8C41B05A804F0A6FE0322DFF824
S315080013A0941508A804F0A0FEBDF814000A2190FBC5
S315080013B0F1F0ADF80000BDF814000A2190FBF1F237
S315080013C001FB12008DF809000027BDF80000ADF8F2
S315080013D00A009DF80900002804D0BDF80A00401C40
S315080013E0ADF80A00002406E003220898C11C08A8E4
S315080013F004F07AFE641CBDF81600A4B28442B2D288
S315080014000322089810F10C0103A804F06DFE0222CD
S31508001410089810F1120107A804F066FE0020ADF83E
S3150800142012001AE0BDF804000E21484310F1160117
S3150800143089B2069803F020FB04AA0021642003F071
S3150800144009FC069D03220398C11C03A804F04CFE60
S31508001450BDF81200401CADF81200BDF81200BDF828
S315080014601C108842C0D207220398811D0BA804F0DD
S315080014703BFE0122039810F10D0102A804F034FE88
S315080014800422039810F10E0109A804F02DFE01228A
S31508001490039810F116010DF1070004F025FE01224C
S315080014A0039810F117010DF1060004F01DFEF6B2BF
S315080014B0002E40F0BF8001267F1CBDF80A000128D7
S315080014C00CD1BDF81480ADF80480BDF804000E21D7
S315080014D048430E30800050F0030B36E0BFB2012FB0
S315080014E00CD15FF00A08ADF80480BDF804000E219F
S315080014F048430E30800050F0030B26E0BDF80A0082
S31508001500BFB2874215D19DF80900002804D15FF0C3
S315080015100A08ADF8048003E09DF80980ADF8048058
S31508001520BDF804000E2148430E30800050F0030B2E
S315080015300BE05FF00A08ADF80480BDF804000E2140
S3150800154048430E30800050F0030B682028706D1C4D
S31508001550A946A9F800B019F10209A9F800B019F1CD
S3150800156002094D46682028706D1C882028706D1C5D
S31508001570DFF8D409007828706D1CDFF8CC094078AC
S3150800158028706D1CDFF8C009807828706D1CDFF89C
S31508001590B809C07828706D1CDFF8AC090079287086
S315080015A06D1C0B2028706D1CBDF80A00012807D198
S315080015B0DFF89809007850F0700028706D1C1EE05E
S315080015C0BFB2012F07D1DFF88409007850F0500028
S315080015D028706D1C13E0BDF80A00BFB2874207D118
S315080015E0DFF86809007850F0300028706D1C06E0B6
S315080015F0DFF85809007850F0100028706D1CDFF8E5
S315080016004C090078DFF848190870FFF7EAF8042053
S3150800161028706D1CA946BDF80A00A9F8000019F142
S315080016200209A9F8007019F102094D469DF808004B
S3150800163028706D1C5FF0000A08E05FFA8AFA0BA8AA
S315080016401AF8000028706D1C1AF1010A5FFA8AFA66
S31508001650BAF1070FF1DB012028706D1C5FF0000A54
S3150800166008E05FFA8AFA09A81AF8000028706D1CC3
S315080016701AF1010A5FFA8AFABAF1040FF1DB9DF84A
S31508001680070028706D1C9DF8060028706D1CB8F1BF
S3150800169001081FFA88F8B8F1000F7FF4D3AE0026C8
S315080016A0BDF804000E21484310F10E0189B20698D0
S315080016B0801DFEF7CBFE28706D1C162028706D1C49
S315080016C09DF8380000283FF4ADAE5FF0000A01E04F
S315080016D01AF1010A5FFA8AFABAF1030FBFF6ACAE3D
S315080016E0BDF804000E21484310F1160189B2069888
S315080016F003F008FE04A800900AAB002241F28831E4
S31508001700DFF8500804F043F8BDF810000028DFD1D0
S3150800171092E60000C0D401009200002000080140B3
S31508001720000C01402DE9F0438BB004000D000020A9
S315080017300390002002900020ADF806000020ADF8C6
S3150800174010000026002700208DF804005FF000082E
S315080017505FF00009022276490DF1060004F0C4FC88
S315080017600322744903A804F0BFFCBDF8060000284C
S3150800177000F0DB80607B0F2101FB00F9A07B0428C9
S3150800178008D14946C9B22800C0B201F0BDFF00F031
S3150800179018FDCAE0012003F015FA002618E05FFAE2
S315080017A089F9CDF800902B00DBB29DF80420029948
S315080017B005A800F0D3FB039907A800F0D9F95FF054
S315080017C0010803220398C11C03A804F08DFC761CAB
S315080017D05FFA88F8B8F1000F40F0A480BDF806005B
S315080017E0B6B2864280F09E8006220398811D07A81D
S315080017F004F07AFC0322039810F10C0102A804F005
S3150800180073FC0222039810F1120104A804F06CFC80
S31508001810002706E003220298C11C02A804F064FC13
S315080018207F1CBDF81000BFB28742CAD207220298B1
S31508001830811D05A804F058FC0122029810F10D013B
S3150800184001A804F051FC072205A914F1100002F0C2
S31508001850A6FF0128DED19DF80400E17B8842D9D194
S31508001860039907A800F072F8002847D10DF1120075
S31508001870009009AB00224FF47A71324804F0ACFFAD
S31508001880BDF81200002850D14FF480520298000B80
S315080018904FF4805101FB00F12B4804F025FC029817
S315080018A04FF48051B0FBF1F202FB110226481018E2
S315080018B0807D50F0800002994FF48052B1FBF2F31C
S315080018C003FB12132049591888750298000B4FF428
S315080018D08051484304F0C6FA4FF480520298000B30
S315080018E04FF4805101FB00F1174804F053FB0DF14A
S315080018F012020021134805F07DF860E7A07B022854
S315080019003FF44DAF03287FF456AF5FFA89F9CDF857
S3150800191000902B00DBB29DF80420029905A800F080
S31508001920E1F948E7002003F04DF90BB0BDE8F08374
S31508001930A3F01F00A0F01F00A8BE00081E4D00203F
S315080019401F4D0020304B0020980000202DE9F04163
S315080019508AB004000D0000270026DFF8380A007850
S31508001960AA2847D1DFF8300A00782178884205D1BD
S3150800197002A9DFF8280A05F03BF939E00020FFF74D
S3150800198053F80020FFF768F80020FFF77BF80020DF
S31508001990FFF78EF82078012806D024D3032813D021
S315080019A00AD3042818D01EE00120FFF73DF80120CD
S315080019B0DFF8E419087016E00120FFF74DF8022059
S315080019C0DFF8D41908700EE00120FFF75BF8032052
S315080019D0DFF8C419087006E00120FFF769F804204B
S315080019E0DFF8B419087002A9DFF8B00905F000F9A4
S315080019F00120BAE0DFF89C090078BB2840F0B580E2
S31508001A0004AF682038707F1CA02038707F1C5FF0F8
S31508001A10000807E05FFA88F818F8040038707F1C99
S31508001A2018F101085FFA88F8B8F1060FF2DB002012
S31508001A3038707F1C042038707F1C042038707F1C87
S31508001A40172038707F1CA02038707F1C0120387042
S31508001A507F1C552038707F1C0F2104A8FEF7F6FC62
S31508001A6038707F1C162038707F1C5FF0000807E06E
S31508001A70002602AA3900984802F029FE18F1010842
S31508001A80F6B2002E2DD15FFA88F8B8F1020F28DADF
S31508001A90112104A802F086FF02A8019003A800906D
S31508001AA00DF10A03002241F288318D4802F000FC4C
S31508001AB00700BDF80800002806D05FFA88F8B8F1D4
S31508001AC0010F00D10026D9E70622B91C200002F032
S31508001AD066FE0128CDD1B87B03210842C8D101266C
S31508001AE0C7E7F6B2002E3DD102A8009003AB00224C
S31508001AF04FF47A71DFF8040E04F06EFEBDF80800A4
S31508001B00002802D03000C0B22FE04FF48052280BD4
S31508001B104FF4805101FB00F1DFF8840804F0E4FA81
S31508001B2001204FF48051B5FBF1F202FB1152DFF8A8
S31508001B3070185118C875280B4FF48051484304F0A3
S31508001B4091F94FF48052280B4FF4805101FB00F1B4
S31508001B50DFF84C0804F01EFA02AA0021DFF89C0DF3
S31508001B6004F048FF3000C0B2FFE70AB0BDE8F081D4
S31508001B70F0B589B0040000260025DFF818080078BB
S31508001B80AA2818D10020FEF74FFF0020FEF764FFB1
S31508001B900020FEF777FF0020FEF78AFF0020DFF817
S31508001BA0F817087002AB00220021DFF8F00705F0ED
S31508001BB074F801206FE0DFF8DC070078BB286AD1EB
S31508001BC004AE68203070761CA0203070761C002782
S31508001BD004E0FFB2385D3070761C7F1CFFB2062F1A
S31508001BE0F7DB00203070761C04203070761C042049
S31508001BF03070761C17203070761CA0203070761C4A
S31508001C0001203070761C99203070761C0F2104A8AC
S31508001C10FEF71CFC3070761C16203070761C0027E8
S31508001C2006E0002502AA31002B4802F050FD7F1C71
S31508001C30EDB2002D2CD1FFB2022F29DA112104A80A
S31508001C4002F0B0FE02A8019003A800900DF10A0365
S31508001C5000224FF47A61DFF8A80C02F029FB06008F
S31508001C60BDF80800002804D0FFB2012F00D10025D6
S31508001C70DDE70622B11C200002F091FD0128D1D132
S31508001C80B07BC0B210F003000228CAD10125C9E70B
S31508001C902800C0B2FFE709B0F0BD0000104D0020D3
S31508001CA080B50020FEF742FE0020FEF7BDFE0020AC
S31508001CB0FEF7D2FE0020FEF7E5FE0020FEF7F8FE4E
S31508001CC00020DFF8D416087000AB00220021DFF8E8
S31508001CD0CC0604F0E2FF01BD504C0020880000202D
S31508001CE0C44A00202DE9F84F8AB004000D000026EA
S31508001CF00020ADF80A0000275FF000085FF0000931
S31508001D005FF0000A5FF0000B04A8834668208BF892
S31508001D1000001BF1010B8BF800201BF1010B0020C2
S31508001D20060006E0F6B2305D8BF800001BF1010BE9
S31508001D30761CF6B2072EF5DB04208BF800001BF1A3
S31508001D40010B04208BF800001BF1010BDFF8B40B24
S31508001D500078FF280AD117208BF800001BF1010B29
S31508001D60A0208BF800001BF1010B09E0A0208BF8DE
S31508001D7000001BF1010B17208BF800001BF1010B6B
S31508001D8001208BF800001BF1010B55208BF8000091
S31508001D901BF1010B0F2104A8FEF758FB8BF8000076
S31508001DA01BF1010B16208BF800001BF1010B002616
S31508001DB008E05FF0000802AA3900DFF84C0B02F0D1
S31508001DC086FC761C5FFA88F8B8F1000F35D1F6B2B2
S31508001DD0022E32DA0421DFF8340B02F0E3FD11217A
S31508001DE004A802F0DFFD02A8019003A800900DF1F7
S31508001DF00A03002243F69821DFF8040B02F058FA8A
S31508001E000700BDF80800002805D0F6B2012E01D15A
S31508001E105FF00008D5E70722B91C200002F0BFFCD6
S31508001E200128C8D197F80E9097F80FA0032019EA51
S31508001E30000FBED15FF00108BDE702A8009003AB12
S31508001E4000224FF47A71DFF8B40A04F0C5FCBDF835
S31508001E500800002875D14FF48052280B4FF48051A2
S31508001E6001FB00F1DFF8380504F03EF95FFA88F85F
S31508001E70B8F1000F33D15FFA89F919F00300032886
S31508001E8016D14FF48050B5FBF0F101FB1051DFF885
S31508001E901005081880F816904FF48050B5FBF0F13D
S31508001EA001FB1051DFF8F804081880F817A031E094
S31508001EB04FF48050B5FBF0F101FB1051DFF8E00458
S31508001EC00818807D50F040004FF48051B5FBF1F2C0
S31508001ED002FB1152DFF8C814511888751AE04FF43E
S31508001EE08050B5FBF0F101FB1051DFF8B404081877
S31508001EF080F816904FF48050B5FBF0F101FB1051B5
S31508001F00DFF89C04081880F817A014999DF8280093
S31508001F1001F0FAFB280B4FF48051484303F0A2FF67
S31508001F204FF48052280B4FF4805101FB00F1DFF883
S31508001F30700404F02FF802AA0021DFF8C00904F0A3
S31508001F4059FD0BB0BDE8F08F7C0000201B4D00202A
S31508001F501A4D0020E04B0020B3F01F002DE9F84F82
S31508001F608AB004000D0000260020ADF80A000027FC
S31508001F705FF000085FF000095FF0000A5FF0000BF1
S31508001F8004A8834668208BF800001BF1010B8BF828
S31508001F9000201BF1010B0020060006E0F6B2305DBA
S31508001FA08BF800001BF1010B761CF6B2072EF5DB49
S31508001FB004208BF800001BF1010B04208BF80000AD
S31508001FC01BF1010BDFF83C090078FF280AD117201E
S31508001FD08BF800001BF1010BA0208BF800001BF109
S31508001FE0010B09E0A0208BF800001BF1010B17205C
S31508001FF08BF800001BF1010B01208BF800001BF188
S31508002000010B99208BF800001BF1010B0F2104A886
S31508002010FEF71CFA8BF800001BF1010B16208BF853
S3150800202000001BF1010B002608E05FF0000802AA79
S315080020303900DFF8D40802F04AFB761C5FFA88F804
S31508002040B8F1000F3ED1F6B2022E3BDA0421DFF8D2
S31508002050BC0802F0A7FC112104A802F0A3FC02A800
S31508002060019003A800900DF10A03002243F6982177
S31508002070DFF88C0802F01CF90700BDF808000028F4
S3150800208005D0F6B2012E01D15FF00008D5E7072288
S31508002090B91C200002F083FB0128C8D197F80E90DE
S315080020A097F80FA05FFA89F919F00300032802D1FF
S315080020B05FF00008BBE7032019EA000FB5D05FF010
S315080020C00108B4E702A8009003AB00224FF47A7126
S315080020D0DFF8280804F080FBBDF8080000286DD159
S315080020E04FF48052280B4FF4805101FB00F1AC48A5
S315080020F003F0FAFF5FFA88F8B8F1000F2FD15FFAFC
S3150800210089F919F00300032814D14FF48050B5FB60
S31508002110F0F101FB1051A248081880F816904FF408
S315080021208050B5FBF0F101FB10519D48081880F866
S3150800213017A02DE04FF48050B5FBF0F101FB1051CC
S3150800214097480818807D50F040004FF48051B5FB41
S31508002150F1F202FB115292495118887518E04FF4B2
S315080021608050B5FBF0F101FB10518D48081880F836
S3150800217016904FF48050B5FBF0F101FB10518848DA
S31508002180081880F817A014999DF8280001F0BCFAE1
S31508002190280B4FF48051484303F064FE4FF48052F5
S315080021A0280B4FF4805101FB00F17D4803F0F2FE45
S315080021B002AA0021DFF8440704F01CFC0BB0BDE8B6
S315080021C0F08FF0B58DB0002000900020029000201E
S315080021D0ADF804000020ADF80C000024002500200E
S315080021E08DF80600002700260222DFF8BC1901A890
S315080021F003F07AFF0322DFF8B41900A803F074FF8E
S31508002200BDF80400002800F09980012002F0DAFCED
S3150800221000240AE0009904A8FFF7AAFC0322009804
S31508002220C11C00A803F060FF641CBDF80400A4B23A
S31508002230844280F0808006220098811D04A803F05D
S3150800224053FF0322009810F10C0102A803F04CFF7B
S315080022500222009810F1120103A803F045FF009925
S3150800226004A8FFF773FB0028D8D000252BE0A02090
S315080022703070761C17203070761C01203070761C62
S3150800228072203070761C0F2108A8FEF7DFF8307030
S31508002290761C16203070761C0421DFF8700602F0D2
S315080022A081FB112108A802F07DFB03220298C11CBC
S315080022B002A803F019FF0DF10E02002142F6E060B4
S315080022C002F0C8FC6D1CBDF80C00ADB28542A1D267
S315080022D007220298811D06A803F006FF012202982C
S315080022E010F10D010DF1060003F0FEFE08AE6820A0
S315080022F03070761C9DF806003070761C002705E0C5
S31508002300FFB206A8385C3070761C7F1CFFB2072F18
S31508002310F6DB04203070761C04203070761CDFF85B
S31508002320E4050078FF28A2D117203070761CA0207B
S315080023303070761CA1E7002002F044FC0DB0F0BD19
S315080023401FB50CE0BDF80800015D200001F00EF98C
S315080023500DF10A022100DFF8B00502F0B8F90DF117
S315080023600A00019003A8009002AB00220021DFF8C2
S31508002370740E01F09DFF0400207B032802D00A2872
S31508002380E0D0E5E7BDF80800015D200000F00AF896
S31508002390DEE7000092000020204D0020504A002071
S315080023A0980000202DE9F04188B004000D000026B1
S315080023B00020ADF8060000200290002006905FF08D
S315080023C00008607B0F2101FB00F7A07B022815D0CF
S315080023D0032800F0EE80062800F03581072800F073
S315080023E070810C2800F0B6810E2800F0FF810F28B6
S315080023F000F03C82102800F071827BE2A07CDFF8B6
S31508002400B41C0870607CDFF8B01C0870207CDFF80C
S31508002410AC1C0870E07BDFF8A81C0870B4F8130041
S31508002420DFF8A01C08801121DFF89C0C02F084F963
S31508002430062103A802F080F9A27CDFA103A804F014
S3150800244017FE03A9DFF8800C03F055F8DBA1DFF8C7
S31508002450780C03F050F8062103A802F06DF9627CA7
S31508002460D5A103A804F004FE03A9DFF85C0C03F069
S3150800247042F8D2A1DFF8500C03F03DF8062103A874
S3150800248002F05AF9227CCCA103A804F0F1FD03A9B5
S31508002490DFF8340C03F02FF8C8A1DFF82C0C03F092
S315080024A02AF8062103A802F047F9E27BC2A103A88D
S315080024B004F0DEFD03A9DFF8100C03F01CF8082170
S315080024C0DFF8240D02F038F9062103A802F034F9E2
S315080024D0B4F81320B8A103A804F0CAFDD6A1DFF802
S315080024E0080D03F008F803A9DFF8FC0C03F003F85D
S315080024F0D2A1DFF8F40C02F0FEFF01A8009005ABAC
S3150800250000224FF47A71DFF8F40304F065F9BDF898
S315080025100400002840F0EE814FF48072DFF8CC1CEE
S31508002520DFF8CC0C03F0E0FD1122DFF89C1BDFF886
S31508002530C40C03F08BFA0822DFF8AC1CDFF8B80CE1
S3150800254003F084FA0122DFF86C1BDFF8B00C03F005
S315080025507DFA0122DFF8601BDFF8A40C03F076FA97
S315080025600122DFF8581BDFF89C0C03F06FFA0122F2
S31508002570DFF84C1BDFF8900C03F068FA0222DFF84C
S31508002580441BDFF8880C03F061FA4FF48072DFF819
S315080025905C1CDFF85C0C03F0CCFC01AA0021D748D0
S315080025A004F028FA3900C9B22800C0B201F0ACF824
S315080025B0A0E10521DFF8580C02F0BEF8E07BDFF851
S315080025C0501C0870207CDFF8481C4870607CDFF8D7
S315080025D0401C8870A07CDFF8381CC870E07CDFF8E7
S315080025E0301C087101A8009005AB00224FF47A71DF
S315080025F0C24804F0F1F8BDF80400002840F07A81DA
S315080026004FF48072DFF8E41BDFF8E40B03F06CFD8F
S315080026100522DFF8FC1BDFF8FC0B03F017FA4FF472
S315080026208072DFF8C81BDFF8C80B03F082FC01AA2A
S315080026300021B24804F0DEF93900C9B22800C0B258
S3150800264001F062F856E114F1190000F001FD02905C
S3150800265014F11201029800F05BF9804602987FF0A7
S315080026607F4188422CD0E07F002812D17FF07F403E
S31508002670804508D04146029800F09AFA7FF07F41DB
S31508002680884200F037813900C9B22800C0B201F08B
S315080026903BF8E07F012813D17FF07F40804509D1C0
S315080026A014F11201029800F069F97FF07F4188421F
S315080026B000F020813900C9B22800C0B201F024F820
S315080026C018E1E07BAA282AD10222DFF8DC140DF1F2
S315080026D0060003F009FD0322DFF8D01402A803F070
S315080026E003FD002602E006980290761CBDF8060057
S315080026F0B6B286420DD203220298C11C06A803F080
S31508002700F3FC029800F08AFD7FF07F418842EAD107
S31508002710F0E03900C9B22800C0B200F0F5FFE07B4E
S31508002720552816D114F1100000F092FC7FF07F4175
S31508002730884208D114F1100000F0C8FC7FF07F41F0
S31508002740884200F0D7803900C9B22800C0B200F02C
S31508002750DBFFCFE0E07BAA2803D1AA20DFF8B81A6E
S315080027600870E07BBB2803D1BB20DFF8AC1A0870E1
S31508002770E07BFF2803D1FF20DFF89C1A087001A828
S31508002780009005AB00224FF47A715C4804F024F8F7
S31508002790BDF80400002840F0AD804FF48072DFF8E1
S315080027A04C1ADFF84C0A03F09FFC0122DFF8681A7E
S315080027B0DFF8AC0D04E000BF256400002E00000021
S315080027C003F044F94FF48072DFF8201ADFF8200A84
S315080027D003F0AFFB01AA0021484804F00BF93900C1
S315080027E0C9B22800C0B200F08FFF83E0E07BAA28B8
S315080027F002D1AA2043490870E07BFF2802D1FF20B6
S315080028004049087001A8009005AB00224FF47A7180
S315080028103A4803F0E1FFBDF8040000286AD14FF4F6
S315080028208072DFF8C819DFF8C80903F05DFC0122D9
S315080028303449DFF8300D03E02C0000000D000000DD
S3150800284003F004F94FF48072DFF8A019DFF8A00945
S3150800285003F06FFB01AA0021284804F0CBF83900E1
S31508002860C9B22800C0B200F04FFF43E0E07BFF2862
S3150800287033D101A8009005AB00224FF47A711F48A6
S3150800288003F0AAFFBDF80400002833D14FF4807284
S31508002890DFF85819DFF8580903F026FCFF20194914
S315080028A0087001221749DFF8C00C03F0CFF84FF47F
S315080028B08072DFF83819DFF8380903F03AFB01AA05
S315080028C000210E4804F096F83900C9B22800C0B2B3
S315080028D000F01AFF0020002108700BE0E07BFF28BB
S315080028E008D13900C9B22800C0B200F00DFF002097
S315080028F00021087008B0BDE8F0810000304B0020C8
S31508002900C44A0020104D0020504C002088000020AA
S3150800291030B585B005000C00002000900020ADF809
S315080029200400022215F1120101A803F0DDFB0322BF
S3150800293015F10C0100A803F0D7FB002506E00322D9
S315080029400098C11C00A803F0CFFB6D1CBDF804005D
S31508002950ADB285420ED207220098811D02A803F067
S31508002960C3FB072202A9200001F019FF0128E6D1BE
S31508002970009801E07FF07F4005B030BD30B587B0E4
S3150800298004000D0000200490002002900020ADF8FD
S3150800299004000020ADF8060000200590022214F17C
S315080029A0120101A803F0A0FB0222DFF8581D0DF161
S315080029B0060003F099FB032214F10F0104A803F0A3
S315080029C093FBBDF80400401CADF80400BDF80600F2
S315080029D0401CADF8060003F0F1FC029002987FF067
S315080029E07F41884202D17FF07F40DAE007220298D1
S315080029F0811D280003F06FFA0122029810F10D01DB
S31508002A00E81E03F068FA0422029810F10E0105A8E0
S31508002A1003F061FA0222029810F1160105A803F0E4
S31508002A205AFA03A8009006AB00224FF47A71DFF831
S31508002A30840D03F0D1FEBDF80C00002802D07FF00B
S31508002A407F40AEE004987FF07F41884246D14FF43C
S31508002A508052200B4FF4805101FB00F1DFF89007FC
S31508002A6003F042FB032202A94FF48050B4FBF0F3B3
S31508002A7003FB1043DFF8780718180C3002F0E6FF5E
S31508002A80032202A94FF48050B4FBF0F303FB104372
S31508002A90DFF85C0718180F3002F0D8FF022201A9E8
S31508002AA04FF48050B4FBF0F303FB1043DFF8400704
S31508002AB01818123002F0CAFF200B4FF48051484311
S31508002AC003F0D0F94FF48052200B4FF4805101FBEC
S31508002AD000F1DFF81C0703F05DFA44E04FF480527A
S31508002AE0200B4FF4805101FB00F1DFF8040703F0D7
S31508002AF0FBFA032202A94FF48050B4FBF0F303FB60
S31508002B001043DFF8EC0618180F3002F09FFF022278
S31508002B1001A94FF48050B4FBF0F303FB1043DFF830
S31508002B20D0061818123002F091FF200B4FF480518E
S31508002B30484303F097F94FF48052200B4FF4805125
S31508002B4001FB00F1DFF8A80603F024FA0322049833
S31508002B50C11C02A803F0BFF90322029810F1120162
S31508002B6004A803F0B8F94FF48072DFF88016DFF88E
S31508002B70800603F0B9FA02220DF10601DFF8380CD7
S31508002B8002F064FF4FF48072DFF86016DFF8600623
S31508002B9003F0CFF903AA0021DFF8180C03F02AFF87
S31508002BA0029807B030BD0000A3F01F00A0F01F0078
S31508002BB070B586B004000D00002003900020029036
S31508002BC00020ADF804000020ADF80600022214F13A
S31508002BD0120101A803F088FA0222DFF8281B0DF17A
S31508002BE0060003F081FA0322E91C03A803F07CFA25
S31508002BF0032215F1120102A803F076FABDF80400C3
S31508002C00401EADF80400BDF80600401EADF80600EB
S31508002C10280003F06AFC04A8009005AB00224FF4D4
S31508002C207A71DFF8900B03F0D7FDBDF81000002885
S31508002C3002D07FF07F4009E2BDF8040000285DD18C
S31508002C404FF48052200B4FF4805101FB00F1DFF85E
S31508002C50A00503F049FA032203A94FF48050B4FBF8
S31508002C60F0F303FB1043DFF8880518180C3002F060
S31508002C70EDFE022201A94FF48050B4FBF0F303FBEA
S31508002C801043DFF86C051818123002F0DFFE032235
S31508002C9002A94FF48050B4FBF0F303FB1043DFF8AE
S31508002CA0500518180F3002F0D1FE200B4FF4805152
S31508002CB0484303F0D7F84FF48052200B4FF4805165
S31508002CC001FB00F1DFF8280503F064F94FF4807280
S31508002CD0DFF81815DFF8180503F006FA02220DF1D9
S31508002CE00601DFF8D40A02F0B1FE4FF48072DFF86D
S31508002CF0FC14DFF8FC0403F01CF9A0E102987FF04D
S31508002D007F41884205D003987FF07F41884240F092
S31508002D10FB8002987FF07F4188427CD14FF4805235
S31508002D200398000B4FF4805101FB00F1DFF8C00453
S31508002D3003F0DAF9032202A903984FF48053B0FB93
S31508002D40F3F606FB1306DFF8A8043018123002F073
S31508002D507DFE0398000B4FF48051484303F082F838
S31508002D604FF480520398000B4FF4805101FB00F199
S31508002D70DFF87C0403F00EF94FF48052200B4FF471
S31508002D80805101FB00F1DFF8680403F0ADF9032276
S31508002D9003A94FF48050B4FBF0F303FB1043DFF8AC
S31508002DA0500418180C3002F051FE022201A94FF403
S31508002DB08050B4FBF0F303FB1043DFF83404181813
S31508002DC0123002F043FE200B4FF48051484303F0C3
S31508002DD049F84FF48052200B4FF4805101FB00F163
S31508002DE0DFF80C0403F0D6F84FF48072DFF8FC1312
S31508002DF0DFF8FC0303F078F902220DF10601DFF88B
S31508002E00B80902F023FE4FF48072DFF8E013DFF80A
S31508002E10E00303F08EF803987FF07F41884240F084
S31508002E200E814FF480520298000B4FF4805101FB3B
S31508002E3000F1EF4803F058F9032203A902984FF46A
S31508002E408053B0FBF3F606FB1306E9483018C01C9E
S31508002E5002F0FCFD0298000B4FF48051484303F042
S31508002E6001F84FF480520298000B4FF4805101FB91
S31508002E7000F1DF4803F08EF84FF48052200B4FF430
S31508002E80805101FB00F1DA4803F02EF9032202A96A
S31508002E904FF48050B4FBF0F303FB1043D4481818E2
S31508002EA00F3002F0D3FD022201A94FF48050B4FB83
S31508002EB0F0F303FB1043CE481818123002F0C6FD93
S31508002EC0200B4FF48051484302F0CCFF4FF4805258
S31508002ED0200B4FF4805101FB00F1C54803F05AF866
S31508002EE04FF48072C149C24803F0FEF802220DF180
S31508002EF00601DFF8C40802F0A9FD4FF48072BB4949
S31508002F00BB4803F016F89AE04FF480520298000B7B
S31508002F104FF4805101FB00F1DFF8940803F0E4F860
S31508002F20032203A902984FF48053B0FBF3F606FB7D
S31508002F301306DFF87C083018C01C02F087FD0298DB
S31508002F40000B4FF48051484302F08CFF4FF4805237
S31508002F500298000B4FF4805101FB00F1DFF850088E
S31508002F6003F018F84FF480520398000B4FF4805181
S31508002F7001FB00F1DFF8380803F0B6F8032202A9CE
S31508002F8003984FF48053B0FBF3F606FB1306DFF8FD
S31508002F9020083018123002F059FD0398000B4FF440
S31508002FA08051484302F05EFF4FF480520398000BAD
S31508002FB04FF4805101FB00F1DFF8F40702F0EAFF55
S31508002FC04FF48052200B4FF4805101FB00F1DFF8DB
S31508002FD0E00703F089F8022201A94FF48050B4FBF8
S31508002FE0F0F303FB1043DFF8C8071818123002F095
S31508002FF02DFD200B4FF48051484302F033FF4FF468
S315080030008052200B4FF4805101FB00F1DFF8A00736
S3150800301002F0C0FF4FF480727449DFF8940703F09A
S3150800302063F802220DF10601DFF88C0702F00EFDA7
S315080030304FF480726D49DFF8780702F07AFF04AA28
S315080030400021DFF8700703F0D5FC280006B070BD34
S3150800305030B585B00400002000900222DFF8B418CD
S3150800306001A803F041F80322DFF8C81D00A803F001
S315080030703BF8002506E003220098C11C00A803F0CF
S3150800308033F86D1CBDF80400ADB285420ED2062297
S315080030900098811D02A803F027F8062202A920003D
S315080030A001F07DFB0128E6D1009801E07FF07F4022
S315080030B005B030BD93000020940000209500002044
S315080030C096000020900000205000002010B586B021
S315080030D0040000200490002002900020ADF80400AF
S315080030E00020ADF80C000222DFF8281801A802F02B
S315080030F0FBFF0322DFF8201804A802F0F5FFBDF84D
S315080031000400401CADF8040003F058F902900622AA
S315080031100298811D200002F0DEFE0222029810F1BC
S31508003120120103A802F0D7FE0DF10600009005ABC8
S3150800313000224FF47A71DFF87C0603F04DFBBDF8E8
S315080031400600002802D07FF07F4048E04FF48072E6
S31508003150DFF86816DFF8580602F0C6FF04987FF015
S315080031607F41884212D1032202A9DFF8CC0C02F073
S315080031706DFC022201A9DFF8C40C02F067FC0322E9
S3150800318002A9DFF8BC0C02F061FC18E0022201A9D2
S31508003190DFF8A80C02F05AFC032202A9DFF8A00CFB
S315080031A002F054FC03220498C11C02A802F093FE04
S315080031B00322029810F1140104A802F08CFE4FF4C1
S315080031C08072DFF8F815DFF8E80502F0B2FE0DF1B7
S315080031D006020021DFF8DC0503F00CFC029806B0B5
S315080031E010BD0000E84A00207400002000F01F000F
S315080031F098000020E80000200801002007010020B0
S315080032000601002005010020040100201601002007
S315080032107C000020180100209200002030B589B0FB
S3150800322004000020ADF8100000200590002006904C
S3150800323000200390002002900020ADF8040000252D
S31508003240022214F1120104A802F04EFF032214F11F
S315080032500C0105A802F048FF0322E11C03A802F0AE
S3150800326043FF032214F1140102A802F03DFF0222D3
S31508003270DFF8A01601A802F037FFBDF80400401ECB
S31508003280ADF804000020050002E0069805906D1CC4
S31508003290BDF81000ADB285420ED203220598C11CB6
S315080032A006A802F021FF05992000FFF781FC7FF0B0
S315080032B07F418842E9D1EAE7200003F016F90DF1CB
S315080032C00600009007AB00224FF47A71DFF8E40499
S315080032D003F082FABDF80600002802D07FF07F408E
S315080032E03CE1BDF80400002822D14FF48072DFF8D3
S315080032F0CC14DFF8BC0402F0F7FE032203A9DFF8BA
S31508003300380B02F0A3FB022201A9DFF8300B02F00A
S315080033109DFB032202A9DFF8280B02F097FB4FF466
S315080033208072DFF89814DFF8880402F002FE0EE1D6
S3150800333002987FF07F41884205D003987FF07F414D
S31508003340884240F09C8002987FF07F41884249D1AC
S315080033504FF480520398000B4FF4805101FB00F1A3
S31508003360DFF84C0402F0C0FE032202A903984FF4CA
S315080033708053B0FBF3F505FB1305DFF83404281872
S31508003380143002F063FB0398000B4FF48051484356
S3150800339002F068FD4FF480520398000B4FF48051F9
S315080033A001FB00F1DFF8080402F0F4FD4FF4807227
S315080033B0DFF80814DFF8F80302F096FE032203A9E3
S315080033C0DFF8740A02F042FB022201A9DFF86C0A50
S315080033D002F03CFB4FF48072DFF8E013DFF8D0030D
S315080033E002F0A7FD03987FF07F41884240F0AF8046
S315080033F04FF480520298000B4FF4805101FB00F104
S31508003400DFF8AC0302F070FE032203A902984FF41A
S315080034108053B0FBF3F505FB1305E5482818C01CD7
S3150800342002F014FB0298000B4FF48051484302F057
S3150800343019FD4FF480520298000B4FF4805101FB9E
S3150800344000F1DB4802F0A6FD4FF48072DFF86C133A
S31508003450D74802F049FE022201A9DFF8E00902F086
S31508003460F5FA032202A9DFF8D80902F0EFFA4FF4B9
S315080034708072DFF84813CE4802F05BFD67E04FF430
S3150800348080520298000B4FF4805101FB00F1C848A6
S3150800349002F02AFE032203A902984FF48053B0FBD8
S315080034A0F3F505FB1305C2482818C01C02F0CEFA2E
S315080034B00298000B4FF48051484302F0D3FC4FF4B6
S315080034C080520298000B4FF4805101FB00F1B84876
S315080034D002F060FD4FF480520398000B4FF48051C0
S315080034E001FB00F1B24802F0FFFD032202A903988E
S315080034F04FF48053B0FBF3F505FB1305AC482818C9
S31508003500143002F0A3FA0398000B4FF48051484395
S3150800351002F0A8FC4FF480520398000B4FF4805138
S3150800352001FB00F1A24802F035FD4FF48072A34971
S315080035309F4802F0D9FD022201A9DFF8000902F02E
S3150800354085FA4FF480729D49994802F0F2FC0DF114
S3150800355006020021974803F04DFA200009B030BD55
S3150800356058010020590100205001002080B50A00AA
S31508003570417B0F235943837B022B0AD0032B0ED0A2
S31508003580062B12D0072B19D00C2B1DD00E2B21D0B1
S3150800359025E0C9B21000C0B200F0AEFC1FE0C9B207
S315080035A01000C0B200F04EFC19E00B00DBB2D2B23C
S315080035B010F11001C07B00F0B1F910E0C9B210009B
S315080035C0C0B200F0FDF80AE0C9B21000C0B200F0BF
S315080035D00BFD04E0C9B21000C0B200F069FD01BDE0
S315080035E030B587B00024002518E04FF48071DFF865
S315080035F0F40B02F0C4FB00AA00214FF47A7001F024
S3150800360029FB4FF48071DFF8DC0B02F0BBFB00AA44
S3150800361000214FF47A7001F01DFB0024DFF8C80B77
S3150800362000780028E1D04FF48071DFF8B80B02F07B
S31508003630A6FB00AA00214FF4967001F00BFB4FF48D
S315080036408071DFF8A00B02F09DFB00AA00214FF461
S31508003650967001F0FFFADFF8940B00780028DDD0A9
S31508003660641CE4B20F2CD9DB002401AD6820287055
S315080036706D1C272028706D1C002028706D1C2720C3
S3150800368028706D1C002028706D1C682028706D1C21
S31508003690CA2028706D1CDFF8580B007828706D1C3E
S315080036A0DFF84C0B407828706D1CDFF8440B8078E7
S315080036B028706D1CDFF8380BC07828706D1CDFF891
S315080036C0300B007928706D1C0F2028706D1CDFF8F0
S315080036D0240B007850F0600028706D1CDFF8180B7A
S315080036E0007828706D1C09210DF10A00FCF7AEFE62
S315080036F028706D1C162028706D1C112101A801F078
S3150800370001FE8BE7B3F01F0030B585B0040000ADAD
S31508003710682028706D1C272028706D1C00202870D2
S315080037206D1C272028706D1C002028706D1C6820D1
S3150800373028706D1C802028706D1CDFF8B40A00788C
S3150800374028706D1CDFF8A80A407828706D1CDFF811
S31508003750A00A807828706D1CDFF8940AC078287053
S315080037606D1CDFF88C0A007928706D1C0020287003
S315080037706D1C51F0600028706D1C012028706D1CAE
S3150800378009210DF10600FCF761FE28706D1C162054
S3150800379028706D1CE4B2002C04D0112100A801F099
S315080037A0B1FD03E0112100A801F066F905B030BDAE
S315080037B098000020304B00204B01002000F01F002D
S315080037C0F0B585B004000F000DF10201DFF82C0AF0
S315080037D000F05AFF0600002E00F0998035000322FB
S315080037E0DFF8501601A802F07FFC0222494900A81A
S315080037F002F07AFC68203070761CBDF800000621BD
S3150800380048430930800050F003003080B61CBDF8EC
S315080038100000062148430930800050F0030030803C
S31508003820B61C68203070761C88203070761CDFF84D
S31508003830C00900783070761CDFF8B409407830701B
S31508003840761CDFF8AC0980783070761CDFF8A009A2
S31508003850C0783070761CDFF8980900793070761CCD
S315080038600A203070761C57F060003070761C0720EE
S315080038703070761C00270FE0C0B202A9415C317097
S31508003880761C401CC0B20628F6DB03220198C11C30
S3150800389001A802F029FC7F1CBDF80000BFB28742D0
S315080038A007D206220198811D02A802F01DFC0020FD
S315080038B0E8E7BDF800000621484310F1090189B27E
S315080038C0A81DFCF7C3FD3070761C16203070761CD8
S315080038D0E4B2002C0AD0BDF800000621484310F1D6
S315080038E0110189B2280001F00DFD09E0BDF80000BC
S315080038F00621484310F1110189B2280001F0BCF8ED
S315080039000DF102022900DFF8F40800F0E0FE05B028
S31508003910F0BD0000A3F01F00A5F01F002DE9FF4F22
S315080039208BB05FF0000A5FF00008002500265FF004
S31508003930000B5FF000090020ADF800000027022206
S31508003940DFF8BC180DF10A0002F0CEFB0222DFF800
S31508003950B41804A802F0C8FB0322DFF8D81403A899
S3150800396002F0C2FBBDF80A00002800F0608206A932
S31508003970DFF8880800F088FE0400002C00F0578263
S3150800398005940722DFF880180C9800F008FF012834
S3150800399040F07681BDF810000A2190FBF1F0BDF8E1
S315080039A010100A2291FBF2F302FB13118DF8021094
S315080039B05FF00008ADF808009DF80200002804D062
S315080039C0BDF80800401CADF80800002506E00322F3
S315080039D00398C11C03A802F087FB6D1CBDF80A00FA
S315080039E0ADB2854280F01D8206220398811D09A882
S315080039F002F07AFB0322039810F10C0101A802F0E9
S31508003A0073FB0222039810F112010DF1120002F065
S31508003A106BFB002616E0BDF800001121484310F1A3
S31508003A20120189B2059801F027F806AA0021642038
S31508003A3001F010F9059C03220198C11C01A802F0A7
S31508003A4053FB761CBDF81200B6B28642BFD20722D7
S31508003A500198811D07A802F047FB0122019810F181
S31508003A600D010DF1030002F03FFB0122019810F150
S31508003A7015010DF11A0002F037FBFFB2002F40F0D6
S31508003A80A880012718F1010868202070641CBDF879
S31508003A90080001280CD1BDF81090ADF80090BDF8CB
S31508003AA00000112148430A30800050F0030A39E02B
S31508003AB01FFA88F8B8F1010F0CD15FF00A09ADF8C2
S31508003AC00090BDF80000112148430A30800050F0EC
S31508003AD0030A27E0BDF808001FFA88F8804515D1C3
S31508003AE09DF80200002804D15FF00A09ADF800909D
S31508003AF003E09DF80290ADF80090BDF80000112192
S31508003B0048430A30800050F0030A0BE05FF00A09C8
S31508003B10ADF80090BDF80000112148430A30800036
S31508003B2050F0030AA4F800A0A41CA4F800A0A41C42
S31508003B3068202070641C88202070641CDFF8B0069A
S31508003B4000782070641CDFF8A80640782070641C92
S31508003B50DFF89C0680782070641CDFF89406C0782D
S31508003B602070641CDFF8880600792070641C0A201F
S31508003B702070641CBDF80800012806D19DF838009D
S31508003B8050F060002070641C1CE01FFA88F8B8F139
S31508003B90010F06D19DF8380050F040002070641CD3
S31508003BA010E0BDF808001FFA88F8804506D19DF890
S31508003BB0380050F020002070641C03E09DF838009F
S31508003BC02070641C06202070641C9DF82C00207050
S31508003BD0641C00202070641C00202070641C5FF0A8
S31508003BE0000B08E05FFA8BFB07A81BF800002070A3
S31508003BF0641C1BF1010B5FFA8BFBBBF1070FF1DBB2
S31508003C005FF0000B08E05FFA8BFB09A81BF80000C1
S31508003C102070641C1BF1010B5FFA8BFBBBF1060FCE
S31508003C20F1DB00202070641C01202070641CB9F1AF
S31508003C3001091FFA89F9B9F1000F7FF4FCAE0027D4
S31508003C40BDF800001121484310F10A0189B2059810
S31508003C50801DFCF7FBFB2070641C16202070641C7A
S31508003C609DF8340000283FF4D6AEBDF800001121B7
S31508003C70484310F1120189B2059801F043FBD4E6D6
S31508003C80002531E003220198C11C01A802F02CFA94
S31508003C90761CBDF81200B6B2864224D207220198D5
S31508003CA0811D07A802F020FA0122019810F10D01E2
S31508003CB00DF1030002F018FA072207A90C9800F084
S31508003CC06EFD0128DED19DF803009DF82C10884270
S31508003CD0D8D10122019810F115010DF11A0002F050
S31508003CE003FA5FF001086D1C5FFA88F8B8F1000F57
S31508003CF01BD1BDF80A00ADB2854216D2062203983A
S31508003D00811D09A802F0F0F90322039810F10C01AD
S31508003D1001A802F0E9F90222039810F112010DF147
S31508003D20120002F0E1F90026B3E75FFA88F8B8F165
S31508003D30000F76D068202070641C6F202070641CE9
S31508003D4000202070641C6F202070641C00202070E6
S31508003D50641C68202070641C88202070641CDFF8AE
S31508003D60900400782070641CDFF884044078207082
S31508003D70641CDFF87C0480782070641CDFF870040B
S31508003D80C0782070641CDFF8680400792070641C11
S31508003D900A202070641C9DF8380050F060002070DE
S31508003DA0641C06202070641C9DF82C002070641C7E
S31508003DB000202070641C00202070641C002505E08B
S31508003DC0ADB207A8285C2070641C6D1CADB2072D27
S31508003DD0F6DB002505E0ADB209A8285C2070641C56
S31508003DE06D1CADB2062DF6DB00202070641C012088
S31508003DF02070641C1B210598801DFCF727FB20708A
S31508003E00641C16202070641C9DF83400002804D019
S31508003E102321059801F076FA03E02321059800F09E
S31508003E202BFE06AA0599DFF8D40300F050FC0FB064
S31508003E30BDE8F08FA0F01F00380100203B010020EC
S31508003E403D010020F8B504000D0000A9DFF8AC0319
S31508003E5000F01AFC0700002F4DD03E00682038708D
S31508003E607F1C272038707F1C002038707F1C272075
S31508003E7038707F1C002038707F1C682038707F1CC3
S31508003E80882038707F1CDA48007838707F1CD8483C
S31508003E90407838707F1CD648807838707F1CD448A4
S31508003EA0C07838707F1CD248007938707F1C0A2089
S31508003EB038707F1C55F0600038707F1C03203870FE
S31508003EC07F1C0921B01DFCF7C1FA38707F1C16202B
S31508003ED038707F1CE4B2002C04D01121300001F0A8
S31508003EE011FA03E01121300000F0C6FD00AA3100E6
S31508003EF0C24800F0ECFBF1BD2DE9F04182B00400A8
S31508003F000D00002700265FF0000800A9BB4800F056
S31508003F10BBFB0700002F65D03E00682038707F1C69
S31508003F203F2038707F1C002038707F1C3F20387077
S31508003F307F1C002038707F1C682038707F1C882002
S31508003F4038707F1CAA48007838707F1CA8484078CB
S31508003F5038707F1CA648807838707F1CA448C078C3
S31508003F6038707F1CA248007938707F1C0A20387088
S31508003F707F1C55F0600038707F1C022038707F1C4B
S31508003F80A248007838707F1CA148007838707F1CDA
S31508003F90A048007838707F1C9F48007838707F1CCE
S31508003FA0B8469E480088A8F8000018F10208474657
S31508003FB00F21B01DFCF74AFA38707F1C162038709E
S31508003FC07F1CE4B2002C04D01721300001F09AF9C6
S31508003FD003E01721300000F04FFD00AA31008748A2
S31508003FE000F075FBBDE8F3812DE9F04182B00400CD
S31508003FF00D00002700265FF0000800A97F4800F0A2
S3150800400043FB0700002F51D03E00682038707F1C04
S315080040102B2038707F1C002038707F1C2B203870AE
S315080040207F1C002038707F1C682038707F1C882011
S3150800403038707F1C6E48007838707F1C6C48407852
S3150800404038707F1C6A48807838707F1C6848C0784A
S3150800405038707F1C6648007938707F1C0A203870D3
S315080040607F1C55F0600038707F1C0C2038707F1C50
S315080040706B48007838707F1C0A21B01DFCF7E6F9FA
S3150800408038707F1C162038707F1CE4B2002C04D0D0
S315080040901221300001F036F903E01221300000F059
S315080040A0EBFC00AA3100554800F011FBBDE8F3818E
S315080040B02DE9F04182B004000D00002700265FF0CC
S315080040C0000800A94D4800F0DFFA0700002F51D07C
S315080040D03E00682038707F1C2B2038707F1C00201B
S315080040E038707F1C2B2038707F1C002038707F1C8E
S315080040F0682038707F1C882038707F1C3C48007800
S3150800410038707F1C3A48407838707F1C3848807869
S3150800411038707F1C3648C07838707F1C3448007960
S3150800412038707F1C0A2038707F1C55F06000387084
S315080041307F1C0E2038707F1C3A48007838707F1C28
S315080041400A21B01DFCF782F938707F1C16203870DA
S315080041507F1CE4B2002C04D01221300001F0D2F802
S3150800416003E01221300000F087FC00AA3100234842
S3150800417000F0ADFABDE8F38100B585B002A801905C
S3150800418003A800904FF4847300220121264802F008
S31508004190BCFF02AA00214FF4FA7000F05BFD4FF451
S315080041A00051224801F0E0FD0028E7D14FF4804194
S315080041B01E4801F0E4FD01211D4801F0E3FD8021C0
S315080041C0084801F0DCFD02AA0021642000F042FD47
S315080041D08021044801F0D6FD02AA0021642000F0DF
S315080041E039FDECE7000C01400F4D00201E4D002064
S315080041F07C0000201B4D00201F4D0020504C002045
S31508004200A3F01F00B3F01F00A8BE00089600002008
S3150800421095000020940000209300002090000020C4
S3150800422092000020104D0020344C00200010014060
S31508004230000801402DE9F04106000F0090461C00D9
S315080042400025DFF8BC020078002803D042F6E160BA
S3150800425020802BE0002E03D145F6C350208025E0B0
S315080042601FFA88F8B8F1000F03D146F2945020805F
S315080042701CE001F0FFFC0500DFF88802306077607B
S31508004280414689B216F1140003F0CBFA16F108007C
S3150800429003F0E8FDDFF870020088401CDFF86812BA
S315080042A00880280001F0EAFC00202080BDE8F081A3
S315080042B02DE9F04F89B004000D0016001F005FF0CD
S315080042C00008DDF84C908E480078002805D046F2A4
S315080042D0AE10A9F800000020C6E0002C05D145F66E
S315080042E0C350A9F800000020BEE0002F05D146F211
S315080042F0D520A9F800000020B6E0B6B230000028A4
S3150800430002D0B0F5004F1FD120687E49884221D1DE
S31508004310DDF848A0BAF1000F02D00020CAF8000064
S3150800432001F0A8FC80464B465246390014F11400A9
S3150800433003F081FA8346B9F80000002810D14046F8
S3150800434001F09CFC58468FE045F62560A9F8000068
S31508004350002089E045F6C450A9F80000002083E053
S31508004360300408D5404601F089FC46F2B010A9F899
S315080043700000002078E065480078002808D040460C
S3150800438001F07CFC46F66350A9F8000000206BE0BB
S315080043902B000522210000A803F000FD404601F08D
S315080043A06DFC03F0E3FB01F065FC804658480068A5
S315080043B090F83500002805D0022838D017D30328EE
S315080043C026D045E052480068D0F85CB050480068EE
S315080043D0B0F860003880BAF1000F04D04C48006885
S315080043E0006CCAF800000020A9F8000038E05FF069
S315080043F0000B00203880BAF1000F04D0444800684A
S31508004400006CCAF8000046F2A910A9F8000027E0D7
S315080044105FF0000B00203880BAF1000F02D00020B0
S31508004420CAF8000047F2D920A9F8000018E05FF0A2
S31508004430000B00203880BAF1000F04D03448006819
S31508004440006CCAF8000045F6C250A9F8000007E05B
S315080044505FF0000B0020388046F62E60A9F80000B1
S31508004460404601F00BFC584609B0BDE8F08F2DE92F
S31508004470FC4105000E0017009846089C002D03D144
S3150800448045F6C35020802AE01FFA88F840460028DF
S3150800449015D0102813D0B0F5007F10D0B0F5047FE2
S315080044A00DD0B0F5004F0AD048F21001884206D068
S315080044B0B0F5024F03D048F21021884211D128687E
S315080044C01049884211D103F01EFF0194009043461B
S315080044D09BB23A0092B23100280000F01BF8BDE802
S315080044E0F38145F625602080F9E745F6C45020801B
S315080044F0F5E70021044A1180002101807047000079
S31508004500114D002051554555064D0020164D0020E9
S31508004510E84C00202DE9F04F83B004000D0016008A
S315080045201F005FF0000A01F0A5FB824614F108009F
S31508004530DDF83080DDF834900189002914D1F806B9
S3150800454001D4002300E01023CDF80490CDF80080B4
S315080045509BB2320092B2290014F1140003F0A3F9B9
S31508004560504601F08BFB25E0B90502D5B0F808B036
S3150800457001E05FF0010B00680DE08168406801907A
S31508004580CDF8008033009BB22A00200003F0E0FC3F
S315080045900198BBF1010B1FFA8BFBBBF1000FECD1A5
S315080045A0504601F06BFB380401D403F0DFFA002013
S315080045B0A9F80000BDE8F78F2DE9F84305000E00BD
S315080045C0170098460020DDF82490584909780029F4
S315080045D004D045F2B960A9F8000053E0002F04D1D1
S315080045E045F2BB60A9F800004CE01FFA88F8B8F15C
S315080045F0020F04DA45F2BC60A9F8000042E0089C04
S31508004600A4B2042C04D245F2C160A9F8000039E02E
S31508004610032000280FD0074204D045F2BB60A9F852
S3150800462000002FE0210089B2014204D045F2C160A2
S31508004630A9F8000026E03B003A00B8F10101002085
S3150800464004E0A4B2A2181A601300401C80B289B212
S315080046508842F6D30020186001F00CFB3449296023
S31508004660AE606F60EF60A5F81480A5F812802C8202
S3150800467030490988491C2F4A118001F0FFFA0020A9
S31508004680A9F80000BDE8F18370B505000C0000200C
S31508004690002D04D145F2BF602080002016E001F00D
S315080046A0E9FAA98A002906D101F0E8FA45F2C260BA
S315080046B0208000200AE0EE683168E960A98A491E70
S315080046C0A98201F0DBFA00202080300070BD70B5A9
S315080046D005000E0014000020002D03D145F2BF602E
S315080046E020801BE0002E03D145F2BE60208015E035
S315080046F001F0C0FAA98A6A8A914205D301F0BEFA86
S3150800470045F2BA60208009E0E9683160EE60A98A5E
S31508004710491CA98201F0B2FA0020208070BD002150
S31508004720044A11800021018070470000114D0020C5
S315080047304D454D20024D002080B50A00002100F0AD
S3150800474001F801BD30B4002A27D0002825D000235F
S31508004750002403E01B02C9B20B43641C042CF9D3E2
S315080047600425B0FBF5F404FB1504E4B2002C08D0CC
S3150800477003E00170401C521E641C002A01D0042C60
S31508004780F7D302E00360001D121F042AFAD202E0E2
S315080047900170401C521E002AFAD130BC704770B412
S315080047A01300002B01D1012052E0002801D100207E
S315080047B04EE0002901D100204AE0012218185918B4
S315080047C00425B0FBF5F404FB1504E4B20426B1FB9A
S315080047D0F6F505FB1615EDB2AC4201D1012500E050
S315080047E00025EDB2012D2CD1002C10D008E0401E7A
S315080047F0491E05780E78B54200D000225B1E641E5D
S31508004800D2B2012A03D1002B01D0002CEFD1D2B2AB
S31508004810012A16D107E0001F091F04680D68AC427B
S3150800482000D000221B1FD2B2012A01D1042BF2D2DA
S3150800483007E0401E491E04780D78AC4200D00022DD
S315080048405B1ED2B2012A01D1002BF2D11000C0B2F0
S3150800485070BC704780B52021DFF8C00303F0FDFD6A
S3150800486000281CD0DFF8B40303F0F3FDDFF8B0131B
S315080048700968002913D0DFF8AC130968DFF8A0230C
S315080048801268891AFF290ADADFF898130968087086
S31508004890DFF890030068401CDFF8881308604021A1
S315080048A0DFF8780303F0D9FD002810D040F226611E
S315080048B0DFF8680303F0DEFD00AA0021DFF86803CD
S315080048C001F01FF8BDF80000002800D000BF01BDA8
S315080048D01CB52021DFF8540303F0BFFD002816D0CD
S315080048E0D24803F0B6FD040001A9D148FFF7CCFE73
S315080048F00100BDF80400002808D10C7001A800903A
S3150800490000230122CB48FFF7B2FD00E000BF40219B
S31508004910C64803F0A2FD00280ED040F22661C3481F
S3150800492003F0A8FD01AA0021C34800F0EAFFBDF87C
S315080049300400002800D000BF13BD00001CB52021CC
S31508004940BE4803F08AFD002816D0BC4803F081FD56
S31508004950040001A9B648FFF797FE0100BDF8040058
S31508004960002808D10C7001A8009000230122B14844
S31508004970FFF77DFD00E000BF4021B04803F06DFD64
S3150800498000280ED040F22661AC4803F073FD01AA58
S315080049900021AB4800F0B5FFBDF80400002800D0A0
S315080049A000BF13BD70B584B004000D00A54800789B
S315080049B0AA282BD1012240F22661A04803F01CFD4B
S315080049C0002612E00020ADF8040001A8009002AB12
S315080049D000224FF4FA719A4800F0D9FEB6B2315D5A
S315080049E089B2964803F031FD761CB6B2ADB2AE4236
S315080049F0E8D3002240F22661904803F0FDFC4021EE
S31508004A008E4803F02AFD002833D1F8E704218E48A2
S31508004A1001F0B5F9012240F22661844803F0ECFC66
S31508004A20002612E00020ADF8040001A8009002ABB1
S31508004A3000224FF4FA71804800F0A9FEB6B2315D43
S31508004A4089B27A4803F001FD761CB6B2ADB2AE4221
S31508004A50E8D3002240F22661744803F0CDFC4021D9
S31508004A60724803F0FAFC0028F9D00421764801F0D0
S31508004A7089F9012004B070BD70B584B004000D003A
S31508004A800421714801F07BF9012240F2266167484A
S31508004A9003F0B2FC002612E00020ADF8040001A8DD
S31508004AA0009002AB00224FF4FA71634800F06FFEE3
S31508004AB0B6B2315D89B25D4803F0C7FC761CB6B262
S31508004AC0ADB2AE42E8D3002240F22661574803F061
S31508004AD093FC4021554803F0C0FC0028F9D0042176
S31508004AE0594801F04FF9012004B070BD70B584B083
S31508004AF004000D00012240F22661484803F07CFCC0
S31508004B00002606E0B6B2315D89B2444803F09DFC42
S31508004B10761CB6B2ADB2AE420DD201A8009002AB79
S31508004B2000223221404800F032FEBDF80400002879
S31508004B30E8D0002006E0002240F22661374803F05C
S31508004B405BFC012004B070BD10B584B004000122DE
S31508004B5040F22661314803F04FFC40F226612F48A7
S31508004B6003F088FC05E0217889B22C4803F06DFC37
S31508004B70641C207800280DD001A8009002AB002202
S31508004B803221294800F003FEBDF804000028EAD0C7
S31508004B90002006E0002240F22661204803F02CFCA3
S31508004BA0012004B010BD38B50400002501F062F8F4
S31508004BB005001C4804601A480460280001F05EF8E5
S31508004BC0012032BD80B50021C0B2002809D001F00D
S31508004BD051F8010001201D4A1070080001F04EF836
S31508004BE008E001F047F801000020184A1070080094
S31508004BF001F044F8012002BD80B54FF4005003F0DF
S31508004C008FFC002809D000AB00220121104802F0D1
S31508004C1082FC4FF4005003F095FC01BD00380140BA
S31508004C20FC4C0020F84C0020704B00200048004047
S31508004C30684C00207C4A00208C4B00200044004031
S31508004C40A84B002092000020000C01400F4D0020C8
S31508004C50344C0020F8B505000E0014000027DFF8D4
S31508004C60E0000078002803D047F27520208040E055
S31508004C70DFF8D0000078002803D046F6635020807D
S31508004C8037E0B6B23000002805D0022803D0042841
S31508004C901FD008281ED1002D03D147F27E20208080
S31508004CA027E000F0E7FF07000120DFF89C100968FD
S31508004CB081F836002300320092B2290022480068A3
S31508004CC003F0C6FC2088002808D0380000F0D6FF7C
S31508004CD00FE0E6E745F6256020800AE01A480068F6
S31508004CE003F020FA380000F0C9FF02F03FFF002069
S31508004CF02080F1BD10B582B003F0D7FE00AA0021CE
S31508004D00124804F03BF90400114800780C21114AB6
S31508004D1001FB002003F034FA0F480068401E0E49D4
S31508004D2008600D480068002808D10C4800680A4940
S31508004D30086000AA00210A4804F020F913BD000003
S31508004D40114D0020164D0020E84C00206047002039
S31508004D50134D0020D83E0020E44C0020E04C0020F3
S31508004D601448002038B50C001500FFF7EDFE2000AA
S31508004D70FFF719FF00AA00212800FFF76BFFDFF8ED
S31508004D80240704680020FFF70EFF200032BD02E06A
S31508004D900D220270401C0278002A01D18842F7D3FE
S31508004DA0704738B50024002500A9DFF8FC06FFF790
S31508004DB06BFC0400BDF80000002826D125004FF43E
S31508004DC0807200212800FFF7BDFC64222900DFF865
S31508004DD0DC064068FFF7C6FF040021002800FFF73D
S31508004DE0D6FFB2A1280000F02FFC002807D000AAA1
S31508004DF02900DFF8B406FFF76AFC012006E000AADE
S31508004E002900DFF8A406FFF762FC002032BD70B562
S31508004E1082B00025002600A9DFF88C06FFF734FCCF
S31508004E200500BDF80000002835D12E00002400E05A
S31508004E30641CE4B2642C28DAE4B2002C04D000AA7C
S31508004E400021C820FFF706FF4FF4807200213000CA
S31508004E50FFF778FC64223100DFF850068068FFF718
S31508004E6081FF050029003000FFF791FFDFF84016A3
S31508004E70300000F0E9FB0028DAD000AA3100DFF89C
S31508004E802806FFF724FC012006E000AA3100DFF817
S31508004E901806FFF71CFC002076BD2DE9F84F002404
S31508004EA00025002600275FF000085FF000095FF084
S31508004EB0000A00A9DFF8F005FFF7E6FB8146BDF812
S31508004EC0000000285AD1CA465FF0000B02E0002411
S31508004ED01BF1010B5FFA8BFBBBF1640F48DA5FFA33
S31508004EE08BFBBBF1000F04D000AA0021C820FFF7F6
S31508004EF0B1FE4FF4807200215046FFF723FC64226E
S31508004F005146DFF8A805C068FFF72CFF81464946D9
S31508004F105046FFF73CFFB8A1504600F095FB002825
S31508004F20D5D03A224FF48071504600F065FB851CB7
S31508004F30280004F057F906002C224FF480715046D9
S31508004F4000F05AFB471C380004F04CF98046F6B2CC
S31508004F50062E0BDB641CE4B2072CB9DB00AA51460B
S31508004F60DFF84405FFF7B3FB012008E00024AFE7AC
S31508004F7000AA5146DFF83005FFF7A9FB0020BDE877
S31508004F80F28F70B582B00025002600A9DFF8180553
S31508004F90FFF77AFB0500BDF8000000283CD12E007B
S31508004FA0002400E0641CE4B2642C2FDAE4B2002C7E
S31508004FB004D000AA0021C820FFF74CFE4FF48072E7
S31508004FC000213000FFF7BEFB64223100DFF8DC0465
S31508004FD00069FFF7C7FE050029003000FFF7D7FE76
S31508004FE0DFF8D014300000F02FFB002806D1DFF8D8
S31508004FF0C814300000F028FB0028D3D000AA3100DE
S31508005000DFF8A404FFF763FB012006E000AA3100DD
S31508005010DFF89404FFF75BFB002076BD70B582B01D
S315080050200025002600A9DFF88004FFF72DFB050000
S31508005030BDF80000002835D12E00002400E0641CCD
S31508005040E4B2642C28DAE4B2002C04D000AA0021C9
S31508005050C820FFF7FFFD4FF4807200213000FFF7EC
S3150800506071FB64223100DFF844044069FFF77AFED9
S31508005070050029003000FFF78AFEDFF840143000EB
S3150800508000F0E2FA0028DAD000AA3100DFF81804A6
S31508005090FFF71DFB012006E000AA3100DFF808042F
S315080050A0FFF715FB002076BD000000004F4B0000FF
S315080050B038B50024002500A9DFF8EC03FFF7E4FA69
S315080050C00400BDF80000002826D125004FF48072A0
S315080050D000212800FFF736FB64222900DFF8CC03FD
S315080050E08069FFF73FFE040021002800FFF74FFE06
S315080050F0A1A1280000F0A8FA002807D000AA2900D4
S31508005100DFF8A403FFF7E3FA012006E000AA290066
S31508005110DFF89403FFF7DBFA002032BD38B5002428
S31508005120002500A9DFF88003FFF7AEFA0400BDF8F2
S315080051300000002824D125004FF4807200212800A1
S31508005140FFF700FB64222900DFF86003C069FFF758
S3150800515009FE040021002800FFF719FE86A1280091
S3150800516000F072FA002806D000AA2900CE48FFF7F8
S31508005170AEFA012005E000AA2900CB48FFF7A7FAF6
S31508005180002032BD70B582B00025002600A9C648A9
S31508005190FFF77AFA0500BDF8000000282AD12E008C
S315080051A0002400E0641CE4B2642C1EDA4FF480721A
S315080051B000213000FFF7C6FA4FF4FA623100BB4807
S315080051C0006AFFF7CFFD050029003000FFF7DFFD75
S315080051D069A1300000F038FA0028E3D000AA3100AF
S315080051E0B148FFF774FA012005E000AA3100AE487D
S315080051F0FFF76DFA002076BD4353510070B582B0B3
S315080052000025002600A9A848FFF73EFA0500BDF8C4
S315080052100000002831D12E00002400E0641CE4B20E
S31508005220642C25DAE4B2002C04D000AA0021C82098
S31508005230FFF710FD4FF4807200213000FFF782FA65
S31508005240642231009948406AFFF78CFD0500290061
S315080052503000FFF79CFD90A1300000F0F5F900281A
S31508005260DCD000AA31009048FFF731FA012005E0AA
S3150800527000AA31008C48FFF72AFA002076BD38B517
S315080052800024002500A98848FFF7FEF90400BDF8A8
S315080052900000002834D125004FF480720021280030
S315080052A0FFF750FA8148806AFFF74EFC8448FFF7FB
S315080052B04BFC8448FFF748FC2000FFF774FC00AA63
S315080052C0002140F6B830FFF7C5FC76480468002090
S315080052D0FFF769FC21002800FFF759FD7A492800E5
S315080052E000F0B2F9002806D000AA29006E48FFF798
S315080052F0EEF9012005E000AA29006B48FFF7E7F957
S31508005300002032BD30B585B004000D0001A800901C
S3150800531002AB00224FF47A716C4801F05DFAADB227
S315080053202A005EA103A801F0A3FE6048C06AFFF741
S315080053300BFC03A8FFF708FC59A0FFF705FC01A81A
S31508005340009002AB00224FF47A71614800F01FFA10
S31508005350BDF80400002801D000200AE0290089B21F
S315080053602000FFF7C3FB01AA0021584801F042FBC1
S31508005370012005B030BD00004F4B000080B5FFF797
S3150800538010FD002801D1002039E0FFF740FD002874
S3150800539001D1002033E0FFF780FD002801D100206D
S315080053A02DE0FFF7EEFD002801D1002027E0FFF7EA
S315080053B035FE002801D1002021E0FFF779FE0028FC
S315080053C001D100201BE0FFF7A9FE002801D100202B
S315080053D015E0FFF7D7FE002801D100200FE0FFF700
S315080053E00DFF002801D1002009E0FFF748FF00283B
S315080053F001D1002003E0012036490870012002BDD2
S3150800540010B582B00024C0B200282CD04FF48071A9
S31508005410314800F0B4FC4FF400612F4800F0B2FCAC
S3150800542000AA00214FF49660FFF714FC4FF40061C0
S31508005430294800F0A4FC00AA002140F6B830FFF77E
S3150800544009FC05E000AA00216420FFF703FC641CA0
S31508005450E4B2FA2C05DAFFF7A4FC0128F2D1012000
S315080054600DE000200BE04FF480711B4800F08AFC29
S3150800547000AA002140F6B830FFF7ECFB012016BD64
S3150800548038B50400002500F0F5FB05001148047046
S31508005490280000F0F3FB31BD2E0000002564000053
S315080054A00D000000F84C0020504C002000000020A1
S315080054B080BE0008BCBD0008C8BD0008D4BD0008F1
S315080054C05000002074000020E0BD0008504B00206A
S315080054D0FC4B00200E4D002000080140002201E090
S315080054E0401C521C002804D00378002B01D08A42A5
S315080054F0F6D31000704780B55FF0FF3200F001F870
S3150800550002BD30B4002801D1002029E0002901D1CC
